{
  "_format": "hh-sol-artifact-1",
  "contractName": "OndaV1Router",
  "sourceName": "contracts/OndaV1Router.sol",
  "abi": [
    {
      "inputs": [
        {
          "internalType": "address",
          "name": "_factory",
          "type": "address"
        }
      ],
      "stateMutability": "nonpayable",
      "type": "constructor"
    },
    {
      "anonymous": false,
      "inputs": [
        {
          "indexed": false,
          "internalType": "address",
          "name": "_token0",
          "type": "address"
        },
        {
          "indexed": false,
          "internalType": "address",
          "name": "_token1",
          "type": "address"
        },
        {
          "indexed": false,
          "internalType": "uint256",
          "name": "_amount",
          "type": "uint256"
        }
      ],
      "name": "AddLiquidity",
      "type": "event"
    },
    {
      "anonymous": false,
      "inputs": [
        {
          "indexed": false,
          "internalType": "address",
          "name": "_token0",
          "type": "address"
        },
        {
          "indexed": false,
          "internalType": "address",
          "name": "_token1",
          "type": "address"
        },
        {
          "indexed": false,
          "internalType": "uint256",
          "name": "_amountLiquidity",
          "type": "uint256"
        }
      ],
      "name": "DeleteLiquidity",
      "type": "event"
    },
    {
      "anonymous": false,
      "inputs": [
        {
          "indexed": false,
          "internalType": "address",
          "name": "_token0",
          "type": "address"
        },
        {
          "indexed": false,
          "internalType": "address",
          "name": "_token1",
          "type": "address"
        },
        {
          "indexed": false,
          "internalType": "uint256",
          "name": "_amount",
          "type": "uint256"
        }
      ],
      "name": "SwapToken",
      "type": "event"
    },
    {
      "inputs": [
        {
          "internalType": "address",
          "name": "_token0",
          "type": "address"
        },
        {
          "internalType": "address",
          "name": "_token1",
          "type": "address"
        },
        {
          "internalType": "uint256",
          "name": "_amount",
          "type": "uint256"
        }
      ],
      "name": "addLiquidity",
      "outputs": [
        {
          "internalType": "bool",
          "name": "",
          "type": "bool"
        }
      ],
      "stateMutability": "nonpayable",
      "type": "function"
    },
    {
      "inputs": [
        {
          "internalType": "address",
          "name": "_token0",
          "type": "address"
        },
        {
          "internalType": "address",
          "name": "_token1",
          "type": "address"
        },
        {
          "internalType": "uint256",
          "name": "_amountLiquidity",
          "type": "uint256"
        }
      ],
      "name": "deleteLiquidity",
      "outputs": [
        {
          "internalType": "bool",
          "name": "",
          "type": "bool"
        }
      ],
      "stateMutability": "nonpayable",
      "type": "function"
    },
    {
      "inputs": [],
      "name": "factory",
      "outputs": [
        {
          "internalType": "address",
          "name": "",
          "type": "address"
        }
      ],
      "stateMutability": "view",
      "type": "function"
    },
    {
      "inputs": [
        {
          "internalType": "address",
          "name": "_token0",
          "type": "address"
        },
        {
          "internalType": "address",
          "name": "_token1",
          "type": "address"
        },
        {
          "internalType": "uint256",
          "name": "_amount",
          "type": "uint256"
        }
      ],
      "name": "swapPriorityTokenToToken",
      "outputs": [
        {
          "internalType": "bool",
          "name": "",
          "type": "bool"
        }
      ],
      "stateMutability": "nonpayable",
      "type": "function"
    },
    {
      "inputs": [
        {
          "internalType": "address",
          "name": "_token0",
          "type": "address"
        },
        {
          "internalType": "address",
          "name": "_token1",
          "type": "address"
        },
        {
          "internalType": "uint256",
          "name": "_amount",
          "type": "uint256"
        }
      ],
      "name": "swapTokenToPriorityToken",
      "outputs": [
        {
          "internalType": "bool",
          "name": "",
          "type": "bool"
        }
      ],
      "stateMutability": "nonpayable",
      "type": "function"
    }
  ],
  "bytecode": "0x608060405234801561001057600080fd5b5060405161100f38038061100f8339818101604052810190610032919061008d565b806000806101000a81548173ffffffffffffffffffffffffffffffffffffffff021916908373ffffffffffffffffffffffffffffffffffffffff160217905550506100ff565b600081519050610087816100e8565b92915050565b60006020828403121561009f57600080fd5b60006100ad84828501610078565b91505092915050565b60006100c1826100c8565b9050919050565b600073ffffffffffffffffffffffffffffffffffffffff82169050919050565b6100f1816100b6565b81146100fc57600080fd5b50565b610f018061010e6000396000f3fe608060405234801561001057600080fd5b50600436106100575760003560e01c80633b6952c21461005c57806341fbd9b01461008c578063478c96d8146100bc578063c45a0155146100ec578063e4a767261461010a575b600080fd5b61007660048036038101906100719190610ad3565b61013a565b6040516100839190610dc0565b60405180910390f35b6100a660048036038101906100a19190610ad3565b610379565b6040516100b39190610dc0565b60405180910390f35b6100d660048036038101906100d19190610ad3565b6105b8565b6040516100e39190610dc0565b60405180910390f35b6100f46107f4565b6040516101019190610c07565b60405180910390f35b610124600480360381019061011f9190610ad3565b610818565b6040516101319190610dc0565b60405180910390f35b60008060008054906101000a900473ffffffffffffffffffffffffffffffffffffffff1673ffffffffffffffffffffffffffffffffffffffff16633fa1e0c886866040518363ffffffff1660e01b8152600401610198929190610c22565b60206040518083038186803b1580156101b057600080fd5b505afa1580156101c4573d6000803e3d6000fd5b505050506040513d601f19601f820116820180604052508101906101e89190610aaa565b9050600073ffffffffffffffffffffffffffffffffffffffff168173ffffffffffffffffffffffffffffffffffffffff16141561025a576040517f08c379a000000000000000000000000000000000000000000000000000000000815260040161025190610ddb565b60405180910390fd5b6000831161029d576040517f08c379a000000000000000000000000000000000000000000000000000000000815260040161029490610dfb565b60405180910390fd5b8073ffffffffffffffffffffffffffffffffffffffff16639ba613a88686338760006040518663ffffffff1660e01b81526004016102df959493929190610ce3565b602060405180830381600087803b1580156102f957600080fd5b505af115801561030d573d6000803e3d6000fd5b505050506040513d601f19601f820116820180604052508101906103319190610b22565b507f49e8e35b9443b6dc454567a034f530feb07c28909582dbe3110c44306278a7ff85858560405161036593929190610d89565b60405180910390a160019150509392505050565b60008060008054906101000a900473ffffffffffffffffffffffffffffffffffffffff1673ffffffffffffffffffffffffffffffffffffffff16633fa1e0c886866040518363ffffffff1660e01b81526004016103d7929190610c22565b60206040518083038186803b1580156103ef57600080fd5b505afa158015610403573d6000803e3d6000fd5b505050506040513d601f19601f820116820180604052508101906104279190610aaa565b9050600073ffffffffffffffffffffffffffffffffffffffff168173ffffffffffffffffffffffffffffffffffffffff161415610499576040517f08c379a000000000000000000000000000000000000000000000000000000000815260040161049090610ddb565b60405180910390fd5b600083116104dc576040517f08c379a00000000000000000000000000000000000000000000000000000000081526004016104d390610dfb565b60405180910390fd5b8073ffffffffffffffffffffffffffffffffffffffff16639ba613a88686336000886040518663ffffffff1660e01b815260040161051e959493929190610c4b565b602060405180830381600087803b15801561053857600080fd5b505af115801561054c573d6000803e3d6000fd5b505050506040513d601f19601f820116820180604052508101906105709190610b22565b507f49e8e35b9443b6dc454567a034f530feb07c28909582dbe3110c44306278a7ff8585856040516105a493929190610d89565b60405180910390a160019150509392505050565b60008060008054906101000a900473ffffffffffffffffffffffffffffffffffffffff1673ffffffffffffffffffffffffffffffffffffffff16633fa1e0c886866040518363ffffffff1660e01b8152600401610616929190610c22565b60206040518083038186803b15801561062e57600080fd5b505afa158015610642573d6000803e3d6000fd5b505050506040513d601f19601f820116820180604052508101906106669190610aaa565b9050600073ffffffffffffffffffffffffffffffffffffffff168173ffffffffffffffffffffffffffffffffffffffff1614156106d8576040517f08c379a00000000000000000000000000000000000000000000000000000000081526004016106cf90610ddb565b60405180910390fd5b6000831161071b576040517f08c379a000000000000000000000000000000000000000000000000000000000815260040161071290610dfb565b60405180910390fd5b8073ffffffffffffffffffffffffffffffffffffffff16630ad54a97868633876040518563ffffffff1660e01b815260040161075a9493929190610c9e565b602060405180830381600087803b15801561077457600080fd5b505af1158015610788573d6000803e3d6000fd5b505050506040513d601f19601f820116820180604052508101906107ac9190610b22565b507f47cecbd2b5eff62ec3429f33e7b155b4894deb3bffb52e092d0faea8c9c0f6138585856040516107e093929190610d89565b60405180910390a160019150509392505050565b60008054906101000a900473ffffffffffffffffffffffffffffffffffffffff1681565b60008060008054906101000a900473ffffffffffffffffffffffffffffffffffffffff1673ffffffffffffffffffffffffffffffffffffffff16633fa1e0c886866040518363ffffffff1660e01b8152600401610876929190610c22565b60206040518083038186803b15801561088e57600080fd5b505afa1580156108a2573d6000803e3d6000fd5b505050506040513d601f19601f820116820180604052508101906108c69190610aaa565b9050600073ffffffffffffffffffffffffffffffffffffffff168173ffffffffffffffffffffffffffffffffffffffff161415610938576040517f08c379a000000000000000000000000000000000000000000000000000000000815260040161092f90610ddb565b60405180910390fd5b6000831161097b576040517f08c379a000000000000000000000000000000000000000000000000000000000815260040161097290610dfb565b60405180910390fd5b8073ffffffffffffffffffffffffffffffffffffffff1663292140b586863387886040518663ffffffff1660e01b81526004016109bc959493929190610d36565b602060405180830381600087803b1580156109d657600080fd5b505af11580156109ea573d6000803e3d6000fd5b505050506040513d601f19601f82011682018060405250810190610a0e9190610b22565b507f668256213e6a9a0247adc238fcbf44cc6b98921642fca93479c5dc3873660837858585604051610a4293929190610d89565b60405180910390a160019150509392505050565b600081359050610a6581610e86565b92915050565b600081519050610a7a81610e86565b92915050565b600081519050610a8f81610e9d565b92915050565b600081359050610aa481610eb4565b92915050565b600060208284031215610abc57600080fd5b6000610aca84828501610a6b565b91505092915050565b600080600060608486031215610ae857600080fd5b6000610af686828701610a56565b9350506020610b0786828701610a56565b9250506040610b1886828701610a95565b9150509250925092565b600060208284031215610b3457600080fd5b6000610b4284828501610a80565b91505092915050565b610b5481610e2c565b82525050565b610b6381610e3e565b82525050565b610b7281610e74565b82525050565b6000610b85600e83610e1b565b91507f4e6f7420657869737420706f6f6c0000000000000000000000000000000000006000830152602082019050919050565b6000610bc5600b83610e1b565b91507f5a65726f20616d6f756e740000000000000000000000000000000000000000006000830152602082019050919050565b610c0181610e6a565b82525050565b6000602082019050610c1c6000830184610b4b565b92915050565b6000604082019050610c376000830185610b4b565b610c446020830184610b4b565b9392505050565b600060a082019050610c606000830188610b4b565b610c6d6020830187610b4b565b610c7a6040830186610b4b565b610c876060830185610b69565b610c946080830184610bf8565b9695505050505050565b6000608082019050610cb36000830187610b4b565b610cc06020830186610b4b565b610ccd6040830185610b4b565b610cda6060830184610bf8565b95945050505050565b600060a082019050610cf86000830188610b4b565b610d056020830187610b4b565b610d126040830186610b4b565b610d1f6060830185610bf8565b610d2c6080830184610b69565b9695505050505050565b600060a082019050610d4b6000830188610b4b565b610d586020830187610b4b565b610d656040830186610b4b565b610d726060830185610bf8565b610d7f6080830184610bf8565b9695505050505050565b6000606082019050610d9e6000830186610b4b565b610dab6020830185610b4b565b610db86040830184610bf8565b949350505050565b6000602082019050610dd56000830184610b5a565b92915050565b60006020820190508181036000830152610df481610b78565b9050919050565b60006020820190508181036000830152610e1481610bb8565b9050919050565b600082825260208201905092915050565b6000610e3782610e4a565b9050919050565b60008115159050919050565b600073ffffffffffffffffffffffffffffffffffffffff82169050919050565b6000819050919050565b6000610e7f82610e6a565b9050919050565b610e8f81610e2c565b8114610e9a57600080fd5b50565b610ea681610e3e565b8114610eb157600080fd5b50565b610ebd81610e6a565b8114610ec857600080fd5b5056fea2646970667358221220340959d6d1604d9d016ab0b76e5083ade7f534cbc04bd0ad67fb9129d576523d64736f6c63430008000033",
  "linkReferences": {},
  "deployedLinkReferences": {}
}