{
	"contracts/OndaV1Pool.sol": {
		"SwapPool": {
			"abi": [
				{
					"inputs": [
						{
							"internalType": "address",
							"name": "_token0",
							"type": "address"
						},
						{
							"internalType": "address",
							"name": "_token1",
							"type": "address"
						},
						{
							"internalType": "address",
							"name": "_lp",
							"type": "address"
						},
						{
							"internalType": "uint256",
							"name": "_fee",
							"type": "uint256"
						}
					],
					"stateMutability": "nonpayable",
					"type": "constructor"
				},
				{
					"anonymous": false,
					"inputs": [
						{
							"indexed": false,
							"internalType": "address",
							"name": "token0",
							"type": "address"
						},
						{
							"indexed": false,
							"internalType": "address",
							"name": "token1",
							"type": "address"
						},
						{
							"indexed": false,
							"internalType": "uint256",
							"name": "amount0",
							"type": "uint256"
						},
						{
							"indexed": false,
							"internalType": "uint256",
							"name": "amount1",
							"type": "uint256"
						}
					],
					"name": "AddLiquidity",
					"type": "event"
				},
				{
					"anonymous": false,
					"inputs": [
						{
							"indexed": false,
							"internalType": "address",
							"name": "token0",
							"type": "address"
						},
						{
							"indexed": false,
							"internalType": "address",
							"name": "token1",
							"type": "address"
						},
						{
							"indexed": false,
							"internalType": "uint256",
							"name": "amount0",
							"type": "uint256"
						},
						{
							"indexed": false,
							"internalType": "uint256",
							"name": "amount1",
							"type": "uint256"
						},
						{
							"indexed": false,
							"internalType": "uint256",
							"name": "liquidity",
							"type": "uint256"
						}
					],
					"name": "DeleteLiquidity",
					"type": "event"
				},
				{
					"anonymous": false,
					"inputs": [
						{
							"indexed": false,
							"internalType": "address",
							"name": "token0",
							"type": "address"
						},
						{
							"indexed": false,
							"internalType": "address",
							"name": "token1",
							"type": "address"
						},
						{
							"indexed": false,
							"internalType": "address",
							"name": "_to",
							"type": "address"
						},
						{
							"indexed": false,
							"internalType": "uint256",
							"name": "amount0",
							"type": "uint256"
						},
						{
							"indexed": false,
							"internalType": "uint256",
							"name": "amount1",
							"type": "uint256"
						}
					],
					"name": "SwapToken",
					"type": "event"
				},
				{
					"anonymous": false,
					"inputs": [
						{
							"indexed": false,
							"internalType": "address",
							"name": "token0",
							"type": "address"
						},
						{
							"indexed": false,
							"internalType": "address",
							"name": "token1",
							"type": "address"
						},
						{
							"indexed": false,
							"internalType": "uint256",
							"name": "newBalance0",
							"type": "uint256"
						},
						{
							"indexed": false,
							"internalType": "uint256",
							"name": "newBalance1",
							"type": "uint256"
						}
					],
					"name": "SyncStorage",
					"type": "event"
				},
				{
					"inputs": [
						{
							"internalType": "address",
							"name": "_token0",
							"type": "address"
						},
						{
							"internalType": "address",
							"name": "_token1",
							"type": "address"
						},
						{
							"internalType": "uint256",
							"name": "amount0",
							"type": "uint256"
						},
						{
							"internalType": "uint256",
							"name": "amount1",
							"type": "uint256"
						}
					],
					"name": "_addLiquidity",
					"outputs": [
						{
							"internalType": "bool",
							"name": "",
							"type": "bool"
						}
					],
					"stateMutability": "nonpayable",
					"type": "function"
				},
				{
					"inputs": [
						{
							"internalType": "address",
							"name": "_token0",
							"type": "address"
						},
						{
							"internalType": "address",
							"name": "_token1",
							"type": "address"
						},
						{
							"internalType": "address",
							"name": "_to",
							"type": "address"
						},
						{
							"internalType": "uint256",
							"name": "liquidity",
							"type": "uint256"
						},
						{
							"internalType": "uint256",
							"name": "amount0",
							"type": "uint256"
						},
						{
							"internalType": "uint256",
							"name": "amount1",
							"type": "uint256"
						}
					],
					"name": "_deleteLiquidity",
					"outputs": [
						{
							"internalType": "bool",
							"name": "",
							"type": "bool"
						}
					],
					"stateMutability": "nonpayable",
					"type": "function"
				},
				{
					"inputs": [
						{
							"internalType": "address",
							"name": "_token0",
							"type": "address"
						},
						{
							"internalType": "address",
							"name": "_token1",
							"type": "address"
						},
						{
							"internalType": "address",
							"name": "_to",
							"type": "address"
						},
						{
							"internalType": "uint256",
							"name": "amount0",
							"type": "uint256"
						},
						{
							"internalType": "uint256",
							"name": "amount1",
							"type": "uint256"
						}
					],
					"name": "_swap",
					"outputs": [
						{
							"internalType": "bool",
							"name": "",
							"type": "bool"
						}
					],
					"stateMutability": "nonpayable",
					"type": "function"
				},
				{
					"inputs": [],
					"name": "k",
					"outputs": [
						{
							"internalType": "uint256",
							"name": "",
							"type": "uint256"
						}
					],
					"stateMutability": "view",
					"type": "function"
				},
				{
					"inputs": [],
					"name": "lp",
					"outputs": [
						{
							"internalType": "address",
							"name": "",
							"type": "address"
						}
					],
					"stateMutability": "view",
					"type": "function"
				},
				{
					"inputs": [],
					"name": "min_liq",
					"outputs": [
						{
							"internalType": "uint256",
							"name": "",
							"type": "uint256"
						}
					],
					"stateMutability": "view",
					"type": "function"
				},
				{
					"inputs": [],
					"name": "price0",
					"outputs": [
						{
							"internalType": "uint256",
							"name": "",
							"type": "uint256"
						}
					],
					"stateMutability": "view",
					"type": "function"
				},
				{
					"inputs": [],
					"name": "price1",
					"outputs": [
						{
							"internalType": "uint256",
							"name": "",
							"type": "uint256"
						}
					],
					"stateMutability": "view",
					"type": "function"
				},
				{
					"inputs": [],
					"name": "reserve0",
					"outputs": [
						{
							"internalType": "uint256",
							"name": "",
							"type": "uint256"
						}
					],
					"stateMutability": "view",
					"type": "function"
				},
				{
					"inputs": [],
					"name": "reserve1",
					"outputs": [
						{
							"internalType": "uint256",
							"name": "",
							"type": "uint256"
						}
					],
					"stateMutability": "view",
					"type": "function"
				},
				{
					"inputs": [],
					"name": "token0",
					"outputs": [
						{
							"internalType": "address",
							"name": "",
							"type": "address"
						}
					],
					"stateMutability": "view",
					"type": "function"
				},
				{
					"inputs": [],
					"name": "token1",
					"outputs": [
						{
							"internalType": "address",
							"name": "",
							"type": "address"
						}
					],
					"stateMutability": "view",
					"type": "function"
				},
				{
					"inputs": [],
					"name": "totalSupply",
					"outputs": [
						{
							"internalType": "uint256",
							"name": "",
							"type": "uint256"
						}
					],
					"stateMutability": "view",
					"type": "function"
				}
			],
			"devdoc": {
				"kind": "dev",
				"methods": {},
				"version": 1
			},
			"evm": {
				"assembly": "    /* \"contracts/OndaV1Pool.sol\":208:7530  contract SwapPool {... */\n  mstore(0x40, 0x80)\n    /* \"contracts/OndaV1Pool.sol\":368:369  0 */\n  0x00\n    /* \"contracts/OndaV1Pool.sol\":349:369  uint private key = 0 */\n  0x05\n  sstore\n    /* \"contracts/OndaV1Pool.sol\":1320:1488  constructor(address _token0, address _token1, address _lp, uint _fee) {... */\n  callvalue\n  dup1\n  iszero\n  tag_1\n  jumpi\n  0x00\n  dup1\n  revert\ntag_1:\n  pop\n  mload(0x40)\n  sub(codesize, bytecodeSize)\n  dup1\n  bytecodeSize\n  dup4\n  codecopy\n  dup2\n  dup2\n  add\n  0x40\n  mstore\n  dup2\n  add\n  swap1\n  tag_2\n  swap2\n  swap1\n  tag_3\n  jump\t// in\ntag_2:\n    /* \"contracts/OndaV1Pool.sol\":1403:1413  msg.sender */\n  caller\n    /* \"contracts/OndaV1Pool.sol\":1395:1400  owner */\n  0x00\n  dup1\n    /* \"contracts/OndaV1Pool.sol\":1395:1413  owner = msg.sender */\n  0x0100\n  exp\n  dup2\n  sload\n  dup2\n  0xffffffffffffffffffffffffffffffffffffffff\n  mul\n  not\n  and\n  swap1\n  dup4\n  0xffffffffffffffffffffffffffffffffffffffff\n  and\n  mul\n  or\n  swap1\n  sstore\n  pop\n    /* \"contracts/OndaV1Pool.sol\":1427:1434  _token0 */\n  dup4\n    /* \"contracts/OndaV1Pool.sol\":1418:1424  token0 */\n  0x01\n  0x00\n    /* \"contracts/OndaV1Pool.sol\":1418:1434  token0 = _token0 */\n  0x0100\n  exp\n  dup2\n  sload\n  dup2\n  0xffffffffffffffffffffffffffffffffffffffff\n  mul\n  not\n  and\n  swap1\n  dup4\n  0xffffffffffffffffffffffffffffffffffffffff\n  and\n  mul\n  or\n  swap1\n  sstore\n  pop\n    /* \"contracts/OndaV1Pool.sol\":1448:1455  _token1 */\n  dup3\n    /* \"contracts/OndaV1Pool.sol\":1439:1445  token1 */\n  0x02\n  0x00\n    /* \"contracts/OndaV1Pool.sol\":1439:1455  token1 = _token1 */\n  0x0100\n  exp\n  dup2\n  sload\n  dup2\n  0xffffffffffffffffffffffffffffffffffffffff\n  mul\n  not\n  and\n  swap1\n  dup4\n  0xffffffffffffffffffffffffffffffffffffffff\n  and\n  mul\n  or\n  swap1\n  sstore\n  pop\n    /* \"contracts/OndaV1Pool.sol\":1465:1468  _lp */\n  dup2\n    /* \"contracts/OndaV1Pool.sol\":1460:1462  lp */\n  0x03\n  0x00\n    /* \"contracts/OndaV1Pool.sol\":1460:1468  lp = _lp */\n  0x0100\n  exp\n  dup2\n  sload\n  dup2\n  0xffffffffffffffffffffffffffffffffffffffff\n  mul\n  not\n  and\n  swap1\n  dup4\n  0xffffffffffffffffffffffffffffffffffffffff\n  and\n  mul\n  or\n  swap1\n  sstore\n  pop\n    /* \"contracts/OndaV1Pool.sol\":1479:1483  _fee */\n  dup1\n    /* \"contracts/OndaV1Pool.sol\":1473:1476  fee */\n  0x0b\n    /* \"contracts/OndaV1Pool.sol\":1473:1483  fee = _fee */\n  dup2\n  swap1\n  sstore\n  pop\n    /* \"contracts/OndaV1Pool.sol\":1320:1488  constructor(address _token0, address _token1, address _lp, uint _fee) {... */\n  pop\n  pop\n  pop\n  pop\n    /* \"contracts/OndaV1Pool.sol\":208:7530  contract SwapPool {... */\n  jump(tag_6)\n    /* \"#utility.yul\":88:205   */\ntag_8:\n    /* \"#utility.yul\":197:198   */\n  0x00\n    /* \"#utility.yul\":194:195   */\n  dup1\n    /* \"#utility.yul\":187:199   */\n  revert\n    /* \"#utility.yul\":334:460   */\ntag_10:\n    /* \"#utility.yul\":371:378   */\n  0x00\n    /* \"#utility.yul\":411:453   */\n  0xffffffffffffffffffffffffffffffffffffffff\n    /* \"#utility.yul\":404:409   */\n  dup3\n    /* \"#utility.yul\":400:454   */\n  and\n    /* \"#utility.yul\":389:454   */\n  swap1\n  pop\n    /* \"#utility.yul\":334:460   */\n  swap2\n  swap1\n  pop\n  jump\t// out\n    /* \"#utility.yul\":466:562   */\ntag_11:\n    /* \"#utility.yul\":503:510   */\n  0x00\n    /* \"#utility.yul\":532:556   */\n  tag_23\n    /* \"#utility.yul\":550:555   */\n  dup3\n    /* \"#utility.yul\":532:556   */\n  tag_10\n  jump\t// in\ntag_23:\n    /* \"#utility.yul\":521:556   */\n  swap1\n  pop\n    /* \"#utility.yul\":466:562   */\n  swap2\n  swap1\n  pop\n  jump\t// out\n    /* \"#utility.yul\":568:690   */\ntag_12:\n    /* \"#utility.yul\":641:665   */\n  tag_25\n    /* \"#utility.yul\":659:664   */\n  dup2\n    /* \"#utility.yul\":641:665   */\n  tag_11\n  jump\t// in\ntag_25:\n    /* \"#utility.yul\":634:639   */\n  dup2\n    /* \"#utility.yul\":631:666   */\n  eq\n    /* \"#utility.yul\":621:684   */\n  tag_26\n  jumpi\n    /* \"#utility.yul\":680:681   */\n  0x00\n    /* \"#utility.yul\":677:678   */\n  dup1\n    /* \"#utility.yul\":670:682   */\n  revert\n    /* \"#utility.yul\":621:684   */\ntag_26:\n    /* \"#utility.yul\":568:690   */\n  pop\n  jump\t// out\n    /* \"#utility.yul\":696:839   */\ntag_13:\n    /* \"#utility.yul\":753:758   */\n  0x00\n    /* \"#utility.yul\":784:790   */\n  dup2\n    /* \"#utility.yul\":778:791   */\n  mload\n    /* \"#utility.yul\":769:791   */\n  swap1\n  pop\n    /* \"#utility.yul\":800:833   */\n  tag_28\n    /* \"#utility.yul\":827:832   */\n  dup2\n    /* \"#utility.yul\":800:833   */\n  tag_12\n  jump\t// in\ntag_28:\n    /* \"#utility.yul\":696:839   */\n  swap3\n  swap2\n  pop\n  pop\n  jump\t// out\n    /* \"#utility.yul\":845:922   */\ntag_14:\n    /* \"#utility.yul\":882:889   */\n  0x00\n    /* \"#utility.yul\":911:916   */\n  dup2\n    /* \"#utility.yul\":900:916   */\n  swap1\n  pop\n    /* \"#utility.yul\":845:922   */\n  swap2\n  swap1\n  pop\n  jump\t// out\n    /* \"#utility.yul\":928:1050   */\ntag_15:\n    /* \"#utility.yul\":1001:1025   */\n  tag_31\n    /* \"#utility.yul\":1019:1024   */\n  dup2\n    /* \"#utility.yul\":1001:1025   */\n  tag_14\n  jump\t// in\ntag_31:\n    /* \"#utility.yul\":994:999   */\n  dup2\n    /* \"#utility.yul\":991:1026   */\n  eq\n    /* \"#utility.yul\":981:1044   */\n  tag_32\n  jumpi\n    /* \"#utility.yul\":1040:1041   */\n  0x00\n    /* \"#utility.yul\":1037:1038   */\n  dup1\n    /* \"#utility.yul\":1030:1042   */\n  revert\n    /* \"#utility.yul\":981:1044   */\ntag_32:\n    /* \"#utility.yul\":928:1050   */\n  pop\n  jump\t// out\n    /* \"#utility.yul\":1056:1199   */\ntag_16:\n    /* \"#utility.yul\":1113:1118   */\n  0x00\n    /* \"#utility.yul\":1144:1150   */\n  dup2\n    /* \"#utility.yul\":1138:1151   */\n  mload\n    /* \"#utility.yul\":1129:1151   */\n  swap1\n  pop\n    /* \"#utility.yul\":1160:1193   */\n  tag_34\n    /* \"#utility.yul\":1187:1192   */\n  dup2\n    /* \"#utility.yul\":1160:1193   */\n  tag_15\n  jump\t// in\ntag_34:\n    /* \"#utility.yul\":1056:1199   */\n  swap3\n  swap2\n  pop\n  pop\n  jump\t// out\n    /* \"#utility.yul\":1205:2025   */\ntag_3:\n    /* \"#utility.yul\":1302:1308   */\n  0x00\n    /* \"#utility.yul\":1310:1316   */\n  dup1\n    /* \"#utility.yul\":1318:1324   */\n  0x00\n    /* \"#utility.yul\":1326:1332   */\n  dup1\n    /* \"#utility.yul\":1375:1378   */\n  0x80\n    /* \"#utility.yul\":1363:1372   */\n  dup6\n    /* \"#utility.yul\":1354:1361   */\n  dup8\n    /* \"#utility.yul\":1350:1373   */\n  sub\n    /* \"#utility.yul\":1346:1379   */\n  slt\n    /* \"#utility.yul\":1343:1463   */\n  iszero\n  tag_36\n  jumpi\n    /* \"#utility.yul\":1382:1461   */\n  tag_37\n  tag_8\n  jump\t// in\ntag_37:\n    /* \"#utility.yul\":1343:1463   */\ntag_36:\n    /* \"#utility.yul\":1502:1503   */\n  0x00\n    /* \"#utility.yul\":1527:1591   */\n  tag_38\n    /* \"#utility.yul\":1583:1590   */\n  dup8\n    /* \"#utility.yul\":1574:1580   */\n  dup3\n    /* \"#utility.yul\":1563:1572   */\n  dup9\n    /* \"#utility.yul\":1559:1581   */\n  add\n    /* \"#utility.yul\":1527:1591   */\n  tag_13\n  jump\t// in\ntag_38:\n    /* \"#utility.yul\":1517:1591   */\n  swap5\n  pop\n    /* \"#utility.yul\":1473:1601   */\n  pop\n    /* \"#utility.yul\":1640:1642   */\n  0x20\n    /* \"#utility.yul\":1666:1730   */\n  tag_39\n    /* \"#utility.yul\":1722:1729   */\n  dup8\n    /* \"#utility.yul\":1713:1719   */\n  dup3\n    /* \"#utility.yul\":1702:1711   */\n  dup9\n    /* \"#utility.yul\":1698:1720   */\n  add\n    /* \"#utility.yul\":1666:1730   */\n  tag_13\n  jump\t// in\ntag_39:\n    /* \"#utility.yul\":1656:1730   */\n  swap4\n  pop\n    /* \"#utility.yul\":1611:1740   */\n  pop\n    /* \"#utility.yul\":1779:1781   */\n  0x40\n    /* \"#utility.yul\":1805:1869   */\n  tag_40\n    /* \"#utility.yul\":1861:1868   */\n  dup8\n    /* \"#utility.yul\":1852:1858   */\n  dup3\n    /* \"#utility.yul\":1841:1850   */\n  dup9\n    /* \"#utility.yul\":1837:1859   */\n  add\n    /* \"#utility.yul\":1805:1869   */\n  tag_13\n  jump\t// in\ntag_40:\n    /* \"#utility.yul\":1795:1869   */\n  swap3\n  pop\n    /* \"#utility.yul\":1750:1879   */\n  pop\n    /* \"#utility.yul\":1918:1920   */\n  0x60\n    /* \"#utility.yul\":1944:2008   */\n  tag_41\n    /* \"#utility.yul\":2000:2007   */\n  dup8\n    /* \"#utility.yul\":1991:1997   */\n  dup3\n    /* \"#utility.yul\":1980:1989   */\n  dup9\n    /* \"#utility.yul\":1976:1998   */\n  add\n    /* \"#utility.yul\":1944:2008   */\n  tag_16\n  jump\t// in\ntag_41:\n    /* \"#utility.yul\":1934:2008   */\n  swap2\n  pop\n    /* \"#utility.yul\":1889:2018   */\n  pop\n    /* \"#utility.yul\":1205:2025   */\n  swap3\n  swap6\n  swap2\n  swap5\n  pop\n  swap3\n  pop\n  jump\t// out\n    /* \"contracts/OndaV1Pool.sol\":208:7530  contract SwapPool {... */\ntag_6:\n  dataSize(sub_0)\n  dup1\n  dataOffset(sub_0)\n  0x00\n  codecopy\n  0x00\n  return\nstop\n\nsub_0: assembly {\n        /* \"contracts/OndaV1Pool.sol\":208:7530  contract SwapPool {... */\n      mstore(0x40, 0x80)\n      callvalue\n      dup1\n      iszero\n      tag_1\n      jumpi\n      0x00\n      dup1\n      revert\n    tag_1:\n      pop\n      jumpi(tag_2, lt(calldatasize, 0x04))\n      shr(0xe0, calldataload(0x00))\n      dup1\n      0x77619ac5\n      gt\n      tag_16\n      jumpi\n      dup1\n      0xa0a986f1\n      gt\n      tag_17\n      jumpi\n      dup1\n      0xa0a986f1\n      eq\n      tag_12\n      jumpi\n      dup1\n      0xb4f40c61\n      eq\n      tag_13\n      jumpi\n      dup1\n      0xd21220a7\n      eq\n      tag_14\n      jumpi\n      dup1\n      0xdb5159a2\n      eq\n      tag_15\n      jumpi\n      jump(tag_2)\n    tag_17:\n      dup1\n      0x77619ac5\n      eq\n      tag_9\n      jumpi\n      dup1\n      0x8f402b56\n      eq\n      tag_10\n      jumpi\n      dup1\n      0x9ba613a8\n      eq\n      tag_11\n      jumpi\n      jump(tag_2)\n    tag_16:\n      dup1\n      0x0dfe1681\n      eq\n      tag_3\n      jumpi\n      dup1\n      0x18160ddd\n      eq\n      tag_4\n      jumpi\n      dup1\n      0x313c06a0\n      eq\n      tag_5\n      jumpi\n      dup1\n      0x443cb4bc\n      eq\n      tag_6\n      jumpi\n      dup1\n      0x5a76f25e\n      eq\n      tag_7\n      jumpi\n      dup1\n      0x6caf25ce\n      eq\n      tag_8\n      jumpi\n    tag_2:\n      0x00\n      dup1\n      revert\n        /* \"contracts/OndaV1Pool.sol\":259:280  address public token0 */\n    tag_3:\n      tag_18\n      tag_19\n      jump\t// in\n    tag_18:\n      mload(0x40)\n      tag_20\n      swap2\n      swap1\n      tag_21\n      jump\t// in\n    tag_20:\n      mload(0x40)\n      dup1\n      swap2\n      sub\n      swap1\n      return\n        /* \"contracts/OndaV1Pool.sol\":465:488  uint public totalSupply */\n    tag_4:\n      tag_22\n      tag_23\n      jump\t// in\n    tag_22:\n      mload(0x40)\n      tag_24\n      swap2\n      swap1\n      tag_25\n      jump\t// in\n    tag_24:\n      mload(0x40)\n      dup1\n      swap2\n      sub\n      swap1\n      return\n        /* \"contracts/OndaV1Pool.sol\":309:326  address public lp */\n    tag_5:\n      tag_26\n      tag_27\n      jump\t// in\n    tag_26:\n      mload(0x40)\n      tag_28\n      swap2\n      swap1\n      tag_21\n      jump\t// in\n    tag_28:\n      mload(0x40)\n      dup1\n      swap2\n      sub\n      swap1\n      return\n        /* \"contracts/OndaV1Pool.sol\":373:393  uint public reserve0 */\n    tag_6:\n      tag_29\n      tag_30\n      jump\t// in\n    tag_29:\n      mload(0x40)\n      tag_31\n      swap2\n      swap1\n      tag_25\n      jump\t// in\n    tag_31:\n      mload(0x40)\n      dup1\n      swap2\n      sub\n      swap1\n      return\n        /* \"contracts/OndaV1Pool.sol\":397:417  uint public reserve1 */\n    tag_7:\n      tag_32\n      tag_33\n      jump\t// in\n    tag_32:\n      mload(0x40)\n      tag_34\n      swap2\n      swap1\n      tag_25\n      jump\t// in\n    tag_34:\n      mload(0x40)\n      dup1\n      swap2\n      sub\n      swap1\n      return\n        /* \"contracts/OndaV1Pool.sol\":443:461  uint public price1 */\n    tag_8:\n      tag_35\n      tag_36\n      jump\t// in\n    tag_35:\n      mload(0x40)\n      tag_37\n      swap2\n      swap1\n      tag_25\n      jump\t// in\n    tag_37:\n      mload(0x40)\n      dup1\n      swap2\n      sub\n      swap1\n      return\n        /* \"contracts/OndaV1Pool.sol\":3644:5153  function _addLiquidity(address _token0, address _token1, uint amount0, uint amount1) public returns (bool) {... */\n    tag_9:\n      tag_38\n      0x04\n      dup1\n      calldatasize\n      sub\n      dup2\n      add\n      swap1\n      tag_39\n      swap2\n      swap1\n      tag_40\n      jump\t// in\n    tag_39:\n      tag_41\n      jump\t// in\n    tag_38:\n      mload(0x40)\n      tag_42\n      swap2\n      swap1\n      tag_43\n      jump\t// in\n    tag_42:\n      mload(0x40)\n      dup1\n      swap2\n      sub\n      swap1\n      return\n        /* \"contracts/OndaV1Pool.sol\":512:548  uint public constant min_liq = 10**2 */\n    tag_10:\n      tag_44\n      tag_45\n      jump\t// in\n    tag_44:\n      mload(0x40)\n      tag_46\n      swap2\n      swap1\n      tag_25\n      jump\t// in\n    tag_46:\n      mload(0x40)\n      dup1\n      swap2\n      sub\n      swap1\n      return\n        /* \"contracts/OndaV1Pool.sol\":6256:7525  function _swap(address _token0, address _token1, address _to, uint amount0, uint amount1) public returns (bool) {... */\n    tag_11:\n      tag_47\n      0x04\n      dup1\n      calldatasize\n      sub\n      dup2\n      add\n      swap1\n      tag_48\n      swap2\n      swap1\n      tag_49\n      jump\t// in\n    tag_48:\n      tag_50\n      jump\t// in\n    tag_47:\n      mload(0x40)\n      tag_51\n      swap2\n      swap1\n      tag_43\n      jump\t// in\n    tag_51:\n      mload(0x40)\n      dup1\n      swap2\n      sub\n      swap1\n      return\n        /* \"contracts/OndaV1Pool.sol\":421:439  uint public price0 */\n    tag_12:\n      tag_52\n      tag_53\n      jump\t// in\n    tag_52:\n      mload(0x40)\n      tag_54\n      swap2\n      swap1\n      tag_25\n      jump\t// in\n    tag_54:\n      mload(0x40)\n      dup1\n      swap2\n      sub\n      swap1\n      return\n        /* \"contracts/OndaV1Pool.sol\":332:345  uint public k */\n    tag_13:\n      tag_55\n      tag_56\n      jump\t// in\n    tag_55:\n      mload(0x40)\n      tag_57\n      swap2\n      swap1\n      tag_25\n      jump\t// in\n    tag_57:\n      mload(0x40)\n      dup1\n      swap2\n      sub\n      swap1\n      return\n        /* \"contracts/OndaV1Pool.sol\":284:305  address public token1 */\n    tag_14:\n      tag_58\n      tag_59\n      jump\t// in\n    tag_58:\n      mload(0x40)\n      tag_60\n      swap2\n      swap1\n      tag_21\n      jump\t// in\n    tag_60:\n      mload(0x40)\n      dup1\n      swap2\n      sub\n      swap1\n      return\n        /* \"contracts/OndaV1Pool.sol\":5158:6251  function _deleteLiquidity(address _token0, address _token1, address _to, uint liquidity, uint amount0, uint amount1) public returns (bool) {... */\n    tag_15:\n      tag_61\n      0x04\n      dup1\n      calldatasize\n      sub\n      dup2\n      add\n      swap1\n      tag_62\n      swap2\n      swap1\n      tag_63\n      jump\t// in\n    tag_62:\n      tag_64\n      jump\t// in\n    tag_61:\n      mload(0x40)\n      tag_65\n      swap2\n      swap1\n      tag_43\n      jump\t// in\n    tag_65:\n      mload(0x40)\n      dup1\n      swap2\n      sub\n      swap1\n      return\n        /* \"contracts/OndaV1Pool.sol\":259:280  address public token0 */\n    tag_19:\n      0x01\n      0x00\n      swap1\n      sload\n      swap1\n      0x0100\n      exp\n      swap1\n      div\n      0xffffffffffffffffffffffffffffffffffffffff\n      and\n      dup2\n      jump\t// out\n        /* \"contracts/OndaV1Pool.sol\":465:488  uint public totalSupply */\n    tag_23:\n      sload(0x0a)\n      dup2\n      jump\t// out\n        /* \"contracts/OndaV1Pool.sol\":309:326  address public lp */\n    tag_27:\n      0x03\n      0x00\n      swap1\n      sload\n      swap1\n      0x0100\n      exp\n      swap1\n      div\n      0xffffffffffffffffffffffffffffffffffffffff\n      and\n      dup2\n      jump\t// out\n        /* \"contracts/OndaV1Pool.sol\":373:393  uint public reserve0 */\n    tag_30:\n      sload(0x06)\n      dup2\n      jump\t// out\n        /* \"contracts/OndaV1Pool.sol\":397:417  uint public reserve1 */\n    tag_33:\n      sload(0x07)\n      dup2\n      jump\t// out\n        /* \"contracts/OndaV1Pool.sol\":443:461  uint public price1 */\n    tag_36:\n      sload(0x09)\n      dup2\n      jump\t// out\n        /* \"contracts/OndaV1Pool.sol\":3644:5153  function _addLiquidity(address _token0, address _token1, uint amount0, uint amount1) public returns (bool) {... */\n    tag_41:\n        /* \"contracts/OndaV1Pool.sol\":3745:3749  bool */\n      0x00\n        /* \"contracts/OndaV1Pool.sol\":3757:3778  uint balanceContract0 */\n      dup1\n        /* \"contracts/OndaV1Pool.sol\":3780:3801  uint balanceContract1 */\n      0x00\n        /* \"contracts/OndaV1Pool.sol\":3805:3821  getBalancePair() */\n      tag_67\n        /* \"contracts/OndaV1Pool.sol\":3805:3819  getBalancePair */\n      tag_68\n        /* \"contracts/OndaV1Pool.sol\":3805:3821  getBalancePair() */\n      jump\t// in\n    tag_67:\n        /* \"contracts/OndaV1Pool.sol\":3756:3821  (uint balanceContract0, uint balanceContract1) = getBalancePair() */\n      swap2\n      pop\n      swap2\n      pop\n        /* \"contracts/OndaV1Pool.sol\":3845:3851  token0 */\n      0x01\n      0x00\n      swap1\n      sload\n      swap1\n      0x0100\n      exp\n      swap1\n      div\n      0xffffffffffffffffffffffffffffffffffffffff\n      and\n        /* \"contracts/OndaV1Pool.sol\":3834:3851  _token0 == token0 */\n      0xffffffffffffffffffffffffffffffffffffffff\n      and\n        /* \"contracts/OndaV1Pool.sol\":3834:3841  _token0 */\n      dup8\n        /* \"contracts/OndaV1Pool.sol\":3834:3851  _token0 == token0 */\n      0xffffffffffffffffffffffffffffffffffffffff\n      and\n      eq\n        /* \"contracts/OndaV1Pool.sol\":3834:3872  _token0 == token0 && _token1 == token1 */\n      dup1\n      iszero\n      tag_69\n      jumpi\n      pop\n        /* \"contracts/OndaV1Pool.sol\":3866:3872  token1 */\n      0x02\n      0x00\n      swap1\n      sload\n      swap1\n      0x0100\n      exp\n      swap1\n      div\n      0xffffffffffffffffffffffffffffffffffffffff\n      and\n        /* \"contracts/OndaV1Pool.sol\":3855:3872  _token1 == token1 */\n      0xffffffffffffffffffffffffffffffffffffffff\n      and\n        /* \"contracts/OndaV1Pool.sol\":3855:3862  _token1 */\n      dup7\n        /* \"contracts/OndaV1Pool.sol\":3855:3872  _token1 == token1 */\n      0xffffffffffffffffffffffffffffffffffffffff\n      and\n      eq\n        /* \"contracts/OndaV1Pool.sol\":3834:3872  _token0 == token0 && _token1 == token1 */\n    tag_69:\n        /* \"contracts/OndaV1Pool.sol\":3826:3893  require(_token0 == token0 && _token1 == token1, 'Not used address') */\n      tag_70\n      jumpi\n      mload(0x40)\n      0x08c379a000000000000000000000000000000000000000000000000000000000\n      dup2\n      mstore\n      0x04\n      add\n      tag_71\n      swap1\n      tag_72\n      jump\t// in\n    tag_71:\n      mload(0x40)\n      dup1\n      swap2\n      sub\n      swap1\n      revert\n    tag_70:\n        /* \"contracts/OndaV1Pool.sol\":3917:3924  amount1 */\n      dup4\n        /* \"contracts/OndaV1Pool.sol\":3906:3913  amount0 */\n      dup6\n        /* \"contracts/OndaV1Pool.sol\":3906:3924  amount0 == amount1 */\n      eq\n        /* \"contracts/OndaV1Pool.sol\":3898:3938  require(amount0 == amount1, 'Not equal') */\n      tag_73\n      jumpi\n      mload(0x40)\n      0x08c379a000000000000000000000000000000000000000000000000000000000\n      dup2\n      mstore\n      0x04\n      add\n      tag_74\n      swap1\n      tag_75\n      jump\t// in\n    tag_74:\n      mload(0x40)\n      dup1\n      swap2\n      sub\n      swap1\n      revert\n    tag_73:\n        /* \"contracts/OndaV1Pool.sol\":3943:4019  TransferHelper.safeTransferFrom(_token0, msg.sender, address(this), amount0) */\n      tag_76\n        /* \"contracts/OndaV1Pool.sol\":3975:3982  _token0 */\n      dup8\n        /* \"contracts/OndaV1Pool.sol\":3984:3994  msg.sender */\n      caller\n        /* \"contracts/OndaV1Pool.sol\":4004:4008  this */\n      address\n        /* \"contracts/OndaV1Pool.sol\":4011:4018  amount0 */\n      dup9\n        /* \"contracts/OndaV1Pool.sol\":3943:3974  TransferHelper.safeTransferFrom */\n      tag_77\n        /* \"contracts/OndaV1Pool.sol\":3943:4019  TransferHelper.safeTransferFrom(_token0, msg.sender, address(this), amount0) */\n      jump\t// in\n    tag_76:\n        /* \"contracts/OndaV1Pool.sol\":4030:4106  TransferHelper.safeTransferFrom(_token1, msg.sender, address(this), amount1) */\n      tag_78\n        /* \"contracts/OndaV1Pool.sol\":4062:4069  _token1 */\n      dup7\n        /* \"contracts/OndaV1Pool.sol\":4071:4081  msg.sender */\n      caller\n        /* \"contracts/OndaV1Pool.sol\":4091:4095  this */\n      address\n        /* \"contracts/OndaV1Pool.sol\":4098:4105  amount1 */\n      dup8\n        /* \"contracts/OndaV1Pool.sol\":4030:4061  TransferHelper.safeTransferFrom */\n      tag_77\n        /* \"contracts/OndaV1Pool.sol\":4030:4106  TransferHelper.safeTransferFrom(_token1, msg.sender, address(this), amount1) */\n      jump\t// in\n    tag_78:\n        /* \"contracts/OndaV1Pool.sol\":4119:4133  uint _balance0 */\n      0x00\n        /* \"contracts/OndaV1Pool.sol\":4143:4150  _token0 */\n      dup8\n        /* \"contracts/OndaV1Pool.sol\":4136:4161  IERC20(_token0).balanceOf */\n      0xffffffffffffffffffffffffffffffffffffffff\n      and\n      0x70a08231\n        /* \"contracts/OndaV1Pool.sol\":4170:4174  this */\n      address\n        /* \"contracts/OndaV1Pool.sol\":4136:4176  IERC20(_token0).balanceOf(address(this)) */\n      mload(0x40)\n      dup3\n      0xffffffff\n      and\n      0xe0\n      shl\n      dup2\n      mstore\n      0x04\n      add\n      tag_79\n      swap2\n      swap1\n      tag_21\n      jump\t// in\n    tag_79:\n      0x20\n      mload(0x40)\n      dup1\n      dup4\n      sub\n      dup2\n      dup7\n      gas\n      staticcall\n      iszero\n      dup1\n      iszero\n      tag_81\n      jumpi\n      returndatasize\n      0x00\n      dup1\n      returndatacopy\n      revert(0x00, returndatasize)\n    tag_81:\n      pop\n      pop\n      pop\n      pop\n      mload(0x40)\n      returndatasize\n      not(0x1f)\n      0x1f\n      dup3\n      add\n      and\n      dup3\n      add\n      dup1\n      0x40\n      mstore\n      pop\n      dup2\n      add\n      swap1\n      tag_82\n      swap2\n      swap1\n      tag_83\n      jump\t// in\n    tag_82:\n        /* \"contracts/OndaV1Pool.sol\":4119:4176  uint _balance0 = IERC20(_token0).balanceOf(address(this)) */\n      swap1\n      pop\n        /* \"contracts/OndaV1Pool.sol\":4184:4198  uint _balance1 */\n      0x00\n        /* \"contracts/OndaV1Pool.sol\":4208:4215  _token1 */\n      dup8\n        /* \"contracts/OndaV1Pool.sol\":4201:4226  IERC20(_token1).balanceOf */\n      0xffffffffffffffffffffffffffffffffffffffff\n      and\n      0x70a08231\n        /* \"contracts/OndaV1Pool.sol\":4235:4239  this */\n      address\n        /* \"contracts/OndaV1Pool.sol\":4201:4241  IERC20(_token1).balanceOf(address(this)) */\n      mload(0x40)\n      dup3\n      0xffffffff\n      and\n      0xe0\n      shl\n      dup2\n      mstore\n      0x04\n      add\n      tag_84\n      swap2\n      swap1\n      tag_21\n      jump\t// in\n    tag_84:\n      0x20\n      mload(0x40)\n      dup1\n      dup4\n      sub\n      dup2\n      dup7\n      gas\n      staticcall\n      iszero\n      dup1\n      iszero\n      tag_86\n      jumpi\n      returndatasize\n      0x00\n      dup1\n      returndatacopy\n      revert(0x00, returndatasize)\n    tag_86:\n      pop\n      pop\n      pop\n      pop\n      mload(0x40)\n      returndatasize\n      not(0x1f)\n      0x1f\n      dup3\n      add\n      and\n      dup3\n      add\n      dup1\n      0x40\n      mstore\n      pop\n      dup2\n      add\n      swap1\n      tag_87\n      swap2\n      swap1\n      tag_83\n      jump\t// in\n    tag_87:\n        /* \"contracts/OndaV1Pool.sol\":4184:4241  uint _balance1 = IERC20(_token1).balanceOf(address(this)) */\n      swap1\n      pop\n        /* \"contracts/OndaV1Pool.sol\":4254:4268  uint liquidity */\n      0x00\n        /* \"contracts/OndaV1Pool.sol\":4298:4299  0 */\n      dup1\n        /* \"contracts/OndaV1Pool.sol\":4283:4294  totalSupply */\n      sload(0x0a)\n        /* \"contracts/OndaV1Pool.sol\":4283:4299  totalSupply == 0 */\n      sub\n        /* \"contracts/OndaV1Pool.sol\":4279:4830  if (totalSupply == 0) {... */\n      tag_88\n      jumpi\n        /* \"contracts/OndaV1Pool.sol\":4325:4411  Math.sqrt(((_balance0 - balanceContract0) * (_balance1 - balanceContract1)) - min_liq) */\n      tag_89\n        /* \"contracts/OndaV1Pool.sol\":543:548  10**2 */\n      0x64\n        /* \"contracts/OndaV1Pool.sol\":4382:4398  balanceContract1 */\n      dup6\n        /* \"contracts/OndaV1Pool.sol\":4370:4379  _balance1 */\n      dup5\n        /* \"contracts/OndaV1Pool.sol\":4370:4398  _balance1 - balanceContract1 */\n      tag_90\n      swap2\n      swap1\n      tag_91\n      jump\t// in\n    tag_90:\n        /* \"contracts/OndaV1Pool.sol\":4349:4365  balanceContract0 */\n      dup8\n        /* \"contracts/OndaV1Pool.sol\":4337:4346  _balance0 */\n      dup7\n        /* \"contracts/OndaV1Pool.sol\":4337:4365  _balance0 - balanceContract0 */\n      tag_92\n      swap2\n      swap1\n      tag_91\n      jump\t// in\n    tag_92:\n        /* \"contracts/OndaV1Pool.sol\":4336:4399  (_balance0 - balanceContract0) * (_balance1 - balanceContract1) */\n      tag_93\n      swap2\n      swap1\n      tag_94\n      jump\t// in\n    tag_93:\n        /* \"contracts/OndaV1Pool.sol\":4335:4410  ((_balance0 - balanceContract0) * (_balance1 - balanceContract1)) - min_liq */\n      tag_95\n      swap2\n      swap1\n      tag_91\n      jump\t// in\n    tag_95:\n        /* \"contracts/OndaV1Pool.sol\":4325:4334  Math.sqrt */\n      tag_96\n        /* \"contracts/OndaV1Pool.sol\":4325:4411  Math.sqrt(((_balance0 - balanceContract0) * (_balance1 - balanceContract1)) - min_liq) */\n      jump\t// in\n    tag_89:\n        /* \"contracts/OndaV1Pool.sol\":4313:4411  liquidity = Math.sqrt(((_balance0 - balanceContract0) * (_balance1 - balanceContract1)) - min_liq) */\n      swap1\n      pop\n        /* \"contracts/OndaV1Pool.sol\":4443:4444  0 */\n      0x00\n        /* \"contracts/OndaV1Pool.sol\":4431:4440  liquidity */\n      dup2\n        /* \"contracts/OndaV1Pool.sol\":4431:4444  liquidity > 0 */\n      gt\n        /* \"contracts/OndaV1Pool.sol\":4423:4464  require(liquidity > 0, 'Minus liquidity') */\n      tag_97\n      jumpi\n      mload(0x40)\n      0x08c379a000000000000000000000000000000000000000000000000000000000\n      dup2\n      mstore\n      0x04\n      add\n      tag_98\n      swap1\n      tag_99\n      jump\t// in\n    tag_98:\n      mload(0x40)\n      dup1\n      swap2\n      sub\n      swap1\n      revert\n    tag_97:\n        /* \"contracts/OndaV1Pool.sol\":4476:4507  mint(lp, msg.sender, liquidity) */\n      tag_100\n        /* \"contracts/OndaV1Pool.sol\":4481:4483  lp */\n      0x03\n      0x00\n      swap1\n      sload\n      swap1\n      0x0100\n      exp\n      swap1\n      div\n      0xffffffffffffffffffffffffffffffffffffffff\n      and\n        /* \"contracts/OndaV1Pool.sol\":4485:4495  msg.sender */\n      caller\n        /* \"contracts/OndaV1Pool.sol\":4497:4506  liquidity */\n      dup4\n        /* \"contracts/OndaV1Pool.sol\":4476:4480  mint */\n      tag_101\n        /* \"contracts/OndaV1Pool.sol\":4476:4507  mint(lp, msg.sender, liquidity) */\n      jump\t// in\n    tag_100:\n        /* \"contracts/OndaV1Pool.sol\":4519:4544  updateK(_token0, _token1) */\n      tag_102\n        /* \"contracts/OndaV1Pool.sol\":4527:4534  _token0 */\n      dup11\n        /* \"contracts/OndaV1Pool.sol\":4536:4543  _token1 */\n      dup11\n        /* \"contracts/OndaV1Pool.sol\":4519:4526  updateK */\n      tag_103\n        /* \"contracts/OndaV1Pool.sol\":4519:4544  updateK(_token0, _token1) */\n      jump\t// in\n    tag_102:\n      pop\n        /* \"contracts/OndaV1Pool.sol\":4279:4830  if (totalSupply == 0) {... */\n      jump(tag_104)\n    tag_88:\n        /* \"contracts/OndaV1Pool.sol\":4583:4725  Math.min(((_balance0 - balanceContract0) * totalSupply) / balanceContract0, ((_balance1 - balanceContract1) * totalSupply) / balanceContract1) */\n      tag_105\n        /* \"contracts/OndaV1Pool.sol\":4641:4657  balanceContract0 */\n      dup6\n        /* \"contracts/OndaV1Pool.sol\":4626:4637  totalSupply */\n      sload(0x0a)\n        /* \"contracts/OndaV1Pool.sol\":4606:4622  balanceContract0 */\n      dup8\n        /* \"contracts/OndaV1Pool.sol\":4594:4603  _balance0 */\n      dup7\n        /* \"contracts/OndaV1Pool.sol\":4594:4622  _balance0 - balanceContract0 */\n      tag_106\n      swap2\n      swap1\n      tag_91\n      jump\t// in\n    tag_106:\n        /* \"contracts/OndaV1Pool.sol\":4593:4637  (_balance0 - balanceContract0) * totalSupply */\n      tag_107\n      swap2\n      swap1\n      tag_94\n      jump\t// in\n    tag_107:\n        /* \"contracts/OndaV1Pool.sol\":4592:4657  ((_balance0 - balanceContract0) * totalSupply) / balanceContract0 */\n      tag_108\n      swap2\n      swap1\n      tag_109\n      jump\t// in\n    tag_108:\n        /* \"contracts/OndaV1Pool.sol\":4708:4724  balanceContract1 */\n      dup6\n        /* \"contracts/OndaV1Pool.sol\":4693:4704  totalSupply */\n      sload(0x0a)\n        /* \"contracts/OndaV1Pool.sol\":4673:4689  balanceContract1 */\n      dup8\n        /* \"contracts/OndaV1Pool.sol\":4661:4670  _balance1 */\n      dup7\n        /* \"contracts/OndaV1Pool.sol\":4661:4689  _balance1 - balanceContract1 */\n      tag_110\n      swap2\n      swap1\n      tag_91\n      jump\t// in\n    tag_110:\n        /* \"contracts/OndaV1Pool.sol\":4660:4704  (_balance1 - balanceContract1) * totalSupply */\n      tag_111\n      swap2\n      swap1\n      tag_94\n      jump\t// in\n    tag_111:\n        /* \"contracts/OndaV1Pool.sol\":4659:4724  ((_balance1 - balanceContract1) * totalSupply) / balanceContract1 */\n      tag_112\n      swap2\n      swap1\n      tag_109\n      jump\t// in\n    tag_112:\n        /* \"contracts/OndaV1Pool.sol\":4583:4591  Math.min */\n      tag_113\n        /* \"contracts/OndaV1Pool.sol\":4583:4725  Math.min(((_balance0 - balanceContract0) * totalSupply) / balanceContract0, ((_balance1 - balanceContract1) * totalSupply) / balanceContract1) */\n      jump\t// in\n    tag_105:\n        /* \"contracts/OndaV1Pool.sol\":4571:4725  liquidity = Math.min(((_balance0 - balanceContract0) * totalSupply) / balanceContract0, ((_balance1 - balanceContract1) * totalSupply) / balanceContract1) */\n      swap1\n      pop\n        /* \"contracts/OndaV1Pool.sol\":4757:4758  0 */\n      0x00\n        /* \"contracts/OndaV1Pool.sol\":4745:4754  liquidity */\n      dup2\n        /* \"contracts/OndaV1Pool.sol\":4745:4758  liquidity > 0 */\n      gt\n        /* \"contracts/OndaV1Pool.sol\":4737:4778  require(liquidity > 0, 'Minus liquidity') */\n      tag_114\n      jumpi\n      mload(0x40)\n      0x08c379a000000000000000000000000000000000000000000000000000000000\n      dup2\n      mstore\n      0x04\n      add\n      tag_115\n      swap1\n      tag_99\n      jump\t// in\n    tag_115:\n      mload(0x40)\n      dup1\n      swap2\n      sub\n      swap1\n      revert\n    tag_114:\n        /* \"contracts/OndaV1Pool.sol\":4790:4821  mint(lp, msg.sender, liquidity) */\n      tag_116\n        /* \"contracts/OndaV1Pool.sol\":4795:4797  lp */\n      0x03\n      0x00\n      swap1\n      sload\n      swap1\n      0x0100\n      exp\n      swap1\n      div\n      0xffffffffffffffffffffffffffffffffffffffff\n      and\n        /* \"contracts/OndaV1Pool.sol\":4799:4809  msg.sender */\n      caller\n        /* \"contracts/OndaV1Pool.sol\":4811:4820  liquidity */\n      dup4\n        /* \"contracts/OndaV1Pool.sol\":4790:4794  mint */\n      tag_101\n        /* \"contracts/OndaV1Pool.sol\":4790:4821  mint(lp, msg.sender, liquidity) */\n      jump\t// in\n    tag_116:\n        /* \"contracts/OndaV1Pool.sol\":4279:4830  if (totalSupply == 0) {... */\n    tag_104:\n        /* \"contracts/OndaV1Pool.sol\":4850:4859  liquidity */\n      dup1\n        /* \"contracts/OndaV1Pool.sol\":4837:4848  totalSupply */\n      0x0a\n      0x00\n        /* \"contracts/OndaV1Pool.sol\":4837:4859  totalSupply+=liquidity */\n      dup3\n      dup3\n      sload\n      tag_117\n      swap2\n      swap1\n      tag_118\n      jump\t// in\n    tag_117:\n      swap3\n      pop\n      pop\n      dup2\n      swap1\n      sstore\n      pop\n        /* \"contracts/OndaV1Pool.sol\":4870:4886  uint256 balance0 */\n      0x00\n        /* \"contracts/OndaV1Pool.sol\":4896:4903  _token0 */\n      dup11\n        /* \"contracts/OndaV1Pool.sol\":4889:4914  IERC20(_token0).balanceOf */\n      0xffffffffffffffffffffffffffffffffffffffff\n      and\n      0x70a08231\n        /* \"contracts/OndaV1Pool.sol\":4923:4927  this */\n      address\n        /* \"contracts/OndaV1Pool.sol\":4889:4929  IERC20(_token0).balanceOf(address(this)) */\n      mload(0x40)\n      dup3\n      0xffffffff\n      and\n      0xe0\n      shl\n      dup2\n      mstore\n      0x04\n      add\n      tag_119\n      swap2\n      swap1\n      tag_21\n      jump\t// in\n    tag_119:\n      0x20\n      mload(0x40)\n      dup1\n      dup4\n      sub\n      dup2\n      dup7\n      gas\n      staticcall\n      iszero\n      dup1\n      iszero\n      tag_121\n      jumpi\n      returndatasize\n      0x00\n      dup1\n      returndatacopy\n      revert(0x00, returndatasize)\n    tag_121:\n      pop\n      pop\n      pop\n      pop\n      mload(0x40)\n      returndatasize\n      not(0x1f)\n      0x1f\n      dup3\n      add\n      and\n      dup3\n      add\n      dup1\n      0x40\n      mstore\n      pop\n      dup2\n      add\n      swap1\n      tag_122\n      swap2\n      swap1\n      tag_83\n      jump\t// in\n    tag_122:\n        /* \"contracts/OndaV1Pool.sol\":4870:4929  uint256 balance0 = IERC20(_token0).balanceOf(address(this)) */\n      swap1\n      pop\n        /* \"contracts/OndaV1Pool.sol\":4940:4956  uint256 balance1 */\n      0x00\n        /* \"contracts/OndaV1Pool.sol\":4966:4973  _token1 */\n      dup11\n        /* \"contracts/OndaV1Pool.sol\":4959:4984  IERC20(_token1).balanceOf */\n      0xffffffffffffffffffffffffffffffffffffffff\n      and\n      0x70a08231\n        /* \"contracts/OndaV1Pool.sol\":4993:4997  this */\n      address\n        /* \"contracts/OndaV1Pool.sol\":4959:4999  IERC20(_token1).balanceOf(address(this)) */\n      mload(0x40)\n      dup3\n      0xffffffff\n      and\n      0xe0\n      shl\n      dup2\n      mstore\n      0x04\n      add\n      tag_123\n      swap2\n      swap1\n      tag_21\n      jump\t// in\n    tag_123:\n      0x20\n      mload(0x40)\n      dup1\n      dup4\n      sub\n      dup2\n      dup7\n      gas\n      staticcall\n      iszero\n      dup1\n      iszero\n      tag_125\n      jumpi\n      returndatasize\n      0x00\n      dup1\n      returndatacopy\n      revert(0x00, returndatasize)\n    tag_125:\n      pop\n      pop\n      pop\n      pop\n      mload(0x40)\n      returndatasize\n      not(0x1f)\n      0x1f\n      dup3\n      add\n      and\n      dup3\n      add\n      dup1\n      0x40\n      mstore\n      pop\n      dup2\n      add\n      swap1\n      tag_126\n      swap2\n      swap1\n      tag_83\n      jump\t// in\n    tag_126:\n        /* \"contracts/OndaV1Pool.sol\":4940:4999  uint256 balance1 = IERC20(_token1).balanceOf(address(this)) */\n      swap1\n      pop\n        /* \"contracts/OndaV1Pool.sol\":5010:5062  _updateStorage(_token0, _token1, balance0, balance1) */\n      tag_127\n        /* \"contracts/OndaV1Pool.sol\":5025:5032  _token0 */\n      dup13\n        /* \"contracts/OndaV1Pool.sol\":5034:5041  _token1 */\n      dup13\n        /* \"contracts/OndaV1Pool.sol\":5043:5051  balance0 */\n      dup5\n        /* \"contracts/OndaV1Pool.sol\":5053:5061  balance1 */\n      dup5\n        /* \"contracts/OndaV1Pool.sol\":5010:5024  _updateStorage */\n      tag_128\n        /* \"contracts/OndaV1Pool.sol\":5010:5062  _updateStorage(_token0, _token1, balance0, balance1) */\n      jump\t// in\n    tag_127:\n        /* \"contracts/OndaV1Pool.sol\":5078:5126  AddLiquidity(_token0, _token1, amount0, amount1) */\n      0xd2491a9b4fe81a7cd4511e8b7b7743951b061dad5bed7da8a7795b080ee08c7e\n        /* \"contracts/OndaV1Pool.sol\":5091:5098  _token0 */\n      dup13\n        /* \"contracts/OndaV1Pool.sol\":5100:5107  _token1 */\n      dup13\n        /* \"contracts/OndaV1Pool.sol\":5109:5116  amount0 */\n      dup13\n        /* \"contracts/OndaV1Pool.sol\":5118:5125  amount1 */\n      dup13\n        /* \"contracts/OndaV1Pool.sol\":5078:5126  AddLiquidity(_token0, _token1, amount0, amount1) */\n      mload(0x40)\n      tag_129\n      swap5\n      swap4\n      swap3\n      swap2\n      swap1\n      tag_130\n      jump\t// in\n    tag_129:\n      mload(0x40)\n      dup1\n      swap2\n      sub\n      swap1\n      log1\n        /* \"contracts/OndaV1Pool.sol\":5144:5148  true */\n      0x01\n        /* \"contracts/OndaV1Pool.sol\":5137:5148  return true */\n      swap8\n      pop\n      pop\n      pop\n      pop\n      pop\n      pop\n      pop\n      pop\n        /* \"contracts/OndaV1Pool.sol\":3644:5153  function _addLiquidity(address _token0, address _token1, uint amount0, uint amount1) public returns (bool) {... */\n      swap5\n      swap4\n      pop\n      pop\n      pop\n      pop\n      jump\t// out\n        /* \"contracts/OndaV1Pool.sol\":512:548  uint public constant min_liq = 10**2 */\n    tag_45:\n        /* \"contracts/OndaV1Pool.sol\":543:548  10**2 */\n      0x64\n        /* \"contracts/OndaV1Pool.sol\":512:548  uint public constant min_liq = 10**2 */\n      dup2\n      jump\t// out\n        /* \"contracts/OndaV1Pool.sol\":6256:7525  function _swap(address _token0, address _token1, address _to, uint amount0, uint amount1) public returns (bool) {... */\n    tag_50:\n        /* \"contracts/OndaV1Pool.sol\":6362:6366  bool */\n      0x00\n        /* \"contracts/OndaV1Pool.sol\":6374:6395  uint balanceContract0 */\n      dup1\n        /* \"contracts/OndaV1Pool.sol\":6397:6418  uint balanceContract1 */\n      0x00\n        /* \"contracts/OndaV1Pool.sol\":6422:6438  getBalancePair() */\n      tag_132\n        /* \"contracts/OndaV1Pool.sol\":6422:6436  getBalancePair */\n      tag_68\n        /* \"contracts/OndaV1Pool.sol\":6422:6438  getBalancePair() */\n      jump\t// in\n    tag_132:\n        /* \"contracts/OndaV1Pool.sol\":6373:6438  (uint balanceContract0, uint balanceContract1) = getBalancePair() */\n      swap2\n      pop\n      swap2\n      pop\n        /* \"contracts/OndaV1Pool.sol\":6462:6468  token0 */\n      0x01\n      0x00\n      swap1\n      sload\n      swap1\n      0x0100\n      exp\n      swap1\n      div\n      0xffffffffffffffffffffffffffffffffffffffff\n      and\n        /* \"contracts/OndaV1Pool.sol\":6451:6468  _token0 == token0 */\n      0xffffffffffffffffffffffffffffffffffffffff\n      and\n        /* \"contracts/OndaV1Pool.sol\":6451:6458  _token0 */\n      dup9\n        /* \"contracts/OndaV1Pool.sol\":6451:6468  _token0 == token0 */\n      0xffffffffffffffffffffffffffffffffffffffff\n      and\n      eq\n        /* \"contracts/OndaV1Pool.sol\":6451:6489  _token0 == token0 && _token1 == token1 */\n      dup1\n      iszero\n      tag_133\n      jumpi\n      pop\n        /* \"contracts/OndaV1Pool.sol\":6483:6489  token1 */\n      0x02\n      0x00\n      swap1\n      sload\n      swap1\n      0x0100\n      exp\n      swap1\n      div\n      0xffffffffffffffffffffffffffffffffffffffff\n      and\n        /* \"contracts/OndaV1Pool.sol\":6472:6489  _token1 == token1 */\n      0xffffffffffffffffffffffffffffffffffffffff\n      and\n        /* \"contracts/OndaV1Pool.sol\":6472:6479  _token1 */\n      dup8\n        /* \"contracts/OndaV1Pool.sol\":6472:6489  _token1 == token1 */\n      0xffffffffffffffffffffffffffffffffffffffff\n      and\n      eq\n        /* \"contracts/OndaV1Pool.sol\":6451:6489  _token0 == token0 && _token1 == token1 */\n    tag_133:\n        /* \"contracts/OndaV1Pool.sol\":6443:6510  require(_token0 == token0 && _token1 == token1, 'Not used address') */\n      tag_134\n      jumpi\n      mload(0x40)\n      0x08c379a000000000000000000000000000000000000000000000000000000000\n      dup2\n      mstore\n      0x04\n      add\n      tag_135\n      swap1\n      tag_72\n      jump\t// in\n    tag_135:\n      mload(0x40)\n      dup1\n      swap2\n      sub\n      swap1\n      revert\n    tag_134:\n        /* \"contracts/OndaV1Pool.sol\":6533:6534  0 */\n      0x00\n        /* \"contracts/OndaV1Pool.sol\":6523:6530  amount0 */\n      dup6\n        /* \"contracts/OndaV1Pool.sol\":6523:6534  amount0 > 0 */\n      gt\n        /* \"contracts/OndaV1Pool.sol\":6523:6549  amount0 > 0 || amount1 > 0 */\n      dup1\n      tag_136\n      jumpi\n      pop\n        /* \"contracts/OndaV1Pool.sol\":6548:6549  0 */\n      0x00\n        /* \"contracts/OndaV1Pool.sol\":6538:6545  amount1 */\n      dup5\n        /* \"contracts/OndaV1Pool.sol\":6538:6549  amount1 > 0 */\n      gt\n        /* \"contracts/OndaV1Pool.sol\":6523:6549  amount0 > 0 || amount1 > 0 */\n    tag_136:\n        /* \"contracts/OndaV1Pool.sol\":6515:6565  require(amount0 > 0 || amount1 > 0, 'Zero amount') */\n      tag_137\n      jumpi\n      mload(0x40)\n      0x08c379a000000000000000000000000000000000000000000000000000000000\n      dup2\n      mstore\n      0x04\n      add\n      tag_138\n      swap1\n      tag_139\n      jump\t// in\n    tag_138:\n      mload(0x40)\n      dup1\n      swap2\n      sub\n      swap1\n      revert\n    tag_137:\n        /* \"contracts/OndaV1Pool.sol\":6589:6590  0 */\n      0x00\n        /* \"contracts/OndaV1Pool.sol\":6578:6585  amount0 */\n      dup6\n        /* \"contracts/OndaV1Pool.sol\":6578:6590  amount0 == 0 */\n      eq\n        /* \"contracts/OndaV1Pool.sol\":6578:6606  amount0 == 0 || amount1 == 0 */\n      dup1\n      tag_140\n      jumpi\n      pop\n        /* \"contracts/OndaV1Pool.sol\":6605:6606  0 */\n      0x00\n        /* \"contracts/OndaV1Pool.sol\":6594:6601  amount1 */\n      dup5\n        /* \"contracts/OndaV1Pool.sol\":6594:6606  amount1 == 0 */\n      eq\n        /* \"contracts/OndaV1Pool.sol\":6578:6606  amount0 == 0 || amount1 == 0 */\n    tag_140:\n        /* \"contracts/OndaV1Pool.sol\":6570:6622  require(amount0 == 0 || amount1 == 0, 'Zero amount') */\n      tag_141\n      jumpi\n      mload(0x40)\n      0x08c379a000000000000000000000000000000000000000000000000000000000\n      dup2\n      mstore\n      0x04\n      add\n      tag_142\n      swap1\n      tag_139\n      jump\t// in\n    tag_142:\n      mload(0x40)\n      dup1\n      swap2\n      sub\n      swap1\n      revert\n    tag_141:\n        /* \"contracts/OndaV1Pool.sol\":6642:6649  _token0 */\n      dup8\n        /* \"contracts/OndaV1Pool.sol\":6635:6649  _to != _token0 */\n      0xffffffffffffffffffffffffffffffffffffffff\n      and\n        /* \"contracts/OndaV1Pool.sol\":6635:6638  _to */\n      dup7\n        /* \"contracts/OndaV1Pool.sol\":6635:6649  _to != _token0 */\n      0xffffffffffffffffffffffffffffffffffffffff\n      and\n      eq\n      iszero\n        /* \"contracts/OndaV1Pool.sol\":6635:6667  _to != _token0 && _to != _token1 */\n      dup1\n      iszero\n      tag_143\n      jumpi\n      pop\n        /* \"contracts/OndaV1Pool.sol\":6660:6667  _token1 */\n      dup7\n        /* \"contracts/OndaV1Pool.sol\":6653:6667  _to != _token1 */\n      0xffffffffffffffffffffffffffffffffffffffff\n      and\n        /* \"contracts/OndaV1Pool.sol\":6653:6656  _to */\n      dup7\n        /* \"contracts/OndaV1Pool.sol\":6653:6667  _to != _token1 */\n      0xffffffffffffffffffffffffffffffffffffffff\n      and\n      eq\n      iszero\n        /* \"contracts/OndaV1Pool.sol\":6635:6667  _to != _token0 && _to != _token1 */\n    tag_143:\n        /* \"contracts/OndaV1Pool.sol\":6627:6688  require(_to != _token0 && _to != _token1, 'Not used address') */\n      tag_144\n      jumpi\n      mload(0x40)\n      0x08c379a000000000000000000000000000000000000000000000000000000000\n      dup2\n      mstore\n      0x04\n      add\n      tag_145\n      swap1\n      tag_72\n      jump\t// in\n    tag_145:\n      mload(0x40)\n      dup1\n      swap2\n      sub\n      swap1\n      revert\n    tag_144:\n        /* \"contracts/OndaV1Pool.sol\":6693:6708  uint fee_token0 */\n      0x00\n        /* \"contracts/OndaV1Pool.sol\":6729:6733  1000 */\n      0x03e8\n        /* \"contracts/OndaV1Pool.sol\":6722:6725  fee */\n      sload(0x0b)\n        /* \"contracts/OndaV1Pool.sol\":6712:6719  amount0 */\n      dup8\n        /* \"contracts/OndaV1Pool.sol\":6712:6725  amount0 * fee */\n      tag_146\n      swap2\n      swap1\n      tag_94\n      jump\t// in\n    tag_146:\n        /* \"contracts/OndaV1Pool.sol\":6711:6733  (amount0 * fee) / 1000 */\n      tag_147\n      swap2\n      swap1\n      tag_109\n      jump\t// in\n    tag_147:\n        /* \"contracts/OndaV1Pool.sol\":6693:6733  uint fee_token0 = (amount0 * fee) / 1000 */\n      swap1\n      pop\n        /* \"contracts/OndaV1Pool.sol\":6738:6753  uint fee_token1 */\n      0x00\n        /* \"contracts/OndaV1Pool.sol\":6774:6778  1000 */\n      0x03e8\n        /* \"contracts/OndaV1Pool.sol\":6767:6770  fee */\n      sload(0x0b)\n        /* \"contracts/OndaV1Pool.sol\":6757:6764  amount1 */\n      dup8\n        /* \"contracts/OndaV1Pool.sol\":6757:6770  amount1 * fee */\n      tag_148\n      swap2\n      swap1\n      tag_94\n      jump\t// in\n    tag_148:\n        /* \"contracts/OndaV1Pool.sol\":6756:6778  (amount1 * fee) / 1000 */\n      tag_149\n      swap2\n      swap1\n      tag_109\n      jump\t// in\n    tag_149:\n        /* \"contracts/OndaV1Pool.sol\":6738:6778  uint fee_token1 = (amount1 * fee) / 1000 */\n      swap1\n      pop\n        /* \"contracts/OndaV1Pool.sol\":6797:6798  0 */\n      0x00\n        /* \"contracts/OndaV1Pool.sol\":6787:6794  amount0 */\n      dup8\n        /* \"contracts/OndaV1Pool.sol\":6787:6798  amount0 > 0 */\n      gt\n        /* \"contracts/OndaV1Pool.sol\":6787:6814  amount0 > 0 && amount1 == 0 */\n      dup1\n      iszero\n      tag_150\n      jumpi\n      pop\n        /* \"contracts/OndaV1Pool.sol\":6813:6814  0 */\n      0x00\n        /* \"contracts/OndaV1Pool.sol\":6802:6809  amount1 */\n      dup7\n        /* \"contracts/OndaV1Pool.sol\":6802:6814  amount1 == 0 */\n      eq\n        /* \"contracts/OndaV1Pool.sol\":6787:6814  amount0 > 0 && amount1 == 0 */\n    tag_150:\n        /* \"contracts/OndaV1Pool.sol\":6783:6994  if (amount0 > 0 && amount1 == 0) {... */\n      iszero\n      tag_151\n      jumpi\n        /* \"contracts/OndaV1Pool.sol\":6822:6932  TransferHelper.safeTransferFrom(_token1, msg.sender, address(this), ((amount0 + fee_token0)*price0) / 1000000) */\n      tag_152\n        /* \"contracts/OndaV1Pool.sol\":6854:6861  _token1 */\n      dup10\n        /* \"contracts/OndaV1Pool.sol\":6863:6873  msg.sender */\n      caller\n        /* \"contracts/OndaV1Pool.sol\":6883:6887  this */\n      address\n        /* \"contracts/OndaV1Pool.sol\":6924:6931  1000000 */\n      0x0f4240\n        /* \"contracts/OndaV1Pool.sol\":6914:6920  price0 */\n      sload(0x08)\n        /* \"contracts/OndaV1Pool.sol\":6902:6912  fee_token0 */\n      dup8\n        /* \"contracts/OndaV1Pool.sol\":6892:6899  amount0 */\n      dup14\n        /* \"contracts/OndaV1Pool.sol\":6892:6912  amount0 + fee_token0 */\n      tag_153\n      swap2\n      swap1\n      tag_118\n      jump\t// in\n    tag_153:\n        /* \"contracts/OndaV1Pool.sol\":6891:6920  (amount0 + fee_token0)*price0 */\n      tag_154\n      swap2\n      swap1\n      tag_94\n      jump\t// in\n    tag_154:\n        /* \"contracts/OndaV1Pool.sol\":6890:6931  ((amount0 + fee_token0)*price0) / 1000000 */\n      tag_155\n      swap2\n      swap1\n      tag_109\n      jump\t// in\n    tag_155:\n        /* \"contracts/OndaV1Pool.sol\":6822:6853  TransferHelper.safeTransferFrom */\n      tag_77\n        /* \"contracts/OndaV1Pool.sol\":6822:6932  TransferHelper.safeTransferFrom(_token1, msg.sender, address(this), ((amount0 + fee_token0)*price0) / 1000000) */\n      jump\t// in\n    tag_152:\n        /* \"contracts/OndaV1Pool.sol\":6938:6988  TransferHelper.safeTransfer(_token0, _to, amount0) */\n      tag_156\n        /* \"contracts/OndaV1Pool.sol\":6966:6973  _token0 */\n      dup11\n        /* \"contracts/OndaV1Pool.sol\":6975:6978  _to */\n      dup10\n        /* \"contracts/OndaV1Pool.sol\":6980:6987  amount0 */\n      dup10\n        /* \"contracts/OndaV1Pool.sol\":6938:6965  TransferHelper.safeTransfer */\n      tag_157\n        /* \"contracts/OndaV1Pool.sol\":6938:6988  TransferHelper.safeTransfer(_token0, _to, amount0) */\n      jump\t// in\n    tag_156:\n        /* \"contracts/OndaV1Pool.sol\":6783:6994  if (amount0 > 0 && amount1 == 0) {... */\n    tag_151:\n        /* \"contracts/OndaV1Pool.sol\":7018:7019  0 */\n      0x00\n        /* \"contracts/OndaV1Pool.sol\":7008:7015  amount1 */\n      dup7\n        /* \"contracts/OndaV1Pool.sol\":7008:7019  amount1 > 0 */\n      gt\n        /* \"contracts/OndaV1Pool.sol\":7008:7035  amount1 > 0 && amount0 == 0 */\n      dup1\n      iszero\n      tag_158\n      jumpi\n      pop\n        /* \"contracts/OndaV1Pool.sol\":7034:7035  0 */\n      0x00\n        /* \"contracts/OndaV1Pool.sol\":7023:7030  amount0 */\n      dup8\n        /* \"contracts/OndaV1Pool.sol\":7023:7035  amount0 == 0 */\n      eq\n        /* \"contracts/OndaV1Pool.sol\":7008:7035  amount1 > 0 && amount0 == 0 */\n    tag_158:\n        /* \"contracts/OndaV1Pool.sol\":7004:7233  if (amount1 > 0 && amount0 == 0) {... */\n      iszero\n      tag_159\n      jumpi\n        /* \"contracts/OndaV1Pool.sol\":7049:7159  TransferHelper.safeTransferFrom(_token0, msg.sender, address(this), ((amount1 + fee_token1)*price1) / 1000000) */\n      tag_160\n        /* \"contracts/OndaV1Pool.sol\":7081:7088  _token0 */\n      dup11\n        /* \"contracts/OndaV1Pool.sol\":7090:7100  msg.sender */\n      caller\n        /* \"contracts/OndaV1Pool.sol\":7110:7114  this */\n      address\n        /* \"contracts/OndaV1Pool.sol\":7151:7158  1000000 */\n      0x0f4240\n        /* \"contracts/OndaV1Pool.sol\":7141:7147  price1 */\n      sload(0x09)\n        /* \"contracts/OndaV1Pool.sol\":7129:7139  fee_token1 */\n      dup7\n        /* \"contracts/OndaV1Pool.sol\":7119:7126  amount1 */\n      dup13\n        /* \"contracts/OndaV1Pool.sol\":7119:7139  amount1 + fee_token1 */\n      tag_161\n      swap2\n      swap1\n      tag_118\n      jump\t// in\n    tag_161:\n        /* \"contracts/OndaV1Pool.sol\":7118:7147  (amount1 + fee_token1)*price1 */\n      tag_162\n      swap2\n      swap1\n      tag_94\n      jump\t// in\n    tag_162:\n        /* \"contracts/OndaV1Pool.sol\":7117:7158  ((amount1 + fee_token1)*price1) / 1000000 */\n      tag_163\n      swap2\n      swap1\n      tag_109\n      jump\t// in\n    tag_163:\n        /* \"contracts/OndaV1Pool.sol\":7049:7080  TransferHelper.safeTransferFrom */\n      tag_77\n        /* \"contracts/OndaV1Pool.sol\":7049:7159  TransferHelper.safeTransferFrom(_token0, msg.sender, address(this), ((amount1 + fee_token1)*price1) / 1000000) */\n      jump\t// in\n    tag_160:\n        /* \"contracts/OndaV1Pool.sol\":7171:7221  TransferHelper.safeTransfer(_token1, _to, amount1) */\n      tag_164\n        /* \"contracts/OndaV1Pool.sol\":7199:7206  _token1 */\n      dup10\n        /* \"contracts/OndaV1Pool.sol\":7208:7211  _to */\n      dup10\n        /* \"contracts/OndaV1Pool.sol\":7213:7220  amount1 */\n      dup9\n        /* \"contracts/OndaV1Pool.sol\":7171:7198  TransferHelper.safeTransfer */\n      tag_157\n        /* \"contracts/OndaV1Pool.sol\":7171:7221  TransferHelper.safeTransfer(_token1, _to, amount1) */\n      jump\t// in\n    tag_164:\n        /* \"contracts/OndaV1Pool.sol\":7004:7233  if (amount1 > 0 && amount0 == 0) {... */\n    tag_159:\n        /* \"contracts/OndaV1Pool.sol\":7243:7259  uint newBalance0 */\n      0x00\n        /* \"contracts/OndaV1Pool.sol\":7269:7276  _token0 */\n      dup11\n        /* \"contracts/OndaV1Pool.sol\":7262:7287  IERC20(_token0).balanceOf */\n      0xffffffffffffffffffffffffffffffffffffffff\n      and\n      0x70a08231\n        /* \"contracts/OndaV1Pool.sol\":7296:7300  this */\n      address\n        /* \"contracts/OndaV1Pool.sol\":7262:7302  IERC20(_token0).balanceOf(address(this)) */\n      mload(0x40)\n      dup3\n      0xffffffff\n      and\n      0xe0\n      shl\n      dup2\n      mstore\n      0x04\n      add\n      tag_165\n      swap2\n      swap1\n      tag_21\n      jump\t// in\n    tag_165:\n      0x20\n      mload(0x40)\n      dup1\n      dup4\n      sub\n      dup2\n      dup7\n      gas\n      staticcall\n      iszero\n      dup1\n      iszero\n      tag_167\n      jumpi\n      returndatasize\n      0x00\n      dup1\n      returndatacopy\n      revert(0x00, returndatasize)\n    tag_167:\n      pop\n      pop\n      pop\n      pop\n      mload(0x40)\n      returndatasize\n      not(0x1f)\n      0x1f\n      dup3\n      add\n      and\n      dup3\n      add\n      dup1\n      0x40\n      mstore\n      pop\n      dup2\n      add\n      swap1\n      tag_168\n      swap2\n      swap1\n      tag_83\n      jump\t// in\n    tag_168:\n        /* \"contracts/OndaV1Pool.sol\":7243:7302  uint newBalance0 = IERC20(_token0).balanceOf(address(this)) */\n      swap1\n      pop\n        /* \"contracts/OndaV1Pool.sol\":7307:7323  uint newBalance1 */\n      0x00\n        /* \"contracts/OndaV1Pool.sol\":7333:7340  _token1 */\n      dup11\n        /* \"contracts/OndaV1Pool.sol\":7326:7351  IERC20(_token1).balanceOf */\n      0xffffffffffffffffffffffffffffffffffffffff\n      and\n      0x70a08231\n        /* \"contracts/OndaV1Pool.sol\":7360:7364  this */\n      address\n        /* \"contracts/OndaV1Pool.sol\":7326:7366  IERC20(_token1).balanceOf(address(this)) */\n      mload(0x40)\n      dup3\n      0xffffffff\n      and\n      0xe0\n      shl\n      dup2\n      mstore\n      0x04\n      add\n      tag_169\n      swap2\n      swap1\n      tag_21\n      jump\t// in\n    tag_169:\n      0x20\n      mload(0x40)\n      dup1\n      dup4\n      sub\n      dup2\n      dup7\n      gas\n      staticcall\n      iszero\n      dup1\n      iszero\n      tag_171\n      jumpi\n      returndatasize\n      0x00\n      dup1\n      returndatacopy\n      revert(0x00, returndatasize)\n    tag_171:\n      pop\n      pop\n      pop\n      pop\n      mload(0x40)\n      returndatasize\n      not(0x1f)\n      0x1f\n      dup3\n      add\n      and\n      dup3\n      add\n      dup1\n      0x40\n      mstore\n      pop\n      dup2\n      add\n      swap1\n      tag_172\n      swap2\n      swap1\n      tag_83\n      jump\t// in\n    tag_172:\n        /* \"contracts/OndaV1Pool.sol\":7307:7366  uint newBalance1 = IERC20(_token1).balanceOf(address(this)) */\n      swap1\n      pop\n        /* \"contracts/OndaV1Pool.sol\":7374:7432  _updateStorage(_token0, _token1, newBalance0, newBalance1) */\n      tag_173\n        /* \"contracts/OndaV1Pool.sol\":7389:7396  _token0 */\n      dup13\n        /* \"contracts/OndaV1Pool.sol\":7398:7405  _token1 */\n      dup13\n        /* \"contracts/OndaV1Pool.sol\":7407:7418  newBalance0 */\n      dup5\n        /* \"contracts/OndaV1Pool.sol\":7420:7431  newBalance1 */\n      dup5\n        /* \"contracts/OndaV1Pool.sol\":7374:7388  _updateStorage */\n      tag_128\n        /* \"contracts/OndaV1Pool.sol\":7374:7432  _updateStorage(_token0, _token1, newBalance0, newBalance1) */\n      jump\t// in\n    tag_173:\n        /* \"contracts/OndaV1Pool.sol\":7448:7498  SwapToken(_token0, _token1, _to, amount0, amount1) */\n      0x3070708cdb5d7d3931be8443f49f7ec529e2bbe770b676e3c0cc40e158c5d039\n        /* \"contracts/OndaV1Pool.sol\":7458:7465  _token0 */\n      dup13\n        /* \"contracts/OndaV1Pool.sol\":7467:7474  _token1 */\n      dup13\n        /* \"contracts/OndaV1Pool.sol\":7476:7479  _to */\n      dup13\n        /* \"contracts/OndaV1Pool.sol\":7481:7488  amount0 */\n      dup13\n        /* \"contracts/OndaV1Pool.sol\":7490:7497  amount1 */\n      dup13\n        /* \"contracts/OndaV1Pool.sol\":7448:7498  SwapToken(_token0, _token1, _to, amount0, amount1) */\n      mload(0x40)\n      tag_174\n      swap6\n      swap5\n      swap4\n      swap3\n      swap2\n      swap1\n      tag_175\n      jump\t// in\n    tag_174:\n      mload(0x40)\n      dup1\n      swap2\n      sub\n      swap1\n      log1\n        /* \"contracts/OndaV1Pool.sol\":7516:7520  true */\n      0x01\n        /* \"contracts/OndaV1Pool.sol\":7509:7520  return true */\n      swap7\n      pop\n      pop\n      pop\n      pop\n      pop\n      pop\n      pop\n        /* \"contracts/OndaV1Pool.sol\":6256:7525  function _swap(address _token0, address _token1, address _to, uint amount0, uint amount1) public returns (bool) {... */\n      swap6\n      swap5\n      pop\n      pop\n      pop\n      pop\n      pop\n      jump\t// out\n        /* \"contracts/OndaV1Pool.sol\":421:439  uint public price0 */\n    tag_53:\n      sload(0x08)\n      dup2\n      jump\t// out\n        /* \"contracts/OndaV1Pool.sol\":332:345  uint public k */\n    tag_56:\n      sload(0x04)\n      dup2\n      jump\t// out\n        /* \"contracts/OndaV1Pool.sol\":284:305  address public token1 */\n    tag_59:\n      0x02\n      0x00\n      swap1\n      sload\n      swap1\n      0x0100\n      exp\n      swap1\n      div\n      0xffffffffffffffffffffffffffffffffffffffff\n      and\n      dup2\n      jump\t// out\n        /* \"contracts/OndaV1Pool.sol\":5158:6251  function _deleteLiquidity(address _token0, address _token1, address _to, uint liquidity, uint amount0, uint amount1) public returns (bool) {... */\n    tag_64:\n        /* \"contracts/OndaV1Pool.sol\":5291:5295  bool */\n      0x00\n        /* \"contracts/OndaV1Pool.sol\":5303:5324  uint balanceContract0 */\n      dup1\n        /* \"contracts/OndaV1Pool.sol\":5326:5347  uint balanceContract1 */\n      0x00\n        /* \"contracts/OndaV1Pool.sol\":5351:5367  getBalancePair() */\n      tag_177\n        /* \"contracts/OndaV1Pool.sol\":5351:5365  getBalancePair */\n      tag_68\n        /* \"contracts/OndaV1Pool.sol\":5351:5367  getBalancePair() */\n      jump\t// in\n    tag_177:\n        /* \"contracts/OndaV1Pool.sol\":5302:5367  (uint balanceContract0, uint balanceContract1) = getBalancePair() */\n      swap2\n      pop\n      swap2\n      pop\n        /* \"contracts/OndaV1Pool.sol\":5391:5397  token0 */\n      0x01\n      0x00\n      swap1\n      sload\n      swap1\n      0x0100\n      exp\n      swap1\n      div\n      0xffffffffffffffffffffffffffffffffffffffff\n      and\n        /* \"contracts/OndaV1Pool.sol\":5380:5397  _token0 == token0 */\n      0xffffffffffffffffffffffffffffffffffffffff\n      and\n        /* \"contracts/OndaV1Pool.sol\":5380:5387  _token0 */\n      dup10\n        /* \"contracts/OndaV1Pool.sol\":5380:5397  _token0 == token0 */\n      0xffffffffffffffffffffffffffffffffffffffff\n      and\n      eq\n        /* \"contracts/OndaV1Pool.sol\":5380:5418  _token0 == token0 && _token1 == token1 */\n      dup1\n      iszero\n      tag_178\n      jumpi\n      pop\n        /* \"contracts/OndaV1Pool.sol\":5412:5418  token1 */\n      0x02\n      0x00\n      swap1\n      sload\n      swap1\n      0x0100\n      exp\n      swap1\n      div\n      0xffffffffffffffffffffffffffffffffffffffff\n      and\n        /* \"contracts/OndaV1Pool.sol\":5401:5418  _token1 == token1 */\n      0xffffffffffffffffffffffffffffffffffffffff\n      and\n        /* \"contracts/OndaV1Pool.sol\":5401:5408  _token1 */\n      dup9\n        /* \"contracts/OndaV1Pool.sol\":5401:5418  _token1 == token1 */\n      0xffffffffffffffffffffffffffffffffffffffff\n      and\n      eq\n        /* \"contracts/OndaV1Pool.sol\":5380:5418  _token0 == token0 && _token1 == token1 */\n    tag_178:\n        /* \"contracts/OndaV1Pool.sol\":5372:5439  require(_token0 == token0 && _token1 == token1, 'Not used address') */\n      tag_179\n      jumpi\n      mload(0x40)\n      0x08c379a000000000000000000000000000000000000000000000000000000000\n      dup2\n      mstore\n      0x04\n      add\n      tag_180\n      swap1\n      tag_72\n      jump\t// in\n    tag_180:\n      mload(0x40)\n      dup1\n      swap2\n      sub\n      swap1\n      revert\n    tag_179:\n        /* \"contracts/OndaV1Pool.sol\":5463:5470  amount1 */\n      dup4\n        /* \"contracts/OndaV1Pool.sol\":5452:5459  amount0 */\n      dup6\n        /* \"contracts/OndaV1Pool.sol\":5452:5470  amount0 == amount1 */\n      eq\n        /* \"contracts/OndaV1Pool.sol\":5444:5484  require(amount0 == amount1, 'Not equal') */\n      tag_181\n      jumpi\n      mload(0x40)\n      0x08c379a000000000000000000000000000000000000000000000000000000000\n      dup2\n      mstore\n      0x04\n      add\n      tag_182\n      swap1\n      tag_75\n      jump\t// in\n    tag_182:\n      mload(0x40)\n      dup1\n      swap2\n      sub\n      swap1\n      revert\n    tag_181:\n        /* \"contracts/OndaV1Pool.sol\":5494:5512  uint amountDelLiq0 */\n      0x00\n        /* \"contracts/OndaV1Pool.sol\":5548:5559  totalSupply */\n      sload(0x0a)\n        /* \"contracts/OndaV1Pool.sol\":5528:5544  balanceContract0 */\n      dup4\n        /* \"contracts/OndaV1Pool.sol\":5516:5525  liquidity */\n      dup9\n        /* \"contracts/OndaV1Pool.sol\":5516:5544  liquidity * balanceContract0 */\n      tag_183\n      swap2\n      swap1\n      tag_94\n      jump\t// in\n    tag_183:\n        /* \"contracts/OndaV1Pool.sol\":5515:5559  (liquidity * balanceContract0) / totalSupply */\n      tag_184\n      swap2\n      swap1\n      tag_109\n      jump\t// in\n    tag_184:\n        /* \"contracts/OndaV1Pool.sol\":5494:5559  uint amountDelLiq0 = (liquidity * balanceContract0) / totalSupply */\n      swap1\n      pop\n        /* \"contracts/OndaV1Pool.sol\":5567:5585  uint amountDelLiq1 */\n      0x00\n        /* \"contracts/OndaV1Pool.sol\":5621:5632  totalSupply */\n      sload(0x0a)\n        /* \"contracts/OndaV1Pool.sol\":5601:5617  balanceContract1 */\n      dup4\n        /* \"contracts/OndaV1Pool.sol\":5589:5598  liquidity */\n      dup10\n        /* \"contracts/OndaV1Pool.sol\":5589:5617  liquidity * balanceContract1 */\n      tag_185\n      swap2\n      swap1\n      tag_94\n      jump\t// in\n    tag_185:\n        /* \"contracts/OndaV1Pool.sol\":5588:5632  (liquidity * balanceContract1) / totalSupply */\n      tag_186\n      swap2\n      swap1\n      tag_109\n      jump\t// in\n    tag_186:\n        /* \"contracts/OndaV1Pool.sol\":5567:5632  uint amountDelLiq1 = (liquidity * balanceContract1) / totalSupply */\n      swap1\n      pop\n        /* \"contracts/OndaV1Pool.sol\":5666:5667  0 */\n      0x00\n        /* \"contracts/OndaV1Pool.sol\":5650:5663  amountDelLiq0 */\n      dup3\n        /* \"contracts/OndaV1Pool.sol\":5650:5667  amountDelLiq0 > 0 */\n      gt\n        /* \"contracts/OndaV1Pool.sol\":5650:5688  amountDelLiq0 > 0 && amountDelLiq1 > 0 */\n      dup1\n      iszero\n      tag_187\n      jumpi\n      pop\n        /* \"contracts/OndaV1Pool.sol\":5687:5688  0 */\n      0x00\n        /* \"contracts/OndaV1Pool.sol\":5671:5684  amountDelLiq1 */\n      dup2\n        /* \"contracts/OndaV1Pool.sol\":5671:5688  amountDelLiq1 > 0 */\n      gt\n        /* \"contracts/OndaV1Pool.sol\":5650:5688  amountDelLiq0 > 0 && amountDelLiq1 > 0 */\n    tag_187:\n        /* \"contracts/OndaV1Pool.sol\":5642:5705  require(amountDelLiq0 > 0 && amountDelLiq1 > 0, 'Minus amount') */\n      tag_188\n      jumpi\n      mload(0x40)\n      0x08c379a000000000000000000000000000000000000000000000000000000000\n      dup2\n      mstore\n      0x04\n      add\n      tag_189\n      swap1\n      tag_190\n      jump\t// in\n    tag_189:\n      mload(0x40)\n      dup1\n      swap2\n      sub\n      swap1\n      revert\n    tag_188:\n        /* \"contracts/OndaV1Pool.sol\":5713:5737  burn(lp, _to, liquidity) */\n      tag_191\n        /* \"contracts/OndaV1Pool.sol\":5718:5720  lp */\n      0x03\n      0x00\n      swap1\n      sload\n      swap1\n      0x0100\n      exp\n      swap1\n      div\n      0xffffffffffffffffffffffffffffffffffffffff\n      and\n        /* \"contracts/OndaV1Pool.sol\":5722:5725  _to */\n      dup11\n        /* \"contracts/OndaV1Pool.sol\":5727:5736  liquidity */\n      dup11\n        /* \"contracts/OndaV1Pool.sol\":5713:5717  burn */\n      tag_192\n        /* \"contracts/OndaV1Pool.sol\":5713:5737  burn(lp, _to, liquidity) */\n      jump\t// in\n    tag_191:\n        /* \"contracts/OndaV1Pool.sol\":5745:5820  TransferHelper.safeTransferFrom(_token0, address(this), _to, amountDelLiq0) */\n      tag_193\n        /* \"contracts/OndaV1Pool.sol\":5777:5784  _token0 */\n      dup12\n        /* \"contracts/OndaV1Pool.sol\":5794:5798  this */\n      address\n        /* \"contracts/OndaV1Pool.sol\":5801:5804  _to */\n      dup12\n        /* \"contracts/OndaV1Pool.sol\":5806:5819  amountDelLiq0 */\n      dup6\n        /* \"contracts/OndaV1Pool.sol\":5745:5776  TransferHelper.safeTransferFrom */\n      tag_77\n        /* \"contracts/OndaV1Pool.sol\":5745:5820  TransferHelper.safeTransferFrom(_token0, address(this), _to, amountDelLiq0) */\n      jump\t// in\n    tag_193:\n        /* \"contracts/OndaV1Pool.sol\":5828:5903  TransferHelper.safeTransferFrom(_token1, address(this), _to, amountDelLiq1) */\n      tag_194\n        /* \"contracts/OndaV1Pool.sol\":5860:5867  _token1 */\n      dup11\n        /* \"contracts/OndaV1Pool.sol\":5877:5881  this */\n      address\n        /* \"contracts/OndaV1Pool.sol\":5884:5887  _to */\n      dup12\n        /* \"contracts/OndaV1Pool.sol\":5889:5902  amountDelLiq1 */\n      dup5\n        /* \"contracts/OndaV1Pool.sol\":5828:5859  TransferHelper.safeTransferFrom */\n      tag_77\n        /* \"contracts/OndaV1Pool.sol\":5828:5903  TransferHelper.safeTransferFrom(_token1, address(this), _to, amountDelLiq1) */\n      jump\t// in\n    tag_194:\n        /* \"contracts/OndaV1Pool.sol\":5928:5937  liquidity */\n      dup8\n        /* \"contracts/OndaV1Pool.sol\":5913:5924  totalSupply */\n      0x0a\n      0x00\n        /* \"contracts/OndaV1Pool.sol\":5913:5937  totalSupply -= liquidity */\n      dup3\n      dup3\n      sload\n      tag_195\n      swap2\n      swap1\n      tag_91\n      jump\t// in\n    tag_195:\n      swap3\n      pop\n      pop\n      dup2\n      swap1\n      sstore\n      pop\n        /* \"contracts/OndaV1Pool.sol\":5945:5961  uint newBalance0 */\n      0x00\n        /* \"contracts/OndaV1Pool.sol\":5971:5978  _token0 */\n      dup12\n        /* \"contracts/OndaV1Pool.sol\":5964:5989  IERC20(_token0).balanceOf */\n      0xffffffffffffffffffffffffffffffffffffffff\n      and\n      0x70a08231\n        /* \"contracts/OndaV1Pool.sol\":5998:6002  this */\n      address\n        /* \"contracts/OndaV1Pool.sol\":5964:6004  IERC20(_token0).balanceOf(address(this)) */\n      mload(0x40)\n      dup3\n      0xffffffff\n      and\n      0xe0\n      shl\n      dup2\n      mstore\n      0x04\n      add\n      tag_196\n      swap2\n      swap1\n      tag_21\n      jump\t// in\n    tag_196:\n      0x20\n      mload(0x40)\n      dup1\n      dup4\n      sub\n      dup2\n      dup7\n      gas\n      staticcall\n      iszero\n      dup1\n      iszero\n      tag_198\n      jumpi\n      returndatasize\n      0x00\n      dup1\n      returndatacopy\n      revert(0x00, returndatasize)\n    tag_198:\n      pop\n      pop\n      pop\n      pop\n      mload(0x40)\n      returndatasize\n      not(0x1f)\n      0x1f\n      dup3\n      add\n      and\n      dup3\n      add\n      dup1\n      0x40\n      mstore\n      pop\n      dup2\n      add\n      swap1\n      tag_199\n      swap2\n      swap1\n      tag_83\n      jump\t// in\n    tag_199:\n        /* \"contracts/OndaV1Pool.sol\":5945:6004  uint newBalance0 = IERC20(_token0).balanceOf(address(this)) */\n      swap1\n      pop\n        /* \"contracts/OndaV1Pool.sol\":6009:6025  uint newBalance1 */\n      0x00\n        /* \"contracts/OndaV1Pool.sol\":6035:6042  _token1 */\n      dup12\n        /* \"contracts/OndaV1Pool.sol\":6028:6053  IERC20(_token1).balanceOf */\n      0xffffffffffffffffffffffffffffffffffffffff\n      and\n      0x70a08231\n        /* \"contracts/OndaV1Pool.sol\":6062:6066  this */\n      address\n        /* \"contracts/OndaV1Pool.sol\":6028:6068  IERC20(_token1).balanceOf(address(this)) */\n      mload(0x40)\n      dup3\n      0xffffffff\n      and\n      0xe0\n      shl\n      dup2\n      mstore\n      0x04\n      add\n      tag_200\n      swap2\n      swap1\n      tag_21\n      jump\t// in\n    tag_200:\n      0x20\n      mload(0x40)\n      dup1\n      dup4\n      sub\n      dup2\n      dup7\n      gas\n      staticcall\n      iszero\n      dup1\n      iszero\n      tag_202\n      jumpi\n      returndatasize\n      0x00\n      dup1\n      returndatacopy\n      revert(0x00, returndatasize)\n    tag_202:\n      pop\n      pop\n      pop\n      pop\n      mload(0x40)\n      returndatasize\n      not(0x1f)\n      0x1f\n      dup3\n      add\n      and\n      dup3\n      add\n      dup1\n      0x40\n      mstore\n      pop\n      dup2\n      add\n      swap1\n      tag_203\n      swap2\n      swap1\n      tag_83\n      jump\t// in\n    tag_203:\n        /* \"contracts/OndaV1Pool.sol\":6009:6068  uint newBalance1 = IERC20(_token1).balanceOf(address(this)) */\n      swap1\n      pop\n        /* \"contracts/OndaV1Pool.sol\":6076:6134  _updateStorage(_token0, _token1, newBalance0, newBalance1) */\n      tag_204\n        /* \"contracts/OndaV1Pool.sol\":6091:6098  _token0 */\n      dup14\n        /* \"contracts/OndaV1Pool.sol\":6100:6107  _token1 */\n      dup14\n        /* \"contracts/OndaV1Pool.sol\":6109:6120  newBalance0 */\n      dup5\n        /* \"contracts/OndaV1Pool.sol\":6122:6133  newBalance1 */\n      dup5\n        /* \"contracts/OndaV1Pool.sol\":6076:6090  _updateStorage */\n      tag_128\n        /* \"contracts/OndaV1Pool.sol\":6076:6134  _updateStorage(_token0, _token1, newBalance0, newBalance1) */\n      jump\t// in\n    tag_204:\n        /* \"contracts/OndaV1Pool.sol\":6147:6227  DeleteLiquidity(_token0, _token1, balanceContract0, balanceContract1, liquidity) */\n      0x95b8fe9ba38a505097b9341887de8716d6f3f3ba79ef0ecc02f35ad6e30585d6\n        /* \"contracts/OndaV1Pool.sol\":6163:6170  _token0 */\n      dup14\n        /* \"contracts/OndaV1Pool.sol\":6172:6179  _token1 */\n      dup14\n        /* \"contracts/OndaV1Pool.sol\":6181:6197  balanceContract0 */\n      dup9\n        /* \"contracts/OndaV1Pool.sol\":6199:6215  balanceContract1 */\n      dup9\n        /* \"contracts/OndaV1Pool.sol\":6217:6226  liquidity */\n      dup15\n        /* \"contracts/OndaV1Pool.sol\":6147:6227  DeleteLiquidity(_token0, _token1, balanceContract0, balanceContract1, liquidity) */\n      mload(0x40)\n      tag_205\n      swap6\n      swap5\n      swap4\n      swap3\n      swap2\n      swap1\n      tag_206\n      jump\t// in\n    tag_205:\n      mload(0x40)\n      dup1\n      swap2\n      sub\n      swap1\n      log1\n        /* \"contracts/OndaV1Pool.sol\":6242:6246  true */\n      0x01\n        /* \"contracts/OndaV1Pool.sol\":6235:6246  return true */\n      swap7\n      pop\n      pop\n      pop\n      pop\n      pop\n      pop\n      pop\n        /* \"contracts/OndaV1Pool.sol\":5158:6251  function _deleteLiquidity(address _token0, address _token1, address _to, uint liquidity, uint amount0, uint amount1) public returns (bool) {... */\n      swap7\n      swap6\n      pop\n      pop\n      pop\n      pop\n      pop\n      pop\n      jump\t// out\n        /* \"contracts/OndaV1Pool.sol\":1493:1619  function getBalancePair() private returns (uint balance0, uint balance1) {... */\n    tag_68:\n        /* \"contracts/OndaV1Pool.sol\":1536:1549  uint balance0 */\n      0x00\n        /* \"contracts/OndaV1Pool.sol\":1551:1564  uint balance1 */\n      dup1\n        /* \"contracts/OndaV1Pool.sol\":1582:1590  reserve0 */\n      sload(0x06)\n        /* \"contracts/OndaV1Pool.sol\":1571:1590  balance0 = reserve0 */\n      swap2\n      pop\n        /* \"contracts/OndaV1Pool.sol\":1606:1614  reserve1 */\n      sload(0x07)\n        /* \"contracts/OndaV1Pool.sol\":1595:1614  balance1 = reserve1 */\n      swap1\n      pop\n        /* \"contracts/OndaV1Pool.sol\":1493:1619  function getBalancePair() private returns (uint balance0, uint balance1) {... */\n      swap1\n      swap2\n      jump\t// out\n        /* \"contracts/interface/TransferHelper.sol\":1096:1619  function safeTransferFrom(... */\n    tag_77:\n        /* \"contracts/interface/TransferHelper.sol\":1235:1262  bytes4 TRANSFER_from_ACTION */\n      0x00\n        /* \"contracts/interface/TransferHelper.sol\":1282:1328  bytes('transferFrom(address,address,uint256)') */\n      mload(0x40)\n      dup1\n      0x60\n      add\n      0x40\n      mstore\n      dup1\n      0x25\n      dup2\n      mstore\n      0x20\n      add\n      data_23b872dd7302113369cda2901243429419bec145408fa8b352b3dd92b66c680b\n      0x25\n      swap2\n      codecopy\n        /* \"contracts/interface/TransferHelper.sol\":1272:1329  keccak256(bytes('transferFrom(address,address,uint256)')) */\n      dup1\n      mload\n      swap1\n      0x20\n      add\n      keccak256\n        /* \"contracts/interface/TransferHelper.sol\":1235:1330  bytes4 TRANSFER_from_ACTION = bytes4(keccak256(bytes('transferFrom(address,address,uint256)'))) */\n      swap1\n      pop\n        /* \"contracts/interface/TransferHelper.sol\":1341:1353  bool success */\n      0x00\n        /* \"contracts/interface/TransferHelper.sol\":1355:1372  bytes memory data */\n      dup1\n        /* \"contracts/interface/TransferHelper.sol\":1376:1381  token */\n      dup7\n        /* \"contracts/interface/TransferHelper.sol\":1376:1386  token.call */\n      0xffffffffffffffffffffffffffffffffffffffff\n      and\n        /* \"contracts/interface/TransferHelper.sol\":1410:1430  TRANSFER_from_ACTION */\n      dup4\n        /* \"contracts/interface/TransferHelper.sol\":1432:1436  from */\n      dup8\n        /* \"contracts/interface/TransferHelper.sol\":1438:1440  to */\n      dup8\n        /* \"contracts/interface/TransferHelper.sol\":1442:1447  value */\n      dup8\n        /* \"contracts/interface/TransferHelper.sol\":1387:1448  abi.encodeWithSelector(TRANSFER_from_ACTION, from, to, value) */\n      add(0x24, mload(0x40))\n      tag_209\n      swap4\n      swap3\n      swap2\n      swap1\n      tag_210\n      jump\t// in\n    tag_209:\n      mload(0x40)\n      0x20\n      dup2\n      dup4\n      sub\n      sub\n      dup2\n      mstore\n      swap1\n      0x40\n      mstore\n      swap1\n      not(0xffffffffffffffffffffffffffffffffffffffffffffffffffffffff)\n      and\n      0x20\n      dup3\n      add\n      dup1\n      mload\n      0xffffffffffffffffffffffffffffffffffffffffffffffffffffffff\n      dup4\n      dup2\n      dup4\n      and\n      or\n      dup4\n      mstore\n      pop\n      pop\n      pop\n      pop\n        /* \"contracts/interface/TransferHelper.sol\":1376:1449  token.call(abi.encodeWithSelector(TRANSFER_from_ACTION, from, to, value)) */\n      mload(0x40)\n      tag_211\n      swap2\n      swap1\n      tag_212\n      jump\t// in\n    tag_211:\n      0x00\n      mload(0x40)\n      dup1\n      dup4\n      sub\n      dup2\n      0x00\n      dup7\n      gas\n      call\n      swap2\n      pop\n      pop\n      returndatasize\n      dup1\n      0x00\n      dup2\n      eq\n      tag_215\n      jumpi\n      mload(0x40)\n      swap2\n      pop\n      and(add(returndatasize, 0x3f), not(0x1f))\n      dup3\n      add\n      0x40\n      mstore\n      returndatasize\n      dup3\n      mstore\n      returndatasize\n      0x00\n      0x20\n      dup5\n      add\n      returndatacopy\n      jump(tag_214)\n    tag_215:\n      0x60\n      swap2\n      pop\n    tag_214:\n      pop\n        /* \"contracts/interface/TransferHelper.sol\":1340:1449  (bool success, bytes memory data) = token.call(abi.encodeWithSelector(TRANSFER_from_ACTION, from, to, value)) */\n      swap2\n      pop\n      swap2\n      pop\n        /* \"contracts/interface/TransferHelper.sol\":1480:1487  success */\n      dup2\n        /* \"contracts/interface/TransferHelper.sol\":1480:1537  success && (data.length == 0 || abi.decode(data, (bool))) */\n      dup1\n      iszero\n      tag_216\n      jumpi\n      pop\n        /* \"contracts/interface/TransferHelper.sol\":1507:1508  0 */\n      0x00\n        /* \"contracts/interface/TransferHelper.sol\":1492:1496  data */\n      dup2\n        /* \"contracts/interface/TransferHelper.sol\":1492:1503  data.length */\n      mload\n        /* \"contracts/interface/TransferHelper.sol\":1492:1508  data.length == 0 */\n      eq\n        /* \"contracts/interface/TransferHelper.sol\":1492:1536  data.length == 0 || abi.decode(data, (bool)) */\n      dup1\n      tag_217\n      jumpi\n      pop\n        /* \"contracts/interface/TransferHelper.sol\":1523:1527  data */\n      dup1\n        /* \"contracts/interface/TransferHelper.sol\":1512:1536  abi.decode(data, (bool)) */\n      dup1\n      0x20\n      add\n      swap1\n      mload\n      dup2\n      add\n      swap1\n      tag_218\n      swap2\n      swap1\n      tag_219\n      jump\t// in\n    tag_218:\n        /* \"contracts/interface/TransferHelper.sol\":1492:1536  data.length == 0 || abi.decode(data, (bool)) */\n    tag_217:\n        /* \"contracts/interface/TransferHelper.sol\":1480:1537  success && (data.length == 0 || abi.decode(data, (bool))) */\n    tag_216:\n        /* \"contracts/interface/TransferHelper.sol\":1459:1612  require(... */\n      tag_220\n      jumpi\n      mload(0x40)\n      0x08c379a000000000000000000000000000000000000000000000000000000000\n      dup2\n      mstore\n      0x04\n      add\n      tag_221\n      swap1\n      tag_222\n      jump\t// in\n    tag_221:\n      mload(0x40)\n      dup1\n      swap2\n      sub\n      swap1\n      revert\n    tag_220:\n        /* \"contracts/interface/TransferHelper.sol\":1225:1619  {... */\n      pop\n      pop\n      pop\n        /* \"contracts/interface/TransferHelper.sol\":1096:1619  function safeTransferFrom(... */\n      pop\n      pop\n      pop\n      pop\n      jump\t// out\n        /* \"contracts/interface/Math.sol\":307:599  function sqrt(uint y) internal pure returns (uint z) {... */\n    tag_96:\n        /* \"contracts/interface/Math.sol\":352:358  uint z */\n      0x00\n        /* \"contracts/interface/Math.sol\":378:379  3 */\n      0x03\n        /* \"contracts/interface/Math.sol\":374:375  y */\n      dup3\n        /* \"contracts/interface/Math.sol\":374:379  y > 3 */\n      gt\n        /* \"contracts/interface/Math.sol\":370:593  if (y > 3) {... */\n      iszero\n      tag_224\n      jumpi\n        /* \"contracts/interface/Math.sol\":399:400  y */\n      dup2\n        /* \"contracts/interface/Math.sol\":395:400  z = y */\n      swap1\n      pop\n        /* \"contracts/interface/Math.sol\":414:420  uint x */\n      0x00\n        /* \"contracts/interface/Math.sol\":431:432  1 */\n      0x01\n        /* \"contracts/interface/Math.sol\":427:428  2 */\n      0x02\n        /* \"contracts/interface/Math.sol\":423:424  y */\n      dup5\n        /* \"contracts/interface/Math.sol\":423:428  y / 2 */\n      tag_225\n      swap2\n      swap1\n      tag_109\n      jump\t// in\n    tag_225:\n        /* \"contracts/interface/Math.sol\":423:432  y / 2 + 1 */\n      tag_226\n      swap2\n      swap1\n      tag_118\n      jump\t// in\n    tag_226:\n        /* \"contracts/interface/Math.sol\":414:432  uint x = y / 2 + 1 */\n      swap1\n      pop\n        /* \"contracts/interface/Math.sol\":446:535  while (x < z) {... */\n    tag_227:\n        /* \"contracts/interface/Math.sol\":457:458  z */\n      dup2\n        /* \"contracts/interface/Math.sol\":453:454  x */\n      dup2\n        /* \"contracts/interface/Math.sol\":453:458  x < z */\n      lt\n        /* \"contracts/interface/Math.sol\":446:535  while (x < z) {... */\n      iszero\n      tag_228\n      jumpi\n        /* \"contracts/interface/Math.sol\":482:483  x */\n      dup1\n        /* \"contracts/interface/Math.sol\":478:483  z = x */\n      swap2\n      pop\n        /* \"contracts/interface/Math.sol\":519:520  2 */\n      0x02\n        /* \"contracts/interface/Math.sol\":514:515  x */\n      dup2\n        /* \"contracts/interface/Math.sol\":510:511  x */\n      dup3\n        /* \"contracts/interface/Math.sol\":506:507  y */\n      dup6\n        /* \"contracts/interface/Math.sol\":506:511  y / x */\n      tag_229\n      swap2\n      swap1\n      tag_109\n      jump\t// in\n    tag_229:\n        /* \"contracts/interface/Math.sol\":506:515  y / x + x */\n      tag_230\n      swap2\n      swap1\n      tag_118\n      jump\t// in\n    tag_230:\n        /* \"contracts/interface/Math.sol\":505:520  (y / x + x) / 2 */\n      tag_231\n      swap2\n      swap1\n      tag_109\n      jump\t// in\n    tag_231:\n        /* \"contracts/interface/Math.sol\":501:520  x = (y / x + x) / 2 */\n      swap1\n      pop\n        /* \"contracts/interface/Math.sol\":446:535  while (x < z) {... */\n      jump(tag_227)\n    tag_228:\n        /* \"contracts/interface/Math.sol\":381:545  {... */\n      pop\n        /* \"contracts/interface/Math.sol\":370:593  if (y > 3) {... */\n      jump(tag_232)\n    tag_224:\n        /* \"contracts/interface/Math.sol\":560:561  0 */\n      0x00\n        /* \"contracts/interface/Math.sol\":555:556  y */\n      dup3\n        /* \"contracts/interface/Math.sol\":555:561  y != 0 */\n      eq\n        /* \"contracts/interface/Math.sol\":551:593  if (y != 0) {... */\n      tag_233\n      jumpi\n        /* \"contracts/interface/Math.sol\":581:582  1 */\n      0x01\n        /* \"contracts/interface/Math.sol\":577:582  z = 1 */\n      swap1\n      pop\n        /* \"contracts/interface/Math.sol\":551:593  if (y != 0) {... */\n    tag_233:\n        /* \"contracts/interface/Math.sol\":370:593  if (y > 3) {... */\n    tag_232:\n        /* \"contracts/interface/Math.sol\":307:599  function sqrt(uint y) internal pure returns (uint z) {... */\n      swap2\n      swap1\n      pop\n      jump\t// out\n        /* \"contracts/OndaV1Pool.sol\":2183:2434  function mint(address lp, address to, uint amount) private {... */\n    tag_101:\n        /* \"contracts/OndaV1Pool.sol\":2248:2259  bool status */\n      0x00\n        /* \"contracts/OndaV1Pool.sol\":2261:2278  bytes memory data */\n      dup1\n        /* \"contracts/OndaV1Pool.sol\":2282:2284  lp */\n      dup5\n        /* \"contracts/OndaV1Pool.sol\":2282:2289  lp.call */\n      0xffffffffffffffffffffffffffffffffffffffff\n      and\n        /* \"contracts/OndaV1Pool.sol\":825:855  bytes('mint(address,uint256)') */\n      mload(0x40)\n      dup1\n      0x40\n      add\n      0x40\n      mstore\n      dup1\n      0x15\n      dup2\n      mstore\n      0x20\n      add\n      0x6d696e7428616464726573732c75696e74323536290000000000000000000000\n      dup2\n      mstore\n      pop\n        /* \"contracts/OndaV1Pool.sol\":815:856  keccak256(bytes('mint(address,uint256)')) */\n      dup1\n      mload\n      swap1\n      0x20\n      add\n      keccak256\n        /* \"contracts/OndaV1Pool.sol\":2326:2328  to */\n      dup6\n        /* \"contracts/OndaV1Pool.sol\":2330:2336  amount */\n      dup6\n        /* \"contracts/OndaV1Pool.sol\":2290:2337  abi.encodeWithSelector(MINT_ACTION, to, amount) */\n      add(0x24, mload(0x40))\n      tag_235\n      swap3\n      swap2\n      swap1\n      tag_236\n      jump\t// in\n    tag_235:\n      mload(0x40)\n      0x20\n      dup2\n      dup4\n      sub\n      sub\n      dup2\n      mstore\n      swap1\n      0x40\n      mstore\n      swap1\n      not(0xffffffffffffffffffffffffffffffffffffffffffffffffffffffff)\n      and\n      0x20\n      dup3\n      add\n      dup1\n      mload\n      0xffffffffffffffffffffffffffffffffffffffffffffffffffffffff\n      dup4\n      dup2\n      dup4\n      and\n      or\n      dup4\n      mstore\n      pop\n      pop\n      pop\n      pop\n        /* \"contracts/OndaV1Pool.sol\":2282:2338  lp.call(abi.encodeWithSelector(MINT_ACTION, to, amount)) */\n      mload(0x40)\n      tag_237\n      swap2\n      swap1\n      tag_212\n      jump\t// in\n    tag_237:\n      0x00\n      mload(0x40)\n      dup1\n      dup4\n      sub\n      dup2\n      0x00\n      dup7\n      gas\n      call\n      swap2\n      pop\n      pop\n      returndatasize\n      dup1\n      0x00\n      dup2\n      eq\n      tag_240\n      jumpi\n      mload(0x40)\n      swap2\n      pop\n      and(add(returndatasize, 0x3f), not(0x1f))\n      dup3\n      add\n      0x40\n      mstore\n      returndatasize\n      dup3\n      mstore\n      returndatasize\n      0x00\n      0x20\n      dup5\n      add\n      returndatacopy\n      jump(tag_239)\n    tag_240:\n      0x60\n      swap2\n      pop\n    tag_239:\n      pop\n        /* \"contracts/OndaV1Pool.sol\":2247:2338  (bool status, bytes memory data) = lp.call(abi.encodeWithSelector(MINT_ACTION, to, amount)) */\n      swap2\n      pop\n      swap2\n      pop\n        /* \"contracts/OndaV1Pool.sol\":2357:2363  status */\n      dup2\n        /* \"contracts/OndaV1Pool.sol\":2357:2413  status && (data.length == 0 || abi.decode(data, (bool))) */\n      dup1\n      iszero\n      tag_241\n      jumpi\n      pop\n        /* \"contracts/OndaV1Pool.sol\":2383:2384  0 */\n      0x00\n        /* \"contracts/OndaV1Pool.sol\":2368:2372  data */\n      dup2\n        /* \"contracts/OndaV1Pool.sol\":2368:2379  data.length */\n      mload\n        /* \"contracts/OndaV1Pool.sol\":2368:2384  data.length == 0 */\n      eq\n        /* \"contracts/OndaV1Pool.sol\":2368:2412  data.length == 0 || abi.decode(data, (bool)) */\n      dup1\n      tag_242\n      jumpi\n      pop\n        /* \"contracts/OndaV1Pool.sol\":2399:2403  data */\n      dup1\n        /* \"contracts/OndaV1Pool.sol\":2388:2412  abi.decode(data, (bool)) */\n      dup1\n      0x20\n      add\n      swap1\n      mload\n      dup2\n      add\n      swap1\n      tag_243\n      swap2\n      swap1\n      tag_219\n      jump\t// in\n    tag_243:\n        /* \"contracts/OndaV1Pool.sol\":2368:2412  data.length == 0 || abi.decode(data, (bool)) */\n    tag_242:\n        /* \"contracts/OndaV1Pool.sol\":2357:2413  status && (data.length == 0 || abi.decode(data, (bool))) */\n    tag_241:\n        /* \"contracts/OndaV1Pool.sol\":2349:2429  require(status && (data.length == 0 || abi.decode(data, (bool))), 'FAILED Mint') */\n      tag_244\n      jumpi\n      mload(0x40)\n      0x08c379a000000000000000000000000000000000000000000000000000000000\n      dup2\n      mstore\n      0x04\n      add\n      tag_245\n      swap1\n      tag_246\n      jump\t// in\n    tag_245:\n      mload(0x40)\n      dup1\n      swap2\n      sub\n      swap1\n      revert\n    tag_244:\n        /* \"contracts/OndaV1Pool.sol\":2242:2434  {... */\n      pop\n      pop\n        /* \"contracts/OndaV1Pool.sol\":2183:2434  function mint(address lp, address to, uint amount) private {... */\n      pop\n      pop\n      pop\n      jump\t// out\n        /* \"contracts/OndaV1Pool.sol\":3354:3639  function updateK(address _token0, address _token1) private returns (uint) {... */\n    tag_103:\n        /* \"contracts/OndaV1Pool.sol\":3422:3426  uint */\n      0x00\n        /* \"contracts/OndaV1Pool.sol\":3433:3446  uint balance0 */\n      dup1\n        /* \"contracts/OndaV1Pool.sol\":3456:3463  _token0 */\n      dup4\n        /* \"contracts/OndaV1Pool.sol\":3449:3474  IERC20(_token0).balanceOf */\n      0xffffffffffffffffffffffffffffffffffffffff\n      and\n      0x70a08231\n        /* \"contracts/OndaV1Pool.sol\":3483:3487  this */\n      address\n        /* \"contracts/OndaV1Pool.sol\":3449:3489  IERC20(_token0).balanceOf(address(this)) */\n      mload(0x40)\n      dup3\n      0xffffffff\n      and\n      0xe0\n      shl\n      dup2\n      mstore\n      0x04\n      add\n      tag_248\n      swap2\n      swap1\n      tag_21\n      jump\t// in\n    tag_248:\n      0x20\n      mload(0x40)\n      dup1\n      dup4\n      sub\n      dup2\n      dup7\n      gas\n      staticcall\n      iszero\n      dup1\n      iszero\n      tag_250\n      jumpi\n      returndatasize\n      0x00\n      dup1\n      returndatacopy\n      revert(0x00, returndatasize)\n    tag_250:\n      pop\n      pop\n      pop\n      pop\n      mload(0x40)\n      returndatasize\n      not(0x1f)\n      0x1f\n      dup3\n      add\n      and\n      dup3\n      add\n      dup1\n      0x40\n      mstore\n      pop\n      dup2\n      add\n      swap1\n      tag_251\n      swap2\n      swap1\n      tag_83\n      jump\t// in\n    tag_251:\n        /* \"contracts/OndaV1Pool.sol\":3433:3489  uint balance0 = IERC20(_token0).balanceOf(address(this)) */\n      swap1\n      pop\n        /* \"contracts/OndaV1Pool.sol\":3500:3513  uint balance1 */\n      0x00\n        /* \"contracts/OndaV1Pool.sol\":3523:3530  _token1 */\n      dup4\n        /* \"contracts/OndaV1Pool.sol\":3516:3541  IERC20(_token1).balanceOf */\n      0xffffffffffffffffffffffffffffffffffffffff\n      and\n      0x70a08231\n        /* \"contracts/OndaV1Pool.sol\":3550:3554  this */\n      address\n        /* \"contracts/OndaV1Pool.sol\":3516:3556  IERC20(_token1).balanceOf(address(this)) */\n      mload(0x40)\n      dup3\n      0xffffffff\n      and\n      0xe0\n      shl\n      dup2\n      mstore\n      0x04\n      add\n      tag_252\n      swap2\n      swap1\n      tag_21\n      jump\t// in\n    tag_252:\n      0x20\n      mload(0x40)\n      dup1\n      dup4\n      sub\n      dup2\n      dup7\n      gas\n      staticcall\n      iszero\n      dup1\n      iszero\n      tag_254\n      jumpi\n      returndatasize\n      0x00\n      dup1\n      returndatacopy\n      revert(0x00, returndatasize)\n    tag_254:\n      pop\n      pop\n      pop\n      pop\n      mload(0x40)\n      returndatasize\n      not(0x1f)\n      0x1f\n      dup3\n      add\n      and\n      dup3\n      add\n      dup1\n      0x40\n      mstore\n      pop\n      dup2\n      add\n      swap1\n      tag_255\n      swap2\n      swap1\n      tag_83\n      jump\t// in\n    tag_255:\n        /* \"contracts/OndaV1Pool.sol\":3500:3556  uint balance1 = IERC20(_token1).balanceOf(address(this)) */\n      swap1\n      pop\n        /* \"contracts/OndaV1Pool.sol\":3571:3572  0 */\n      0x00\n        /* \"contracts/OndaV1Pool.sol\":3564:3567  key */\n      sload(0x05)\n        /* \"contracts/OndaV1Pool.sol\":3564:3572  key == 0 */\n      sub\n        /* \"contracts/OndaV1Pool.sol\":3561:3622  if(key == 0) {... */\n      tag_256\n      jumpi\n        /* \"contracts/OndaV1Pool.sol\":3595:3603  balance1 */\n      dup1\n        /* \"contracts/OndaV1Pool.sol\":3584:3592  balance0 */\n      dup3\n        /* \"contracts/OndaV1Pool.sol\":3584:3603  balance0 * balance1 */\n      tag_257\n      swap2\n      swap1\n      tag_94\n      jump\t// in\n    tag_257:\n        /* \"contracts/OndaV1Pool.sol\":3580:3581  k */\n      0x04\n        /* \"contracts/OndaV1Pool.sol\":3580:3603  k = balance0 * balance1 */\n      dup2\n      swap1\n      sstore\n      pop\n        /* \"contracts/OndaV1Pool.sol\":3615:3616  1 */\n      0x01\n        /* \"contracts/OndaV1Pool.sol\":3609:3612  key */\n      0x05\n        /* \"contracts/OndaV1Pool.sol\":3609:3616  key = 1 */\n      dup2\n      swap1\n      sstore\n      pop\n        /* \"contracts/OndaV1Pool.sol\":3561:3622  if(key == 0) {... */\n    tag_256:\n        /* \"contracts/OndaV1Pool.sol\":3633:3634  k */\n      sload(0x04)\n        /* \"contracts/OndaV1Pool.sol\":3626:3634  return k */\n      swap3\n      pop\n      pop\n      pop\n        /* \"contracts/OndaV1Pool.sol\":3354:3639  function updateK(address _token0, address _token1) private returns (uint) {... */\n      swap3\n      swap2\n      pop\n      pop\n      jump\t// out\n        /* \"contracts/interface/Math.sol\":98:192  function min(uint x, uint y) internal pure returns (uint z) {... */\n    tag_113:\n        /* \"contracts/interface/Math.sol\":150:156  uint z */\n      0x00\n        /* \"contracts/interface/Math.sol\":176:177  y */\n      dup2\n        /* \"contracts/interface/Math.sol\":172:173  x */\n      dup4\n        /* \"contracts/interface/Math.sol\":172:177  x < y */\n      lt\n        /* \"contracts/interface/Math.sol\":172:185  x < y ? x : y */\n      tag_259\n      jumpi\n        /* \"contracts/interface/Math.sol\":184:185  y */\n      dup2\n        /* \"contracts/interface/Math.sol\":172:185  x < y ? x : y */\n      jump(tag_260)\n    tag_259:\n        /* \"contracts/interface/Math.sol\":180:181  x */\n      dup3\n        /* \"contracts/interface/Math.sol\":172:185  x < y ? x : y */\n    tag_260:\n        /* \"contracts/interface/Math.sol\":168:185  z = x < y ? x : y */\n      swap1\n      pop\n        /* \"contracts/interface/Math.sol\":98:192  function min(uint x, uint y) internal pure returns (uint z) {... */\n      swap3\n      swap2\n      pop\n      pop\n      jump\t// out\n        /* \"contracts/OndaV1Pool.sol\":2695:3349  function _updateStorage(address _token0, address _token1, uint256 balanceContract0, uint256 balanceContract1) private {... */\n    tag_128:\n        /* \"contracts/OndaV1Pool.sol\":2847:2848  0 */\n      0x00\n        /* \"contracts/OndaV1Pool.sol\":2827:2843  balanceContract0 */\n      dup3\n        /* \"contracts/OndaV1Pool.sol\":2827:2848  balanceContract0 >= 0 */\n      lt\n      iszero\n        /* \"contracts/OndaV1Pool.sol\":2826:2876  (balanceContract0 >= 0) && (balanceContract1 >= 0) */\n      dup1\n      iszero\n      tag_262\n      jumpi\n      pop\n        /* \"contracts/OndaV1Pool.sol\":2874:2875  0 */\n      0x00\n        /* \"contracts/OndaV1Pool.sol\":2854:2870  balanceContract1 */\n      dup2\n        /* \"contracts/OndaV1Pool.sol\":2854:2875  balanceContract1 >= 0 */\n      lt\n      iszero\n        /* \"contracts/OndaV1Pool.sol\":2826:2876  (balanceContract0 >= 0) && (balanceContract1 >= 0) */\n    tag_262:\n        /* \"contracts/OndaV1Pool.sol\":2818:2889  require((balanceContract0 >= 0) && (balanceContract1 >= 0), '0 number') */\n      tag_263\n      jumpi\n      mload(0x40)\n      0x08c379a000000000000000000000000000000000000000000000000000000000\n      dup2\n      mstore\n      0x04\n      add\n      tag_264\n      swap1\n      tag_265\n      jump\t// in\n    tag_264:\n      mload(0x40)\n      dup1\n      swap2\n      sub\n      swap1\n      revert\n    tag_263:\n        /* \"contracts/OndaV1Pool.sol\":2917:2918  0 */\n      0x00\n        /* \"contracts/OndaV1Pool.sol\":2897:2913  balanceContract0 */\n      dup3\n        /* \"contracts/OndaV1Pool.sol\":2897:2918  balanceContract0 != 0 */\n      eq\n      iszero\n        /* \"contracts/OndaV1Pool.sol\":2897:2943  balanceContract0 != 0 && balanceContract1 != 0 */\n      dup1\n      iszero\n      tag_266\n      jumpi\n      pop\n        /* \"contracts/OndaV1Pool.sol\":2942:2943  0 */\n      0x00\n        /* \"contracts/OndaV1Pool.sol\":2922:2938  balanceContract1 */\n      dup2\n        /* \"contracts/OndaV1Pool.sol\":2922:2943  balanceContract1 != 0 */\n      eq\n      iszero\n        /* \"contracts/OndaV1Pool.sol\":2897:2943  balanceContract0 != 0 && balanceContract1 != 0 */\n    tag_266:\n        /* \"contracts/OndaV1Pool.sol\":2894:3202  if(balanceContract0 != 0 && balanceContract1 != 0) {... */\n      iszero\n      tag_267\n      jumpi\n        /* \"contracts/OndaV1Pool.sol\":2992:3008  balanceContract0 */\n      dup2\n        /* \"contracts/OndaV1Pool.sol\":2980:2987  1000000 */\n      0x0f4240\n        /* \"contracts/OndaV1Pool.sol\":2961:2977  balanceContract1 */\n      dup3\n        /* \"contracts/OndaV1Pool.sol\":2961:2987  balanceContract1 * 1000000 */\n      tag_268\n      swap2\n      swap1\n      tag_94\n      jump\t// in\n    tag_268:\n        /* \"contracts/OndaV1Pool.sol\":2960:3009  (balanceContract1 * 1000000) / (balanceContract0) */\n      tag_269\n      swap2\n      swap1\n      tag_109\n      jump\t// in\n    tag_269:\n        /* \"contracts/OndaV1Pool.sol\":2951:2957  price0 */\n      0x08\n        /* \"contracts/OndaV1Pool.sol\":2951:3009  price0 = (balanceContract1 * 1000000) / (balanceContract0) */\n      dup2\n      swap1\n      sstore\n      pop\n        /* \"contracts/OndaV1Pool.sol\":3056:3072  balanceContract1 */\n      dup1\n        /* \"contracts/OndaV1Pool.sol\":3044:3051  1000000 */\n      0x0f4240\n        /* \"contracts/OndaV1Pool.sol\":3025:3041  balanceContract0 */\n      dup4\n        /* \"contracts/OndaV1Pool.sol\":3025:3051  balanceContract0 * 1000000 */\n      tag_270\n      swap2\n      swap1\n      tag_94\n      jump\t// in\n    tag_270:\n        /* \"contracts/OndaV1Pool.sol\":3024:3073  (balanceContract0 * 1000000) / (balanceContract1) */\n      tag_271\n      swap2\n      swap1\n      tag_109\n      jump\t// in\n    tag_271:\n        /* \"contracts/OndaV1Pool.sol\":3015:3021  price1 */\n      0x09\n        /* \"contracts/OndaV1Pool.sol\":3015:3073  price1 = (balanceContract0 * 1000000) / (balanceContract1) */\n      dup2\n      swap1\n      sstore\n      pop\n        /* \"contracts/OndaV1Pool.sol\":2894:3202  if(balanceContract0 != 0 && balanceContract1 != 0) {... */\n      jump(tag_272)\n    tag_267:\n        /* \"contracts/OndaV1Pool.sol\":3115:3116  0 */\n      0x00\n        /* \"contracts/OndaV1Pool.sol\":3095:3111  balanceContract0 */\n      dup3\n        /* \"contracts/OndaV1Pool.sol\":3095:3116  balanceContract0 == 0 */\n      eq\n        /* \"contracts/OndaV1Pool.sol\":3094:3144  (balanceContract0 == 0) && (balanceContract1 == 0) */\n      dup1\n      iszero\n      tag_273\n      jumpi\n      pop\n        /* \"contracts/OndaV1Pool.sol\":3142:3143  0 */\n      0x00\n        /* \"contracts/OndaV1Pool.sol\":3122:3138  balanceContract1 */\n      dup2\n        /* \"contracts/OndaV1Pool.sol\":3122:3143  balanceContract1 == 0 */\n      eq\n        /* \"contracts/OndaV1Pool.sol\":3094:3144  (balanceContract0 == 0) && (balanceContract1 == 0) */\n    tag_273:\n        /* \"contracts/OndaV1Pool.sol\":3091:3202  if((balanceContract0 == 0) && (balanceContract1 == 0)) {... */\n      iszero\n      tag_274\n      jumpi\n        /* \"contracts/OndaV1Pool.sol\":3167:3168  0 */\n      0x00\n        /* \"contracts/OndaV1Pool.sol\":3158:3164  price0 */\n      0x08\n        /* \"contracts/OndaV1Pool.sol\":3158:3168  price0 = 0 */\n      dup2\n      swap1\n      sstore\n      pop\n        /* \"contracts/OndaV1Pool.sol\":3189:3190  0 */\n      0x00\n        /* \"contracts/OndaV1Pool.sol\":3180:3186  price1 */\n      0x09\n        /* \"contracts/OndaV1Pool.sol\":3180:3190  price1 = 0 */\n      dup2\n      swap1\n      sstore\n      pop\n        /* \"contracts/OndaV1Pool.sol\":3091:3202  if((balanceContract0 == 0) && (balanceContract1 == 0)) {... */\n    tag_274:\n        /* \"contracts/OndaV1Pool.sol\":2894:3202  if(balanceContract0 != 0 && balanceContract1 != 0) {... */\n    tag_272:\n        /* \"contracts/OndaV1Pool.sol\":3225:3241  balanceContract0 */\n      dup2\n        /* \"contracts/OndaV1Pool.sol\":3214:3222  reserve0 */\n      0x06\n        /* \"contracts/OndaV1Pool.sol\":3214:3241  reserve0 = balanceContract0 */\n      dup2\n      swap1\n      sstore\n      pop\n        /* \"contracts/OndaV1Pool.sol\":3263:3279  balanceContract1 */\n      dup1\n        /* \"contracts/OndaV1Pool.sol\":3252:3260  reserve1 */\n      0x07\n        /* \"contracts/OndaV1Pool.sol\":3252:3279  reserve1 = balanceContract1 */\n      dup2\n      swap1\n      sstore\n      pop\n        /* \"contracts/OndaV1Pool.sol\":3295:3344  SyncStorage(_token0, _token1, reserve0, reserve1) */\n      0xd4bde8444971b7416b5f51c90f544d2fe2d0c1edddd83bd5fe8646179341dc99\n        /* \"contracts/OndaV1Pool.sol\":3307:3314  _token0 */\n      dup5\n        /* \"contracts/OndaV1Pool.sol\":3316:3323  _token1 */\n      dup5\n        /* \"contracts/OndaV1Pool.sol\":3325:3333  reserve0 */\n      sload(0x06)\n        /* \"contracts/OndaV1Pool.sol\":3335:3343  reserve1 */\n      sload(0x07)\n        /* \"contracts/OndaV1Pool.sol\":3295:3344  SyncStorage(_token0, _token1, reserve0, reserve1) */\n      mload(0x40)\n      tag_275\n      swap5\n      swap4\n      swap3\n      swap2\n      swap1\n      tag_130\n      jump\t// in\n    tag_275:\n      mload(0x40)\n      dup1\n      swap2\n      sub\n      swap1\n      log1\n        /* \"contracts/OndaV1Pool.sol\":2695:3349  function _updateStorage(address _token0, address _token1, uint256 balanceContract0, uint256 balanceContract1) private {... */\n      pop\n      pop\n      pop\n      pop\n      jump\t// out\n        /* \"contracts/interface/TransferHelper.sol\":652:1090  function safeTransfer(... */\n    tag_157:\n        /* \"contracts/interface/TransferHelper.sol\":832:844  bool success */\n      0x00\n        /* \"contracts/interface/TransferHelper.sol\":846:863  bytes memory data */\n      dup1\n        /* \"contracts/interface/TransferHelper.sol\":867:872  token */\n      dup5\n        /* \"contracts/interface/TransferHelper.sol\":867:877  token.call */\n      0xffffffffffffffffffffffffffffffffffffffff\n      and\n        /* \"contracts/interface/TransferHelper.sol\":901:911  0xa9059cbb */\n      0xa9059cbb\n        /* \"contracts/interface/TransferHelper.sol\":913:915  to */\n      dup6\n        /* \"contracts/interface/TransferHelper.sol\":917:922  value */\n      dup6\n        /* \"contracts/interface/TransferHelper.sol\":878:923  abi.encodeWithSelector(0xa9059cbb, to, value) */\n      add(0x24, mload(0x40))\n      tag_277\n      swap3\n      swap2\n      swap1\n      tag_236\n      jump\t// in\n    tag_277:\n      mload(0x40)\n      0x20\n      dup2\n      dup4\n      sub\n      sub\n      dup2\n      mstore\n      swap1\n      0x40\n      mstore\n      swap1\n      0xe0\n      shl\n      0x20\n      dup3\n      add\n      dup1\n      mload\n      0xffffffffffffffffffffffffffffffffffffffffffffffffffffffff\n      dup4\n      dup2\n      dup4\n      and\n      or\n      dup4\n      mstore\n      pop\n      pop\n      pop\n      pop\n        /* \"contracts/interface/TransferHelper.sol\":867:924  token.call(abi.encodeWithSelector(0xa9059cbb, to, value)) */\n      mload(0x40)\n      tag_278\n      swap2\n      swap1\n      tag_212\n      jump\t// in\n    tag_278:\n      0x00\n      mload(0x40)\n      dup1\n      dup4\n      sub\n      dup2\n      0x00\n      dup7\n      gas\n      call\n      swap2\n      pop\n      pop\n      returndatasize\n      dup1\n      0x00\n      dup2\n      eq\n      tag_281\n      jumpi\n      mload(0x40)\n      swap2\n      pop\n      and(add(returndatasize, 0x3f), not(0x1f))\n      dup3\n      add\n      0x40\n      mstore\n      returndatasize\n      dup3\n      mstore\n      returndatasize\n      0x00\n      0x20\n      dup5\n      add\n      returndatacopy\n      jump(tag_280)\n    tag_281:\n      0x60\n      swap2\n      pop\n    tag_280:\n      pop\n        /* \"contracts/interface/TransferHelper.sol\":831:924  (bool success, bytes memory data) = token.call(abi.encodeWithSelector(0xa9059cbb, to, value)) */\n      swap2\n      pop\n      swap2\n      pop\n        /* \"contracts/interface/TransferHelper.sol\":955:962  success */\n      dup2\n        /* \"contracts/interface/TransferHelper.sol\":955:1012  success && (data.length == 0 || abi.decode(data, (bool))) */\n      dup1\n      iszero\n      tag_282\n      jumpi\n      pop\n        /* \"contracts/interface/TransferHelper.sol\":982:983  0 */\n      0x00\n        /* \"contracts/interface/TransferHelper.sol\":967:971  data */\n      dup2\n        /* \"contracts/interface/TransferHelper.sol\":967:978  data.length */\n      mload\n        /* \"contracts/interface/TransferHelper.sol\":967:983  data.length == 0 */\n      eq\n        /* \"contracts/interface/TransferHelper.sol\":967:1011  data.length == 0 || abi.decode(data, (bool)) */\n      dup1\n      tag_283\n      jumpi\n      pop\n        /* \"contracts/interface/TransferHelper.sol\":998:1002  data */\n      dup1\n        /* \"contracts/interface/TransferHelper.sol\":987:1011  abi.decode(data, (bool)) */\n      dup1\n      0x20\n      add\n      swap1\n      mload\n      dup2\n      add\n      swap1\n      tag_284\n      swap2\n      swap1\n      tag_219\n      jump\t// in\n    tag_284:\n        /* \"contracts/interface/TransferHelper.sol\":967:1011  data.length == 0 || abi.decode(data, (bool)) */\n    tag_283:\n        /* \"contracts/interface/TransferHelper.sol\":955:1012  success && (data.length == 0 || abi.decode(data, (bool))) */\n    tag_282:\n        /* \"contracts/interface/TransferHelper.sol\":934:1083  require(... */\n      tag_285\n      jumpi\n      mload(0x40)\n      0x08c379a000000000000000000000000000000000000000000000000000000000\n      dup2\n      mstore\n      0x04\n      add\n      tag_286\n      swap1\n      tag_287\n      jump\t// in\n    tag_286:\n      mload(0x40)\n      dup1\n      swap2\n      sub\n      swap1\n      revert\n    tag_285:\n        /* \"contracts/interface/TransferHelper.sol\":755:1090  {... */\n      pop\n      pop\n        /* \"contracts/interface/TransferHelper.sol\":652:1090  function safeTransfer(... */\n      pop\n      pop\n      pop\n      jump\t// out\n        /* \"contracts/OndaV1Pool.sol\":2439:2690  function burn(address lp, address to, uint amount) private {... */\n    tag_192:\n        /* \"contracts/OndaV1Pool.sol\":2504:2515  bool status */\n      0x00\n        /* \"contracts/OndaV1Pool.sol\":2517:2534  bytes memory data */\n      dup1\n        /* \"contracts/OndaV1Pool.sol\":2538:2540  lp */\n      dup5\n        /* \"contracts/OndaV1Pool.sol\":2538:2545  lp.call */\n      0xffffffffffffffffffffffffffffffffffffffff\n      and\n        /* \"contracts/OndaV1Pool.sol\":916:946  bytes('burn(address,uint256)') */\n      mload(0x40)\n      dup1\n      0x40\n      add\n      0x40\n      mstore\n      dup1\n      0x15\n      dup2\n      mstore\n      0x20\n      add\n      0x6275726e28616464726573732c75696e74323536290000000000000000000000\n      dup2\n      mstore\n      pop\n        /* \"contracts/OndaV1Pool.sol\":906:947  keccak256(bytes('burn(address,uint256)')) */\n      dup1\n      mload\n      swap1\n      0x20\n      add\n      keccak256\n        /* \"contracts/OndaV1Pool.sol\":2582:2584  to */\n      dup6\n        /* \"contracts/OndaV1Pool.sol\":2586:2592  amount */\n      dup6\n        /* \"contracts/OndaV1Pool.sol\":2546:2593  abi.encodeWithSelector(BURN_ACTION, to, amount) */\n      add(0x24, mload(0x40))\n      tag_289\n      swap3\n      swap2\n      swap1\n      tag_236\n      jump\t// in\n    tag_289:\n      mload(0x40)\n      0x20\n      dup2\n      dup4\n      sub\n      sub\n      dup2\n      mstore\n      swap1\n      0x40\n      mstore\n      swap1\n      not(0xffffffffffffffffffffffffffffffffffffffffffffffffffffffff)\n      and\n      0x20\n      dup3\n      add\n      dup1\n      mload\n      0xffffffffffffffffffffffffffffffffffffffffffffffffffffffff\n      dup4\n      dup2\n      dup4\n      and\n      or\n      dup4\n      mstore\n      pop\n      pop\n      pop\n      pop\n        /* \"contracts/OndaV1Pool.sol\":2538:2594  lp.call(abi.encodeWithSelector(BURN_ACTION, to, amount)) */\n      mload(0x40)\n      tag_290\n      swap2\n      swap1\n      tag_212\n      jump\t// in\n    tag_290:\n      0x00\n      mload(0x40)\n      dup1\n      dup4\n      sub\n      dup2\n      0x00\n      dup7\n      gas\n      call\n      swap2\n      pop\n      pop\n      returndatasize\n      dup1\n      0x00\n      dup2\n      eq\n      tag_293\n      jumpi\n      mload(0x40)\n      swap2\n      pop\n      and(add(returndatasize, 0x3f), not(0x1f))\n      dup3\n      add\n      0x40\n      mstore\n      returndatasize\n      dup3\n      mstore\n      returndatasize\n      0x00\n      0x20\n      dup5\n      add\n      returndatacopy\n      jump(tag_292)\n    tag_293:\n      0x60\n      swap2\n      pop\n    tag_292:\n      pop\n        /* \"contracts/OndaV1Pool.sol\":2503:2594  (bool status, bytes memory data) = lp.call(abi.encodeWithSelector(BURN_ACTION, to, amount)) */\n      swap2\n      pop\n      swap2\n      pop\n        /* \"contracts/OndaV1Pool.sol\":2613:2619  status */\n      dup2\n        /* \"contracts/OndaV1Pool.sol\":2613:2669  status && (data.length == 0 || abi.decode(data, (bool))) */\n      dup1\n      iszero\n      tag_294\n      jumpi\n      pop\n        /* \"contracts/OndaV1Pool.sol\":2639:2640  0 */\n      0x00\n        /* \"contracts/OndaV1Pool.sol\":2624:2628  data */\n      dup2\n        /* \"contracts/OndaV1Pool.sol\":2624:2635  data.length */\n      mload\n        /* \"contracts/OndaV1Pool.sol\":2624:2640  data.length == 0 */\n      eq\n        /* \"contracts/OndaV1Pool.sol\":2624:2668  data.length == 0 || abi.decode(data, (bool)) */\n      dup1\n      tag_295\n      jumpi\n      pop\n        /* \"contracts/OndaV1Pool.sol\":2655:2659  data */\n      dup1\n        /* \"contracts/OndaV1Pool.sol\":2644:2668  abi.decode(data, (bool)) */\n      dup1\n      0x20\n      add\n      swap1\n      mload\n      dup2\n      add\n      swap1\n      tag_296\n      swap2\n      swap1\n      tag_219\n      jump\t// in\n    tag_296:\n        /* \"contracts/OndaV1Pool.sol\":2624:2668  data.length == 0 || abi.decode(data, (bool)) */\n    tag_295:\n        /* \"contracts/OndaV1Pool.sol\":2613:2669  status && (data.length == 0 || abi.decode(data, (bool))) */\n    tag_294:\n        /* \"contracts/OndaV1Pool.sol\":2605:2685  require(status && (data.length == 0 || abi.decode(data, (bool))), 'FAILED Burn') */\n      tag_297\n      jumpi\n      mload(0x40)\n      0x08c379a000000000000000000000000000000000000000000000000000000000\n      dup2\n      mstore\n      0x04\n      add\n      tag_298\n      swap1\n      tag_299\n      jump\t// in\n    tag_298:\n      mload(0x40)\n      dup1\n      swap2\n      sub\n      swap1\n      revert\n    tag_297:\n        /* \"contracts/OndaV1Pool.sol\":2498:2690  {... */\n      pop\n      pop\n        /* \"contracts/OndaV1Pool.sol\":2439:2690  function burn(address lp, address to, uint amount) private {... */\n      pop\n      pop\n      pop\n      jump\t// out\n        /* \"#utility.yul\":7:133   */\n    tag_300:\n        /* \"#utility.yul\":44:51   */\n      0x00\n        /* \"#utility.yul\":84:126   */\n      0xffffffffffffffffffffffffffffffffffffffff\n        /* \"#utility.yul\":77:82   */\n      dup3\n        /* \"#utility.yul\":73:127   */\n      and\n        /* \"#utility.yul\":62:127   */\n      swap1\n      pop\n        /* \"#utility.yul\":7:133   */\n      swap2\n      swap1\n      pop\n      jump\t// out\n        /* \"#utility.yul\":139:235   */\n    tag_301:\n        /* \"#utility.yul\":176:183   */\n      0x00\n        /* \"#utility.yul\":205:229   */\n      tag_347\n        /* \"#utility.yul\":223:228   */\n      dup3\n        /* \"#utility.yul\":205:229   */\n      tag_300\n      jump\t// in\n    tag_347:\n        /* \"#utility.yul\":194:229   */\n      swap1\n      pop\n        /* \"#utility.yul\":139:235   */\n      swap2\n      swap1\n      pop\n      jump\t// out\n        /* \"#utility.yul\":241:359   */\n    tag_302:\n        /* \"#utility.yul\":328:352   */\n      tag_349\n        /* \"#utility.yul\":346:351   */\n      dup2\n        /* \"#utility.yul\":328:352   */\n      tag_301\n      jump\t// in\n    tag_349:\n        /* \"#utility.yul\":323:326   */\n      dup3\n        /* \"#utility.yul\":316:353   */\n      mstore\n        /* \"#utility.yul\":241:359   */\n      pop\n      pop\n      jump\t// out\n        /* \"#utility.yul\":365:587   */\n    tag_21:\n        /* \"#utility.yul\":458:462   */\n      0x00\n        /* \"#utility.yul\":496:498   */\n      0x20\n        /* \"#utility.yul\":485:494   */\n      dup3\n        /* \"#utility.yul\":481:499   */\n      add\n        /* \"#utility.yul\":473:499   */\n      swap1\n      pop\n        /* \"#utility.yul\":509:580   */\n      tag_351\n        /* \"#utility.yul\":577:578   */\n      0x00\n        /* \"#utility.yul\":566:575   */\n      dup4\n        /* \"#utility.yul\":562:579   */\n      add\n        /* \"#utility.yul\":553:559   */\n      dup5\n        /* \"#utility.yul\":509:580   */\n      tag_302\n      jump\t// in\n    tag_351:\n        /* \"#utility.yul\":365:587   */\n      swap3\n      swap2\n      pop\n      pop\n      jump\t// out\n        /* \"#utility.yul\":593:670   */\n    tag_303:\n        /* \"#utility.yul\":630:637   */\n      0x00\n        /* \"#utility.yul\":659:664   */\n      dup2\n        /* \"#utility.yul\":648:664   */\n      swap1\n      pop\n        /* \"#utility.yul\":593:670   */\n      swap2\n      swap1\n      pop\n      jump\t// out\n        /* \"#utility.yul\":676:794   */\n    tag_304:\n        /* \"#utility.yul\":763:787   */\n      tag_354\n        /* \"#utility.yul\":781:786   */\n      dup2\n        /* \"#utility.yul\":763:787   */\n      tag_303\n      jump\t// in\n    tag_354:\n        /* \"#utility.yul\":758:761   */\n      dup3\n        /* \"#utility.yul\":751:788   */\n      mstore\n        /* \"#utility.yul\":676:794   */\n      pop\n      pop\n      jump\t// out\n        /* \"#utility.yul\":800:1022   */\n    tag_25:\n        /* \"#utility.yul\":893:897   */\n      0x00\n        /* \"#utility.yul\":931:933   */\n      0x20\n        /* \"#utility.yul\":920:929   */\n      dup3\n        /* \"#utility.yul\":916:934   */\n      add\n        /* \"#utility.yul\":908:934   */\n      swap1\n      pop\n        /* \"#utility.yul\":944:1015   */\n      tag_356\n        /* \"#utility.yul\":1012:1013   */\n      0x00\n        /* \"#utility.yul\":1001:1010   */\n      dup4\n        /* \"#utility.yul\":997:1014   */\n      add\n        /* \"#utility.yul\":988:994   */\n      dup5\n        /* \"#utility.yul\":944:1015   */\n      tag_304\n      jump\t// in\n    tag_356:\n        /* \"#utility.yul\":800:1022   */\n      swap3\n      swap2\n      pop\n      pop\n      jump\t// out\n        /* \"#utility.yul\":1109:1226   */\n    tag_306:\n        /* \"#utility.yul\":1218:1219   */\n      0x00\n        /* \"#utility.yul\":1215:1216   */\n      dup1\n        /* \"#utility.yul\":1208:1220   */\n      revert\n        /* \"#utility.yul\":1355:1477   */\n    tag_308:\n        /* \"#utility.yul\":1428:1452   */\n      tag_361\n        /* \"#utility.yul\":1446:1451   */\n      dup2\n        /* \"#utility.yul\":1428:1452   */\n      tag_301\n      jump\t// in\n    tag_361:\n        /* \"#utility.yul\":1421:1426   */\n      dup2\n        /* \"#utility.yul\":1418:1453   */\n      eq\n        /* \"#utility.yul\":1408:1471   */\n      tag_362\n      jumpi\n        /* \"#utility.yul\":1467:1468   */\n      0x00\n        /* \"#utility.yul\":1464:1465   */\n      dup1\n        /* \"#utility.yul\":1457:1469   */\n      revert\n        /* \"#utility.yul\":1408:1471   */\n    tag_362:\n        /* \"#utility.yul\":1355:1477   */\n      pop\n      jump\t// out\n        /* \"#utility.yul\":1483:1622   */\n    tag_309:\n        /* \"#utility.yul\":1529:1534   */\n      0x00\n        /* \"#utility.yul\":1567:1573   */\n      dup2\n        /* \"#utility.yul\":1554:1574   */\n      calldataload\n        /* \"#utility.yul\":1545:1574   */\n      swap1\n      pop\n        /* \"#utility.yul\":1583:1616   */\n      tag_364\n        /* \"#utility.yul\":1610:1615   */\n      dup2\n        /* \"#utility.yul\":1583:1616   */\n      tag_308\n      jump\t// in\n    tag_364:\n        /* \"#utility.yul\":1483:1622   */\n      swap3\n      swap2\n      pop\n      pop\n      jump\t// out\n        /* \"#utility.yul\":1628:1750   */\n    tag_310:\n        /* \"#utility.yul\":1701:1725   */\n      tag_366\n        /* \"#utility.yul\":1719:1724   */\n      dup2\n        /* \"#utility.yul\":1701:1725   */\n      tag_303\n      jump\t// in\n    tag_366:\n        /* \"#utility.yul\":1694:1699   */\n      dup2\n        /* \"#utility.yul\":1691:1726   */\n      eq\n        /* \"#utility.yul\":1681:1744   */\n      tag_367\n      jumpi\n        /* \"#utility.yul\":1740:1741   */\n      0x00\n        /* \"#utility.yul\":1737:1738   */\n      dup1\n        /* \"#utility.yul\":1730:1742   */\n      revert\n        /* \"#utility.yul\":1681:1744   */\n    tag_367:\n        /* \"#utility.yul\":1628:1750   */\n      pop\n      jump\t// out\n        /* \"#utility.yul\":1756:1895   */\n    tag_311:\n        /* \"#utility.yul\":1802:1807   */\n      0x00\n        /* \"#utility.yul\":1840:1846   */\n      dup2\n        /* \"#utility.yul\":1827:1847   */\n      calldataload\n        /* \"#utility.yul\":1818:1847   */\n      swap1\n      pop\n        /* \"#utility.yul\":1856:1889   */\n      tag_369\n        /* \"#utility.yul\":1883:1888   */\n      dup2\n        /* \"#utility.yul\":1856:1889   */\n      tag_310\n      jump\t// in\n    tag_369:\n        /* \"#utility.yul\":1756:1895   */\n      swap3\n      swap2\n      pop\n      pop\n      jump\t// out\n        /* \"#utility.yul\":1901:2666   */\n    tag_40:\n        /* \"#utility.yul\":1987:1993   */\n      0x00\n        /* \"#utility.yul\":1995:2001   */\n      dup1\n        /* \"#utility.yul\":2003:2009   */\n      0x00\n        /* \"#utility.yul\":2011:2017   */\n      dup1\n        /* \"#utility.yul\":2060:2063   */\n      0x80\n        /* \"#utility.yul\":2048:2057   */\n      dup6\n        /* \"#utility.yul\":2039:2046   */\n      dup8\n        /* \"#utility.yul\":2035:2058   */\n      sub\n        /* \"#utility.yul\":2031:2064   */\n      slt\n        /* \"#utility.yul\":2028:2148   */\n      iszero\n      tag_371\n      jumpi\n        /* \"#utility.yul\":2067:2146   */\n      tag_372\n      tag_306\n      jump\t// in\n    tag_372:\n        /* \"#utility.yul\":2028:2148   */\n    tag_371:\n        /* \"#utility.yul\":2187:2188   */\n      0x00\n        /* \"#utility.yul\":2212:2265   */\n      tag_373\n        /* \"#utility.yul\":2257:2264   */\n      dup8\n        /* \"#utility.yul\":2248:2254   */\n      dup3\n        /* \"#utility.yul\":2237:2246   */\n      dup9\n        /* \"#utility.yul\":2233:2255   */\n      add\n        /* \"#utility.yul\":2212:2265   */\n      tag_309\n      jump\t// in\n    tag_373:\n        /* \"#utility.yul\":2202:2265   */\n      swap5\n      pop\n        /* \"#utility.yul\":2158:2275   */\n      pop\n        /* \"#utility.yul\":2314:2316   */\n      0x20\n        /* \"#utility.yul\":2340:2393   */\n      tag_374\n        /* \"#utility.yul\":2385:2392   */\n      dup8\n        /* \"#utility.yul\":2376:2382   */\n      dup3\n        /* \"#utility.yul\":2365:2374   */\n      dup9\n        /* \"#utility.yul\":2361:2383   */\n      add\n        /* \"#utility.yul\":2340:2393   */\n      tag_309\n      jump\t// in\n    tag_374:\n        /* \"#utility.yul\":2330:2393   */\n      swap4\n      pop\n        /* \"#utility.yul\":2285:2403   */\n      pop\n        /* \"#utility.yul\":2442:2444   */\n      0x40\n        /* \"#utility.yul\":2468:2521   */\n      tag_375\n        /* \"#utility.yul\":2513:2520   */\n      dup8\n        /* \"#utility.yul\":2504:2510   */\n      dup3\n        /* \"#utility.yul\":2493:2502   */\n      dup9\n        /* \"#utility.yul\":2489:2511   */\n      add\n        /* \"#utility.yul\":2468:2521   */\n      tag_311\n      jump\t// in\n    tag_375:\n        /* \"#utility.yul\":2458:2521   */\n      swap3\n      pop\n        /* \"#utility.yul\":2413:2531   */\n      pop\n        /* \"#utility.yul\":2570:2572   */\n      0x60\n        /* \"#utility.yul\":2596:2649   */\n      tag_376\n        /* \"#utility.yul\":2641:2648   */\n      dup8\n        /* \"#utility.yul\":2632:2638   */\n      dup3\n        /* \"#utility.yul\":2621:2630   */\n      dup9\n        /* \"#utility.yul\":2617:2639   */\n      add\n        /* \"#utility.yul\":2596:2649   */\n      tag_311\n      jump\t// in\n    tag_376:\n        /* \"#utility.yul\":2586:2649   */\n      swap2\n      pop\n        /* \"#utility.yul\":2541:2659   */\n      pop\n        /* \"#utility.yul\":1901:2666   */\n      swap3\n      swap6\n      swap2\n      swap5\n      pop\n      swap3\n      pop\n      jump\t// out\n        /* \"#utility.yul\":2672:2762   */\n    tag_312:\n        /* \"#utility.yul\":2706:2713   */\n      0x00\n        /* \"#utility.yul\":2749:2754   */\n      dup2\n        /* \"#utility.yul\":2742:2755   */\n      iszero\n        /* \"#utility.yul\":2735:2756   */\n      iszero\n        /* \"#utility.yul\":2724:2756   */\n      swap1\n      pop\n        /* \"#utility.yul\":2672:2762   */\n      swap2\n      swap1\n      pop\n      jump\t// out\n        /* \"#utility.yul\":2768:2877   */\n    tag_313:\n        /* \"#utility.yul\":2849:2870   */\n      tag_379\n        /* \"#utility.yul\":2864:2869   */\n      dup2\n        /* \"#utility.yul\":2849:2870   */\n      tag_312\n      jump\t// in\n    tag_379:\n        /* \"#utility.yul\":2844:2847   */\n      dup3\n        /* \"#utility.yul\":2837:2871   */\n      mstore\n        /* \"#utility.yul\":2768:2877   */\n      pop\n      pop\n      jump\t// out\n        /* \"#utility.yul\":2883:3093   */\n    tag_43:\n        /* \"#utility.yul\":2970:2974   */\n      0x00\n        /* \"#utility.yul\":3008:3010   */\n      0x20\n        /* \"#utility.yul\":2997:3006   */\n      dup3\n        /* \"#utility.yul\":2993:3011   */\n      add\n        /* \"#utility.yul\":2985:3011   */\n      swap1\n      pop\n        /* \"#utility.yul\":3021:3086   */\n      tag_381\n        /* \"#utility.yul\":3083:3084   */\n      0x00\n        /* \"#utility.yul\":3072:3081   */\n      dup4\n        /* \"#utility.yul\":3068:3085   */\n      add\n        /* \"#utility.yul\":3059:3065   */\n      dup5\n        /* \"#utility.yul\":3021:3086   */\n      tag_313\n      jump\t// in\n    tag_381:\n        /* \"#utility.yul\":2883:3093   */\n      swap3\n      swap2\n      pop\n      pop\n      jump\t// out\n        /* \"#utility.yul\":3099:4010   */\n    tag_49:\n        /* \"#utility.yul\":3194:3200   */\n      0x00\n        /* \"#utility.yul\":3202:3208   */\n      dup1\n        /* \"#utility.yul\":3210:3216   */\n      0x00\n        /* \"#utility.yul\":3218:3224   */\n      dup1\n        /* \"#utility.yul\":3226:3232   */\n      0x00\n        /* \"#utility.yul\":3275:3278   */\n      0xa0\n        /* \"#utility.yul\":3263:3272   */\n      dup7\n        /* \"#utility.yul\":3254:3261   */\n      dup9\n        /* \"#utility.yul\":3250:3273   */\n      sub\n        /* \"#utility.yul\":3246:3279   */\n      slt\n        /* \"#utility.yul\":3243:3363   */\n      iszero\n      tag_383\n      jumpi\n        /* \"#utility.yul\":3282:3361   */\n      tag_384\n      tag_306\n      jump\t// in\n    tag_384:\n        /* \"#utility.yul\":3243:3363   */\n    tag_383:\n        /* \"#utility.yul\":3402:3403   */\n      0x00\n        /* \"#utility.yul\":3427:3480   */\n      tag_385\n        /* \"#utility.yul\":3472:3479   */\n      dup9\n        /* \"#utility.yul\":3463:3469   */\n      dup3\n        /* \"#utility.yul\":3452:3461   */\n      dup10\n        /* \"#utility.yul\":3448:3470   */\n      add\n        /* \"#utility.yul\":3427:3480   */\n      tag_309\n      jump\t// in\n    tag_385:\n        /* \"#utility.yul\":3417:3480   */\n      swap6\n      pop\n        /* \"#utility.yul\":3373:3490   */\n      pop\n        /* \"#utility.yul\":3529:3531   */\n      0x20\n        /* \"#utility.yul\":3555:3608   */\n      tag_386\n        /* \"#utility.yul\":3600:3607   */\n      dup9\n        /* \"#utility.yul\":3591:3597   */\n      dup3\n        /* \"#utility.yul\":3580:3589   */\n      dup10\n        /* \"#utility.yul\":3576:3598   */\n      add\n        /* \"#utility.yul\":3555:3608   */\n      tag_309\n      jump\t// in\n    tag_386:\n        /* \"#utility.yul\":3545:3608   */\n      swap5\n      pop\n        /* \"#utility.yul\":3500:3618   */\n      pop\n        /* \"#utility.yul\":3657:3659   */\n      0x40\n        /* \"#utility.yul\":3683:3736   */\n      tag_387\n        /* \"#utility.yul\":3728:3735   */\n      dup9\n        /* \"#utility.yul\":3719:3725   */\n      dup3\n        /* \"#utility.yul\":3708:3717   */\n      dup10\n        /* \"#utility.yul\":3704:3726   */\n      add\n        /* \"#utility.yul\":3683:3736   */\n      tag_309\n      jump\t// in\n    tag_387:\n        /* \"#utility.yul\":3673:3736   */\n      swap4\n      pop\n        /* \"#utility.yul\":3628:3746   */\n      pop\n        /* \"#utility.yul\":3785:3787   */\n      0x60\n        /* \"#utility.yul\":3811:3864   */\n      tag_388\n        /* \"#utility.yul\":3856:3863   */\n      dup9\n        /* \"#utility.yul\":3847:3853   */\n      dup3\n        /* \"#utility.yul\":3836:3845   */\n      dup10\n        /* \"#utility.yul\":3832:3854   */\n      add\n        /* \"#utility.yul\":3811:3864   */\n      tag_311\n      jump\t// in\n    tag_388:\n        /* \"#utility.yul\":3801:3864   */\n      swap3\n      pop\n        /* \"#utility.yul\":3756:3874   */\n      pop\n        /* \"#utility.yul\":3913:3916   */\n      0x80\n        /* \"#utility.yul\":3940:3993   */\n      tag_389\n        /* \"#utility.yul\":3985:3992   */\n      dup9\n        /* \"#utility.yul\":3976:3982   */\n      dup3\n        /* \"#utility.yul\":3965:3974   */\n      dup10\n        /* \"#utility.yul\":3961:3983   */\n      add\n        /* \"#utility.yul\":3940:3993   */\n      tag_311\n      jump\t// in\n    tag_389:\n        /* \"#utility.yul\":3930:3993   */\n      swap2\n      pop\n        /* \"#utility.yul\":3884:4003   */\n      pop\n        /* \"#utility.yul\":3099:4010   */\n      swap3\n      swap6\n      pop\n      swap3\n      swap6\n      swap1\n      swap4\n      pop\n      jump\t// out\n        /* \"#utility.yul\":4016:5073   */\n    tag_63:\n        /* \"#utility.yul\":4120:4126   */\n      0x00\n        /* \"#utility.yul\":4128:4134   */\n      dup1\n        /* \"#utility.yul\":4136:4142   */\n      0x00\n        /* \"#utility.yul\":4144:4150   */\n      dup1\n        /* \"#utility.yul\":4152:4158   */\n      0x00\n        /* \"#utility.yul\":4160:4166   */\n      dup1\n        /* \"#utility.yul\":4209:4212   */\n      0xc0\n        /* \"#utility.yul\":4197:4206   */\n      dup8\n        /* \"#utility.yul\":4188:4195   */\n      dup10\n        /* \"#utility.yul\":4184:4207   */\n      sub\n        /* \"#utility.yul\":4180:4213   */\n      slt\n        /* \"#utility.yul\":4177:4297   */\n      iszero\n      tag_391\n      jumpi\n        /* \"#utility.yul\":4216:4295   */\n      tag_392\n      tag_306\n      jump\t// in\n    tag_392:\n        /* \"#utility.yul\":4177:4297   */\n    tag_391:\n        /* \"#utility.yul\":4336:4337   */\n      0x00\n        /* \"#utility.yul\":4361:4414   */\n      tag_393\n        /* \"#utility.yul\":4406:4413   */\n      dup10\n        /* \"#utility.yul\":4397:4403   */\n      dup3\n        /* \"#utility.yul\":4386:4395   */\n      dup11\n        /* \"#utility.yul\":4382:4404   */\n      add\n        /* \"#utility.yul\":4361:4414   */\n      tag_309\n      jump\t// in\n    tag_393:\n        /* \"#utility.yul\":4351:4414   */\n      swap7\n      pop\n        /* \"#utility.yul\":4307:4424   */\n      pop\n        /* \"#utility.yul\":4463:4465   */\n      0x20\n        /* \"#utility.yul\":4489:4542   */\n      tag_394\n        /* \"#utility.yul\":4534:4541   */\n      dup10\n        /* \"#utility.yul\":4525:4531   */\n      dup3\n        /* \"#utility.yul\":4514:4523   */\n      dup11\n        /* \"#utility.yul\":4510:4532   */\n      add\n        /* \"#utility.yul\":4489:4542   */\n      tag_309\n      jump\t// in\n    tag_394:\n        /* \"#utility.yul\":4479:4542   */\n      swap6\n      pop\n        /* \"#utility.yul\":4434:4552   */\n      pop\n        /* \"#utility.yul\":4591:4593   */\n      0x40\n        /* \"#utility.yul\":4617:4670   */\n      tag_395\n        /* \"#utility.yul\":4662:4669   */\n      dup10\n        /* \"#utility.yul\":4653:4659   */\n      dup3\n        /* \"#utility.yul\":4642:4651   */\n      dup11\n        /* \"#utility.yul\":4638:4660   */\n      add\n        /* \"#utility.yul\":4617:4670   */\n      tag_309\n      jump\t// in\n    tag_395:\n        /* \"#utility.yul\":4607:4670   */\n      swap5\n      pop\n        /* \"#utility.yul\":4562:4680   */\n      pop\n        /* \"#utility.yul\":4719:4721   */\n      0x60\n        /* \"#utility.yul\":4745:4798   */\n      tag_396\n        /* \"#utility.yul\":4790:4797   */\n      dup10\n        /* \"#utility.yul\":4781:4787   */\n      dup3\n        /* \"#utility.yul\":4770:4779   */\n      dup11\n        /* \"#utility.yul\":4766:4788   */\n      add\n        /* \"#utility.yul\":4745:4798   */\n      tag_311\n      jump\t// in\n    tag_396:\n        /* \"#utility.yul\":4735:4798   */\n      swap4\n      pop\n        /* \"#utility.yul\":4690:4808   */\n      pop\n        /* \"#utility.yul\":4847:4850   */\n      0x80\n        /* \"#utility.yul\":4874:4927   */\n      tag_397\n        /* \"#utility.yul\":4919:4926   */\n      dup10\n        /* \"#utility.yul\":4910:4916   */\n      dup3\n        /* \"#utility.yul\":4899:4908   */\n      dup11\n        /* \"#utility.yul\":4895:4917   */\n      add\n        /* \"#utility.yul\":4874:4927   */\n      tag_311\n      jump\t// in\n    tag_397:\n        /* \"#utility.yul\":4864:4927   */\n      swap3\n      pop\n        /* \"#utility.yul\":4818:4937   */\n      pop\n        /* \"#utility.yul\":4976:4979   */\n      0xa0\n        /* \"#utility.yul\":5003:5056   */\n      tag_398\n        /* \"#utility.yul\":5048:5055   */\n      dup10\n        /* \"#utility.yul\":5039:5045   */\n      dup3\n        /* \"#utility.yul\":5028:5037   */\n      dup11\n        /* \"#utility.yul\":5024:5046   */\n      add\n        /* \"#utility.yul\":5003:5056   */\n      tag_311\n      jump\t// in\n    tag_398:\n        /* \"#utility.yul\":4993:5056   */\n      swap2\n      pop\n        /* \"#utility.yul\":4947:5066   */\n      pop\n        /* \"#utility.yul\":4016:5073   */\n      swap3\n      swap6\n      pop\n      swap3\n      swap6\n      pop\n      swap3\n      swap6\n      jump\t// out\n        /* \"#utility.yul\":5079:5248   */\n    tag_314:\n        /* \"#utility.yul\":5163:5174   */\n      0x00\n        /* \"#utility.yul\":5197:5203   */\n      dup3\n        /* \"#utility.yul\":5192:5195   */\n      dup3\n        /* \"#utility.yul\":5185:5204   */\n      mstore\n        /* \"#utility.yul\":5237:5241   */\n      0x20\n        /* \"#utility.yul\":5232:5235   */\n      dup3\n        /* \"#utility.yul\":5228:5242   */\n      add\n        /* \"#utility.yul\":5213:5242   */\n      swap1\n      pop\n        /* \"#utility.yul\":5079:5248   */\n      swap3\n      swap2\n      pop\n      pop\n      jump\t// out\n        /* \"#utility.yul\":5254:5420   */\n    tag_315:\n        /* \"#utility.yul\":5394:5412   */\n      0x4e6f742075736564206164647265737300000000000000000000000000000000\n        /* \"#utility.yul\":5390:5391   */\n      0x00\n        /* \"#utility.yul\":5382:5388   */\n      dup3\n        /* \"#utility.yul\":5378:5392   */\n      add\n        /* \"#utility.yul\":5371:5413   */\n      mstore\n        /* \"#utility.yul\":5254:5420   */\n      pop\n      jump\t// out\n        /* \"#utility.yul\":5426:5792   */\n    tag_316:\n        /* \"#utility.yul\":5568:5571   */\n      0x00\n        /* \"#utility.yul\":5589:5656   */\n      tag_402\n        /* \"#utility.yul\":5653:5655   */\n      0x10\n        /* \"#utility.yul\":5648:5651   */\n      dup4\n        /* \"#utility.yul\":5589:5656   */\n      tag_314\n      jump\t// in\n    tag_402:\n        /* \"#utility.yul\":5582:5656   */\n      swap2\n      pop\n        /* \"#utility.yul\":5665:5758   */\n      tag_403\n        /* \"#utility.yul\":5754:5757   */\n      dup3\n        /* \"#utility.yul\":5665:5758   */\n      tag_315\n      jump\t// in\n    tag_403:\n        /* \"#utility.yul\":5783:5785   */\n      0x20\n        /* \"#utility.yul\":5778:5781   */\n      dup3\n        /* \"#utility.yul\":5774:5786   */\n      add\n        /* \"#utility.yul\":5767:5786   */\n      swap1\n      pop\n        /* \"#utility.yul\":5426:5792   */\n      swap2\n      swap1\n      pop\n      jump\t// out\n        /* \"#utility.yul\":5798:6217   */\n    tag_72:\n        /* \"#utility.yul\":5964:5968   */\n      0x00\n        /* \"#utility.yul\":6002:6004   */\n      0x20\n        /* \"#utility.yul\":5991:6000   */\n      dup3\n        /* \"#utility.yul\":5987:6005   */\n      add\n        /* \"#utility.yul\":5979:6005   */\n      swap1\n      pop\n        /* \"#utility.yul\":6051:6060   */\n      dup2\n        /* \"#utility.yul\":6045:6049   */\n      dup2\n        /* \"#utility.yul\":6041:6061   */\n      sub\n        /* \"#utility.yul\":6037:6038   */\n      0x00\n        /* \"#utility.yul\":6026:6035   */\n      dup4\n        /* \"#utility.yul\":6022:6039   */\n      add\n        /* \"#utility.yul\":6015:6062   */\n      mstore\n        /* \"#utility.yul\":6079:6210   */\n      tag_405\n        /* \"#utility.yul\":6205:6209   */\n      dup2\n        /* \"#utility.yul\":6079:6210   */\n      tag_316\n      jump\t// in\n    tag_405:\n        /* \"#utility.yul\":6071:6210   */\n      swap1\n      pop\n        /* \"#utility.yul\":5798:6217   */\n      swap2\n      swap1\n      pop\n      jump\t// out\n        /* \"#utility.yul\":6223:6382   */\n    tag_317:\n        /* \"#utility.yul\":6363:6374   */\n      0x4e6f7420657175616c0000000000000000000000000000000000000000000000\n        /* \"#utility.yul\":6359:6360   */\n      0x00\n        /* \"#utility.yul\":6351:6357   */\n      dup3\n        /* \"#utility.yul\":6347:6361   */\n      add\n        /* \"#utility.yul\":6340:6375   */\n      mstore\n        /* \"#utility.yul\":6223:6382   */\n      pop\n      jump\t// out\n        /* \"#utility.yul\":6388:6753   */\n    tag_318:\n        /* \"#utility.yul\":6530:6533   */\n      0x00\n        /* \"#utility.yul\":6551:6617   */\n      tag_408\n        /* \"#utility.yul\":6615:6616   */\n      0x09\n        /* \"#utility.yul\":6610:6613   */\n      dup4\n        /* \"#utility.yul\":6551:6617   */\n      tag_314\n      jump\t// in\n    tag_408:\n        /* \"#utility.yul\":6544:6617   */\n      swap2\n      pop\n        /* \"#utility.yul\":6626:6719   */\n      tag_409\n        /* \"#utility.yul\":6715:6718   */\n      dup3\n        /* \"#utility.yul\":6626:6719   */\n      tag_317\n      jump\t// in\n    tag_409:\n        /* \"#utility.yul\":6744:6746   */\n      0x20\n        /* \"#utility.yul\":6739:6742   */\n      dup3\n        /* \"#utility.yul\":6735:6747   */\n      add\n        /* \"#utility.yul\":6728:6747   */\n      swap1\n      pop\n        /* \"#utility.yul\":6388:6753   */\n      swap2\n      swap1\n      pop\n      jump\t// out\n        /* \"#utility.yul\":6759:7178   */\n    tag_75:\n        /* \"#utility.yul\":6925:6929   */\n      0x00\n        /* \"#utility.yul\":6963:6965   */\n      0x20\n        /* \"#utility.yul\":6952:6961   */\n      dup3\n        /* \"#utility.yul\":6948:6966   */\n      add\n        /* \"#utility.yul\":6940:6966   */\n      swap1\n      pop\n        /* \"#utility.yul\":7012:7021   */\n      dup2\n        /* \"#utility.yul\":7006:7010   */\n      dup2\n        /* \"#utility.yul\":7002:7022   */\n      sub\n        /* \"#utility.yul\":6998:6999   */\n      0x00\n        /* \"#utility.yul\":6987:6996   */\n      dup4\n        /* \"#utility.yul\":6983:7000   */\n      add\n        /* \"#utility.yul\":6976:7023   */\n      mstore\n        /* \"#utility.yul\":7040:7171   */\n      tag_411\n        /* \"#utility.yul\":7166:7170   */\n      dup2\n        /* \"#utility.yul\":7040:7171   */\n      tag_318\n      jump\t// in\n    tag_411:\n        /* \"#utility.yul\":7032:7171   */\n      swap1\n      pop\n        /* \"#utility.yul\":6759:7178   */\n      swap2\n      swap1\n      pop\n      jump\t// out\n        /* \"#utility.yul\":7184:7327   */\n    tag_319:\n        /* \"#utility.yul\":7241:7246   */\n      0x00\n        /* \"#utility.yul\":7272:7278   */\n      dup2\n        /* \"#utility.yul\":7266:7279   */\n      mload\n        /* \"#utility.yul\":7257:7279   */\n      swap1\n      pop\n        /* \"#utility.yul\":7288:7321   */\n      tag_413\n        /* \"#utility.yul\":7315:7320   */\n      dup2\n        /* \"#utility.yul\":7288:7321   */\n      tag_310\n      jump\t// in\n    tag_413:\n        /* \"#utility.yul\":7184:7327   */\n      swap3\n      swap2\n      pop\n      pop\n      jump\t// out\n        /* \"#utility.yul\":7333:7684   */\n    tag_83:\n        /* \"#utility.yul\":7403:7409   */\n      0x00\n        /* \"#utility.yul\":7452:7454   */\n      0x20\n        /* \"#utility.yul\":7440:7449   */\n      dup3\n        /* \"#utility.yul\":7431:7438   */\n      dup5\n        /* \"#utility.yul\":7427:7450   */\n      sub\n        /* \"#utility.yul\":7423:7455   */\n      slt\n        /* \"#utility.yul\":7420:7539   */\n      iszero\n      tag_415\n      jumpi\n        /* \"#utility.yul\":7458:7537   */\n      tag_416\n      tag_306\n      jump\t// in\n    tag_416:\n        /* \"#utility.yul\":7420:7539   */\n    tag_415:\n        /* \"#utility.yul\":7578:7579   */\n      0x00\n        /* \"#utility.yul\":7603:7667   */\n      tag_417\n        /* \"#utility.yul\":7659:7666   */\n      dup5\n        /* \"#utility.yul\":7650:7656   */\n      dup3\n        /* \"#utility.yul\":7639:7648   */\n      dup6\n        /* \"#utility.yul\":7635:7657   */\n      add\n        /* \"#utility.yul\":7603:7667   */\n      tag_319\n      jump\t// in\n    tag_417:\n        /* \"#utility.yul\":7593:7667   */\n      swap2\n      pop\n        /* \"#utility.yul\":7549:7677   */\n      pop\n        /* \"#utility.yul\":7333:7684   */\n      swap3\n      swap2\n      pop\n      pop\n      jump\t// out\n        /* \"#utility.yul\":7690:7870   */\n    tag_320:\n        /* \"#utility.yul\":7738:7815   */\n      0x4e487b7100000000000000000000000000000000000000000000000000000000\n        /* \"#utility.yul\":7735:7736   */\n      0x00\n        /* \"#utility.yul\":7728:7816   */\n      mstore\n        /* \"#utility.yul\":7835:7839   */\n      0x11\n        /* \"#utility.yul\":7832:7833   */\n      0x04\n        /* \"#utility.yul\":7825:7840   */\n      mstore\n        /* \"#utility.yul\":7859:7863   */\n      0x24\n        /* \"#utility.yul\":7856:7857   */\n      0x00\n        /* \"#utility.yul\":7849:7864   */\n      revert\n        /* \"#utility.yul\":7876:8067   */\n    tag_91:\n        /* \"#utility.yul\":7916:7920   */\n      0x00\n        /* \"#utility.yul\":7936:7956   */\n      tag_420\n        /* \"#utility.yul\":7954:7955   */\n      dup3\n        /* \"#utility.yul\":7936:7956   */\n      tag_303\n      jump\t// in\n    tag_420:\n        /* \"#utility.yul\":7931:7956   */\n      swap2\n      pop\n        /* \"#utility.yul\":7970:7990   */\n      tag_421\n        /* \"#utility.yul\":7988:7989   */\n      dup4\n        /* \"#utility.yul\":7970:7990   */\n      tag_303\n      jump\t// in\n    tag_421:\n        /* \"#utility.yul\":7965:7990   */\n      swap3\n      pop\n        /* \"#utility.yul\":8009:8010   */\n      dup3\n        /* \"#utility.yul\":8006:8007   */\n      dup3\n        /* \"#utility.yul\":8003:8011   */\n      lt\n        /* \"#utility.yul\":8000:8034   */\n      iszero\n      tag_422\n      jumpi\n        /* \"#utility.yul\":8014:8032   */\n      tag_423\n      tag_320\n      jump\t// in\n    tag_423:\n        /* \"#utility.yul\":8000:8034   */\n    tag_422:\n        /* \"#utility.yul\":8059:8060   */\n      dup3\n        /* \"#utility.yul\":8056:8057   */\n      dup3\n        /* \"#utility.yul\":8052:8061   */\n      sub\n        /* \"#utility.yul\":8044:8061   */\n      swap1\n      pop\n        /* \"#utility.yul\":7876:8067   */\n      swap3\n      swap2\n      pop\n      pop\n      jump\t// out\n        /* \"#utility.yul\":8073:8421   */\n    tag_94:\n        /* \"#utility.yul\":8113:8120   */\n      0x00\n        /* \"#utility.yul\":8136:8156   */\n      tag_425\n        /* \"#utility.yul\":8154:8155   */\n      dup3\n        /* \"#utility.yul\":8136:8156   */\n      tag_303\n      jump\t// in\n    tag_425:\n        /* \"#utility.yul\":8131:8156   */\n      swap2\n      pop\n        /* \"#utility.yul\":8170:8190   */\n      tag_426\n        /* \"#utility.yul\":8188:8189   */\n      dup4\n        /* \"#utility.yul\":8170:8190   */\n      tag_303\n      jump\t// in\n    tag_426:\n        /* \"#utility.yul\":8165:8190   */\n      swap3\n      pop\n        /* \"#utility.yul\":8358:8359   */\n      dup2\n        /* \"#utility.yul\":8290:8356   */\n      0xffffffffffffffffffffffffffffffffffffffffffffffffffffffffffffffff\n        /* \"#utility.yul\":8286:8360   */\n      div\n        /* \"#utility.yul\":8283:8284   */\n      dup4\n        /* \"#utility.yul\":8280:8361   */\n      gt\n        /* \"#utility.yul\":8275:8276   */\n      dup3\n        /* \"#utility.yul\":8268:8277   */\n      iszero\n        /* \"#utility.yul\":8261:8278   */\n      iszero\n        /* \"#utility.yul\":8257:8362   */\n      and\n        /* \"#utility.yul\":8254:8385   */\n      iszero\n      tag_427\n      jumpi\n        /* \"#utility.yul\":8365:8383   */\n      tag_428\n      tag_320\n      jump\t// in\n    tag_428:\n        /* \"#utility.yul\":8254:8385   */\n    tag_427:\n        /* \"#utility.yul\":8413:8414   */\n      dup3\n        /* \"#utility.yul\":8410:8411   */\n      dup3\n        /* \"#utility.yul\":8406:8415   */\n      mul\n        /* \"#utility.yul\":8395:8415   */\n      swap1\n      pop\n        /* \"#utility.yul\":8073:8421   */\n      swap3\n      swap2\n      pop\n      pop\n      jump\t// out\n        /* \"#utility.yul\":8427:8592   */\n    tag_321:\n        /* \"#utility.yul\":8567:8584   */\n      0x4d696e7573206c69717569646974790000000000000000000000000000000000\n        /* \"#utility.yul\":8563:8564   */\n      0x00\n        /* \"#utility.yul\":8555:8561   */\n      dup3\n        /* \"#utility.yul\":8551:8565   */\n      add\n        /* \"#utility.yul\":8544:8585   */\n      mstore\n        /* \"#utility.yul\":8427:8592   */\n      pop\n      jump\t// out\n        /* \"#utility.yul\":8598:8964   */\n    tag_322:\n        /* \"#utility.yul\":8740:8743   */\n      0x00\n        /* \"#utility.yul\":8761:8828   */\n      tag_431\n        /* \"#utility.yul\":8825:8827   */\n      0x0f\n        /* \"#utility.yul\":8820:8823   */\n      dup4\n        /* \"#utility.yul\":8761:8828   */\n      tag_314\n      jump\t// in\n    tag_431:\n        /* \"#utility.yul\":8754:8828   */\n      swap2\n      pop\n        /* \"#utility.yul\":8837:8930   */\n      tag_432\n        /* \"#utility.yul\":8926:8929   */\n      dup3\n        /* \"#utility.yul\":8837:8930   */\n      tag_321\n      jump\t// in\n    tag_432:\n        /* \"#utility.yul\":8955:8957   */\n      0x20\n        /* \"#utility.yul\":8950:8953   */\n      dup3\n        /* \"#utility.yul\":8946:8958   */\n      add\n        /* \"#utility.yul\":8939:8958   */\n      swap1\n      pop\n        /* \"#utility.yul\":8598:8964   */\n      swap2\n      swap1\n      pop\n      jump\t// out\n        /* \"#utility.yul\":8970:9389   */\n    tag_99:\n        /* \"#utility.yul\":9136:9140   */\n      0x00\n        /* \"#utility.yul\":9174:9176   */\n      0x20\n        /* \"#utility.yul\":9163:9172   */\n      dup3\n        /* \"#utility.yul\":9159:9177   */\n      add\n        /* \"#utility.yul\":9151:9177   */\n      swap1\n      pop\n        /* \"#utility.yul\":9223:9232   */\n      dup2\n        /* \"#utility.yul\":9217:9221   */\n      dup2\n        /* \"#utility.yul\":9213:9233   */\n      sub\n        /* \"#utility.yul\":9209:9210   */\n      0x00\n        /* \"#utility.yul\":9198:9207   */\n      dup4\n        /* \"#utility.yul\":9194:9211   */\n      add\n        /* \"#utility.yul\":9187:9234   */\n      mstore\n        /* \"#utility.yul\":9251:9382   */\n      tag_434\n        /* \"#utility.yul\":9377:9381   */\n      dup2\n        /* \"#utility.yul\":9251:9382   */\n      tag_322\n      jump\t// in\n    tag_434:\n        /* \"#utility.yul\":9243:9382   */\n      swap1\n      pop\n        /* \"#utility.yul\":8970:9389   */\n      swap2\n      swap1\n      pop\n      jump\t// out\n        /* \"#utility.yul\":9395:9575   */\n    tag_323:\n        /* \"#utility.yul\":9443:9520   */\n      0x4e487b7100000000000000000000000000000000000000000000000000000000\n        /* \"#utility.yul\":9440:9441   */\n      0x00\n        /* \"#utility.yul\":9433:9521   */\n      mstore\n        /* \"#utility.yul\":9540:9544   */\n      0x12\n        /* \"#utility.yul\":9537:9538   */\n      0x04\n        /* \"#utility.yul\":9530:9545   */\n      mstore\n        /* \"#utility.yul\":9564:9568   */\n      0x24\n        /* \"#utility.yul\":9561:9562   */\n      0x00\n        /* \"#utility.yul\":9554:9569   */\n      revert\n        /* \"#utility.yul\":9581:9766   */\n    tag_109:\n        /* \"#utility.yul\":9621:9622   */\n      0x00\n        /* \"#utility.yul\":9638:9658   */\n      tag_437\n        /* \"#utility.yul\":9656:9657   */\n      dup3\n        /* \"#utility.yul\":9638:9658   */\n      tag_303\n      jump\t// in\n    tag_437:\n        /* \"#utility.yul\":9633:9658   */\n      swap2\n      pop\n        /* \"#utility.yul\":9672:9692   */\n      tag_438\n        /* \"#utility.yul\":9690:9691   */\n      dup4\n        /* \"#utility.yul\":9672:9692   */\n      tag_303\n      jump\t// in\n    tag_438:\n        /* \"#utility.yul\":9667:9692   */\n      swap3\n      pop\n        /* \"#utility.yul\":9711:9712   */\n      dup3\n        /* \"#utility.yul\":9701:9736   */\n      tag_439\n      jumpi\n        /* \"#utility.yul\":9716:9734   */\n      tag_440\n      tag_323\n      jump\t// in\n    tag_440:\n        /* \"#utility.yul\":9701:9736   */\n    tag_439:\n        /* \"#utility.yul\":9758:9759   */\n      dup3\n        /* \"#utility.yul\":9755:9756   */\n      dup3\n        /* \"#utility.yul\":9751:9760   */\n      div\n        /* \"#utility.yul\":9746:9760   */\n      swap1\n      pop\n        /* \"#utility.yul\":9581:9766   */\n      swap3\n      swap2\n      pop\n      pop\n      jump\t// out\n        /* \"#utility.yul\":9772:10077   */\n    tag_118:\n        /* \"#utility.yul\":9812:9815   */\n      0x00\n        /* \"#utility.yul\":9831:9851   */\n      tag_442\n        /* \"#utility.yul\":9849:9850   */\n      dup3\n        /* \"#utility.yul\":9831:9851   */\n      tag_303\n      jump\t// in\n    tag_442:\n        /* \"#utility.yul\":9826:9851   */\n      swap2\n      pop\n        /* \"#utility.yul\":9865:9885   */\n      tag_443\n        /* \"#utility.yul\":9883:9884   */\n      dup4\n        /* \"#utility.yul\":9865:9885   */\n      tag_303\n      jump\t// in\n    tag_443:\n        /* \"#utility.yul\":9860:9885   */\n      swap3\n      pop\n        /* \"#utility.yul\":10019:10020   */\n      dup3\n        /* \"#utility.yul\":9951:10017   */\n      0xffffffffffffffffffffffffffffffffffffffffffffffffffffffffffffffff\n        /* \"#utility.yul\":9947:10021   */\n      sub\n        /* \"#utility.yul\":9944:9945   */\n      dup3\n        /* \"#utility.yul\":9941:10022   */\n      gt\n        /* \"#utility.yul\":9938:10045   */\n      iszero\n      tag_444\n      jumpi\n        /* \"#utility.yul\":10025:10043   */\n      tag_445\n      tag_320\n      jump\t// in\n    tag_445:\n        /* \"#utility.yul\":9938:10045   */\n    tag_444:\n        /* \"#utility.yul\":10069:10070   */\n      dup3\n        /* \"#utility.yul\":10066:10067   */\n      dup3\n        /* \"#utility.yul\":10062:10071   */\n      add\n        /* \"#utility.yul\":10055:10071   */\n      swap1\n      pop\n        /* \"#utility.yul\":9772:10077   */\n      swap3\n      swap2\n      pop\n      pop\n      jump\t// out\n        /* \"#utility.yul\":10083:10636   */\n    tag_130:\n        /* \"#utility.yul\":10260:10264   */\n      0x00\n        /* \"#utility.yul\":10298:10301   */\n      0x80\n        /* \"#utility.yul\":10287:10296   */\n      dup3\n        /* \"#utility.yul\":10283:10302   */\n      add\n        /* \"#utility.yul\":10275:10302   */\n      swap1\n      pop\n        /* \"#utility.yul\":10312:10383   */\n      tag_447\n        /* \"#utility.yul\":10380:10381   */\n      0x00\n        /* \"#utility.yul\":10369:10378   */\n      dup4\n        /* \"#utility.yul\":10365:10382   */\n      add\n        /* \"#utility.yul\":10356:10362   */\n      dup8\n        /* \"#utility.yul\":10312:10383   */\n      tag_302\n      jump\t// in\n    tag_447:\n        /* \"#utility.yul\":10393:10465   */\n      tag_448\n        /* \"#utility.yul\":10461:10463   */\n      0x20\n        /* \"#utility.yul\":10450:10459   */\n      dup4\n        /* \"#utility.yul\":10446:10464   */\n      add\n        /* \"#utility.yul\":10437:10443   */\n      dup7\n        /* \"#utility.yul\":10393:10465   */\n      tag_302\n      jump\t// in\n    tag_448:\n        /* \"#utility.yul\":10475:10547   */\n      tag_449\n        /* \"#utility.yul\":10543:10545   */\n      0x40\n        /* \"#utility.yul\":10532:10541   */\n      dup4\n        /* \"#utility.yul\":10528:10546   */\n      add\n        /* \"#utility.yul\":10519:10525   */\n      dup6\n        /* \"#utility.yul\":10475:10547   */\n      tag_304\n      jump\t// in\n    tag_449:\n        /* \"#utility.yul\":10557:10629   */\n      tag_450\n        /* \"#utility.yul\":10625:10627   */\n      0x60\n        /* \"#utility.yul\":10614:10623   */\n      dup4\n        /* \"#utility.yul\":10610:10628   */\n      add\n        /* \"#utility.yul\":10601:10607   */\n      dup5\n        /* \"#utility.yul\":10557:10629   */\n      tag_304\n      jump\t// in\n    tag_450:\n        /* \"#utility.yul\":10083:10636   */\n      swap6\n      swap5\n      pop\n      pop\n      pop\n      pop\n      pop\n      jump\t// out\n        /* \"#utility.yul\":10642:10803   */\n    tag_324:\n        /* \"#utility.yul\":10782:10795   */\n      0x5a65726f20616d6f756e74000000000000000000000000000000000000000000\n        /* \"#utility.yul\":10778:10779   */\n      0x00\n        /* \"#utility.yul\":10770:10776   */\n      dup3\n        /* \"#utility.yul\":10766:10780   */\n      add\n        /* \"#utility.yul\":10759:10796   */\n      mstore\n        /* \"#utility.yul\":10642:10803   */\n      pop\n      jump\t// out\n        /* \"#utility.yul\":10809:11175   */\n    tag_325:\n        /* \"#utility.yul\":10951:10954   */\n      0x00\n        /* \"#utility.yul\":10972:11039   */\n      tag_453\n        /* \"#utility.yul\":11036:11038   */\n      0x0b\n        /* \"#utility.yul\":11031:11034   */\n      dup4\n        /* \"#utility.yul\":10972:11039   */\n      tag_314\n      jump\t// in\n    tag_453:\n        /* \"#utility.yul\":10965:11039   */\n      swap2\n      pop\n        /* \"#utility.yul\":11048:11141   */\n      tag_454\n        /* \"#utility.yul\":11137:11140   */\n      dup3\n        /* \"#utility.yul\":11048:11141   */\n      tag_324\n      jump\t// in\n    tag_454:\n        /* \"#utility.yul\":11166:11168   */\n      0x20\n        /* \"#utility.yul\":11161:11164   */\n      dup3\n        /* \"#utility.yul\":11157:11169   */\n      add\n        /* \"#utility.yul\":11150:11169   */\n      swap1\n      pop\n        /* \"#utility.yul\":10809:11175   */\n      swap2\n      swap1\n      pop\n      jump\t// out\n        /* \"#utility.yul\":11181:11600   */\n    tag_139:\n        /* \"#utility.yul\":11347:11351   */\n      0x00\n        /* \"#utility.yul\":11385:11387   */\n      0x20\n        /* \"#utility.yul\":11374:11383   */\n      dup3\n        /* \"#utility.yul\":11370:11388   */\n      add\n        /* \"#utility.yul\":11362:11388   */\n      swap1\n      pop\n        /* \"#utility.yul\":11434:11443   */\n      dup2\n        /* \"#utility.yul\":11428:11432   */\n      dup2\n        /* \"#utility.yul\":11424:11444   */\n      sub\n        /* \"#utility.yul\":11420:11421   */\n      0x00\n        /* \"#utility.yul\":11409:11418   */\n      dup4\n        /* \"#utility.yul\":11405:11422   */\n      add\n        /* \"#utility.yul\":11398:11445   */\n      mstore\n        /* \"#utility.yul\":11462:11593   */\n      tag_456\n        /* \"#utility.yul\":11588:11592   */\n      dup2\n        /* \"#utility.yul\":11462:11593   */\n      tag_325\n      jump\t// in\n    tag_456:\n        /* \"#utility.yul\":11454:11593   */\n      swap1\n      pop\n        /* \"#utility.yul\":11181:11600   */\n      swap2\n      swap1\n      pop\n      jump\t// out\n        /* \"#utility.yul\":11606:12270   */\n    tag_175:\n        /* \"#utility.yul\":11811:11815   */\n      0x00\n        /* \"#utility.yul\":11849:11852   */\n      0xa0\n        /* \"#utility.yul\":11838:11847   */\n      dup3\n        /* \"#utility.yul\":11834:11853   */\n      add\n        /* \"#utility.yul\":11826:11853   */\n      swap1\n      pop\n        /* \"#utility.yul\":11863:11934   */\n      tag_458\n        /* \"#utility.yul\":11931:11932   */\n      0x00\n        /* \"#utility.yul\":11920:11929   */\n      dup4\n        /* \"#utility.yul\":11916:11933   */\n      add\n        /* \"#utility.yul\":11907:11913   */\n      dup9\n        /* \"#utility.yul\":11863:11934   */\n      tag_302\n      jump\t// in\n    tag_458:\n        /* \"#utility.yul\":11944:12016   */\n      tag_459\n        /* \"#utility.yul\":12012:12014   */\n      0x20\n        /* \"#utility.yul\":12001:12010   */\n      dup4\n        /* \"#utility.yul\":11997:12015   */\n      add\n        /* \"#utility.yul\":11988:11994   */\n      dup8\n        /* \"#utility.yul\":11944:12016   */\n      tag_302\n      jump\t// in\n    tag_459:\n        /* \"#utility.yul\":12026:12098   */\n      tag_460\n        /* \"#utility.yul\":12094:12096   */\n      0x40\n        /* \"#utility.yul\":12083:12092   */\n      dup4\n        /* \"#utility.yul\":12079:12097   */\n      add\n        /* \"#utility.yul\":12070:12076   */\n      dup7\n        /* \"#utility.yul\":12026:12098   */\n      tag_302\n      jump\t// in\n    tag_460:\n        /* \"#utility.yul\":12108:12180   */\n      tag_461\n        /* \"#utility.yul\":12176:12178   */\n      0x60\n        /* \"#utility.yul\":12165:12174   */\n      dup4\n        /* \"#utility.yul\":12161:12179   */\n      add\n        /* \"#utility.yul\":12152:12158   */\n      dup6\n        /* \"#utility.yul\":12108:12180   */\n      tag_304\n      jump\t// in\n    tag_461:\n        /* \"#utility.yul\":12190:12263   */\n      tag_462\n        /* \"#utility.yul\":12258:12261   */\n      0x80\n        /* \"#utility.yul\":12247:12256   */\n      dup4\n        /* \"#utility.yul\":12243:12262   */\n      add\n        /* \"#utility.yul\":12234:12240   */\n      dup5\n        /* \"#utility.yul\":12190:12263   */\n      tag_304\n      jump\t// in\n    tag_462:\n        /* \"#utility.yul\":11606:12270   */\n      swap7\n      swap6\n      pop\n      pop\n      pop\n      pop\n      pop\n      pop\n      jump\t// out\n        /* \"#utility.yul\":12276:12438   */\n    tag_326:\n        /* \"#utility.yul\":12416:12430   */\n      0x4d696e757320616d6f756e740000000000000000000000000000000000000000\n        /* \"#utility.yul\":12412:12413   */\n      0x00\n        /* \"#utility.yul\":12404:12410   */\n      dup3\n        /* \"#utility.yul\":12400:12414   */\n      add\n        /* \"#utility.yul\":12393:12431   */\n      mstore\n        /* \"#utility.yul\":12276:12438   */\n      pop\n      jump\t// out\n        /* \"#utility.yul\":12444:12810   */\n    tag_327:\n        /* \"#utility.yul\":12586:12589   */\n      0x00\n        /* \"#utility.yul\":12607:12674   */\n      tag_465\n        /* \"#utility.yul\":12671:12673   */\n      0x0c\n        /* \"#utility.yul\":12666:12669   */\n      dup4\n        /* \"#utility.yul\":12607:12674   */\n      tag_314\n      jump\t// in\n    tag_465:\n        /* \"#utility.yul\":12600:12674   */\n      swap2\n      pop\n        /* \"#utility.yul\":12683:12776   */\n      tag_466\n        /* \"#utility.yul\":12772:12775   */\n      dup3\n        /* \"#utility.yul\":12683:12776   */\n      tag_326\n      jump\t// in\n    tag_466:\n        /* \"#utility.yul\":12801:12803   */\n      0x20\n        /* \"#utility.yul\":12796:12799   */\n      dup3\n        /* \"#utility.yul\":12792:12804   */\n      add\n        /* \"#utility.yul\":12785:12804   */\n      swap1\n      pop\n        /* \"#utility.yul\":12444:12810   */\n      swap2\n      swap1\n      pop\n      jump\t// out\n        /* \"#utility.yul\":12816:13235   */\n    tag_190:\n        /* \"#utility.yul\":12982:12986   */\n      0x00\n        /* \"#utility.yul\":13020:13022   */\n      0x20\n        /* \"#utility.yul\":13009:13018   */\n      dup3\n        /* \"#utility.yul\":13005:13023   */\n      add\n        /* \"#utility.yul\":12997:13023   */\n      swap1\n      pop\n        /* \"#utility.yul\":13069:13078   */\n      dup2\n        /* \"#utility.yul\":13063:13067   */\n      dup2\n        /* \"#utility.yul\":13059:13079   */\n      sub\n        /* \"#utility.yul\":13055:13056   */\n      0x00\n        /* \"#utility.yul\":13044:13053   */\n      dup4\n        /* \"#utility.yul\":13040:13057   */\n      add\n        /* \"#utility.yul\":13033:13080   */\n      mstore\n        /* \"#utility.yul\":13097:13228   */\n      tag_468\n        /* \"#utility.yul\":13223:13227   */\n      dup2\n        /* \"#utility.yul\":13097:13228   */\n      tag_327\n      jump\t// in\n    tag_468:\n        /* \"#utility.yul\":13089:13228   */\n      swap1\n      pop\n        /* \"#utility.yul\":12816:13235   */\n      swap2\n      swap1\n      pop\n      jump\t// out\n        /* \"#utility.yul\":13241:13905   */\n    tag_206:\n        /* \"#utility.yul\":13446:13450   */\n      0x00\n        /* \"#utility.yul\":13484:13487   */\n      0xa0\n        /* \"#utility.yul\":13473:13482   */\n      dup3\n        /* \"#utility.yul\":13469:13488   */\n      add\n        /* \"#utility.yul\":13461:13488   */\n      swap1\n      pop\n        /* \"#utility.yul\":13498:13569   */\n      tag_470\n        /* \"#utility.yul\":13566:13567   */\n      0x00\n        /* \"#utility.yul\":13555:13564   */\n      dup4\n        /* \"#utility.yul\":13551:13568   */\n      add\n        /* \"#utility.yul\":13542:13548   */\n      dup9\n        /* \"#utility.yul\":13498:13569   */\n      tag_302\n      jump\t// in\n    tag_470:\n        /* \"#utility.yul\":13579:13651   */\n      tag_471\n        /* \"#utility.yul\":13647:13649   */\n      0x20\n        /* \"#utility.yul\":13636:13645   */\n      dup4\n        /* \"#utility.yul\":13632:13650   */\n      add\n        /* \"#utility.yul\":13623:13629   */\n      dup8\n        /* \"#utility.yul\":13579:13651   */\n      tag_302\n      jump\t// in\n    tag_471:\n        /* \"#utility.yul\":13661:13733   */\n      tag_472\n        /* \"#utility.yul\":13729:13731   */\n      0x40\n        /* \"#utility.yul\":13718:13727   */\n      dup4\n        /* \"#utility.yul\":13714:13732   */\n      add\n        /* \"#utility.yul\":13705:13711   */\n      dup7\n        /* \"#utility.yul\":13661:13733   */\n      tag_304\n      jump\t// in\n    tag_472:\n        /* \"#utility.yul\":13743:13815   */\n      tag_473\n        /* \"#utility.yul\":13811:13813   */\n      0x60\n        /* \"#utility.yul\":13800:13809   */\n      dup4\n        /* \"#utility.yul\":13796:13814   */\n      add\n        /* \"#utility.yul\":13787:13793   */\n      dup6\n        /* \"#utility.yul\":13743:13815   */\n      tag_304\n      jump\t// in\n    tag_473:\n        /* \"#utility.yul\":13825:13898   */\n      tag_474\n        /* \"#utility.yul\":13893:13896   */\n      0x80\n        /* \"#utility.yul\":13882:13891   */\n      dup4\n        /* \"#utility.yul\":13878:13897   */\n      add\n        /* \"#utility.yul\":13869:13875   */\n      dup5\n        /* \"#utility.yul\":13825:13898   */\n      tag_304\n      jump\t// in\n    tag_474:\n        /* \"#utility.yul\":13241:13905   */\n      swap7\n      swap6\n      pop\n      pop\n      pop\n      pop\n      pop\n      pop\n      jump\t// out\n        /* \"#utility.yul\":13911:14353   */\n    tag_210:\n        /* \"#utility.yul\":14060:14064   */\n      0x00\n        /* \"#utility.yul\":14098:14100   */\n      0x60\n        /* \"#utility.yul\":14087:14096   */\n      dup3\n        /* \"#utility.yul\":14083:14101   */\n      add\n        /* \"#utility.yul\":14075:14101   */\n      swap1\n      pop\n        /* \"#utility.yul\":14111:14182   */\n      tag_476\n        /* \"#utility.yul\":14179:14180   */\n      0x00\n        /* \"#utility.yul\":14168:14177   */\n      dup4\n        /* \"#utility.yul\":14164:14181   */\n      add\n        /* \"#utility.yul\":14155:14161   */\n      dup7\n        /* \"#utility.yul\":14111:14182   */\n      tag_302\n      jump\t// in\n    tag_476:\n        /* \"#utility.yul\":14192:14264   */\n      tag_477\n        /* \"#utility.yul\":14260:14262   */\n      0x20\n        /* \"#utility.yul\":14249:14258   */\n      dup4\n        /* \"#utility.yul\":14245:14263   */\n      add\n        /* \"#utility.yul\":14236:14242   */\n      dup6\n        /* \"#utility.yul\":14192:14264   */\n      tag_302\n      jump\t// in\n    tag_477:\n        /* \"#utility.yul\":14274:14346   */\n      tag_478\n        /* \"#utility.yul\":14342:14344   */\n      0x40\n        /* \"#utility.yul\":14331:14340   */\n      dup4\n        /* \"#utility.yul\":14327:14345   */\n      add\n        /* \"#utility.yul\":14318:14324   */\n      dup5\n        /* \"#utility.yul\":14274:14346   */\n      tag_304\n      jump\t// in\n    tag_478:\n        /* \"#utility.yul\":13911:14353   */\n      swap5\n      swap4\n      pop\n      pop\n      pop\n      pop\n      jump\t// out\n        /* \"#utility.yul\":14359:14457   */\n    tag_328:\n        /* \"#utility.yul\":14410:14416   */\n      0x00\n        /* \"#utility.yul\":14444:14449   */\n      dup2\n        /* \"#utility.yul\":14438:14450   */\n      mload\n        /* \"#utility.yul\":14428:14450   */\n      swap1\n      pop\n        /* \"#utility.yul\":14359:14457   */\n      swap2\n      swap1\n      pop\n      jump\t// out\n        /* \"#utility.yul\":14463:14610   */\n    tag_329:\n        /* \"#utility.yul\":14564:14575   */\n      0x00\n        /* \"#utility.yul\":14601:14604   */\n      dup2\n        /* \"#utility.yul\":14586:14604   */\n      swap1\n      pop\n        /* \"#utility.yul\":14463:14610   */\n      swap3\n      swap2\n      pop\n      pop\n      jump\t// out\n        /* \"#utility.yul\":14616:14923   */\n    tag_330:\n        /* \"#utility.yul\":14684:14685   */\n      0x00\n        /* \"#utility.yul\":14694:14807   */\n    tag_482:\n        /* \"#utility.yul\":14708:14714   */\n      dup4\n        /* \"#utility.yul\":14705:14706   */\n      dup2\n        /* \"#utility.yul\":14702:14715   */\n      lt\n        /* \"#utility.yul\":14694:14807   */\n      iszero\n      tag_484\n      jumpi\n        /* \"#utility.yul\":14793:14794   */\n      dup1\n        /* \"#utility.yul\":14788:14791   */\n      dup3\n        /* \"#utility.yul\":14784:14795   */\n      add\n        /* \"#utility.yul\":14778:14796   */\n      mload\n        /* \"#utility.yul\":14774:14775   */\n      dup2\n        /* \"#utility.yul\":14769:14772   */\n      dup5\n        /* \"#utility.yul\":14765:14776   */\n      add\n        /* \"#utility.yul\":14758:14797   */\n      mstore\n        /* \"#utility.yul\":14730:14732   */\n      0x20\n        /* \"#utility.yul\":14727:14728   */\n      dup2\n        /* \"#utility.yul\":14723:14733   */\n      add\n        /* \"#utility.yul\":14718:14733   */\n      swap1\n      pop\n        /* \"#utility.yul\":14694:14807   */\n      jump(tag_482)\n    tag_484:\n        /* \"#utility.yul\":14825:14831   */\n      dup4\n        /* \"#utility.yul\":14822:14823   */\n      dup2\n        /* \"#utility.yul\":14819:14832   */\n      gt\n        /* \"#utility.yul\":14816:14917   */\n      iszero\n      tag_485\n      jumpi\n        /* \"#utility.yul\":14905:14906   */\n      0x00\n        /* \"#utility.yul\":14896:14902   */\n      dup5\n        /* \"#utility.yul\":14891:14894   */\n      dup5\n        /* \"#utility.yul\":14887:14903   */\n      add\n        /* \"#utility.yul\":14880:14907   */\n      mstore\n        /* \"#utility.yul\":14816:14917   */\n    tag_485:\n        /* \"#utility.yul\":14665:14923   */\n      pop\n        /* \"#utility.yul\":14616:14923   */\n      pop\n      pop\n      pop\n      jump\t// out\n        /* \"#utility.yul\":14929:15302   */\n    tag_331:\n        /* \"#utility.yul\":15033:15036   */\n      0x00\n        /* \"#utility.yul\":15061:15099   */\n      tag_487\n        /* \"#utility.yul\":15093:15098   */\n      dup3\n        /* \"#utility.yul\":15061:15099   */\n      tag_328\n      jump\t// in\n    tag_487:\n        /* \"#utility.yul\":15115:15203   */\n      tag_488\n        /* \"#utility.yul\":15196:15202   */\n      dup2\n        /* \"#utility.yul\":15191:15194   */\n      dup6\n        /* \"#utility.yul\":15115:15203   */\n      tag_329\n      jump\t// in\n    tag_488:\n        /* \"#utility.yul\":15108:15203   */\n      swap4\n      pop\n        /* \"#utility.yul\":15212:15264   */\n      tag_489\n        /* \"#utility.yul\":15257:15263   */\n      dup2\n        /* \"#utility.yul\":15252:15255   */\n      dup6\n        /* \"#utility.yul\":15245:15249   */\n      0x20\n        /* \"#utility.yul\":15238:15243   */\n      dup7\n        /* \"#utility.yul\":15234:15250   */\n      add\n        /* \"#utility.yul\":15212:15264   */\n      tag_330\n      jump\t// in\n    tag_489:\n        /* \"#utility.yul\":15289:15295   */\n      dup1\n        /* \"#utility.yul\":15284:15287   */\n      dup5\n        /* \"#utility.yul\":15280:15296   */\n      add\n        /* \"#utility.yul\":15273:15296   */\n      swap2\n      pop\n        /* \"#utility.yul\":15037:15302   */\n      pop\n        /* \"#utility.yul\":14929:15302   */\n      swap3\n      swap2\n      pop\n      pop\n      jump\t// out\n        /* \"#utility.yul\":15308:15579   */\n    tag_212:\n        /* \"#utility.yul\":15438:15441   */\n      0x00\n        /* \"#utility.yul\":15460:15553   */\n      tag_491\n        /* \"#utility.yul\":15549:15552   */\n      dup3\n        /* \"#utility.yul\":15540:15546   */\n      dup5\n        /* \"#utility.yul\":15460:15553   */\n      tag_331\n      jump\t// in\n    tag_491:\n        /* \"#utility.yul\":15453:15553   */\n      swap2\n      pop\n        /* \"#utility.yul\":15570:15573   */\n      dup2\n        /* \"#utility.yul\":15563:15573   */\n      swap1\n      pop\n        /* \"#utility.yul\":15308:15579   */\n      swap3\n      swap2\n      pop\n      pop\n      jump\t// out\n        /* \"#utility.yul\":15585:15701   */\n    tag_332:\n        /* \"#utility.yul\":15655:15676   */\n      tag_493\n        /* \"#utility.yul\":15670:15675   */\n      dup2\n        /* \"#utility.yul\":15655:15676   */\n      tag_312\n      jump\t// in\n    tag_493:\n        /* \"#utility.yul\":15648:15653   */\n      dup2\n        /* \"#utility.yul\":15645:15677   */\n      eq\n        /* \"#utility.yul\":15635:15695   */\n      tag_494\n      jumpi\n        /* \"#utility.yul\":15691:15692   */\n      0x00\n        /* \"#utility.yul\":15688:15689   */\n      dup1\n        /* \"#utility.yul\":15681:15693   */\n      revert\n        /* \"#utility.yul\":15635:15695   */\n    tag_494:\n        /* \"#utility.yul\":15585:15701   */\n      pop\n      jump\t// out\n        /* \"#utility.yul\":15707:15844   */\n    tag_333:\n        /* \"#utility.yul\":15761:15766   */\n      0x00\n        /* \"#utility.yul\":15792:15798   */\n      dup2\n        /* \"#utility.yul\":15786:15799   */\n      mload\n        /* \"#utility.yul\":15777:15799   */\n      swap1\n      pop\n        /* \"#utility.yul\":15808:15838   */\n      tag_496\n        /* \"#utility.yul\":15832:15837   */\n      dup2\n        /* \"#utility.yul\":15808:15838   */\n      tag_332\n      jump\t// in\n    tag_496:\n        /* \"#utility.yul\":15707:15844   */\n      swap3\n      swap2\n      pop\n      pop\n      jump\t// out\n        /* \"#utility.yul\":15850:16195   */\n    tag_219:\n        /* \"#utility.yul\":15917:15923   */\n      0x00\n        /* \"#utility.yul\":15966:15968   */\n      0x20\n        /* \"#utility.yul\":15954:15963   */\n      dup3\n        /* \"#utility.yul\":15945:15952   */\n      dup5\n        /* \"#utility.yul\":15941:15964   */\n      sub\n        /* \"#utility.yul\":15937:15969   */\n      slt\n        /* \"#utility.yul\":15934:16053   */\n      iszero\n      tag_498\n      jumpi\n        /* \"#utility.yul\":15972:16051   */\n      tag_499\n      tag_306\n      jump\t// in\n    tag_499:\n        /* \"#utility.yul\":15934:16053   */\n    tag_498:\n        /* \"#utility.yul\":16092:16093   */\n      0x00\n        /* \"#utility.yul\":16117:16178   */\n      tag_500\n        /* \"#utility.yul\":16170:16177   */\n      dup5\n        /* \"#utility.yul\":16161:16167   */\n      dup3\n        /* \"#utility.yul\":16150:16159   */\n      dup6\n        /* \"#utility.yul\":16146:16168   */\n      add\n        /* \"#utility.yul\":16117:16178   */\n      tag_333\n      jump\t// in\n    tag_500:\n        /* \"#utility.yul\":16107:16178   */\n      swap2\n      pop\n        /* \"#utility.yul\":16063:16188   */\n      pop\n        /* \"#utility.yul\":15850:16195   */\n      swap3\n      swap2\n      pop\n      pop\n      jump\t// out\n        /* \"#utility.yul\":16201:16437   */\n    tag_334:\n        /* \"#utility.yul\":16341:16375   */\n      0x5472616e7366657248656c7065723a3a7472616e7366657246726f6d3a207472\n        /* \"#utility.yul\":16337:16338   */\n      0x00\n        /* \"#utility.yul\":16329:16335   */\n      dup3\n        /* \"#utility.yul\":16325:16339   */\n      add\n        /* \"#utility.yul\":16318:16376   */\n      mstore\n        /* \"#utility.yul\":16410:16429   */\n      0x616e7366657246726f6d206661696c6564000000000000000000000000000000\n        /* \"#utility.yul\":16405:16407   */\n      0x20\n        /* \"#utility.yul\":16397:16403   */\n      dup3\n        /* \"#utility.yul\":16393:16408   */\n      add\n        /* \"#utility.yul\":16386:16430   */\n      mstore\n        /* \"#utility.yul\":16201:16437   */\n      pop\n      jump\t// out\n        /* \"#utility.yul\":16443:16809   */\n    tag_335:\n        /* \"#utility.yul\":16585:16588   */\n      0x00\n        /* \"#utility.yul\":16606:16673   */\n      tag_503\n        /* \"#utility.yul\":16670:16672   */\n      0x31\n        /* \"#utility.yul\":16665:16668   */\n      dup4\n        /* \"#utility.yul\":16606:16673   */\n      tag_314\n      jump\t// in\n    tag_503:\n        /* \"#utility.yul\":16599:16673   */\n      swap2\n      pop\n        /* \"#utility.yul\":16682:16775   */\n      tag_504\n        /* \"#utility.yul\":16771:16774   */\n      dup3\n        /* \"#utility.yul\":16682:16775   */\n      tag_334\n      jump\t// in\n    tag_504:\n        /* \"#utility.yul\":16800:16802   */\n      0x40\n        /* \"#utility.yul\":16795:16798   */\n      dup3\n        /* \"#utility.yul\":16791:16803   */\n      add\n        /* \"#utility.yul\":16784:16803   */\n      swap1\n      pop\n        /* \"#utility.yul\":16443:16809   */\n      swap2\n      swap1\n      pop\n      jump\t// out\n        /* \"#utility.yul\":16815:17234   */\n    tag_222:\n        /* \"#utility.yul\":16981:16985   */\n      0x00\n        /* \"#utility.yul\":17019:17021   */\n      0x20\n        /* \"#utility.yul\":17008:17017   */\n      dup3\n        /* \"#utility.yul\":17004:17022   */\n      add\n        /* \"#utility.yul\":16996:17022   */\n      swap1\n      pop\n        /* \"#utility.yul\":17068:17077   */\n      dup2\n        /* \"#utility.yul\":17062:17066   */\n      dup2\n        /* \"#utility.yul\":17058:17078   */\n      sub\n        /* \"#utility.yul\":17054:17055   */\n      0x00\n        /* \"#utility.yul\":17043:17052   */\n      dup4\n        /* \"#utility.yul\":17039:17056   */\n      add\n        /* \"#utility.yul\":17032:17079   */\n      mstore\n        /* \"#utility.yul\":17096:17227   */\n      tag_506\n        /* \"#utility.yul\":17222:17226   */\n      dup2\n        /* \"#utility.yul\":17096:17227   */\n      tag_335\n      jump\t// in\n    tag_506:\n        /* \"#utility.yul\":17088:17227   */\n      swap1\n      pop\n        /* \"#utility.yul\":16815:17234   */\n      swap2\n      swap1\n      pop\n      jump\t// out\n        /* \"#utility.yul\":17240:17572   */\n    tag_236:\n        /* \"#utility.yul\":17361:17365   */\n      0x00\n        /* \"#utility.yul\":17399:17401   */\n      0x40\n        /* \"#utility.yul\":17388:17397   */\n      dup3\n        /* \"#utility.yul\":17384:17402   */\n      add\n        /* \"#utility.yul\":17376:17402   */\n      swap1\n      pop\n        /* \"#utility.yul\":17412:17483   */\n      tag_508\n        /* \"#utility.yul\":17480:17481   */\n      0x00\n        /* \"#utility.yul\":17469:17478   */\n      dup4\n        /* \"#utility.yul\":17465:17482   */\n      add\n        /* \"#utility.yul\":17456:17462   */\n      dup6\n        /* \"#utility.yul\":17412:17483   */\n      tag_302\n      jump\t// in\n    tag_508:\n        /* \"#utility.yul\":17493:17565   */\n      tag_509\n        /* \"#utility.yul\":17561:17563   */\n      0x20\n        /* \"#utility.yul\":17550:17559   */\n      dup4\n        /* \"#utility.yul\":17546:17564   */\n      add\n        /* \"#utility.yul\":17537:17543   */\n      dup5\n        /* \"#utility.yul\":17493:17565   */\n      tag_304\n      jump\t// in\n    tag_509:\n        /* \"#utility.yul\":17240:17572   */\n      swap4\n      swap3\n      pop\n      pop\n      pop\n      jump\t// out\n        /* \"#utility.yul\":17578:17739   */\n    tag_336:\n        /* \"#utility.yul\":17718:17731   */\n      0x4641494c4544204d696e74000000000000000000000000000000000000000000\n        /* \"#utility.yul\":17714:17715   */\n      0x00\n        /* \"#utility.yul\":17706:17712   */\n      dup3\n        /* \"#utility.yul\":17702:17716   */\n      add\n        /* \"#utility.yul\":17695:17732   */\n      mstore\n        /* \"#utility.yul\":17578:17739   */\n      pop\n      jump\t// out\n        /* \"#utility.yul\":17745:18111   */\n    tag_337:\n        /* \"#utility.yul\":17887:17890   */\n      0x00\n        /* \"#utility.yul\":17908:17975   */\n      tag_512\n        /* \"#utility.yul\":17972:17974   */\n      0x0b\n        /* \"#utility.yul\":17967:17970   */\n      dup4\n        /* \"#utility.yul\":17908:17975   */\n      tag_314\n      jump\t// in\n    tag_512:\n        /* \"#utility.yul\":17901:17975   */\n      swap2\n      pop\n        /* \"#utility.yul\":17984:18077   */\n      tag_513\n        /* \"#utility.yul\":18073:18076   */\n      dup3\n        /* \"#utility.yul\":17984:18077   */\n      tag_336\n      jump\t// in\n    tag_513:\n        /* \"#utility.yul\":18102:18104   */\n      0x20\n        /* \"#utility.yul\":18097:18100   */\n      dup3\n        /* \"#utility.yul\":18093:18105   */\n      add\n        /* \"#utility.yul\":18086:18105   */\n      swap1\n      pop\n        /* \"#utility.yul\":17745:18111   */\n      swap2\n      swap1\n      pop\n      jump\t// out\n        /* \"#utility.yul\":18117:18536   */\n    tag_246:\n        /* \"#utility.yul\":18283:18287   */\n      0x00\n        /* \"#utility.yul\":18321:18323   */\n      0x20\n        /* \"#utility.yul\":18310:18319   */\n      dup3\n        /* \"#utility.yul\":18306:18324   */\n      add\n        /* \"#utility.yul\":18298:18324   */\n      swap1\n      pop\n        /* \"#utility.yul\":18370:18379   */\n      dup2\n        /* \"#utility.yul\":18364:18368   */\n      dup2\n        /* \"#utility.yul\":18360:18380   */\n      sub\n        /* \"#utility.yul\":18356:18357   */\n      0x00\n        /* \"#utility.yul\":18345:18354   */\n      dup4\n        /* \"#utility.yul\":18341:18358   */\n      add\n        /* \"#utility.yul\":18334:18381   */\n      mstore\n        /* \"#utility.yul\":18398:18529   */\n      tag_515\n        /* \"#utility.yul\":18524:18528   */\n      dup2\n        /* \"#utility.yul\":18398:18529   */\n      tag_337\n      jump\t// in\n    tag_515:\n        /* \"#utility.yul\":18390:18529   */\n      swap1\n      pop\n        /* \"#utility.yul\":18117:18536   */\n      swap2\n      swap1\n      pop\n      jump\t// out\n        /* \"#utility.yul\":18542:18700   */\n    tag_338:\n        /* \"#utility.yul\":18682:18692   */\n      0x30206e756d626572000000000000000000000000000000000000000000000000\n        /* \"#utility.yul\":18678:18679   */\n      0x00\n        /* \"#utility.yul\":18670:18676   */\n      dup3\n        /* \"#utility.yul\":18666:18680   */\n      add\n        /* \"#utility.yul\":18659:18693   */\n      mstore\n        /* \"#utility.yul\":18542:18700   */\n      pop\n      jump\t// out\n        /* \"#utility.yul\":18706:19071   */\n    tag_339:\n        /* \"#utility.yul\":18848:18851   */\n      0x00\n        /* \"#utility.yul\":18869:18935   */\n      tag_518\n        /* \"#utility.yul\":18933:18934   */\n      0x08\n        /* \"#utility.yul\":18928:18931   */\n      dup4\n        /* \"#utility.yul\":18869:18935   */\n      tag_314\n      jump\t// in\n    tag_518:\n        /* \"#utility.yul\":18862:18935   */\n      swap2\n      pop\n        /* \"#utility.yul\":18944:19037   */\n      tag_519\n        /* \"#utility.yul\":19033:19036   */\n      dup3\n        /* \"#utility.yul\":18944:19037   */\n      tag_338\n      jump\t// in\n    tag_519:\n        /* \"#utility.yul\":19062:19064   */\n      0x20\n        /* \"#utility.yul\":19057:19060   */\n      dup3\n        /* \"#utility.yul\":19053:19065   */\n      add\n        /* \"#utility.yul\":19046:19065   */\n      swap1\n      pop\n        /* \"#utility.yul\":18706:19071   */\n      swap2\n      swap1\n      pop\n      jump\t// out\n        /* \"#utility.yul\":19077:19496   */\n    tag_265:\n        /* \"#utility.yul\":19243:19247   */\n      0x00\n        /* \"#utility.yul\":19281:19283   */\n      0x20\n        /* \"#utility.yul\":19270:19279   */\n      dup3\n        /* \"#utility.yul\":19266:19284   */\n      add\n        /* \"#utility.yul\":19258:19284   */\n      swap1\n      pop\n        /* \"#utility.yul\":19330:19339   */\n      dup2\n        /* \"#utility.yul\":19324:19328   */\n      dup2\n        /* \"#utility.yul\":19320:19340   */\n      sub\n        /* \"#utility.yul\":19316:19317   */\n      0x00\n        /* \"#utility.yul\":19305:19314   */\n      dup4\n        /* \"#utility.yul\":19301:19318   */\n      add\n        /* \"#utility.yul\":19294:19341   */\n      mstore\n        /* \"#utility.yul\":19358:19489   */\n      tag_521\n        /* \"#utility.yul\":19484:19488   */\n      dup2\n        /* \"#utility.yul\":19358:19489   */\n      tag_339\n      jump\t// in\n    tag_521:\n        /* \"#utility.yul\":19350:19489   */\n      swap1\n      pop\n        /* \"#utility.yul\":19077:19496   */\n      swap2\n      swap1\n      pop\n      jump\t// out\n        /* \"#utility.yul\":19502:19734   */\n    tag_340:\n        /* \"#utility.yul\":19642:19676   */\n      0x5472616e7366657248656c7065723a3a736166655472616e736665723a207472\n        /* \"#utility.yul\":19638:19639   */\n      0x00\n        /* \"#utility.yul\":19630:19636   */\n      dup3\n        /* \"#utility.yul\":19626:19640   */\n      add\n        /* \"#utility.yul\":19619:19677   */\n      mstore\n        /* \"#utility.yul\":19711:19726   */\n      0x616e73666572206661696c656400000000000000000000000000000000000000\n        /* \"#utility.yul\":19706:19708   */\n      0x20\n        /* \"#utility.yul\":19698:19704   */\n      dup3\n        /* \"#utility.yul\":19694:19709   */\n      add\n        /* \"#utility.yul\":19687:19727   */\n      mstore\n        /* \"#utility.yul\":19502:19734   */\n      pop\n      jump\t// out\n        /* \"#utility.yul\":19740:20106   */\n    tag_341:\n        /* \"#utility.yul\":19882:19885   */\n      0x00\n        /* \"#utility.yul\":19903:19970   */\n      tag_524\n        /* \"#utility.yul\":19967:19969   */\n      0x2d\n        /* \"#utility.yul\":19962:19965   */\n      dup4\n        /* \"#utility.yul\":19903:19970   */\n      tag_314\n      jump\t// in\n    tag_524:\n        /* \"#utility.yul\":19896:19970   */\n      swap2\n      pop\n        /* \"#utility.yul\":19979:20072   */\n      tag_525\n        /* \"#utility.yul\":20068:20071   */\n      dup3\n        /* \"#utility.yul\":19979:20072   */\n      tag_340\n      jump\t// in\n    tag_525:\n        /* \"#utility.yul\":20097:20099   */\n      0x40\n        /* \"#utility.yul\":20092:20095   */\n      dup3\n        /* \"#utility.yul\":20088:20100   */\n      add\n        /* \"#utility.yul\":20081:20100   */\n      swap1\n      pop\n        /* \"#utility.yul\":19740:20106   */\n      swap2\n      swap1\n      pop\n      jump\t// out\n        /* \"#utility.yul\":20112:20531   */\n    tag_287:\n        /* \"#utility.yul\":20278:20282   */\n      0x00\n        /* \"#utility.yul\":20316:20318   */\n      0x20\n        /* \"#utility.yul\":20305:20314   */\n      dup3\n        /* \"#utility.yul\":20301:20319   */\n      add\n        /* \"#utility.yul\":20293:20319   */\n      swap1\n      pop\n        /* \"#utility.yul\":20365:20374   */\n      dup2\n        /* \"#utility.yul\":20359:20363   */\n      dup2\n        /* \"#utility.yul\":20355:20375   */\n      sub\n        /* \"#utility.yul\":20351:20352   */\n      0x00\n        /* \"#utility.yul\":20340:20349   */\n      dup4\n        /* \"#utility.yul\":20336:20353   */\n      add\n        /* \"#utility.yul\":20329:20376   */\n      mstore\n        /* \"#utility.yul\":20393:20524   */\n      tag_527\n        /* \"#utility.yul\":20519:20523   */\n      dup2\n        /* \"#utility.yul\":20393:20524   */\n      tag_341\n      jump\t// in\n    tag_527:\n        /* \"#utility.yul\":20385:20524   */\n      swap1\n      pop\n        /* \"#utility.yul\":20112:20531   */\n      swap2\n      swap1\n      pop\n      jump\t// out\n        /* \"#utility.yul\":20537:20698   */\n    tag_342:\n        /* \"#utility.yul\":20677:20690   */\n      0x4641494c4544204275726e000000000000000000000000000000000000000000\n        /* \"#utility.yul\":20673:20674   */\n      0x00\n        /* \"#utility.yul\":20665:20671   */\n      dup3\n        /* \"#utility.yul\":20661:20675   */\n      add\n        /* \"#utility.yul\":20654:20691   */\n      mstore\n        /* \"#utility.yul\":20537:20698   */\n      pop\n      jump\t// out\n        /* \"#utility.yul\":20704:21070   */\n    tag_343:\n        /* \"#utility.yul\":20846:20849   */\n      0x00\n        /* \"#utility.yul\":20867:20934   */\n      tag_530\n        /* \"#utility.yul\":20931:20933   */\n      0x0b\n        /* \"#utility.yul\":20926:20929   */\n      dup4\n        /* \"#utility.yul\":20867:20934   */\n      tag_314\n      jump\t// in\n    tag_530:\n        /* \"#utility.yul\":20860:20934   */\n      swap2\n      pop\n        /* \"#utility.yul\":20943:21036   */\n      tag_531\n        /* \"#utility.yul\":21032:21035   */\n      dup3\n        /* \"#utility.yul\":20943:21036   */\n      tag_342\n      jump\t// in\n    tag_531:\n        /* \"#utility.yul\":21061:21063   */\n      0x20\n        /* \"#utility.yul\":21056:21059   */\n      dup3\n        /* \"#utility.yul\":21052:21064   */\n      add\n        /* \"#utility.yul\":21045:21064   */\n      swap1\n      pop\n        /* \"#utility.yul\":20704:21070   */\n      swap2\n      swap1\n      pop\n      jump\t// out\n        /* \"#utility.yul\":21076:21495   */\n    tag_299:\n        /* \"#utility.yul\":21242:21246   */\n      0x00\n        /* \"#utility.yul\":21280:21282   */\n      0x20\n        /* \"#utility.yul\":21269:21278   */\n      dup3\n        /* \"#utility.yul\":21265:21283   */\n      add\n        /* \"#utility.yul\":21257:21283   */\n      swap1\n      pop\n        /* \"#utility.yul\":21329:21338   */\n      dup2\n        /* \"#utility.yul\":21323:21327   */\n      dup2\n        /* \"#utility.yul\":21319:21339   */\n      sub\n        /* \"#utility.yul\":21315:21316   */\n      0x00\n        /* \"#utility.yul\":21304:21313   */\n      dup4\n        /* \"#utility.yul\":21300:21317   */\n      add\n        /* \"#utility.yul\":21293:21340   */\n      mstore\n        /* \"#utility.yul\":21357:21488   */\n      tag_533\n        /* \"#utility.yul\":21483:21487   */\n      dup2\n        /* \"#utility.yul\":21357:21488   */\n      tag_343\n      jump\t// in\n    tag_533:\n        /* \"#utility.yul\":21349:21488   */\n      swap1\n      pop\n        /* \"#utility.yul\":21076:21495   */\n      swap2\n      swap1\n      pop\n      jump\t// out\n    stop\n    data_23b872dd7302113369cda2901243429419bec145408fa8b352b3dd92b66c680b 7472616e7366657246726f6d28616464726573732c616464726573732c75696e7432353629\n\n    auxdata: 0xa26469706673582212207b54063a2e2b0062ae362c1f46d22249ff2f93018ccc2f3c200de8d4f506dd5a64736f6c634300080f0033\n}\n",
				"bytecode": {
					"linkReferences": {},
					"object": "608060405260006005553480156200001657600080fd5b506040516200270a3803806200270a83398181016040528101906200003c9190620001f5565b336000806101000a81548173ffffffffffffffffffffffffffffffffffffffff021916908373ffffffffffffffffffffffffffffffffffffffff16021790555083600160006101000a81548173ffffffffffffffffffffffffffffffffffffffff021916908373ffffffffffffffffffffffffffffffffffffffff16021790555082600260006101000a81548173ffffffffffffffffffffffffffffffffffffffff021916908373ffffffffffffffffffffffffffffffffffffffff16021790555081600360006101000a81548173ffffffffffffffffffffffffffffffffffffffff021916908373ffffffffffffffffffffffffffffffffffffffff16021790555080600b819055505050505062000267565b600080fd5b600073ffffffffffffffffffffffffffffffffffffffff82169050919050565b6000620001828262000155565b9050919050565b620001948162000175565b8114620001a057600080fd5b50565b600081519050620001b48162000189565b92915050565b6000819050919050565b620001cf81620001ba565b8114620001db57600080fd5b50565b600081519050620001ef81620001c4565b92915050565b6000806000806080858703121562000212576200021162000150565b5b60006200022287828801620001a3565b94505060206200023587828801620001a3565b93505060406200024887828801620001a3565b92505060606200025b87828801620001de565b91505092959194509250565b61249380620002776000396000f3fe608060405234801561001057600080fd5b50600436106100cf5760003560e01c806377619ac51161008c578063a0a986f111610066578063a0a986f114610206578063b4f40c6114610224578063d21220a714610242578063db5159a214610260576100cf565b806377619ac5146101885780638f402b56146101b85780639ba613a8146101d6576100cf565b80630dfe1681146100d457806318160ddd146100f2578063313c06a014610110578063443cb4bc1461012e5780635a76f25e1461014c5780636caf25ce1461016a575b600080fd5b6100dc610290565b6040516100e99190611968565b60405180910390f35b6100fa6102b6565b604051610107919061199c565b60405180910390f35b6101186102bc565b6040516101259190611968565b60405180910390f35b6101366102e2565b604051610143919061199c565b60405180910390f35b6101546102e8565b604051610161919061199c565b60405180910390f35b6101726102ee565b60405161017f919061199c565b60405180910390f35b6101a2600480360381019061019d9190611a14565b6102f4565b6040516101af9190611a96565b60405180910390f35b6101c061083b565b6040516101cd919061199c565b60405180910390f35b6101f060048036038101906101eb9190611ab1565b610840565b6040516101fd9190611a96565b60405180910390f35b61020e610cbb565b60405161021b919061199c565b60405180910390f35b61022c610cc1565b604051610239919061199c565b60405180910390f35b61024a610cc7565b6040516102579190611968565b60405180910390f35b61027a60048036038101906102759190611b2c565b610ced565b6040516102879190611a96565b60405180910390f35b600160009054906101000a900473ffffffffffffffffffffffffffffffffffffffff1681565b600a5481565b600360009054906101000a900473ffffffffffffffffffffffffffffffffffffffff1681565b60065481565b60075481565b60095481565b600080600061030161106b565b91509150600160009054906101000a900473ffffffffffffffffffffffffffffffffffffffff1673ffffffffffffffffffffffffffffffffffffffff168773ffffffffffffffffffffffffffffffffffffffff161480156103af5750600260009054906101000a900473ffffffffffffffffffffffffffffffffffffffff1673ffffffffffffffffffffffffffffffffffffffff168673ffffffffffffffffffffffffffffffffffffffff16145b6103ee576040517f08c379a00000000000000000000000000000000000000000000000000000000081526004016103e590611c16565b60405180910390fd5b838514610430576040517f08c379a000000000000000000000000000000000000000000000000000000000815260040161042790611c82565b60405180910390fd5b61043c8733308861107c565b6104488633308761107c565b60008773ffffffffffffffffffffffffffffffffffffffff166370a08231306040518263ffffffff1660e01b81526004016104839190611968565b602060405180830381865afa1580156104a0573d6000803e3d6000fd5b505050506040513d601f19601f820116820180604052508101906104c49190611cb7565b905060008773ffffffffffffffffffffffffffffffffffffffff166370a08231306040518263ffffffff1660e01b81526004016105019190611968565b602060405180830381865afa15801561051e573d6000803e3d6000fd5b505050506040513d601f19601f820116820180604052508101906105429190611cb7565b9050600080600a540361060757610585606485846105609190611d13565b878661056c9190611d13565b6105769190611d47565b6105809190611d13565b6111f2565b9050600081116105ca576040517f08c379a00000000000000000000000000000000000000000000000000000000081526004016105c190611ded565b60405180910390fd5b6105f7600360009054906101000a900473ffffffffffffffffffffffffffffffffffffffff16338361126c565b6106018a8a6113f6565b506106ca565b61065785600a54878661061a9190611d13565b6106249190611d47565b61062e9190611e3c565b85600a54878661063e9190611d13565b6106489190611d47565b6106529190611e3c565b611525565b90506000811161069c576040517f08c379a000000000000000000000000000000000000000000000000000000000815260040161069390611ded565b60405180910390fd5b6106c9600360009054906101000a900473ffffffffffffffffffffffffffffffffffffffff16338361126c565b5b80600a60008282546106dc9190611e6d565b9250508190555060008a73ffffffffffffffffffffffffffffffffffffffff166370a08231306040518263ffffffff1660e01b815260040161071e9190611968565b602060405180830381865afa15801561073b573d6000803e3d6000fd5b505050506040513d601f19601f8201168201806040525081019061075f9190611cb7565b905060008a73ffffffffffffffffffffffffffffffffffffffff166370a08231306040518263ffffffff1660e01b815260040161079c9190611968565b602060405180830381865afa1580156107b9573d6000803e3d6000fd5b505050506040513d601f19601f820116820180604052508101906107dd9190611cb7565b90506107eb8c8c848461153e565b7fd2491a9b4fe81a7cd4511e8b7b7743951b061dad5bed7da8a7795b080ee08c7e8c8c8c8c6040516108209493929190611ec3565b60405180910390a16001975050505050505050949350505050565b606481565b600080600061084d61106b565b91509150600160009054906101000a900473ffffffffffffffffffffffffffffffffffffffff1673ffffffffffffffffffffffffffffffffffffffff168873ffffffffffffffffffffffffffffffffffffffff161480156108fb5750600260009054906101000a900473ffffffffffffffffffffffffffffffffffffffff1673ffffffffffffffffffffffffffffffffffffffff168773ffffffffffffffffffffffffffffffffffffffff16145b61093a576040517f08c379a000000000000000000000000000000000000000000000000000000000815260040161093190611c16565b60405180910390fd5b60008511806109495750600084115b610988576040517f08c379a000000000000000000000000000000000000000000000000000000000815260040161097f90611f54565b60405180910390fd5b60008514806109975750600084145b6109d6576040517f08c379a00000000000000000000000000000000000000000000000000000000081526004016109cd90611f54565b60405180910390fd5b8773ffffffffffffffffffffffffffffffffffffffff168673ffffffffffffffffffffffffffffffffffffffff1614158015610a3e57508673ffffffffffffffffffffffffffffffffffffffff168673ffffffffffffffffffffffffffffffffffffffff1614155b610a7d576040517f08c379a0000000000000000000000000000000000000000000000000000000008152600401610a7490611c16565b60405180910390fd5b60006103e8600b5487610a909190611d47565b610a9a9190611e3c565b905060006103e8600b5487610aaf9190611d47565b610ab99190611e3c565b9050600087118015610acb5750600086145b15610b0e57610b02893330620f4240600854878d610ae99190611e6d565b610af39190611d47565b610afd9190611e3c565b61107c565b610b0d8a8989611667565b5b600086118015610b1e5750600087145b15610b6157610b558a3330620f4240600954868c610b3c9190611e6d565b610b469190611d47565b610b509190611e3c565b61107c565b610b60898988611667565b5b60008a73ffffffffffffffffffffffffffffffffffffffff166370a08231306040518263ffffffff1660e01b8152600401610b9c9190611968565b602060405180830381865afa158015610bb9573d6000803e3d6000fd5b505050506040513d601f19601f82011682018060405250810190610bdd9190611cb7565b905060008a73ffffffffffffffffffffffffffffffffffffffff166370a08231306040518263ffffffff1660e01b8152600401610c1a9190611968565b602060405180830381865afa158015610c37573d6000803e3d6000fd5b505050506040513d601f19601f82011682018060405250810190610c5b9190611cb7565b9050610c698c8c848461153e565b7f3070708cdb5d7d3931be8443f49f7ec529e2bbe770b676e3c0cc40e158c5d0398c8c8c8c8c604051610ca0959493929190611f74565b60405180910390a16001965050505050505095945050505050565b60085481565b60045481565b600260009054906101000a900473ffffffffffffffffffffffffffffffffffffffff1681565b6000806000610cfa61106b565b91509150600160009054906101000a900473ffffffffffffffffffffffffffffffffffffffff1673ffffffffffffffffffffffffffffffffffffffff168973ffffffffffffffffffffffffffffffffffffffff16148015610da85750600260009054906101000a900473ffffffffffffffffffffffffffffffffffffffff1673ffffffffffffffffffffffffffffffffffffffff168873ffffffffffffffffffffffffffffffffffffffff16145b610de7576040517f08c379a0000000000000000000000000000000000000000000000000000000008152600401610dde90611c16565b60405180910390fd5b838514610e29576040517f08c379a0000000000000000000000000000000000000000000000000000000008152600401610e2090611c82565b60405180910390fd5b6000600a548388610e3a9190611d47565b610e449190611e3c565b90506000600a548389610e579190611d47565b610e619190611e3c565b9050600082118015610e735750600081115b610eb2576040517f08c379a0000000000000000000000000000000000000000000000000000000008152600401610ea990612013565b60405180910390fd5b610edf600360009054906101000a900473ffffffffffffffffffffffffffffffffffffffff168a8a61179d565b610eeb8b308b8561107c565b610ef78a308b8461107c565b87600a6000828254610f099190611d13565b9250508190555060008b73ffffffffffffffffffffffffffffffffffffffff166370a08231306040518263ffffffff1660e01b8152600401610f4b9190611968565b602060405180830381865afa158015610f68573d6000803e3d6000fd5b505050506040513d601f19601f82011682018060405250810190610f8c9190611cb7565b905060008b73ffffffffffffffffffffffffffffffffffffffff166370a08231306040518263ffffffff1660e01b8152600401610fc99190611968565b602060405180830381865afa158015610fe6573d6000803e3d6000fd5b505050506040513d601f19601f8201168201806040525081019061100a9190611cb7565b90506110188d8d848461153e565b7f95b8fe9ba38a505097b9341887de8716d6f3f3ba79ef0ecc02f35ad6e30585d68d8d88888e60405161104f959493929190612033565b60405180910390a1600196505050505050509695505050505050565b600080600654915060075490509091565b6000604051806060016040528060258152602001612439602591398051906020012090506000808673ffffffffffffffffffffffffffffffffffffffff16838787876040516024016110d093929190612086565b604051602081830303815290604052907bffffffffffffffffffffffffffffffffffffffffffffffffffffffff19166020820180517bffffffffffffffffffffffffffffffffffffffffffffffffffffffff838183161783525050505060405161113a9190612137565b6000604051808303816000865af19150503d8060008114611177576040519150601f19603f3d011682016040523d82523d6000602084013e61117c565b606091505b50915091508180156111aa57506000815114806111a95750808060200190518101906111a8919061217a565b5b5b6111e9576040517f08c379a00000000000000000000000000000000000000000000000000000000081526004016111e090612219565b60405180910390fd5b50505050505050565b6000600382111561125957819050600060016002846112119190611e3c565b61121b9190611e6d565b90505b818110156112535780915060028182856112389190611e3c565b6112429190611e6d565b61124c9190611e3c565b905061121e565b50611267565b6000821461126657600190505b5b919050565b6000808473ffffffffffffffffffffffffffffffffffffffff166040518060400160405280601581526020017f6d696e7428616464726573732c75696e743235362900000000000000000000008152508051906020012085856040516024016112d6929190612239565b604051602081830303815290604052907bffffffffffffffffffffffffffffffffffffffffffffffffffffffff19166020820180517bffffffffffffffffffffffffffffffffffffffffffffffffffffffff83818316178352505050506040516113409190612137565b6000604051808303816000865af19150503d806000811461137d576040519150601f19603f3d011682016040523d82523d6000602084013e611382565b606091505b50915091508180156113b057506000815114806113af5750808060200190518101906113ae919061217a565b5b5b6113ef576040517f08c379a00000000000000000000000000000000000000000000000000000000081526004016113e6906122ae565b60405180910390fd5b5050505050565b6000808373ffffffffffffffffffffffffffffffffffffffff166370a08231306040518263ffffffff1660e01b81526004016114329190611968565b602060405180830381865afa15801561144f573d6000803e3d6000fd5b505050506040513d601f19601f820116820180604052508101906114739190611cb7565b905060008373ffffffffffffffffffffffffffffffffffffffff166370a08231306040518263ffffffff1660e01b81526004016114b09190611968565b602060405180830381865afa1580156114cd573d6000803e3d6000fd5b505050506040513d601f19601f820116820180604052508101906114f19190611cb7565b90506000600554036115185780826115099190611d47565b60048190555060016005819055505b6004549250505092915050565b60008183106115345781611536565b825b905092915050565b60008210158015611550575060008110155b61158f576040517f08c379a00000000000000000000000000000000000000000000000000000000081526004016115869061231a565b60405180910390fd5b600082141580156115a1575060008114155b156115eb5781620f4240826115b69190611d47565b6115c09190611e3c565b60088190555080620f4240836115d69190611d47565b6115e09190611e3c565b600981905550611612565b6000821480156115fb5750600081145b1561161157600060088190555060006009819055505b5b81600681905550806007819055507fd4bde8444971b7416b5f51c90f544d2fe2d0c1edddd83bd5fe8646179341dc9984846006546007546040516116599493929190611ec3565b60405180910390a150505050565b6000808473ffffffffffffffffffffffffffffffffffffffff1663a9059cbb8585604051602401611699929190612239565b6040516020818303038152906040529060e01b6020820180517bffffffffffffffffffffffffffffffffffffffffffffffffffffffff83818316178352505050506040516116e79190612137565b6000604051808303816000865af19150503d8060008114611724576040519150601f19603f3d011682016040523d82523d6000602084013e611729565b606091505b50915091508180156117575750600081511480611756575080806020019051810190611755919061217a565b5b5b611796576040517f08c379a000000000000000000000000000000000000000000000000000000000815260040161178d906123ac565b60405180910390fd5b5050505050565b6000808473ffffffffffffffffffffffffffffffffffffffff166040518060400160405280601581526020017f6275726e28616464726573732c75696e74323536290000000000000000000000815250805190602001208585604051602401611807929190612239565b604051602081830303815290604052907bffffffffffffffffffffffffffffffffffffffffffffffffffffffff19166020820180517bffffffffffffffffffffffffffffffffffffffffffffffffffffffff83818316178352505050506040516118719190612137565b6000604051808303816000865af19150503d80600081146118ae576040519150601f19603f3d011682016040523d82523d6000602084013e6118b3565b606091505b50915091508180156118e157506000815114806118e05750808060200190518101906118df919061217a565b5b5b611920576040517f08c379a000000000000000000000000000000000000000000000000000000000815260040161191790612418565b60405180910390fd5b5050505050565b600073ffffffffffffffffffffffffffffffffffffffff82169050919050565b600061195282611927565b9050919050565b61196281611947565b82525050565b600060208201905061197d6000830184611959565b92915050565b6000819050919050565b61199681611983565b82525050565b60006020820190506119b1600083018461198d565b92915050565b600080fd5b6119c581611947565b81146119d057600080fd5b50565b6000813590506119e2816119bc565b92915050565b6119f181611983565b81146119fc57600080fd5b50565b600081359050611a0e816119e8565b92915050565b60008060008060808587031215611a2e57611a2d6119b7565b5b6000611a3c878288016119d3565b9450506020611a4d878288016119d3565b9350506040611a5e878288016119ff565b9250506060611a6f878288016119ff565b91505092959194509250565b60008115159050919050565b611a9081611a7b565b82525050565b6000602082019050611aab6000830184611a87565b92915050565b600080600080600060a08688031215611acd57611acc6119b7565b5b6000611adb888289016119d3565b9550506020611aec888289016119d3565b9450506040611afd888289016119d3565b9350506060611b0e888289016119ff565b9250506080611b1f888289016119ff565b9150509295509295909350565b60008060008060008060c08789031215611b4957611b486119b7565b5b6000611b5789828a016119d3565b9650506020611b6889828a016119d3565b9550506040611b7989828a016119d3565b9450506060611b8a89828a016119ff565b9350506080611b9b89828a016119ff565b92505060a0611bac89828a016119ff565b9150509295509295509295565b600082825260208201905092915050565b7f4e6f742075736564206164647265737300000000000000000000000000000000600082015250565b6000611c00601083611bb9565b9150611c0b82611bca565b602082019050919050565b60006020820190508181036000830152611c2f81611bf3565b9050919050565b7f4e6f7420657175616c0000000000000000000000000000000000000000000000600082015250565b6000611c6c600983611bb9565b9150611c7782611c36565b602082019050919050565b60006020820190508181036000830152611c9b81611c5f565b9050919050565b600081519050611cb1816119e8565b92915050565b600060208284031215611ccd57611ccc6119b7565b5b6000611cdb84828501611ca2565b91505092915050565b7f4e487b7100000000000000000000000000000000000000000000000000000000600052601160045260246000fd5b6000611d1e82611983565b9150611d2983611983565b925082821015611d3c57611d3b611ce4565b5b828203905092915050565b6000611d5282611983565b9150611d5d83611983565b9250817fffffffffffffffffffffffffffffffffffffffffffffffffffffffffffffffff0483118215151615611d9657611d95611ce4565b5b828202905092915050565b7f4d696e7573206c69717569646974790000000000000000000000000000000000600082015250565b6000611dd7600f83611bb9565b9150611de282611da1565b602082019050919050565b60006020820190508181036000830152611e0681611dca565b9050919050565b7f4e487b7100000000000000000000000000000000000000000000000000000000600052601260045260246000fd5b6000611e4782611983565b9150611e5283611983565b925082611e6257611e61611e0d565b5b828204905092915050565b6000611e7882611983565b9150611e8383611983565b9250827fffffffffffffffffffffffffffffffffffffffffffffffffffffffffffffffff03821115611eb857611eb7611ce4565b5b828201905092915050565b6000608082019050611ed86000830187611959565b611ee56020830186611959565b611ef2604083018561198d565b611eff606083018461198d565b95945050505050565b7f5a65726f20616d6f756e74000000000000000000000000000000000000000000600082015250565b6000611f3e600b83611bb9565b9150611f4982611f08565b602082019050919050565b60006020820190508181036000830152611f6d81611f31565b9050919050565b600060a082019050611f896000830188611959565b611f966020830187611959565b611fa36040830186611959565b611fb0606083018561198d565b611fbd608083018461198d565b9695505050505050565b7f4d696e757320616d6f756e740000000000000000000000000000000000000000600082015250565b6000611ffd600c83611bb9565b915061200882611fc7565b602082019050919050565b6000602082019050818103600083015261202c81611ff0565b9050919050565b600060a0820190506120486000830188611959565b6120556020830187611959565b612062604083018661198d565b61206f606083018561198d565b61207c608083018461198d565b9695505050505050565b600060608201905061209b6000830186611959565b6120a86020830185611959565b6120b5604083018461198d565b949350505050565b600081519050919050565b600081905092915050565b60005b838110156120f15780820151818401526020810190506120d6565b83811115612100576000848401525b50505050565b6000612111826120bd565b61211b81856120c8565b935061212b8185602086016120d3565b80840191505092915050565b60006121438284612106565b915081905092915050565b61215781611a7b565b811461216257600080fd5b50565b6000815190506121748161214e565b92915050565b6000602082840312156121905761218f6119b7565b5b600061219e84828501612165565b91505092915050565b7f5472616e7366657248656c7065723a3a7472616e7366657246726f6d3a20747260008201527f616e7366657246726f6d206661696c6564000000000000000000000000000000602082015250565b6000612203603183611bb9565b915061220e826121a7565b604082019050919050565b60006020820190508181036000830152612232816121f6565b9050919050565b600060408201905061224e6000830185611959565b61225b602083018461198d565b9392505050565b7f4641494c4544204d696e74000000000000000000000000000000000000000000600082015250565b6000612298600b83611bb9565b91506122a382612262565b602082019050919050565b600060208201905081810360008301526122c78161228b565b9050919050565b7f30206e756d626572000000000000000000000000000000000000000000000000600082015250565b6000612304600883611bb9565b915061230f826122ce565b602082019050919050565b60006020820190508181036000830152612333816122f7565b9050919050565b7f5472616e7366657248656c7065723a3a736166655472616e736665723a20747260008201527f616e73666572206661696c656400000000000000000000000000000000000000602082015250565b6000612396602d83611bb9565b91506123a18261233a565b604082019050919050565b600060208201905081810360008301526123c581612389565b9050919050565b7f4641494c4544204275726e000000000000000000000000000000000000000000600082015250565b6000612402600b83611bb9565b915061240d826123cc565b602082019050919050565b60006020820190508181036000830152612431816123f5565b905091905056fe7472616e7366657246726f6d28616464726573732c616464726573732c75696e7432353629a26469706673582212207b54063a2e2b0062ae362c1f46d22249ff2f93018ccc2f3c200de8d4f506dd5a64736f6c634300080f0033",
					"opcodes": "PUSH1 0x80 PUSH1 0x40 MSTORE PUSH1 0x0 PUSH1 0x5 SSTORE CALLVALUE DUP1 ISZERO PUSH3 0x16 JUMPI PUSH1 0x0 DUP1 REVERT JUMPDEST POP PUSH1 0x40 MLOAD PUSH3 0x270A CODESIZE SUB DUP1 PUSH3 0x270A DUP4 CODECOPY DUP2 DUP2 ADD PUSH1 0x40 MSTORE DUP2 ADD SWAP1 PUSH3 0x3C SWAP2 SWAP1 PUSH3 0x1F5 JUMP JUMPDEST CALLER PUSH1 0x0 DUP1 PUSH2 0x100 EXP DUP2 SLOAD DUP2 PUSH20 0xFFFFFFFFFFFFFFFFFFFFFFFFFFFFFFFFFFFFFFFF MUL NOT AND SWAP1 DUP4 PUSH20 0xFFFFFFFFFFFFFFFFFFFFFFFFFFFFFFFFFFFFFFFF AND MUL OR SWAP1 SSTORE POP DUP4 PUSH1 0x1 PUSH1 0x0 PUSH2 0x100 EXP DUP2 SLOAD DUP2 PUSH20 0xFFFFFFFFFFFFFFFFFFFFFFFFFFFFFFFFFFFFFFFF MUL NOT AND SWAP1 DUP4 PUSH20 0xFFFFFFFFFFFFFFFFFFFFFFFFFFFFFFFFFFFFFFFF AND MUL OR SWAP1 SSTORE POP DUP3 PUSH1 0x2 PUSH1 0x0 PUSH2 0x100 EXP DUP2 SLOAD DUP2 PUSH20 0xFFFFFFFFFFFFFFFFFFFFFFFFFFFFFFFFFFFFFFFF MUL NOT AND SWAP1 DUP4 PUSH20 0xFFFFFFFFFFFFFFFFFFFFFFFFFFFFFFFFFFFFFFFF AND MUL OR SWAP1 SSTORE POP DUP2 PUSH1 0x3 PUSH1 0x0 PUSH2 0x100 EXP DUP2 SLOAD DUP2 PUSH20 0xFFFFFFFFFFFFFFFFFFFFFFFFFFFFFFFFFFFFFFFF MUL NOT AND SWAP1 DUP4 PUSH20 0xFFFFFFFFFFFFFFFFFFFFFFFFFFFFFFFFFFFFFFFF AND MUL OR SWAP1 SSTORE POP DUP1 PUSH1 0xB DUP2 SWAP1 SSTORE POP POP POP POP POP PUSH3 0x267 JUMP JUMPDEST PUSH1 0x0 DUP1 REVERT JUMPDEST PUSH1 0x0 PUSH20 0xFFFFFFFFFFFFFFFFFFFFFFFFFFFFFFFFFFFFFFFF DUP3 AND SWAP1 POP SWAP2 SWAP1 POP JUMP JUMPDEST PUSH1 0x0 PUSH3 0x182 DUP3 PUSH3 0x155 JUMP JUMPDEST SWAP1 POP SWAP2 SWAP1 POP JUMP JUMPDEST PUSH3 0x194 DUP2 PUSH3 0x175 JUMP JUMPDEST DUP2 EQ PUSH3 0x1A0 JUMPI PUSH1 0x0 DUP1 REVERT JUMPDEST POP JUMP JUMPDEST PUSH1 0x0 DUP2 MLOAD SWAP1 POP PUSH3 0x1B4 DUP2 PUSH3 0x189 JUMP JUMPDEST SWAP3 SWAP2 POP POP JUMP JUMPDEST PUSH1 0x0 DUP2 SWAP1 POP SWAP2 SWAP1 POP JUMP JUMPDEST PUSH3 0x1CF DUP2 PUSH3 0x1BA JUMP JUMPDEST DUP2 EQ PUSH3 0x1DB JUMPI PUSH1 0x0 DUP1 REVERT JUMPDEST POP JUMP JUMPDEST PUSH1 0x0 DUP2 MLOAD SWAP1 POP PUSH3 0x1EF DUP2 PUSH3 0x1C4 JUMP JUMPDEST SWAP3 SWAP2 POP POP JUMP JUMPDEST PUSH1 0x0 DUP1 PUSH1 0x0 DUP1 PUSH1 0x80 DUP6 DUP8 SUB SLT ISZERO PUSH3 0x212 JUMPI PUSH3 0x211 PUSH3 0x150 JUMP JUMPDEST JUMPDEST PUSH1 0x0 PUSH3 0x222 DUP8 DUP3 DUP9 ADD PUSH3 0x1A3 JUMP JUMPDEST SWAP5 POP POP PUSH1 0x20 PUSH3 0x235 DUP8 DUP3 DUP9 ADD PUSH3 0x1A3 JUMP JUMPDEST SWAP4 POP POP PUSH1 0x40 PUSH3 0x248 DUP8 DUP3 DUP9 ADD PUSH3 0x1A3 JUMP JUMPDEST SWAP3 POP POP PUSH1 0x60 PUSH3 0x25B DUP8 DUP3 DUP9 ADD PUSH3 0x1DE JUMP JUMPDEST SWAP2 POP POP SWAP3 SWAP6 SWAP2 SWAP5 POP SWAP3 POP JUMP JUMPDEST PUSH2 0x2493 DUP1 PUSH3 0x277 PUSH1 0x0 CODECOPY PUSH1 0x0 RETURN INVALID PUSH1 0x80 PUSH1 0x40 MSTORE CALLVALUE DUP1 ISZERO PUSH2 0x10 JUMPI PUSH1 0x0 DUP1 REVERT JUMPDEST POP PUSH1 0x4 CALLDATASIZE LT PUSH2 0xCF JUMPI PUSH1 0x0 CALLDATALOAD PUSH1 0xE0 SHR DUP1 PUSH4 0x77619AC5 GT PUSH2 0x8C JUMPI DUP1 PUSH4 0xA0A986F1 GT PUSH2 0x66 JUMPI DUP1 PUSH4 0xA0A986F1 EQ PUSH2 0x206 JUMPI DUP1 PUSH4 0xB4F40C61 EQ PUSH2 0x224 JUMPI DUP1 PUSH4 0xD21220A7 EQ PUSH2 0x242 JUMPI DUP1 PUSH4 0xDB5159A2 EQ PUSH2 0x260 JUMPI PUSH2 0xCF JUMP JUMPDEST DUP1 PUSH4 0x77619AC5 EQ PUSH2 0x188 JUMPI DUP1 PUSH4 0x8F402B56 EQ PUSH2 0x1B8 JUMPI DUP1 PUSH4 0x9BA613A8 EQ PUSH2 0x1D6 JUMPI PUSH2 0xCF JUMP JUMPDEST DUP1 PUSH4 0xDFE1681 EQ PUSH2 0xD4 JUMPI DUP1 PUSH4 0x18160DDD EQ PUSH2 0xF2 JUMPI DUP1 PUSH4 0x313C06A0 EQ PUSH2 0x110 JUMPI DUP1 PUSH4 0x443CB4BC EQ PUSH2 0x12E JUMPI DUP1 PUSH4 0x5A76F25E EQ PUSH2 0x14C JUMPI DUP1 PUSH4 0x6CAF25CE EQ PUSH2 0x16A JUMPI JUMPDEST PUSH1 0x0 DUP1 REVERT JUMPDEST PUSH2 0xDC PUSH2 0x290 JUMP JUMPDEST PUSH1 0x40 MLOAD PUSH2 0xE9 SWAP2 SWAP1 PUSH2 0x1968 JUMP JUMPDEST PUSH1 0x40 MLOAD DUP1 SWAP2 SUB SWAP1 RETURN JUMPDEST PUSH2 0xFA PUSH2 0x2B6 JUMP JUMPDEST PUSH1 0x40 MLOAD PUSH2 0x107 SWAP2 SWAP1 PUSH2 0x199C JUMP JUMPDEST PUSH1 0x40 MLOAD DUP1 SWAP2 SUB SWAP1 RETURN JUMPDEST PUSH2 0x118 PUSH2 0x2BC JUMP JUMPDEST PUSH1 0x40 MLOAD PUSH2 0x125 SWAP2 SWAP1 PUSH2 0x1968 JUMP JUMPDEST PUSH1 0x40 MLOAD DUP1 SWAP2 SUB SWAP1 RETURN JUMPDEST PUSH2 0x136 PUSH2 0x2E2 JUMP JUMPDEST PUSH1 0x40 MLOAD PUSH2 0x143 SWAP2 SWAP1 PUSH2 0x199C JUMP JUMPDEST PUSH1 0x40 MLOAD DUP1 SWAP2 SUB SWAP1 RETURN JUMPDEST PUSH2 0x154 PUSH2 0x2E8 JUMP JUMPDEST PUSH1 0x40 MLOAD PUSH2 0x161 SWAP2 SWAP1 PUSH2 0x199C JUMP JUMPDEST PUSH1 0x40 MLOAD DUP1 SWAP2 SUB SWAP1 RETURN JUMPDEST PUSH2 0x172 PUSH2 0x2EE JUMP JUMPDEST PUSH1 0x40 MLOAD PUSH2 0x17F SWAP2 SWAP1 PUSH2 0x199C JUMP JUMPDEST PUSH1 0x40 MLOAD DUP1 SWAP2 SUB SWAP1 RETURN JUMPDEST PUSH2 0x1A2 PUSH1 0x4 DUP1 CALLDATASIZE SUB DUP2 ADD SWAP1 PUSH2 0x19D SWAP2 SWAP1 PUSH2 0x1A14 JUMP JUMPDEST PUSH2 0x2F4 JUMP JUMPDEST PUSH1 0x40 MLOAD PUSH2 0x1AF SWAP2 SWAP1 PUSH2 0x1A96 JUMP JUMPDEST PUSH1 0x40 MLOAD DUP1 SWAP2 SUB SWAP1 RETURN JUMPDEST PUSH2 0x1C0 PUSH2 0x83B JUMP JUMPDEST PUSH1 0x40 MLOAD PUSH2 0x1CD SWAP2 SWAP1 PUSH2 0x199C JUMP JUMPDEST PUSH1 0x40 MLOAD DUP1 SWAP2 SUB SWAP1 RETURN JUMPDEST PUSH2 0x1F0 PUSH1 0x4 DUP1 CALLDATASIZE SUB DUP2 ADD SWAP1 PUSH2 0x1EB SWAP2 SWAP1 PUSH2 0x1AB1 JUMP JUMPDEST PUSH2 0x840 JUMP JUMPDEST PUSH1 0x40 MLOAD PUSH2 0x1FD SWAP2 SWAP1 PUSH2 0x1A96 JUMP JUMPDEST PUSH1 0x40 MLOAD DUP1 SWAP2 SUB SWAP1 RETURN JUMPDEST PUSH2 0x20E PUSH2 0xCBB JUMP JUMPDEST PUSH1 0x40 MLOAD PUSH2 0x21B SWAP2 SWAP1 PUSH2 0x199C JUMP JUMPDEST PUSH1 0x40 MLOAD DUP1 SWAP2 SUB SWAP1 RETURN JUMPDEST PUSH2 0x22C PUSH2 0xCC1 JUMP JUMPDEST PUSH1 0x40 MLOAD PUSH2 0x239 SWAP2 SWAP1 PUSH2 0x199C JUMP JUMPDEST PUSH1 0x40 MLOAD DUP1 SWAP2 SUB SWAP1 RETURN JUMPDEST PUSH2 0x24A PUSH2 0xCC7 JUMP JUMPDEST PUSH1 0x40 MLOAD PUSH2 0x257 SWAP2 SWAP1 PUSH2 0x1968 JUMP JUMPDEST PUSH1 0x40 MLOAD DUP1 SWAP2 SUB SWAP1 RETURN JUMPDEST PUSH2 0x27A PUSH1 0x4 DUP1 CALLDATASIZE SUB DUP2 ADD SWAP1 PUSH2 0x275 SWAP2 SWAP1 PUSH2 0x1B2C JUMP JUMPDEST PUSH2 0xCED JUMP JUMPDEST PUSH1 0x40 MLOAD PUSH2 0x287 SWAP2 SWAP1 PUSH2 0x1A96 JUMP JUMPDEST PUSH1 0x40 MLOAD DUP1 SWAP2 SUB SWAP1 RETURN JUMPDEST PUSH1 0x1 PUSH1 0x0 SWAP1 SLOAD SWAP1 PUSH2 0x100 EXP SWAP1 DIV PUSH20 0xFFFFFFFFFFFFFFFFFFFFFFFFFFFFFFFFFFFFFFFF AND DUP2 JUMP JUMPDEST PUSH1 0xA SLOAD DUP2 JUMP JUMPDEST PUSH1 0x3 PUSH1 0x0 SWAP1 SLOAD SWAP1 PUSH2 0x100 EXP SWAP1 DIV PUSH20 0xFFFFFFFFFFFFFFFFFFFFFFFFFFFFFFFFFFFFFFFF AND DUP2 JUMP JUMPDEST PUSH1 0x6 SLOAD DUP2 JUMP JUMPDEST PUSH1 0x7 SLOAD DUP2 JUMP JUMPDEST PUSH1 0x9 SLOAD DUP2 JUMP JUMPDEST PUSH1 0x0 DUP1 PUSH1 0x0 PUSH2 0x301 PUSH2 0x106B JUMP JUMPDEST SWAP2 POP SWAP2 POP PUSH1 0x1 PUSH1 0x0 SWAP1 SLOAD SWAP1 PUSH2 0x100 EXP SWAP1 DIV PUSH20 0xFFFFFFFFFFFFFFFFFFFFFFFFFFFFFFFFFFFFFFFF AND PUSH20 0xFFFFFFFFFFFFFFFFFFFFFFFFFFFFFFFFFFFFFFFF AND DUP8 PUSH20 0xFFFFFFFFFFFFFFFFFFFFFFFFFFFFFFFFFFFFFFFF AND EQ DUP1 ISZERO PUSH2 0x3AF JUMPI POP PUSH1 0x2 PUSH1 0x0 SWAP1 SLOAD SWAP1 PUSH2 0x100 EXP SWAP1 DIV PUSH20 0xFFFFFFFFFFFFFFFFFFFFFFFFFFFFFFFFFFFFFFFF AND PUSH20 0xFFFFFFFFFFFFFFFFFFFFFFFFFFFFFFFFFFFFFFFF AND DUP7 PUSH20 0xFFFFFFFFFFFFFFFFFFFFFFFFFFFFFFFFFFFFFFFF AND EQ JUMPDEST PUSH2 0x3EE JUMPI PUSH1 0x40 MLOAD PUSH32 0x8C379A000000000000000000000000000000000000000000000000000000000 DUP2 MSTORE PUSH1 0x4 ADD PUSH2 0x3E5 SWAP1 PUSH2 0x1C16 JUMP JUMPDEST PUSH1 0x40 MLOAD DUP1 SWAP2 SUB SWAP1 REVERT JUMPDEST DUP4 DUP6 EQ PUSH2 0x430 JUMPI PUSH1 0x40 MLOAD PUSH32 0x8C379A000000000000000000000000000000000000000000000000000000000 DUP2 MSTORE PUSH1 0x4 ADD PUSH2 0x427 SWAP1 PUSH2 0x1C82 JUMP JUMPDEST PUSH1 0x40 MLOAD DUP1 SWAP2 SUB SWAP1 REVERT JUMPDEST PUSH2 0x43C DUP8 CALLER ADDRESS DUP9 PUSH2 0x107C JUMP JUMPDEST PUSH2 0x448 DUP7 CALLER ADDRESS DUP8 PUSH2 0x107C JUMP JUMPDEST PUSH1 0x0 DUP8 PUSH20 0xFFFFFFFFFFFFFFFFFFFFFFFFFFFFFFFFFFFFFFFF AND PUSH4 0x70A08231 ADDRESS PUSH1 0x40 MLOAD DUP3 PUSH4 0xFFFFFFFF AND PUSH1 0xE0 SHL DUP2 MSTORE PUSH1 0x4 ADD PUSH2 0x483 SWAP2 SWAP1 PUSH2 0x1968 JUMP JUMPDEST PUSH1 0x20 PUSH1 0x40 MLOAD DUP1 DUP4 SUB DUP2 DUP7 GAS STATICCALL ISZERO DUP1 ISZERO PUSH2 0x4A0 JUMPI RETURNDATASIZE PUSH1 0x0 DUP1 RETURNDATACOPY RETURNDATASIZE PUSH1 0x0 REVERT JUMPDEST POP POP POP POP PUSH1 0x40 MLOAD RETURNDATASIZE PUSH1 0x1F NOT PUSH1 0x1F DUP3 ADD AND DUP3 ADD DUP1 PUSH1 0x40 MSTORE POP DUP2 ADD SWAP1 PUSH2 0x4C4 SWAP2 SWAP1 PUSH2 0x1CB7 JUMP JUMPDEST SWAP1 POP PUSH1 0x0 DUP8 PUSH20 0xFFFFFFFFFFFFFFFFFFFFFFFFFFFFFFFFFFFFFFFF AND PUSH4 0x70A08231 ADDRESS PUSH1 0x40 MLOAD DUP3 PUSH4 0xFFFFFFFF AND PUSH1 0xE0 SHL DUP2 MSTORE PUSH1 0x4 ADD PUSH2 0x501 SWAP2 SWAP1 PUSH2 0x1968 JUMP JUMPDEST PUSH1 0x20 PUSH1 0x40 MLOAD DUP1 DUP4 SUB DUP2 DUP7 GAS STATICCALL ISZERO DUP1 ISZERO PUSH2 0x51E JUMPI RETURNDATASIZE PUSH1 0x0 DUP1 RETURNDATACOPY RETURNDATASIZE PUSH1 0x0 REVERT JUMPDEST POP POP POP POP PUSH1 0x40 MLOAD RETURNDATASIZE PUSH1 0x1F NOT PUSH1 0x1F DUP3 ADD AND DUP3 ADD DUP1 PUSH1 0x40 MSTORE POP DUP2 ADD SWAP1 PUSH2 0x542 SWAP2 SWAP1 PUSH2 0x1CB7 JUMP JUMPDEST SWAP1 POP PUSH1 0x0 DUP1 PUSH1 0xA SLOAD SUB PUSH2 0x607 JUMPI PUSH2 0x585 PUSH1 0x64 DUP6 DUP5 PUSH2 0x560 SWAP2 SWAP1 PUSH2 0x1D13 JUMP JUMPDEST DUP8 DUP7 PUSH2 0x56C SWAP2 SWAP1 PUSH2 0x1D13 JUMP JUMPDEST PUSH2 0x576 SWAP2 SWAP1 PUSH2 0x1D47 JUMP JUMPDEST PUSH2 0x580 SWAP2 SWAP1 PUSH2 0x1D13 JUMP JUMPDEST PUSH2 0x11F2 JUMP JUMPDEST SWAP1 POP PUSH1 0x0 DUP2 GT PUSH2 0x5CA JUMPI PUSH1 0x40 MLOAD PUSH32 0x8C379A000000000000000000000000000000000000000000000000000000000 DUP2 MSTORE PUSH1 0x4 ADD PUSH2 0x5C1 SWAP1 PUSH2 0x1DED JUMP JUMPDEST PUSH1 0x40 MLOAD DUP1 SWAP2 SUB SWAP1 REVERT JUMPDEST PUSH2 0x5F7 PUSH1 0x3 PUSH1 0x0 SWAP1 SLOAD SWAP1 PUSH2 0x100 EXP SWAP1 DIV PUSH20 0xFFFFFFFFFFFFFFFFFFFFFFFFFFFFFFFFFFFFFFFF AND CALLER DUP4 PUSH2 0x126C JUMP JUMPDEST PUSH2 0x601 DUP11 DUP11 PUSH2 0x13F6 JUMP JUMPDEST POP PUSH2 0x6CA JUMP JUMPDEST PUSH2 0x657 DUP6 PUSH1 0xA SLOAD DUP8 DUP7 PUSH2 0x61A SWAP2 SWAP1 PUSH2 0x1D13 JUMP JUMPDEST PUSH2 0x624 SWAP2 SWAP1 PUSH2 0x1D47 JUMP JUMPDEST PUSH2 0x62E SWAP2 SWAP1 PUSH2 0x1E3C JUMP JUMPDEST DUP6 PUSH1 0xA SLOAD DUP8 DUP7 PUSH2 0x63E SWAP2 SWAP1 PUSH2 0x1D13 JUMP JUMPDEST PUSH2 0x648 SWAP2 SWAP1 PUSH2 0x1D47 JUMP JUMPDEST PUSH2 0x652 SWAP2 SWAP1 PUSH2 0x1E3C JUMP JUMPDEST PUSH2 0x1525 JUMP JUMPDEST SWAP1 POP PUSH1 0x0 DUP2 GT PUSH2 0x69C JUMPI PUSH1 0x40 MLOAD PUSH32 0x8C379A000000000000000000000000000000000000000000000000000000000 DUP2 MSTORE PUSH1 0x4 ADD PUSH2 0x693 SWAP1 PUSH2 0x1DED JUMP JUMPDEST PUSH1 0x40 MLOAD DUP1 SWAP2 SUB SWAP1 REVERT JUMPDEST PUSH2 0x6C9 PUSH1 0x3 PUSH1 0x0 SWAP1 SLOAD SWAP1 PUSH2 0x100 EXP SWAP1 DIV PUSH20 0xFFFFFFFFFFFFFFFFFFFFFFFFFFFFFFFFFFFFFFFF AND CALLER DUP4 PUSH2 0x126C JUMP JUMPDEST JUMPDEST DUP1 PUSH1 0xA PUSH1 0x0 DUP3 DUP3 SLOAD PUSH2 0x6DC SWAP2 SWAP1 PUSH2 0x1E6D JUMP JUMPDEST SWAP3 POP POP DUP2 SWAP1 SSTORE POP PUSH1 0x0 DUP11 PUSH20 0xFFFFFFFFFFFFFFFFFFFFFFFFFFFFFFFFFFFFFFFF AND PUSH4 0x70A08231 ADDRESS PUSH1 0x40 MLOAD DUP3 PUSH4 0xFFFFFFFF AND PUSH1 0xE0 SHL DUP2 MSTORE PUSH1 0x4 ADD PUSH2 0x71E SWAP2 SWAP1 PUSH2 0x1968 JUMP JUMPDEST PUSH1 0x20 PUSH1 0x40 MLOAD DUP1 DUP4 SUB DUP2 DUP7 GAS STATICCALL ISZERO DUP1 ISZERO PUSH2 0x73B JUMPI RETURNDATASIZE PUSH1 0x0 DUP1 RETURNDATACOPY RETURNDATASIZE PUSH1 0x0 REVERT JUMPDEST POP POP POP POP PUSH1 0x40 MLOAD RETURNDATASIZE PUSH1 0x1F NOT PUSH1 0x1F DUP3 ADD AND DUP3 ADD DUP1 PUSH1 0x40 MSTORE POP DUP2 ADD SWAP1 PUSH2 0x75F SWAP2 SWAP1 PUSH2 0x1CB7 JUMP JUMPDEST SWAP1 POP PUSH1 0x0 DUP11 PUSH20 0xFFFFFFFFFFFFFFFFFFFFFFFFFFFFFFFFFFFFFFFF AND PUSH4 0x70A08231 ADDRESS PUSH1 0x40 MLOAD DUP3 PUSH4 0xFFFFFFFF AND PUSH1 0xE0 SHL DUP2 MSTORE PUSH1 0x4 ADD PUSH2 0x79C SWAP2 SWAP1 PUSH2 0x1968 JUMP JUMPDEST PUSH1 0x20 PUSH1 0x40 MLOAD DUP1 DUP4 SUB DUP2 DUP7 GAS STATICCALL ISZERO DUP1 ISZERO PUSH2 0x7B9 JUMPI RETURNDATASIZE PUSH1 0x0 DUP1 RETURNDATACOPY RETURNDATASIZE PUSH1 0x0 REVERT JUMPDEST POP POP POP POP PUSH1 0x40 MLOAD RETURNDATASIZE PUSH1 0x1F NOT PUSH1 0x1F DUP3 ADD AND DUP3 ADD DUP1 PUSH1 0x40 MSTORE POP DUP2 ADD SWAP1 PUSH2 0x7DD SWAP2 SWAP1 PUSH2 0x1CB7 JUMP JUMPDEST SWAP1 POP PUSH2 0x7EB DUP13 DUP13 DUP5 DUP5 PUSH2 0x153E JUMP JUMPDEST PUSH32 0xD2491A9B4FE81A7CD4511E8B7B7743951B061DAD5BED7DA8A7795B080EE08C7E DUP13 DUP13 DUP13 DUP13 PUSH1 0x40 MLOAD PUSH2 0x820 SWAP5 SWAP4 SWAP3 SWAP2 SWAP1 PUSH2 0x1EC3 JUMP JUMPDEST PUSH1 0x40 MLOAD DUP1 SWAP2 SUB SWAP1 LOG1 PUSH1 0x1 SWAP8 POP POP POP POP POP POP POP POP SWAP5 SWAP4 POP POP POP POP JUMP JUMPDEST PUSH1 0x64 DUP2 JUMP JUMPDEST PUSH1 0x0 DUP1 PUSH1 0x0 PUSH2 0x84D PUSH2 0x106B JUMP JUMPDEST SWAP2 POP SWAP2 POP PUSH1 0x1 PUSH1 0x0 SWAP1 SLOAD SWAP1 PUSH2 0x100 EXP SWAP1 DIV PUSH20 0xFFFFFFFFFFFFFFFFFFFFFFFFFFFFFFFFFFFFFFFF AND PUSH20 0xFFFFFFFFFFFFFFFFFFFFFFFFFFFFFFFFFFFFFFFF AND DUP9 PUSH20 0xFFFFFFFFFFFFFFFFFFFFFFFFFFFFFFFFFFFFFFFF AND EQ DUP1 ISZERO PUSH2 0x8FB JUMPI POP PUSH1 0x2 PUSH1 0x0 SWAP1 SLOAD SWAP1 PUSH2 0x100 EXP SWAP1 DIV PUSH20 0xFFFFFFFFFFFFFFFFFFFFFFFFFFFFFFFFFFFFFFFF AND PUSH20 0xFFFFFFFFFFFFFFFFFFFFFFFFFFFFFFFFFFFFFFFF AND DUP8 PUSH20 0xFFFFFFFFFFFFFFFFFFFFFFFFFFFFFFFFFFFFFFFF AND EQ JUMPDEST PUSH2 0x93A JUMPI PUSH1 0x40 MLOAD PUSH32 0x8C379A000000000000000000000000000000000000000000000000000000000 DUP2 MSTORE PUSH1 0x4 ADD PUSH2 0x931 SWAP1 PUSH2 0x1C16 JUMP JUMPDEST PUSH1 0x40 MLOAD DUP1 SWAP2 SUB SWAP1 REVERT JUMPDEST PUSH1 0x0 DUP6 GT DUP1 PUSH2 0x949 JUMPI POP PUSH1 0x0 DUP5 GT JUMPDEST PUSH2 0x988 JUMPI PUSH1 0x40 MLOAD PUSH32 0x8C379A000000000000000000000000000000000000000000000000000000000 DUP2 MSTORE PUSH1 0x4 ADD PUSH2 0x97F SWAP1 PUSH2 0x1F54 JUMP JUMPDEST PUSH1 0x40 MLOAD DUP1 SWAP2 SUB SWAP1 REVERT JUMPDEST PUSH1 0x0 DUP6 EQ DUP1 PUSH2 0x997 JUMPI POP PUSH1 0x0 DUP5 EQ JUMPDEST PUSH2 0x9D6 JUMPI PUSH1 0x40 MLOAD PUSH32 0x8C379A000000000000000000000000000000000000000000000000000000000 DUP2 MSTORE PUSH1 0x4 ADD PUSH2 0x9CD SWAP1 PUSH2 0x1F54 JUMP JUMPDEST PUSH1 0x40 MLOAD DUP1 SWAP2 SUB SWAP1 REVERT JUMPDEST DUP8 PUSH20 0xFFFFFFFFFFFFFFFFFFFFFFFFFFFFFFFFFFFFFFFF AND DUP7 PUSH20 0xFFFFFFFFFFFFFFFFFFFFFFFFFFFFFFFFFFFFFFFF AND EQ ISZERO DUP1 ISZERO PUSH2 0xA3E JUMPI POP DUP7 PUSH20 0xFFFFFFFFFFFFFFFFFFFFFFFFFFFFFFFFFFFFFFFF AND DUP7 PUSH20 0xFFFFFFFFFFFFFFFFFFFFFFFFFFFFFFFFFFFFFFFF AND EQ ISZERO JUMPDEST PUSH2 0xA7D JUMPI PUSH1 0x40 MLOAD PUSH32 0x8C379A000000000000000000000000000000000000000000000000000000000 DUP2 MSTORE PUSH1 0x4 ADD PUSH2 0xA74 SWAP1 PUSH2 0x1C16 JUMP JUMPDEST PUSH1 0x40 MLOAD DUP1 SWAP2 SUB SWAP1 REVERT JUMPDEST PUSH1 0x0 PUSH2 0x3E8 PUSH1 0xB SLOAD DUP8 PUSH2 0xA90 SWAP2 SWAP1 PUSH2 0x1D47 JUMP JUMPDEST PUSH2 0xA9A SWAP2 SWAP1 PUSH2 0x1E3C JUMP JUMPDEST SWAP1 POP PUSH1 0x0 PUSH2 0x3E8 PUSH1 0xB SLOAD DUP8 PUSH2 0xAAF SWAP2 SWAP1 PUSH2 0x1D47 JUMP JUMPDEST PUSH2 0xAB9 SWAP2 SWAP1 PUSH2 0x1E3C JUMP JUMPDEST SWAP1 POP PUSH1 0x0 DUP8 GT DUP1 ISZERO PUSH2 0xACB JUMPI POP PUSH1 0x0 DUP7 EQ JUMPDEST ISZERO PUSH2 0xB0E JUMPI PUSH2 0xB02 DUP10 CALLER ADDRESS PUSH3 0xF4240 PUSH1 0x8 SLOAD DUP8 DUP14 PUSH2 0xAE9 SWAP2 SWAP1 PUSH2 0x1E6D JUMP JUMPDEST PUSH2 0xAF3 SWAP2 SWAP1 PUSH2 0x1D47 JUMP JUMPDEST PUSH2 0xAFD SWAP2 SWAP1 PUSH2 0x1E3C JUMP JUMPDEST PUSH2 0x107C JUMP JUMPDEST PUSH2 0xB0D DUP11 DUP10 DUP10 PUSH2 0x1667 JUMP JUMPDEST JUMPDEST PUSH1 0x0 DUP7 GT DUP1 ISZERO PUSH2 0xB1E JUMPI POP PUSH1 0x0 DUP8 EQ JUMPDEST ISZERO PUSH2 0xB61 JUMPI PUSH2 0xB55 DUP11 CALLER ADDRESS PUSH3 0xF4240 PUSH1 0x9 SLOAD DUP7 DUP13 PUSH2 0xB3C SWAP2 SWAP1 PUSH2 0x1E6D JUMP JUMPDEST PUSH2 0xB46 SWAP2 SWAP1 PUSH2 0x1D47 JUMP JUMPDEST PUSH2 0xB50 SWAP2 SWAP1 PUSH2 0x1E3C JUMP JUMPDEST PUSH2 0x107C JUMP JUMPDEST PUSH2 0xB60 DUP10 DUP10 DUP9 PUSH2 0x1667 JUMP JUMPDEST JUMPDEST PUSH1 0x0 DUP11 PUSH20 0xFFFFFFFFFFFFFFFFFFFFFFFFFFFFFFFFFFFFFFFF AND PUSH4 0x70A08231 ADDRESS PUSH1 0x40 MLOAD DUP3 PUSH4 0xFFFFFFFF AND PUSH1 0xE0 SHL DUP2 MSTORE PUSH1 0x4 ADD PUSH2 0xB9C SWAP2 SWAP1 PUSH2 0x1968 JUMP JUMPDEST PUSH1 0x20 PUSH1 0x40 MLOAD DUP1 DUP4 SUB DUP2 DUP7 GAS STATICCALL ISZERO DUP1 ISZERO PUSH2 0xBB9 JUMPI RETURNDATASIZE PUSH1 0x0 DUP1 RETURNDATACOPY RETURNDATASIZE PUSH1 0x0 REVERT JUMPDEST POP POP POP POP PUSH1 0x40 MLOAD RETURNDATASIZE PUSH1 0x1F NOT PUSH1 0x1F DUP3 ADD AND DUP3 ADD DUP1 PUSH1 0x40 MSTORE POP DUP2 ADD SWAP1 PUSH2 0xBDD SWAP2 SWAP1 PUSH2 0x1CB7 JUMP JUMPDEST SWAP1 POP PUSH1 0x0 DUP11 PUSH20 0xFFFFFFFFFFFFFFFFFFFFFFFFFFFFFFFFFFFFFFFF AND PUSH4 0x70A08231 ADDRESS PUSH1 0x40 MLOAD DUP3 PUSH4 0xFFFFFFFF AND PUSH1 0xE0 SHL DUP2 MSTORE PUSH1 0x4 ADD PUSH2 0xC1A SWAP2 SWAP1 PUSH2 0x1968 JUMP JUMPDEST PUSH1 0x20 PUSH1 0x40 MLOAD DUP1 DUP4 SUB DUP2 DUP7 GAS STATICCALL ISZERO DUP1 ISZERO PUSH2 0xC37 JUMPI RETURNDATASIZE PUSH1 0x0 DUP1 RETURNDATACOPY RETURNDATASIZE PUSH1 0x0 REVERT JUMPDEST POP POP POP POP PUSH1 0x40 MLOAD RETURNDATASIZE PUSH1 0x1F NOT PUSH1 0x1F DUP3 ADD AND DUP3 ADD DUP1 PUSH1 0x40 MSTORE POP DUP2 ADD SWAP1 PUSH2 0xC5B SWAP2 SWAP1 PUSH2 0x1CB7 JUMP JUMPDEST SWAP1 POP PUSH2 0xC69 DUP13 DUP13 DUP5 DUP5 PUSH2 0x153E JUMP JUMPDEST PUSH32 0x3070708CDB5D7D3931BE8443F49F7EC529E2BBE770B676E3C0CC40E158C5D039 DUP13 DUP13 DUP13 DUP13 DUP13 PUSH1 0x40 MLOAD PUSH2 0xCA0 SWAP6 SWAP5 SWAP4 SWAP3 SWAP2 SWAP1 PUSH2 0x1F74 JUMP JUMPDEST PUSH1 0x40 MLOAD DUP1 SWAP2 SUB SWAP1 LOG1 PUSH1 0x1 SWAP7 POP POP POP POP POP POP POP SWAP6 SWAP5 POP POP POP POP POP JUMP JUMPDEST PUSH1 0x8 SLOAD DUP2 JUMP JUMPDEST PUSH1 0x4 SLOAD DUP2 JUMP JUMPDEST PUSH1 0x2 PUSH1 0x0 SWAP1 SLOAD SWAP1 PUSH2 0x100 EXP SWAP1 DIV PUSH20 0xFFFFFFFFFFFFFFFFFFFFFFFFFFFFFFFFFFFFFFFF AND DUP2 JUMP JUMPDEST PUSH1 0x0 DUP1 PUSH1 0x0 PUSH2 0xCFA PUSH2 0x106B JUMP JUMPDEST SWAP2 POP SWAP2 POP PUSH1 0x1 PUSH1 0x0 SWAP1 SLOAD SWAP1 PUSH2 0x100 EXP SWAP1 DIV PUSH20 0xFFFFFFFFFFFFFFFFFFFFFFFFFFFFFFFFFFFFFFFF AND PUSH20 0xFFFFFFFFFFFFFFFFFFFFFFFFFFFFFFFFFFFFFFFF AND DUP10 PUSH20 0xFFFFFFFFFFFFFFFFFFFFFFFFFFFFFFFFFFFFFFFF AND EQ DUP1 ISZERO PUSH2 0xDA8 JUMPI POP PUSH1 0x2 PUSH1 0x0 SWAP1 SLOAD SWAP1 PUSH2 0x100 EXP SWAP1 DIV PUSH20 0xFFFFFFFFFFFFFFFFFFFFFFFFFFFFFFFFFFFFFFFF AND PUSH20 0xFFFFFFFFFFFFFFFFFFFFFFFFFFFFFFFFFFFFFFFF AND DUP9 PUSH20 0xFFFFFFFFFFFFFFFFFFFFFFFFFFFFFFFFFFFFFFFF AND EQ JUMPDEST PUSH2 0xDE7 JUMPI PUSH1 0x40 MLOAD PUSH32 0x8C379A000000000000000000000000000000000000000000000000000000000 DUP2 MSTORE PUSH1 0x4 ADD PUSH2 0xDDE SWAP1 PUSH2 0x1C16 JUMP JUMPDEST PUSH1 0x40 MLOAD DUP1 SWAP2 SUB SWAP1 REVERT JUMPDEST DUP4 DUP6 EQ PUSH2 0xE29 JUMPI PUSH1 0x40 MLOAD PUSH32 0x8C379A000000000000000000000000000000000000000000000000000000000 DUP2 MSTORE PUSH1 0x4 ADD PUSH2 0xE20 SWAP1 PUSH2 0x1C82 JUMP JUMPDEST PUSH1 0x40 MLOAD DUP1 SWAP2 SUB SWAP1 REVERT JUMPDEST PUSH1 0x0 PUSH1 0xA SLOAD DUP4 DUP9 PUSH2 0xE3A SWAP2 SWAP1 PUSH2 0x1D47 JUMP JUMPDEST PUSH2 0xE44 SWAP2 SWAP1 PUSH2 0x1E3C JUMP JUMPDEST SWAP1 POP PUSH1 0x0 PUSH1 0xA SLOAD DUP4 DUP10 PUSH2 0xE57 SWAP2 SWAP1 PUSH2 0x1D47 JUMP JUMPDEST PUSH2 0xE61 SWAP2 SWAP1 PUSH2 0x1E3C JUMP JUMPDEST SWAP1 POP PUSH1 0x0 DUP3 GT DUP1 ISZERO PUSH2 0xE73 JUMPI POP PUSH1 0x0 DUP2 GT JUMPDEST PUSH2 0xEB2 JUMPI PUSH1 0x40 MLOAD PUSH32 0x8C379A000000000000000000000000000000000000000000000000000000000 DUP2 MSTORE PUSH1 0x4 ADD PUSH2 0xEA9 SWAP1 PUSH2 0x2013 JUMP JUMPDEST PUSH1 0x40 MLOAD DUP1 SWAP2 SUB SWAP1 REVERT JUMPDEST PUSH2 0xEDF PUSH1 0x3 PUSH1 0x0 SWAP1 SLOAD SWAP1 PUSH2 0x100 EXP SWAP1 DIV PUSH20 0xFFFFFFFFFFFFFFFFFFFFFFFFFFFFFFFFFFFFFFFF AND DUP11 DUP11 PUSH2 0x179D JUMP JUMPDEST PUSH2 0xEEB DUP12 ADDRESS DUP12 DUP6 PUSH2 0x107C JUMP JUMPDEST PUSH2 0xEF7 DUP11 ADDRESS DUP12 DUP5 PUSH2 0x107C JUMP JUMPDEST DUP8 PUSH1 0xA PUSH1 0x0 DUP3 DUP3 SLOAD PUSH2 0xF09 SWAP2 SWAP1 PUSH2 0x1D13 JUMP JUMPDEST SWAP3 POP POP DUP2 SWAP1 SSTORE POP PUSH1 0x0 DUP12 PUSH20 0xFFFFFFFFFFFFFFFFFFFFFFFFFFFFFFFFFFFFFFFF AND PUSH4 0x70A08231 ADDRESS PUSH1 0x40 MLOAD DUP3 PUSH4 0xFFFFFFFF AND PUSH1 0xE0 SHL DUP2 MSTORE PUSH1 0x4 ADD PUSH2 0xF4B SWAP2 SWAP1 PUSH2 0x1968 JUMP JUMPDEST PUSH1 0x20 PUSH1 0x40 MLOAD DUP1 DUP4 SUB DUP2 DUP7 GAS STATICCALL ISZERO DUP1 ISZERO PUSH2 0xF68 JUMPI RETURNDATASIZE PUSH1 0x0 DUP1 RETURNDATACOPY RETURNDATASIZE PUSH1 0x0 REVERT JUMPDEST POP POP POP POP PUSH1 0x40 MLOAD RETURNDATASIZE PUSH1 0x1F NOT PUSH1 0x1F DUP3 ADD AND DUP3 ADD DUP1 PUSH1 0x40 MSTORE POP DUP2 ADD SWAP1 PUSH2 0xF8C SWAP2 SWAP1 PUSH2 0x1CB7 JUMP JUMPDEST SWAP1 POP PUSH1 0x0 DUP12 PUSH20 0xFFFFFFFFFFFFFFFFFFFFFFFFFFFFFFFFFFFFFFFF AND PUSH4 0x70A08231 ADDRESS PUSH1 0x40 MLOAD DUP3 PUSH4 0xFFFFFFFF AND PUSH1 0xE0 SHL DUP2 MSTORE PUSH1 0x4 ADD PUSH2 0xFC9 SWAP2 SWAP1 PUSH2 0x1968 JUMP JUMPDEST PUSH1 0x20 PUSH1 0x40 MLOAD DUP1 DUP4 SUB DUP2 DUP7 GAS STATICCALL ISZERO DUP1 ISZERO PUSH2 0xFE6 JUMPI RETURNDATASIZE PUSH1 0x0 DUP1 RETURNDATACOPY RETURNDATASIZE PUSH1 0x0 REVERT JUMPDEST POP POP POP POP PUSH1 0x40 MLOAD RETURNDATASIZE PUSH1 0x1F NOT PUSH1 0x1F DUP3 ADD AND DUP3 ADD DUP1 PUSH1 0x40 MSTORE POP DUP2 ADD SWAP1 PUSH2 0x100A SWAP2 SWAP1 PUSH2 0x1CB7 JUMP JUMPDEST SWAP1 POP PUSH2 0x1018 DUP14 DUP14 DUP5 DUP5 PUSH2 0x153E JUMP JUMPDEST PUSH32 0x95B8FE9BA38A505097B9341887DE8716D6F3F3BA79EF0ECC02F35AD6E30585D6 DUP14 DUP14 DUP9 DUP9 DUP15 PUSH1 0x40 MLOAD PUSH2 0x104F SWAP6 SWAP5 SWAP4 SWAP3 SWAP2 SWAP1 PUSH2 0x2033 JUMP JUMPDEST PUSH1 0x40 MLOAD DUP1 SWAP2 SUB SWAP1 LOG1 PUSH1 0x1 SWAP7 POP POP POP POP POP POP POP SWAP7 SWAP6 POP POP POP POP POP POP JUMP JUMPDEST PUSH1 0x0 DUP1 PUSH1 0x6 SLOAD SWAP2 POP PUSH1 0x7 SLOAD SWAP1 POP SWAP1 SWAP2 JUMP JUMPDEST PUSH1 0x0 PUSH1 0x40 MLOAD DUP1 PUSH1 0x60 ADD PUSH1 0x40 MSTORE DUP1 PUSH1 0x25 DUP2 MSTORE PUSH1 0x20 ADD PUSH2 0x2439 PUSH1 0x25 SWAP2 CODECOPY DUP1 MLOAD SWAP1 PUSH1 0x20 ADD KECCAK256 SWAP1 POP PUSH1 0x0 DUP1 DUP7 PUSH20 0xFFFFFFFFFFFFFFFFFFFFFFFFFFFFFFFFFFFFFFFF AND DUP4 DUP8 DUP8 DUP8 PUSH1 0x40 MLOAD PUSH1 0x24 ADD PUSH2 0x10D0 SWAP4 SWAP3 SWAP2 SWAP1 PUSH2 0x2086 JUMP JUMPDEST PUSH1 0x40 MLOAD PUSH1 0x20 DUP2 DUP4 SUB SUB DUP2 MSTORE SWAP1 PUSH1 0x40 MSTORE SWAP1 PUSH28 0xFFFFFFFFFFFFFFFFFFFFFFFFFFFFFFFFFFFFFFFFFFFFFFFFFFFFFFFF NOT AND PUSH1 0x20 DUP3 ADD DUP1 MLOAD PUSH28 0xFFFFFFFFFFFFFFFFFFFFFFFFFFFFFFFFFFFFFFFFFFFFFFFFFFFFFFFF DUP4 DUP2 DUP4 AND OR DUP4 MSTORE POP POP POP POP PUSH1 0x40 MLOAD PUSH2 0x113A SWAP2 SWAP1 PUSH2 0x2137 JUMP JUMPDEST PUSH1 0x0 PUSH1 0x40 MLOAD DUP1 DUP4 SUB DUP2 PUSH1 0x0 DUP7 GAS CALL SWAP2 POP POP RETURNDATASIZE DUP1 PUSH1 0x0 DUP2 EQ PUSH2 0x1177 JUMPI PUSH1 0x40 MLOAD SWAP2 POP PUSH1 0x1F NOT PUSH1 0x3F RETURNDATASIZE ADD AND DUP3 ADD PUSH1 0x40 MSTORE RETURNDATASIZE DUP3 MSTORE RETURNDATASIZE PUSH1 0x0 PUSH1 0x20 DUP5 ADD RETURNDATACOPY PUSH2 0x117C JUMP JUMPDEST PUSH1 0x60 SWAP2 POP JUMPDEST POP SWAP2 POP SWAP2 POP DUP2 DUP1 ISZERO PUSH2 0x11AA JUMPI POP PUSH1 0x0 DUP2 MLOAD EQ DUP1 PUSH2 0x11A9 JUMPI POP DUP1 DUP1 PUSH1 0x20 ADD SWAP1 MLOAD DUP2 ADD SWAP1 PUSH2 0x11A8 SWAP2 SWAP1 PUSH2 0x217A JUMP JUMPDEST JUMPDEST JUMPDEST PUSH2 0x11E9 JUMPI PUSH1 0x40 MLOAD PUSH32 0x8C379A000000000000000000000000000000000000000000000000000000000 DUP2 MSTORE PUSH1 0x4 ADD PUSH2 0x11E0 SWAP1 PUSH2 0x2219 JUMP JUMPDEST PUSH1 0x40 MLOAD DUP1 SWAP2 SUB SWAP1 REVERT JUMPDEST POP POP POP POP POP POP POP JUMP JUMPDEST PUSH1 0x0 PUSH1 0x3 DUP3 GT ISZERO PUSH2 0x1259 JUMPI DUP2 SWAP1 POP PUSH1 0x0 PUSH1 0x1 PUSH1 0x2 DUP5 PUSH2 0x1211 SWAP2 SWAP1 PUSH2 0x1E3C JUMP JUMPDEST PUSH2 0x121B SWAP2 SWAP1 PUSH2 0x1E6D JUMP JUMPDEST SWAP1 POP JUMPDEST DUP2 DUP2 LT ISZERO PUSH2 0x1253 JUMPI DUP1 SWAP2 POP PUSH1 0x2 DUP2 DUP3 DUP6 PUSH2 0x1238 SWAP2 SWAP1 PUSH2 0x1E3C JUMP JUMPDEST PUSH2 0x1242 SWAP2 SWAP1 PUSH2 0x1E6D JUMP JUMPDEST PUSH2 0x124C SWAP2 SWAP1 PUSH2 0x1E3C JUMP JUMPDEST SWAP1 POP PUSH2 0x121E JUMP JUMPDEST POP PUSH2 0x1267 JUMP JUMPDEST PUSH1 0x0 DUP3 EQ PUSH2 0x1266 JUMPI PUSH1 0x1 SWAP1 POP JUMPDEST JUMPDEST SWAP2 SWAP1 POP JUMP JUMPDEST PUSH1 0x0 DUP1 DUP5 PUSH20 0xFFFFFFFFFFFFFFFFFFFFFFFFFFFFFFFFFFFFFFFF AND PUSH1 0x40 MLOAD DUP1 PUSH1 0x40 ADD PUSH1 0x40 MSTORE DUP1 PUSH1 0x15 DUP2 MSTORE PUSH1 0x20 ADD PUSH32 0x6D696E7428616464726573732C75696E74323536290000000000000000000000 DUP2 MSTORE POP DUP1 MLOAD SWAP1 PUSH1 0x20 ADD KECCAK256 DUP6 DUP6 PUSH1 0x40 MLOAD PUSH1 0x24 ADD PUSH2 0x12D6 SWAP3 SWAP2 SWAP1 PUSH2 0x2239 JUMP JUMPDEST PUSH1 0x40 MLOAD PUSH1 0x20 DUP2 DUP4 SUB SUB DUP2 MSTORE SWAP1 PUSH1 0x40 MSTORE SWAP1 PUSH28 0xFFFFFFFFFFFFFFFFFFFFFFFFFFFFFFFFFFFFFFFFFFFFFFFFFFFFFFFF NOT AND PUSH1 0x20 DUP3 ADD DUP1 MLOAD PUSH28 0xFFFFFFFFFFFFFFFFFFFFFFFFFFFFFFFFFFFFFFFFFFFFFFFFFFFFFFFF DUP4 DUP2 DUP4 AND OR DUP4 MSTORE POP POP POP POP PUSH1 0x40 MLOAD PUSH2 0x1340 SWAP2 SWAP1 PUSH2 0x2137 JUMP JUMPDEST PUSH1 0x0 PUSH1 0x40 MLOAD DUP1 DUP4 SUB DUP2 PUSH1 0x0 DUP7 GAS CALL SWAP2 POP POP RETURNDATASIZE DUP1 PUSH1 0x0 DUP2 EQ PUSH2 0x137D JUMPI PUSH1 0x40 MLOAD SWAP2 POP PUSH1 0x1F NOT PUSH1 0x3F RETURNDATASIZE ADD AND DUP3 ADD PUSH1 0x40 MSTORE RETURNDATASIZE DUP3 MSTORE RETURNDATASIZE PUSH1 0x0 PUSH1 0x20 DUP5 ADD RETURNDATACOPY PUSH2 0x1382 JUMP JUMPDEST PUSH1 0x60 SWAP2 POP JUMPDEST POP SWAP2 POP SWAP2 POP DUP2 DUP1 ISZERO PUSH2 0x13B0 JUMPI POP PUSH1 0x0 DUP2 MLOAD EQ DUP1 PUSH2 0x13AF JUMPI POP DUP1 DUP1 PUSH1 0x20 ADD SWAP1 MLOAD DUP2 ADD SWAP1 PUSH2 0x13AE SWAP2 SWAP1 PUSH2 0x217A JUMP JUMPDEST JUMPDEST JUMPDEST PUSH2 0x13EF JUMPI PUSH1 0x40 MLOAD PUSH32 0x8C379A000000000000000000000000000000000000000000000000000000000 DUP2 MSTORE PUSH1 0x4 ADD PUSH2 0x13E6 SWAP1 PUSH2 0x22AE JUMP JUMPDEST PUSH1 0x40 MLOAD DUP1 SWAP2 SUB SWAP1 REVERT JUMPDEST POP POP POP POP POP JUMP JUMPDEST PUSH1 0x0 DUP1 DUP4 PUSH20 0xFFFFFFFFFFFFFFFFFFFFFFFFFFFFFFFFFFFFFFFF AND PUSH4 0x70A08231 ADDRESS PUSH1 0x40 MLOAD DUP3 PUSH4 0xFFFFFFFF AND PUSH1 0xE0 SHL DUP2 MSTORE PUSH1 0x4 ADD PUSH2 0x1432 SWAP2 SWAP1 PUSH2 0x1968 JUMP JUMPDEST PUSH1 0x20 PUSH1 0x40 MLOAD DUP1 DUP4 SUB DUP2 DUP7 GAS STATICCALL ISZERO DUP1 ISZERO PUSH2 0x144F JUMPI RETURNDATASIZE PUSH1 0x0 DUP1 RETURNDATACOPY RETURNDATASIZE PUSH1 0x0 REVERT JUMPDEST POP POP POP POP PUSH1 0x40 MLOAD RETURNDATASIZE PUSH1 0x1F NOT PUSH1 0x1F DUP3 ADD AND DUP3 ADD DUP1 PUSH1 0x40 MSTORE POP DUP2 ADD SWAP1 PUSH2 0x1473 SWAP2 SWAP1 PUSH2 0x1CB7 JUMP JUMPDEST SWAP1 POP PUSH1 0x0 DUP4 PUSH20 0xFFFFFFFFFFFFFFFFFFFFFFFFFFFFFFFFFFFFFFFF AND PUSH4 0x70A08231 ADDRESS PUSH1 0x40 MLOAD DUP3 PUSH4 0xFFFFFFFF AND PUSH1 0xE0 SHL DUP2 MSTORE PUSH1 0x4 ADD PUSH2 0x14B0 SWAP2 SWAP1 PUSH2 0x1968 JUMP JUMPDEST PUSH1 0x20 PUSH1 0x40 MLOAD DUP1 DUP4 SUB DUP2 DUP7 GAS STATICCALL ISZERO DUP1 ISZERO PUSH2 0x14CD JUMPI RETURNDATASIZE PUSH1 0x0 DUP1 RETURNDATACOPY RETURNDATASIZE PUSH1 0x0 REVERT JUMPDEST POP POP POP POP PUSH1 0x40 MLOAD RETURNDATASIZE PUSH1 0x1F NOT PUSH1 0x1F DUP3 ADD AND DUP3 ADD DUP1 PUSH1 0x40 MSTORE POP DUP2 ADD SWAP1 PUSH2 0x14F1 SWAP2 SWAP1 PUSH2 0x1CB7 JUMP JUMPDEST SWAP1 POP PUSH1 0x0 PUSH1 0x5 SLOAD SUB PUSH2 0x1518 JUMPI DUP1 DUP3 PUSH2 0x1509 SWAP2 SWAP1 PUSH2 0x1D47 JUMP JUMPDEST PUSH1 0x4 DUP2 SWAP1 SSTORE POP PUSH1 0x1 PUSH1 0x5 DUP2 SWAP1 SSTORE POP JUMPDEST PUSH1 0x4 SLOAD SWAP3 POP POP POP SWAP3 SWAP2 POP POP JUMP JUMPDEST PUSH1 0x0 DUP2 DUP4 LT PUSH2 0x1534 JUMPI DUP2 PUSH2 0x1536 JUMP JUMPDEST DUP3 JUMPDEST SWAP1 POP SWAP3 SWAP2 POP POP JUMP JUMPDEST PUSH1 0x0 DUP3 LT ISZERO DUP1 ISZERO PUSH2 0x1550 JUMPI POP PUSH1 0x0 DUP2 LT ISZERO JUMPDEST PUSH2 0x158F JUMPI PUSH1 0x40 MLOAD PUSH32 0x8C379A000000000000000000000000000000000000000000000000000000000 DUP2 MSTORE PUSH1 0x4 ADD PUSH2 0x1586 SWAP1 PUSH2 0x231A JUMP JUMPDEST PUSH1 0x40 MLOAD DUP1 SWAP2 SUB SWAP1 REVERT JUMPDEST PUSH1 0x0 DUP3 EQ ISZERO DUP1 ISZERO PUSH2 0x15A1 JUMPI POP PUSH1 0x0 DUP2 EQ ISZERO JUMPDEST ISZERO PUSH2 0x15EB JUMPI DUP2 PUSH3 0xF4240 DUP3 PUSH2 0x15B6 SWAP2 SWAP1 PUSH2 0x1D47 JUMP JUMPDEST PUSH2 0x15C0 SWAP2 SWAP1 PUSH2 0x1E3C JUMP JUMPDEST PUSH1 0x8 DUP2 SWAP1 SSTORE POP DUP1 PUSH3 0xF4240 DUP4 PUSH2 0x15D6 SWAP2 SWAP1 PUSH2 0x1D47 JUMP JUMPDEST PUSH2 0x15E0 SWAP2 SWAP1 PUSH2 0x1E3C JUMP JUMPDEST PUSH1 0x9 DUP2 SWAP1 SSTORE POP PUSH2 0x1612 JUMP JUMPDEST PUSH1 0x0 DUP3 EQ DUP1 ISZERO PUSH2 0x15FB JUMPI POP PUSH1 0x0 DUP2 EQ JUMPDEST ISZERO PUSH2 0x1611 JUMPI PUSH1 0x0 PUSH1 0x8 DUP2 SWAP1 SSTORE POP PUSH1 0x0 PUSH1 0x9 DUP2 SWAP1 SSTORE POP JUMPDEST JUMPDEST DUP2 PUSH1 0x6 DUP2 SWAP1 SSTORE POP DUP1 PUSH1 0x7 DUP2 SWAP1 SSTORE POP PUSH32 0xD4BDE8444971B7416B5F51C90F544D2FE2D0C1EDDDD83BD5FE8646179341DC99 DUP5 DUP5 PUSH1 0x6 SLOAD PUSH1 0x7 SLOAD PUSH1 0x40 MLOAD PUSH2 0x1659 SWAP5 SWAP4 SWAP3 SWAP2 SWAP1 PUSH2 0x1EC3 JUMP JUMPDEST PUSH1 0x40 MLOAD DUP1 SWAP2 SUB SWAP1 LOG1 POP POP POP POP JUMP JUMPDEST PUSH1 0x0 DUP1 DUP5 PUSH20 0xFFFFFFFFFFFFFFFFFFFFFFFFFFFFFFFFFFFFFFFF AND PUSH4 0xA9059CBB DUP6 DUP6 PUSH1 0x40 MLOAD PUSH1 0x24 ADD PUSH2 0x1699 SWAP3 SWAP2 SWAP1 PUSH2 0x2239 JUMP JUMPDEST PUSH1 0x40 MLOAD PUSH1 0x20 DUP2 DUP4 SUB SUB DUP2 MSTORE SWAP1 PUSH1 0x40 MSTORE SWAP1 PUSH1 0xE0 SHL PUSH1 0x20 DUP3 ADD DUP1 MLOAD PUSH28 0xFFFFFFFFFFFFFFFFFFFFFFFFFFFFFFFFFFFFFFFFFFFFFFFFFFFFFFFF DUP4 DUP2 DUP4 AND OR DUP4 MSTORE POP POP POP POP PUSH1 0x40 MLOAD PUSH2 0x16E7 SWAP2 SWAP1 PUSH2 0x2137 JUMP JUMPDEST PUSH1 0x0 PUSH1 0x40 MLOAD DUP1 DUP4 SUB DUP2 PUSH1 0x0 DUP7 GAS CALL SWAP2 POP POP RETURNDATASIZE DUP1 PUSH1 0x0 DUP2 EQ PUSH2 0x1724 JUMPI PUSH1 0x40 MLOAD SWAP2 POP PUSH1 0x1F NOT PUSH1 0x3F RETURNDATASIZE ADD AND DUP3 ADD PUSH1 0x40 MSTORE RETURNDATASIZE DUP3 MSTORE RETURNDATASIZE PUSH1 0x0 PUSH1 0x20 DUP5 ADD RETURNDATACOPY PUSH2 0x1729 JUMP JUMPDEST PUSH1 0x60 SWAP2 POP JUMPDEST POP SWAP2 POP SWAP2 POP DUP2 DUP1 ISZERO PUSH2 0x1757 JUMPI POP PUSH1 0x0 DUP2 MLOAD EQ DUP1 PUSH2 0x1756 JUMPI POP DUP1 DUP1 PUSH1 0x20 ADD SWAP1 MLOAD DUP2 ADD SWAP1 PUSH2 0x1755 SWAP2 SWAP1 PUSH2 0x217A JUMP JUMPDEST JUMPDEST JUMPDEST PUSH2 0x1796 JUMPI PUSH1 0x40 MLOAD PUSH32 0x8C379A000000000000000000000000000000000000000000000000000000000 DUP2 MSTORE PUSH1 0x4 ADD PUSH2 0x178D SWAP1 PUSH2 0x23AC JUMP JUMPDEST PUSH1 0x40 MLOAD DUP1 SWAP2 SUB SWAP1 REVERT JUMPDEST POP POP POP POP POP JUMP JUMPDEST PUSH1 0x0 DUP1 DUP5 PUSH20 0xFFFFFFFFFFFFFFFFFFFFFFFFFFFFFFFFFFFFFFFF AND PUSH1 0x40 MLOAD DUP1 PUSH1 0x40 ADD PUSH1 0x40 MSTORE DUP1 PUSH1 0x15 DUP2 MSTORE PUSH1 0x20 ADD PUSH32 0x6275726E28616464726573732C75696E74323536290000000000000000000000 DUP2 MSTORE POP DUP1 MLOAD SWAP1 PUSH1 0x20 ADD KECCAK256 DUP6 DUP6 PUSH1 0x40 MLOAD PUSH1 0x24 ADD PUSH2 0x1807 SWAP3 SWAP2 SWAP1 PUSH2 0x2239 JUMP JUMPDEST PUSH1 0x40 MLOAD PUSH1 0x20 DUP2 DUP4 SUB SUB DUP2 MSTORE SWAP1 PUSH1 0x40 MSTORE SWAP1 PUSH28 0xFFFFFFFFFFFFFFFFFFFFFFFFFFFFFFFFFFFFFFFFFFFFFFFFFFFFFFFF NOT AND PUSH1 0x20 DUP3 ADD DUP1 MLOAD PUSH28 0xFFFFFFFFFFFFFFFFFFFFFFFFFFFFFFFFFFFFFFFFFFFFFFFFFFFFFFFF DUP4 DUP2 DUP4 AND OR DUP4 MSTORE POP POP POP POP PUSH1 0x40 MLOAD PUSH2 0x1871 SWAP2 SWAP1 PUSH2 0x2137 JUMP JUMPDEST PUSH1 0x0 PUSH1 0x40 MLOAD DUP1 DUP4 SUB DUP2 PUSH1 0x0 DUP7 GAS CALL SWAP2 POP POP RETURNDATASIZE DUP1 PUSH1 0x0 DUP2 EQ PUSH2 0x18AE JUMPI PUSH1 0x40 MLOAD SWAP2 POP PUSH1 0x1F NOT PUSH1 0x3F RETURNDATASIZE ADD AND DUP3 ADD PUSH1 0x40 MSTORE RETURNDATASIZE DUP3 MSTORE RETURNDATASIZE PUSH1 0x0 PUSH1 0x20 DUP5 ADD RETURNDATACOPY PUSH2 0x18B3 JUMP JUMPDEST PUSH1 0x60 SWAP2 POP JUMPDEST POP SWAP2 POP SWAP2 POP DUP2 DUP1 ISZERO PUSH2 0x18E1 JUMPI POP PUSH1 0x0 DUP2 MLOAD EQ DUP1 PUSH2 0x18E0 JUMPI POP DUP1 DUP1 PUSH1 0x20 ADD SWAP1 MLOAD DUP2 ADD SWAP1 PUSH2 0x18DF SWAP2 SWAP1 PUSH2 0x217A JUMP JUMPDEST JUMPDEST JUMPDEST PUSH2 0x1920 JUMPI PUSH1 0x40 MLOAD PUSH32 0x8C379A000000000000000000000000000000000000000000000000000000000 DUP2 MSTORE PUSH1 0x4 ADD PUSH2 0x1917 SWAP1 PUSH2 0x2418 JUMP JUMPDEST PUSH1 0x40 MLOAD DUP1 SWAP2 SUB SWAP1 REVERT JUMPDEST POP POP POP POP POP JUMP JUMPDEST PUSH1 0x0 PUSH20 0xFFFFFFFFFFFFFFFFFFFFFFFFFFFFFFFFFFFFFFFF DUP3 AND SWAP1 POP SWAP2 SWAP1 POP JUMP JUMPDEST PUSH1 0x0 PUSH2 0x1952 DUP3 PUSH2 0x1927 JUMP JUMPDEST SWAP1 POP SWAP2 SWAP1 POP JUMP JUMPDEST PUSH2 0x1962 DUP2 PUSH2 0x1947 JUMP JUMPDEST DUP3 MSTORE POP POP JUMP JUMPDEST PUSH1 0x0 PUSH1 0x20 DUP3 ADD SWAP1 POP PUSH2 0x197D PUSH1 0x0 DUP4 ADD DUP5 PUSH2 0x1959 JUMP JUMPDEST SWAP3 SWAP2 POP POP JUMP JUMPDEST PUSH1 0x0 DUP2 SWAP1 POP SWAP2 SWAP1 POP JUMP JUMPDEST PUSH2 0x1996 DUP2 PUSH2 0x1983 JUMP JUMPDEST DUP3 MSTORE POP POP JUMP JUMPDEST PUSH1 0x0 PUSH1 0x20 DUP3 ADD SWAP1 POP PUSH2 0x19B1 PUSH1 0x0 DUP4 ADD DUP5 PUSH2 0x198D JUMP JUMPDEST SWAP3 SWAP2 POP POP JUMP JUMPDEST PUSH1 0x0 DUP1 REVERT JUMPDEST PUSH2 0x19C5 DUP2 PUSH2 0x1947 JUMP JUMPDEST DUP2 EQ PUSH2 0x19D0 JUMPI PUSH1 0x0 DUP1 REVERT JUMPDEST POP JUMP JUMPDEST PUSH1 0x0 DUP2 CALLDATALOAD SWAP1 POP PUSH2 0x19E2 DUP2 PUSH2 0x19BC JUMP JUMPDEST SWAP3 SWAP2 POP POP JUMP JUMPDEST PUSH2 0x19F1 DUP2 PUSH2 0x1983 JUMP JUMPDEST DUP2 EQ PUSH2 0x19FC JUMPI PUSH1 0x0 DUP1 REVERT JUMPDEST POP JUMP JUMPDEST PUSH1 0x0 DUP2 CALLDATALOAD SWAP1 POP PUSH2 0x1A0E DUP2 PUSH2 0x19E8 JUMP JUMPDEST SWAP3 SWAP2 POP POP JUMP JUMPDEST PUSH1 0x0 DUP1 PUSH1 0x0 DUP1 PUSH1 0x80 DUP6 DUP8 SUB SLT ISZERO PUSH2 0x1A2E JUMPI PUSH2 0x1A2D PUSH2 0x19B7 JUMP JUMPDEST JUMPDEST PUSH1 0x0 PUSH2 0x1A3C DUP8 DUP3 DUP9 ADD PUSH2 0x19D3 JUMP JUMPDEST SWAP5 POP POP PUSH1 0x20 PUSH2 0x1A4D DUP8 DUP3 DUP9 ADD PUSH2 0x19D3 JUMP JUMPDEST SWAP4 POP POP PUSH1 0x40 PUSH2 0x1A5E DUP8 DUP3 DUP9 ADD PUSH2 0x19FF JUMP JUMPDEST SWAP3 POP POP PUSH1 0x60 PUSH2 0x1A6F DUP8 DUP3 DUP9 ADD PUSH2 0x19FF JUMP JUMPDEST SWAP2 POP POP SWAP3 SWAP6 SWAP2 SWAP5 POP SWAP3 POP JUMP JUMPDEST PUSH1 0x0 DUP2 ISZERO ISZERO SWAP1 POP SWAP2 SWAP1 POP JUMP JUMPDEST PUSH2 0x1A90 DUP2 PUSH2 0x1A7B JUMP JUMPDEST DUP3 MSTORE POP POP JUMP JUMPDEST PUSH1 0x0 PUSH1 0x20 DUP3 ADD SWAP1 POP PUSH2 0x1AAB PUSH1 0x0 DUP4 ADD DUP5 PUSH2 0x1A87 JUMP JUMPDEST SWAP3 SWAP2 POP POP JUMP JUMPDEST PUSH1 0x0 DUP1 PUSH1 0x0 DUP1 PUSH1 0x0 PUSH1 0xA0 DUP7 DUP9 SUB SLT ISZERO PUSH2 0x1ACD JUMPI PUSH2 0x1ACC PUSH2 0x19B7 JUMP JUMPDEST JUMPDEST PUSH1 0x0 PUSH2 0x1ADB DUP9 DUP3 DUP10 ADD PUSH2 0x19D3 JUMP JUMPDEST SWAP6 POP POP PUSH1 0x20 PUSH2 0x1AEC DUP9 DUP3 DUP10 ADD PUSH2 0x19D3 JUMP JUMPDEST SWAP5 POP POP PUSH1 0x40 PUSH2 0x1AFD DUP9 DUP3 DUP10 ADD PUSH2 0x19D3 JUMP JUMPDEST SWAP4 POP POP PUSH1 0x60 PUSH2 0x1B0E DUP9 DUP3 DUP10 ADD PUSH2 0x19FF JUMP JUMPDEST SWAP3 POP POP PUSH1 0x80 PUSH2 0x1B1F DUP9 DUP3 DUP10 ADD PUSH2 0x19FF JUMP JUMPDEST SWAP2 POP POP SWAP3 SWAP6 POP SWAP3 SWAP6 SWAP1 SWAP4 POP JUMP JUMPDEST PUSH1 0x0 DUP1 PUSH1 0x0 DUP1 PUSH1 0x0 DUP1 PUSH1 0xC0 DUP8 DUP10 SUB SLT ISZERO PUSH2 0x1B49 JUMPI PUSH2 0x1B48 PUSH2 0x19B7 JUMP JUMPDEST JUMPDEST PUSH1 0x0 PUSH2 0x1B57 DUP10 DUP3 DUP11 ADD PUSH2 0x19D3 JUMP JUMPDEST SWAP7 POP POP PUSH1 0x20 PUSH2 0x1B68 DUP10 DUP3 DUP11 ADD PUSH2 0x19D3 JUMP JUMPDEST SWAP6 POP POP PUSH1 0x40 PUSH2 0x1B79 DUP10 DUP3 DUP11 ADD PUSH2 0x19D3 JUMP JUMPDEST SWAP5 POP POP PUSH1 0x60 PUSH2 0x1B8A DUP10 DUP3 DUP11 ADD PUSH2 0x19FF JUMP JUMPDEST SWAP4 POP POP PUSH1 0x80 PUSH2 0x1B9B DUP10 DUP3 DUP11 ADD PUSH2 0x19FF JUMP JUMPDEST SWAP3 POP POP PUSH1 0xA0 PUSH2 0x1BAC DUP10 DUP3 DUP11 ADD PUSH2 0x19FF JUMP JUMPDEST SWAP2 POP POP SWAP3 SWAP6 POP SWAP3 SWAP6 POP SWAP3 SWAP6 JUMP JUMPDEST PUSH1 0x0 DUP3 DUP3 MSTORE PUSH1 0x20 DUP3 ADD SWAP1 POP SWAP3 SWAP2 POP POP JUMP JUMPDEST PUSH32 0x4E6F742075736564206164647265737300000000000000000000000000000000 PUSH1 0x0 DUP3 ADD MSTORE POP JUMP JUMPDEST PUSH1 0x0 PUSH2 0x1C00 PUSH1 0x10 DUP4 PUSH2 0x1BB9 JUMP JUMPDEST SWAP2 POP PUSH2 0x1C0B DUP3 PUSH2 0x1BCA JUMP JUMPDEST PUSH1 0x20 DUP3 ADD SWAP1 POP SWAP2 SWAP1 POP JUMP JUMPDEST PUSH1 0x0 PUSH1 0x20 DUP3 ADD SWAP1 POP DUP2 DUP2 SUB PUSH1 0x0 DUP4 ADD MSTORE PUSH2 0x1C2F DUP2 PUSH2 0x1BF3 JUMP JUMPDEST SWAP1 POP SWAP2 SWAP1 POP JUMP JUMPDEST PUSH32 0x4E6F7420657175616C0000000000000000000000000000000000000000000000 PUSH1 0x0 DUP3 ADD MSTORE POP JUMP JUMPDEST PUSH1 0x0 PUSH2 0x1C6C PUSH1 0x9 DUP4 PUSH2 0x1BB9 JUMP JUMPDEST SWAP2 POP PUSH2 0x1C77 DUP3 PUSH2 0x1C36 JUMP JUMPDEST PUSH1 0x20 DUP3 ADD SWAP1 POP SWAP2 SWAP1 POP JUMP JUMPDEST PUSH1 0x0 PUSH1 0x20 DUP3 ADD SWAP1 POP DUP2 DUP2 SUB PUSH1 0x0 DUP4 ADD MSTORE PUSH2 0x1C9B DUP2 PUSH2 0x1C5F JUMP JUMPDEST SWAP1 POP SWAP2 SWAP1 POP JUMP JUMPDEST PUSH1 0x0 DUP2 MLOAD SWAP1 POP PUSH2 0x1CB1 DUP2 PUSH2 0x19E8 JUMP JUMPDEST SWAP3 SWAP2 POP POP JUMP JUMPDEST PUSH1 0x0 PUSH1 0x20 DUP3 DUP5 SUB SLT ISZERO PUSH2 0x1CCD JUMPI PUSH2 0x1CCC PUSH2 0x19B7 JUMP JUMPDEST JUMPDEST PUSH1 0x0 PUSH2 0x1CDB DUP5 DUP3 DUP6 ADD PUSH2 0x1CA2 JUMP JUMPDEST SWAP2 POP POP SWAP3 SWAP2 POP POP JUMP JUMPDEST PUSH32 0x4E487B7100000000000000000000000000000000000000000000000000000000 PUSH1 0x0 MSTORE PUSH1 0x11 PUSH1 0x4 MSTORE PUSH1 0x24 PUSH1 0x0 REVERT JUMPDEST PUSH1 0x0 PUSH2 0x1D1E DUP3 PUSH2 0x1983 JUMP JUMPDEST SWAP2 POP PUSH2 0x1D29 DUP4 PUSH2 0x1983 JUMP JUMPDEST SWAP3 POP DUP3 DUP3 LT ISZERO PUSH2 0x1D3C JUMPI PUSH2 0x1D3B PUSH2 0x1CE4 JUMP JUMPDEST JUMPDEST DUP3 DUP3 SUB SWAP1 POP SWAP3 SWAP2 POP POP JUMP JUMPDEST PUSH1 0x0 PUSH2 0x1D52 DUP3 PUSH2 0x1983 JUMP JUMPDEST SWAP2 POP PUSH2 0x1D5D DUP4 PUSH2 0x1983 JUMP JUMPDEST SWAP3 POP DUP2 PUSH32 0xFFFFFFFFFFFFFFFFFFFFFFFFFFFFFFFFFFFFFFFFFFFFFFFFFFFFFFFFFFFFFFFF DIV DUP4 GT DUP3 ISZERO ISZERO AND ISZERO PUSH2 0x1D96 JUMPI PUSH2 0x1D95 PUSH2 0x1CE4 JUMP JUMPDEST JUMPDEST DUP3 DUP3 MUL SWAP1 POP SWAP3 SWAP2 POP POP JUMP JUMPDEST PUSH32 0x4D696E7573206C69717569646974790000000000000000000000000000000000 PUSH1 0x0 DUP3 ADD MSTORE POP JUMP JUMPDEST PUSH1 0x0 PUSH2 0x1DD7 PUSH1 0xF DUP4 PUSH2 0x1BB9 JUMP JUMPDEST SWAP2 POP PUSH2 0x1DE2 DUP3 PUSH2 0x1DA1 JUMP JUMPDEST PUSH1 0x20 DUP3 ADD SWAP1 POP SWAP2 SWAP1 POP JUMP JUMPDEST PUSH1 0x0 PUSH1 0x20 DUP3 ADD SWAP1 POP DUP2 DUP2 SUB PUSH1 0x0 DUP4 ADD MSTORE PUSH2 0x1E06 DUP2 PUSH2 0x1DCA JUMP JUMPDEST SWAP1 POP SWAP2 SWAP1 POP JUMP JUMPDEST PUSH32 0x4E487B7100000000000000000000000000000000000000000000000000000000 PUSH1 0x0 MSTORE PUSH1 0x12 PUSH1 0x4 MSTORE PUSH1 0x24 PUSH1 0x0 REVERT JUMPDEST PUSH1 0x0 PUSH2 0x1E47 DUP3 PUSH2 0x1983 JUMP JUMPDEST SWAP2 POP PUSH2 0x1E52 DUP4 PUSH2 0x1983 JUMP JUMPDEST SWAP3 POP DUP3 PUSH2 0x1E62 JUMPI PUSH2 0x1E61 PUSH2 0x1E0D JUMP JUMPDEST JUMPDEST DUP3 DUP3 DIV SWAP1 POP SWAP3 SWAP2 POP POP JUMP JUMPDEST PUSH1 0x0 PUSH2 0x1E78 DUP3 PUSH2 0x1983 JUMP JUMPDEST SWAP2 POP PUSH2 0x1E83 DUP4 PUSH2 0x1983 JUMP JUMPDEST SWAP3 POP DUP3 PUSH32 0xFFFFFFFFFFFFFFFFFFFFFFFFFFFFFFFFFFFFFFFFFFFFFFFFFFFFFFFFFFFFFFFF SUB DUP3 GT ISZERO PUSH2 0x1EB8 JUMPI PUSH2 0x1EB7 PUSH2 0x1CE4 JUMP JUMPDEST JUMPDEST DUP3 DUP3 ADD SWAP1 POP SWAP3 SWAP2 POP POP JUMP JUMPDEST PUSH1 0x0 PUSH1 0x80 DUP3 ADD SWAP1 POP PUSH2 0x1ED8 PUSH1 0x0 DUP4 ADD DUP8 PUSH2 0x1959 JUMP JUMPDEST PUSH2 0x1EE5 PUSH1 0x20 DUP4 ADD DUP7 PUSH2 0x1959 JUMP JUMPDEST PUSH2 0x1EF2 PUSH1 0x40 DUP4 ADD DUP6 PUSH2 0x198D JUMP JUMPDEST PUSH2 0x1EFF PUSH1 0x60 DUP4 ADD DUP5 PUSH2 0x198D JUMP JUMPDEST SWAP6 SWAP5 POP POP POP POP POP JUMP JUMPDEST PUSH32 0x5A65726F20616D6F756E74000000000000000000000000000000000000000000 PUSH1 0x0 DUP3 ADD MSTORE POP JUMP JUMPDEST PUSH1 0x0 PUSH2 0x1F3E PUSH1 0xB DUP4 PUSH2 0x1BB9 JUMP JUMPDEST SWAP2 POP PUSH2 0x1F49 DUP3 PUSH2 0x1F08 JUMP JUMPDEST PUSH1 0x20 DUP3 ADD SWAP1 POP SWAP2 SWAP1 POP JUMP JUMPDEST PUSH1 0x0 PUSH1 0x20 DUP3 ADD SWAP1 POP DUP2 DUP2 SUB PUSH1 0x0 DUP4 ADD MSTORE PUSH2 0x1F6D DUP2 PUSH2 0x1F31 JUMP JUMPDEST SWAP1 POP SWAP2 SWAP1 POP JUMP JUMPDEST PUSH1 0x0 PUSH1 0xA0 DUP3 ADD SWAP1 POP PUSH2 0x1F89 PUSH1 0x0 DUP4 ADD DUP9 PUSH2 0x1959 JUMP JUMPDEST PUSH2 0x1F96 PUSH1 0x20 DUP4 ADD DUP8 PUSH2 0x1959 JUMP JUMPDEST PUSH2 0x1FA3 PUSH1 0x40 DUP4 ADD DUP7 PUSH2 0x1959 JUMP JUMPDEST PUSH2 0x1FB0 PUSH1 0x60 DUP4 ADD DUP6 PUSH2 0x198D JUMP JUMPDEST PUSH2 0x1FBD PUSH1 0x80 DUP4 ADD DUP5 PUSH2 0x198D JUMP JUMPDEST SWAP7 SWAP6 POP POP POP POP POP POP JUMP JUMPDEST PUSH32 0x4D696E757320616D6F756E740000000000000000000000000000000000000000 PUSH1 0x0 DUP3 ADD MSTORE POP JUMP JUMPDEST PUSH1 0x0 PUSH2 0x1FFD PUSH1 0xC DUP4 PUSH2 0x1BB9 JUMP JUMPDEST SWAP2 POP PUSH2 0x2008 DUP3 PUSH2 0x1FC7 JUMP JUMPDEST PUSH1 0x20 DUP3 ADD SWAP1 POP SWAP2 SWAP1 POP JUMP JUMPDEST PUSH1 0x0 PUSH1 0x20 DUP3 ADD SWAP1 POP DUP2 DUP2 SUB PUSH1 0x0 DUP4 ADD MSTORE PUSH2 0x202C DUP2 PUSH2 0x1FF0 JUMP JUMPDEST SWAP1 POP SWAP2 SWAP1 POP JUMP JUMPDEST PUSH1 0x0 PUSH1 0xA0 DUP3 ADD SWAP1 POP PUSH2 0x2048 PUSH1 0x0 DUP4 ADD DUP9 PUSH2 0x1959 JUMP JUMPDEST PUSH2 0x2055 PUSH1 0x20 DUP4 ADD DUP8 PUSH2 0x1959 JUMP JUMPDEST PUSH2 0x2062 PUSH1 0x40 DUP4 ADD DUP7 PUSH2 0x198D JUMP JUMPDEST PUSH2 0x206F PUSH1 0x60 DUP4 ADD DUP6 PUSH2 0x198D JUMP JUMPDEST PUSH2 0x207C PUSH1 0x80 DUP4 ADD DUP5 PUSH2 0x198D JUMP JUMPDEST SWAP7 SWAP6 POP POP POP POP POP POP JUMP JUMPDEST PUSH1 0x0 PUSH1 0x60 DUP3 ADD SWAP1 POP PUSH2 0x209B PUSH1 0x0 DUP4 ADD DUP7 PUSH2 0x1959 JUMP JUMPDEST PUSH2 0x20A8 PUSH1 0x20 DUP4 ADD DUP6 PUSH2 0x1959 JUMP JUMPDEST PUSH2 0x20B5 PUSH1 0x40 DUP4 ADD DUP5 PUSH2 0x198D JUMP JUMPDEST SWAP5 SWAP4 POP POP POP POP JUMP JUMPDEST PUSH1 0x0 DUP2 MLOAD SWAP1 POP SWAP2 SWAP1 POP JUMP JUMPDEST PUSH1 0x0 DUP2 SWAP1 POP SWAP3 SWAP2 POP POP JUMP JUMPDEST PUSH1 0x0 JUMPDEST DUP4 DUP2 LT ISZERO PUSH2 0x20F1 JUMPI DUP1 DUP3 ADD MLOAD DUP2 DUP5 ADD MSTORE PUSH1 0x20 DUP2 ADD SWAP1 POP PUSH2 0x20D6 JUMP JUMPDEST DUP4 DUP2 GT ISZERO PUSH2 0x2100 JUMPI PUSH1 0x0 DUP5 DUP5 ADD MSTORE JUMPDEST POP POP POP POP JUMP JUMPDEST PUSH1 0x0 PUSH2 0x2111 DUP3 PUSH2 0x20BD JUMP JUMPDEST PUSH2 0x211B DUP2 DUP6 PUSH2 0x20C8 JUMP JUMPDEST SWAP4 POP PUSH2 0x212B DUP2 DUP6 PUSH1 0x20 DUP7 ADD PUSH2 0x20D3 JUMP JUMPDEST DUP1 DUP5 ADD SWAP2 POP POP SWAP3 SWAP2 POP POP JUMP JUMPDEST PUSH1 0x0 PUSH2 0x2143 DUP3 DUP5 PUSH2 0x2106 JUMP JUMPDEST SWAP2 POP DUP2 SWAP1 POP SWAP3 SWAP2 POP POP JUMP JUMPDEST PUSH2 0x2157 DUP2 PUSH2 0x1A7B JUMP JUMPDEST DUP2 EQ PUSH2 0x2162 JUMPI PUSH1 0x0 DUP1 REVERT JUMPDEST POP JUMP JUMPDEST PUSH1 0x0 DUP2 MLOAD SWAP1 POP PUSH2 0x2174 DUP2 PUSH2 0x214E JUMP JUMPDEST SWAP3 SWAP2 POP POP JUMP JUMPDEST PUSH1 0x0 PUSH1 0x20 DUP3 DUP5 SUB SLT ISZERO PUSH2 0x2190 JUMPI PUSH2 0x218F PUSH2 0x19B7 JUMP JUMPDEST JUMPDEST PUSH1 0x0 PUSH2 0x219E DUP5 DUP3 DUP6 ADD PUSH2 0x2165 JUMP JUMPDEST SWAP2 POP POP SWAP3 SWAP2 POP POP JUMP JUMPDEST PUSH32 0x5472616E7366657248656C7065723A3A7472616E7366657246726F6D3A207472 PUSH1 0x0 DUP3 ADD MSTORE PUSH32 0x616E7366657246726F6D206661696C6564000000000000000000000000000000 PUSH1 0x20 DUP3 ADD MSTORE POP JUMP JUMPDEST PUSH1 0x0 PUSH2 0x2203 PUSH1 0x31 DUP4 PUSH2 0x1BB9 JUMP JUMPDEST SWAP2 POP PUSH2 0x220E DUP3 PUSH2 0x21A7 JUMP JUMPDEST PUSH1 0x40 DUP3 ADD SWAP1 POP SWAP2 SWAP1 POP JUMP JUMPDEST PUSH1 0x0 PUSH1 0x20 DUP3 ADD SWAP1 POP DUP2 DUP2 SUB PUSH1 0x0 DUP4 ADD MSTORE PUSH2 0x2232 DUP2 PUSH2 0x21F6 JUMP JUMPDEST SWAP1 POP SWAP2 SWAP1 POP JUMP JUMPDEST PUSH1 0x0 PUSH1 0x40 DUP3 ADD SWAP1 POP PUSH2 0x224E PUSH1 0x0 DUP4 ADD DUP6 PUSH2 0x1959 JUMP JUMPDEST PUSH2 0x225B PUSH1 0x20 DUP4 ADD DUP5 PUSH2 0x198D JUMP JUMPDEST SWAP4 SWAP3 POP POP POP JUMP JUMPDEST PUSH32 0x4641494C4544204D696E74000000000000000000000000000000000000000000 PUSH1 0x0 DUP3 ADD MSTORE POP JUMP JUMPDEST PUSH1 0x0 PUSH2 0x2298 PUSH1 0xB DUP4 PUSH2 0x1BB9 JUMP JUMPDEST SWAP2 POP PUSH2 0x22A3 DUP3 PUSH2 0x2262 JUMP JUMPDEST PUSH1 0x20 DUP3 ADD SWAP1 POP SWAP2 SWAP1 POP JUMP JUMPDEST PUSH1 0x0 PUSH1 0x20 DUP3 ADD SWAP1 POP DUP2 DUP2 SUB PUSH1 0x0 DUP4 ADD MSTORE PUSH2 0x22C7 DUP2 PUSH2 0x228B JUMP JUMPDEST SWAP1 POP SWAP2 SWAP1 POP JUMP JUMPDEST PUSH32 0x30206E756D626572000000000000000000000000000000000000000000000000 PUSH1 0x0 DUP3 ADD MSTORE POP JUMP JUMPDEST PUSH1 0x0 PUSH2 0x2304 PUSH1 0x8 DUP4 PUSH2 0x1BB9 JUMP JUMPDEST SWAP2 POP PUSH2 0x230F DUP3 PUSH2 0x22CE JUMP JUMPDEST PUSH1 0x20 DUP3 ADD SWAP1 POP SWAP2 SWAP1 POP JUMP JUMPDEST PUSH1 0x0 PUSH1 0x20 DUP3 ADD SWAP1 POP DUP2 DUP2 SUB PUSH1 0x0 DUP4 ADD MSTORE PUSH2 0x2333 DUP2 PUSH2 0x22F7 JUMP JUMPDEST SWAP1 POP SWAP2 SWAP1 POP JUMP JUMPDEST PUSH32 0x5472616E7366657248656C7065723A3A736166655472616E736665723A207472 PUSH1 0x0 DUP3 ADD MSTORE PUSH32 0x616E73666572206661696C656400000000000000000000000000000000000000 PUSH1 0x20 DUP3 ADD MSTORE POP JUMP JUMPDEST PUSH1 0x0 PUSH2 0x2396 PUSH1 0x2D DUP4 PUSH2 0x1BB9 JUMP JUMPDEST SWAP2 POP PUSH2 0x23A1 DUP3 PUSH2 0x233A JUMP JUMPDEST PUSH1 0x40 DUP3 ADD SWAP1 POP SWAP2 SWAP1 POP JUMP JUMPDEST PUSH1 0x0 PUSH1 0x20 DUP3 ADD SWAP1 POP DUP2 DUP2 SUB PUSH1 0x0 DUP4 ADD MSTORE PUSH2 0x23C5 DUP2 PUSH2 0x2389 JUMP JUMPDEST SWAP1 POP SWAP2 SWAP1 POP JUMP JUMPDEST PUSH32 0x4641494C4544204275726E000000000000000000000000000000000000000000 PUSH1 0x0 DUP3 ADD MSTORE POP JUMP JUMPDEST PUSH1 0x0 PUSH2 0x2402 PUSH1 0xB DUP4 PUSH2 0x1BB9 JUMP JUMPDEST SWAP2 POP PUSH2 0x240D DUP3 PUSH2 0x23CC JUMP JUMPDEST PUSH1 0x20 DUP3 ADD SWAP1 POP SWAP2 SWAP1 POP JUMP JUMPDEST PUSH1 0x0 PUSH1 0x20 DUP3 ADD SWAP1 POP DUP2 DUP2 SUB PUSH1 0x0 DUP4 ADD MSTORE PUSH2 0x2431 DUP2 PUSH2 0x23F5 JUMP JUMPDEST SWAP1 POP SWAP2 SWAP1 POP JUMP INVALID PUSH21 0x72616E7366657246726F6D28616464726573732C61 PUSH5 0x6472657373 0x2C PUSH22 0x696E7432353629A26469706673582212207B54063A2E 0x2B STOP PUSH3 0xAE362C 0x1F CHAINID 0xD2 0x22 0x49 SELFDESTRUCT 0x2F SWAP4 ADD DUP13 0xCC 0x2F EXTCODECOPY KECCAK256 0xD 0xE8 0xD4 CREATE2 MOD 0xDD GAS PUSH5 0x736F6C6343 STOP ADDMOD 0xF STOP CALLER "
				},
				"gasEstimates": {
					"creation": {
						"codeDepositCost": "1872600",
						"executionCost": "infinite",
						"totalCost": "infinite"
					},
					"external": {
						"_addLiquidity(address,address,uint256,uint256)": "infinite",
						"_deleteLiquidity(address,address,address,uint256,uint256,uint256)": "infinite",
						"_swap(address,address,address,uint256,uint256)": "infinite",
						"k()": "2473",
						"lp()": "2559",
						"min_liq()": "374",
						"price0()": "2451",
						"price1()": "2540",
						"reserve0()": "2496",
						"reserve1()": "2518",
						"token0()": "2515",
						"token1()": "2580",
						"totalSupply()": "2452"
					},
					"internal": {
						"_updateStorage(address,address,uint256,uint256)": "infinite",
						"burn(address,address,uint256)": "infinite",
						"getBalancePair()": "4237",
						"mint(address,address,uint256)": "infinite",
						"transfer(address,address,uint256)": "infinite",
						"transferFrom(address,address,uint256)": "infinite",
						"updateK(address,address)": "infinite"
					}
				},
				"methodIdentifiers": {
					"_addLiquidity(address,address,uint256,uint256)": "77619ac5",
					"_deleteLiquidity(address,address,address,uint256,uint256,uint256)": "db5159a2",
					"_swap(address,address,address,uint256,uint256)": "9ba613a8",
					"k()": "b4f40c61",
					"lp()": "313c06a0",
					"min_liq()": "8f402b56",
					"price0()": "a0a986f1",
					"price1()": "6caf25ce",
					"reserve0()": "443cb4bc",
					"reserve1()": "5a76f25e",
					"token0()": "0dfe1681",
					"token1()": "d21220a7",
					"totalSupply()": "18160ddd"
				}
			},
			"storageLayout": {
				"storage": [
					{
						"astId": 6,
						"contract": "contracts/OndaV1Pool.sol:SwapPool",
						"label": "owner",
						"offset": 0,
						"slot": "0",
						"type": "t_address"
					},
					{
						"astId": 8,
						"contract": "contracts/OndaV1Pool.sol:SwapPool",
						"label": "token0",
						"offset": 0,
						"slot": "1",
						"type": "t_address"
					},
					{
						"astId": 10,
						"contract": "contracts/OndaV1Pool.sol:SwapPool",
						"label": "token1",
						"offset": 0,
						"slot": "2",
						"type": "t_address"
					},
					{
						"astId": 12,
						"contract": "contracts/OndaV1Pool.sol:SwapPool",
						"label": "lp",
						"offset": 0,
						"slot": "3",
						"type": "t_address"
					},
					{
						"astId": 14,
						"contract": "contracts/OndaV1Pool.sol:SwapPool",
						"label": "k",
						"offset": 0,
						"slot": "4",
						"type": "t_uint256"
					},
					{
						"astId": 17,
						"contract": "contracts/OndaV1Pool.sol:SwapPool",
						"label": "key",
						"offset": 0,
						"slot": "5",
						"type": "t_uint256"
					},
					{
						"astId": 19,
						"contract": "contracts/OndaV1Pool.sol:SwapPool",
						"label": "reserve0",
						"offset": 0,
						"slot": "6",
						"type": "t_uint256"
					},
					{
						"astId": 21,
						"contract": "contracts/OndaV1Pool.sol:SwapPool",
						"label": "reserve1",
						"offset": 0,
						"slot": "7",
						"type": "t_uint256"
					},
					{
						"astId": 23,
						"contract": "contracts/OndaV1Pool.sol:SwapPool",
						"label": "price0",
						"offset": 0,
						"slot": "8",
						"type": "t_uint256"
					},
					{
						"astId": 25,
						"contract": "contracts/OndaV1Pool.sol:SwapPool",
						"label": "price1",
						"offset": 0,
						"slot": "9",
						"type": "t_uint256"
					},
					{
						"astId": 27,
						"contract": "contracts/OndaV1Pool.sol:SwapPool",
						"label": "totalSupply",
						"offset": 0,
						"slot": "10",
						"type": "t_uint256"
					},
					{
						"astId": 29,
						"contract": "contracts/OndaV1Pool.sol:SwapPool",
						"label": "fee",
						"offset": 0,
						"slot": "11",
						"type": "t_uint256"
					}
				],
				"types": {
					"t_address": {
						"encoding": "inplace",
						"label": "address",
						"numberOfBytes": "20"
					},
					"t_uint256": {
						"encoding": "inplace",
						"label": "uint256",
						"numberOfBytes": "32"
					}
				}
			},
			"userdoc": {
				"kind": "user",
				"methods": {},
				"version": 1
			}
		}
	}
}