{
	"contracts/OndaV1Pool.sol": {
		"Pair": {
			"abi": [
				{
					"inputs": [
						{
							"internalType": "address",
							"name": "_token0",
							"type": "address"
						},
						{
							"internalType": "address",
							"name": "_token1",
							"type": "address"
						},
						{
							"internalType": "address",
							"name": "_lp",
							"type": "address"
						}
					],
					"stateMutability": "nonpayable",
					"type": "constructor"
				},
				{
					"anonymous": false,
					"inputs": [
						{
							"indexed": false,
							"internalType": "address",
							"name": "token0",
							"type": "address"
						},
						{
							"indexed": false,
							"internalType": "address",
							"name": "token1",
							"type": "address"
						},
						{
							"indexed": false,
							"internalType": "uint256",
							"name": "amount0",
							"type": "uint256"
						},
						{
							"indexed": false,
							"internalType": "uint256",
							"name": "amount1",
							"type": "uint256"
						}
					],
					"name": "AddLiquidity",
					"type": "event"
				},
				{
					"anonymous": false,
					"inputs": [
						{
							"indexed": false,
							"internalType": "address",
							"name": "token0",
							"type": "address"
						},
						{
							"indexed": false,
							"internalType": "address",
							"name": "token1",
							"type": "address"
						},
						{
							"indexed": false,
							"internalType": "uint256",
							"name": "amount0",
							"type": "uint256"
						},
						{
							"indexed": false,
							"internalType": "uint256",
							"name": "amount1",
							"type": "uint256"
						},
						{
							"indexed": false,
							"internalType": "uint256",
							"name": "liquidity",
							"type": "uint256"
						}
					],
					"name": "DeleteLiquidity",
					"type": "event"
				},
				{
					"anonymous": false,
					"inputs": [
						{
							"indexed": false,
							"internalType": "address",
							"name": "token0",
							"type": "address"
						},
						{
							"indexed": false,
							"internalType": "address",
							"name": "token1",
							"type": "address"
						},
						{
							"indexed": false,
							"internalType": "address",
							"name": "to",
							"type": "address"
						}
					],
					"name": "PairCreated",
					"type": "event"
				},
				{
					"anonymous": false,
					"inputs": [
						{
							"indexed": false,
							"internalType": "address",
							"name": "token0",
							"type": "address"
						},
						{
							"indexed": false,
							"internalType": "address",
							"name": "token1",
							"type": "address"
						},
						{
							"indexed": false,
							"internalType": "address",
							"name": "_to",
							"type": "address"
						},
						{
							"indexed": false,
							"internalType": "uint256",
							"name": "amount0",
							"type": "uint256"
						},
						{
							"indexed": false,
							"internalType": "uint256",
							"name": "amount1",
							"type": "uint256"
						}
					],
					"name": "Swap",
					"type": "event"
				},
				{
					"anonymous": false,
					"inputs": [
						{
							"indexed": false,
							"internalType": "address",
							"name": "token0",
							"type": "address"
						},
						{
							"indexed": false,
							"internalType": "address",
							"name": "token1",
							"type": "address"
						},
						{
							"indexed": false,
							"internalType": "uint256",
							"name": "newBalance0",
							"type": "uint256"
						},
						{
							"indexed": false,
							"internalType": "uint256",
							"name": "newBalance1",
							"type": "uint256"
						}
					],
					"name": "SyncStorage",
					"type": "event"
				},
				{
					"inputs": [
						{
							"internalType": "address",
							"name": "_token0",
							"type": "address"
						},
						{
							"internalType": "address",
							"name": "_token1",
							"type": "address"
						},
						{
							"internalType": "uint256",
							"name": "amount0",
							"type": "uint256"
						},
						{
							"internalType": "uint256",
							"name": "amount1",
							"type": "uint256"
						}
					],
					"name": "_addLiquidity",
					"outputs": [
						{
							"internalType": "bool",
							"name": "",
							"type": "bool"
						}
					],
					"stateMutability": "nonpayable",
					"type": "function"
				},
				{
					"inputs": [
						{
							"internalType": "address",
							"name": "_token0",
							"type": "address"
						},
						{
							"internalType": "address",
							"name": "_token1",
							"type": "address"
						},
						{
							"internalType": "address",
							"name": "_to",
							"type": "address"
						},
						{
							"internalType": "uint256",
							"name": "liquidity",
							"type": "uint256"
						},
						{
							"internalType": "uint256",
							"name": "amount0",
							"type": "uint256"
						},
						{
							"internalType": "uint256",
							"name": "amount1",
							"type": "uint256"
						}
					],
					"name": "_deleteLiquidity",
					"outputs": [
						{
							"internalType": "bool",
							"name": "",
							"type": "bool"
						}
					],
					"stateMutability": "nonpayable",
					"type": "function"
				},
				{
					"inputs": [
						{
							"internalType": "address",
							"name": "_token0",
							"type": "address"
						},
						{
							"internalType": "address",
							"name": "_token1",
							"type": "address"
						},
						{
							"internalType": "address",
							"name": "_to",
							"type": "address"
						},
						{
							"internalType": "uint256",
							"name": "amount0",
							"type": "uint256"
						},
						{
							"internalType": "uint256",
							"name": "amount1",
							"type": "uint256"
						}
					],
					"name": "_swap",
					"outputs": [
						{
							"internalType": "bool",
							"name": "",
							"type": "bool"
						}
					],
					"stateMutability": "nonpayable",
					"type": "function"
				},
				{
					"inputs": [
						{
							"internalType": "address",
							"name": "_token0",
							"type": "address"
						},
						{
							"internalType": "address",
							"name": "_token1",
							"type": "address"
						},
						{
							"internalType": "address",
							"name": "_to",
							"type": "address"
						}
					],
					"name": "createPair",
					"outputs": [],
					"stateMutability": "nonpayable",
					"type": "function"
				},
				{
					"inputs": [],
					"name": "k",
					"outputs": [
						{
							"internalType": "uint256",
							"name": "",
							"type": "uint256"
						}
					],
					"stateMutability": "view",
					"type": "function"
				},
				{
					"inputs": [],
					"name": "lp",
					"outputs": [
						{
							"internalType": "address",
							"name": "",
							"type": "address"
						}
					],
					"stateMutability": "view",
					"type": "function"
				},
				{
					"inputs": [],
					"name": "min_liq",
					"outputs": [
						{
							"internalType": "uint256",
							"name": "",
							"type": "uint256"
						}
					],
					"stateMutability": "view",
					"type": "function"
				},
				{
					"inputs": [],
					"name": "price0",
					"outputs": [
						{
							"internalType": "uint256",
							"name": "",
							"type": "uint256"
						}
					],
					"stateMutability": "view",
					"type": "function"
				},
				{
					"inputs": [],
					"name": "price1",
					"outputs": [
						{
							"internalType": "uint256",
							"name": "",
							"type": "uint256"
						}
					],
					"stateMutability": "view",
					"type": "function"
				},
				{
					"inputs": [],
					"name": "reserve0",
					"outputs": [
						{
							"internalType": "uint256",
							"name": "",
							"type": "uint256"
						}
					],
					"stateMutability": "view",
					"type": "function"
				},
				{
					"inputs": [],
					"name": "reserve1",
					"outputs": [
						{
							"internalType": "uint256",
							"name": "",
							"type": "uint256"
						}
					],
					"stateMutability": "view",
					"type": "function"
				},
				{
					"inputs": [],
					"name": "token0",
					"outputs": [
						{
							"internalType": "address",
							"name": "",
							"type": "address"
						}
					],
					"stateMutability": "view",
					"type": "function"
				},
				{
					"inputs": [],
					"name": "token1",
					"outputs": [
						{
							"internalType": "address",
							"name": "",
							"type": "address"
						}
					],
					"stateMutability": "view",
					"type": "function"
				},
				{
					"inputs": [],
					"name": "totalSupply",
					"outputs": [
						{
							"internalType": "uint256",
							"name": "",
							"type": "uint256"
						}
					],
					"stateMutability": "view",
					"type": "function"
				},
				{
					"inputs": [
						{
							"internalType": "address",
							"name": "_token0",
							"type": "address"
						},
						{
							"internalType": "address",
							"name": "_token1",
							"type": "address"
						}
					],
					"name": "updateK",
					"outputs": [
						{
							"internalType": "uint256",
							"name": "",
							"type": "uint256"
						}
					],
					"stateMutability": "nonpayable",
					"type": "function"
				}
			],
			"devdoc": {
				"kind": "dev",
				"methods": {},
				"version": 1
			},
			"evm": {
				"assembly": "    /* \"contracts/OndaV1Pool.sol\":140:7412  contract Pair {\r... */\n  mstore(0x40, 0x80)\n    /* \"contracts/OndaV1Pool.sol\":288:289  0 */\n  0x00\n    /* \"contracts/OndaV1Pool.sol\":269:289  uint private key = 0 */\n  0x05\n  sstore\n    /* \"contracts/OndaV1Pool.sol\":1280:1422  constructor(address _token0, address _token1, address _lp) {\r... */\n  callvalue\n  dup1\n  iszero\n  tag_1\n  jumpi\n  0x00\n  dup1\n  revert\ntag_1:\n  pop\n  mload(0x40)\n  sub(codesize, bytecodeSize)\n  dup1\n  bytecodeSize\n  dup4\n  codecopy\n  dup2\n  dup2\n  add\n  0x40\n  mstore\n  dup2\n  add\n  swap1\n  tag_2\n  swap2\n  swap1\n  tag_3\n  jump\t// in\ntag_2:\n    /* \"contracts/OndaV1Pool.sol\":1352:1362  msg.sender */\n  caller\n    /* \"contracts/OndaV1Pool.sol\":1344:1349  owner */\n  0x00\n  dup1\n    /* \"contracts/OndaV1Pool.sol\":1344:1362  owner = msg.sender */\n  0x0100\n  exp\n  dup2\n  sload\n  dup2\n  0xffffffffffffffffffffffffffffffffffffffff\n  mul\n  not\n  and\n  swap1\n  dup4\n  0xffffffffffffffffffffffffffffffffffffffff\n  and\n  mul\n  or\n  swap1\n  sstore\n  pop\n    /* \"contracts/OndaV1Pool.sol\":1376:1383  _token0 */\n  dup3\n    /* \"contracts/OndaV1Pool.sol\":1367:1373  token0 */\n  0x01\n  0x00\n    /* \"contracts/OndaV1Pool.sol\":1367:1383  token0 = _token0 */\n  0x0100\n  exp\n  dup2\n  sload\n  dup2\n  0xffffffffffffffffffffffffffffffffffffffff\n  mul\n  not\n  and\n  swap1\n  dup4\n  0xffffffffffffffffffffffffffffffffffffffff\n  and\n  mul\n  or\n  swap1\n  sstore\n  pop\n    /* \"contracts/OndaV1Pool.sol\":1397:1404  _token1 */\n  dup2\n    /* \"contracts/OndaV1Pool.sol\":1388:1394  token1 */\n  0x02\n  0x00\n    /* \"contracts/OndaV1Pool.sol\":1388:1404  token1 = _token1 */\n  0x0100\n  exp\n  dup2\n  sload\n  dup2\n  0xffffffffffffffffffffffffffffffffffffffff\n  mul\n  not\n  and\n  swap1\n  dup4\n  0xffffffffffffffffffffffffffffffffffffffff\n  and\n  mul\n  or\n  swap1\n  sstore\n  pop\n    /* \"contracts/OndaV1Pool.sol\":1414:1417  _lp */\n  dup1\n    /* \"contracts/OndaV1Pool.sol\":1409:1411  lp */\n  0x03\n  0x00\n    /* \"contracts/OndaV1Pool.sol\":1409:1417  lp = _lp */\n  0x0100\n  exp\n  dup2\n  sload\n  dup2\n  0xffffffffffffffffffffffffffffffffffffffff\n  mul\n  not\n  and\n  swap1\n  dup4\n  0xffffffffffffffffffffffffffffffffffffffff\n  and\n  mul\n  or\n  swap1\n  sstore\n  pop\n    /* \"contracts/OndaV1Pool.sol\":1280:1422  constructor(address _token0, address _token1, address _lp) {\r... */\n  pop\n  pop\n  pop\n    /* \"contracts/OndaV1Pool.sol\":140:7412  contract Pair {\r... */\n  jump(tag_6)\n    /* \"#utility.yul\":7:150   */\ntag_8:\n  0x00\n    /* \"#utility.yul\":95:101   */\n  dup2\n    /* \"#utility.yul\":89:102   */\n  mload\n    /* \"#utility.yul\":80:102   */\n  swap1\n  pop\n    /* \"#utility.yul\":111:144   */\n  tag_10\n    /* \"#utility.yul\":138:143   */\n  dup2\n    /* \"#utility.yul\":111:144   */\n  tag_11\n  jump\t// in\ntag_10:\n    /* \"#utility.yul\":70:150   */\n  swap3\n  swap2\n  pop\n  pop\n  jump\t// out\n    /* \"#utility.yul\":156:752   */\ntag_3:\n  0x00\n  dup1\n  0x00\n    /* \"#utility.yul\":309:311   */\n  0x60\n    /* \"#utility.yul\":297:306   */\n  dup5\n    /* \"#utility.yul\":288:295   */\n  dup7\n    /* \"#utility.yul\":284:307   */\n  sub\n    /* \"#utility.yul\":280:312   */\n  slt\n    /* \"#utility.yul\":277:279   */\n  iszero\n  tag_13\n  jumpi\n    /* \"#utility.yul\":325:326   */\n  0x00\n    /* \"#utility.yul\":322:323   */\n  dup1\n    /* \"#utility.yul\":315:327   */\n  revert\n    /* \"#utility.yul\":277:279   */\ntag_13:\n    /* \"#utility.yul\":368:369   */\n  0x00\n    /* \"#utility.yul\":393:457   */\n  tag_14\n    /* \"#utility.yul\":449:456   */\n  dup7\n    /* \"#utility.yul\":440:446   */\n  dup3\n    /* \"#utility.yul\":429:438   */\n  dup8\n    /* \"#utility.yul\":425:447   */\n  add\n    /* \"#utility.yul\":393:457   */\n  tag_8\n  jump\t// in\ntag_14:\n    /* \"#utility.yul\":383:457   */\n  swap4\n  pop\n    /* \"#utility.yul\":339:467   */\n  pop\n    /* \"#utility.yul\":506:508   */\n  0x20\n    /* \"#utility.yul\":532:596   */\n  tag_15\n    /* \"#utility.yul\":588:595   */\n  dup7\n    /* \"#utility.yul\":579:585   */\n  dup3\n    /* \"#utility.yul\":568:577   */\n  dup8\n    /* \"#utility.yul\":564:586   */\n  add\n    /* \"#utility.yul\":532:596   */\n  tag_8\n  jump\t// in\ntag_15:\n    /* \"#utility.yul\":522:596   */\n  swap3\n  pop\n    /* \"#utility.yul\":477:606   */\n  pop\n    /* \"#utility.yul\":645:647   */\n  0x40\n    /* \"#utility.yul\":671:735   */\n  tag_16\n    /* \"#utility.yul\":727:734   */\n  dup7\n    /* \"#utility.yul\":718:724   */\n  dup3\n    /* \"#utility.yul\":707:716   */\n  dup8\n    /* \"#utility.yul\":703:725   */\n  add\n    /* \"#utility.yul\":671:735   */\n  tag_8\n  jump\t// in\ntag_16:\n    /* \"#utility.yul\":661:735   */\n  swap2\n  pop\n    /* \"#utility.yul\":616:745   */\n  pop\n    /* \"#utility.yul\":267:752   */\n  swap3\n  pop\n  swap3\n  pop\n  swap3\n  jump\t// out\n    /* \"#utility.yul\":758:854   */\ntag_17:\n  0x00\n    /* \"#utility.yul\":824:848   */\n  tag_19\n    /* \"#utility.yul\":842:847   */\n  dup3\n    /* \"#utility.yul\":824:848   */\n  tag_20\n  jump\t// in\ntag_19:\n    /* \"#utility.yul\":813:848   */\n  swap1\n  pop\n    /* \"#utility.yul\":803:854   */\n  swap2\n  swap1\n  pop\n  jump\t// out\n    /* \"#utility.yul\":860:986   */\ntag_20:\n  0x00\n    /* \"#utility.yul\":937:979   */\n  0xffffffffffffffffffffffffffffffffffffffff\n    /* \"#utility.yul\":930:935   */\n  dup3\n    /* \"#utility.yul\":926:980   */\n  and\n    /* \"#utility.yul\":915:980   */\n  swap1\n  pop\n    /* \"#utility.yul\":905:986   */\n  swap2\n  swap1\n  pop\n  jump\t// out\n    /* \"#utility.yul\":992:1114   */\ntag_11:\n    /* \"#utility.yul\":1065:1089   */\n  tag_23\n    /* \"#utility.yul\":1083:1088   */\n  dup2\n    /* \"#utility.yul\":1065:1089   */\n  tag_17\n  jump\t// in\ntag_23:\n    /* \"#utility.yul\":1058:1063   */\n  dup2\n    /* \"#utility.yul\":1055:1090   */\n  eq\n    /* \"#utility.yul\":1045:1047   */\n  tag_24\n  jumpi\n    /* \"#utility.yul\":1104:1105   */\n  0x00\n    /* \"#utility.yul\":1101:1102   */\n  dup1\n    /* \"#utility.yul\":1094:1106   */\n  revert\n    /* \"#utility.yul\":1045:1047   */\ntag_24:\n    /* \"#utility.yul\":1035:1114   */\n  pop\n  jump\t// out\n    /* \"contracts/OndaV1Pool.sol\":140:7412  contract Pair {\r... */\ntag_6:\n  dataSize(sub_0)\n  dup1\n  dataOffset(sub_0)\n  0x00\n  codecopy\n  0x00\n  return\nstop\n\nsub_0: assembly {\n        /* \"contracts/OndaV1Pool.sol\":140:7412  contract Pair {\r... */\n      mstore(0x40, 0x80)\n      callvalue\n      dup1\n      iszero\n      tag_1\n      jumpi\n      0x00\n      dup1\n      revert\n    tag_1:\n      pop\n      jumpi(tag_2, lt(calldatasize, 0x04))\n      shr(0xe0, calldataload(0x00))\n      dup1\n      0x77619ac5\n      gt\n      tag_18\n      jumpi\n      dup1\n      0xa0a986f1\n      gt\n      tag_19\n      jumpi\n      dup1\n      0xa0a986f1\n      eq\n      tag_14\n      jumpi\n      dup1\n      0xb4f40c61\n      eq\n      tag_15\n      jumpi\n      dup1\n      0xd21220a7\n      eq\n      tag_16\n      jumpi\n      dup1\n      0xdb5159a2\n      eq\n      tag_17\n      jumpi\n      jump(tag_2)\n    tag_19:\n      dup1\n      0x77619ac5\n      eq\n      tag_10\n      jumpi\n      dup1\n      0x7a836a5a\n      eq\n      tag_11\n      jumpi\n      dup1\n      0x8f402b56\n      eq\n      tag_12\n      jumpi\n      dup1\n      0x9ba613a8\n      eq\n      tag_13\n      jumpi\n      jump(tag_2)\n    tag_18:\n      dup1\n      0x443cb4bc\n      gt\n      tag_20\n      jumpi\n      dup1\n      0x443cb4bc\n      eq\n      tag_6\n      jumpi\n      dup1\n      0x5a76f25e\n      eq\n      tag_7\n      jumpi\n      dup1\n      0x6caf25ce\n      eq\n      tag_8\n      jumpi\n      dup1\n      0x76f79738\n      eq\n      tag_9\n      jumpi\n      jump(tag_2)\n    tag_20:\n      dup1\n      0x0dfe1681\n      eq\n      tag_3\n      jumpi\n      dup1\n      0x18160ddd\n      eq\n      tag_4\n      jumpi\n      dup1\n      0x313c06a0\n      eq\n      tag_5\n      jumpi\n    tag_2:\n      0x00\n      dup1\n      revert\n        /* \"contracts/OndaV1Pool.sol\":179:200  address public token0 */\n    tag_3:\n      tag_21\n      tag_22\n      jump\t// in\n    tag_21:\n      mload(0x40)\n      tag_23\n      swap2\n      swap1\n      tag_24\n      jump\t// in\n    tag_23:\n      mload(0x40)\n      dup1\n      swap2\n      sub\n      swap1\n      return\n        /* \"contracts/OndaV1Pool.sol\":385:408  uint public totalSupply */\n    tag_4:\n      tag_25\n      tag_26\n      jump\t// in\n    tag_25:\n      mload(0x40)\n      tag_27\n      swap2\n      swap1\n      tag_28\n      jump\t// in\n    tag_27:\n      mload(0x40)\n      dup1\n      swap2\n      sub\n      swap1\n      return\n        /* \"contracts/OndaV1Pool.sol\":229:246  address public lp */\n    tag_5:\n      tag_29\n      tag_30\n      jump\t// in\n    tag_29:\n      mload(0x40)\n      tag_31\n      swap2\n      swap1\n      tag_24\n      jump\t// in\n    tag_31:\n      mload(0x40)\n      dup1\n      swap2\n      sub\n      swap1\n      return\n        /* \"contracts/OndaV1Pool.sol\":293:313  uint public reserve0 */\n    tag_6:\n      tag_32\n      tag_33\n      jump\t// in\n    tag_32:\n      mload(0x40)\n      tag_34\n      swap2\n      swap1\n      tag_28\n      jump\t// in\n    tag_34:\n      mload(0x40)\n      dup1\n      swap2\n      sub\n      swap1\n      return\n        /* \"contracts/OndaV1Pool.sol\":317:337  uint public reserve1 */\n    tag_7:\n      tag_35\n      tag_36\n      jump\t// in\n    tag_35:\n      mload(0x40)\n      tag_37\n      swap2\n      swap1\n      tag_28\n      jump\t// in\n    tag_37:\n      mload(0x40)\n      dup1\n      swap2\n      sub\n      swap1\n      return\n        /* \"contracts/OndaV1Pool.sol\":363:381  uint public price1 */\n    tag_8:\n      tag_38\n      tag_39\n      jump\t// in\n    tag_38:\n      mload(0x40)\n      tag_40\n      swap2\n      swap1\n      tag_28\n      jump\t// in\n    tag_40:\n      mload(0x40)\n      dup1\n      swap2\n      sub\n      swap1\n      return\n        /* \"contracts/OndaV1Pool.sol\":1427:1639  function createPair(address _token0, address _token1, address _to) public {\r... */\n    tag_9:\n      tag_41\n      0x04\n      dup1\n      calldatasize\n      sub\n      dup2\n      add\n      swap1\n      tag_42\n      swap2\n      swap1\n      tag_43\n      jump\t// in\n    tag_42:\n      tag_44\n      jump\t// in\n    tag_41:\n      stop\n        /* \"contracts/OndaV1Pool.sol\":3772:5281  function _addLiquidity(address _token0, address _token1, uint amount0, uint amount1) public returns (bool) {\r... */\n    tag_10:\n      tag_45\n      0x04\n      dup1\n      calldatasize\n      sub\n      dup2\n      add\n      swap1\n      tag_46\n      swap2\n      swap1\n      tag_47\n      jump\t// in\n    tag_46:\n      tag_48\n      jump\t// in\n    tag_45:\n      mload(0x40)\n      tag_49\n      swap2\n      swap1\n      tag_50\n      jump\t// in\n    tag_49:\n      mload(0x40)\n      dup1\n      swap2\n      sub\n      swap1\n      return\n        /* \"contracts/OndaV1Pool.sol\":3451:3767  function updateK(address _token0, address _token1) public returns (uint) {\r... */\n    tag_11:\n      tag_51\n      0x04\n      dup1\n      calldatasize\n      sub\n      dup2\n      add\n      swap1\n      tag_52\n      swap2\n      swap1\n      tag_53\n      jump\t// in\n    tag_52:\n      tag_54\n      jump\t// in\n    tag_51:\n      mload(0x40)\n      tag_55\n      swap2\n      swap1\n      tag_28\n      jump\t// in\n    tag_55:\n      mload(0x40)\n      dup1\n      swap2\n      sub\n      swap1\n      return\n        /* \"contracts/OndaV1Pool.sol\":412:448  uint public constant min_liq = 10**2 */\n    tag_12:\n      tag_56\n      tag_57\n      jump\t// in\n    tag_56:\n      mload(0x40)\n      tag_58\n      swap2\n      swap1\n      tag_28\n      jump\t// in\n    tag_58:\n      mload(0x40)\n      dup1\n      swap2\n      sub\n      swap1\n      return\n        /* \"contracts/OndaV1Pool.sol\":6384:7407  function _swap(address _token0, address _token1, address _to, uint amount0, uint amount1) public returns (bool) {\r... */\n    tag_13:\n      tag_59\n      0x04\n      dup1\n      calldatasize\n      sub\n      dup2\n      add\n      swap1\n      tag_60\n      swap2\n      swap1\n      tag_61\n      jump\t// in\n    tag_60:\n      tag_62\n      jump\t// in\n    tag_59:\n      mload(0x40)\n      tag_63\n      swap2\n      swap1\n      tag_50\n      jump\t// in\n    tag_63:\n      mload(0x40)\n      dup1\n      swap2\n      sub\n      swap1\n      return\n        /* \"contracts/OndaV1Pool.sol\":341:359  uint public price0 */\n    tag_14:\n      tag_64\n      tag_65\n      jump\t// in\n    tag_64:\n      mload(0x40)\n      tag_66\n      swap2\n      swap1\n      tag_28\n      jump\t// in\n    tag_66:\n      mload(0x40)\n      dup1\n      swap2\n      sub\n      swap1\n      return\n        /* \"contracts/OndaV1Pool.sol\":252:265  uint public k */\n    tag_15:\n      tag_67\n      tag_68\n      jump\t// in\n    tag_67:\n      mload(0x40)\n      tag_69\n      swap2\n      swap1\n      tag_28\n      jump\t// in\n    tag_69:\n      mload(0x40)\n      dup1\n      swap2\n      sub\n      swap1\n      return\n        /* \"contracts/OndaV1Pool.sol\":204:225  address public token1 */\n    tag_16:\n      tag_70\n      tag_71\n      jump\t// in\n    tag_70:\n      mload(0x40)\n      tag_72\n      swap2\n      swap1\n      tag_24\n      jump\t// in\n    tag_72:\n      mload(0x40)\n      dup1\n      swap2\n      sub\n      swap1\n      return\n        /* \"contracts/OndaV1Pool.sol\":5286:6379  function _deleteLiquidity(address _token0, address _token1, address _to, uint liquidity, uint amount0, uint amount1) public returns (bool) {\r... */\n    tag_17:\n      tag_73\n      0x04\n      dup1\n      calldatasize\n      sub\n      dup2\n      add\n      swap1\n      tag_74\n      swap2\n      swap1\n      tag_75\n      jump\t// in\n    tag_74:\n      tag_76\n      jump\t// in\n    tag_73:\n      mload(0x40)\n      tag_77\n      swap2\n      swap1\n      tag_50\n      jump\t// in\n    tag_77:\n      mload(0x40)\n      dup1\n      swap2\n      sub\n      swap1\n      return\n        /* \"contracts/OndaV1Pool.sol\":179:200  address public token0 */\n    tag_22:\n      0x01\n      0x00\n      swap1\n      sload\n      swap1\n      0x0100\n      exp\n      swap1\n      div\n      0xffffffffffffffffffffffffffffffffffffffff\n      and\n      dup2\n      jump\t// out\n        /* \"contracts/OndaV1Pool.sol\":385:408  uint public totalSupply */\n    tag_26:\n      sload(0x0a)\n      dup2\n      jump\t// out\n        /* \"contracts/OndaV1Pool.sol\":229:246  address public lp */\n    tag_30:\n      0x03\n      0x00\n      swap1\n      sload\n      swap1\n      0x0100\n      exp\n      swap1\n      div\n      0xffffffffffffffffffffffffffffffffffffffff\n      and\n      dup2\n      jump\t// out\n        /* \"contracts/OndaV1Pool.sol\":293:313  uint public reserve0 */\n    tag_33:\n      sload(0x06)\n      dup2\n      jump\t// out\n        /* \"contracts/OndaV1Pool.sol\":317:337  uint public reserve1 */\n    tag_36:\n      sload(0x07)\n      dup2\n      jump\t// out\n        /* \"contracts/OndaV1Pool.sol\":363:381  uint public price1 */\n    tag_39:\n      sload(0x09)\n      dup2\n      jump\t// out\n        /* \"contracts/OndaV1Pool.sol\":1427:1639  function createPair(address _token0, address _token1, address _to) public {\r... */\n    tag_44:\n        /* \"contracts/OndaV1Pool.sol\":1528:1533  owner */\n      0x00\n      dup1\n      sload\n      swap1\n      0x0100\n      exp\n      swap1\n      div\n      0xffffffffffffffffffffffffffffffffffffffff\n      and\n        /* \"contracts/OndaV1Pool.sol\":1514:1533  msg.sender == owner */\n      0xffffffffffffffffffffffffffffffffffffffff\n      and\n        /* \"contracts/OndaV1Pool.sol\":1514:1524  msg.sender */\n      caller\n        /* \"contracts/OndaV1Pool.sol\":1514:1533  msg.sender == owner */\n      0xffffffffffffffffffffffffffffffffffffffff\n      and\n      eq\n        /* \"contracts/OndaV1Pool.sol\":1506:1547  require(msg.sender == owner, 'Not owner') */\n      tag_79\n      jumpi\n      mload(0x40)\n      0x08c379a000000000000000000000000000000000000000000000000000000000\n      dup2\n      mstore\n      0x04\n      add\n      tag_80\n      swap1\n      tag_81\n      jump\t// in\n    tag_80:\n      mload(0x40)\n      dup1\n      swap2\n      sub\n      swap1\n      revert\n    tag_79:\n        /* \"contracts/OndaV1Pool.sol\":1561:1568  _token0 */\n      dup3\n        /* \"contracts/OndaV1Pool.sol\":1552:1558  token0 */\n      0x01\n      0x00\n        /* \"contracts/OndaV1Pool.sol\":1552:1568  token0 = _token0 */\n      0x0100\n      exp\n      dup2\n      sload\n      dup2\n      0xffffffffffffffffffffffffffffffffffffffff\n      mul\n      not\n      and\n      swap1\n      dup4\n      0xffffffffffffffffffffffffffffffffffffffff\n      and\n      mul\n      or\n      swap1\n      sstore\n      pop\n        /* \"contracts/OndaV1Pool.sol\":1583:1590  _token1 */\n      dup2\n        /* \"contracts/OndaV1Pool.sol\":1573:1579  token1 */\n      0x02\n      0x00\n        /* \"contracts/OndaV1Pool.sol\":1573:1590  token1 =  _token1 */\n      0x0100\n      exp\n      dup2\n      sload\n      dup2\n      0xffffffffffffffffffffffffffffffffffffffff\n      mul\n      not\n      and\n      swap1\n      dup4\n      0xffffffffffffffffffffffffffffffffffffffff\n      and\n      mul\n      or\n      swap1\n      sstore\n      pop\n        /* \"contracts/OndaV1Pool.sol\":1600:1634  PairCreated(_token0, _token1, _to) */\n      0xa92a2b95c8d8436f6ac4c673c61487364f877efb9534d4296fad8ef904546c94\n        /* \"contracts/OndaV1Pool.sol\":1612:1619  _token0 */\n      dup4\n        /* \"contracts/OndaV1Pool.sol\":1621:1628  _token1 */\n      dup4\n        /* \"contracts/OndaV1Pool.sol\":1630:1633  _to */\n      dup4\n        /* \"contracts/OndaV1Pool.sol\":1600:1634  PairCreated(_token0, _token1, _to) */\n      mload(0x40)\n      tag_82\n      swap4\n      swap3\n      swap2\n      swap1\n      tag_83\n      jump\t// in\n    tag_82:\n      mload(0x40)\n      dup1\n      swap2\n      sub\n      swap1\n      log1\n        /* \"contracts/OndaV1Pool.sol\":1427:1639  function createPair(address _token0, address _token1, address _to) public {\r... */\n      pop\n      pop\n      pop\n      jump\t// out\n        /* \"contracts/OndaV1Pool.sol\":3772:5281  function _addLiquidity(address _token0, address _token1, uint amount0, uint amount1) public returns (bool) {\r... */\n    tag_48:\n        /* \"contracts/OndaV1Pool.sol\":3873:3877  bool */\n      0x00\n        /* \"contracts/OndaV1Pool.sol\":3885:3906  uint balanceContract0 */\n      dup1\n        /* \"contracts/OndaV1Pool.sol\":3908:3929  uint balanceContract1 */\n      0x00\n        /* \"contracts/OndaV1Pool.sol\":3933:3949  getBalancePair() */\n      tag_85\n        /* \"contracts/OndaV1Pool.sol\":3933:3947  getBalancePair */\n      tag_86\n        /* \"contracts/OndaV1Pool.sol\":3933:3949  getBalancePair() */\n      jump\t// in\n    tag_85:\n        /* \"contracts/OndaV1Pool.sol\":3884:3949  (uint balanceContract0, uint balanceContract1) = getBalancePair() */\n      swap2\n      pop\n      swap2\n      pop\n        /* \"contracts/OndaV1Pool.sol\":3973:3979  token0 */\n      0x01\n      0x00\n      swap1\n      sload\n      swap1\n      0x0100\n      exp\n      swap1\n      div\n      0xffffffffffffffffffffffffffffffffffffffff\n      and\n        /* \"contracts/OndaV1Pool.sol\":3962:3979  _token0 == token0 */\n      0xffffffffffffffffffffffffffffffffffffffff\n      and\n        /* \"contracts/OndaV1Pool.sol\":3962:3969  _token0 */\n      dup8\n        /* \"contracts/OndaV1Pool.sol\":3962:3979  _token0 == token0 */\n      0xffffffffffffffffffffffffffffffffffffffff\n      and\n      eq\n        /* \"contracts/OndaV1Pool.sol\":3962:4000  _token0 == token0 && _token1 == token1 */\n      dup1\n      iszero\n      tag_87\n      jumpi\n      pop\n        /* \"contracts/OndaV1Pool.sol\":3994:4000  token1 */\n      0x02\n      0x00\n      swap1\n      sload\n      swap1\n      0x0100\n      exp\n      swap1\n      div\n      0xffffffffffffffffffffffffffffffffffffffff\n      and\n        /* \"contracts/OndaV1Pool.sol\":3983:4000  _token1 == token1 */\n      0xffffffffffffffffffffffffffffffffffffffff\n      and\n        /* \"contracts/OndaV1Pool.sol\":3983:3990  _token1 */\n      dup7\n        /* \"contracts/OndaV1Pool.sol\":3983:4000  _token1 == token1 */\n      0xffffffffffffffffffffffffffffffffffffffff\n      and\n      eq\n        /* \"contracts/OndaV1Pool.sol\":3962:4000  _token0 == token0 && _token1 == token1 */\n    tag_87:\n        /* \"contracts/OndaV1Pool.sol\":3954:4021  require(_token0 == token0 && _token1 == token1, 'Not used address') */\n      tag_88\n      jumpi\n      mload(0x40)\n      0x08c379a000000000000000000000000000000000000000000000000000000000\n      dup2\n      mstore\n      0x04\n      add\n      tag_89\n      swap1\n      tag_90\n      jump\t// in\n    tag_89:\n      mload(0x40)\n      dup1\n      swap2\n      sub\n      swap1\n      revert\n    tag_88:\n        /* \"contracts/OndaV1Pool.sol\":4045:4052  amount1 */\n      dup4\n        /* \"contracts/OndaV1Pool.sol\":4034:4041  amount0 */\n      dup6\n        /* \"contracts/OndaV1Pool.sol\":4034:4052  amount0 == amount1 */\n      eq\n        /* \"contracts/OndaV1Pool.sol\":4026:4066  require(amount0 == amount1, 'Not equal') */\n      tag_91\n      jumpi\n      mload(0x40)\n      0x08c379a000000000000000000000000000000000000000000000000000000000\n      dup2\n      mstore\n      0x04\n      add\n      tag_92\n      swap1\n      tag_93\n      jump\t// in\n    tag_92:\n      mload(0x40)\n      dup1\n      swap2\n      sub\n      swap1\n      revert\n    tag_91:\n        /* \"contracts/OndaV1Pool.sol\":4071:4147  TransferHelper.safeTransferFrom(_token0, msg.sender, address(this), amount0) */\n      tag_94\n        /* \"contracts/OndaV1Pool.sol\":4103:4110  _token0 */\n      dup8\n        /* \"contracts/OndaV1Pool.sol\":4112:4122  msg.sender */\n      caller\n        /* \"contracts/OndaV1Pool.sol\":4132:4136  this */\n      address\n        /* \"contracts/OndaV1Pool.sol\":4139:4146  amount0 */\n      dup9\n        /* \"contracts/OndaV1Pool.sol\":4071:4102  TransferHelper.safeTransferFrom */\n      tag_95\n        /* \"contracts/OndaV1Pool.sol\":4071:4147  TransferHelper.safeTransferFrom(_token0, msg.sender, address(this), amount0) */\n      jump\t// in\n    tag_94:\n        /* \"contracts/OndaV1Pool.sol\":4158:4234  TransferHelper.safeTransferFrom(_token1, msg.sender, address(this), amount1) */\n      tag_96\n        /* \"contracts/OndaV1Pool.sol\":4190:4197  _token1 */\n      dup7\n        /* \"contracts/OndaV1Pool.sol\":4199:4209  msg.sender */\n      caller\n        /* \"contracts/OndaV1Pool.sol\":4219:4223  this */\n      address\n        /* \"contracts/OndaV1Pool.sol\":4226:4233  amount1 */\n      dup8\n        /* \"contracts/OndaV1Pool.sol\":4158:4189  TransferHelper.safeTransferFrom */\n      tag_95\n        /* \"contracts/OndaV1Pool.sol\":4158:4234  TransferHelper.safeTransferFrom(_token1, msg.sender, address(this), amount1) */\n      jump\t// in\n    tag_96:\n        /* \"contracts/OndaV1Pool.sol\":4247:4261  uint _balance0 */\n      0x00\n        /* \"contracts/OndaV1Pool.sol\":4271:4278  _token0 */\n      dup8\n        /* \"contracts/OndaV1Pool.sol\":4264:4289  IERC20(_token0).balanceOf */\n      0xffffffffffffffffffffffffffffffffffffffff\n      and\n      0x70a08231\n        /* \"contracts/OndaV1Pool.sol\":4298:4302  this */\n      address\n        /* \"contracts/OndaV1Pool.sol\":4264:4304  IERC20(_token0).balanceOf(address(this)) */\n      mload(0x40)\n      dup3\n      0xffffffff\n      and\n      0xe0\n      shl\n      dup2\n      mstore\n      0x04\n      add\n      tag_97\n      swap2\n      swap1\n      tag_24\n      jump\t// in\n    tag_97:\n      0x20\n      mload(0x40)\n      dup1\n      dup4\n      sub\n      dup2\n      dup7\n      dup1\n      extcodesize\n      iszero\n      dup1\n      iszero\n      tag_98\n      jumpi\n      0x00\n      dup1\n      revert\n    tag_98:\n      pop\n      gas\n      staticcall\n      iszero\n      dup1\n      iszero\n      tag_100\n      jumpi\n      returndatasize\n      0x00\n      dup1\n      returndatacopy\n      revert(0x00, returndatasize)\n    tag_100:\n      pop\n      pop\n      pop\n      pop\n      mload(0x40)\n      returndatasize\n      not(0x1f)\n      0x1f\n      dup3\n      add\n      and\n      dup3\n      add\n      dup1\n      0x40\n      mstore\n      pop\n      dup2\n      add\n      swap1\n      tag_101\n      swap2\n      swap1\n      tag_102\n      jump\t// in\n    tag_101:\n        /* \"contracts/OndaV1Pool.sol\":4247:4304  uint _balance0 = IERC20(_token0).balanceOf(address(this)) */\n      swap1\n      pop\n        /* \"contracts/OndaV1Pool.sol\":4312:4326  uint _balance1 */\n      0x00\n        /* \"contracts/OndaV1Pool.sol\":4336:4343  _token1 */\n      dup8\n        /* \"contracts/OndaV1Pool.sol\":4329:4354  IERC20(_token1).balanceOf */\n      0xffffffffffffffffffffffffffffffffffffffff\n      and\n      0x70a08231\n        /* \"contracts/OndaV1Pool.sol\":4363:4367  this */\n      address\n        /* \"contracts/OndaV1Pool.sol\":4329:4369  IERC20(_token1).balanceOf(address(this)) */\n      mload(0x40)\n      dup3\n      0xffffffff\n      and\n      0xe0\n      shl\n      dup2\n      mstore\n      0x04\n      add\n      tag_103\n      swap2\n      swap1\n      tag_24\n      jump\t// in\n    tag_103:\n      0x20\n      mload(0x40)\n      dup1\n      dup4\n      sub\n      dup2\n      dup7\n      dup1\n      extcodesize\n      iszero\n      dup1\n      iszero\n      tag_104\n      jumpi\n      0x00\n      dup1\n      revert\n    tag_104:\n      pop\n      gas\n      staticcall\n      iszero\n      dup1\n      iszero\n      tag_106\n      jumpi\n      returndatasize\n      0x00\n      dup1\n      returndatacopy\n      revert(0x00, returndatasize)\n    tag_106:\n      pop\n      pop\n      pop\n      pop\n      mload(0x40)\n      returndatasize\n      not(0x1f)\n      0x1f\n      dup3\n      add\n      and\n      dup3\n      add\n      dup1\n      0x40\n      mstore\n      pop\n      dup2\n      add\n      swap1\n      tag_107\n      swap2\n      swap1\n      tag_102\n      jump\t// in\n    tag_107:\n        /* \"contracts/OndaV1Pool.sol\":4312:4369  uint _balance1 = IERC20(_token1).balanceOf(address(this)) */\n      swap1\n      pop\n        /* \"contracts/OndaV1Pool.sol\":4382:4396  uint liquidity */\n      0x00\n        /* \"contracts/OndaV1Pool.sol\":4426:4427  0 */\n      dup1\n        /* \"contracts/OndaV1Pool.sol\":4411:4422  totalSupply */\n      sload(0x0a)\n        /* \"contracts/OndaV1Pool.sol\":4411:4427  totalSupply == 0 */\n      eq\n        /* \"contracts/OndaV1Pool.sol\":4407:4958  if (totalSupply == 0) {\r... */\n      iszero\n      tag_108\n      jumpi\n        /* \"contracts/OndaV1Pool.sol\":4453:4539  Math.sqrt(((_balance0 - balanceContract0) * (_balance1 - balanceContract1)) - min_liq) */\n      tag_109\n        /* \"contracts/OndaV1Pool.sol\":443:448  10**2 */\n      0x64\n        /* \"contracts/OndaV1Pool.sol\":4510:4526  balanceContract1 */\n      dup6\n        /* \"contracts/OndaV1Pool.sol\":4498:4507  _balance1 */\n      dup5\n        /* \"contracts/OndaV1Pool.sol\":4498:4526  _balance1 - balanceContract1 */\n      tag_110\n      swap2\n      swap1\n      tag_111\n      jump\t// in\n    tag_110:\n        /* \"contracts/OndaV1Pool.sol\":4477:4493  balanceContract0 */\n      dup8\n        /* \"contracts/OndaV1Pool.sol\":4465:4474  _balance0 */\n      dup7\n        /* \"contracts/OndaV1Pool.sol\":4465:4493  _balance0 - balanceContract0 */\n      tag_112\n      swap2\n      swap1\n      tag_111\n      jump\t// in\n    tag_112:\n        /* \"contracts/OndaV1Pool.sol\":4464:4527  (_balance0 - balanceContract0) * (_balance1 - balanceContract1) */\n      tag_113\n      swap2\n      swap1\n      tag_114\n      jump\t// in\n    tag_113:\n        /* \"contracts/OndaV1Pool.sol\":4463:4538  ((_balance0 - balanceContract0) * (_balance1 - balanceContract1)) - min_liq */\n      tag_115\n      swap2\n      swap1\n      tag_111\n      jump\t// in\n    tag_115:\n        /* \"contracts/OndaV1Pool.sol\":4453:4462  Math.sqrt */\n      tag_116\n        /* \"contracts/OndaV1Pool.sol\":4453:4539  Math.sqrt(((_balance0 - balanceContract0) * (_balance1 - balanceContract1)) - min_liq) */\n      jump\t// in\n    tag_109:\n        /* \"contracts/OndaV1Pool.sol\":4441:4539  liquidity = Math.sqrt(((_balance0 - balanceContract0) * (_balance1 - balanceContract1)) - min_liq) */\n      swap1\n      pop\n        /* \"contracts/OndaV1Pool.sol\":4571:4572  0 */\n      0x00\n        /* \"contracts/OndaV1Pool.sol\":4559:4568  liquidity */\n      dup2\n        /* \"contracts/OndaV1Pool.sol\":4559:4572  liquidity > 0 */\n      gt\n        /* \"contracts/OndaV1Pool.sol\":4551:4592  require(liquidity > 0, 'Minus liquidity') */\n      tag_117\n      jumpi\n      mload(0x40)\n      0x08c379a000000000000000000000000000000000000000000000000000000000\n      dup2\n      mstore\n      0x04\n      add\n      tag_118\n      swap1\n      tag_119\n      jump\t// in\n    tag_118:\n      mload(0x40)\n      dup1\n      swap2\n      sub\n      swap1\n      revert\n    tag_117:\n        /* \"contracts/OndaV1Pool.sol\":4604:4635  mint(lp, msg.sender, liquidity) */\n      tag_120\n        /* \"contracts/OndaV1Pool.sol\":4609:4611  lp */\n      0x03\n      0x00\n      swap1\n      sload\n      swap1\n      0x0100\n      exp\n      swap1\n      div\n      0xffffffffffffffffffffffffffffffffffffffff\n      and\n        /* \"contracts/OndaV1Pool.sol\":4613:4623  msg.sender */\n      caller\n        /* \"contracts/OndaV1Pool.sol\":4625:4634  liquidity */\n      dup4\n        /* \"contracts/OndaV1Pool.sol\":4604:4608  mint */\n      tag_121\n        /* \"contracts/OndaV1Pool.sol\":4604:4635  mint(lp, msg.sender, liquidity) */\n      jump\t// in\n    tag_120:\n        /* \"contracts/OndaV1Pool.sol\":4647:4672  updateK(_token0, _token1) */\n      tag_122\n        /* \"contracts/OndaV1Pool.sol\":4655:4662  _token0 */\n      dup11\n        /* \"contracts/OndaV1Pool.sol\":4664:4671  _token1 */\n      dup11\n        /* \"contracts/OndaV1Pool.sol\":4647:4654  updateK */\n      tag_54\n        /* \"contracts/OndaV1Pool.sol\":4647:4672  updateK(_token0, _token1) */\n      jump\t// in\n    tag_122:\n      pop\n        /* \"contracts/OndaV1Pool.sol\":4407:4958  if (totalSupply == 0) {\r... */\n      jump(tag_123)\n    tag_108:\n        /* \"contracts/OndaV1Pool.sol\":4711:4853  Math.min(((_balance0 - balanceContract0) * totalSupply) / balanceContract0, ((_balance1 - balanceContract1) * totalSupply) / balanceContract1) */\n      tag_124\n        /* \"contracts/OndaV1Pool.sol\":4769:4785  balanceContract0 */\n      dup6\n        /* \"contracts/OndaV1Pool.sol\":4754:4765  totalSupply */\n      sload(0x0a)\n        /* \"contracts/OndaV1Pool.sol\":4734:4750  balanceContract0 */\n      dup8\n        /* \"contracts/OndaV1Pool.sol\":4722:4731  _balance0 */\n      dup7\n        /* \"contracts/OndaV1Pool.sol\":4722:4750  _balance0 - balanceContract0 */\n      tag_125\n      swap2\n      swap1\n      tag_111\n      jump\t// in\n    tag_125:\n        /* \"contracts/OndaV1Pool.sol\":4721:4765  (_balance0 - balanceContract0) * totalSupply */\n      tag_126\n      swap2\n      swap1\n      tag_114\n      jump\t// in\n    tag_126:\n        /* \"contracts/OndaV1Pool.sol\":4720:4785  ((_balance0 - balanceContract0) * totalSupply) / balanceContract0 */\n      tag_127\n      swap2\n      swap1\n      tag_128\n      jump\t// in\n    tag_127:\n        /* \"contracts/OndaV1Pool.sol\":4836:4852  balanceContract1 */\n      dup6\n        /* \"contracts/OndaV1Pool.sol\":4821:4832  totalSupply */\n      sload(0x0a)\n        /* \"contracts/OndaV1Pool.sol\":4801:4817  balanceContract1 */\n      dup8\n        /* \"contracts/OndaV1Pool.sol\":4789:4798  _balance1 */\n      dup7\n        /* \"contracts/OndaV1Pool.sol\":4789:4817  _balance1 - balanceContract1 */\n      tag_129\n      swap2\n      swap1\n      tag_111\n      jump\t// in\n    tag_129:\n        /* \"contracts/OndaV1Pool.sol\":4788:4832  (_balance1 - balanceContract1) * totalSupply */\n      tag_130\n      swap2\n      swap1\n      tag_114\n      jump\t// in\n    tag_130:\n        /* \"contracts/OndaV1Pool.sol\":4787:4852  ((_balance1 - balanceContract1) * totalSupply) / balanceContract1 */\n      tag_131\n      swap2\n      swap1\n      tag_128\n      jump\t// in\n    tag_131:\n        /* \"contracts/OndaV1Pool.sol\":4711:4719  Math.min */\n      tag_132\n        /* \"contracts/OndaV1Pool.sol\":4711:4853  Math.min(((_balance0 - balanceContract0) * totalSupply) / balanceContract0, ((_balance1 - balanceContract1) * totalSupply) / balanceContract1) */\n      jump\t// in\n    tag_124:\n        /* \"contracts/OndaV1Pool.sol\":4699:4853  liquidity = Math.min(((_balance0 - balanceContract0) * totalSupply) / balanceContract0, ((_balance1 - balanceContract1) * totalSupply) / balanceContract1) */\n      swap1\n      pop\n        /* \"contracts/OndaV1Pool.sol\":4885:4886  0 */\n      0x00\n        /* \"contracts/OndaV1Pool.sol\":4873:4882  liquidity */\n      dup2\n        /* \"contracts/OndaV1Pool.sol\":4873:4886  liquidity > 0 */\n      gt\n        /* \"contracts/OndaV1Pool.sol\":4865:4906  require(liquidity > 0, 'Minus liquidity') */\n      tag_133\n      jumpi\n      mload(0x40)\n      0x08c379a000000000000000000000000000000000000000000000000000000000\n      dup2\n      mstore\n      0x04\n      add\n      tag_134\n      swap1\n      tag_119\n      jump\t// in\n    tag_134:\n      mload(0x40)\n      dup1\n      swap2\n      sub\n      swap1\n      revert\n    tag_133:\n        /* \"contracts/OndaV1Pool.sol\":4918:4949  mint(lp, msg.sender, liquidity) */\n      tag_135\n        /* \"contracts/OndaV1Pool.sol\":4923:4925  lp */\n      0x03\n      0x00\n      swap1\n      sload\n      swap1\n      0x0100\n      exp\n      swap1\n      div\n      0xffffffffffffffffffffffffffffffffffffffff\n      and\n        /* \"contracts/OndaV1Pool.sol\":4927:4937  msg.sender */\n      caller\n        /* \"contracts/OndaV1Pool.sol\":4939:4948  liquidity */\n      dup4\n        /* \"contracts/OndaV1Pool.sol\":4918:4922  mint */\n      tag_121\n        /* \"contracts/OndaV1Pool.sol\":4918:4949  mint(lp, msg.sender, liquidity) */\n      jump\t// in\n    tag_135:\n        /* \"contracts/OndaV1Pool.sol\":4407:4958  if (totalSupply == 0) {\r... */\n    tag_123:\n        /* \"contracts/OndaV1Pool.sol\":4978:4987  liquidity */\n      dup1\n        /* \"contracts/OndaV1Pool.sol\":4965:4976  totalSupply */\n      0x0a\n      0x00\n        /* \"contracts/OndaV1Pool.sol\":4965:4987  totalSupply+=liquidity */\n      dup3\n      dup3\n      sload\n      tag_136\n      swap2\n      swap1\n      tag_137\n      jump\t// in\n    tag_136:\n      swap3\n      pop\n      pop\n      dup2\n      swap1\n      sstore\n      pop\n        /* \"contracts/OndaV1Pool.sol\":4998:5014  uint256 balance0 */\n      0x00\n        /* \"contracts/OndaV1Pool.sol\":5024:5031  _token0 */\n      dup11\n        /* \"contracts/OndaV1Pool.sol\":5017:5042  IERC20(_token0).balanceOf */\n      0xffffffffffffffffffffffffffffffffffffffff\n      and\n      0x70a08231\n        /* \"contracts/OndaV1Pool.sol\":5051:5055  this */\n      address\n        /* \"contracts/OndaV1Pool.sol\":5017:5057  IERC20(_token0).balanceOf(address(this)) */\n      mload(0x40)\n      dup3\n      0xffffffff\n      and\n      0xe0\n      shl\n      dup2\n      mstore\n      0x04\n      add\n      tag_138\n      swap2\n      swap1\n      tag_24\n      jump\t// in\n    tag_138:\n      0x20\n      mload(0x40)\n      dup1\n      dup4\n      sub\n      dup2\n      dup7\n      dup1\n      extcodesize\n      iszero\n      dup1\n      iszero\n      tag_139\n      jumpi\n      0x00\n      dup1\n      revert\n    tag_139:\n      pop\n      gas\n      staticcall\n      iszero\n      dup1\n      iszero\n      tag_141\n      jumpi\n      returndatasize\n      0x00\n      dup1\n      returndatacopy\n      revert(0x00, returndatasize)\n    tag_141:\n      pop\n      pop\n      pop\n      pop\n      mload(0x40)\n      returndatasize\n      not(0x1f)\n      0x1f\n      dup3\n      add\n      and\n      dup3\n      add\n      dup1\n      0x40\n      mstore\n      pop\n      dup2\n      add\n      swap1\n      tag_142\n      swap2\n      swap1\n      tag_102\n      jump\t// in\n    tag_142:\n        /* \"contracts/OndaV1Pool.sol\":4998:5057  uint256 balance0 = IERC20(_token0).balanceOf(address(this)) */\n      swap1\n      pop\n        /* \"contracts/OndaV1Pool.sol\":5068:5084  uint256 balance1 */\n      0x00\n        /* \"contracts/OndaV1Pool.sol\":5094:5101  _token1 */\n      dup11\n        /* \"contracts/OndaV1Pool.sol\":5087:5112  IERC20(_token1).balanceOf */\n      0xffffffffffffffffffffffffffffffffffffffff\n      and\n      0x70a08231\n        /* \"contracts/OndaV1Pool.sol\":5121:5125  this */\n      address\n        /* \"contracts/OndaV1Pool.sol\":5087:5127  IERC20(_token1).balanceOf(address(this)) */\n      mload(0x40)\n      dup3\n      0xffffffff\n      and\n      0xe0\n      shl\n      dup2\n      mstore\n      0x04\n      add\n      tag_143\n      swap2\n      swap1\n      tag_24\n      jump\t// in\n    tag_143:\n      0x20\n      mload(0x40)\n      dup1\n      dup4\n      sub\n      dup2\n      dup7\n      dup1\n      extcodesize\n      iszero\n      dup1\n      iszero\n      tag_144\n      jumpi\n      0x00\n      dup1\n      revert\n    tag_144:\n      pop\n      gas\n      staticcall\n      iszero\n      dup1\n      iszero\n      tag_146\n      jumpi\n      returndatasize\n      0x00\n      dup1\n      returndatacopy\n      revert(0x00, returndatasize)\n    tag_146:\n      pop\n      pop\n      pop\n      pop\n      mload(0x40)\n      returndatasize\n      not(0x1f)\n      0x1f\n      dup3\n      add\n      and\n      dup3\n      add\n      dup1\n      0x40\n      mstore\n      pop\n      dup2\n      add\n      swap1\n      tag_147\n      swap2\n      swap1\n      tag_102\n      jump\t// in\n    tag_147:\n        /* \"contracts/OndaV1Pool.sol\":5068:5127  uint256 balance1 = IERC20(_token1).balanceOf(address(this)) */\n      swap1\n      pop\n        /* \"contracts/OndaV1Pool.sol\":5138:5190  _updateStorage(_token0, _token1, balance0, balance1) */\n      tag_148\n        /* \"contracts/OndaV1Pool.sol\":5153:5160  _token0 */\n      dup13\n        /* \"contracts/OndaV1Pool.sol\":5162:5169  _token1 */\n      dup13\n        /* \"contracts/OndaV1Pool.sol\":5171:5179  balance0 */\n      dup5\n        /* \"contracts/OndaV1Pool.sol\":5181:5189  balance1 */\n      dup5\n        /* \"contracts/OndaV1Pool.sol\":5138:5152  _updateStorage */\n      tag_149\n        /* \"contracts/OndaV1Pool.sol\":5138:5190  _updateStorage(_token0, _token1, balance0, balance1) */\n      jump\t// in\n    tag_148:\n        /* \"contracts/OndaV1Pool.sol\":5206:5254  AddLiquidity(_token0, _token1, amount0, amount1) */\n      0xd2491a9b4fe81a7cd4511e8b7b7743951b061dad5bed7da8a7795b080ee08c7e\n        /* \"contracts/OndaV1Pool.sol\":5219:5226  _token0 */\n      dup13\n        /* \"contracts/OndaV1Pool.sol\":5228:5235  _token1 */\n      dup13\n        /* \"contracts/OndaV1Pool.sol\":5237:5244  amount0 */\n      dup13\n        /* \"contracts/OndaV1Pool.sol\":5246:5253  amount1 */\n      dup13\n        /* \"contracts/OndaV1Pool.sol\":5206:5254  AddLiquidity(_token0, _token1, amount0, amount1) */\n      mload(0x40)\n      tag_150\n      swap5\n      swap4\n      swap3\n      swap2\n      swap1\n      tag_151\n      jump\t// in\n    tag_150:\n      mload(0x40)\n      dup1\n      swap2\n      sub\n      swap1\n      log1\n        /* \"contracts/OndaV1Pool.sol\":5272:5276  true */\n      0x01\n        /* \"contracts/OndaV1Pool.sol\":5265:5276  return true */\n      swap8\n      pop\n      pop\n      pop\n      pop\n      pop\n      pop\n      pop\n      pop\n        /* \"contracts/OndaV1Pool.sol\":3772:5281  function _addLiquidity(address _token0, address _token1, uint amount0, uint amount1) public returns (bool) {\r... */\n      swap5\n      swap4\n      pop\n      pop\n      pop\n      pop\n      jump\t// out\n        /* \"contracts/OndaV1Pool.sol\":3451:3767  function updateK(address _token0, address _token1) public returns (uint) {\r... */\n    tag_54:\n        /* \"contracts/OndaV1Pool.sol\":3518:3522  uint */\n      0x00\n        /* \"contracts/OndaV1Pool.sol\":3544:3545  0 */\n      dup1\n        /* \"contracts/OndaV1Pool.sol\":3537:3540  key */\n      sload(0x05)\n        /* \"contracts/OndaV1Pool.sol\":3537:3545  key == 0 */\n      eq\n        /* \"contracts/OndaV1Pool.sol\":3529:3556  require(key == 0, 'Locked') */\n      tag_153\n      jumpi\n      mload(0x40)\n      0x08c379a000000000000000000000000000000000000000000000000000000000\n      dup2\n      mstore\n      0x04\n      add\n      tag_154\n      swap1\n      tag_155\n      jump\t// in\n    tag_154:\n      mload(0x40)\n      dup1\n      swap2\n      sub\n      swap1\n      revert\n    tag_153:\n        /* \"contracts/OndaV1Pool.sol\":3561:3574  uint balance0 */\n      0x00\n        /* \"contracts/OndaV1Pool.sol\":3584:3591  _token0 */\n      dup4\n        /* \"contracts/OndaV1Pool.sol\":3577:3602  IERC20(_token0).balanceOf */\n      0xffffffffffffffffffffffffffffffffffffffff\n      and\n      0x70a08231\n        /* \"contracts/OndaV1Pool.sol\":3611:3615  this */\n      address\n        /* \"contracts/OndaV1Pool.sol\":3577:3617  IERC20(_token0).balanceOf(address(this)) */\n      mload(0x40)\n      dup3\n      0xffffffff\n      and\n      0xe0\n      shl\n      dup2\n      mstore\n      0x04\n      add\n      tag_156\n      swap2\n      swap1\n      tag_24\n      jump\t// in\n    tag_156:\n      0x20\n      mload(0x40)\n      dup1\n      dup4\n      sub\n      dup2\n      dup7\n      dup1\n      extcodesize\n      iszero\n      dup1\n      iszero\n      tag_157\n      jumpi\n      0x00\n      dup1\n      revert\n    tag_157:\n      pop\n      gas\n      staticcall\n      iszero\n      dup1\n      iszero\n      tag_159\n      jumpi\n      returndatasize\n      0x00\n      dup1\n      returndatacopy\n      revert(0x00, returndatasize)\n    tag_159:\n      pop\n      pop\n      pop\n      pop\n      mload(0x40)\n      returndatasize\n      not(0x1f)\n      0x1f\n      dup3\n      add\n      and\n      dup3\n      add\n      dup1\n      0x40\n      mstore\n      pop\n      dup2\n      add\n      swap1\n      tag_160\n      swap2\n      swap1\n      tag_102\n      jump\t// in\n    tag_160:\n        /* \"contracts/OndaV1Pool.sol\":3561:3617  uint balance0 = IERC20(_token0).balanceOf(address(this)) */\n      swap1\n      pop\n        /* \"contracts/OndaV1Pool.sol\":3628:3641  uint balance1 */\n      0x00\n        /* \"contracts/OndaV1Pool.sol\":3651:3658  _token1 */\n      dup4\n        /* \"contracts/OndaV1Pool.sol\":3644:3669  IERC20(_token1).balanceOf */\n      0xffffffffffffffffffffffffffffffffffffffff\n      and\n      0x70a08231\n        /* \"contracts/OndaV1Pool.sol\":3678:3682  this */\n      address\n        /* \"contracts/OndaV1Pool.sol\":3644:3684  IERC20(_token1).balanceOf(address(this)) */\n      mload(0x40)\n      dup3\n      0xffffffff\n      and\n      0xe0\n      shl\n      dup2\n      mstore\n      0x04\n      add\n      tag_161\n      swap2\n      swap1\n      tag_24\n      jump\t// in\n    tag_161:\n      0x20\n      mload(0x40)\n      dup1\n      dup4\n      sub\n      dup2\n      dup7\n      dup1\n      extcodesize\n      iszero\n      dup1\n      iszero\n      tag_162\n      jumpi\n      0x00\n      dup1\n      revert\n    tag_162:\n      pop\n      gas\n      staticcall\n      iszero\n      dup1\n      iszero\n      tag_164\n      jumpi\n      returndatasize\n      0x00\n      dup1\n      returndatacopy\n      revert(0x00, returndatasize)\n    tag_164:\n      pop\n      pop\n      pop\n      pop\n      mload(0x40)\n      returndatasize\n      not(0x1f)\n      0x1f\n      dup3\n      add\n      and\n      dup3\n      add\n      dup1\n      0x40\n      mstore\n      pop\n      dup2\n      add\n      swap1\n      tag_165\n      swap2\n      swap1\n      tag_102\n      jump\t// in\n    tag_165:\n        /* \"contracts/OndaV1Pool.sol\":3628:3684  uint balance1 = IERC20(_token1).balanceOf(address(this)) */\n      swap1\n      pop\n        /* \"contracts/OndaV1Pool.sol\":3699:3700  0 */\n      0x00\n        /* \"contracts/OndaV1Pool.sol\":3692:3695  key */\n      sload(0x05)\n        /* \"contracts/OndaV1Pool.sol\":3692:3700  key == 0 */\n      eq\n        /* \"contracts/OndaV1Pool.sol\":3689:3750  if(key == 0) {\r... */\n      iszero\n      tag_166\n      jumpi\n        /* \"contracts/OndaV1Pool.sol\":3723:3731  balance1 */\n      dup1\n        /* \"contracts/OndaV1Pool.sol\":3712:3720  balance0 */\n      dup3\n        /* \"contracts/OndaV1Pool.sol\":3712:3731  balance0 * balance1 */\n      tag_167\n      swap2\n      swap1\n      tag_114\n      jump\t// in\n    tag_167:\n        /* \"contracts/OndaV1Pool.sol\":3708:3709  k */\n      0x04\n        /* \"contracts/OndaV1Pool.sol\":3708:3731  k = balance0 * balance1 */\n      dup2\n      swap1\n      sstore\n      pop\n        /* \"contracts/OndaV1Pool.sol\":3743:3744  1 */\n      0x01\n        /* \"contracts/OndaV1Pool.sol\":3737:3740  key */\n      0x05\n        /* \"contracts/OndaV1Pool.sol\":3737:3744  key = 1 */\n      dup2\n      swap1\n      sstore\n      pop\n        /* \"contracts/OndaV1Pool.sol\":3689:3750  if(key == 0) {\r... */\n    tag_166:\n        /* \"contracts/OndaV1Pool.sol\":3761:3762  k */\n      sload(0x04)\n        /* \"contracts/OndaV1Pool.sol\":3754:3762  return k */\n      swap3\n      pop\n      pop\n      pop\n        /* \"contracts/OndaV1Pool.sol\":3451:3767  function updateK(address _token0, address _token1) public returns (uint) {\r... */\n      swap3\n      swap2\n      pop\n      pop\n      jump\t// out\n        /* \"contracts/OndaV1Pool.sol\":412:448  uint public constant min_liq = 10**2 */\n    tag_57:\n        /* \"contracts/OndaV1Pool.sol\":443:448  10**2 */\n      0x64\n        /* \"contracts/OndaV1Pool.sol\":412:448  uint public constant min_liq = 10**2 */\n      dup2\n      jump\t// out\n        /* \"contracts/OndaV1Pool.sol\":6384:7407  function _swap(address _token0, address _token1, address _to, uint amount0, uint amount1) public returns (bool) {\r... */\n    tag_62:\n        /* \"contracts/OndaV1Pool.sol\":6490:6494  bool */\n      0x00\n        /* \"contracts/OndaV1Pool.sol\":6502:6523  uint balanceContract0 */\n      dup1\n        /* \"contracts/OndaV1Pool.sol\":6525:6546  uint balanceContract1 */\n      0x00\n        /* \"contracts/OndaV1Pool.sol\":6550:6566  getBalancePair() */\n      tag_169\n        /* \"contracts/OndaV1Pool.sol\":6550:6564  getBalancePair */\n      tag_86\n        /* \"contracts/OndaV1Pool.sol\":6550:6566  getBalancePair() */\n      jump\t// in\n    tag_169:\n        /* \"contracts/OndaV1Pool.sol\":6501:6566  (uint balanceContract0, uint balanceContract1) = getBalancePair() */\n      swap2\n      pop\n      swap2\n      pop\n        /* \"contracts/OndaV1Pool.sol\":6590:6596  token0 */\n      0x01\n      0x00\n      swap1\n      sload\n      swap1\n      0x0100\n      exp\n      swap1\n      div\n      0xffffffffffffffffffffffffffffffffffffffff\n      and\n        /* \"contracts/OndaV1Pool.sol\":6579:6596  _token0 == token0 */\n      0xffffffffffffffffffffffffffffffffffffffff\n      and\n        /* \"contracts/OndaV1Pool.sol\":6579:6586  _token0 */\n      dup9\n        /* \"contracts/OndaV1Pool.sol\":6579:6596  _token0 == token0 */\n      0xffffffffffffffffffffffffffffffffffffffff\n      and\n      eq\n        /* \"contracts/OndaV1Pool.sol\":6579:6617  _token0 == token0 && _token1 == token1 */\n      dup1\n      iszero\n      tag_170\n      jumpi\n      pop\n        /* \"contracts/OndaV1Pool.sol\":6611:6617  token1 */\n      0x02\n      0x00\n      swap1\n      sload\n      swap1\n      0x0100\n      exp\n      swap1\n      div\n      0xffffffffffffffffffffffffffffffffffffffff\n      and\n        /* \"contracts/OndaV1Pool.sol\":6600:6617  _token1 == token1 */\n      0xffffffffffffffffffffffffffffffffffffffff\n      and\n        /* \"contracts/OndaV1Pool.sol\":6600:6607  _token1 */\n      dup8\n        /* \"contracts/OndaV1Pool.sol\":6600:6617  _token1 == token1 */\n      0xffffffffffffffffffffffffffffffffffffffff\n      and\n      eq\n        /* \"contracts/OndaV1Pool.sol\":6579:6617  _token0 == token0 && _token1 == token1 */\n    tag_170:\n        /* \"contracts/OndaV1Pool.sol\":6571:6638  require(_token0 == token0 && _token1 == token1, 'Not used address') */\n      tag_171\n      jumpi\n      mload(0x40)\n      0x08c379a000000000000000000000000000000000000000000000000000000000\n      dup2\n      mstore\n      0x04\n      add\n      tag_172\n      swap1\n      tag_90\n      jump\t// in\n    tag_172:\n      mload(0x40)\n      dup1\n      swap2\n      sub\n      swap1\n      revert\n    tag_171:\n        /* \"contracts/OndaV1Pool.sol\":6661:6662  0 */\n      0x00\n        /* \"contracts/OndaV1Pool.sol\":6651:6658  amount0 */\n      dup6\n        /* \"contracts/OndaV1Pool.sol\":6651:6662  amount0 > 0 */\n      gt\n        /* \"contracts/OndaV1Pool.sol\":6651:6677  amount0 > 0 || amount1 > 0 */\n      dup1\n      tag_173\n      jumpi\n      pop\n        /* \"contracts/OndaV1Pool.sol\":6676:6677  0 */\n      0x00\n        /* \"contracts/OndaV1Pool.sol\":6666:6673  amount1 */\n      dup5\n        /* \"contracts/OndaV1Pool.sol\":6666:6677  amount1 > 0 */\n      gt\n        /* \"contracts/OndaV1Pool.sol\":6651:6677  amount0 > 0 || amount1 > 0 */\n    tag_173:\n        /* \"contracts/OndaV1Pool.sol\":6643:6693  require(amount0 > 0 || amount1 > 0, 'Zero amount') */\n      tag_174\n      jumpi\n      mload(0x40)\n      0x08c379a000000000000000000000000000000000000000000000000000000000\n      dup2\n      mstore\n      0x04\n      add\n      tag_175\n      swap1\n      tag_176\n      jump\t// in\n    tag_175:\n      mload(0x40)\n      dup1\n      swap2\n      sub\n      swap1\n      revert\n    tag_174:\n        /* \"contracts/OndaV1Pool.sol\":6713:6720  _token0 */\n      dup8\n        /* \"contracts/OndaV1Pool.sol\":6706:6720  _to != _token0 */\n      0xffffffffffffffffffffffffffffffffffffffff\n      and\n        /* \"contracts/OndaV1Pool.sol\":6706:6709  _to */\n      dup7\n        /* \"contracts/OndaV1Pool.sol\":6706:6720  _to != _token0 */\n      0xffffffffffffffffffffffffffffffffffffffff\n      and\n      eq\n      iszero\n        /* \"contracts/OndaV1Pool.sol\":6706:6738  _to != _token0 && _to != _token1 */\n      dup1\n      iszero\n      tag_177\n      jumpi\n      pop\n        /* \"contracts/OndaV1Pool.sol\":6731:6738  _token1 */\n      dup7\n        /* \"contracts/OndaV1Pool.sol\":6724:6738  _to != _token1 */\n      0xffffffffffffffffffffffffffffffffffffffff\n      and\n        /* \"contracts/OndaV1Pool.sol\":6724:6727  _to */\n      dup7\n        /* \"contracts/OndaV1Pool.sol\":6724:6738  _to != _token1 */\n      0xffffffffffffffffffffffffffffffffffffffff\n      and\n      eq\n      iszero\n        /* \"contracts/OndaV1Pool.sol\":6706:6738  _to != _token0 && _to != _token1 */\n    tag_177:\n        /* \"contracts/OndaV1Pool.sol\":6698:6759  require(_to != _token0 && _to != _token1, 'Not used address') */\n      tag_178\n      jumpi\n      mload(0x40)\n      0x08c379a000000000000000000000000000000000000000000000000000000000\n      dup2\n      mstore\n      0x04\n      add\n      tag_179\n      swap1\n      tag_90\n      jump\t// in\n    tag_179:\n      mload(0x40)\n      dup1\n      swap2\n      sub\n      swap1\n      revert\n    tag_178:\n        /* \"contracts/OndaV1Pool.sol\":6780:6781  0 */\n      0x00\n        /* \"contracts/OndaV1Pool.sol\":6770:6777  amount0 */\n      dup6\n        /* \"contracts/OndaV1Pool.sol\":6770:6781  amount0 > 0 */\n      gt\n        /* \"contracts/OndaV1Pool.sol\":6766:6929  if (amount0 > 0) {\r... */\n      iszero\n      tag_180\n      jumpi\n        /* \"contracts/OndaV1Pool.sol\":6789:6865  TransferHelper.safeTransferFrom(_token1, msg.sender, address(this), amount0) */\n      tag_181\n        /* \"contracts/OndaV1Pool.sol\":6821:6828  _token1 */\n      dup8\n        /* \"contracts/OndaV1Pool.sol\":6830:6840  msg.sender */\n      caller\n        /* \"contracts/OndaV1Pool.sol\":6850:6854  this */\n      address\n        /* \"contracts/OndaV1Pool.sol\":6857:6864  amount0 */\n      dup9\n        /* \"contracts/OndaV1Pool.sol\":6789:6820  TransferHelper.safeTransferFrom */\n      tag_95\n        /* \"contracts/OndaV1Pool.sol\":6789:6865  TransferHelper.safeTransferFrom(_token1, msg.sender, address(this), amount0) */\n      jump\t// in\n    tag_181:\n        /* \"contracts/OndaV1Pool.sol\":6871:6921  TransferHelper.safeTransfer(_token0, _to, amount0) */\n      tag_182\n        /* \"contracts/OndaV1Pool.sol\":6899:6906  _token0 */\n      dup9\n        /* \"contracts/OndaV1Pool.sol\":6908:6911  _to */\n      dup8\n        /* \"contracts/OndaV1Pool.sol\":6913:6920  amount0 */\n      dup8\n        /* \"contracts/OndaV1Pool.sol\":6871:6898  TransferHelper.safeTransfer */\n      tag_183\n        /* \"contracts/OndaV1Pool.sol\":6871:6921  TransferHelper.safeTransfer(_token0, _to, amount0) */\n      jump\t// in\n    tag_182:\n        /* \"contracts/OndaV1Pool.sol\":6766:6929  if (amount0 > 0) {\r... */\n    tag_180:\n        /* \"contracts/OndaV1Pool.sol\":6953:6954  0 */\n      0x00\n        /* \"contracts/OndaV1Pool.sol\":6943:6950  amount1 */\n      dup5\n        /* \"contracts/OndaV1Pool.sol\":6943:6954  amount1 > 0 */\n      gt\n        /* \"contracts/OndaV1Pool.sol\":6939:7118  if (amount1 > 0) {\r... */\n      iszero\n      tag_184\n      jumpi\n        /* \"contracts/OndaV1Pool.sol\":6968:7044  TransferHelper.safeTransferFrom(_token0, msg.sender, address(this), amount1) */\n      tag_185\n        /* \"contracts/OndaV1Pool.sol\":7000:7007  _token0 */\n      dup9\n        /* \"contracts/OndaV1Pool.sol\":7009:7019  msg.sender */\n      caller\n        /* \"contracts/OndaV1Pool.sol\":7029:7033  this */\n      address\n        /* \"contracts/OndaV1Pool.sol\":7036:7043  amount1 */\n      dup8\n        /* \"contracts/OndaV1Pool.sol\":6968:6999  TransferHelper.safeTransferFrom */\n      tag_95\n        /* \"contracts/OndaV1Pool.sol\":6968:7044  TransferHelper.safeTransferFrom(_token0, msg.sender, address(this), amount1) */\n      jump\t// in\n    tag_185:\n        /* \"contracts/OndaV1Pool.sol\":7056:7106  TransferHelper.safeTransfer(_token1, _to, amount1) */\n      tag_186\n        /* \"contracts/OndaV1Pool.sol\":7084:7091  _token1 */\n      dup8\n        /* \"contracts/OndaV1Pool.sol\":7093:7096  _to */\n      dup8\n        /* \"contracts/OndaV1Pool.sol\":7098:7105  amount1 */\n      dup7\n        /* \"contracts/OndaV1Pool.sol\":7056:7083  TransferHelper.safeTransfer */\n      tag_183\n        /* \"contracts/OndaV1Pool.sol\":7056:7106  TransferHelper.safeTransfer(_token1, _to, amount1) */\n      jump\t// in\n    tag_186:\n        /* \"contracts/OndaV1Pool.sol\":6939:7118  if (amount1 > 0) {\r... */\n    tag_184:\n        /* \"contracts/OndaV1Pool.sol\":7130:7146  uint newBalance0 */\n      0x00\n        /* \"contracts/OndaV1Pool.sol\":7156:7163  _token0 */\n      dup9\n        /* \"contracts/OndaV1Pool.sol\":7149:7174  IERC20(_token0).balanceOf */\n      0xffffffffffffffffffffffffffffffffffffffff\n      and\n      0x70a08231\n        /* \"contracts/OndaV1Pool.sol\":7183:7187  this */\n      address\n        /* \"contracts/OndaV1Pool.sol\":7149:7189  IERC20(_token0).balanceOf(address(this)) */\n      mload(0x40)\n      dup3\n      0xffffffff\n      and\n      0xe0\n      shl\n      dup2\n      mstore\n      0x04\n      add\n      tag_187\n      swap2\n      swap1\n      tag_24\n      jump\t// in\n    tag_187:\n      0x20\n      mload(0x40)\n      dup1\n      dup4\n      sub\n      dup2\n      dup7\n      dup1\n      extcodesize\n      iszero\n      dup1\n      iszero\n      tag_188\n      jumpi\n      0x00\n      dup1\n      revert\n    tag_188:\n      pop\n      gas\n      staticcall\n      iszero\n      dup1\n      iszero\n      tag_190\n      jumpi\n      returndatasize\n      0x00\n      dup1\n      returndatacopy\n      revert(0x00, returndatasize)\n    tag_190:\n      pop\n      pop\n      pop\n      pop\n      mload(0x40)\n      returndatasize\n      not(0x1f)\n      0x1f\n      dup3\n      add\n      and\n      dup3\n      add\n      dup1\n      0x40\n      mstore\n      pop\n      dup2\n      add\n      swap1\n      tag_191\n      swap2\n      swap1\n      tag_102\n      jump\t// in\n    tag_191:\n        /* \"contracts/OndaV1Pool.sol\":7130:7189  uint newBalance0 = IERC20(_token0).balanceOf(address(this)) */\n      swap1\n      pop\n        /* \"contracts/OndaV1Pool.sol\":7194:7210  uint newBalance1 */\n      0x00\n        /* \"contracts/OndaV1Pool.sol\":7220:7227  _token1 */\n      dup9\n        /* \"contracts/OndaV1Pool.sol\":7213:7238  IERC20(_token1).balanceOf */\n      0xffffffffffffffffffffffffffffffffffffffff\n      and\n      0x70a08231\n        /* \"contracts/OndaV1Pool.sol\":7247:7251  this */\n      address\n        /* \"contracts/OndaV1Pool.sol\":7213:7253  IERC20(_token1).balanceOf(address(this)) */\n      mload(0x40)\n      dup3\n      0xffffffff\n      and\n      0xe0\n      shl\n      dup2\n      mstore\n      0x04\n      add\n      tag_192\n      swap2\n      swap1\n      tag_24\n      jump\t// in\n    tag_192:\n      0x20\n      mload(0x40)\n      dup1\n      dup4\n      sub\n      dup2\n      dup7\n      dup1\n      extcodesize\n      iszero\n      dup1\n      iszero\n      tag_193\n      jumpi\n      0x00\n      dup1\n      revert\n    tag_193:\n      pop\n      gas\n      staticcall\n      iszero\n      dup1\n      iszero\n      tag_195\n      jumpi\n      returndatasize\n      0x00\n      dup1\n      returndatacopy\n      revert(0x00, returndatasize)\n    tag_195:\n      pop\n      pop\n      pop\n      pop\n      mload(0x40)\n      returndatasize\n      not(0x1f)\n      0x1f\n      dup3\n      add\n      and\n      dup3\n      add\n      dup1\n      0x40\n      mstore\n      pop\n      dup2\n      add\n      swap1\n      tag_196\n      swap2\n      swap1\n      tag_102\n      jump\t// in\n    tag_196:\n        /* \"contracts/OndaV1Pool.sol\":7194:7253  uint newBalance1 = IERC20(_token1).balanceOf(address(this)) */\n      swap1\n      pop\n        /* \"contracts/OndaV1Pool.sol\":7261:7319  _updateStorage(_token0, _token1, newBalance0, newBalance1) */\n      tag_197\n        /* \"contracts/OndaV1Pool.sol\":7276:7283  _token0 */\n      dup11\n        /* \"contracts/OndaV1Pool.sol\":7285:7292  _token1 */\n      dup11\n        /* \"contracts/OndaV1Pool.sol\":7294:7305  newBalance0 */\n      dup5\n        /* \"contracts/OndaV1Pool.sol\":7307:7318  newBalance1 */\n      dup5\n        /* \"contracts/OndaV1Pool.sol\":7261:7275  _updateStorage */\n      tag_149\n        /* \"contracts/OndaV1Pool.sol\":7261:7319  _updateStorage(_token0, _token1, newBalance0, newBalance1) */\n      jump\t// in\n    tag_197:\n        /* \"contracts/OndaV1Pool.sol\":7335:7380  Swap(_token0, _token1, _to, amount0, amount1) */\n      0xcd3829a3813dc3cdd188fd3d01dcf3268c16be2fdd2dd21d0665418816e46062\n        /* \"contracts/OndaV1Pool.sol\":7340:7347  _token0 */\n      dup11\n        /* \"contracts/OndaV1Pool.sol\":7349:7356  _token1 */\n      dup11\n        /* \"contracts/OndaV1Pool.sol\":7358:7361  _to */\n      dup11\n        /* \"contracts/OndaV1Pool.sol\":7363:7370  amount0 */\n      dup11\n        /* \"contracts/OndaV1Pool.sol\":7372:7379  amount1 */\n      dup11\n        /* \"contracts/OndaV1Pool.sol\":7335:7380  Swap(_token0, _token1, _to, amount0, amount1) */\n      mload(0x40)\n      tag_198\n      swap6\n      swap5\n      swap4\n      swap3\n      swap2\n      swap1\n      tag_199\n      jump\t// in\n    tag_198:\n      mload(0x40)\n      dup1\n      swap2\n      sub\n      swap1\n      log1\n        /* \"contracts/OndaV1Pool.sol\":7398:7402  true */\n      0x01\n        /* \"contracts/OndaV1Pool.sol\":7391:7402  return true */\n      swap5\n      pop\n      pop\n      pop\n      pop\n      pop\n        /* \"contracts/OndaV1Pool.sol\":6384:7407  function _swap(address _token0, address _token1, address _to, uint amount0, uint amount1) public returns (bool) {\r... */\n      swap6\n      swap5\n      pop\n      pop\n      pop\n      pop\n      pop\n      jump\t// out\n        /* \"contracts/OndaV1Pool.sol\":341:359  uint public price0 */\n    tag_65:\n      sload(0x08)\n      dup2\n      jump\t// out\n        /* \"contracts/OndaV1Pool.sol\":252:265  uint public k */\n    tag_68:\n      sload(0x04)\n      dup2\n      jump\t// out\n        /* \"contracts/OndaV1Pool.sol\":204:225  address public token1 */\n    tag_71:\n      0x02\n      0x00\n      swap1\n      sload\n      swap1\n      0x0100\n      exp\n      swap1\n      div\n      0xffffffffffffffffffffffffffffffffffffffff\n      and\n      dup2\n      jump\t// out\n        /* \"contracts/OndaV1Pool.sol\":5286:6379  function _deleteLiquidity(address _token0, address _token1, address _to, uint liquidity, uint amount0, uint amount1) public returns (bool) {\r... */\n    tag_76:\n        /* \"contracts/OndaV1Pool.sol\":5419:5423  bool */\n      0x00\n        /* \"contracts/OndaV1Pool.sol\":5431:5452  uint balanceContract0 */\n      dup1\n        /* \"contracts/OndaV1Pool.sol\":5454:5475  uint balanceContract1 */\n      0x00\n        /* \"contracts/OndaV1Pool.sol\":5479:5495  getBalancePair() */\n      tag_201\n        /* \"contracts/OndaV1Pool.sol\":5479:5493  getBalancePair */\n      tag_86\n        /* \"contracts/OndaV1Pool.sol\":5479:5495  getBalancePair() */\n      jump\t// in\n    tag_201:\n        /* \"contracts/OndaV1Pool.sol\":5430:5495  (uint balanceContract0, uint balanceContract1) = getBalancePair() */\n      swap2\n      pop\n      swap2\n      pop\n        /* \"contracts/OndaV1Pool.sol\":5519:5525  token0 */\n      0x01\n      0x00\n      swap1\n      sload\n      swap1\n      0x0100\n      exp\n      swap1\n      div\n      0xffffffffffffffffffffffffffffffffffffffff\n      and\n        /* \"contracts/OndaV1Pool.sol\":5508:5525  _token0 == token0 */\n      0xffffffffffffffffffffffffffffffffffffffff\n      and\n        /* \"contracts/OndaV1Pool.sol\":5508:5515  _token0 */\n      dup10\n        /* \"contracts/OndaV1Pool.sol\":5508:5525  _token0 == token0 */\n      0xffffffffffffffffffffffffffffffffffffffff\n      and\n      eq\n        /* \"contracts/OndaV1Pool.sol\":5508:5546  _token0 == token0 && _token1 == token1 */\n      dup1\n      iszero\n      tag_202\n      jumpi\n      pop\n        /* \"contracts/OndaV1Pool.sol\":5540:5546  token1 */\n      0x02\n      0x00\n      swap1\n      sload\n      swap1\n      0x0100\n      exp\n      swap1\n      div\n      0xffffffffffffffffffffffffffffffffffffffff\n      and\n        /* \"contracts/OndaV1Pool.sol\":5529:5546  _token1 == token1 */\n      0xffffffffffffffffffffffffffffffffffffffff\n      and\n        /* \"contracts/OndaV1Pool.sol\":5529:5536  _token1 */\n      dup9\n        /* \"contracts/OndaV1Pool.sol\":5529:5546  _token1 == token1 */\n      0xffffffffffffffffffffffffffffffffffffffff\n      and\n      eq\n        /* \"contracts/OndaV1Pool.sol\":5508:5546  _token0 == token0 && _token1 == token1 */\n    tag_202:\n        /* \"contracts/OndaV1Pool.sol\":5500:5567  require(_token0 == token0 && _token1 == token1, 'Not used address') */\n      tag_203\n      jumpi\n      mload(0x40)\n      0x08c379a000000000000000000000000000000000000000000000000000000000\n      dup2\n      mstore\n      0x04\n      add\n      tag_204\n      swap1\n      tag_90\n      jump\t// in\n    tag_204:\n      mload(0x40)\n      dup1\n      swap2\n      sub\n      swap1\n      revert\n    tag_203:\n        /* \"contracts/OndaV1Pool.sol\":5591:5598  amount1 */\n      dup4\n        /* \"contracts/OndaV1Pool.sol\":5580:5587  amount0 */\n      dup6\n        /* \"contracts/OndaV1Pool.sol\":5580:5598  amount0 == amount1 */\n      eq\n        /* \"contracts/OndaV1Pool.sol\":5572:5612  require(amount0 == amount1, 'Not equal') */\n      tag_205\n      jumpi\n      mload(0x40)\n      0x08c379a000000000000000000000000000000000000000000000000000000000\n      dup2\n      mstore\n      0x04\n      add\n      tag_206\n      swap1\n      tag_93\n      jump\t// in\n    tag_206:\n      mload(0x40)\n      dup1\n      swap2\n      sub\n      swap1\n      revert\n    tag_205:\n        /* \"contracts/OndaV1Pool.sol\":5622:5640  uint amountDelLiq0 */\n      0x00\n        /* \"contracts/OndaV1Pool.sol\":5676:5687  totalSupply */\n      sload(0x0a)\n        /* \"contracts/OndaV1Pool.sol\":5656:5672  balanceContract0 */\n      dup4\n        /* \"contracts/OndaV1Pool.sol\":5644:5653  liquidity */\n      dup9\n        /* \"contracts/OndaV1Pool.sol\":5644:5672  liquidity * balanceContract0 */\n      tag_207\n      swap2\n      swap1\n      tag_114\n      jump\t// in\n    tag_207:\n        /* \"contracts/OndaV1Pool.sol\":5643:5687  (liquidity * balanceContract0) / totalSupply */\n      tag_208\n      swap2\n      swap1\n      tag_128\n      jump\t// in\n    tag_208:\n        /* \"contracts/OndaV1Pool.sol\":5622:5687  uint amountDelLiq0 = (liquidity * balanceContract0) / totalSupply */\n      swap1\n      pop\n        /* \"contracts/OndaV1Pool.sol\":5695:5713  uint amountDelLiq1 */\n      0x00\n        /* \"contracts/OndaV1Pool.sol\":5749:5760  totalSupply */\n      sload(0x0a)\n        /* \"contracts/OndaV1Pool.sol\":5729:5745  balanceContract1 */\n      dup4\n        /* \"contracts/OndaV1Pool.sol\":5717:5726  liquidity */\n      dup10\n        /* \"contracts/OndaV1Pool.sol\":5717:5745  liquidity * balanceContract1 */\n      tag_209\n      swap2\n      swap1\n      tag_114\n      jump\t// in\n    tag_209:\n        /* \"contracts/OndaV1Pool.sol\":5716:5760  (liquidity * balanceContract1) / totalSupply */\n      tag_210\n      swap2\n      swap1\n      tag_128\n      jump\t// in\n    tag_210:\n        /* \"contracts/OndaV1Pool.sol\":5695:5760  uint amountDelLiq1 = (liquidity * balanceContract1) / totalSupply */\n      swap1\n      pop\n        /* \"contracts/OndaV1Pool.sol\":5794:5795  0 */\n      0x00\n        /* \"contracts/OndaV1Pool.sol\":5778:5791  amountDelLiq0 */\n      dup3\n        /* \"contracts/OndaV1Pool.sol\":5778:5795  amountDelLiq0 > 0 */\n      gt\n        /* \"contracts/OndaV1Pool.sol\":5778:5816  amountDelLiq0 > 0 && amountDelLiq1 > 0 */\n      dup1\n      iszero\n      tag_211\n      jumpi\n      pop\n        /* \"contracts/OndaV1Pool.sol\":5815:5816  0 */\n      0x00\n        /* \"contracts/OndaV1Pool.sol\":5799:5812  amountDelLiq1 */\n      dup2\n        /* \"contracts/OndaV1Pool.sol\":5799:5816  amountDelLiq1 > 0 */\n      gt\n        /* \"contracts/OndaV1Pool.sol\":5778:5816  amountDelLiq0 > 0 && amountDelLiq1 > 0 */\n    tag_211:\n        /* \"contracts/OndaV1Pool.sol\":5770:5833  require(amountDelLiq0 > 0 && amountDelLiq1 > 0, 'Minus amount') */\n      tag_212\n      jumpi\n      mload(0x40)\n      0x08c379a000000000000000000000000000000000000000000000000000000000\n      dup2\n      mstore\n      0x04\n      add\n      tag_213\n      swap1\n      tag_214\n      jump\t// in\n    tag_213:\n      mload(0x40)\n      dup1\n      swap2\n      sub\n      swap1\n      revert\n    tag_212:\n        /* \"contracts/OndaV1Pool.sol\":5841:5865  burn(lp, _to, liquidity) */\n      tag_215\n        /* \"contracts/OndaV1Pool.sol\":5846:5848  lp */\n      0x03\n      0x00\n      swap1\n      sload\n      swap1\n      0x0100\n      exp\n      swap1\n      div\n      0xffffffffffffffffffffffffffffffffffffffff\n      and\n        /* \"contracts/OndaV1Pool.sol\":5850:5853  _to */\n      dup11\n        /* \"contracts/OndaV1Pool.sol\":5855:5864  liquidity */\n      dup11\n        /* \"contracts/OndaV1Pool.sol\":5841:5845  burn */\n      tag_216\n        /* \"contracts/OndaV1Pool.sol\":5841:5865  burn(lp, _to, liquidity) */\n      jump\t// in\n    tag_215:\n        /* \"contracts/OndaV1Pool.sol\":5873:5948  TransferHelper.safeTransferFrom(_token0, address(this), _to, amountDelLiq0) */\n      tag_217\n        /* \"contracts/OndaV1Pool.sol\":5905:5912  _token0 */\n      dup12\n        /* \"contracts/OndaV1Pool.sol\":5922:5926  this */\n      address\n        /* \"contracts/OndaV1Pool.sol\":5929:5932  _to */\n      dup12\n        /* \"contracts/OndaV1Pool.sol\":5934:5947  amountDelLiq0 */\n      dup6\n        /* \"contracts/OndaV1Pool.sol\":5873:5904  TransferHelper.safeTransferFrom */\n      tag_95\n        /* \"contracts/OndaV1Pool.sol\":5873:5948  TransferHelper.safeTransferFrom(_token0, address(this), _to, amountDelLiq0) */\n      jump\t// in\n    tag_217:\n        /* \"contracts/OndaV1Pool.sol\":5956:6031  TransferHelper.safeTransferFrom(_token1, address(this), _to, amountDelLiq1) */\n      tag_218\n        /* \"contracts/OndaV1Pool.sol\":5988:5995  _token1 */\n      dup11\n        /* \"contracts/OndaV1Pool.sol\":6005:6009  this */\n      address\n        /* \"contracts/OndaV1Pool.sol\":6012:6015  _to */\n      dup12\n        /* \"contracts/OndaV1Pool.sol\":6017:6030  amountDelLiq1 */\n      dup5\n        /* \"contracts/OndaV1Pool.sol\":5956:5987  TransferHelper.safeTransferFrom */\n      tag_95\n        /* \"contracts/OndaV1Pool.sol\":5956:6031  TransferHelper.safeTransferFrom(_token1, address(this), _to, amountDelLiq1) */\n      jump\t// in\n    tag_218:\n        /* \"contracts/OndaV1Pool.sol\":6056:6065  liquidity */\n      dup8\n        /* \"contracts/OndaV1Pool.sol\":6041:6052  totalSupply */\n      0x0a\n      0x00\n        /* \"contracts/OndaV1Pool.sol\":6041:6065  totalSupply -= liquidity */\n      dup3\n      dup3\n      sload\n      tag_219\n      swap2\n      swap1\n      tag_111\n      jump\t// in\n    tag_219:\n      swap3\n      pop\n      pop\n      dup2\n      swap1\n      sstore\n      pop\n        /* \"contracts/OndaV1Pool.sol\":6073:6089  uint newBalance0 */\n      0x00\n        /* \"contracts/OndaV1Pool.sol\":6099:6106  _token0 */\n      dup12\n        /* \"contracts/OndaV1Pool.sol\":6092:6117  IERC20(_token0).balanceOf */\n      0xffffffffffffffffffffffffffffffffffffffff\n      and\n      0x70a08231\n        /* \"contracts/OndaV1Pool.sol\":6126:6130  this */\n      address\n        /* \"contracts/OndaV1Pool.sol\":6092:6132  IERC20(_token0).balanceOf(address(this)) */\n      mload(0x40)\n      dup3\n      0xffffffff\n      and\n      0xe0\n      shl\n      dup2\n      mstore\n      0x04\n      add\n      tag_220\n      swap2\n      swap1\n      tag_24\n      jump\t// in\n    tag_220:\n      0x20\n      mload(0x40)\n      dup1\n      dup4\n      sub\n      dup2\n      dup7\n      dup1\n      extcodesize\n      iszero\n      dup1\n      iszero\n      tag_221\n      jumpi\n      0x00\n      dup1\n      revert\n    tag_221:\n      pop\n      gas\n      staticcall\n      iszero\n      dup1\n      iszero\n      tag_223\n      jumpi\n      returndatasize\n      0x00\n      dup1\n      returndatacopy\n      revert(0x00, returndatasize)\n    tag_223:\n      pop\n      pop\n      pop\n      pop\n      mload(0x40)\n      returndatasize\n      not(0x1f)\n      0x1f\n      dup3\n      add\n      and\n      dup3\n      add\n      dup1\n      0x40\n      mstore\n      pop\n      dup2\n      add\n      swap1\n      tag_224\n      swap2\n      swap1\n      tag_102\n      jump\t// in\n    tag_224:\n        /* \"contracts/OndaV1Pool.sol\":6073:6132  uint newBalance0 = IERC20(_token0).balanceOf(address(this)) */\n      swap1\n      pop\n        /* \"contracts/OndaV1Pool.sol\":6137:6153  uint newBalance1 */\n      0x00\n        /* \"contracts/OndaV1Pool.sol\":6163:6170  _token1 */\n      dup12\n        /* \"contracts/OndaV1Pool.sol\":6156:6181  IERC20(_token1).balanceOf */\n      0xffffffffffffffffffffffffffffffffffffffff\n      and\n      0x70a08231\n        /* \"contracts/OndaV1Pool.sol\":6190:6194  this */\n      address\n        /* \"contracts/OndaV1Pool.sol\":6156:6196  IERC20(_token1).balanceOf(address(this)) */\n      mload(0x40)\n      dup3\n      0xffffffff\n      and\n      0xe0\n      shl\n      dup2\n      mstore\n      0x04\n      add\n      tag_225\n      swap2\n      swap1\n      tag_24\n      jump\t// in\n    tag_225:\n      0x20\n      mload(0x40)\n      dup1\n      dup4\n      sub\n      dup2\n      dup7\n      dup1\n      extcodesize\n      iszero\n      dup1\n      iszero\n      tag_226\n      jumpi\n      0x00\n      dup1\n      revert\n    tag_226:\n      pop\n      gas\n      staticcall\n      iszero\n      dup1\n      iszero\n      tag_228\n      jumpi\n      returndatasize\n      0x00\n      dup1\n      returndatacopy\n      revert(0x00, returndatasize)\n    tag_228:\n      pop\n      pop\n      pop\n      pop\n      mload(0x40)\n      returndatasize\n      not(0x1f)\n      0x1f\n      dup3\n      add\n      and\n      dup3\n      add\n      dup1\n      0x40\n      mstore\n      pop\n      dup2\n      add\n      swap1\n      tag_229\n      swap2\n      swap1\n      tag_102\n      jump\t// in\n    tag_229:\n        /* \"contracts/OndaV1Pool.sol\":6137:6196  uint newBalance1 = IERC20(_token1).balanceOf(address(this)) */\n      swap1\n      pop\n        /* \"contracts/OndaV1Pool.sol\":6204:6262  _updateStorage(_token0, _token1, newBalance0, newBalance1) */\n      tag_230\n        /* \"contracts/OndaV1Pool.sol\":6219:6226  _token0 */\n      dup14\n        /* \"contracts/OndaV1Pool.sol\":6228:6235  _token1 */\n      dup14\n        /* \"contracts/OndaV1Pool.sol\":6237:6248  newBalance0 */\n      dup5\n        /* \"contracts/OndaV1Pool.sol\":6250:6261  newBalance1 */\n      dup5\n        /* \"contracts/OndaV1Pool.sol\":6204:6218  _updateStorage */\n      tag_149\n        /* \"contracts/OndaV1Pool.sol\":6204:6262  _updateStorage(_token0, _token1, newBalance0, newBalance1) */\n      jump\t// in\n    tag_230:\n        /* \"contracts/OndaV1Pool.sol\":6275:6355  DeleteLiquidity(_token0, _token1, balanceContract0, balanceContract1, liquidity) */\n      0x95b8fe9ba38a505097b9341887de8716d6f3f3ba79ef0ecc02f35ad6e30585d6\n        /* \"contracts/OndaV1Pool.sol\":6291:6298  _token0 */\n      dup14\n        /* \"contracts/OndaV1Pool.sol\":6300:6307  _token1 */\n      dup14\n        /* \"contracts/OndaV1Pool.sol\":6309:6325  balanceContract0 */\n      dup9\n        /* \"contracts/OndaV1Pool.sol\":6327:6343  balanceContract1 */\n      dup9\n        /* \"contracts/OndaV1Pool.sol\":6345:6354  liquidity */\n      dup15\n        /* \"contracts/OndaV1Pool.sol\":6275:6355  DeleteLiquidity(_token0, _token1, balanceContract0, balanceContract1, liquidity) */\n      mload(0x40)\n      tag_231\n      swap6\n      swap5\n      swap4\n      swap3\n      swap2\n      swap1\n      tag_232\n      jump\t// in\n    tag_231:\n      mload(0x40)\n      dup1\n      swap2\n      sub\n      swap1\n      log1\n        /* \"contracts/OndaV1Pool.sol\":6370:6374  true */\n      0x01\n        /* \"contracts/OndaV1Pool.sol\":6363:6374  return true */\n      swap7\n      pop\n      pop\n      pop\n      pop\n      pop\n      pop\n      pop\n        /* \"contracts/OndaV1Pool.sol\":5286:6379  function _deleteLiquidity(address _token0, address _token1, address _to, uint liquidity, uint amount0, uint amount1) public returns (bool) {\r... */\n      swap7\n      swap6\n      pop\n      pop\n      pop\n      pop\n      pop\n      pop\n      jump\t// out\n        /* \"contracts/OndaV1Pool.sol\":1644:1770  function getBalancePair() private returns (uint balance0, uint balance1) {\r... */\n    tag_86:\n        /* \"contracts/OndaV1Pool.sol\":1687:1700  uint balance0 */\n      0x00\n        /* \"contracts/OndaV1Pool.sol\":1702:1715  uint balance1 */\n      dup1\n        /* \"contracts/OndaV1Pool.sol\":1733:1741  reserve0 */\n      sload(0x06)\n        /* \"contracts/OndaV1Pool.sol\":1722:1741  balance0 = reserve0 */\n      swap2\n      pop\n        /* \"contracts/OndaV1Pool.sol\":1757:1765  reserve1 */\n      sload(0x07)\n        /* \"contracts/OndaV1Pool.sol\":1746:1765  balance1 = reserve1 */\n      swap1\n      pop\n        /* \"contracts/OndaV1Pool.sol\":1644:1770  function getBalancePair() private returns (uint balance0, uint balance1) {\r... */\n      swap1\n      swap2\n      jump\t// out\n        /* \"contracts/interface/TransferHelper.sol\":1096:1619  function safeTransferFrom(... */\n    tag_95:\n        /* \"contracts/interface/TransferHelper.sol\":1235:1262  bytes4 TRANSFER_from_ACTION */\n      0x00\n        /* \"contracts/interface/TransferHelper.sol\":1282:1328  bytes('transferFrom(address,address,uint256)') */\n      mload(0x40)\n      dup1\n      0x60\n      add\n      0x40\n      mstore\n      dup1\n      0x25\n      dup2\n      mstore\n      0x20\n      add\n      data_23b872dd7302113369cda2901243429419bec145408fa8b352b3dd92b66c680b\n      0x25\n      swap2\n      codecopy\n        /* \"contracts/interface/TransferHelper.sol\":1272:1329  keccak256(bytes('transferFrom(address,address,uint256)')) */\n      dup1\n      mload\n      swap1\n      0x20\n      add\n      keccak256\n        /* \"contracts/interface/TransferHelper.sol\":1235:1330  bytes4 TRANSFER_from_ACTION = bytes4(keccak256(bytes('transferFrom(address,address,uint256)'))) */\n      swap1\n      pop\n        /* \"contracts/interface/TransferHelper.sol\":1341:1353  bool success */\n      0x00\n        /* \"contracts/interface/TransferHelper.sol\":1355:1372  bytes memory data */\n      dup1\n        /* \"contracts/interface/TransferHelper.sol\":1376:1381  token */\n      dup7\n        /* \"contracts/interface/TransferHelper.sol\":1376:1386  token.call */\n      0xffffffffffffffffffffffffffffffffffffffff\n      and\n        /* \"contracts/interface/TransferHelper.sol\":1410:1430  TRANSFER_from_ACTION */\n      dup4\n        /* \"contracts/interface/TransferHelper.sol\":1432:1436  from */\n      dup8\n        /* \"contracts/interface/TransferHelper.sol\":1438:1440  to */\n      dup8\n        /* \"contracts/interface/TransferHelper.sol\":1442:1447  value */\n      dup8\n        /* \"contracts/interface/TransferHelper.sol\":1387:1448  abi.encodeWithSelector(TRANSFER_from_ACTION, from, to, value) */\n      add(0x24, mload(0x40))\n      tag_235\n      swap4\n      swap3\n      swap2\n      swap1\n      tag_236\n      jump\t// in\n    tag_235:\n      mload(0x40)\n      0x20\n      dup2\n      dup4\n      sub\n      sub\n      dup2\n      mstore\n      swap1\n      0x40\n      mstore\n      swap1\n      not(0xffffffffffffffffffffffffffffffffffffffffffffffffffffffff)\n      and\n      0x20\n      dup3\n      add\n      dup1\n      mload\n      0xffffffffffffffffffffffffffffffffffffffffffffffffffffffff\n      dup4\n      dup2\n      dup4\n      and\n      or\n      dup4\n      mstore\n      pop\n      pop\n      pop\n      pop\n        /* \"contracts/interface/TransferHelper.sol\":1376:1449  token.call(abi.encodeWithSelector(TRANSFER_from_ACTION, from, to, value)) */\n      mload(0x40)\n      tag_237\n      swap2\n      swap1\n      tag_238\n      jump\t// in\n    tag_237:\n      0x00\n      mload(0x40)\n      dup1\n      dup4\n      sub\n      dup2\n      0x00\n      dup7\n      gas\n      call\n      swap2\n      pop\n      pop\n      returndatasize\n      dup1\n      0x00\n      dup2\n      eq\n      tag_241\n      jumpi\n      mload(0x40)\n      swap2\n      pop\n      and(add(returndatasize, 0x3f), not(0x1f))\n      dup3\n      add\n      0x40\n      mstore\n      returndatasize\n      dup3\n      mstore\n      returndatasize\n      0x00\n      0x20\n      dup5\n      add\n      returndatacopy\n      jump(tag_240)\n    tag_241:\n      0x60\n      swap2\n      pop\n    tag_240:\n      pop\n        /* \"contracts/interface/TransferHelper.sol\":1340:1449  (bool success, bytes memory data) = token.call(abi.encodeWithSelector(TRANSFER_from_ACTION, from, to, value)) */\n      swap2\n      pop\n      swap2\n      pop\n        /* \"contracts/interface/TransferHelper.sol\":1480:1487  success */\n      dup2\n        /* \"contracts/interface/TransferHelper.sol\":1480:1537  success && (data.length == 0 || abi.decode(data, (bool))) */\n      dup1\n      iszero\n      tag_242\n      jumpi\n      pop\n        /* \"contracts/interface/TransferHelper.sol\":1507:1508  0 */\n      0x00\n        /* \"contracts/interface/TransferHelper.sol\":1492:1496  data */\n      dup2\n        /* \"contracts/interface/TransferHelper.sol\":1492:1503  data.length */\n      mload\n        /* \"contracts/interface/TransferHelper.sol\":1492:1508  data.length == 0 */\n      eq\n        /* \"contracts/interface/TransferHelper.sol\":1492:1536  data.length == 0 || abi.decode(data, (bool)) */\n      dup1\n      tag_243\n      jumpi\n      pop\n        /* \"contracts/interface/TransferHelper.sol\":1523:1527  data */\n      dup1\n        /* \"contracts/interface/TransferHelper.sol\":1512:1536  abi.decode(data, (bool)) */\n      dup1\n      0x20\n      add\n      swap1\n      mload\n      dup2\n      add\n      swap1\n      tag_244\n      swap2\n      swap1\n      tag_245\n      jump\t// in\n    tag_244:\n        /* \"contracts/interface/TransferHelper.sol\":1492:1536  data.length == 0 || abi.decode(data, (bool)) */\n    tag_243:\n        /* \"contracts/interface/TransferHelper.sol\":1480:1537  success && (data.length == 0 || abi.decode(data, (bool))) */\n    tag_242:\n        /* \"contracts/interface/TransferHelper.sol\":1459:1612  require(... */\n      tag_246\n      jumpi\n      mload(0x40)\n      0x08c379a000000000000000000000000000000000000000000000000000000000\n      dup2\n      mstore\n      0x04\n      add\n      tag_247\n      swap1\n      tag_248\n      jump\t// in\n    tag_247:\n      mload(0x40)\n      dup1\n      swap2\n      sub\n      swap1\n      revert\n    tag_246:\n        /* \"contracts/interface/TransferHelper.sol\":1096:1619  function safeTransferFrom(... */\n      pop\n      pop\n      pop\n      pop\n      pop\n      pop\n      pop\n      jump\t// out\n        /* \"contracts/interface/Math.sol\":307:599  function sqrt(uint y) internal pure returns (uint z) {... */\n    tag_116:\n        /* \"contracts/interface/Math.sol\":352:358  uint z */\n      0x00\n        /* \"contracts/interface/Math.sol\":378:379  3 */\n      0x03\n        /* \"contracts/interface/Math.sol\":374:375  y */\n      dup3\n        /* \"contracts/interface/Math.sol\":374:379  y > 3 */\n      gt\n        /* \"contracts/interface/Math.sol\":370:593  if (y > 3) {... */\n      iszero\n      tag_250\n      jumpi\n        /* \"contracts/interface/Math.sol\":399:400  y */\n      dup2\n        /* \"contracts/interface/Math.sol\":395:400  z = y */\n      swap1\n      pop\n        /* \"contracts/interface/Math.sol\":414:420  uint x */\n      0x00\n        /* \"contracts/interface/Math.sol\":431:432  1 */\n      0x01\n        /* \"contracts/interface/Math.sol\":427:428  2 */\n      0x02\n        /* \"contracts/interface/Math.sol\":423:424  y */\n      dup5\n        /* \"contracts/interface/Math.sol\":423:428  y / 2 */\n      tag_251\n      swap2\n      swap1\n      tag_128\n      jump\t// in\n    tag_251:\n        /* \"contracts/interface/Math.sol\":423:432  y / 2 + 1 */\n      tag_252\n      swap2\n      swap1\n      tag_137\n      jump\t// in\n    tag_252:\n        /* \"contracts/interface/Math.sol\":414:432  uint x = y / 2 + 1 */\n      swap1\n      pop\n        /* \"contracts/interface/Math.sol\":446:535  while (x < z) {... */\n    tag_253:\n        /* \"contracts/interface/Math.sol\":457:458  z */\n      dup2\n        /* \"contracts/interface/Math.sol\":453:454  x */\n      dup2\n        /* \"contracts/interface/Math.sol\":453:458  x < z */\n      lt\n        /* \"contracts/interface/Math.sol\":446:535  while (x < z) {... */\n      iszero\n      tag_254\n      jumpi\n        /* \"contracts/interface/Math.sol\":482:483  x */\n      dup1\n        /* \"contracts/interface/Math.sol\":478:483  z = x */\n      swap2\n      pop\n        /* \"contracts/interface/Math.sol\":519:520  2 */\n      0x02\n        /* \"contracts/interface/Math.sol\":514:515  x */\n      dup2\n        /* \"contracts/interface/Math.sol\":510:511  x */\n      dup3\n        /* \"contracts/interface/Math.sol\":506:507  y */\n      dup6\n        /* \"contracts/interface/Math.sol\":506:511  y / x */\n      tag_255\n      swap2\n      swap1\n      tag_128\n      jump\t// in\n    tag_255:\n        /* \"contracts/interface/Math.sol\":506:515  y / x + x */\n      tag_256\n      swap2\n      swap1\n      tag_137\n      jump\t// in\n    tag_256:\n        /* \"contracts/interface/Math.sol\":505:520  (y / x + x) / 2 */\n      tag_257\n      swap2\n      swap1\n      tag_128\n      jump\t// in\n    tag_257:\n        /* \"contracts/interface/Math.sol\":501:520  x = (y / x + x) / 2 */\n      swap1\n      pop\n        /* \"contracts/interface/Math.sol\":446:535  while (x < z) {... */\n      jump(tag_253)\n    tag_254:\n        /* \"contracts/interface/Math.sol\":370:593  if (y > 3) {... */\n      pop\n      jump(tag_258)\n    tag_250:\n        /* \"contracts/interface/Math.sol\":560:561  0 */\n      0x00\n        /* \"contracts/interface/Math.sol\":555:556  y */\n      dup3\n        /* \"contracts/interface/Math.sol\":555:561  y != 0 */\n      eq\n        /* \"contracts/interface/Math.sol\":551:593  if (y != 0) {... */\n      tag_259\n      jumpi\n        /* \"contracts/interface/Math.sol\":581:582  1 */\n      0x01\n        /* \"contracts/interface/Math.sol\":577:582  z = 1 */\n      swap1\n      pop\n        /* \"contracts/interface/Math.sol\":551:593  if (y != 0) {... */\n    tag_259:\n        /* \"contracts/interface/Math.sol\":370:593  if (y > 3) {... */\n    tag_258:\n        /* \"contracts/interface/Math.sol\":307:599  function sqrt(uint y) internal pure returns (uint z) {... */\n      swap2\n      swap1\n      pop\n      jump\t// out\n        /* \"contracts/OndaV1Pool.sol\":2334:2585  function mint(address lp, address to, uint amount) private {\r... */\n    tag_121:\n        /* \"contracts/OndaV1Pool.sol\":2399:2410  bool status */\n      0x00\n        /* \"contracts/OndaV1Pool.sol\":2412:2429  bytes memory data */\n      dup1\n        /* \"contracts/OndaV1Pool.sol\":2433:2435  lp */\n      dup5\n        /* \"contracts/OndaV1Pool.sol\":2433:2440  lp.call */\n      0xffffffffffffffffffffffffffffffffffffffff\n      and\n        /* \"contracts/OndaV1Pool.sol\":725:755  bytes('mint(address,uint256)') */\n      mload(0x40)\n      dup1\n      0x40\n      add\n      0x40\n      mstore\n      dup1\n      0x15\n      dup2\n      mstore\n      0x20\n      add\n      0x6d696e7428616464726573732c75696e74323536290000000000000000000000\n      dup2\n      mstore\n      pop\n        /* \"contracts/OndaV1Pool.sol\":715:756  keccak256(bytes('mint(address,uint256)')) */\n      dup1\n      mload\n      swap1\n      0x20\n      add\n      keccak256\n        /* \"contracts/OndaV1Pool.sol\":2477:2479  to */\n      dup6\n        /* \"contracts/OndaV1Pool.sol\":2481:2487  amount */\n      dup6\n        /* \"contracts/OndaV1Pool.sol\":2441:2488  abi.encodeWithSelector(MINT_ACTION, to, amount) */\n      add(0x24, mload(0x40))\n      tag_261\n      swap3\n      swap2\n      swap1\n      tag_262\n      jump\t// in\n    tag_261:\n      mload(0x40)\n      0x20\n      dup2\n      dup4\n      sub\n      sub\n      dup2\n      mstore\n      swap1\n      0x40\n      mstore\n      swap1\n      not(0xffffffffffffffffffffffffffffffffffffffffffffffffffffffff)\n      and\n      0x20\n      dup3\n      add\n      dup1\n      mload\n      0xffffffffffffffffffffffffffffffffffffffffffffffffffffffff\n      dup4\n      dup2\n      dup4\n      and\n      or\n      dup4\n      mstore\n      pop\n      pop\n      pop\n      pop\n        /* \"contracts/OndaV1Pool.sol\":2433:2489  lp.call(abi.encodeWithSelector(MINT_ACTION, to, amount)) */\n      mload(0x40)\n      tag_263\n      swap2\n      swap1\n      tag_238\n      jump\t// in\n    tag_263:\n      0x00\n      mload(0x40)\n      dup1\n      dup4\n      sub\n      dup2\n      0x00\n      dup7\n      gas\n      call\n      swap2\n      pop\n      pop\n      returndatasize\n      dup1\n      0x00\n      dup2\n      eq\n      tag_266\n      jumpi\n      mload(0x40)\n      swap2\n      pop\n      and(add(returndatasize, 0x3f), not(0x1f))\n      dup3\n      add\n      0x40\n      mstore\n      returndatasize\n      dup3\n      mstore\n      returndatasize\n      0x00\n      0x20\n      dup5\n      add\n      returndatacopy\n      jump(tag_265)\n    tag_266:\n      0x60\n      swap2\n      pop\n    tag_265:\n      pop\n        /* \"contracts/OndaV1Pool.sol\":2398:2489  (bool status, bytes memory data) = lp.call(abi.encodeWithSelector(MINT_ACTION, to, amount)) */\n      swap2\n      pop\n      swap2\n      pop\n        /* \"contracts/OndaV1Pool.sol\":2508:2514  status */\n      dup2\n        /* \"contracts/OndaV1Pool.sol\":2508:2564  status && (data.length == 0 || abi.decode(data, (bool))) */\n      dup1\n      iszero\n      tag_267\n      jumpi\n      pop\n        /* \"contracts/OndaV1Pool.sol\":2534:2535  0 */\n      0x00\n        /* \"contracts/OndaV1Pool.sol\":2519:2523  data */\n      dup2\n        /* \"contracts/OndaV1Pool.sol\":2519:2530  data.length */\n      mload\n        /* \"contracts/OndaV1Pool.sol\":2519:2535  data.length == 0 */\n      eq\n        /* \"contracts/OndaV1Pool.sol\":2519:2563  data.length == 0 || abi.decode(data, (bool)) */\n      dup1\n      tag_268\n      jumpi\n      pop\n        /* \"contracts/OndaV1Pool.sol\":2550:2554  data */\n      dup1\n        /* \"contracts/OndaV1Pool.sol\":2539:2563  abi.decode(data, (bool)) */\n      dup1\n      0x20\n      add\n      swap1\n      mload\n      dup2\n      add\n      swap1\n      tag_269\n      swap2\n      swap1\n      tag_245\n      jump\t// in\n    tag_269:\n        /* \"contracts/OndaV1Pool.sol\":2519:2563  data.length == 0 || abi.decode(data, (bool)) */\n    tag_268:\n        /* \"contracts/OndaV1Pool.sol\":2508:2564  status && (data.length == 0 || abi.decode(data, (bool))) */\n    tag_267:\n        /* \"contracts/OndaV1Pool.sol\":2500:2580  require(status && (data.length == 0 || abi.decode(data, (bool))), 'FAILED Mint') */\n      tag_270\n      jumpi\n      mload(0x40)\n      0x08c379a000000000000000000000000000000000000000000000000000000000\n      dup2\n      mstore\n      0x04\n      add\n      tag_271\n      swap1\n      tag_272\n      jump\t// in\n    tag_271:\n      mload(0x40)\n      dup1\n      swap2\n      sub\n      swap1\n      revert\n    tag_270:\n        /* \"contracts/OndaV1Pool.sol\":2334:2585  function mint(address lp, address to, uint amount) private {\r... */\n      pop\n      pop\n      pop\n      pop\n      pop\n      jump\t// out\n        /* \"contracts/interface/Math.sol\":98:192  function min(uint x, uint y) internal pure returns (uint z) {... */\n    tag_132:\n        /* \"contracts/interface/Math.sol\":150:156  uint z */\n      0x00\n        /* \"contracts/interface/Math.sol\":176:177  y */\n      dup2\n        /* \"contracts/interface/Math.sol\":172:173  x */\n      dup4\n        /* \"contracts/interface/Math.sol\":172:177  x < y */\n      lt\n        /* \"contracts/interface/Math.sol\":172:185  x < y ? x : y */\n      tag_274\n      jumpi\n        /* \"contracts/interface/Math.sol\":184:185  y */\n      dup2\n        /* \"contracts/interface/Math.sol\":172:185  x < y ? x : y */\n      jump(tag_275)\n    tag_274:\n        /* \"contracts/interface/Math.sol\":180:181  x */\n      dup3\n        /* \"contracts/interface/Math.sol\":172:185  x < y ? x : y */\n    tag_275:\n        /* \"contracts/interface/Math.sol\":168:185  z = x < y ? x : y */\n      swap1\n      pop\n        /* \"contracts/interface/Math.sol\":98:192  function min(uint x, uint y) internal pure returns (uint z) {... */\n      swap3\n      swap2\n      pop\n      pop\n      jump\t// out\n        /* \"contracts/OndaV1Pool.sol\":2846:3446  function _updateStorage(address _token0, address _token1, uint256 balanceContract0, uint256 balanceContract1) private {\r... */\n    tag_149:\n        /* \"contracts/OndaV1Pool.sol\":2998:2999  0 */\n      0x00\n        /* \"contracts/OndaV1Pool.sol\":2978:2994  balanceContract0 */\n      dup3\n        /* \"contracts/OndaV1Pool.sol\":2978:2999  balanceContract0 >= 0 */\n      lt\n      iszero\n        /* \"contracts/OndaV1Pool.sol\":2977:3027  (balanceContract0 >= 0) && (balanceContract1 >= 0) */\n      dup1\n      iszero\n      tag_277\n      jumpi\n      pop\n        /* \"contracts/OndaV1Pool.sol\":3025:3026  0 */\n      0x00\n        /* \"contracts/OndaV1Pool.sol\":3005:3021  balanceContract1 */\n      dup2\n        /* \"contracts/OndaV1Pool.sol\":3005:3026  balanceContract1 >= 0 */\n      lt\n      iszero\n        /* \"contracts/OndaV1Pool.sol\":2977:3027  (balanceContract0 >= 0) && (balanceContract1 >= 0) */\n    tag_277:\n        /* \"contracts/OndaV1Pool.sol\":2969:3040  require((balanceContract0 >= 0) && (balanceContract1 >= 0), '0 number') */\n      tag_278\n      jumpi\n      mload(0x40)\n      0x08c379a000000000000000000000000000000000000000000000000000000000\n      dup2\n      mstore\n      0x04\n      add\n      tag_279\n      swap1\n      tag_280\n      jump\t// in\n    tag_279:\n      mload(0x40)\n      dup1\n      swap2\n      sub\n      swap1\n      revert\n    tag_278:\n        /* \"contracts/OndaV1Pool.sol\":3068:3069  0 */\n      0x00\n        /* \"contracts/OndaV1Pool.sol\":3048:3064  balanceContract0 */\n      dup3\n        /* \"contracts/OndaV1Pool.sol\":3048:3069  balanceContract0 != 0 */\n      eq\n      iszero\n        /* \"contracts/OndaV1Pool.sol\":3048:3094  balanceContract0 != 0 && balanceContract1 != 0 */\n      dup1\n      iszero\n      tag_281\n      jumpi\n      pop\n        /* \"contracts/OndaV1Pool.sol\":3093:3094  0 */\n      0x00\n        /* \"contracts/OndaV1Pool.sol\":3073:3089  balanceContract1 */\n      dup2\n        /* \"contracts/OndaV1Pool.sol\":3073:3094  balanceContract1 != 0 */\n      eq\n      iszero\n        /* \"contracts/OndaV1Pool.sol\":3048:3094  balanceContract0 != 0 && balanceContract1 != 0 */\n    tag_281:\n        /* \"contracts/OndaV1Pool.sol\":3045:3299  if(balanceContract0 != 0 && balanceContract1 != 0) {\r... */\n      iszero\n      tag_282\n      jumpi\n        /* \"contracts/OndaV1Pool.sol\":3116:3132  balanceContract1 */\n      dup1\n        /* \"contracts/OndaV1Pool.sol\":3111:3112  k */\n      sload(0x04)\n        /* \"contracts/OndaV1Pool.sol\":3111:3133  k / (balanceContract1) */\n      tag_283\n      swap2\n      swap1\n      tag_128\n      jump\t// in\n    tag_283:\n        /* \"contracts/OndaV1Pool.sol\":3102:3108  price0 */\n      0x08\n        /* \"contracts/OndaV1Pool.sol\":3102:3133  price0 = k / (balanceContract1) */\n      dup2\n      swap1\n      sstore\n      pop\n        /* \"contracts/OndaV1Pool.sol\":3153:3169  balanceContract0 */\n      dup2\n        /* \"contracts/OndaV1Pool.sol\":3148:3149  k */\n      sload(0x04)\n        /* \"contracts/OndaV1Pool.sol\":3148:3170  k / (balanceContract0) */\n      tag_284\n      swap2\n      swap1\n      tag_128\n      jump\t// in\n    tag_284:\n        /* \"contracts/OndaV1Pool.sol\":3139:3145  price1 */\n      0x09\n        /* \"contracts/OndaV1Pool.sol\":3139:3170  price1 = k / (balanceContract0) */\n      dup2\n      swap1\n      sstore\n      pop\n        /* \"contracts/OndaV1Pool.sol\":3045:3299  if(balanceContract0 != 0 && balanceContract1 != 0) {\r... */\n      jump(tag_285)\n    tag_282:\n        /* \"contracts/OndaV1Pool.sol\":3212:3213  0 */\n      0x00\n        /* \"contracts/OndaV1Pool.sol\":3192:3208  balanceContract0 */\n      dup3\n        /* \"contracts/OndaV1Pool.sol\":3192:3213  balanceContract0 == 0 */\n      eq\n        /* \"contracts/OndaV1Pool.sol\":3191:3241  (balanceContract0 == 0) && (balanceContract1 == 0) */\n      dup1\n      iszero\n      tag_286\n      jumpi\n      pop\n        /* \"contracts/OndaV1Pool.sol\":3239:3240  0 */\n      0x00\n        /* \"contracts/OndaV1Pool.sol\":3219:3235  balanceContract1 */\n      dup2\n        /* \"contracts/OndaV1Pool.sol\":3219:3240  balanceContract1 == 0 */\n      eq\n        /* \"contracts/OndaV1Pool.sol\":3191:3241  (balanceContract0 == 0) && (balanceContract1 == 0) */\n    tag_286:\n        /* \"contracts/OndaV1Pool.sol\":3188:3299  if((balanceContract0 == 0) && (balanceContract1 == 0)) {\r... */\n      iszero\n      tag_287\n      jumpi\n        /* \"contracts/OndaV1Pool.sol\":3264:3265  0 */\n      0x00\n        /* \"contracts/OndaV1Pool.sol\":3255:3261  price0 */\n      0x08\n        /* \"contracts/OndaV1Pool.sol\":3255:3265  price0 = 0 */\n      dup2\n      swap1\n      sstore\n      pop\n        /* \"contracts/OndaV1Pool.sol\":3286:3287  0 */\n      0x00\n        /* \"contracts/OndaV1Pool.sol\":3277:3283  price1 */\n      0x09\n        /* \"contracts/OndaV1Pool.sol\":3277:3287  price1 = 0 */\n      dup2\n      swap1\n      sstore\n      pop\n        /* \"contracts/OndaV1Pool.sol\":3188:3299  if((balanceContract0 == 0) && (balanceContract1 == 0)) {\r... */\n    tag_287:\n        /* \"contracts/OndaV1Pool.sol\":3045:3299  if(balanceContract0 != 0 && balanceContract1 != 0) {\r... */\n    tag_285:\n        /* \"contracts/OndaV1Pool.sol\":3322:3338  balanceContract0 */\n      dup2\n        /* \"contracts/OndaV1Pool.sol\":3311:3319  reserve0 */\n      0x06\n        /* \"contracts/OndaV1Pool.sol\":3311:3338  reserve0 = balanceContract0 */\n      dup2\n      swap1\n      sstore\n      pop\n        /* \"contracts/OndaV1Pool.sol\":3360:3376  balanceContract1 */\n      dup1\n        /* \"contracts/OndaV1Pool.sol\":3349:3357  reserve1 */\n      0x07\n        /* \"contracts/OndaV1Pool.sol\":3349:3376  reserve1 = balanceContract1 */\n      dup2\n      swap1\n      sstore\n      pop\n        /* \"contracts/OndaV1Pool.sol\":3392:3441  SyncStorage(_token0, _token1, reserve0, reserve1) */\n      0xd4bde8444971b7416b5f51c90f544d2fe2d0c1edddd83bd5fe8646179341dc99\n        /* \"contracts/OndaV1Pool.sol\":3404:3411  _token0 */\n      dup5\n        /* \"contracts/OndaV1Pool.sol\":3413:3420  _token1 */\n      dup5\n        /* \"contracts/OndaV1Pool.sol\":3422:3430  reserve0 */\n      sload(0x06)\n        /* \"contracts/OndaV1Pool.sol\":3432:3440  reserve1 */\n      sload(0x07)\n        /* \"contracts/OndaV1Pool.sol\":3392:3441  SyncStorage(_token0, _token1, reserve0, reserve1) */\n      mload(0x40)\n      tag_288\n      swap5\n      swap4\n      swap3\n      swap2\n      swap1\n      tag_151\n      jump\t// in\n    tag_288:\n      mload(0x40)\n      dup1\n      swap2\n      sub\n      swap1\n      log1\n        /* \"contracts/OndaV1Pool.sol\":2846:3446  function _updateStorage(address _token0, address _token1, uint256 balanceContract0, uint256 balanceContract1) private {\r... */\n      pop\n      pop\n      pop\n      pop\n      jump\t// out\n        /* \"contracts/interface/TransferHelper.sol\":652:1090  function safeTransfer(... */\n    tag_183:\n        /* \"contracts/interface/TransferHelper.sol\":832:844  bool success */\n      0x00\n        /* \"contracts/interface/TransferHelper.sol\":846:863  bytes memory data */\n      dup1\n        /* \"contracts/interface/TransferHelper.sol\":867:872  token */\n      dup5\n        /* \"contracts/interface/TransferHelper.sol\":867:877  token.call */\n      0xffffffffffffffffffffffffffffffffffffffff\n      and\n        /* \"contracts/interface/TransferHelper.sol\":901:911  0xa9059cbb */\n      0xa9059cbb\n        /* \"contracts/interface/TransferHelper.sol\":913:915  to */\n      dup6\n        /* \"contracts/interface/TransferHelper.sol\":917:922  value */\n      dup6\n        /* \"contracts/interface/TransferHelper.sol\":878:923  abi.encodeWithSelector(0xa9059cbb, to, value) */\n      add(0x24, mload(0x40))\n      tag_290\n      swap3\n      swap2\n      swap1\n      tag_262\n      jump\t// in\n    tag_290:\n      mload(0x40)\n      0x20\n      dup2\n      dup4\n      sub\n      sub\n      dup2\n      mstore\n      swap1\n      0x40\n      mstore\n      swap1\n      0xe0\n      shl\n      0x20\n      dup3\n      add\n      dup1\n      mload\n      0xffffffffffffffffffffffffffffffffffffffffffffffffffffffff\n      dup4\n      dup2\n      dup4\n      and\n      or\n      dup4\n      mstore\n      pop\n      pop\n      pop\n      pop\n        /* \"contracts/interface/TransferHelper.sol\":867:924  token.call(abi.encodeWithSelector(0xa9059cbb, to, value)) */\n      mload(0x40)\n      tag_291\n      swap2\n      swap1\n      tag_238\n      jump\t// in\n    tag_291:\n      0x00\n      mload(0x40)\n      dup1\n      dup4\n      sub\n      dup2\n      0x00\n      dup7\n      gas\n      call\n      swap2\n      pop\n      pop\n      returndatasize\n      dup1\n      0x00\n      dup2\n      eq\n      tag_294\n      jumpi\n      mload(0x40)\n      swap2\n      pop\n      and(add(returndatasize, 0x3f), not(0x1f))\n      dup3\n      add\n      0x40\n      mstore\n      returndatasize\n      dup3\n      mstore\n      returndatasize\n      0x00\n      0x20\n      dup5\n      add\n      returndatacopy\n      jump(tag_293)\n    tag_294:\n      0x60\n      swap2\n      pop\n    tag_293:\n      pop\n        /* \"contracts/interface/TransferHelper.sol\":831:924  (bool success, bytes memory data) = token.call(abi.encodeWithSelector(0xa9059cbb, to, value)) */\n      swap2\n      pop\n      swap2\n      pop\n        /* \"contracts/interface/TransferHelper.sol\":955:962  success */\n      dup2\n        /* \"contracts/interface/TransferHelper.sol\":955:1012  success && (data.length == 0 || abi.decode(data, (bool))) */\n      dup1\n      iszero\n      tag_295\n      jumpi\n      pop\n        /* \"contracts/interface/TransferHelper.sol\":982:983  0 */\n      0x00\n        /* \"contracts/interface/TransferHelper.sol\":967:971  data */\n      dup2\n        /* \"contracts/interface/TransferHelper.sol\":967:978  data.length */\n      mload\n        /* \"contracts/interface/TransferHelper.sol\":967:983  data.length == 0 */\n      eq\n        /* \"contracts/interface/TransferHelper.sol\":967:1011  data.length == 0 || abi.decode(data, (bool)) */\n      dup1\n      tag_296\n      jumpi\n      pop\n        /* \"contracts/interface/TransferHelper.sol\":998:1002  data */\n      dup1\n        /* \"contracts/interface/TransferHelper.sol\":987:1011  abi.decode(data, (bool)) */\n      dup1\n      0x20\n      add\n      swap1\n      mload\n      dup2\n      add\n      swap1\n      tag_297\n      swap2\n      swap1\n      tag_245\n      jump\t// in\n    tag_297:\n        /* \"contracts/interface/TransferHelper.sol\":967:1011  data.length == 0 || abi.decode(data, (bool)) */\n    tag_296:\n        /* \"contracts/interface/TransferHelper.sol\":955:1012  success && (data.length == 0 || abi.decode(data, (bool))) */\n    tag_295:\n        /* \"contracts/interface/TransferHelper.sol\":934:1083  require(... */\n      tag_298\n      jumpi\n      mload(0x40)\n      0x08c379a000000000000000000000000000000000000000000000000000000000\n      dup2\n      mstore\n      0x04\n      add\n      tag_299\n      swap1\n      tag_300\n      jump\t// in\n    tag_299:\n      mload(0x40)\n      dup1\n      swap2\n      sub\n      swap1\n      revert\n    tag_298:\n        /* \"contracts/interface/TransferHelper.sol\":652:1090  function safeTransfer(... */\n      pop\n      pop\n      pop\n      pop\n      pop\n      jump\t// out\n        /* \"contracts/OndaV1Pool.sol\":2590:2841  function burn(address lp, address to, uint amount) private {\r... */\n    tag_216:\n        /* \"contracts/OndaV1Pool.sol\":2655:2666  bool status */\n      0x00\n        /* \"contracts/OndaV1Pool.sol\":2668:2685  bytes memory data */\n      dup1\n        /* \"contracts/OndaV1Pool.sol\":2689:2691  lp */\n      dup5\n        /* \"contracts/OndaV1Pool.sol\":2689:2696  lp.call */\n      0xffffffffffffffffffffffffffffffffffffffff\n      and\n        /* \"contracts/OndaV1Pool.sol\":816:846  bytes('burn(address,uint256)') */\n      mload(0x40)\n      dup1\n      0x40\n      add\n      0x40\n      mstore\n      dup1\n      0x15\n      dup2\n      mstore\n      0x20\n      add\n      0x6275726e28616464726573732c75696e74323536290000000000000000000000\n      dup2\n      mstore\n      pop\n        /* \"contracts/OndaV1Pool.sol\":806:847  keccak256(bytes('burn(address,uint256)')) */\n      dup1\n      mload\n      swap1\n      0x20\n      add\n      keccak256\n        /* \"contracts/OndaV1Pool.sol\":2733:2735  to */\n      dup6\n        /* \"contracts/OndaV1Pool.sol\":2737:2743  amount */\n      dup6\n        /* \"contracts/OndaV1Pool.sol\":2697:2744  abi.encodeWithSelector(BURN_ACTION, to, amount) */\n      add(0x24, mload(0x40))\n      tag_302\n      swap3\n      swap2\n      swap1\n      tag_262\n      jump\t// in\n    tag_302:\n      mload(0x40)\n      0x20\n      dup2\n      dup4\n      sub\n      sub\n      dup2\n      mstore\n      swap1\n      0x40\n      mstore\n      swap1\n      not(0xffffffffffffffffffffffffffffffffffffffffffffffffffffffff)\n      and\n      0x20\n      dup3\n      add\n      dup1\n      mload\n      0xffffffffffffffffffffffffffffffffffffffffffffffffffffffff\n      dup4\n      dup2\n      dup4\n      and\n      or\n      dup4\n      mstore\n      pop\n      pop\n      pop\n      pop\n        /* \"contracts/OndaV1Pool.sol\":2689:2745  lp.call(abi.encodeWithSelector(BURN_ACTION, to, amount)) */\n      mload(0x40)\n      tag_303\n      swap2\n      swap1\n      tag_238\n      jump\t// in\n    tag_303:\n      0x00\n      mload(0x40)\n      dup1\n      dup4\n      sub\n      dup2\n      0x00\n      dup7\n      gas\n      call\n      swap2\n      pop\n      pop\n      returndatasize\n      dup1\n      0x00\n      dup2\n      eq\n      tag_306\n      jumpi\n      mload(0x40)\n      swap2\n      pop\n      and(add(returndatasize, 0x3f), not(0x1f))\n      dup3\n      add\n      0x40\n      mstore\n      returndatasize\n      dup3\n      mstore\n      returndatasize\n      0x00\n      0x20\n      dup5\n      add\n      returndatacopy\n      jump(tag_305)\n    tag_306:\n      0x60\n      swap2\n      pop\n    tag_305:\n      pop\n        /* \"contracts/OndaV1Pool.sol\":2654:2745  (bool status, bytes memory data) = lp.call(abi.encodeWithSelector(BURN_ACTION, to, amount)) */\n      swap2\n      pop\n      swap2\n      pop\n        /* \"contracts/OndaV1Pool.sol\":2764:2770  status */\n      dup2\n        /* \"contracts/OndaV1Pool.sol\":2764:2820  status && (data.length == 0 || abi.decode(data, (bool))) */\n      dup1\n      iszero\n      tag_307\n      jumpi\n      pop\n        /* \"contracts/OndaV1Pool.sol\":2790:2791  0 */\n      0x00\n        /* \"contracts/OndaV1Pool.sol\":2775:2779  data */\n      dup2\n        /* \"contracts/OndaV1Pool.sol\":2775:2786  data.length */\n      mload\n        /* \"contracts/OndaV1Pool.sol\":2775:2791  data.length == 0 */\n      eq\n        /* \"contracts/OndaV1Pool.sol\":2775:2819  data.length == 0 || abi.decode(data, (bool)) */\n      dup1\n      tag_308\n      jumpi\n      pop\n        /* \"contracts/OndaV1Pool.sol\":2806:2810  data */\n      dup1\n        /* \"contracts/OndaV1Pool.sol\":2795:2819  abi.decode(data, (bool)) */\n      dup1\n      0x20\n      add\n      swap1\n      mload\n      dup2\n      add\n      swap1\n      tag_309\n      swap2\n      swap1\n      tag_245\n      jump\t// in\n    tag_309:\n        /* \"contracts/OndaV1Pool.sol\":2775:2819  data.length == 0 || abi.decode(data, (bool)) */\n    tag_308:\n        /* \"contracts/OndaV1Pool.sol\":2764:2820  status && (data.length == 0 || abi.decode(data, (bool))) */\n    tag_307:\n        /* \"contracts/OndaV1Pool.sol\":2756:2836  require(status && (data.length == 0 || abi.decode(data, (bool))), 'FAILED Burn') */\n      tag_310\n      jumpi\n      mload(0x40)\n      0x08c379a000000000000000000000000000000000000000000000000000000000\n      dup2\n      mstore\n      0x04\n      add\n      tag_311\n      swap1\n      tag_312\n      jump\t// in\n    tag_311:\n      mload(0x40)\n      dup1\n      swap2\n      sub\n      swap1\n      revert\n    tag_310:\n        /* \"contracts/OndaV1Pool.sol\":2590:2841  function burn(address lp, address to, uint amount) private {\r... */\n      pop\n      pop\n      pop\n      pop\n      pop\n      jump\t// out\n        /* \"#utility.yul\":7:146   */\n    tag_314:\n      0x00\n        /* \"#utility.yul\":91:97   */\n      dup2\n        /* \"#utility.yul\":78:98   */\n      calldataload\n        /* \"#utility.yul\":69:98   */\n      swap1\n      pop\n        /* \"#utility.yul\":107:140   */\n      tag_316\n        /* \"#utility.yul\":134:139   */\n      dup2\n        /* \"#utility.yul\":107:140   */\n      tag_317\n      jump\t// in\n    tag_316:\n        /* \"#utility.yul\":59:146   */\n      swap3\n      swap2\n      pop\n      pop\n      jump\t// out\n        /* \"#utility.yul\":152:289   */\n    tag_318:\n      0x00\n        /* \"#utility.yul\":237:243   */\n      dup2\n        /* \"#utility.yul\":231:244   */\n      mload\n        /* \"#utility.yul\":222:244   */\n      swap1\n      pop\n        /* \"#utility.yul\":253:283   */\n      tag_320\n        /* \"#utility.yul\":277:282   */\n      dup2\n        /* \"#utility.yul\":253:283   */\n      tag_321\n      jump\t// in\n    tag_320:\n        /* \"#utility.yul\":212:289   */\n      swap3\n      swap2\n      pop\n      pop\n      jump\t// out\n        /* \"#utility.yul\":295:434   */\n    tag_322:\n      0x00\n        /* \"#utility.yul\":379:385   */\n      dup2\n        /* \"#utility.yul\":366:386   */\n      calldataload\n        /* \"#utility.yul\":357:386   */\n      swap1\n      pop\n        /* \"#utility.yul\":395:428   */\n      tag_324\n        /* \"#utility.yul\":422:427   */\n      dup2\n        /* \"#utility.yul\":395:428   */\n      tag_325\n      jump\t// in\n    tag_324:\n        /* \"#utility.yul\":347:434   */\n      swap3\n      swap2\n      pop\n      pop\n      jump\t// out\n        /* \"#utility.yul\":440:583   */\n    tag_326:\n      0x00\n        /* \"#utility.yul\":528:534   */\n      dup2\n        /* \"#utility.yul\":522:535   */\n      mload\n        /* \"#utility.yul\":513:535   */\n      swap1\n      pop\n        /* \"#utility.yul\":544:577   */\n      tag_328\n        /* \"#utility.yul\":571:576   */\n      dup2\n        /* \"#utility.yul\":544:577   */\n      tag_325\n      jump\t// in\n    tag_328:\n        /* \"#utility.yul\":503:583   */\n      swap3\n      swap2\n      pop\n      pop\n      jump\t// out\n        /* \"#utility.yul\":589:996   */\n    tag_53:\n      0x00\n      dup1\n        /* \"#utility.yul\":714:716   */\n      0x40\n        /* \"#utility.yul\":702:711   */\n      dup4\n        /* \"#utility.yul\":693:700   */\n      dup6\n        /* \"#utility.yul\":689:712   */\n      sub\n        /* \"#utility.yul\":685:717   */\n      slt\n        /* \"#utility.yul\":682:684   */\n      iszero\n      tag_330\n      jumpi\n        /* \"#utility.yul\":730:731   */\n      0x00\n        /* \"#utility.yul\":727:728   */\n      dup1\n        /* \"#utility.yul\":720:732   */\n      revert\n        /* \"#utility.yul\":682:684   */\n    tag_330:\n        /* \"#utility.yul\":773:774   */\n      0x00\n        /* \"#utility.yul\":798:851   */\n      tag_331\n        /* \"#utility.yul\":843:850   */\n      dup6\n        /* \"#utility.yul\":834:840   */\n      dup3\n        /* \"#utility.yul\":823:832   */\n      dup7\n        /* \"#utility.yul\":819:841   */\n      add\n        /* \"#utility.yul\":798:851   */\n      tag_314\n      jump\t// in\n    tag_331:\n        /* \"#utility.yul\":788:851   */\n      swap3\n      pop\n        /* \"#utility.yul\":744:861   */\n      pop\n        /* \"#utility.yul\":900:902   */\n      0x20\n        /* \"#utility.yul\":926:979   */\n      tag_332\n        /* \"#utility.yul\":971:978   */\n      dup6\n        /* \"#utility.yul\":962:968   */\n      dup3\n        /* \"#utility.yul\":951:960   */\n      dup7\n        /* \"#utility.yul\":947:969   */\n      add\n        /* \"#utility.yul\":926:979   */\n      tag_314\n      jump\t// in\n    tag_332:\n        /* \"#utility.yul\":916:979   */\n      swap2\n      pop\n        /* \"#utility.yul\":871:989   */\n      pop\n        /* \"#utility.yul\":672:996   */\n      swap3\n      pop\n      swap3\n      swap1\n      pop\n      jump\t// out\n        /* \"#utility.yul\":1002:1554   */\n    tag_43:\n      0x00\n      dup1\n      0x00\n        /* \"#utility.yul\":1144:1146   */\n      0x60\n        /* \"#utility.yul\":1132:1141   */\n      dup5\n        /* \"#utility.yul\":1123:1130   */\n      dup7\n        /* \"#utility.yul\":1119:1142   */\n      sub\n        /* \"#utility.yul\":1115:1147   */\n      slt\n        /* \"#utility.yul\":1112:1114   */\n      iszero\n      tag_334\n      jumpi\n        /* \"#utility.yul\":1160:1161   */\n      0x00\n        /* \"#utility.yul\":1157:1158   */\n      dup1\n        /* \"#utility.yul\":1150:1162   */\n      revert\n        /* \"#utility.yul\":1112:1114   */\n    tag_334:\n        /* \"#utility.yul\":1203:1204   */\n      0x00\n        /* \"#utility.yul\":1228:1281   */\n      tag_335\n        /* \"#utility.yul\":1273:1280   */\n      dup7\n        /* \"#utility.yul\":1264:1270   */\n      dup3\n        /* \"#utility.yul\":1253:1262   */\n      dup8\n        /* \"#utility.yul\":1249:1271   */\n      add\n        /* \"#utility.yul\":1228:1281   */\n      tag_314\n      jump\t// in\n    tag_335:\n        /* \"#utility.yul\":1218:1281   */\n      swap4\n      pop\n        /* \"#utility.yul\":1174:1291   */\n      pop\n        /* \"#utility.yul\":1330:1332   */\n      0x20\n        /* \"#utility.yul\":1356:1409   */\n      tag_336\n        /* \"#utility.yul\":1401:1408   */\n      dup7\n        /* \"#utility.yul\":1392:1398   */\n      dup3\n        /* \"#utility.yul\":1381:1390   */\n      dup8\n        /* \"#utility.yul\":1377:1399   */\n      add\n        /* \"#utility.yul\":1356:1409   */\n      tag_314\n      jump\t// in\n    tag_336:\n        /* \"#utility.yul\":1346:1409   */\n      swap3\n      pop\n        /* \"#utility.yul\":1301:1419   */\n      pop\n        /* \"#utility.yul\":1458:1460   */\n      0x40\n        /* \"#utility.yul\":1484:1537   */\n      tag_337\n        /* \"#utility.yul\":1529:1536   */\n      dup7\n        /* \"#utility.yul\":1520:1526   */\n      dup3\n        /* \"#utility.yul\":1509:1518   */\n      dup8\n        /* \"#utility.yul\":1505:1527   */\n      add\n        /* \"#utility.yul\":1484:1537   */\n      tag_314\n      jump\t// in\n    tag_337:\n        /* \"#utility.yul\":1474:1537   */\n      swap2\n      pop\n        /* \"#utility.yul\":1429:1547   */\n      pop\n        /* \"#utility.yul\":1102:1554   */\n      swap3\n      pop\n      swap3\n      pop\n      swap3\n      jump\t// out\n        /* \"#utility.yul\":1560:2404   */\n    tag_61:\n      0x00\n      dup1\n      0x00\n      dup1\n      0x00\n        /* \"#utility.yul\":1736:1739   */\n      0xa0\n        /* \"#utility.yul\":1724:1733   */\n      dup7\n        /* \"#utility.yul\":1715:1722   */\n      dup9\n        /* \"#utility.yul\":1711:1734   */\n      sub\n        /* \"#utility.yul\":1707:1740   */\n      slt\n        /* \"#utility.yul\":1704:1706   */\n      iszero\n      tag_339\n      jumpi\n        /* \"#utility.yul\":1753:1754   */\n      0x00\n        /* \"#utility.yul\":1750:1751   */\n      dup1\n        /* \"#utility.yul\":1743:1755   */\n      revert\n        /* \"#utility.yul\":1704:1706   */\n    tag_339:\n        /* \"#utility.yul\":1796:1797   */\n      0x00\n        /* \"#utility.yul\":1821:1874   */\n      tag_340\n        /* \"#utility.yul\":1866:1873   */\n      dup9\n        /* \"#utility.yul\":1857:1863   */\n      dup3\n        /* \"#utility.yul\":1846:1855   */\n      dup10\n        /* \"#utility.yul\":1842:1864   */\n      add\n        /* \"#utility.yul\":1821:1874   */\n      tag_314\n      jump\t// in\n    tag_340:\n        /* \"#utility.yul\":1811:1874   */\n      swap6\n      pop\n        /* \"#utility.yul\":1767:1884   */\n      pop\n        /* \"#utility.yul\":1923:1925   */\n      0x20\n        /* \"#utility.yul\":1949:2002   */\n      tag_341\n        /* \"#utility.yul\":1994:2001   */\n      dup9\n        /* \"#utility.yul\":1985:1991   */\n      dup3\n        /* \"#utility.yul\":1974:1983   */\n      dup10\n        /* \"#utility.yul\":1970:1992   */\n      add\n        /* \"#utility.yul\":1949:2002   */\n      tag_314\n      jump\t// in\n    tag_341:\n        /* \"#utility.yul\":1939:2002   */\n      swap5\n      pop\n        /* \"#utility.yul\":1894:2012   */\n      pop\n        /* \"#utility.yul\":2051:2053   */\n      0x40\n        /* \"#utility.yul\":2077:2130   */\n      tag_342\n        /* \"#utility.yul\":2122:2129   */\n      dup9\n        /* \"#utility.yul\":2113:2119   */\n      dup3\n        /* \"#utility.yul\":2102:2111   */\n      dup10\n        /* \"#utility.yul\":2098:2120   */\n      add\n        /* \"#utility.yul\":2077:2130   */\n      tag_314\n      jump\t// in\n    tag_342:\n        /* \"#utility.yul\":2067:2130   */\n      swap4\n      pop\n        /* \"#utility.yul\":2022:2140   */\n      pop\n        /* \"#utility.yul\":2179:2181   */\n      0x60\n        /* \"#utility.yul\":2205:2258   */\n      tag_343\n        /* \"#utility.yul\":2250:2257   */\n      dup9\n        /* \"#utility.yul\":2241:2247   */\n      dup3\n        /* \"#utility.yul\":2230:2239   */\n      dup10\n        /* \"#utility.yul\":2226:2248   */\n      add\n        /* \"#utility.yul\":2205:2258   */\n      tag_322\n      jump\t// in\n    tag_343:\n        /* \"#utility.yul\":2195:2258   */\n      swap3\n      pop\n        /* \"#utility.yul\":2150:2268   */\n      pop\n        /* \"#utility.yul\":2307:2310   */\n      0x80\n        /* \"#utility.yul\":2334:2387   */\n      tag_344\n        /* \"#utility.yul\":2379:2386   */\n      dup9\n        /* \"#utility.yul\":2370:2376   */\n      dup3\n        /* \"#utility.yul\":2359:2368   */\n      dup10\n        /* \"#utility.yul\":2355:2377   */\n      add\n        /* \"#utility.yul\":2334:2387   */\n      tag_322\n      jump\t// in\n    tag_344:\n        /* \"#utility.yul\":2324:2387   */\n      swap2\n      pop\n        /* \"#utility.yul\":2278:2397   */\n      pop\n        /* \"#utility.yul\":1694:2404   */\n      swap3\n      swap6\n      pop\n      swap3\n      swap6\n      swap1\n      swap4\n      pop\n      jump\t// out\n        /* \"#utility.yul\":2410:3400   */\n    tag_75:\n      0x00\n      dup1\n      0x00\n      dup1\n      0x00\n      dup1\n        /* \"#utility.yul\":2603:2606   */\n      0xc0\n        /* \"#utility.yul\":2591:2600   */\n      dup8\n        /* \"#utility.yul\":2582:2589   */\n      dup10\n        /* \"#utility.yul\":2578:2601   */\n      sub\n        /* \"#utility.yul\":2574:2607   */\n      slt\n        /* \"#utility.yul\":2571:2573   */\n      iszero\n      tag_346\n      jumpi\n        /* \"#utility.yul\":2620:2621   */\n      0x00\n        /* \"#utility.yul\":2617:2618   */\n      dup1\n        /* \"#utility.yul\":2610:2622   */\n      revert\n        /* \"#utility.yul\":2571:2573   */\n    tag_346:\n        /* \"#utility.yul\":2663:2664   */\n      0x00\n        /* \"#utility.yul\":2688:2741   */\n      tag_347\n        /* \"#utility.yul\":2733:2740   */\n      dup10\n        /* \"#utility.yul\":2724:2730   */\n      dup3\n        /* \"#utility.yul\":2713:2722   */\n      dup11\n        /* \"#utility.yul\":2709:2731   */\n      add\n        /* \"#utility.yul\":2688:2741   */\n      tag_314\n      jump\t// in\n    tag_347:\n        /* \"#utility.yul\":2678:2741   */\n      swap7\n      pop\n        /* \"#utility.yul\":2634:2751   */\n      pop\n        /* \"#utility.yul\":2790:2792   */\n      0x20\n        /* \"#utility.yul\":2816:2869   */\n      tag_348\n        /* \"#utility.yul\":2861:2868   */\n      dup10\n        /* \"#utility.yul\":2852:2858   */\n      dup3\n        /* \"#utility.yul\":2841:2850   */\n      dup11\n        /* \"#utility.yul\":2837:2859   */\n      add\n        /* \"#utility.yul\":2816:2869   */\n      tag_314\n      jump\t// in\n    tag_348:\n        /* \"#utility.yul\":2806:2869   */\n      swap6\n      pop\n        /* \"#utility.yul\":2761:2879   */\n      pop\n        /* \"#utility.yul\":2918:2920   */\n      0x40\n        /* \"#utility.yul\":2944:2997   */\n      tag_349\n        /* \"#utility.yul\":2989:2996   */\n      dup10\n        /* \"#utility.yul\":2980:2986   */\n      dup3\n        /* \"#utility.yul\":2969:2978   */\n      dup11\n        /* \"#utility.yul\":2965:2987   */\n      add\n        /* \"#utility.yul\":2944:2997   */\n      tag_314\n      jump\t// in\n    tag_349:\n        /* \"#utility.yul\":2934:2997   */\n      swap5\n      pop\n        /* \"#utility.yul\":2889:3007   */\n      pop\n        /* \"#utility.yul\":3046:3048   */\n      0x60\n        /* \"#utility.yul\":3072:3125   */\n      tag_350\n        /* \"#utility.yul\":3117:3124   */\n      dup10\n        /* \"#utility.yul\":3108:3114   */\n      dup3\n        /* \"#utility.yul\":3097:3106   */\n      dup11\n        /* \"#utility.yul\":3093:3115   */\n      add\n        /* \"#utility.yul\":3072:3125   */\n      tag_322\n      jump\t// in\n    tag_350:\n        /* \"#utility.yul\":3062:3125   */\n      swap4\n      pop\n        /* \"#utility.yul\":3017:3135   */\n      pop\n        /* \"#utility.yul\":3174:3177   */\n      0x80\n        /* \"#utility.yul\":3201:3254   */\n      tag_351\n        /* \"#utility.yul\":3246:3253   */\n      dup10\n        /* \"#utility.yul\":3237:3243   */\n      dup3\n        /* \"#utility.yul\":3226:3235   */\n      dup11\n        /* \"#utility.yul\":3222:3244   */\n      add\n        /* \"#utility.yul\":3201:3254   */\n      tag_322\n      jump\t// in\n    tag_351:\n        /* \"#utility.yul\":3191:3254   */\n      swap3\n      pop\n        /* \"#utility.yul\":3145:3264   */\n      pop\n        /* \"#utility.yul\":3303:3306   */\n      0xa0\n        /* \"#utility.yul\":3330:3383   */\n      tag_352\n        /* \"#utility.yul\":3375:3382   */\n      dup10\n        /* \"#utility.yul\":3366:3372   */\n      dup3\n        /* \"#utility.yul\":3355:3364   */\n      dup11\n        /* \"#utility.yul\":3351:3373   */\n      add\n        /* \"#utility.yul\":3330:3383   */\n      tag_322\n      jump\t// in\n    tag_352:\n        /* \"#utility.yul\":3320:3383   */\n      swap2\n      pop\n        /* \"#utility.yul\":3274:3393   */\n      pop\n        /* \"#utility.yul\":2561:3400   */\n      swap3\n      swap6\n      pop\n      swap3\n      swap6\n      pop\n      swap3\n      swap6\n      jump\t// out\n        /* \"#utility.yul\":3406:4104   */\n    tag_47:\n      0x00\n      dup1\n      0x00\n      dup1\n        /* \"#utility.yul\":3565:3568   */\n      0x80\n        /* \"#utility.yul\":3553:3562   */\n      dup6\n        /* \"#utility.yul\":3544:3551   */\n      dup8\n        /* \"#utility.yul\":3540:3563   */\n      sub\n        /* \"#utility.yul\":3536:3569   */\n      slt\n        /* \"#utility.yul\":3533:3535   */\n      iszero\n      tag_354\n      jumpi\n        /* \"#utility.yul\":3582:3583   */\n      0x00\n        /* \"#utility.yul\":3579:3580   */\n      dup1\n        /* \"#utility.yul\":3572:3584   */\n      revert\n        /* \"#utility.yul\":3533:3535   */\n    tag_354:\n        /* \"#utility.yul\":3625:3626   */\n      0x00\n        /* \"#utility.yul\":3650:3703   */\n      tag_355\n        /* \"#utility.yul\":3695:3702   */\n      dup8\n        /* \"#utility.yul\":3686:3692   */\n      dup3\n        /* \"#utility.yul\":3675:3684   */\n      dup9\n        /* \"#utility.yul\":3671:3693   */\n      add\n        /* \"#utility.yul\":3650:3703   */\n      tag_314\n      jump\t// in\n    tag_355:\n        /* \"#utility.yul\":3640:3703   */\n      swap5\n      pop\n        /* \"#utility.yul\":3596:3713   */\n      pop\n        /* \"#utility.yul\":3752:3754   */\n      0x20\n        /* \"#utility.yul\":3778:3831   */\n      tag_356\n        /* \"#utility.yul\":3823:3830   */\n      dup8\n        /* \"#utility.yul\":3814:3820   */\n      dup3\n        /* \"#utility.yul\":3803:3812   */\n      dup9\n        /* \"#utility.yul\":3799:3821   */\n      add\n        /* \"#utility.yul\":3778:3831   */\n      tag_314\n      jump\t// in\n    tag_356:\n        /* \"#utility.yul\":3768:3831   */\n      swap4\n      pop\n        /* \"#utility.yul\":3723:3841   */\n      pop\n        /* \"#utility.yul\":3880:3882   */\n      0x40\n        /* \"#utility.yul\":3906:3959   */\n      tag_357\n        /* \"#utility.yul\":3951:3958   */\n      dup8\n        /* \"#utility.yul\":3942:3948   */\n      dup3\n        /* \"#utility.yul\":3931:3940   */\n      dup9\n        /* \"#utility.yul\":3927:3949   */\n      add\n        /* \"#utility.yul\":3906:3959   */\n      tag_322\n      jump\t// in\n    tag_357:\n        /* \"#utility.yul\":3896:3959   */\n      swap3\n      pop\n        /* \"#utility.yul\":3851:3969   */\n      pop\n        /* \"#utility.yul\":4008:4010   */\n      0x60\n        /* \"#utility.yul\":4034:4087   */\n      tag_358\n        /* \"#utility.yul\":4079:4086   */\n      dup8\n        /* \"#utility.yul\":4070:4076   */\n      dup3\n        /* \"#utility.yul\":4059:4068   */\n      dup9\n        /* \"#utility.yul\":4055:4077   */\n      add\n        /* \"#utility.yul\":4034:4087   */\n      tag_322\n      jump\t// in\n    tag_358:\n        /* \"#utility.yul\":4024:4087   */\n      swap2\n      pop\n        /* \"#utility.yul\":3979:4097   */\n      pop\n        /* \"#utility.yul\":3523:4104   */\n      swap3\n      swap6\n      swap2\n      swap5\n      pop\n      swap3\n      pop\n      jump\t// out\n        /* \"#utility.yul\":4110:4388   */\n    tag_245:\n      0x00\n        /* \"#utility.yul\":4226:4228   */\n      0x20\n        /* \"#utility.yul\":4214:4223   */\n      dup3\n        /* \"#utility.yul\":4205:4212   */\n      dup5\n        /* \"#utility.yul\":4201:4224   */\n      sub\n        /* \"#utility.yul\":4197:4229   */\n      slt\n        /* \"#utility.yul\":4194:4196   */\n      iszero\n      tag_360\n      jumpi\n        /* \"#utility.yul\":4242:4243   */\n      0x00\n        /* \"#utility.yul\":4239:4240   */\n      dup1\n        /* \"#utility.yul\":4232:4244   */\n      revert\n        /* \"#utility.yul\":4194:4196   */\n    tag_360:\n        /* \"#utility.yul\":4285:4286   */\n      0x00\n        /* \"#utility.yul\":4310:4371   */\n      tag_361\n        /* \"#utility.yul\":4363:4370   */\n      dup5\n        /* \"#utility.yul\":4354:4360   */\n      dup3\n        /* \"#utility.yul\":4343:4352   */\n      dup6\n        /* \"#utility.yul\":4339:4361   */\n      add\n        /* \"#utility.yul\":4310:4371   */\n      tag_318\n      jump\t// in\n    tag_361:\n        /* \"#utility.yul\":4300:4371   */\n      swap2\n      pop\n        /* \"#utility.yul\":4256:4381   */\n      pop\n        /* \"#utility.yul\":4184:4388   */\n      swap3\n      swap2\n      pop\n      pop\n      jump\t// out\n        /* \"#utility.yul\":4394:4678   */\n    tag_102:\n      0x00\n        /* \"#utility.yul\":4513:4515   */\n      0x20\n        /* \"#utility.yul\":4501:4510   */\n      dup3\n        /* \"#utility.yul\":4492:4499   */\n      dup5\n        /* \"#utility.yul\":4488:4511   */\n      sub\n        /* \"#utility.yul\":4484:4516   */\n      slt\n        /* \"#utility.yul\":4481:4483   */\n      iszero\n      tag_363\n      jumpi\n        /* \"#utility.yul\":4529:4530   */\n      0x00\n        /* \"#utility.yul\":4526:4527   */\n      dup1\n        /* \"#utility.yul\":4519:4531   */\n      revert\n        /* \"#utility.yul\":4481:4483   */\n    tag_363:\n        /* \"#utility.yul\":4572:4573   */\n      0x00\n        /* \"#utility.yul\":4597:4661   */\n      tag_364\n        /* \"#utility.yul\":4653:4660   */\n      dup5\n        /* \"#utility.yul\":4644:4650   */\n      dup3\n        /* \"#utility.yul\":4633:4642   */\n      dup6\n        /* \"#utility.yul\":4629:4651   */\n      add\n        /* \"#utility.yul\":4597:4661   */\n      tag_326\n      jump\t// in\n    tag_364:\n        /* \"#utility.yul\":4587:4661   */\n      swap2\n      pop\n        /* \"#utility.yul\":4543:4671   */\n      pop\n        /* \"#utility.yul\":4471:4678   */\n      swap3\n      swap2\n      pop\n      pop\n      jump\t// out\n        /* \"#utility.yul\":4684:4802   */\n    tag_365:\n        /* \"#utility.yul\":4771:4795   */\n      tag_367\n        /* \"#utility.yul\":4789:4794   */\n      dup2\n        /* \"#utility.yul\":4771:4795   */\n      tag_368\n      jump\t// in\n    tag_367:\n        /* \"#utility.yul\":4766:4769   */\n      dup3\n        /* \"#utility.yul\":4759:4796   */\n      mstore\n        /* \"#utility.yul\":4749:4802   */\n      pop\n      pop\n      jump\t// out\n        /* \"#utility.yul\":4808:4917   */\n    tag_369:\n        /* \"#utility.yul\":4889:4910   */\n      tag_371\n        /* \"#utility.yul\":4904:4909   */\n      dup2\n        /* \"#utility.yul\":4889:4910   */\n      tag_372\n      jump\t// in\n    tag_371:\n        /* \"#utility.yul\":4884:4887   */\n      dup3\n        /* \"#utility.yul\":4877:4911   */\n      mstore\n        /* \"#utility.yul\":4867:4917   */\n      pop\n      pop\n      jump\t// out\n        /* \"#utility.yul\":4923:5296   */\n    tag_373:\n      0x00\n        /* \"#utility.yul\":5055:5093   */\n      tag_375\n        /* \"#utility.yul\":5087:5092   */\n      dup3\n        /* \"#utility.yul\":5055:5093   */\n      tag_376\n      jump\t// in\n    tag_375:\n        /* \"#utility.yul\":5109:5197   */\n      tag_377\n        /* \"#utility.yul\":5190:5196   */\n      dup2\n        /* \"#utility.yul\":5185:5188   */\n      dup6\n        /* \"#utility.yul\":5109:5197   */\n      tag_378\n      jump\t// in\n    tag_377:\n        /* \"#utility.yul\":5102:5197   */\n      swap4\n      pop\n        /* \"#utility.yul\":5206:5258   */\n      tag_379\n        /* \"#utility.yul\":5251:5257   */\n      dup2\n        /* \"#utility.yul\":5246:5249   */\n      dup6\n        /* \"#utility.yul\":5239:5243   */\n      0x20\n        /* \"#utility.yul\":5232:5237   */\n      dup7\n        /* \"#utility.yul\":5228:5244   */\n      add\n        /* \"#utility.yul\":5206:5258   */\n      tag_380\n      jump\t// in\n    tag_379:\n        /* \"#utility.yul\":5283:5289   */\n      dup1\n        /* \"#utility.yul\":5278:5281   */\n      dup5\n        /* \"#utility.yul\":5274:5290   */\n      add\n        /* \"#utility.yul\":5267:5290   */\n      swap2\n      pop\n        /* \"#utility.yul\":5031:5296   */\n      pop\n      swap3\n      swap2\n      pop\n      pop\n      jump\t// out\n        /* \"#utility.yul\":5302:5607   */\n    tag_381:\n      0x00\n        /* \"#utility.yul\":5465:5531   */\n      tag_383\n        /* \"#utility.yul\":5529:5530   */\n      0x08\n        /* \"#utility.yul\":5524:5527   */\n      dup4\n        /* \"#utility.yul\":5465:5531   */\n      tag_384\n      jump\t// in\n    tag_383:\n        /* \"#utility.yul\":5458:5531   */\n      swap2\n      pop\n        /* \"#utility.yul\":5561:5571   */\n      0x30206e756d626572000000000000000000000000000000000000000000000000\n        /* \"#utility.yul\":5557:5558   */\n      0x00\n        /* \"#utility.yul\":5552:5555   */\n      dup4\n        /* \"#utility.yul\":5548:5559   */\n      add\n        /* \"#utility.yul\":5541:5572   */\n      mstore\n        /* \"#utility.yul\":5598:5600   */\n      0x20\n        /* \"#utility.yul\":5593:5596   */\n      dup3\n        /* \"#utility.yul\":5589:5601   */\n      add\n        /* \"#utility.yul\":5582:5601   */\n      swap1\n      pop\n        /* \"#utility.yul\":5448:5607   */\n      swap2\n      swap1\n      pop\n      jump\t// out\n        /* \"#utility.yul\":5613:5916   */\n    tag_385:\n      0x00\n        /* \"#utility.yul\":5776:5842   */\n      tag_387\n        /* \"#utility.yul\":5840:5841   */\n      0x06\n        /* \"#utility.yul\":5835:5838   */\n      dup4\n        /* \"#utility.yul\":5776:5842   */\n      tag_384\n      jump\t// in\n    tag_387:\n        /* \"#utility.yul\":5769:5842   */\n      swap2\n      pop\n        /* \"#utility.yul\":5872:5880   */\n      0x4c6f636b65640000000000000000000000000000000000000000000000000000\n        /* \"#utility.yul\":5868:5869   */\n      0x00\n        /* \"#utility.yul\":5863:5866   */\n      dup4\n        /* \"#utility.yul\":5859:5870   */\n      add\n        /* \"#utility.yul\":5852:5881   */\n      mstore\n        /* \"#utility.yul\":5907:5909   */\n      0x20\n        /* \"#utility.yul\":5902:5905   */\n      dup3\n        /* \"#utility.yul\":5898:5910   */\n      add\n        /* \"#utility.yul\":5891:5910   */\n      swap1\n      pop\n        /* \"#utility.yul\":5759:5916   */\n      swap2\n      swap1\n      pop\n      jump\t// out\n        /* \"#utility.yul\":5922:6303   */\n    tag_388:\n      0x00\n        /* \"#utility.yul\":6085:6152   */\n      tag_390\n        /* \"#utility.yul\":6149:6151   */\n      0x31\n        /* \"#utility.yul\":6144:6147   */\n      dup4\n        /* \"#utility.yul\":6085:6152   */\n      tag_384\n      jump\t// in\n    tag_390:\n        /* \"#utility.yul\":6078:6152   */\n      swap2\n      pop\n        /* \"#utility.yul\":6182:6216   */\n      0x5472616e7366657248656c7065723a3a7472616e7366657246726f6d3a207472\n        /* \"#utility.yul\":6178:6179   */\n      0x00\n        /* \"#utility.yul\":6173:6176   */\n      dup4\n        /* \"#utility.yul\":6169:6180   */\n      add\n        /* \"#utility.yul\":6162:6217   */\n      mstore\n        /* \"#utility.yul\":6248:6267   */\n      0x616e7366657246726f6d206661696c6564000000000000000000000000000000\n        /* \"#utility.yul\":6243:6245   */\n      0x20\n        /* \"#utility.yul\":6238:6241   */\n      dup4\n        /* \"#utility.yul\":6234:6246   */\n      add\n        /* \"#utility.yul\":6227:6268   */\n      mstore\n        /* \"#utility.yul\":6294:6296   */\n      0x40\n        /* \"#utility.yul\":6289:6292   */\n      dup3\n        /* \"#utility.yul\":6285:6297   */\n      add\n        /* \"#utility.yul\":6278:6297   */\n      swap1\n      pop\n        /* \"#utility.yul\":6068:6303   */\n      swap2\n      swap1\n      pop\n      jump\t// out\n        /* \"#utility.yul\":6309:6615   */\n    tag_391:\n      0x00\n        /* \"#utility.yul\":6472:6538   */\n      tag_393\n        /* \"#utility.yul\":6536:6537   */\n      0x09\n        /* \"#utility.yul\":6531:6534   */\n      dup4\n        /* \"#utility.yul\":6472:6538   */\n      tag_384\n      jump\t// in\n    tag_393:\n        /* \"#utility.yul\":6465:6538   */\n      swap2\n      pop\n        /* \"#utility.yul\":6568:6579   */\n      0x4e6f7420657175616c0000000000000000000000000000000000000000000000\n        /* \"#utility.yul\":6564:6565   */\n      0x00\n        /* \"#utility.yul\":6559:6562   */\n      dup4\n        /* \"#utility.yul\":6555:6566   */\n      add\n        /* \"#utility.yul\":6548:6580   */\n      mstore\n        /* \"#utility.yul\":6606:6608   */\n      0x20\n        /* \"#utility.yul\":6601:6604   */\n      dup3\n        /* \"#utility.yul\":6597:6609   */\n      add\n        /* \"#utility.yul\":6590:6609   */\n      swap1\n      pop\n        /* \"#utility.yul\":6455:6615   */\n      swap2\n      swap1\n      pop\n      jump\t// out\n        /* \"#utility.yul\":6621:6930   */\n    tag_394:\n      0x00\n        /* \"#utility.yul\":6784:6851   */\n      tag_396\n        /* \"#utility.yul\":6848:6850   */\n      0x0b\n        /* \"#utility.yul\":6843:6846   */\n      dup4\n        /* \"#utility.yul\":6784:6851   */\n      tag_384\n      jump\t// in\n    tag_396:\n        /* \"#utility.yul\":6777:6851   */\n      swap2\n      pop\n        /* \"#utility.yul\":6881:6894   */\n      0x5a65726f20616d6f756e74000000000000000000000000000000000000000000\n        /* \"#utility.yul\":6877:6878   */\n      0x00\n        /* \"#utility.yul\":6872:6875   */\n      dup4\n        /* \"#utility.yul\":6868:6879   */\n      add\n        /* \"#utility.yul\":6861:6895   */\n      mstore\n        /* \"#utility.yul\":6921:6923   */\n      0x20\n        /* \"#utility.yul\":6916:6919   */\n      dup3\n        /* \"#utility.yul\":6912:6924   */\n      add\n        /* \"#utility.yul\":6905:6924   */\n      swap1\n      pop\n        /* \"#utility.yul\":6767:6930   */\n      swap2\n      swap1\n      pop\n      jump\t// out\n        /* \"#utility.yul\":6936:7246   */\n    tag_397:\n      0x00\n        /* \"#utility.yul\":7099:7166   */\n      tag_399\n        /* \"#utility.yul\":7163:7165   */\n      0x0c\n        /* \"#utility.yul\":7158:7161   */\n      dup4\n        /* \"#utility.yul\":7099:7166   */\n      tag_384\n      jump\t// in\n    tag_399:\n        /* \"#utility.yul\":7092:7166   */\n      swap2\n      pop\n        /* \"#utility.yul\":7196:7210   */\n      0x4d696e757320616d6f756e740000000000000000000000000000000000000000\n        /* \"#utility.yul\":7192:7193   */\n      0x00\n        /* \"#utility.yul\":7187:7190   */\n      dup4\n        /* \"#utility.yul\":7183:7194   */\n      add\n        /* \"#utility.yul\":7176:7211   */\n      mstore\n        /* \"#utility.yul\":7237:7239   */\n      0x20\n        /* \"#utility.yul\":7232:7235   */\n      dup3\n        /* \"#utility.yul\":7228:7240   */\n      add\n        /* \"#utility.yul\":7221:7240   */\n      swap1\n      pop\n        /* \"#utility.yul\":7082:7246   */\n      swap2\n      swap1\n      pop\n      jump\t// out\n        /* \"#utility.yul\":7252:7565   */\n    tag_400:\n      0x00\n        /* \"#utility.yul\":7415:7482   */\n      tag_402\n        /* \"#utility.yul\":7479:7481   */\n      0x0f\n        /* \"#utility.yul\":7474:7477   */\n      dup4\n        /* \"#utility.yul\":7415:7482   */\n      tag_384\n      jump\t// in\n    tag_402:\n        /* \"#utility.yul\":7408:7482   */\n      swap2\n      pop\n        /* \"#utility.yul\":7512:7529   */\n      0x4d696e7573206c69717569646974790000000000000000000000000000000000\n        /* \"#utility.yul\":7508:7509   */\n      0x00\n        /* \"#utility.yul\":7503:7506   */\n      dup4\n        /* \"#utility.yul\":7499:7510   */\n      add\n        /* \"#utility.yul\":7492:7530   */\n      mstore\n        /* \"#utility.yul\":7556:7558   */\n      0x20\n        /* \"#utility.yul\":7551:7554   */\n      dup3\n        /* \"#utility.yul\":7547:7559   */\n      add\n        /* \"#utility.yul\":7540:7559   */\n      swap1\n      pop\n        /* \"#utility.yul\":7398:7565   */\n      swap2\n      swap1\n      pop\n      jump\t// out\n        /* \"#utility.yul\":7571:7877   */\n    tag_403:\n      0x00\n        /* \"#utility.yul\":7734:7800   */\n      tag_405\n        /* \"#utility.yul\":7798:7799   */\n      0x09\n        /* \"#utility.yul\":7793:7796   */\n      dup4\n        /* \"#utility.yul\":7734:7800   */\n      tag_384\n      jump\t// in\n    tag_405:\n        /* \"#utility.yul\":7727:7800   */\n      swap2\n      pop\n        /* \"#utility.yul\":7830:7841   */\n      0x4e6f74206f776e65720000000000000000000000000000000000000000000000\n        /* \"#utility.yul\":7826:7827   */\n      0x00\n        /* \"#utility.yul\":7821:7824   */\n      dup4\n        /* \"#utility.yul\":7817:7828   */\n      add\n        /* \"#utility.yul\":7810:7842   */\n      mstore\n        /* \"#utility.yul\":7868:7870   */\n      0x20\n        /* \"#utility.yul\":7863:7866   */\n      dup3\n        /* \"#utility.yul\":7859:7871   */\n      add\n        /* \"#utility.yul\":7852:7871   */\n      swap1\n      pop\n        /* \"#utility.yul\":7717:7877   */\n      swap2\n      swap1\n      pop\n      jump\t// out\n        /* \"#utility.yul\":7883:8197   */\n    tag_406:\n      0x00\n        /* \"#utility.yul\":8046:8113   */\n      tag_408\n        /* \"#utility.yul\":8110:8112   */\n      0x10\n        /* \"#utility.yul\":8105:8108   */\n      dup4\n        /* \"#utility.yul\":8046:8113   */\n      tag_384\n      jump\t// in\n    tag_408:\n        /* \"#utility.yul\":8039:8113   */\n      swap2\n      pop\n        /* \"#utility.yul\":8143:8161   */\n      0x4e6f742075736564206164647265737300000000000000000000000000000000\n        /* \"#utility.yul\":8139:8140   */\n      0x00\n        /* \"#utility.yul\":8134:8137   */\n      dup4\n        /* \"#utility.yul\":8130:8141   */\n      add\n        /* \"#utility.yul\":8123:8162   */\n      mstore\n        /* \"#utility.yul\":8188:8190   */\n      0x20\n        /* \"#utility.yul\":8183:8186   */\n      dup3\n        /* \"#utility.yul\":8179:8191   */\n      add\n        /* \"#utility.yul\":8172:8191   */\n      swap1\n      pop\n        /* \"#utility.yul\":8029:8197   */\n      swap2\n      swap1\n      pop\n      jump\t// out\n        /* \"#utility.yul\":8203:8512   */\n    tag_409:\n      0x00\n        /* \"#utility.yul\":8366:8433   */\n      tag_411\n        /* \"#utility.yul\":8430:8432   */\n      0x0b\n        /* \"#utility.yul\":8425:8428   */\n      dup4\n        /* \"#utility.yul\":8366:8433   */\n      tag_384\n      jump\t// in\n    tag_411:\n        /* \"#utility.yul\":8359:8433   */\n      swap2\n      pop\n        /* \"#utility.yul\":8463:8476   */\n      0x4641494c4544204d696e74000000000000000000000000000000000000000000\n        /* \"#utility.yul\":8459:8460   */\n      0x00\n        /* \"#utility.yul\":8454:8457   */\n      dup4\n        /* \"#utility.yul\":8450:8461   */\n      add\n        /* \"#utility.yul\":8443:8477   */\n      mstore\n        /* \"#utility.yul\":8503:8505   */\n      0x20\n        /* \"#utility.yul\":8498:8501   */\n      dup3\n        /* \"#utility.yul\":8494:8506   */\n      add\n        /* \"#utility.yul\":8487:8506   */\n      swap1\n      pop\n        /* \"#utility.yul\":8349:8512   */\n      swap2\n      swap1\n      pop\n      jump\t// out\n        /* \"#utility.yul\":8518:8895   */\n    tag_412:\n      0x00\n        /* \"#utility.yul\":8681:8748   */\n      tag_414\n        /* \"#utility.yul\":8745:8747   */\n      0x2d\n        /* \"#utility.yul\":8740:8743   */\n      dup4\n        /* \"#utility.yul\":8681:8748   */\n      tag_384\n      jump\t// in\n    tag_414:\n        /* \"#utility.yul\":8674:8748   */\n      swap2\n      pop\n        /* \"#utility.yul\":8778:8812   */\n      0x5472616e7366657248656c7065723a3a736166655472616e736665723a207472\n        /* \"#utility.yul\":8774:8775   */\n      0x00\n        /* \"#utility.yul\":8769:8772   */\n      dup4\n        /* \"#utility.yul\":8765:8776   */\n      add\n        /* \"#utility.yul\":8758:8813   */\n      mstore\n        /* \"#utility.yul\":8844:8859   */\n      0x616e73666572206661696c656400000000000000000000000000000000000000\n        /* \"#utility.yul\":8839:8841   */\n      0x20\n        /* \"#utility.yul\":8834:8837   */\n      dup4\n        /* \"#utility.yul\":8830:8842   */\n      add\n        /* \"#utility.yul\":8823:8860   */\n      mstore\n        /* \"#utility.yul\":8886:8888   */\n      0x40\n        /* \"#utility.yul\":8881:8884   */\n      dup3\n        /* \"#utility.yul\":8877:8889   */\n      add\n        /* \"#utility.yul\":8870:8889   */\n      swap1\n      pop\n        /* \"#utility.yul\":8664:8895   */\n      swap2\n      swap1\n      pop\n      jump\t// out\n        /* \"#utility.yul\":8901:9210   */\n    tag_415:\n      0x00\n        /* \"#utility.yul\":9064:9131   */\n      tag_417\n        /* \"#utility.yul\":9128:9130   */\n      0x0b\n        /* \"#utility.yul\":9123:9126   */\n      dup4\n        /* \"#utility.yul\":9064:9131   */\n      tag_384\n      jump\t// in\n    tag_417:\n        /* \"#utility.yul\":9057:9131   */\n      swap2\n      pop\n        /* \"#utility.yul\":9161:9174   */\n      0x4641494c4544204275726e000000000000000000000000000000000000000000\n        /* \"#utility.yul\":9157:9158   */\n      0x00\n        /* \"#utility.yul\":9152:9155   */\n      dup4\n        /* \"#utility.yul\":9148:9159   */\n      add\n        /* \"#utility.yul\":9141:9175   */\n      mstore\n        /* \"#utility.yul\":9201:9203   */\n      0x20\n        /* \"#utility.yul\":9196:9199   */\n      dup3\n        /* \"#utility.yul\":9192:9204   */\n      add\n        /* \"#utility.yul\":9185:9204   */\n      swap1\n      pop\n        /* \"#utility.yul\":9047:9210   */\n      swap2\n      swap1\n      pop\n      jump\t// out\n        /* \"#utility.yul\":9216:9334   */\n    tag_418:\n        /* \"#utility.yul\":9303:9327   */\n      tag_420\n        /* \"#utility.yul\":9321:9326   */\n      dup2\n        /* \"#utility.yul\":9303:9327   */\n      tag_421\n      jump\t// in\n    tag_420:\n        /* \"#utility.yul\":9298:9301   */\n      dup3\n        /* \"#utility.yul\":9291:9328   */\n      mstore\n        /* \"#utility.yul\":9281:9334   */\n      pop\n      pop\n      jump\t// out\n        /* \"#utility.yul\":9340:9611   */\n    tag_238:\n      0x00\n        /* \"#utility.yul\":9492:9585   */\n      tag_423\n        /* \"#utility.yul\":9581:9584   */\n      dup3\n        /* \"#utility.yul\":9572:9578   */\n      dup5\n        /* \"#utility.yul\":9492:9585   */\n      tag_373\n      jump\t// in\n    tag_423:\n        /* \"#utility.yul\":9485:9585   */\n      swap2\n      pop\n        /* \"#utility.yul\":9602:9605   */\n      dup2\n        /* \"#utility.yul\":9595:9605   */\n      swap1\n      pop\n        /* \"#utility.yul\":9474:9611   */\n      swap3\n      swap2\n      pop\n      pop\n      jump\t// out\n        /* \"#utility.yul\":9617:9839   */\n    tag_24:\n      0x00\n        /* \"#utility.yul\":9748:9750   */\n      0x20\n        /* \"#utility.yul\":9737:9746   */\n      dup3\n        /* \"#utility.yul\":9733:9751   */\n      add\n        /* \"#utility.yul\":9725:9751   */\n      swap1\n      pop\n        /* \"#utility.yul\":9761:9832   */\n      tag_425\n        /* \"#utility.yul\":9829:9830   */\n      0x00\n        /* \"#utility.yul\":9818:9827   */\n      dup4\n        /* \"#utility.yul\":9814:9831   */\n      add\n        /* \"#utility.yul\":9805:9811   */\n      dup5\n        /* \"#utility.yul\":9761:9832   */\n      tag_365\n      jump\t// in\n    tag_425:\n        /* \"#utility.yul\":9715:9839   */\n      swap3\n      swap2\n      pop\n      pop\n      jump\t// out\n        /* \"#utility.yul\":9845:10287   */\n    tag_83:\n      0x00\n        /* \"#utility.yul\":10032:10034   */\n      0x60\n        /* \"#utility.yul\":10021:10030   */\n      dup3\n        /* \"#utility.yul\":10017:10035   */\n      add\n        /* \"#utility.yul\":10009:10035   */\n      swap1\n      pop\n        /* \"#utility.yul\":10045:10116   */\n      tag_427\n        /* \"#utility.yul\":10113:10114   */\n      0x00\n        /* \"#utility.yul\":10102:10111   */\n      dup4\n        /* \"#utility.yul\":10098:10115   */\n      add\n        /* \"#utility.yul\":10089:10095   */\n      dup7\n        /* \"#utility.yul\":10045:10116   */\n      tag_365\n      jump\t// in\n    tag_427:\n        /* \"#utility.yul\":10126:10198   */\n      tag_428\n        /* \"#utility.yul\":10194:10196   */\n      0x20\n        /* \"#utility.yul\":10183:10192   */\n      dup4\n        /* \"#utility.yul\":10179:10197   */\n      add\n        /* \"#utility.yul\":10170:10176   */\n      dup6\n        /* \"#utility.yul\":10126:10198   */\n      tag_365\n      jump\t// in\n    tag_428:\n        /* \"#utility.yul\":10208:10280   */\n      tag_429\n        /* \"#utility.yul\":10276:10278   */\n      0x40\n        /* \"#utility.yul\":10265:10274   */\n      dup4\n        /* \"#utility.yul\":10261:10279   */\n      add\n        /* \"#utility.yul\":10252:10258   */\n      dup5\n        /* \"#utility.yul\":10208:10280   */\n      tag_365\n      jump\t// in\n    tag_429:\n        /* \"#utility.yul\":9999:10287   */\n      swap5\n      swap4\n      pop\n      pop\n      pop\n      pop\n      jump\t// out\n        /* \"#utility.yul\":10293:10957   */\n    tag_199:\n      0x00\n        /* \"#utility.yul\":10536:10539   */\n      0xa0\n        /* \"#utility.yul\":10525:10534   */\n      dup3\n        /* \"#utility.yul\":10521:10540   */\n      add\n        /* \"#utility.yul\":10513:10540   */\n      swap1\n      pop\n        /* \"#utility.yul\":10550:10621   */\n      tag_431\n        /* \"#utility.yul\":10618:10619   */\n      0x00\n        /* \"#utility.yul\":10607:10616   */\n      dup4\n        /* \"#utility.yul\":10603:10620   */\n      add\n        /* \"#utility.yul\":10594:10600   */\n      dup9\n        /* \"#utility.yul\":10550:10621   */\n      tag_365\n      jump\t// in\n    tag_431:\n        /* \"#utility.yul\":10631:10703   */\n      tag_432\n        /* \"#utility.yul\":10699:10701   */\n      0x20\n        /* \"#utility.yul\":10688:10697   */\n      dup4\n        /* \"#utility.yul\":10684:10702   */\n      add\n        /* \"#utility.yul\":10675:10681   */\n      dup8\n        /* \"#utility.yul\":10631:10703   */\n      tag_365\n      jump\t// in\n    tag_432:\n        /* \"#utility.yul\":10713:10785   */\n      tag_433\n        /* \"#utility.yul\":10781:10783   */\n      0x40\n        /* \"#utility.yul\":10770:10779   */\n      dup4\n        /* \"#utility.yul\":10766:10784   */\n      add\n        /* \"#utility.yul\":10757:10763   */\n      dup7\n        /* \"#utility.yul\":10713:10785   */\n      tag_365\n      jump\t// in\n    tag_433:\n        /* \"#utility.yul\":10795:10867   */\n      tag_434\n        /* \"#utility.yul\":10863:10865   */\n      0x60\n        /* \"#utility.yul\":10852:10861   */\n      dup4\n        /* \"#utility.yul\":10848:10866   */\n      add\n        /* \"#utility.yul\":10839:10845   */\n      dup6\n        /* \"#utility.yul\":10795:10867   */\n      tag_418\n      jump\t// in\n    tag_434:\n        /* \"#utility.yul\":10877:10950   */\n      tag_435\n        /* \"#utility.yul\":10945:10948   */\n      0x80\n        /* \"#utility.yul\":10934:10943   */\n      dup4\n        /* \"#utility.yul\":10930:10949   */\n      add\n        /* \"#utility.yul\":10921:10927   */\n      dup5\n        /* \"#utility.yul\":10877:10950   */\n      tag_418\n      jump\t// in\n    tag_435:\n        /* \"#utility.yul\":10503:10957   */\n      swap7\n      swap6\n      pop\n      pop\n      pop\n      pop\n      pop\n      pop\n      jump\t// out\n        /* \"#utility.yul\":10963:11405   */\n    tag_236:\n      0x00\n        /* \"#utility.yul\":11150:11152   */\n      0x60\n        /* \"#utility.yul\":11139:11148   */\n      dup3\n        /* \"#utility.yul\":11135:11153   */\n      add\n        /* \"#utility.yul\":11127:11153   */\n      swap1\n      pop\n        /* \"#utility.yul\":11163:11234   */\n      tag_437\n        /* \"#utility.yul\":11231:11232   */\n      0x00\n        /* \"#utility.yul\":11220:11229   */\n      dup4\n        /* \"#utility.yul\":11216:11233   */\n      add\n        /* \"#utility.yul\":11207:11213   */\n      dup7\n        /* \"#utility.yul\":11163:11234   */\n      tag_365\n      jump\t// in\n    tag_437:\n        /* \"#utility.yul\":11244:11316   */\n      tag_438\n        /* \"#utility.yul\":11312:11314   */\n      0x20\n        /* \"#utility.yul\":11301:11310   */\n      dup4\n        /* \"#utility.yul\":11297:11315   */\n      add\n        /* \"#utility.yul\":11288:11294   */\n      dup6\n        /* \"#utility.yul\":11244:11316   */\n      tag_365\n      jump\t// in\n    tag_438:\n        /* \"#utility.yul\":11326:11398   */\n      tag_439\n        /* \"#utility.yul\":11394:11396   */\n      0x40\n        /* \"#utility.yul\":11383:11392   */\n      dup4\n        /* \"#utility.yul\":11379:11397   */\n      add\n        /* \"#utility.yul\":11370:11376   */\n      dup5\n        /* \"#utility.yul\":11326:11398   */\n      tag_418\n      jump\t// in\n    tag_439:\n        /* \"#utility.yul\":11117:11405   */\n      swap5\n      swap4\n      pop\n      pop\n      pop\n      pop\n      jump\t// out\n        /* \"#utility.yul\":11411:11964   */\n    tag_151:\n      0x00\n        /* \"#utility.yul\":11626:11629   */\n      0x80\n        /* \"#utility.yul\":11615:11624   */\n      dup3\n        /* \"#utility.yul\":11611:11630   */\n      add\n        /* \"#utility.yul\":11603:11630   */\n      swap1\n      pop\n        /* \"#utility.yul\":11640:11711   */\n      tag_441\n        /* \"#utility.yul\":11708:11709   */\n      0x00\n        /* \"#utility.yul\":11697:11706   */\n      dup4\n        /* \"#utility.yul\":11693:11710   */\n      add\n        /* \"#utility.yul\":11684:11690   */\n      dup8\n        /* \"#utility.yul\":11640:11711   */\n      tag_365\n      jump\t// in\n    tag_441:\n        /* \"#utility.yul\":11721:11793   */\n      tag_442\n        /* \"#utility.yul\":11789:11791   */\n      0x20\n        /* \"#utility.yul\":11778:11787   */\n      dup4\n        /* \"#utility.yul\":11774:11792   */\n      add\n        /* \"#utility.yul\":11765:11771   */\n      dup7\n        /* \"#utility.yul\":11721:11793   */\n      tag_365\n      jump\t// in\n    tag_442:\n        /* \"#utility.yul\":11803:11875   */\n      tag_443\n        /* \"#utility.yul\":11871:11873   */\n      0x40\n        /* \"#utility.yul\":11860:11869   */\n      dup4\n        /* \"#utility.yul\":11856:11874   */\n      add\n        /* \"#utility.yul\":11847:11853   */\n      dup6\n        /* \"#utility.yul\":11803:11875   */\n      tag_418\n      jump\t// in\n    tag_443:\n        /* \"#utility.yul\":11885:11957   */\n      tag_444\n        /* \"#utility.yul\":11953:11955   */\n      0x60\n        /* \"#utility.yul\":11942:11951   */\n      dup4\n        /* \"#utility.yul\":11938:11956   */\n      add\n        /* \"#utility.yul\":11929:11935   */\n      dup5\n        /* \"#utility.yul\":11885:11957   */\n      tag_418\n      jump\t// in\n    tag_444:\n        /* \"#utility.yul\":11593:11964   */\n      swap6\n      swap5\n      pop\n      pop\n      pop\n      pop\n      pop\n      jump\t// out\n        /* \"#utility.yul\":11970:12634   */\n    tag_232:\n      0x00\n        /* \"#utility.yul\":12213:12216   */\n      0xa0\n        /* \"#utility.yul\":12202:12211   */\n      dup3\n        /* \"#utility.yul\":12198:12217   */\n      add\n        /* \"#utility.yul\":12190:12217   */\n      swap1\n      pop\n        /* \"#utility.yul\":12227:12298   */\n      tag_446\n        /* \"#utility.yul\":12295:12296   */\n      0x00\n        /* \"#utility.yul\":12284:12293   */\n      dup4\n        /* \"#utility.yul\":12280:12297   */\n      add\n        /* \"#utility.yul\":12271:12277   */\n      dup9\n        /* \"#utility.yul\":12227:12298   */\n      tag_365\n      jump\t// in\n    tag_446:\n        /* \"#utility.yul\":12308:12380   */\n      tag_447\n        /* \"#utility.yul\":12376:12378   */\n      0x20\n        /* \"#utility.yul\":12365:12374   */\n      dup4\n        /* \"#utility.yul\":12361:12379   */\n      add\n        /* \"#utility.yul\":12352:12358   */\n      dup8\n        /* \"#utility.yul\":12308:12380   */\n      tag_365\n      jump\t// in\n    tag_447:\n        /* \"#utility.yul\":12390:12462   */\n      tag_448\n        /* \"#utility.yul\":12458:12460   */\n      0x40\n        /* \"#utility.yul\":12447:12456   */\n      dup4\n        /* \"#utility.yul\":12443:12461   */\n      add\n        /* \"#utility.yul\":12434:12440   */\n      dup7\n        /* \"#utility.yul\":12390:12462   */\n      tag_418\n      jump\t// in\n    tag_448:\n        /* \"#utility.yul\":12472:12544   */\n      tag_449\n        /* \"#utility.yul\":12540:12542   */\n      0x60\n        /* \"#utility.yul\":12529:12538   */\n      dup4\n        /* \"#utility.yul\":12525:12543   */\n      add\n        /* \"#utility.yul\":12516:12522   */\n      dup6\n        /* \"#utility.yul\":12472:12544   */\n      tag_418\n      jump\t// in\n    tag_449:\n        /* \"#utility.yul\":12554:12627   */\n      tag_450\n        /* \"#utility.yul\":12622:12625   */\n      0x80\n        /* \"#utility.yul\":12611:12620   */\n      dup4\n        /* \"#utility.yul\":12607:12626   */\n      add\n        /* \"#utility.yul\":12598:12604   */\n      dup5\n        /* \"#utility.yul\":12554:12627   */\n      tag_418\n      jump\t// in\n    tag_450:\n        /* \"#utility.yul\":12180:12634   */\n      swap7\n      swap6\n      pop\n      pop\n      pop\n      pop\n      pop\n      pop\n      jump\t// out\n        /* \"#utility.yul\":12640:12972   */\n    tag_262:\n      0x00\n        /* \"#utility.yul\":12799:12801   */\n      0x40\n        /* \"#utility.yul\":12788:12797   */\n      dup3\n        /* \"#utility.yul\":12784:12802   */\n      add\n        /* \"#utility.yul\":12776:12802   */\n      swap1\n      pop\n        /* \"#utility.yul\":12812:12883   */\n      tag_452\n        /* \"#utility.yul\":12880:12881   */\n      0x00\n        /* \"#utility.yul\":12869:12878   */\n      dup4\n        /* \"#utility.yul\":12865:12882   */\n      add\n        /* \"#utility.yul\":12856:12862   */\n      dup6\n        /* \"#utility.yul\":12812:12883   */\n      tag_365\n      jump\t// in\n    tag_452:\n        /* \"#utility.yul\":12893:12965   */\n      tag_453\n        /* \"#utility.yul\":12961:12963   */\n      0x20\n        /* \"#utility.yul\":12950:12959   */\n      dup4\n        /* \"#utility.yul\":12946:12964   */\n      add\n        /* \"#utility.yul\":12937:12943   */\n      dup5\n        /* \"#utility.yul\":12893:12965   */\n      tag_418\n      jump\t// in\n    tag_453:\n        /* \"#utility.yul\":12766:12972   */\n      swap4\n      swap3\n      pop\n      pop\n      pop\n      jump\t// out\n        /* \"#utility.yul\":12978:13188   */\n    tag_50:\n      0x00\n        /* \"#utility.yul\":13103:13105   */\n      0x20\n        /* \"#utility.yul\":13092:13101   */\n      dup3\n        /* \"#utility.yul\":13088:13106   */\n      add\n        /* \"#utility.yul\":13080:13106   */\n      swap1\n      pop\n        /* \"#utility.yul\":13116:13181   */\n      tag_455\n        /* \"#utility.yul\":13178:13179   */\n      0x00\n        /* \"#utility.yul\":13167:13176   */\n      dup4\n        /* \"#utility.yul\":13163:13180   */\n      add\n        /* \"#utility.yul\":13154:13160   */\n      dup5\n        /* \"#utility.yul\":13116:13181   */\n      tag_369\n      jump\t// in\n    tag_455:\n        /* \"#utility.yul\":13070:13188   */\n      swap3\n      swap2\n      pop\n      pop\n      jump\t// out\n        /* \"#utility.yul\":13194:13613   */\n    tag_280:\n      0x00\n        /* \"#utility.yul\":13398:13400   */\n      0x20\n        /* \"#utility.yul\":13387:13396   */\n      dup3\n        /* \"#utility.yul\":13383:13401   */\n      add\n        /* \"#utility.yul\":13375:13401   */\n      swap1\n      pop\n        /* \"#utility.yul\":13447:13456   */\n      dup2\n        /* \"#utility.yul\":13441:13445   */\n      dup2\n        /* \"#utility.yul\":13437:13457   */\n      sub\n        /* \"#utility.yul\":13433:13434   */\n      0x00\n        /* \"#utility.yul\":13422:13431   */\n      dup4\n        /* \"#utility.yul\":13418:13435   */\n      add\n        /* \"#utility.yul\":13411:13458   */\n      mstore\n        /* \"#utility.yul\":13475:13606   */\n      tag_457\n        /* \"#utility.yul\":13601:13605   */\n      dup2\n        /* \"#utility.yul\":13475:13606   */\n      tag_381\n      jump\t// in\n    tag_457:\n        /* \"#utility.yul\":13467:13606   */\n      swap1\n      pop\n        /* \"#utility.yul\":13365:13613   */\n      swap2\n      swap1\n      pop\n      jump\t// out\n        /* \"#utility.yul\":13619:14038   */\n    tag_155:\n      0x00\n        /* \"#utility.yul\":13823:13825   */\n      0x20\n        /* \"#utility.yul\":13812:13821   */\n      dup3\n        /* \"#utility.yul\":13808:13826   */\n      add\n        /* \"#utility.yul\":13800:13826   */\n      swap1\n      pop\n        /* \"#utility.yul\":13872:13881   */\n      dup2\n        /* \"#utility.yul\":13866:13870   */\n      dup2\n        /* \"#utility.yul\":13862:13882   */\n      sub\n        /* \"#utility.yul\":13858:13859   */\n      0x00\n        /* \"#utility.yul\":13847:13856   */\n      dup4\n        /* \"#utility.yul\":13843:13860   */\n      add\n        /* \"#utility.yul\":13836:13883   */\n      mstore\n        /* \"#utility.yul\":13900:14031   */\n      tag_459\n        /* \"#utility.yul\":14026:14030   */\n      dup2\n        /* \"#utility.yul\":13900:14031   */\n      tag_385\n      jump\t// in\n    tag_459:\n        /* \"#utility.yul\":13892:14031   */\n      swap1\n      pop\n        /* \"#utility.yul\":13790:14038   */\n      swap2\n      swap1\n      pop\n      jump\t// out\n        /* \"#utility.yul\":14044:14463   */\n    tag_248:\n      0x00\n        /* \"#utility.yul\":14248:14250   */\n      0x20\n        /* \"#utility.yul\":14237:14246   */\n      dup3\n        /* \"#utility.yul\":14233:14251   */\n      add\n        /* \"#utility.yul\":14225:14251   */\n      swap1\n      pop\n        /* \"#utility.yul\":14297:14306   */\n      dup2\n        /* \"#utility.yul\":14291:14295   */\n      dup2\n        /* \"#utility.yul\":14287:14307   */\n      sub\n        /* \"#utility.yul\":14283:14284   */\n      0x00\n        /* \"#utility.yul\":14272:14281   */\n      dup4\n        /* \"#utility.yul\":14268:14285   */\n      add\n        /* \"#utility.yul\":14261:14308   */\n      mstore\n        /* \"#utility.yul\":14325:14456   */\n      tag_461\n        /* \"#utility.yul\":14451:14455   */\n      dup2\n        /* \"#utility.yul\":14325:14456   */\n      tag_388\n      jump\t// in\n    tag_461:\n        /* \"#utility.yul\":14317:14456   */\n      swap1\n      pop\n        /* \"#utility.yul\":14215:14463   */\n      swap2\n      swap1\n      pop\n      jump\t// out\n        /* \"#utility.yul\":14469:14888   */\n    tag_93:\n      0x00\n        /* \"#utility.yul\":14673:14675   */\n      0x20\n        /* \"#utility.yul\":14662:14671   */\n      dup3\n        /* \"#utility.yul\":14658:14676   */\n      add\n        /* \"#utility.yul\":14650:14676   */\n      swap1\n      pop\n        /* \"#utility.yul\":14722:14731   */\n      dup2\n        /* \"#utility.yul\":14716:14720   */\n      dup2\n        /* \"#utility.yul\":14712:14732   */\n      sub\n        /* \"#utility.yul\":14708:14709   */\n      0x00\n        /* \"#utility.yul\":14697:14706   */\n      dup4\n        /* \"#utility.yul\":14693:14710   */\n      add\n        /* \"#utility.yul\":14686:14733   */\n      mstore\n        /* \"#utility.yul\":14750:14881   */\n      tag_463\n        /* \"#utility.yul\":14876:14880   */\n      dup2\n        /* \"#utility.yul\":14750:14881   */\n      tag_391\n      jump\t// in\n    tag_463:\n        /* \"#utility.yul\":14742:14881   */\n      swap1\n      pop\n        /* \"#utility.yul\":14640:14888   */\n      swap2\n      swap1\n      pop\n      jump\t// out\n        /* \"#utility.yul\":14894:15313   */\n    tag_176:\n      0x00\n        /* \"#utility.yul\":15098:15100   */\n      0x20\n        /* \"#utility.yul\":15087:15096   */\n      dup3\n        /* \"#utility.yul\":15083:15101   */\n      add\n        /* \"#utility.yul\":15075:15101   */\n      swap1\n      pop\n        /* \"#utility.yul\":15147:15156   */\n      dup2\n        /* \"#utility.yul\":15141:15145   */\n      dup2\n        /* \"#utility.yul\":15137:15157   */\n      sub\n        /* \"#utility.yul\":15133:15134   */\n      0x00\n        /* \"#utility.yul\":15122:15131   */\n      dup4\n        /* \"#utility.yul\":15118:15135   */\n      add\n        /* \"#utility.yul\":15111:15158   */\n      mstore\n        /* \"#utility.yul\":15175:15306   */\n      tag_465\n        /* \"#utility.yul\":15301:15305   */\n      dup2\n        /* \"#utility.yul\":15175:15306   */\n      tag_394\n      jump\t// in\n    tag_465:\n        /* \"#utility.yul\":15167:15306   */\n      swap1\n      pop\n        /* \"#utility.yul\":15065:15313   */\n      swap2\n      swap1\n      pop\n      jump\t// out\n        /* \"#utility.yul\":15319:15738   */\n    tag_214:\n      0x00\n        /* \"#utility.yul\":15523:15525   */\n      0x20\n        /* \"#utility.yul\":15512:15521   */\n      dup3\n        /* \"#utility.yul\":15508:15526   */\n      add\n        /* \"#utility.yul\":15500:15526   */\n      swap1\n      pop\n        /* \"#utility.yul\":15572:15581   */\n      dup2\n        /* \"#utility.yul\":15566:15570   */\n      dup2\n        /* \"#utility.yul\":15562:15582   */\n      sub\n        /* \"#utility.yul\":15558:15559   */\n      0x00\n        /* \"#utility.yul\":15547:15556   */\n      dup4\n        /* \"#utility.yul\":15543:15560   */\n      add\n        /* \"#utility.yul\":15536:15583   */\n      mstore\n        /* \"#utility.yul\":15600:15731   */\n      tag_467\n        /* \"#utility.yul\":15726:15730   */\n      dup2\n        /* \"#utility.yul\":15600:15731   */\n      tag_397\n      jump\t// in\n    tag_467:\n        /* \"#utility.yul\":15592:15731   */\n      swap1\n      pop\n        /* \"#utility.yul\":15490:15738   */\n      swap2\n      swap1\n      pop\n      jump\t// out\n        /* \"#utility.yul\":15744:16163   */\n    tag_119:\n      0x00\n        /* \"#utility.yul\":15948:15950   */\n      0x20\n        /* \"#utility.yul\":15937:15946   */\n      dup3\n        /* \"#utility.yul\":15933:15951   */\n      add\n        /* \"#utility.yul\":15925:15951   */\n      swap1\n      pop\n        /* \"#utility.yul\":15997:16006   */\n      dup2\n        /* \"#utility.yul\":15991:15995   */\n      dup2\n        /* \"#utility.yul\":15987:16007   */\n      sub\n        /* \"#utility.yul\":15983:15984   */\n      0x00\n        /* \"#utility.yul\":15972:15981   */\n      dup4\n        /* \"#utility.yul\":15968:15985   */\n      add\n        /* \"#utility.yul\":15961:16008   */\n      mstore\n        /* \"#utility.yul\":16025:16156   */\n      tag_469\n        /* \"#utility.yul\":16151:16155   */\n      dup2\n        /* \"#utility.yul\":16025:16156   */\n      tag_400\n      jump\t// in\n    tag_469:\n        /* \"#utility.yul\":16017:16156   */\n      swap1\n      pop\n        /* \"#utility.yul\":15915:16163   */\n      swap2\n      swap1\n      pop\n      jump\t// out\n        /* \"#utility.yul\":16169:16588   */\n    tag_81:\n      0x00\n        /* \"#utility.yul\":16373:16375   */\n      0x20\n        /* \"#utility.yul\":16362:16371   */\n      dup3\n        /* \"#utility.yul\":16358:16376   */\n      add\n        /* \"#utility.yul\":16350:16376   */\n      swap1\n      pop\n        /* \"#utility.yul\":16422:16431   */\n      dup2\n        /* \"#utility.yul\":16416:16420   */\n      dup2\n        /* \"#utility.yul\":16412:16432   */\n      sub\n        /* \"#utility.yul\":16408:16409   */\n      0x00\n        /* \"#utility.yul\":16397:16406   */\n      dup4\n        /* \"#utility.yul\":16393:16410   */\n      add\n        /* \"#utility.yul\":16386:16433   */\n      mstore\n        /* \"#utility.yul\":16450:16581   */\n      tag_471\n        /* \"#utility.yul\":16576:16580   */\n      dup2\n        /* \"#utility.yul\":16450:16581   */\n      tag_403\n      jump\t// in\n    tag_471:\n        /* \"#utility.yul\":16442:16581   */\n      swap1\n      pop\n        /* \"#utility.yul\":16340:16588   */\n      swap2\n      swap1\n      pop\n      jump\t// out\n        /* \"#utility.yul\":16594:17013   */\n    tag_90:\n      0x00\n        /* \"#utility.yul\":16798:16800   */\n      0x20\n        /* \"#utility.yul\":16787:16796   */\n      dup3\n        /* \"#utility.yul\":16783:16801   */\n      add\n        /* \"#utility.yul\":16775:16801   */\n      swap1\n      pop\n        /* \"#utility.yul\":16847:16856   */\n      dup2\n        /* \"#utility.yul\":16841:16845   */\n      dup2\n        /* \"#utility.yul\":16837:16857   */\n      sub\n        /* \"#utility.yul\":16833:16834   */\n      0x00\n        /* \"#utility.yul\":16822:16831   */\n      dup4\n        /* \"#utility.yul\":16818:16835   */\n      add\n        /* \"#utility.yul\":16811:16858   */\n      mstore\n        /* \"#utility.yul\":16875:17006   */\n      tag_473\n        /* \"#utility.yul\":17001:17005   */\n      dup2\n        /* \"#utility.yul\":16875:17006   */\n      tag_406\n      jump\t// in\n    tag_473:\n        /* \"#utility.yul\":16867:17006   */\n      swap1\n      pop\n        /* \"#utility.yul\":16765:17013   */\n      swap2\n      swap1\n      pop\n      jump\t// out\n        /* \"#utility.yul\":17019:17438   */\n    tag_272:\n      0x00\n        /* \"#utility.yul\":17223:17225   */\n      0x20\n        /* \"#utility.yul\":17212:17221   */\n      dup3\n        /* \"#utility.yul\":17208:17226   */\n      add\n        /* \"#utility.yul\":17200:17226   */\n      swap1\n      pop\n        /* \"#utility.yul\":17272:17281   */\n      dup2\n        /* \"#utility.yul\":17266:17270   */\n      dup2\n        /* \"#utility.yul\":17262:17282   */\n      sub\n        /* \"#utility.yul\":17258:17259   */\n      0x00\n        /* \"#utility.yul\":17247:17256   */\n      dup4\n        /* \"#utility.yul\":17243:17260   */\n      add\n        /* \"#utility.yul\":17236:17283   */\n      mstore\n        /* \"#utility.yul\":17300:17431   */\n      tag_475\n        /* \"#utility.yul\":17426:17430   */\n      dup2\n        /* \"#utility.yul\":17300:17431   */\n      tag_409\n      jump\t// in\n    tag_475:\n        /* \"#utility.yul\":17292:17431   */\n      swap1\n      pop\n        /* \"#utility.yul\":17190:17438   */\n      swap2\n      swap1\n      pop\n      jump\t// out\n        /* \"#utility.yul\":17444:17863   */\n    tag_300:\n      0x00\n        /* \"#utility.yul\":17648:17650   */\n      0x20\n        /* \"#utility.yul\":17637:17646   */\n      dup3\n        /* \"#utility.yul\":17633:17651   */\n      add\n        /* \"#utility.yul\":17625:17651   */\n      swap1\n      pop\n        /* \"#utility.yul\":17697:17706   */\n      dup2\n        /* \"#utility.yul\":17691:17695   */\n      dup2\n        /* \"#utility.yul\":17687:17707   */\n      sub\n        /* \"#utility.yul\":17683:17684   */\n      0x00\n        /* \"#utility.yul\":17672:17681   */\n      dup4\n        /* \"#utility.yul\":17668:17685   */\n      add\n        /* \"#utility.yul\":17661:17708   */\n      mstore\n        /* \"#utility.yul\":17725:17856   */\n      tag_477\n        /* \"#utility.yul\":17851:17855   */\n      dup2\n        /* \"#utility.yul\":17725:17856   */\n      tag_412\n      jump\t// in\n    tag_477:\n        /* \"#utility.yul\":17717:17856   */\n      swap1\n      pop\n        /* \"#utility.yul\":17615:17863   */\n      swap2\n      swap1\n      pop\n      jump\t// out\n        /* \"#utility.yul\":17869:18288   */\n    tag_312:\n      0x00\n        /* \"#utility.yul\":18073:18075   */\n      0x20\n        /* \"#utility.yul\":18062:18071   */\n      dup3\n        /* \"#utility.yul\":18058:18076   */\n      add\n        /* \"#utility.yul\":18050:18076   */\n      swap1\n      pop\n        /* \"#utility.yul\":18122:18131   */\n      dup2\n        /* \"#utility.yul\":18116:18120   */\n      dup2\n        /* \"#utility.yul\":18112:18132   */\n      sub\n        /* \"#utility.yul\":18108:18109   */\n      0x00\n        /* \"#utility.yul\":18097:18106   */\n      dup4\n        /* \"#utility.yul\":18093:18110   */\n      add\n        /* \"#utility.yul\":18086:18133   */\n      mstore\n        /* \"#utility.yul\":18150:18281   */\n      tag_479\n        /* \"#utility.yul\":18276:18280   */\n      dup2\n        /* \"#utility.yul\":18150:18281   */\n      tag_415\n      jump\t// in\n    tag_479:\n        /* \"#utility.yul\":18142:18281   */\n      swap1\n      pop\n        /* \"#utility.yul\":18040:18288   */\n      swap2\n      swap1\n      pop\n      jump\t// out\n        /* \"#utility.yul\":18294:18516   */\n    tag_28:\n      0x00\n        /* \"#utility.yul\":18425:18427   */\n      0x20\n        /* \"#utility.yul\":18414:18423   */\n      dup3\n        /* \"#utility.yul\":18410:18428   */\n      add\n        /* \"#utility.yul\":18402:18428   */\n      swap1\n      pop\n        /* \"#utility.yul\":18438:18509   */\n      tag_481\n        /* \"#utility.yul\":18506:18507   */\n      0x00\n        /* \"#utility.yul\":18495:18504   */\n      dup4\n        /* \"#utility.yul\":18491:18508   */\n      add\n        /* \"#utility.yul\":18482:18488   */\n      dup5\n        /* \"#utility.yul\":18438:18509   */\n      tag_418\n      jump\t// in\n    tag_481:\n        /* \"#utility.yul\":18392:18516   */\n      swap3\n      swap2\n      pop\n      pop\n      jump\t// out\n        /* \"#utility.yul\":18522:18620   */\n    tag_376:\n      0x00\n        /* \"#utility.yul\":18607:18612   */\n      dup2\n        /* \"#utility.yul\":18601:18613   */\n      mload\n        /* \"#utility.yul\":18591:18613   */\n      swap1\n      pop\n        /* \"#utility.yul\":18580:18620   */\n      swap2\n      swap1\n      pop\n      jump\t// out\n        /* \"#utility.yul\":18626:18773   */\n    tag_378:\n      0x00\n        /* \"#utility.yul\":18764:18767   */\n      dup2\n        /* \"#utility.yul\":18749:18767   */\n      swap1\n      pop\n        /* \"#utility.yul\":18739:18773   */\n      swap3\n      swap2\n      pop\n      pop\n      jump\t// out\n        /* \"#utility.yul\":18779:18948   */\n    tag_384:\n      0x00\n        /* \"#utility.yul\":18897:18903   */\n      dup3\n        /* \"#utility.yul\":18892:18895   */\n      dup3\n        /* \"#utility.yul\":18885:18904   */\n      mstore\n        /* \"#utility.yul\":18937:18941   */\n      0x20\n        /* \"#utility.yul\":18932:18935   */\n      dup3\n        /* \"#utility.yul\":18928:18942   */\n      add\n        /* \"#utility.yul\":18913:18942   */\n      swap1\n      pop\n        /* \"#utility.yul\":18875:18948   */\n      swap3\n      swap2\n      pop\n      pop\n      jump\t// out\n        /* \"#utility.yul\":18954:19259   */\n    tag_137:\n      0x00\n        /* \"#utility.yul\":19013:19033   */\n      tag_486\n        /* \"#utility.yul\":19031:19032   */\n      dup3\n        /* \"#utility.yul\":19013:19033   */\n      tag_421\n      jump\t// in\n    tag_486:\n        /* \"#utility.yul\":19008:19033   */\n      swap2\n      pop\n        /* \"#utility.yul\":19047:19067   */\n      tag_487\n        /* \"#utility.yul\":19065:19066   */\n      dup4\n        /* \"#utility.yul\":19047:19067   */\n      tag_421\n      jump\t// in\n    tag_487:\n        /* \"#utility.yul\":19042:19067   */\n      swap3\n      pop\n        /* \"#utility.yul\":19201:19202   */\n      dup3\n        /* \"#utility.yul\":19133:19199   */\n      0xffffffffffffffffffffffffffffffffffffffffffffffffffffffffffffffff\n        /* \"#utility.yul\":19129:19203   */\n      sub\n        /* \"#utility.yul\":19126:19127   */\n      dup3\n        /* \"#utility.yul\":19123:19204   */\n      gt\n        /* \"#utility.yul\":19120:19122   */\n      iszero\n      tag_488\n      jumpi\n        /* \"#utility.yul\":19207:19225   */\n      tag_489\n      tag_490\n      jump\t// in\n    tag_489:\n        /* \"#utility.yul\":19120:19122   */\n    tag_488:\n        /* \"#utility.yul\":19251:19252   */\n      dup3\n        /* \"#utility.yul\":19248:19249   */\n      dup3\n        /* \"#utility.yul\":19244:19253   */\n      add\n        /* \"#utility.yul\":19237:19253   */\n      swap1\n      pop\n        /* \"#utility.yul\":18998:19259   */\n      swap3\n      swap2\n      pop\n      pop\n      jump\t// out\n        /* \"#utility.yul\":19265:19450   */\n    tag_128:\n      0x00\n        /* \"#utility.yul\":19322:19342   */\n      tag_492\n        /* \"#utility.yul\":19340:19341   */\n      dup3\n        /* \"#utility.yul\":19322:19342   */\n      tag_421\n      jump\t// in\n    tag_492:\n        /* \"#utility.yul\":19317:19342   */\n      swap2\n      pop\n        /* \"#utility.yul\":19356:19376   */\n      tag_493\n        /* \"#utility.yul\":19374:19375   */\n      dup4\n        /* \"#utility.yul\":19356:19376   */\n      tag_421\n      jump\t// in\n    tag_493:\n        /* \"#utility.yul\":19351:19376   */\n      swap3\n      pop\n        /* \"#utility.yul\":19395:19396   */\n      dup3\n        /* \"#utility.yul\":19385:19387   */\n      tag_494\n      jumpi\n        /* \"#utility.yul\":19400:19418   */\n      tag_495\n      tag_496\n      jump\t// in\n    tag_495:\n        /* \"#utility.yul\":19385:19387   */\n    tag_494:\n        /* \"#utility.yul\":19442:19443   */\n      dup3\n        /* \"#utility.yul\":19439:19440   */\n      dup3\n        /* \"#utility.yul\":19435:19444   */\n      div\n        /* \"#utility.yul\":19430:19444   */\n      swap1\n      pop\n        /* \"#utility.yul\":19307:19450   */\n      swap3\n      swap2\n      pop\n      pop\n      jump\t// out\n        /* \"#utility.yul\":19456:19804   */\n    tag_114:\n      0x00\n        /* \"#utility.yul\":19519:19539   */\n      tag_498\n        /* \"#utility.yul\":19537:19538   */\n      dup3\n        /* \"#utility.yul\":19519:19539   */\n      tag_421\n      jump\t// in\n    tag_498:\n        /* \"#utility.yul\":19514:19539   */\n      swap2\n      pop\n        /* \"#utility.yul\":19553:19573   */\n      tag_499\n        /* \"#utility.yul\":19571:19572   */\n      dup4\n        /* \"#utility.yul\":19553:19573   */\n      tag_421\n      jump\t// in\n    tag_499:\n        /* \"#utility.yul\":19548:19573   */\n      swap3\n      pop\n        /* \"#utility.yul\":19741:19742   */\n      dup2\n        /* \"#utility.yul\":19673:19739   */\n      0xffffffffffffffffffffffffffffffffffffffffffffffffffffffffffffffff\n        /* \"#utility.yul\":19669:19743   */\n      div\n        /* \"#utility.yul\":19666:19667   */\n      dup4\n        /* \"#utility.yul\":19663:19744   */\n      gt\n        /* \"#utility.yul\":19658:19659   */\n      dup3\n        /* \"#utility.yul\":19651:19660   */\n      iszero\n        /* \"#utility.yul\":19644:19661   */\n      iszero\n        /* \"#utility.yul\":19640:19745   */\n      and\n        /* \"#utility.yul\":19637:19639   */\n      iszero\n      tag_500\n      jumpi\n        /* \"#utility.yul\":19748:19766   */\n      tag_501\n      tag_490\n      jump\t// in\n    tag_501:\n        /* \"#utility.yul\":19637:19639   */\n    tag_500:\n        /* \"#utility.yul\":19796:19797   */\n      dup3\n        /* \"#utility.yul\":19793:19794   */\n      dup3\n        /* \"#utility.yul\":19789:19798   */\n      mul\n        /* \"#utility.yul\":19778:19798   */\n      swap1\n      pop\n        /* \"#utility.yul\":19504:19804   */\n      swap3\n      swap2\n      pop\n      pop\n      jump\t// out\n        /* \"#utility.yul\":19810:20001   */\n    tag_111:\n      0x00\n        /* \"#utility.yul\":19870:19890   */\n      tag_503\n        /* \"#utility.yul\":19888:19889   */\n      dup3\n        /* \"#utility.yul\":19870:19890   */\n      tag_421\n      jump\t// in\n    tag_503:\n        /* \"#utility.yul\":19865:19890   */\n      swap2\n      pop\n        /* \"#utility.yul\":19904:19924   */\n      tag_504\n        /* \"#utility.yul\":19922:19923   */\n      dup4\n        /* \"#utility.yul\":19904:19924   */\n      tag_421\n      jump\t// in\n    tag_504:\n        /* \"#utility.yul\":19899:19924   */\n      swap3\n      pop\n        /* \"#utility.yul\":19943:19944   */\n      dup3\n        /* \"#utility.yul\":19940:19941   */\n      dup3\n        /* \"#utility.yul\":19937:19945   */\n      lt\n        /* \"#utility.yul\":19934:19936   */\n      iszero\n      tag_505\n      jumpi\n        /* \"#utility.yul\":19948:19966   */\n      tag_506\n      tag_490\n      jump\t// in\n    tag_506:\n        /* \"#utility.yul\":19934:19936   */\n    tag_505:\n        /* \"#utility.yul\":19993:19994   */\n      dup3\n        /* \"#utility.yul\":19990:19991   */\n      dup3\n        /* \"#utility.yul\":19986:19995   */\n      sub\n        /* \"#utility.yul\":19978:19995   */\n      swap1\n      pop\n        /* \"#utility.yul\":19855:20001   */\n      swap3\n      swap2\n      pop\n      pop\n      jump\t// out\n        /* \"#utility.yul\":20007:20103   */\n    tag_368:\n      0x00\n        /* \"#utility.yul\":20073:20097   */\n      tag_508\n        /* \"#utility.yul\":20091:20096   */\n      dup3\n        /* \"#utility.yul\":20073:20097   */\n      tag_509\n      jump\t// in\n    tag_508:\n        /* \"#utility.yul\":20062:20097   */\n      swap1\n      pop\n        /* \"#utility.yul\":20052:20103   */\n      swap2\n      swap1\n      pop\n      jump\t// out\n        /* \"#utility.yul\":20109:20199   */\n    tag_372:\n      0x00\n        /* \"#utility.yul\":20186:20191   */\n      dup2\n        /* \"#utility.yul\":20179:20192   */\n      iszero\n        /* \"#utility.yul\":20172:20193   */\n      iszero\n        /* \"#utility.yul\":20161:20193   */\n      swap1\n      pop\n        /* \"#utility.yul\":20151:20199   */\n      swap2\n      swap1\n      pop\n      jump\t// out\n        /* \"#utility.yul\":20205:20331   */\n    tag_509:\n      0x00\n        /* \"#utility.yul\":20282:20324   */\n      0xffffffffffffffffffffffffffffffffffffffff\n        /* \"#utility.yul\":20275:20280   */\n      dup3\n        /* \"#utility.yul\":20271:20325   */\n      and\n        /* \"#utility.yul\":20260:20325   */\n      swap1\n      pop\n        /* \"#utility.yul\":20250:20331   */\n      swap2\n      swap1\n      pop\n      jump\t// out\n        /* \"#utility.yul\":20337:20414   */\n    tag_421:\n      0x00\n        /* \"#utility.yul\":20403:20408   */\n      dup2\n        /* \"#utility.yul\":20392:20408   */\n      swap1\n      pop\n        /* \"#utility.yul\":20382:20414   */\n      swap2\n      swap1\n      pop\n      jump\t// out\n        /* \"#utility.yul\":20420:20727   */\n    tag_380:\n        /* \"#utility.yul\":20488:20489   */\n      0x00\n        /* \"#utility.yul\":20498:20611   */\n    tag_514:\n        /* \"#utility.yul\":20512:20518   */\n      dup4\n        /* \"#utility.yul\":20509:20510   */\n      dup2\n        /* \"#utility.yul\":20506:20519   */\n      lt\n        /* \"#utility.yul\":20498:20611   */\n      iszero\n      tag_516\n      jumpi\n        /* \"#utility.yul\":20597:20598   */\n      dup1\n        /* \"#utility.yul\":20592:20595   */\n      dup3\n        /* \"#utility.yul\":20588:20599   */\n      add\n        /* \"#utility.yul\":20582:20600   */\n      mload\n        /* \"#utility.yul\":20578:20579   */\n      dup2\n        /* \"#utility.yul\":20573:20576   */\n      dup5\n        /* \"#utility.yul\":20569:20580   */\n      add\n        /* \"#utility.yul\":20562:20601   */\n      mstore\n        /* \"#utility.yul\":20534:20536   */\n      0x20\n        /* \"#utility.yul\":20531:20532   */\n      dup2\n        /* \"#utility.yul\":20527:20537   */\n      add\n        /* \"#utility.yul\":20522:20537   */\n      swap1\n      pop\n        /* \"#utility.yul\":20498:20611   */\n      jump(tag_514)\n    tag_516:\n        /* \"#utility.yul\":20629:20635   */\n      dup4\n        /* \"#utility.yul\":20626:20627   */\n      dup2\n        /* \"#utility.yul\":20623:20636   */\n      gt\n        /* \"#utility.yul\":20620:20622   */\n      iszero\n      tag_517\n      jumpi\n        /* \"#utility.yul\":20709:20710   */\n      0x00\n        /* \"#utility.yul\":20700:20706   */\n      dup5\n        /* \"#utility.yul\":20695:20698   */\n      dup5\n        /* \"#utility.yul\":20691:20707   */\n      add\n        /* \"#utility.yul\":20684:20711   */\n      mstore\n        /* \"#utility.yul\":20620:20622   */\n    tag_517:\n        /* \"#utility.yul\":20469:20727   */\n      pop\n      pop\n      pop\n      pop\n      jump\t// out\n        /* \"#utility.yul\":20733:20913   */\n    tag_490:\n        /* \"#utility.yul\":20781:20858   */\n      0x4e487b7100000000000000000000000000000000000000000000000000000000\n        /* \"#utility.yul\":20778:20779   */\n      0x00\n        /* \"#utility.yul\":20771:20859   */\n      mstore\n        /* \"#utility.yul\":20878:20882   */\n      0x11\n        /* \"#utility.yul\":20875:20876   */\n      0x04\n        /* \"#utility.yul\":20868:20883   */\n      mstore\n        /* \"#utility.yul\":20902:20906   */\n      0x24\n        /* \"#utility.yul\":20899:20900   */\n      0x00\n        /* \"#utility.yul\":20892:20907   */\n      revert\n        /* \"#utility.yul\":20919:21099   */\n    tag_496:\n        /* \"#utility.yul\":20967:21044   */\n      0x4e487b7100000000000000000000000000000000000000000000000000000000\n        /* \"#utility.yul\":20964:20965   */\n      0x00\n        /* \"#utility.yul\":20957:21045   */\n      mstore\n        /* \"#utility.yul\":21064:21068   */\n      0x12\n        /* \"#utility.yul\":21061:21062   */\n      0x04\n        /* \"#utility.yul\":21054:21069   */\n      mstore\n        /* \"#utility.yul\":21088:21092   */\n      0x24\n        /* \"#utility.yul\":21085:21086   */\n      0x00\n        /* \"#utility.yul\":21078:21093   */\n      revert\n        /* \"#utility.yul\":21105:21227   */\n    tag_317:\n        /* \"#utility.yul\":21178:21202   */\n      tag_521\n        /* \"#utility.yul\":21196:21201   */\n      dup2\n        /* \"#utility.yul\":21178:21202   */\n      tag_368\n      jump\t// in\n    tag_521:\n        /* \"#utility.yul\":21171:21176   */\n      dup2\n        /* \"#utility.yul\":21168:21203   */\n      eq\n        /* \"#utility.yul\":21158:21160   */\n      tag_522\n      jumpi\n        /* \"#utility.yul\":21217:21218   */\n      0x00\n        /* \"#utility.yul\":21214:21215   */\n      dup1\n        /* \"#utility.yul\":21207:21219   */\n      revert\n        /* \"#utility.yul\":21158:21160   */\n    tag_522:\n        /* \"#utility.yul\":21148:21227   */\n      pop\n      jump\t// out\n        /* \"#utility.yul\":21233:21349   */\n    tag_321:\n        /* \"#utility.yul\":21303:21324   */\n      tag_524\n        /* \"#utility.yul\":21318:21323   */\n      dup2\n        /* \"#utility.yul\":21303:21324   */\n      tag_372\n      jump\t// in\n    tag_524:\n        /* \"#utility.yul\":21296:21301   */\n      dup2\n        /* \"#utility.yul\":21293:21325   */\n      eq\n        /* \"#utility.yul\":21283:21285   */\n      tag_525\n      jumpi\n        /* \"#utility.yul\":21339:21340   */\n      0x00\n        /* \"#utility.yul\":21336:21337   */\n      dup1\n        /* \"#utility.yul\":21329:21341   */\n      revert\n        /* \"#utility.yul\":21283:21285   */\n    tag_525:\n        /* \"#utility.yul\":21273:21349   */\n      pop\n      jump\t// out\n        /* \"#utility.yul\":21355:21477   */\n    tag_325:\n        /* \"#utility.yul\":21428:21452   */\n      tag_527\n        /* \"#utility.yul\":21446:21451   */\n      dup2\n        /* \"#utility.yul\":21428:21452   */\n      tag_421\n      jump\t// in\n    tag_527:\n        /* \"#utility.yul\":21421:21426   */\n      dup2\n        /* \"#utility.yul\":21418:21453   */\n      eq\n        /* \"#utility.yul\":21408:21410   */\n      tag_528\n      jumpi\n        /* \"#utility.yul\":21467:21468   */\n      0x00\n        /* \"#utility.yul\":21464:21465   */\n      dup1\n        /* \"#utility.yul\":21457:21469   */\n      revert\n        /* \"#utility.yul\":21408:21410   */\n    tag_528:\n        /* \"#utility.yul\":21398:21477   */\n      pop\n      jump\t// out\n    stop\n    data_23b872dd7302113369cda2901243429419bec145408fa8b352b3dd92b66c680b 7472616e7366657246726f6d28616464726573732c616464726573732c75696e7432353629\n\n    auxdata: 0xa2646970667358221220e9acfde7ecff0e22c660b06eeadba942f5901d2a4158f1bb202fd718588a63ca64736f6c63430008000033\n}\n",
				"bytecode": {
					"linkReferences": {},
					"object": "608060405260006005553480156200001657600080fd5b506040516200292c3803806200292c83398181016040528101906200003c91906200015f565b336000806101000a81548173ffffffffffffffffffffffffffffffffffffffff021916908373ffffffffffffffffffffffffffffffffffffffff16021790555082600160006101000a81548173ffffffffffffffffffffffffffffffffffffffff021916908373ffffffffffffffffffffffffffffffffffffffff16021790555081600260006101000a81548173ffffffffffffffffffffffffffffffffffffffff021916908373ffffffffffffffffffffffffffffffffffffffff16021790555080600360006101000a81548173ffffffffffffffffffffffffffffffffffffffff021916908373ffffffffffffffffffffffffffffffffffffffff16021790555050505062000203565b6000815190506200015981620001e9565b92915050565b6000806000606084860312156200017557600080fd5b6000620001858682870162000148565b9350506020620001988682870162000148565b9250506040620001ab8682870162000148565b9150509250925092565b6000620001c282620001c9565b9050919050565b600073ffffffffffffffffffffffffffffffffffffffff82169050919050565b620001f481620001b5565b81146200020057600080fd5b50565b61271980620002136000396000f3fe608060405234801561001057600080fd5b50600436106100f55760003560e01c806377619ac511610097578063a0a986f111610066578063a0a986f114610278578063b4f40c6114610296578063d21220a7146102b4578063db5159a2146102d2576100f5565b806377619ac5146101ca5780637a836a5a146101fa5780638f402b561461022a5780639ba613a814610248576100f5565b8063443cb4bc116100d3578063443cb4bc146101545780635a76f25e146101725780636caf25ce1461019057806376f79738146101ae576100f5565b80630dfe1681146100fa57806318160ddd14610118578063313c06a014610136575b600080fd5b610102610302565b60405161010f9190612111565b60405180910390f35b610120610328565b60405161012d9190612449565b60405180910390f35b61013e61032e565b60405161014b9190612111565b60405180910390f35b61015c610354565b6040516101699190612449565b60405180910390f35b61017a61035a565b6040516101879190612449565b60405180910390f35b610198610360565b6040516101a59190612449565b60405180910390f35b6101c860048036038101906101c39190611b4c565b610366565b005b6101e460048036038101906101df9190611c9b565b6104b6565b6040516101f191906122ae565b60405180910390f35b610214600480360381019061020f9190611b10565b610a3a565b6040516102219190612449565b60405180910390f35b610232610bcd565b60405161023f9190612449565b60405180910390f35b610262600480360381019061025d9190611b9b565b610bd2565b60405161026f91906122ae565b60405180910390f35b610280610f79565b60405161028d9190612449565b60405180910390f35b61029e610f7f565b6040516102ab9190612449565b60405180910390f35b6102bc610f85565b6040516102c99190612111565b60405180910390f35b6102ec60048036038101906102e79190611c12565b610fab565b6040516102f991906122ae565b60405180910390f35b600160009054906101000a900473ffffffffffffffffffffffffffffffffffffffff1681565b600a5481565b600360009054906101000a900473ffffffffffffffffffffffffffffffffffffffff1681565b60065481565b60075481565b60095481565b60008054906101000a900473ffffffffffffffffffffffffffffffffffffffff1673ffffffffffffffffffffffffffffffffffffffff163373ffffffffffffffffffffffffffffffffffffffff16146103f4576040517f08c379a00000000000000000000000000000000000000000000000000000000081526004016103eb906123a9565b60405180910390fd5b82600160006101000a81548173ffffffffffffffffffffffffffffffffffffffff021916908373ffffffffffffffffffffffffffffffffffffffff16021790555081600260006101000a81548173ffffffffffffffffffffffffffffffffffffffff021916908373ffffffffffffffffffffffffffffffffffffffff1602179055507fa92a2b95c8d8436f6ac4c673c61487364f877efb9534d4296fad8ef904546c948383836040516104a99392919061212c565b60405180910390a1505050565b60008060006104c3611347565b91509150600160009054906101000a900473ffffffffffffffffffffffffffffffffffffffff1673ffffffffffffffffffffffffffffffffffffffff168773ffffffffffffffffffffffffffffffffffffffff161480156105715750600260009054906101000a900473ffffffffffffffffffffffffffffffffffffffff1673ffffffffffffffffffffffffffffffffffffffff168673ffffffffffffffffffffffffffffffffffffffff16145b6105b0576040517f08c379a00000000000000000000000000000000000000000000000000000000081526004016105a7906123c9565b60405180910390fd5b8385146105f2576040517f08c379a00000000000000000000000000000000000000000000000000000000081526004016105e990612329565b60405180910390fd5b6105fe87333088611358565b61060a86333087611358565b60008773ffffffffffffffffffffffffffffffffffffffff166370a08231306040518263ffffffff1660e01b81526004016106459190612111565b60206040518083038186803b15801561065d57600080fd5b505afa158015610671573d6000803e3d6000fd5b505050506040513d601f19601f820116820180604052508101906106959190611d27565b905060008773ffffffffffffffffffffffffffffffffffffffff166370a08231306040518263ffffffff1660e01b81526004016106d29190612111565b60206040518083038186803b1580156106ea57600080fd5b505afa1580156106fe573d6000803e3d6000fd5b505050506040513d601f19601f820116820180604052508101906107229190611d27565b9050600080600a5414156107e85761076660648584610741919061256c565b878661074d919061256c565b6107579190612512565b610761919061256c565b6114ce565b9050600081116107ab576040517f08c379a00000000000000000000000000000000000000000000000000000000081526004016107a290612389565b60405180910390fd5b6107d8600360009054906101000a900473ffffffffffffffffffffffffffffffffffffffff163383611548565b6107e28a8a610a3a565b506108ab565b61083885600a5487866107fb919061256c565b6108059190612512565b61080f91906124e1565b85600a54878661081f919061256c565b6108299190612512565b61083391906124e1565b6116d2565b90506000811161087d576040517f08c379a000000000000000000000000000000000000000000000000000000000815260040161087490612389565b60405180910390fd5b6108aa600360009054906101000a900473ffffffffffffffffffffffffffffffffffffffff163383611548565b5b80600a60008282546108bd919061248b565b9250508190555060008a73ffffffffffffffffffffffffffffffffffffffff166370a08231306040518263ffffffff1660e01b81526004016108ff9190612111565b60206040518083038186803b15801561091757600080fd5b505afa15801561092b573d6000803e3d6000fd5b505050506040513d601f19601f8201168201806040525081019061094f9190611d27565b905060008a73ffffffffffffffffffffffffffffffffffffffff166370a08231306040518263ffffffff1660e01b815260040161098c9190612111565b60206040518083038186803b1580156109a457600080fd5b505afa1580156109b8573d6000803e3d6000fd5b505050506040513d601f19601f820116820180604052508101906109dc9190611d27565b90506109ea8c8c84846116eb565b7fd2491a9b4fe81a7cd4511e8b7b7743951b061dad5bed7da8a7795b080ee08c7e8c8c8c8c604051610a1f94939291906121ed565b60405180910390a16001975050505050505050949350505050565b60008060055414610a80576040517f08c379a0000000000000000000000000000000000000000000000000000000008152600401610a77906122e9565b60405180910390fd5b60008373ffffffffffffffffffffffffffffffffffffffff166370a08231306040518263ffffffff1660e01b8152600401610abb9190612111565b60206040518083038186803b158015610ad357600080fd5b505afa158015610ae7573d6000803e3d6000fd5b505050506040513d601f19601f82011682018060405250810190610b0b9190611d27565b905060008373ffffffffffffffffffffffffffffffffffffffff166370a08231306040518263ffffffff1660e01b8152600401610b489190612111565b60206040518083038186803b158015610b6057600080fd5b505afa158015610b74573d6000803e3d6000fd5b505050506040513d601f19601f82011682018060405250810190610b989190611d27565b905060006005541415610bc0578082610bb19190612512565b60048190555060016005819055505b6004549250505092915050565b606481565b6000806000610bdf611347565b91509150600160009054906101000a900473ffffffffffffffffffffffffffffffffffffffff1673ffffffffffffffffffffffffffffffffffffffff168873ffffffffffffffffffffffffffffffffffffffff16148015610c8d5750600260009054906101000a900473ffffffffffffffffffffffffffffffffffffffff1673ffffffffffffffffffffffffffffffffffffffff168773ffffffffffffffffffffffffffffffffffffffff16145b610ccc576040517f08c379a0000000000000000000000000000000000000000000000000000000008152600401610cc3906123c9565b60405180910390fd5b6000851180610cdb5750600084115b610d1a576040517f08c379a0000000000000000000000000000000000000000000000000000000008152600401610d1190612349565b60405180910390fd5b8773ffffffffffffffffffffffffffffffffffffffff168673ffffffffffffffffffffffffffffffffffffffff1614158015610d8257508673ffffffffffffffffffffffffffffffffffffffff168673ffffffffffffffffffffffffffffffffffffffff1614155b610dc1576040517f08c379a0000000000000000000000000000000000000000000000000000000008152600401610db8906123c9565b60405180910390fd5b6000851115610de257610dd687333088611358565b610de18887876117fc565b5b6000841115610e0357610df788333087611358565b610e028787866117fc565b5b60008873ffffffffffffffffffffffffffffffffffffffff166370a08231306040518263ffffffff1660e01b8152600401610e3e9190612111565b60206040518083038186803b158015610e5657600080fd5b505afa158015610e6a573d6000803e3d6000fd5b505050506040513d601f19601f82011682018060405250810190610e8e9190611d27565b905060008873ffffffffffffffffffffffffffffffffffffffff166370a08231306040518263ffffffff1660e01b8152600401610ecb9190612111565b60206040518083038186803b158015610ee357600080fd5b505afa158015610ef7573d6000803e3d6000fd5b505050506040513d601f19601f82011682018060405250810190610f1b9190611d27565b9050610f298a8a84846116eb565b7fcd3829a3813dc3cdd188fd3d01dcf3268c16be2fdd2dd21d0665418816e460628a8a8a8a8a604051610f60959493929190612163565b60405180910390a1600194505050505095945050505050565b60085481565b60045481565b600260009054906101000a900473ffffffffffffffffffffffffffffffffffffffff1681565b6000806000610fb8611347565b91509150600160009054906101000a900473ffffffffffffffffffffffffffffffffffffffff1673ffffffffffffffffffffffffffffffffffffffff168973ffffffffffffffffffffffffffffffffffffffff161480156110665750600260009054906101000a900473ffffffffffffffffffffffffffffffffffffffff1673ffffffffffffffffffffffffffffffffffffffff168873ffffffffffffffffffffffffffffffffffffffff16145b6110a5576040517f08c379a000000000000000000000000000000000000000000000000000000000815260040161109c906123c9565b60405180910390fd5b8385146110e7576040517f08c379a00000000000000000000000000000000000000000000000000000000081526004016110de90612329565b60405180910390fd5b6000600a5483886110f89190612512565b61110291906124e1565b90506000600a5483896111159190612512565b61111f91906124e1565b90506000821180156111315750600081115b611170576040517f08c379a000000000000000000000000000000000000000000000000000000000815260040161116790612369565b60405180910390fd5b61119d600360009054906101000a900473ffffffffffffffffffffffffffffffffffffffff168a8a611932565b6111a98b308b85611358565b6111b58a308b84611358565b87600a60008282546111c7919061256c565b9250508190555060008b73ffffffffffffffffffffffffffffffffffffffff166370a08231306040518263ffffffff1660e01b81526004016112099190612111565b60206040518083038186803b15801561122157600080fd5b505afa158015611235573d6000803e3d6000fd5b505050506040513d601f19601f820116820180604052508101906112599190611d27565b905060008b73ffffffffffffffffffffffffffffffffffffffff166370a08231306040518263ffffffff1660e01b81526004016112969190612111565b60206040518083038186803b1580156112ae57600080fd5b505afa1580156112c2573d6000803e3d6000fd5b505050506040513d601f19601f820116820180604052508101906112e69190611d27565b90506112f48d8d84846116eb565b7f95b8fe9ba38a505097b9341887de8716d6f3f3ba79ef0ecc02f35ad6e30585d68d8d88888e60405161132b959493929190612232565b60405180910390a1600196505050505050509695505050505050565b600080600654915060075490509091565b60006040518060600160405280602581526020016126bf602591398051906020012090506000808673ffffffffffffffffffffffffffffffffffffffff16838787876040516024016113ac939291906121b6565b604051602081830303815290604052907bffffffffffffffffffffffffffffffffffffffffffffffffffffffff19166020820180517bffffffffffffffffffffffffffffffffffffffffffffffffffffffff838183161783525050505060405161141691906120fa565b6000604051808303816000865af19150503d8060008114611453576040519150601f19603f3d011682016040523d82523d6000602084013e611458565b606091505b509150915081801561148657506000815114806114855750808060200190518101906114849190611cfe565b5b5b6114c5576040517f08c379a00000000000000000000000000000000000000000000000000000000081526004016114bc90612309565b60405180910390fd5b50505050505050565b6000600382111561153557819050600060016002846114ed91906124e1565b6114f7919061248b565b90505b8181101561152f57809150600281828561151491906124e1565b61151e919061248b565b61152891906124e1565b90506114fa565b50611543565b6000821461154257600190505b5b919050565b6000808473ffffffffffffffffffffffffffffffffffffffff166040518060400160405280601581526020017f6d696e7428616464726573732c75696e743235362900000000000000000000008152508051906020012085856040516024016115b2929190612285565b604051602081830303815290604052907bffffffffffffffffffffffffffffffffffffffffffffffffffffffff19166020820180517bffffffffffffffffffffffffffffffffffffffffffffffffffffffff838183161783525050505060405161161c91906120fa565b6000604051808303816000865af19150503d8060008114611659576040519150601f19603f3d011682016040523d82523d6000602084013e61165e565b606091505b509150915081801561168c575060008151148061168b57508080602001905181019061168a9190611cfe565b5b5b6116cb576040517f08c379a00000000000000000000000000000000000000000000000000000000081526004016116c2906123e9565b60405180910390fd5b5050505050565b60008183106116e157816116e3565b825b905092915050565b600082101580156116fd575060008110155b61173c576040517f08c379a0000000000000000000000000000000000000000000000000000000008152600401611733906122c9565b60405180910390fd5b6000821415801561174e575060008114155b15611780578060045461176191906124e1565b6008819055508160045461177591906124e1565b6009819055506117a7565b6000821480156117905750600081145b156117a657600060088190555060006009819055505b5b81600681905550806007819055507fd4bde8444971b7416b5f51c90f544d2fe2d0c1edddd83bd5fe8646179341dc9984846006546007546040516117ee94939291906121ed565b60405180910390a150505050565b6000808473ffffffffffffffffffffffffffffffffffffffff1663a9059cbb858560405160240161182e929190612285565b6040516020818303038152906040529060e01b6020820180517bffffffffffffffffffffffffffffffffffffffffffffffffffffffff838183161783525050505060405161187c91906120fa565b6000604051808303816000865af19150503d80600081146118b9576040519150601f19603f3d011682016040523d82523d6000602084013e6118be565b606091505b50915091508180156118ec57506000815114806118eb5750808060200190518101906118ea9190611cfe565b5b5b61192b576040517f08c379a000000000000000000000000000000000000000000000000000000000815260040161192290612409565b60405180910390fd5b5050505050565b6000808473ffffffffffffffffffffffffffffffffffffffff166040518060400160405280601581526020017f6275726e28616464726573732c75696e7432353629000000000000000000000081525080519060200120858560405160240161199c929190612285565b604051602081830303815290604052907bffffffffffffffffffffffffffffffffffffffffffffffffffffffff19166020820180517bffffffffffffffffffffffffffffffffffffffffffffffffffffffff8381831617835250505050604051611a0691906120fa565b6000604051808303816000865af19150503d8060008114611a43576040519150601f19603f3d011682016040523d82523d6000602084013e611a48565b606091505b5091509150818015611a765750600081511480611a75575080806020019051810190611a749190611cfe565b5b5b611ab5576040517f08c379a0000000000000000000000000000000000000000000000000000000008152600401611aac90612429565b60405180910390fd5b5050505050565b600081359050611acb81612679565b92915050565b600081519050611ae081612690565b92915050565b600081359050611af5816126a7565b92915050565b600081519050611b0a816126a7565b92915050565b60008060408385031215611b2357600080fd5b6000611b3185828601611abc565b9250506020611b4285828601611abc565b9150509250929050565b600080600060608486031215611b6157600080fd5b6000611b6f86828701611abc565b9350506020611b8086828701611abc565b9250506040611b9186828701611abc565b9150509250925092565b600080600080600060a08688031215611bb357600080fd5b6000611bc188828901611abc565b9550506020611bd288828901611abc565b9450506040611be388828901611abc565b9350506060611bf488828901611ae6565b9250506080611c0588828901611ae6565b9150509295509295909350565b60008060008060008060c08789031215611c2b57600080fd5b6000611c3989828a01611abc565b9650506020611c4a89828a01611abc565b9550506040611c5b89828a01611abc565b9450506060611c6c89828a01611ae6565b9350506080611c7d89828a01611ae6565b92505060a0611c8e89828a01611ae6565b9150509295509295509295565b60008060008060808587031215611cb157600080fd5b6000611cbf87828801611abc565b9450506020611cd087828801611abc565b9350506040611ce187828801611ae6565b9250506060611cf287828801611ae6565b91505092959194509250565b600060208284031215611d1057600080fd5b6000611d1e84828501611ad1565b91505092915050565b600060208284031215611d3957600080fd5b6000611d4784828501611afb565b91505092915050565b611d59816125a0565b82525050565b611d68816125b2565b82525050565b6000611d7982612464565b611d83818561246f565b9350611d938185602086016125e8565b80840191505092915050565b6000611dac60088361247a565b91507f30206e756d6265720000000000000000000000000000000000000000000000006000830152602082019050919050565b6000611dec60068361247a565b91507f4c6f636b656400000000000000000000000000000000000000000000000000006000830152602082019050919050565b6000611e2c60318361247a565b91507f5472616e7366657248656c7065723a3a7472616e7366657246726f6d3a20747260008301527f616e7366657246726f6d206661696c65640000000000000000000000000000006020830152604082019050919050565b6000611e9260098361247a565b91507f4e6f7420657175616c00000000000000000000000000000000000000000000006000830152602082019050919050565b6000611ed2600b8361247a565b91507f5a65726f20616d6f756e740000000000000000000000000000000000000000006000830152602082019050919050565b6000611f12600c8361247a565b91507f4d696e757320616d6f756e7400000000000000000000000000000000000000006000830152602082019050919050565b6000611f52600f8361247a565b91507f4d696e7573206c697175696469747900000000000000000000000000000000006000830152602082019050919050565b6000611f9260098361247a565b91507f4e6f74206f776e657200000000000000000000000000000000000000000000006000830152602082019050919050565b6000611fd260108361247a565b91507f4e6f7420757365642061646472657373000000000000000000000000000000006000830152602082019050919050565b6000612012600b8361247a565b91507f4641494c4544204d696e740000000000000000000000000000000000000000006000830152602082019050919050565b6000612052602d8361247a565b91507f5472616e7366657248656c7065723a3a736166655472616e736665723a20747260008301527f616e73666572206661696c6564000000000000000000000000000000000000006020830152604082019050919050565b60006120b8600b8361247a565b91507f4641494c4544204275726e0000000000000000000000000000000000000000006000830152602082019050919050565b6120f4816125de565b82525050565b60006121068284611d6e565b915081905092915050565b60006020820190506121266000830184611d50565b92915050565b60006060820190506121416000830186611d50565b61214e6020830185611d50565b61215b6040830184611d50565b949350505050565b600060a0820190506121786000830188611d50565b6121856020830187611d50565b6121926040830186611d50565b61219f60608301856120eb565b6121ac60808301846120eb565b9695505050505050565b60006060820190506121cb6000830186611d50565b6121d86020830185611d50565b6121e560408301846120eb565b949350505050565b60006080820190506122026000830187611d50565b61220f6020830186611d50565b61221c60408301856120eb565b61222960608301846120eb565b95945050505050565b600060a0820190506122476000830188611d50565b6122546020830187611d50565b61226160408301866120eb565b61226e60608301856120eb565b61227b60808301846120eb565b9695505050505050565b600060408201905061229a6000830185611d50565b6122a760208301846120eb565b9392505050565b60006020820190506122c36000830184611d5f565b92915050565b600060208201905081810360008301526122e281611d9f565b9050919050565b6000602082019050818103600083015261230281611ddf565b9050919050565b6000602082019050818103600083015261232281611e1f565b9050919050565b6000602082019050818103600083015261234281611e85565b9050919050565b6000602082019050818103600083015261236281611ec5565b9050919050565b6000602082019050818103600083015261238281611f05565b9050919050565b600060208201905081810360008301526123a281611f45565b9050919050565b600060208201905081810360008301526123c281611f85565b9050919050565b600060208201905081810360008301526123e281611fc5565b9050919050565b6000602082019050818103600083015261240281612005565b9050919050565b6000602082019050818103600083015261242281612045565b9050919050565b60006020820190508181036000830152612442816120ab565b9050919050565b600060208201905061245e60008301846120eb565b92915050565b600081519050919050565b600081905092915050565b600082825260208201905092915050565b6000612496826125de565b91506124a1836125de565b9250827fffffffffffffffffffffffffffffffffffffffffffffffffffffffffffffffff038211156124d6576124d561261b565b5b828201905092915050565b60006124ec826125de565b91506124f7836125de565b9250826125075761250661264a565b5b828204905092915050565b600061251d826125de565b9150612528836125de565b9250817fffffffffffffffffffffffffffffffffffffffffffffffffffffffffffffffff04831182151516156125615761256061261b565b5b828202905092915050565b6000612577826125de565b9150612582836125de565b9250828210156125955761259461261b565b5b828203905092915050565b60006125ab826125be565b9050919050565b60008115159050919050565b600073ffffffffffffffffffffffffffffffffffffffff82169050919050565b6000819050919050565b60005b838110156126065780820151818401526020810190506125eb565b83811115612615576000848401525b50505050565b7f4e487b7100000000000000000000000000000000000000000000000000000000600052601160045260246000fd5b7f4e487b7100000000000000000000000000000000000000000000000000000000600052601260045260246000fd5b612682816125a0565b811461268d57600080fd5b50565b612699816125b2565b81146126a457600080fd5b50565b6126b0816125de565b81146126bb57600080fd5b5056fe7472616e7366657246726f6d28616464726573732c616464726573732c75696e7432353629a2646970667358221220e9acfde7ecff0e22c660b06eeadba942f5901d2a4158f1bb202fd718588a63ca64736f6c63430008000033",
					"opcodes": "PUSH1 0x80 PUSH1 0x40 MSTORE PUSH1 0x0 PUSH1 0x5 SSTORE CALLVALUE DUP1 ISZERO PUSH3 0x16 JUMPI PUSH1 0x0 DUP1 REVERT JUMPDEST POP PUSH1 0x40 MLOAD PUSH3 0x292C CODESIZE SUB DUP1 PUSH3 0x292C DUP4 CODECOPY DUP2 DUP2 ADD PUSH1 0x40 MSTORE DUP2 ADD SWAP1 PUSH3 0x3C SWAP2 SWAP1 PUSH3 0x15F JUMP JUMPDEST CALLER PUSH1 0x0 DUP1 PUSH2 0x100 EXP DUP2 SLOAD DUP2 PUSH20 0xFFFFFFFFFFFFFFFFFFFFFFFFFFFFFFFFFFFFFFFF MUL NOT AND SWAP1 DUP4 PUSH20 0xFFFFFFFFFFFFFFFFFFFFFFFFFFFFFFFFFFFFFFFF AND MUL OR SWAP1 SSTORE POP DUP3 PUSH1 0x1 PUSH1 0x0 PUSH2 0x100 EXP DUP2 SLOAD DUP2 PUSH20 0xFFFFFFFFFFFFFFFFFFFFFFFFFFFFFFFFFFFFFFFF MUL NOT AND SWAP1 DUP4 PUSH20 0xFFFFFFFFFFFFFFFFFFFFFFFFFFFFFFFFFFFFFFFF AND MUL OR SWAP1 SSTORE POP DUP2 PUSH1 0x2 PUSH1 0x0 PUSH2 0x100 EXP DUP2 SLOAD DUP2 PUSH20 0xFFFFFFFFFFFFFFFFFFFFFFFFFFFFFFFFFFFFFFFF MUL NOT AND SWAP1 DUP4 PUSH20 0xFFFFFFFFFFFFFFFFFFFFFFFFFFFFFFFFFFFFFFFF AND MUL OR SWAP1 SSTORE POP DUP1 PUSH1 0x3 PUSH1 0x0 PUSH2 0x100 EXP DUP2 SLOAD DUP2 PUSH20 0xFFFFFFFFFFFFFFFFFFFFFFFFFFFFFFFFFFFFFFFF MUL NOT AND SWAP1 DUP4 PUSH20 0xFFFFFFFFFFFFFFFFFFFFFFFFFFFFFFFFFFFFFFFF AND MUL OR SWAP1 SSTORE POP POP POP POP PUSH3 0x203 JUMP JUMPDEST PUSH1 0x0 DUP2 MLOAD SWAP1 POP PUSH3 0x159 DUP2 PUSH3 0x1E9 JUMP JUMPDEST SWAP3 SWAP2 POP POP JUMP JUMPDEST PUSH1 0x0 DUP1 PUSH1 0x0 PUSH1 0x60 DUP5 DUP7 SUB SLT ISZERO PUSH3 0x175 JUMPI PUSH1 0x0 DUP1 REVERT JUMPDEST PUSH1 0x0 PUSH3 0x185 DUP7 DUP3 DUP8 ADD PUSH3 0x148 JUMP JUMPDEST SWAP4 POP POP PUSH1 0x20 PUSH3 0x198 DUP7 DUP3 DUP8 ADD PUSH3 0x148 JUMP JUMPDEST SWAP3 POP POP PUSH1 0x40 PUSH3 0x1AB DUP7 DUP3 DUP8 ADD PUSH3 0x148 JUMP JUMPDEST SWAP2 POP POP SWAP3 POP SWAP3 POP SWAP3 JUMP JUMPDEST PUSH1 0x0 PUSH3 0x1C2 DUP3 PUSH3 0x1C9 JUMP JUMPDEST SWAP1 POP SWAP2 SWAP1 POP JUMP JUMPDEST PUSH1 0x0 PUSH20 0xFFFFFFFFFFFFFFFFFFFFFFFFFFFFFFFFFFFFFFFF DUP3 AND SWAP1 POP SWAP2 SWAP1 POP JUMP JUMPDEST PUSH3 0x1F4 DUP2 PUSH3 0x1B5 JUMP JUMPDEST DUP2 EQ PUSH3 0x200 JUMPI PUSH1 0x0 DUP1 REVERT JUMPDEST POP JUMP JUMPDEST PUSH2 0x2719 DUP1 PUSH3 0x213 PUSH1 0x0 CODECOPY PUSH1 0x0 RETURN INVALID PUSH1 0x80 PUSH1 0x40 MSTORE CALLVALUE DUP1 ISZERO PUSH2 0x10 JUMPI PUSH1 0x0 DUP1 REVERT JUMPDEST POP PUSH1 0x4 CALLDATASIZE LT PUSH2 0xF5 JUMPI PUSH1 0x0 CALLDATALOAD PUSH1 0xE0 SHR DUP1 PUSH4 0x77619AC5 GT PUSH2 0x97 JUMPI DUP1 PUSH4 0xA0A986F1 GT PUSH2 0x66 JUMPI DUP1 PUSH4 0xA0A986F1 EQ PUSH2 0x278 JUMPI DUP1 PUSH4 0xB4F40C61 EQ PUSH2 0x296 JUMPI DUP1 PUSH4 0xD21220A7 EQ PUSH2 0x2B4 JUMPI DUP1 PUSH4 0xDB5159A2 EQ PUSH2 0x2D2 JUMPI PUSH2 0xF5 JUMP JUMPDEST DUP1 PUSH4 0x77619AC5 EQ PUSH2 0x1CA JUMPI DUP1 PUSH4 0x7A836A5A EQ PUSH2 0x1FA JUMPI DUP1 PUSH4 0x8F402B56 EQ PUSH2 0x22A JUMPI DUP1 PUSH4 0x9BA613A8 EQ PUSH2 0x248 JUMPI PUSH2 0xF5 JUMP JUMPDEST DUP1 PUSH4 0x443CB4BC GT PUSH2 0xD3 JUMPI DUP1 PUSH4 0x443CB4BC EQ PUSH2 0x154 JUMPI DUP1 PUSH4 0x5A76F25E EQ PUSH2 0x172 JUMPI DUP1 PUSH4 0x6CAF25CE EQ PUSH2 0x190 JUMPI DUP1 PUSH4 0x76F79738 EQ PUSH2 0x1AE JUMPI PUSH2 0xF5 JUMP JUMPDEST DUP1 PUSH4 0xDFE1681 EQ PUSH2 0xFA JUMPI DUP1 PUSH4 0x18160DDD EQ PUSH2 0x118 JUMPI DUP1 PUSH4 0x313C06A0 EQ PUSH2 0x136 JUMPI JUMPDEST PUSH1 0x0 DUP1 REVERT JUMPDEST PUSH2 0x102 PUSH2 0x302 JUMP JUMPDEST PUSH1 0x40 MLOAD PUSH2 0x10F SWAP2 SWAP1 PUSH2 0x2111 JUMP JUMPDEST PUSH1 0x40 MLOAD DUP1 SWAP2 SUB SWAP1 RETURN JUMPDEST PUSH2 0x120 PUSH2 0x328 JUMP JUMPDEST PUSH1 0x40 MLOAD PUSH2 0x12D SWAP2 SWAP1 PUSH2 0x2449 JUMP JUMPDEST PUSH1 0x40 MLOAD DUP1 SWAP2 SUB SWAP1 RETURN JUMPDEST PUSH2 0x13E PUSH2 0x32E JUMP JUMPDEST PUSH1 0x40 MLOAD PUSH2 0x14B SWAP2 SWAP1 PUSH2 0x2111 JUMP JUMPDEST PUSH1 0x40 MLOAD DUP1 SWAP2 SUB SWAP1 RETURN JUMPDEST PUSH2 0x15C PUSH2 0x354 JUMP JUMPDEST PUSH1 0x40 MLOAD PUSH2 0x169 SWAP2 SWAP1 PUSH2 0x2449 JUMP JUMPDEST PUSH1 0x40 MLOAD DUP1 SWAP2 SUB SWAP1 RETURN JUMPDEST PUSH2 0x17A PUSH2 0x35A JUMP JUMPDEST PUSH1 0x40 MLOAD PUSH2 0x187 SWAP2 SWAP1 PUSH2 0x2449 JUMP JUMPDEST PUSH1 0x40 MLOAD DUP1 SWAP2 SUB SWAP1 RETURN JUMPDEST PUSH2 0x198 PUSH2 0x360 JUMP JUMPDEST PUSH1 0x40 MLOAD PUSH2 0x1A5 SWAP2 SWAP1 PUSH2 0x2449 JUMP JUMPDEST PUSH1 0x40 MLOAD DUP1 SWAP2 SUB SWAP1 RETURN JUMPDEST PUSH2 0x1C8 PUSH1 0x4 DUP1 CALLDATASIZE SUB DUP2 ADD SWAP1 PUSH2 0x1C3 SWAP2 SWAP1 PUSH2 0x1B4C JUMP JUMPDEST PUSH2 0x366 JUMP JUMPDEST STOP JUMPDEST PUSH2 0x1E4 PUSH1 0x4 DUP1 CALLDATASIZE SUB DUP2 ADD SWAP1 PUSH2 0x1DF SWAP2 SWAP1 PUSH2 0x1C9B JUMP JUMPDEST PUSH2 0x4B6 JUMP JUMPDEST PUSH1 0x40 MLOAD PUSH2 0x1F1 SWAP2 SWAP1 PUSH2 0x22AE JUMP JUMPDEST PUSH1 0x40 MLOAD DUP1 SWAP2 SUB SWAP1 RETURN JUMPDEST PUSH2 0x214 PUSH1 0x4 DUP1 CALLDATASIZE SUB DUP2 ADD SWAP1 PUSH2 0x20F SWAP2 SWAP1 PUSH2 0x1B10 JUMP JUMPDEST PUSH2 0xA3A JUMP JUMPDEST PUSH1 0x40 MLOAD PUSH2 0x221 SWAP2 SWAP1 PUSH2 0x2449 JUMP JUMPDEST PUSH1 0x40 MLOAD DUP1 SWAP2 SUB SWAP1 RETURN JUMPDEST PUSH2 0x232 PUSH2 0xBCD JUMP JUMPDEST PUSH1 0x40 MLOAD PUSH2 0x23F SWAP2 SWAP1 PUSH2 0x2449 JUMP JUMPDEST PUSH1 0x40 MLOAD DUP1 SWAP2 SUB SWAP1 RETURN JUMPDEST PUSH2 0x262 PUSH1 0x4 DUP1 CALLDATASIZE SUB DUP2 ADD SWAP1 PUSH2 0x25D SWAP2 SWAP1 PUSH2 0x1B9B JUMP JUMPDEST PUSH2 0xBD2 JUMP JUMPDEST PUSH1 0x40 MLOAD PUSH2 0x26F SWAP2 SWAP1 PUSH2 0x22AE JUMP JUMPDEST PUSH1 0x40 MLOAD DUP1 SWAP2 SUB SWAP1 RETURN JUMPDEST PUSH2 0x280 PUSH2 0xF79 JUMP JUMPDEST PUSH1 0x40 MLOAD PUSH2 0x28D SWAP2 SWAP1 PUSH2 0x2449 JUMP JUMPDEST PUSH1 0x40 MLOAD DUP1 SWAP2 SUB SWAP1 RETURN JUMPDEST PUSH2 0x29E PUSH2 0xF7F JUMP JUMPDEST PUSH1 0x40 MLOAD PUSH2 0x2AB SWAP2 SWAP1 PUSH2 0x2449 JUMP JUMPDEST PUSH1 0x40 MLOAD DUP1 SWAP2 SUB SWAP1 RETURN JUMPDEST PUSH2 0x2BC PUSH2 0xF85 JUMP JUMPDEST PUSH1 0x40 MLOAD PUSH2 0x2C9 SWAP2 SWAP1 PUSH2 0x2111 JUMP JUMPDEST PUSH1 0x40 MLOAD DUP1 SWAP2 SUB SWAP1 RETURN JUMPDEST PUSH2 0x2EC PUSH1 0x4 DUP1 CALLDATASIZE SUB DUP2 ADD SWAP1 PUSH2 0x2E7 SWAP2 SWAP1 PUSH2 0x1C12 JUMP JUMPDEST PUSH2 0xFAB JUMP JUMPDEST PUSH1 0x40 MLOAD PUSH2 0x2F9 SWAP2 SWAP1 PUSH2 0x22AE JUMP JUMPDEST PUSH1 0x40 MLOAD DUP1 SWAP2 SUB SWAP1 RETURN JUMPDEST PUSH1 0x1 PUSH1 0x0 SWAP1 SLOAD SWAP1 PUSH2 0x100 EXP SWAP1 DIV PUSH20 0xFFFFFFFFFFFFFFFFFFFFFFFFFFFFFFFFFFFFFFFF AND DUP2 JUMP JUMPDEST PUSH1 0xA SLOAD DUP2 JUMP JUMPDEST PUSH1 0x3 PUSH1 0x0 SWAP1 SLOAD SWAP1 PUSH2 0x100 EXP SWAP1 DIV PUSH20 0xFFFFFFFFFFFFFFFFFFFFFFFFFFFFFFFFFFFFFFFF AND DUP2 JUMP JUMPDEST PUSH1 0x6 SLOAD DUP2 JUMP JUMPDEST PUSH1 0x7 SLOAD DUP2 JUMP JUMPDEST PUSH1 0x9 SLOAD DUP2 JUMP JUMPDEST PUSH1 0x0 DUP1 SLOAD SWAP1 PUSH2 0x100 EXP SWAP1 DIV PUSH20 0xFFFFFFFFFFFFFFFFFFFFFFFFFFFFFFFFFFFFFFFF AND PUSH20 0xFFFFFFFFFFFFFFFFFFFFFFFFFFFFFFFFFFFFFFFF AND CALLER PUSH20 0xFFFFFFFFFFFFFFFFFFFFFFFFFFFFFFFFFFFFFFFF AND EQ PUSH2 0x3F4 JUMPI PUSH1 0x40 MLOAD PUSH32 0x8C379A000000000000000000000000000000000000000000000000000000000 DUP2 MSTORE PUSH1 0x4 ADD PUSH2 0x3EB SWAP1 PUSH2 0x23A9 JUMP JUMPDEST PUSH1 0x40 MLOAD DUP1 SWAP2 SUB SWAP1 REVERT JUMPDEST DUP3 PUSH1 0x1 PUSH1 0x0 PUSH2 0x100 EXP DUP2 SLOAD DUP2 PUSH20 0xFFFFFFFFFFFFFFFFFFFFFFFFFFFFFFFFFFFFFFFF MUL NOT AND SWAP1 DUP4 PUSH20 0xFFFFFFFFFFFFFFFFFFFFFFFFFFFFFFFFFFFFFFFF AND MUL OR SWAP1 SSTORE POP DUP2 PUSH1 0x2 PUSH1 0x0 PUSH2 0x100 EXP DUP2 SLOAD DUP2 PUSH20 0xFFFFFFFFFFFFFFFFFFFFFFFFFFFFFFFFFFFFFFFF MUL NOT AND SWAP1 DUP4 PUSH20 0xFFFFFFFFFFFFFFFFFFFFFFFFFFFFFFFFFFFFFFFF AND MUL OR SWAP1 SSTORE POP PUSH32 0xA92A2B95C8D8436F6AC4C673C61487364F877EFB9534D4296FAD8EF904546C94 DUP4 DUP4 DUP4 PUSH1 0x40 MLOAD PUSH2 0x4A9 SWAP4 SWAP3 SWAP2 SWAP1 PUSH2 0x212C JUMP JUMPDEST PUSH1 0x40 MLOAD DUP1 SWAP2 SUB SWAP1 LOG1 POP POP POP JUMP JUMPDEST PUSH1 0x0 DUP1 PUSH1 0x0 PUSH2 0x4C3 PUSH2 0x1347 JUMP JUMPDEST SWAP2 POP SWAP2 POP PUSH1 0x1 PUSH1 0x0 SWAP1 SLOAD SWAP1 PUSH2 0x100 EXP SWAP1 DIV PUSH20 0xFFFFFFFFFFFFFFFFFFFFFFFFFFFFFFFFFFFFFFFF AND PUSH20 0xFFFFFFFFFFFFFFFFFFFFFFFFFFFFFFFFFFFFFFFF AND DUP8 PUSH20 0xFFFFFFFFFFFFFFFFFFFFFFFFFFFFFFFFFFFFFFFF AND EQ DUP1 ISZERO PUSH2 0x571 JUMPI POP PUSH1 0x2 PUSH1 0x0 SWAP1 SLOAD SWAP1 PUSH2 0x100 EXP SWAP1 DIV PUSH20 0xFFFFFFFFFFFFFFFFFFFFFFFFFFFFFFFFFFFFFFFF AND PUSH20 0xFFFFFFFFFFFFFFFFFFFFFFFFFFFFFFFFFFFFFFFF AND DUP7 PUSH20 0xFFFFFFFFFFFFFFFFFFFFFFFFFFFFFFFFFFFFFFFF AND EQ JUMPDEST PUSH2 0x5B0 JUMPI PUSH1 0x40 MLOAD PUSH32 0x8C379A000000000000000000000000000000000000000000000000000000000 DUP2 MSTORE PUSH1 0x4 ADD PUSH2 0x5A7 SWAP1 PUSH2 0x23C9 JUMP JUMPDEST PUSH1 0x40 MLOAD DUP1 SWAP2 SUB SWAP1 REVERT JUMPDEST DUP4 DUP6 EQ PUSH2 0x5F2 JUMPI PUSH1 0x40 MLOAD PUSH32 0x8C379A000000000000000000000000000000000000000000000000000000000 DUP2 MSTORE PUSH1 0x4 ADD PUSH2 0x5E9 SWAP1 PUSH2 0x2329 JUMP JUMPDEST PUSH1 0x40 MLOAD DUP1 SWAP2 SUB SWAP1 REVERT JUMPDEST PUSH2 0x5FE DUP8 CALLER ADDRESS DUP9 PUSH2 0x1358 JUMP JUMPDEST PUSH2 0x60A DUP7 CALLER ADDRESS DUP8 PUSH2 0x1358 JUMP JUMPDEST PUSH1 0x0 DUP8 PUSH20 0xFFFFFFFFFFFFFFFFFFFFFFFFFFFFFFFFFFFFFFFF AND PUSH4 0x70A08231 ADDRESS PUSH1 0x40 MLOAD DUP3 PUSH4 0xFFFFFFFF AND PUSH1 0xE0 SHL DUP2 MSTORE PUSH1 0x4 ADD PUSH2 0x645 SWAP2 SWAP1 PUSH2 0x2111 JUMP JUMPDEST PUSH1 0x20 PUSH1 0x40 MLOAD DUP1 DUP4 SUB DUP2 DUP7 DUP1 EXTCODESIZE ISZERO DUP1 ISZERO PUSH2 0x65D JUMPI PUSH1 0x0 DUP1 REVERT JUMPDEST POP GAS STATICCALL ISZERO DUP1 ISZERO PUSH2 0x671 JUMPI RETURNDATASIZE PUSH1 0x0 DUP1 RETURNDATACOPY RETURNDATASIZE PUSH1 0x0 REVERT JUMPDEST POP POP POP POP PUSH1 0x40 MLOAD RETURNDATASIZE PUSH1 0x1F NOT PUSH1 0x1F DUP3 ADD AND DUP3 ADD DUP1 PUSH1 0x40 MSTORE POP DUP2 ADD SWAP1 PUSH2 0x695 SWAP2 SWAP1 PUSH2 0x1D27 JUMP JUMPDEST SWAP1 POP PUSH1 0x0 DUP8 PUSH20 0xFFFFFFFFFFFFFFFFFFFFFFFFFFFFFFFFFFFFFFFF AND PUSH4 0x70A08231 ADDRESS PUSH1 0x40 MLOAD DUP3 PUSH4 0xFFFFFFFF AND PUSH1 0xE0 SHL DUP2 MSTORE PUSH1 0x4 ADD PUSH2 0x6D2 SWAP2 SWAP1 PUSH2 0x2111 JUMP JUMPDEST PUSH1 0x20 PUSH1 0x40 MLOAD DUP1 DUP4 SUB DUP2 DUP7 DUP1 EXTCODESIZE ISZERO DUP1 ISZERO PUSH2 0x6EA JUMPI PUSH1 0x0 DUP1 REVERT JUMPDEST POP GAS STATICCALL ISZERO DUP1 ISZERO PUSH2 0x6FE JUMPI RETURNDATASIZE PUSH1 0x0 DUP1 RETURNDATACOPY RETURNDATASIZE PUSH1 0x0 REVERT JUMPDEST POP POP POP POP PUSH1 0x40 MLOAD RETURNDATASIZE PUSH1 0x1F NOT PUSH1 0x1F DUP3 ADD AND DUP3 ADD DUP1 PUSH1 0x40 MSTORE POP DUP2 ADD SWAP1 PUSH2 0x722 SWAP2 SWAP1 PUSH2 0x1D27 JUMP JUMPDEST SWAP1 POP PUSH1 0x0 DUP1 PUSH1 0xA SLOAD EQ ISZERO PUSH2 0x7E8 JUMPI PUSH2 0x766 PUSH1 0x64 DUP6 DUP5 PUSH2 0x741 SWAP2 SWAP1 PUSH2 0x256C JUMP JUMPDEST DUP8 DUP7 PUSH2 0x74D SWAP2 SWAP1 PUSH2 0x256C JUMP JUMPDEST PUSH2 0x757 SWAP2 SWAP1 PUSH2 0x2512 JUMP JUMPDEST PUSH2 0x761 SWAP2 SWAP1 PUSH2 0x256C JUMP JUMPDEST PUSH2 0x14CE JUMP JUMPDEST SWAP1 POP PUSH1 0x0 DUP2 GT PUSH2 0x7AB JUMPI PUSH1 0x40 MLOAD PUSH32 0x8C379A000000000000000000000000000000000000000000000000000000000 DUP2 MSTORE PUSH1 0x4 ADD PUSH2 0x7A2 SWAP1 PUSH2 0x2389 JUMP JUMPDEST PUSH1 0x40 MLOAD DUP1 SWAP2 SUB SWAP1 REVERT JUMPDEST PUSH2 0x7D8 PUSH1 0x3 PUSH1 0x0 SWAP1 SLOAD SWAP1 PUSH2 0x100 EXP SWAP1 DIV PUSH20 0xFFFFFFFFFFFFFFFFFFFFFFFFFFFFFFFFFFFFFFFF AND CALLER DUP4 PUSH2 0x1548 JUMP JUMPDEST PUSH2 0x7E2 DUP11 DUP11 PUSH2 0xA3A JUMP JUMPDEST POP PUSH2 0x8AB JUMP JUMPDEST PUSH2 0x838 DUP6 PUSH1 0xA SLOAD DUP8 DUP7 PUSH2 0x7FB SWAP2 SWAP1 PUSH2 0x256C JUMP JUMPDEST PUSH2 0x805 SWAP2 SWAP1 PUSH2 0x2512 JUMP JUMPDEST PUSH2 0x80F SWAP2 SWAP1 PUSH2 0x24E1 JUMP JUMPDEST DUP6 PUSH1 0xA SLOAD DUP8 DUP7 PUSH2 0x81F SWAP2 SWAP1 PUSH2 0x256C JUMP JUMPDEST PUSH2 0x829 SWAP2 SWAP1 PUSH2 0x2512 JUMP JUMPDEST PUSH2 0x833 SWAP2 SWAP1 PUSH2 0x24E1 JUMP JUMPDEST PUSH2 0x16D2 JUMP JUMPDEST SWAP1 POP PUSH1 0x0 DUP2 GT PUSH2 0x87D JUMPI PUSH1 0x40 MLOAD PUSH32 0x8C379A000000000000000000000000000000000000000000000000000000000 DUP2 MSTORE PUSH1 0x4 ADD PUSH2 0x874 SWAP1 PUSH2 0x2389 JUMP JUMPDEST PUSH1 0x40 MLOAD DUP1 SWAP2 SUB SWAP1 REVERT JUMPDEST PUSH2 0x8AA PUSH1 0x3 PUSH1 0x0 SWAP1 SLOAD SWAP1 PUSH2 0x100 EXP SWAP1 DIV PUSH20 0xFFFFFFFFFFFFFFFFFFFFFFFFFFFFFFFFFFFFFFFF AND CALLER DUP4 PUSH2 0x1548 JUMP JUMPDEST JUMPDEST DUP1 PUSH1 0xA PUSH1 0x0 DUP3 DUP3 SLOAD PUSH2 0x8BD SWAP2 SWAP1 PUSH2 0x248B JUMP JUMPDEST SWAP3 POP POP DUP2 SWAP1 SSTORE POP PUSH1 0x0 DUP11 PUSH20 0xFFFFFFFFFFFFFFFFFFFFFFFFFFFFFFFFFFFFFFFF AND PUSH4 0x70A08231 ADDRESS PUSH1 0x40 MLOAD DUP3 PUSH4 0xFFFFFFFF AND PUSH1 0xE0 SHL DUP2 MSTORE PUSH1 0x4 ADD PUSH2 0x8FF SWAP2 SWAP1 PUSH2 0x2111 JUMP JUMPDEST PUSH1 0x20 PUSH1 0x40 MLOAD DUP1 DUP4 SUB DUP2 DUP7 DUP1 EXTCODESIZE ISZERO DUP1 ISZERO PUSH2 0x917 JUMPI PUSH1 0x0 DUP1 REVERT JUMPDEST POP GAS STATICCALL ISZERO DUP1 ISZERO PUSH2 0x92B JUMPI RETURNDATASIZE PUSH1 0x0 DUP1 RETURNDATACOPY RETURNDATASIZE PUSH1 0x0 REVERT JUMPDEST POP POP POP POP PUSH1 0x40 MLOAD RETURNDATASIZE PUSH1 0x1F NOT PUSH1 0x1F DUP3 ADD AND DUP3 ADD DUP1 PUSH1 0x40 MSTORE POP DUP2 ADD SWAP1 PUSH2 0x94F SWAP2 SWAP1 PUSH2 0x1D27 JUMP JUMPDEST SWAP1 POP PUSH1 0x0 DUP11 PUSH20 0xFFFFFFFFFFFFFFFFFFFFFFFFFFFFFFFFFFFFFFFF AND PUSH4 0x70A08231 ADDRESS PUSH1 0x40 MLOAD DUP3 PUSH4 0xFFFFFFFF AND PUSH1 0xE0 SHL DUP2 MSTORE PUSH1 0x4 ADD PUSH2 0x98C SWAP2 SWAP1 PUSH2 0x2111 JUMP JUMPDEST PUSH1 0x20 PUSH1 0x40 MLOAD DUP1 DUP4 SUB DUP2 DUP7 DUP1 EXTCODESIZE ISZERO DUP1 ISZERO PUSH2 0x9A4 JUMPI PUSH1 0x0 DUP1 REVERT JUMPDEST POP GAS STATICCALL ISZERO DUP1 ISZERO PUSH2 0x9B8 JUMPI RETURNDATASIZE PUSH1 0x0 DUP1 RETURNDATACOPY RETURNDATASIZE PUSH1 0x0 REVERT JUMPDEST POP POP POP POP PUSH1 0x40 MLOAD RETURNDATASIZE PUSH1 0x1F NOT PUSH1 0x1F DUP3 ADD AND DUP3 ADD DUP1 PUSH1 0x40 MSTORE POP DUP2 ADD SWAP1 PUSH2 0x9DC SWAP2 SWAP1 PUSH2 0x1D27 JUMP JUMPDEST SWAP1 POP PUSH2 0x9EA DUP13 DUP13 DUP5 DUP5 PUSH2 0x16EB JUMP JUMPDEST PUSH32 0xD2491A9B4FE81A7CD4511E8B7B7743951B061DAD5BED7DA8A7795B080EE08C7E DUP13 DUP13 DUP13 DUP13 PUSH1 0x40 MLOAD PUSH2 0xA1F SWAP5 SWAP4 SWAP3 SWAP2 SWAP1 PUSH2 0x21ED JUMP JUMPDEST PUSH1 0x40 MLOAD DUP1 SWAP2 SUB SWAP1 LOG1 PUSH1 0x1 SWAP8 POP POP POP POP POP POP POP POP SWAP5 SWAP4 POP POP POP POP JUMP JUMPDEST PUSH1 0x0 DUP1 PUSH1 0x5 SLOAD EQ PUSH2 0xA80 JUMPI PUSH1 0x40 MLOAD PUSH32 0x8C379A000000000000000000000000000000000000000000000000000000000 DUP2 MSTORE PUSH1 0x4 ADD PUSH2 0xA77 SWAP1 PUSH2 0x22E9 JUMP JUMPDEST PUSH1 0x40 MLOAD DUP1 SWAP2 SUB SWAP1 REVERT JUMPDEST PUSH1 0x0 DUP4 PUSH20 0xFFFFFFFFFFFFFFFFFFFFFFFFFFFFFFFFFFFFFFFF AND PUSH4 0x70A08231 ADDRESS PUSH1 0x40 MLOAD DUP3 PUSH4 0xFFFFFFFF AND PUSH1 0xE0 SHL DUP2 MSTORE PUSH1 0x4 ADD PUSH2 0xABB SWAP2 SWAP1 PUSH2 0x2111 JUMP JUMPDEST PUSH1 0x20 PUSH1 0x40 MLOAD DUP1 DUP4 SUB DUP2 DUP7 DUP1 EXTCODESIZE ISZERO DUP1 ISZERO PUSH2 0xAD3 JUMPI PUSH1 0x0 DUP1 REVERT JUMPDEST POP GAS STATICCALL ISZERO DUP1 ISZERO PUSH2 0xAE7 JUMPI RETURNDATASIZE PUSH1 0x0 DUP1 RETURNDATACOPY RETURNDATASIZE PUSH1 0x0 REVERT JUMPDEST POP POP POP POP PUSH1 0x40 MLOAD RETURNDATASIZE PUSH1 0x1F NOT PUSH1 0x1F DUP3 ADD AND DUP3 ADD DUP1 PUSH1 0x40 MSTORE POP DUP2 ADD SWAP1 PUSH2 0xB0B SWAP2 SWAP1 PUSH2 0x1D27 JUMP JUMPDEST SWAP1 POP PUSH1 0x0 DUP4 PUSH20 0xFFFFFFFFFFFFFFFFFFFFFFFFFFFFFFFFFFFFFFFF AND PUSH4 0x70A08231 ADDRESS PUSH1 0x40 MLOAD DUP3 PUSH4 0xFFFFFFFF AND PUSH1 0xE0 SHL DUP2 MSTORE PUSH1 0x4 ADD PUSH2 0xB48 SWAP2 SWAP1 PUSH2 0x2111 JUMP JUMPDEST PUSH1 0x20 PUSH1 0x40 MLOAD DUP1 DUP4 SUB DUP2 DUP7 DUP1 EXTCODESIZE ISZERO DUP1 ISZERO PUSH2 0xB60 JUMPI PUSH1 0x0 DUP1 REVERT JUMPDEST POP GAS STATICCALL ISZERO DUP1 ISZERO PUSH2 0xB74 JUMPI RETURNDATASIZE PUSH1 0x0 DUP1 RETURNDATACOPY RETURNDATASIZE PUSH1 0x0 REVERT JUMPDEST POP POP POP POP PUSH1 0x40 MLOAD RETURNDATASIZE PUSH1 0x1F NOT PUSH1 0x1F DUP3 ADD AND DUP3 ADD DUP1 PUSH1 0x40 MSTORE POP DUP2 ADD SWAP1 PUSH2 0xB98 SWAP2 SWAP1 PUSH2 0x1D27 JUMP JUMPDEST SWAP1 POP PUSH1 0x0 PUSH1 0x5 SLOAD EQ ISZERO PUSH2 0xBC0 JUMPI DUP1 DUP3 PUSH2 0xBB1 SWAP2 SWAP1 PUSH2 0x2512 JUMP JUMPDEST PUSH1 0x4 DUP2 SWAP1 SSTORE POP PUSH1 0x1 PUSH1 0x5 DUP2 SWAP1 SSTORE POP JUMPDEST PUSH1 0x4 SLOAD SWAP3 POP POP POP SWAP3 SWAP2 POP POP JUMP JUMPDEST PUSH1 0x64 DUP2 JUMP JUMPDEST PUSH1 0x0 DUP1 PUSH1 0x0 PUSH2 0xBDF PUSH2 0x1347 JUMP JUMPDEST SWAP2 POP SWAP2 POP PUSH1 0x1 PUSH1 0x0 SWAP1 SLOAD SWAP1 PUSH2 0x100 EXP SWAP1 DIV PUSH20 0xFFFFFFFFFFFFFFFFFFFFFFFFFFFFFFFFFFFFFFFF AND PUSH20 0xFFFFFFFFFFFFFFFFFFFFFFFFFFFFFFFFFFFFFFFF AND DUP9 PUSH20 0xFFFFFFFFFFFFFFFFFFFFFFFFFFFFFFFFFFFFFFFF AND EQ DUP1 ISZERO PUSH2 0xC8D JUMPI POP PUSH1 0x2 PUSH1 0x0 SWAP1 SLOAD SWAP1 PUSH2 0x100 EXP SWAP1 DIV PUSH20 0xFFFFFFFFFFFFFFFFFFFFFFFFFFFFFFFFFFFFFFFF AND PUSH20 0xFFFFFFFFFFFFFFFFFFFFFFFFFFFFFFFFFFFFFFFF AND DUP8 PUSH20 0xFFFFFFFFFFFFFFFFFFFFFFFFFFFFFFFFFFFFFFFF AND EQ JUMPDEST PUSH2 0xCCC JUMPI PUSH1 0x40 MLOAD PUSH32 0x8C379A000000000000000000000000000000000000000000000000000000000 DUP2 MSTORE PUSH1 0x4 ADD PUSH2 0xCC3 SWAP1 PUSH2 0x23C9 JUMP JUMPDEST PUSH1 0x40 MLOAD DUP1 SWAP2 SUB SWAP1 REVERT JUMPDEST PUSH1 0x0 DUP6 GT DUP1 PUSH2 0xCDB JUMPI POP PUSH1 0x0 DUP5 GT JUMPDEST PUSH2 0xD1A JUMPI PUSH1 0x40 MLOAD PUSH32 0x8C379A000000000000000000000000000000000000000000000000000000000 DUP2 MSTORE PUSH1 0x4 ADD PUSH2 0xD11 SWAP1 PUSH2 0x2349 JUMP JUMPDEST PUSH1 0x40 MLOAD DUP1 SWAP2 SUB SWAP1 REVERT JUMPDEST DUP8 PUSH20 0xFFFFFFFFFFFFFFFFFFFFFFFFFFFFFFFFFFFFFFFF AND DUP7 PUSH20 0xFFFFFFFFFFFFFFFFFFFFFFFFFFFFFFFFFFFFFFFF AND EQ ISZERO DUP1 ISZERO PUSH2 0xD82 JUMPI POP DUP7 PUSH20 0xFFFFFFFFFFFFFFFFFFFFFFFFFFFFFFFFFFFFFFFF AND DUP7 PUSH20 0xFFFFFFFFFFFFFFFFFFFFFFFFFFFFFFFFFFFFFFFF AND EQ ISZERO JUMPDEST PUSH2 0xDC1 JUMPI PUSH1 0x40 MLOAD PUSH32 0x8C379A000000000000000000000000000000000000000000000000000000000 DUP2 MSTORE PUSH1 0x4 ADD PUSH2 0xDB8 SWAP1 PUSH2 0x23C9 JUMP JUMPDEST PUSH1 0x40 MLOAD DUP1 SWAP2 SUB SWAP1 REVERT JUMPDEST PUSH1 0x0 DUP6 GT ISZERO PUSH2 0xDE2 JUMPI PUSH2 0xDD6 DUP8 CALLER ADDRESS DUP9 PUSH2 0x1358 JUMP JUMPDEST PUSH2 0xDE1 DUP9 DUP8 DUP8 PUSH2 0x17FC JUMP JUMPDEST JUMPDEST PUSH1 0x0 DUP5 GT ISZERO PUSH2 0xE03 JUMPI PUSH2 0xDF7 DUP9 CALLER ADDRESS DUP8 PUSH2 0x1358 JUMP JUMPDEST PUSH2 0xE02 DUP8 DUP8 DUP7 PUSH2 0x17FC JUMP JUMPDEST JUMPDEST PUSH1 0x0 DUP9 PUSH20 0xFFFFFFFFFFFFFFFFFFFFFFFFFFFFFFFFFFFFFFFF AND PUSH4 0x70A08231 ADDRESS PUSH1 0x40 MLOAD DUP3 PUSH4 0xFFFFFFFF AND PUSH1 0xE0 SHL DUP2 MSTORE PUSH1 0x4 ADD PUSH2 0xE3E SWAP2 SWAP1 PUSH2 0x2111 JUMP JUMPDEST PUSH1 0x20 PUSH1 0x40 MLOAD DUP1 DUP4 SUB DUP2 DUP7 DUP1 EXTCODESIZE ISZERO DUP1 ISZERO PUSH2 0xE56 JUMPI PUSH1 0x0 DUP1 REVERT JUMPDEST POP GAS STATICCALL ISZERO DUP1 ISZERO PUSH2 0xE6A JUMPI RETURNDATASIZE PUSH1 0x0 DUP1 RETURNDATACOPY RETURNDATASIZE PUSH1 0x0 REVERT JUMPDEST POP POP POP POP PUSH1 0x40 MLOAD RETURNDATASIZE PUSH1 0x1F NOT PUSH1 0x1F DUP3 ADD AND DUP3 ADD DUP1 PUSH1 0x40 MSTORE POP DUP2 ADD SWAP1 PUSH2 0xE8E SWAP2 SWAP1 PUSH2 0x1D27 JUMP JUMPDEST SWAP1 POP PUSH1 0x0 DUP9 PUSH20 0xFFFFFFFFFFFFFFFFFFFFFFFFFFFFFFFFFFFFFFFF AND PUSH4 0x70A08231 ADDRESS PUSH1 0x40 MLOAD DUP3 PUSH4 0xFFFFFFFF AND PUSH1 0xE0 SHL DUP2 MSTORE PUSH1 0x4 ADD PUSH2 0xECB SWAP2 SWAP1 PUSH2 0x2111 JUMP JUMPDEST PUSH1 0x20 PUSH1 0x40 MLOAD DUP1 DUP4 SUB DUP2 DUP7 DUP1 EXTCODESIZE ISZERO DUP1 ISZERO PUSH2 0xEE3 JUMPI PUSH1 0x0 DUP1 REVERT JUMPDEST POP GAS STATICCALL ISZERO DUP1 ISZERO PUSH2 0xEF7 JUMPI RETURNDATASIZE PUSH1 0x0 DUP1 RETURNDATACOPY RETURNDATASIZE PUSH1 0x0 REVERT JUMPDEST POP POP POP POP PUSH1 0x40 MLOAD RETURNDATASIZE PUSH1 0x1F NOT PUSH1 0x1F DUP3 ADD AND DUP3 ADD DUP1 PUSH1 0x40 MSTORE POP DUP2 ADD SWAP1 PUSH2 0xF1B SWAP2 SWAP1 PUSH2 0x1D27 JUMP JUMPDEST SWAP1 POP PUSH2 0xF29 DUP11 DUP11 DUP5 DUP5 PUSH2 0x16EB JUMP JUMPDEST PUSH32 0xCD3829A3813DC3CDD188FD3D01DCF3268C16BE2FDD2DD21D0665418816E46062 DUP11 DUP11 DUP11 DUP11 DUP11 PUSH1 0x40 MLOAD PUSH2 0xF60 SWAP6 SWAP5 SWAP4 SWAP3 SWAP2 SWAP1 PUSH2 0x2163 JUMP JUMPDEST PUSH1 0x40 MLOAD DUP1 SWAP2 SUB SWAP1 LOG1 PUSH1 0x1 SWAP5 POP POP POP POP POP SWAP6 SWAP5 POP POP POP POP POP JUMP JUMPDEST PUSH1 0x8 SLOAD DUP2 JUMP JUMPDEST PUSH1 0x4 SLOAD DUP2 JUMP JUMPDEST PUSH1 0x2 PUSH1 0x0 SWAP1 SLOAD SWAP1 PUSH2 0x100 EXP SWAP1 DIV PUSH20 0xFFFFFFFFFFFFFFFFFFFFFFFFFFFFFFFFFFFFFFFF AND DUP2 JUMP JUMPDEST PUSH1 0x0 DUP1 PUSH1 0x0 PUSH2 0xFB8 PUSH2 0x1347 JUMP JUMPDEST SWAP2 POP SWAP2 POP PUSH1 0x1 PUSH1 0x0 SWAP1 SLOAD SWAP1 PUSH2 0x100 EXP SWAP1 DIV PUSH20 0xFFFFFFFFFFFFFFFFFFFFFFFFFFFFFFFFFFFFFFFF AND PUSH20 0xFFFFFFFFFFFFFFFFFFFFFFFFFFFFFFFFFFFFFFFF AND DUP10 PUSH20 0xFFFFFFFFFFFFFFFFFFFFFFFFFFFFFFFFFFFFFFFF AND EQ DUP1 ISZERO PUSH2 0x1066 JUMPI POP PUSH1 0x2 PUSH1 0x0 SWAP1 SLOAD SWAP1 PUSH2 0x100 EXP SWAP1 DIV PUSH20 0xFFFFFFFFFFFFFFFFFFFFFFFFFFFFFFFFFFFFFFFF AND PUSH20 0xFFFFFFFFFFFFFFFFFFFFFFFFFFFFFFFFFFFFFFFF AND DUP9 PUSH20 0xFFFFFFFFFFFFFFFFFFFFFFFFFFFFFFFFFFFFFFFF AND EQ JUMPDEST PUSH2 0x10A5 JUMPI PUSH1 0x40 MLOAD PUSH32 0x8C379A000000000000000000000000000000000000000000000000000000000 DUP2 MSTORE PUSH1 0x4 ADD PUSH2 0x109C SWAP1 PUSH2 0x23C9 JUMP JUMPDEST PUSH1 0x40 MLOAD DUP1 SWAP2 SUB SWAP1 REVERT JUMPDEST DUP4 DUP6 EQ PUSH2 0x10E7 JUMPI PUSH1 0x40 MLOAD PUSH32 0x8C379A000000000000000000000000000000000000000000000000000000000 DUP2 MSTORE PUSH1 0x4 ADD PUSH2 0x10DE SWAP1 PUSH2 0x2329 JUMP JUMPDEST PUSH1 0x40 MLOAD DUP1 SWAP2 SUB SWAP1 REVERT JUMPDEST PUSH1 0x0 PUSH1 0xA SLOAD DUP4 DUP9 PUSH2 0x10F8 SWAP2 SWAP1 PUSH2 0x2512 JUMP JUMPDEST PUSH2 0x1102 SWAP2 SWAP1 PUSH2 0x24E1 JUMP JUMPDEST SWAP1 POP PUSH1 0x0 PUSH1 0xA SLOAD DUP4 DUP10 PUSH2 0x1115 SWAP2 SWAP1 PUSH2 0x2512 JUMP JUMPDEST PUSH2 0x111F SWAP2 SWAP1 PUSH2 0x24E1 JUMP JUMPDEST SWAP1 POP PUSH1 0x0 DUP3 GT DUP1 ISZERO PUSH2 0x1131 JUMPI POP PUSH1 0x0 DUP2 GT JUMPDEST PUSH2 0x1170 JUMPI PUSH1 0x40 MLOAD PUSH32 0x8C379A000000000000000000000000000000000000000000000000000000000 DUP2 MSTORE PUSH1 0x4 ADD PUSH2 0x1167 SWAP1 PUSH2 0x2369 JUMP JUMPDEST PUSH1 0x40 MLOAD DUP1 SWAP2 SUB SWAP1 REVERT JUMPDEST PUSH2 0x119D PUSH1 0x3 PUSH1 0x0 SWAP1 SLOAD SWAP1 PUSH2 0x100 EXP SWAP1 DIV PUSH20 0xFFFFFFFFFFFFFFFFFFFFFFFFFFFFFFFFFFFFFFFF AND DUP11 DUP11 PUSH2 0x1932 JUMP JUMPDEST PUSH2 0x11A9 DUP12 ADDRESS DUP12 DUP6 PUSH2 0x1358 JUMP JUMPDEST PUSH2 0x11B5 DUP11 ADDRESS DUP12 DUP5 PUSH2 0x1358 JUMP JUMPDEST DUP8 PUSH1 0xA PUSH1 0x0 DUP3 DUP3 SLOAD PUSH2 0x11C7 SWAP2 SWAP1 PUSH2 0x256C JUMP JUMPDEST SWAP3 POP POP DUP2 SWAP1 SSTORE POP PUSH1 0x0 DUP12 PUSH20 0xFFFFFFFFFFFFFFFFFFFFFFFFFFFFFFFFFFFFFFFF AND PUSH4 0x70A08231 ADDRESS PUSH1 0x40 MLOAD DUP3 PUSH4 0xFFFFFFFF AND PUSH1 0xE0 SHL DUP2 MSTORE PUSH1 0x4 ADD PUSH2 0x1209 SWAP2 SWAP1 PUSH2 0x2111 JUMP JUMPDEST PUSH1 0x20 PUSH1 0x40 MLOAD DUP1 DUP4 SUB DUP2 DUP7 DUP1 EXTCODESIZE ISZERO DUP1 ISZERO PUSH2 0x1221 JUMPI PUSH1 0x0 DUP1 REVERT JUMPDEST POP GAS STATICCALL ISZERO DUP1 ISZERO PUSH2 0x1235 JUMPI RETURNDATASIZE PUSH1 0x0 DUP1 RETURNDATACOPY RETURNDATASIZE PUSH1 0x0 REVERT JUMPDEST POP POP POP POP PUSH1 0x40 MLOAD RETURNDATASIZE PUSH1 0x1F NOT PUSH1 0x1F DUP3 ADD AND DUP3 ADD DUP1 PUSH1 0x40 MSTORE POP DUP2 ADD SWAP1 PUSH2 0x1259 SWAP2 SWAP1 PUSH2 0x1D27 JUMP JUMPDEST SWAP1 POP PUSH1 0x0 DUP12 PUSH20 0xFFFFFFFFFFFFFFFFFFFFFFFFFFFFFFFFFFFFFFFF AND PUSH4 0x70A08231 ADDRESS PUSH1 0x40 MLOAD DUP3 PUSH4 0xFFFFFFFF AND PUSH1 0xE0 SHL DUP2 MSTORE PUSH1 0x4 ADD PUSH2 0x1296 SWAP2 SWAP1 PUSH2 0x2111 JUMP JUMPDEST PUSH1 0x20 PUSH1 0x40 MLOAD DUP1 DUP4 SUB DUP2 DUP7 DUP1 EXTCODESIZE ISZERO DUP1 ISZERO PUSH2 0x12AE JUMPI PUSH1 0x0 DUP1 REVERT JUMPDEST POP GAS STATICCALL ISZERO DUP1 ISZERO PUSH2 0x12C2 JUMPI RETURNDATASIZE PUSH1 0x0 DUP1 RETURNDATACOPY RETURNDATASIZE PUSH1 0x0 REVERT JUMPDEST POP POP POP POP PUSH1 0x40 MLOAD RETURNDATASIZE PUSH1 0x1F NOT PUSH1 0x1F DUP3 ADD AND DUP3 ADD DUP1 PUSH1 0x40 MSTORE POP DUP2 ADD SWAP1 PUSH2 0x12E6 SWAP2 SWAP1 PUSH2 0x1D27 JUMP JUMPDEST SWAP1 POP PUSH2 0x12F4 DUP14 DUP14 DUP5 DUP5 PUSH2 0x16EB JUMP JUMPDEST PUSH32 0x95B8FE9BA38A505097B9341887DE8716D6F3F3BA79EF0ECC02F35AD6E30585D6 DUP14 DUP14 DUP9 DUP9 DUP15 PUSH1 0x40 MLOAD PUSH2 0x132B SWAP6 SWAP5 SWAP4 SWAP3 SWAP2 SWAP1 PUSH2 0x2232 JUMP JUMPDEST PUSH1 0x40 MLOAD DUP1 SWAP2 SUB SWAP1 LOG1 PUSH1 0x1 SWAP7 POP POP POP POP POP POP POP SWAP7 SWAP6 POP POP POP POP POP POP JUMP JUMPDEST PUSH1 0x0 DUP1 PUSH1 0x6 SLOAD SWAP2 POP PUSH1 0x7 SLOAD SWAP1 POP SWAP1 SWAP2 JUMP JUMPDEST PUSH1 0x0 PUSH1 0x40 MLOAD DUP1 PUSH1 0x60 ADD PUSH1 0x40 MSTORE DUP1 PUSH1 0x25 DUP2 MSTORE PUSH1 0x20 ADD PUSH2 0x26BF PUSH1 0x25 SWAP2 CODECOPY DUP1 MLOAD SWAP1 PUSH1 0x20 ADD KECCAK256 SWAP1 POP PUSH1 0x0 DUP1 DUP7 PUSH20 0xFFFFFFFFFFFFFFFFFFFFFFFFFFFFFFFFFFFFFFFF AND DUP4 DUP8 DUP8 DUP8 PUSH1 0x40 MLOAD PUSH1 0x24 ADD PUSH2 0x13AC SWAP4 SWAP3 SWAP2 SWAP1 PUSH2 0x21B6 JUMP JUMPDEST PUSH1 0x40 MLOAD PUSH1 0x20 DUP2 DUP4 SUB SUB DUP2 MSTORE SWAP1 PUSH1 0x40 MSTORE SWAP1 PUSH28 0xFFFFFFFFFFFFFFFFFFFFFFFFFFFFFFFFFFFFFFFFFFFFFFFFFFFFFFFF NOT AND PUSH1 0x20 DUP3 ADD DUP1 MLOAD PUSH28 0xFFFFFFFFFFFFFFFFFFFFFFFFFFFFFFFFFFFFFFFFFFFFFFFFFFFFFFFF DUP4 DUP2 DUP4 AND OR DUP4 MSTORE POP POP POP POP PUSH1 0x40 MLOAD PUSH2 0x1416 SWAP2 SWAP1 PUSH2 0x20FA JUMP JUMPDEST PUSH1 0x0 PUSH1 0x40 MLOAD DUP1 DUP4 SUB DUP2 PUSH1 0x0 DUP7 GAS CALL SWAP2 POP POP RETURNDATASIZE DUP1 PUSH1 0x0 DUP2 EQ PUSH2 0x1453 JUMPI PUSH1 0x40 MLOAD SWAP2 POP PUSH1 0x1F NOT PUSH1 0x3F RETURNDATASIZE ADD AND DUP3 ADD PUSH1 0x40 MSTORE RETURNDATASIZE DUP3 MSTORE RETURNDATASIZE PUSH1 0x0 PUSH1 0x20 DUP5 ADD RETURNDATACOPY PUSH2 0x1458 JUMP JUMPDEST PUSH1 0x60 SWAP2 POP JUMPDEST POP SWAP2 POP SWAP2 POP DUP2 DUP1 ISZERO PUSH2 0x1486 JUMPI POP PUSH1 0x0 DUP2 MLOAD EQ DUP1 PUSH2 0x1485 JUMPI POP DUP1 DUP1 PUSH1 0x20 ADD SWAP1 MLOAD DUP2 ADD SWAP1 PUSH2 0x1484 SWAP2 SWAP1 PUSH2 0x1CFE JUMP JUMPDEST JUMPDEST JUMPDEST PUSH2 0x14C5 JUMPI PUSH1 0x40 MLOAD PUSH32 0x8C379A000000000000000000000000000000000000000000000000000000000 DUP2 MSTORE PUSH1 0x4 ADD PUSH2 0x14BC SWAP1 PUSH2 0x2309 JUMP JUMPDEST PUSH1 0x40 MLOAD DUP1 SWAP2 SUB SWAP1 REVERT JUMPDEST POP POP POP POP POP POP POP JUMP JUMPDEST PUSH1 0x0 PUSH1 0x3 DUP3 GT ISZERO PUSH2 0x1535 JUMPI DUP2 SWAP1 POP PUSH1 0x0 PUSH1 0x1 PUSH1 0x2 DUP5 PUSH2 0x14ED SWAP2 SWAP1 PUSH2 0x24E1 JUMP JUMPDEST PUSH2 0x14F7 SWAP2 SWAP1 PUSH2 0x248B JUMP JUMPDEST SWAP1 POP JUMPDEST DUP2 DUP2 LT ISZERO PUSH2 0x152F JUMPI DUP1 SWAP2 POP PUSH1 0x2 DUP2 DUP3 DUP6 PUSH2 0x1514 SWAP2 SWAP1 PUSH2 0x24E1 JUMP JUMPDEST PUSH2 0x151E SWAP2 SWAP1 PUSH2 0x248B JUMP JUMPDEST PUSH2 0x1528 SWAP2 SWAP1 PUSH2 0x24E1 JUMP JUMPDEST SWAP1 POP PUSH2 0x14FA JUMP JUMPDEST POP PUSH2 0x1543 JUMP JUMPDEST PUSH1 0x0 DUP3 EQ PUSH2 0x1542 JUMPI PUSH1 0x1 SWAP1 POP JUMPDEST JUMPDEST SWAP2 SWAP1 POP JUMP JUMPDEST PUSH1 0x0 DUP1 DUP5 PUSH20 0xFFFFFFFFFFFFFFFFFFFFFFFFFFFFFFFFFFFFFFFF AND PUSH1 0x40 MLOAD DUP1 PUSH1 0x40 ADD PUSH1 0x40 MSTORE DUP1 PUSH1 0x15 DUP2 MSTORE PUSH1 0x20 ADD PUSH32 0x6D696E7428616464726573732C75696E74323536290000000000000000000000 DUP2 MSTORE POP DUP1 MLOAD SWAP1 PUSH1 0x20 ADD KECCAK256 DUP6 DUP6 PUSH1 0x40 MLOAD PUSH1 0x24 ADD PUSH2 0x15B2 SWAP3 SWAP2 SWAP1 PUSH2 0x2285 JUMP JUMPDEST PUSH1 0x40 MLOAD PUSH1 0x20 DUP2 DUP4 SUB SUB DUP2 MSTORE SWAP1 PUSH1 0x40 MSTORE SWAP1 PUSH28 0xFFFFFFFFFFFFFFFFFFFFFFFFFFFFFFFFFFFFFFFFFFFFFFFFFFFFFFFF NOT AND PUSH1 0x20 DUP3 ADD DUP1 MLOAD PUSH28 0xFFFFFFFFFFFFFFFFFFFFFFFFFFFFFFFFFFFFFFFFFFFFFFFFFFFFFFFF DUP4 DUP2 DUP4 AND OR DUP4 MSTORE POP POP POP POP PUSH1 0x40 MLOAD PUSH2 0x161C SWAP2 SWAP1 PUSH2 0x20FA JUMP JUMPDEST PUSH1 0x0 PUSH1 0x40 MLOAD DUP1 DUP4 SUB DUP2 PUSH1 0x0 DUP7 GAS CALL SWAP2 POP POP RETURNDATASIZE DUP1 PUSH1 0x0 DUP2 EQ PUSH2 0x1659 JUMPI PUSH1 0x40 MLOAD SWAP2 POP PUSH1 0x1F NOT PUSH1 0x3F RETURNDATASIZE ADD AND DUP3 ADD PUSH1 0x40 MSTORE RETURNDATASIZE DUP3 MSTORE RETURNDATASIZE PUSH1 0x0 PUSH1 0x20 DUP5 ADD RETURNDATACOPY PUSH2 0x165E JUMP JUMPDEST PUSH1 0x60 SWAP2 POP JUMPDEST POP SWAP2 POP SWAP2 POP DUP2 DUP1 ISZERO PUSH2 0x168C JUMPI POP PUSH1 0x0 DUP2 MLOAD EQ DUP1 PUSH2 0x168B JUMPI POP DUP1 DUP1 PUSH1 0x20 ADD SWAP1 MLOAD DUP2 ADD SWAP1 PUSH2 0x168A SWAP2 SWAP1 PUSH2 0x1CFE JUMP JUMPDEST JUMPDEST JUMPDEST PUSH2 0x16CB JUMPI PUSH1 0x40 MLOAD PUSH32 0x8C379A000000000000000000000000000000000000000000000000000000000 DUP2 MSTORE PUSH1 0x4 ADD PUSH2 0x16C2 SWAP1 PUSH2 0x23E9 JUMP JUMPDEST PUSH1 0x40 MLOAD DUP1 SWAP2 SUB SWAP1 REVERT JUMPDEST POP POP POP POP POP JUMP JUMPDEST PUSH1 0x0 DUP2 DUP4 LT PUSH2 0x16E1 JUMPI DUP2 PUSH2 0x16E3 JUMP JUMPDEST DUP3 JUMPDEST SWAP1 POP SWAP3 SWAP2 POP POP JUMP JUMPDEST PUSH1 0x0 DUP3 LT ISZERO DUP1 ISZERO PUSH2 0x16FD JUMPI POP PUSH1 0x0 DUP2 LT ISZERO JUMPDEST PUSH2 0x173C JUMPI PUSH1 0x40 MLOAD PUSH32 0x8C379A000000000000000000000000000000000000000000000000000000000 DUP2 MSTORE PUSH1 0x4 ADD PUSH2 0x1733 SWAP1 PUSH2 0x22C9 JUMP JUMPDEST PUSH1 0x40 MLOAD DUP1 SWAP2 SUB SWAP1 REVERT JUMPDEST PUSH1 0x0 DUP3 EQ ISZERO DUP1 ISZERO PUSH2 0x174E JUMPI POP PUSH1 0x0 DUP2 EQ ISZERO JUMPDEST ISZERO PUSH2 0x1780 JUMPI DUP1 PUSH1 0x4 SLOAD PUSH2 0x1761 SWAP2 SWAP1 PUSH2 0x24E1 JUMP JUMPDEST PUSH1 0x8 DUP2 SWAP1 SSTORE POP DUP2 PUSH1 0x4 SLOAD PUSH2 0x1775 SWAP2 SWAP1 PUSH2 0x24E1 JUMP JUMPDEST PUSH1 0x9 DUP2 SWAP1 SSTORE POP PUSH2 0x17A7 JUMP JUMPDEST PUSH1 0x0 DUP3 EQ DUP1 ISZERO PUSH2 0x1790 JUMPI POP PUSH1 0x0 DUP2 EQ JUMPDEST ISZERO PUSH2 0x17A6 JUMPI PUSH1 0x0 PUSH1 0x8 DUP2 SWAP1 SSTORE POP PUSH1 0x0 PUSH1 0x9 DUP2 SWAP1 SSTORE POP JUMPDEST JUMPDEST DUP2 PUSH1 0x6 DUP2 SWAP1 SSTORE POP DUP1 PUSH1 0x7 DUP2 SWAP1 SSTORE POP PUSH32 0xD4BDE8444971B7416B5F51C90F544D2FE2D0C1EDDDD83BD5FE8646179341DC99 DUP5 DUP5 PUSH1 0x6 SLOAD PUSH1 0x7 SLOAD PUSH1 0x40 MLOAD PUSH2 0x17EE SWAP5 SWAP4 SWAP3 SWAP2 SWAP1 PUSH2 0x21ED JUMP JUMPDEST PUSH1 0x40 MLOAD DUP1 SWAP2 SUB SWAP1 LOG1 POP POP POP POP JUMP JUMPDEST PUSH1 0x0 DUP1 DUP5 PUSH20 0xFFFFFFFFFFFFFFFFFFFFFFFFFFFFFFFFFFFFFFFF AND PUSH4 0xA9059CBB DUP6 DUP6 PUSH1 0x40 MLOAD PUSH1 0x24 ADD PUSH2 0x182E SWAP3 SWAP2 SWAP1 PUSH2 0x2285 JUMP JUMPDEST PUSH1 0x40 MLOAD PUSH1 0x20 DUP2 DUP4 SUB SUB DUP2 MSTORE SWAP1 PUSH1 0x40 MSTORE SWAP1 PUSH1 0xE0 SHL PUSH1 0x20 DUP3 ADD DUP1 MLOAD PUSH28 0xFFFFFFFFFFFFFFFFFFFFFFFFFFFFFFFFFFFFFFFFFFFFFFFFFFFFFFFF DUP4 DUP2 DUP4 AND OR DUP4 MSTORE POP POP POP POP PUSH1 0x40 MLOAD PUSH2 0x187C SWAP2 SWAP1 PUSH2 0x20FA JUMP JUMPDEST PUSH1 0x0 PUSH1 0x40 MLOAD DUP1 DUP4 SUB DUP2 PUSH1 0x0 DUP7 GAS CALL SWAP2 POP POP RETURNDATASIZE DUP1 PUSH1 0x0 DUP2 EQ PUSH2 0x18B9 JUMPI PUSH1 0x40 MLOAD SWAP2 POP PUSH1 0x1F NOT PUSH1 0x3F RETURNDATASIZE ADD AND DUP3 ADD PUSH1 0x40 MSTORE RETURNDATASIZE DUP3 MSTORE RETURNDATASIZE PUSH1 0x0 PUSH1 0x20 DUP5 ADD RETURNDATACOPY PUSH2 0x18BE JUMP JUMPDEST PUSH1 0x60 SWAP2 POP JUMPDEST POP SWAP2 POP SWAP2 POP DUP2 DUP1 ISZERO PUSH2 0x18EC JUMPI POP PUSH1 0x0 DUP2 MLOAD EQ DUP1 PUSH2 0x18EB JUMPI POP DUP1 DUP1 PUSH1 0x20 ADD SWAP1 MLOAD DUP2 ADD SWAP1 PUSH2 0x18EA SWAP2 SWAP1 PUSH2 0x1CFE JUMP JUMPDEST JUMPDEST JUMPDEST PUSH2 0x192B JUMPI PUSH1 0x40 MLOAD PUSH32 0x8C379A000000000000000000000000000000000000000000000000000000000 DUP2 MSTORE PUSH1 0x4 ADD PUSH2 0x1922 SWAP1 PUSH2 0x2409 JUMP JUMPDEST PUSH1 0x40 MLOAD DUP1 SWAP2 SUB SWAP1 REVERT JUMPDEST POP POP POP POP POP JUMP JUMPDEST PUSH1 0x0 DUP1 DUP5 PUSH20 0xFFFFFFFFFFFFFFFFFFFFFFFFFFFFFFFFFFFFFFFF AND PUSH1 0x40 MLOAD DUP1 PUSH1 0x40 ADD PUSH1 0x40 MSTORE DUP1 PUSH1 0x15 DUP2 MSTORE PUSH1 0x20 ADD PUSH32 0x6275726E28616464726573732C75696E74323536290000000000000000000000 DUP2 MSTORE POP DUP1 MLOAD SWAP1 PUSH1 0x20 ADD KECCAK256 DUP6 DUP6 PUSH1 0x40 MLOAD PUSH1 0x24 ADD PUSH2 0x199C SWAP3 SWAP2 SWAP1 PUSH2 0x2285 JUMP JUMPDEST PUSH1 0x40 MLOAD PUSH1 0x20 DUP2 DUP4 SUB SUB DUP2 MSTORE SWAP1 PUSH1 0x40 MSTORE SWAP1 PUSH28 0xFFFFFFFFFFFFFFFFFFFFFFFFFFFFFFFFFFFFFFFFFFFFFFFFFFFFFFFF NOT AND PUSH1 0x20 DUP3 ADD DUP1 MLOAD PUSH28 0xFFFFFFFFFFFFFFFFFFFFFFFFFFFFFFFFFFFFFFFFFFFFFFFFFFFFFFFF DUP4 DUP2 DUP4 AND OR DUP4 MSTORE POP POP POP POP PUSH1 0x40 MLOAD PUSH2 0x1A06 SWAP2 SWAP1 PUSH2 0x20FA JUMP JUMPDEST PUSH1 0x0 PUSH1 0x40 MLOAD DUP1 DUP4 SUB DUP2 PUSH1 0x0 DUP7 GAS CALL SWAP2 POP POP RETURNDATASIZE DUP1 PUSH1 0x0 DUP2 EQ PUSH2 0x1A43 JUMPI PUSH1 0x40 MLOAD SWAP2 POP PUSH1 0x1F NOT PUSH1 0x3F RETURNDATASIZE ADD AND DUP3 ADD PUSH1 0x40 MSTORE RETURNDATASIZE DUP3 MSTORE RETURNDATASIZE PUSH1 0x0 PUSH1 0x20 DUP5 ADD RETURNDATACOPY PUSH2 0x1A48 JUMP JUMPDEST PUSH1 0x60 SWAP2 POP JUMPDEST POP SWAP2 POP SWAP2 POP DUP2 DUP1 ISZERO PUSH2 0x1A76 JUMPI POP PUSH1 0x0 DUP2 MLOAD EQ DUP1 PUSH2 0x1A75 JUMPI POP DUP1 DUP1 PUSH1 0x20 ADD SWAP1 MLOAD DUP2 ADD SWAP1 PUSH2 0x1A74 SWAP2 SWAP1 PUSH2 0x1CFE JUMP JUMPDEST JUMPDEST JUMPDEST PUSH2 0x1AB5 JUMPI PUSH1 0x40 MLOAD PUSH32 0x8C379A000000000000000000000000000000000000000000000000000000000 DUP2 MSTORE PUSH1 0x4 ADD PUSH2 0x1AAC SWAP1 PUSH2 0x2429 JUMP JUMPDEST PUSH1 0x40 MLOAD DUP1 SWAP2 SUB SWAP1 REVERT JUMPDEST POP POP POP POP POP JUMP JUMPDEST PUSH1 0x0 DUP2 CALLDATALOAD SWAP1 POP PUSH2 0x1ACB DUP2 PUSH2 0x2679 JUMP JUMPDEST SWAP3 SWAP2 POP POP JUMP JUMPDEST PUSH1 0x0 DUP2 MLOAD SWAP1 POP PUSH2 0x1AE0 DUP2 PUSH2 0x2690 JUMP JUMPDEST SWAP3 SWAP2 POP POP JUMP JUMPDEST PUSH1 0x0 DUP2 CALLDATALOAD SWAP1 POP PUSH2 0x1AF5 DUP2 PUSH2 0x26A7 JUMP JUMPDEST SWAP3 SWAP2 POP POP JUMP JUMPDEST PUSH1 0x0 DUP2 MLOAD SWAP1 POP PUSH2 0x1B0A DUP2 PUSH2 0x26A7 JUMP JUMPDEST SWAP3 SWAP2 POP POP JUMP JUMPDEST PUSH1 0x0 DUP1 PUSH1 0x40 DUP4 DUP6 SUB SLT ISZERO PUSH2 0x1B23 JUMPI PUSH1 0x0 DUP1 REVERT JUMPDEST PUSH1 0x0 PUSH2 0x1B31 DUP6 DUP3 DUP7 ADD PUSH2 0x1ABC JUMP JUMPDEST SWAP3 POP POP PUSH1 0x20 PUSH2 0x1B42 DUP6 DUP3 DUP7 ADD PUSH2 0x1ABC JUMP JUMPDEST SWAP2 POP POP SWAP3 POP SWAP3 SWAP1 POP JUMP JUMPDEST PUSH1 0x0 DUP1 PUSH1 0x0 PUSH1 0x60 DUP5 DUP7 SUB SLT ISZERO PUSH2 0x1B61 JUMPI PUSH1 0x0 DUP1 REVERT JUMPDEST PUSH1 0x0 PUSH2 0x1B6F DUP7 DUP3 DUP8 ADD PUSH2 0x1ABC JUMP JUMPDEST SWAP4 POP POP PUSH1 0x20 PUSH2 0x1B80 DUP7 DUP3 DUP8 ADD PUSH2 0x1ABC JUMP JUMPDEST SWAP3 POP POP PUSH1 0x40 PUSH2 0x1B91 DUP7 DUP3 DUP8 ADD PUSH2 0x1ABC JUMP JUMPDEST SWAP2 POP POP SWAP3 POP SWAP3 POP SWAP3 JUMP JUMPDEST PUSH1 0x0 DUP1 PUSH1 0x0 DUP1 PUSH1 0x0 PUSH1 0xA0 DUP7 DUP9 SUB SLT ISZERO PUSH2 0x1BB3 JUMPI PUSH1 0x0 DUP1 REVERT JUMPDEST PUSH1 0x0 PUSH2 0x1BC1 DUP9 DUP3 DUP10 ADD PUSH2 0x1ABC JUMP JUMPDEST SWAP6 POP POP PUSH1 0x20 PUSH2 0x1BD2 DUP9 DUP3 DUP10 ADD PUSH2 0x1ABC JUMP JUMPDEST SWAP5 POP POP PUSH1 0x40 PUSH2 0x1BE3 DUP9 DUP3 DUP10 ADD PUSH2 0x1ABC JUMP JUMPDEST SWAP4 POP POP PUSH1 0x60 PUSH2 0x1BF4 DUP9 DUP3 DUP10 ADD PUSH2 0x1AE6 JUMP JUMPDEST SWAP3 POP POP PUSH1 0x80 PUSH2 0x1C05 DUP9 DUP3 DUP10 ADD PUSH2 0x1AE6 JUMP JUMPDEST SWAP2 POP POP SWAP3 SWAP6 POP SWAP3 SWAP6 SWAP1 SWAP4 POP JUMP JUMPDEST PUSH1 0x0 DUP1 PUSH1 0x0 DUP1 PUSH1 0x0 DUP1 PUSH1 0xC0 DUP8 DUP10 SUB SLT ISZERO PUSH2 0x1C2B JUMPI PUSH1 0x0 DUP1 REVERT JUMPDEST PUSH1 0x0 PUSH2 0x1C39 DUP10 DUP3 DUP11 ADD PUSH2 0x1ABC JUMP JUMPDEST SWAP7 POP POP PUSH1 0x20 PUSH2 0x1C4A DUP10 DUP3 DUP11 ADD PUSH2 0x1ABC JUMP JUMPDEST SWAP6 POP POP PUSH1 0x40 PUSH2 0x1C5B DUP10 DUP3 DUP11 ADD PUSH2 0x1ABC JUMP JUMPDEST SWAP5 POP POP PUSH1 0x60 PUSH2 0x1C6C DUP10 DUP3 DUP11 ADD PUSH2 0x1AE6 JUMP JUMPDEST SWAP4 POP POP PUSH1 0x80 PUSH2 0x1C7D DUP10 DUP3 DUP11 ADD PUSH2 0x1AE6 JUMP JUMPDEST SWAP3 POP POP PUSH1 0xA0 PUSH2 0x1C8E DUP10 DUP3 DUP11 ADD PUSH2 0x1AE6 JUMP JUMPDEST SWAP2 POP POP SWAP3 SWAP6 POP SWAP3 SWAP6 POP SWAP3 SWAP6 JUMP JUMPDEST PUSH1 0x0 DUP1 PUSH1 0x0 DUP1 PUSH1 0x80 DUP6 DUP8 SUB SLT ISZERO PUSH2 0x1CB1 JUMPI PUSH1 0x0 DUP1 REVERT JUMPDEST PUSH1 0x0 PUSH2 0x1CBF DUP8 DUP3 DUP9 ADD PUSH2 0x1ABC JUMP JUMPDEST SWAP5 POP POP PUSH1 0x20 PUSH2 0x1CD0 DUP8 DUP3 DUP9 ADD PUSH2 0x1ABC JUMP JUMPDEST SWAP4 POP POP PUSH1 0x40 PUSH2 0x1CE1 DUP8 DUP3 DUP9 ADD PUSH2 0x1AE6 JUMP JUMPDEST SWAP3 POP POP PUSH1 0x60 PUSH2 0x1CF2 DUP8 DUP3 DUP9 ADD PUSH2 0x1AE6 JUMP JUMPDEST SWAP2 POP POP SWAP3 SWAP6 SWAP2 SWAP5 POP SWAP3 POP JUMP JUMPDEST PUSH1 0x0 PUSH1 0x20 DUP3 DUP5 SUB SLT ISZERO PUSH2 0x1D10 JUMPI PUSH1 0x0 DUP1 REVERT JUMPDEST PUSH1 0x0 PUSH2 0x1D1E DUP5 DUP3 DUP6 ADD PUSH2 0x1AD1 JUMP JUMPDEST SWAP2 POP POP SWAP3 SWAP2 POP POP JUMP JUMPDEST PUSH1 0x0 PUSH1 0x20 DUP3 DUP5 SUB SLT ISZERO PUSH2 0x1D39 JUMPI PUSH1 0x0 DUP1 REVERT JUMPDEST PUSH1 0x0 PUSH2 0x1D47 DUP5 DUP3 DUP6 ADD PUSH2 0x1AFB JUMP JUMPDEST SWAP2 POP POP SWAP3 SWAP2 POP POP JUMP JUMPDEST PUSH2 0x1D59 DUP2 PUSH2 0x25A0 JUMP JUMPDEST DUP3 MSTORE POP POP JUMP JUMPDEST PUSH2 0x1D68 DUP2 PUSH2 0x25B2 JUMP JUMPDEST DUP3 MSTORE POP POP JUMP JUMPDEST PUSH1 0x0 PUSH2 0x1D79 DUP3 PUSH2 0x2464 JUMP JUMPDEST PUSH2 0x1D83 DUP2 DUP6 PUSH2 0x246F JUMP JUMPDEST SWAP4 POP PUSH2 0x1D93 DUP2 DUP6 PUSH1 0x20 DUP7 ADD PUSH2 0x25E8 JUMP JUMPDEST DUP1 DUP5 ADD SWAP2 POP POP SWAP3 SWAP2 POP POP JUMP JUMPDEST PUSH1 0x0 PUSH2 0x1DAC PUSH1 0x8 DUP4 PUSH2 0x247A JUMP JUMPDEST SWAP2 POP PUSH32 0x30206E756D626572000000000000000000000000000000000000000000000000 PUSH1 0x0 DUP4 ADD MSTORE PUSH1 0x20 DUP3 ADD SWAP1 POP SWAP2 SWAP1 POP JUMP JUMPDEST PUSH1 0x0 PUSH2 0x1DEC PUSH1 0x6 DUP4 PUSH2 0x247A JUMP JUMPDEST SWAP2 POP PUSH32 0x4C6F636B65640000000000000000000000000000000000000000000000000000 PUSH1 0x0 DUP4 ADD MSTORE PUSH1 0x20 DUP3 ADD SWAP1 POP SWAP2 SWAP1 POP JUMP JUMPDEST PUSH1 0x0 PUSH2 0x1E2C PUSH1 0x31 DUP4 PUSH2 0x247A JUMP JUMPDEST SWAP2 POP PUSH32 0x5472616E7366657248656C7065723A3A7472616E7366657246726F6D3A207472 PUSH1 0x0 DUP4 ADD MSTORE PUSH32 0x616E7366657246726F6D206661696C6564000000000000000000000000000000 PUSH1 0x20 DUP4 ADD MSTORE PUSH1 0x40 DUP3 ADD SWAP1 POP SWAP2 SWAP1 POP JUMP JUMPDEST PUSH1 0x0 PUSH2 0x1E92 PUSH1 0x9 DUP4 PUSH2 0x247A JUMP JUMPDEST SWAP2 POP PUSH32 0x4E6F7420657175616C0000000000000000000000000000000000000000000000 PUSH1 0x0 DUP4 ADD MSTORE PUSH1 0x20 DUP3 ADD SWAP1 POP SWAP2 SWAP1 POP JUMP JUMPDEST PUSH1 0x0 PUSH2 0x1ED2 PUSH1 0xB DUP4 PUSH2 0x247A JUMP JUMPDEST SWAP2 POP PUSH32 0x5A65726F20616D6F756E74000000000000000000000000000000000000000000 PUSH1 0x0 DUP4 ADD MSTORE PUSH1 0x20 DUP3 ADD SWAP1 POP SWAP2 SWAP1 POP JUMP JUMPDEST PUSH1 0x0 PUSH2 0x1F12 PUSH1 0xC DUP4 PUSH2 0x247A JUMP JUMPDEST SWAP2 POP PUSH32 0x4D696E757320616D6F756E740000000000000000000000000000000000000000 PUSH1 0x0 DUP4 ADD MSTORE PUSH1 0x20 DUP3 ADD SWAP1 POP SWAP2 SWAP1 POP JUMP JUMPDEST PUSH1 0x0 PUSH2 0x1F52 PUSH1 0xF DUP4 PUSH2 0x247A JUMP JUMPDEST SWAP2 POP PUSH32 0x4D696E7573206C69717569646974790000000000000000000000000000000000 PUSH1 0x0 DUP4 ADD MSTORE PUSH1 0x20 DUP3 ADD SWAP1 POP SWAP2 SWAP1 POP JUMP JUMPDEST PUSH1 0x0 PUSH2 0x1F92 PUSH1 0x9 DUP4 PUSH2 0x247A JUMP JUMPDEST SWAP2 POP PUSH32 0x4E6F74206F776E65720000000000000000000000000000000000000000000000 PUSH1 0x0 DUP4 ADD MSTORE PUSH1 0x20 DUP3 ADD SWAP1 POP SWAP2 SWAP1 POP JUMP JUMPDEST PUSH1 0x0 PUSH2 0x1FD2 PUSH1 0x10 DUP4 PUSH2 0x247A JUMP JUMPDEST SWAP2 POP PUSH32 0x4E6F742075736564206164647265737300000000000000000000000000000000 PUSH1 0x0 DUP4 ADD MSTORE PUSH1 0x20 DUP3 ADD SWAP1 POP SWAP2 SWAP1 POP JUMP JUMPDEST PUSH1 0x0 PUSH2 0x2012 PUSH1 0xB DUP4 PUSH2 0x247A JUMP JUMPDEST SWAP2 POP PUSH32 0x4641494C4544204D696E74000000000000000000000000000000000000000000 PUSH1 0x0 DUP4 ADD MSTORE PUSH1 0x20 DUP3 ADD SWAP1 POP SWAP2 SWAP1 POP JUMP JUMPDEST PUSH1 0x0 PUSH2 0x2052 PUSH1 0x2D DUP4 PUSH2 0x247A JUMP JUMPDEST SWAP2 POP PUSH32 0x5472616E7366657248656C7065723A3A736166655472616E736665723A207472 PUSH1 0x0 DUP4 ADD MSTORE PUSH32 0x616E73666572206661696C656400000000000000000000000000000000000000 PUSH1 0x20 DUP4 ADD MSTORE PUSH1 0x40 DUP3 ADD SWAP1 POP SWAP2 SWAP1 POP JUMP JUMPDEST PUSH1 0x0 PUSH2 0x20B8 PUSH1 0xB DUP4 PUSH2 0x247A JUMP JUMPDEST SWAP2 POP PUSH32 0x4641494C4544204275726E000000000000000000000000000000000000000000 PUSH1 0x0 DUP4 ADD MSTORE PUSH1 0x20 DUP3 ADD SWAP1 POP SWAP2 SWAP1 POP JUMP JUMPDEST PUSH2 0x20F4 DUP2 PUSH2 0x25DE JUMP JUMPDEST DUP3 MSTORE POP POP JUMP JUMPDEST PUSH1 0x0 PUSH2 0x2106 DUP3 DUP5 PUSH2 0x1D6E JUMP JUMPDEST SWAP2 POP DUP2 SWAP1 POP SWAP3 SWAP2 POP POP JUMP JUMPDEST PUSH1 0x0 PUSH1 0x20 DUP3 ADD SWAP1 POP PUSH2 0x2126 PUSH1 0x0 DUP4 ADD DUP5 PUSH2 0x1D50 JUMP JUMPDEST SWAP3 SWAP2 POP POP JUMP JUMPDEST PUSH1 0x0 PUSH1 0x60 DUP3 ADD SWAP1 POP PUSH2 0x2141 PUSH1 0x0 DUP4 ADD DUP7 PUSH2 0x1D50 JUMP JUMPDEST PUSH2 0x214E PUSH1 0x20 DUP4 ADD DUP6 PUSH2 0x1D50 JUMP JUMPDEST PUSH2 0x215B PUSH1 0x40 DUP4 ADD DUP5 PUSH2 0x1D50 JUMP JUMPDEST SWAP5 SWAP4 POP POP POP POP JUMP JUMPDEST PUSH1 0x0 PUSH1 0xA0 DUP3 ADD SWAP1 POP PUSH2 0x2178 PUSH1 0x0 DUP4 ADD DUP9 PUSH2 0x1D50 JUMP JUMPDEST PUSH2 0x2185 PUSH1 0x20 DUP4 ADD DUP8 PUSH2 0x1D50 JUMP JUMPDEST PUSH2 0x2192 PUSH1 0x40 DUP4 ADD DUP7 PUSH2 0x1D50 JUMP JUMPDEST PUSH2 0x219F PUSH1 0x60 DUP4 ADD DUP6 PUSH2 0x20EB JUMP JUMPDEST PUSH2 0x21AC PUSH1 0x80 DUP4 ADD DUP5 PUSH2 0x20EB JUMP JUMPDEST SWAP7 SWAP6 POP POP POP POP POP POP JUMP JUMPDEST PUSH1 0x0 PUSH1 0x60 DUP3 ADD SWAP1 POP PUSH2 0x21CB PUSH1 0x0 DUP4 ADD DUP7 PUSH2 0x1D50 JUMP JUMPDEST PUSH2 0x21D8 PUSH1 0x20 DUP4 ADD DUP6 PUSH2 0x1D50 JUMP JUMPDEST PUSH2 0x21E5 PUSH1 0x40 DUP4 ADD DUP5 PUSH2 0x20EB JUMP JUMPDEST SWAP5 SWAP4 POP POP POP POP JUMP JUMPDEST PUSH1 0x0 PUSH1 0x80 DUP3 ADD SWAP1 POP PUSH2 0x2202 PUSH1 0x0 DUP4 ADD DUP8 PUSH2 0x1D50 JUMP JUMPDEST PUSH2 0x220F PUSH1 0x20 DUP4 ADD DUP7 PUSH2 0x1D50 JUMP JUMPDEST PUSH2 0x221C PUSH1 0x40 DUP4 ADD DUP6 PUSH2 0x20EB JUMP JUMPDEST PUSH2 0x2229 PUSH1 0x60 DUP4 ADD DUP5 PUSH2 0x20EB JUMP JUMPDEST SWAP6 SWAP5 POP POP POP POP POP JUMP JUMPDEST PUSH1 0x0 PUSH1 0xA0 DUP3 ADD SWAP1 POP PUSH2 0x2247 PUSH1 0x0 DUP4 ADD DUP9 PUSH2 0x1D50 JUMP JUMPDEST PUSH2 0x2254 PUSH1 0x20 DUP4 ADD DUP8 PUSH2 0x1D50 JUMP JUMPDEST PUSH2 0x2261 PUSH1 0x40 DUP4 ADD DUP7 PUSH2 0x20EB JUMP JUMPDEST PUSH2 0x226E PUSH1 0x60 DUP4 ADD DUP6 PUSH2 0x20EB JUMP JUMPDEST PUSH2 0x227B PUSH1 0x80 DUP4 ADD DUP5 PUSH2 0x20EB JUMP JUMPDEST SWAP7 SWAP6 POP POP POP POP POP POP JUMP JUMPDEST PUSH1 0x0 PUSH1 0x40 DUP3 ADD SWAP1 POP PUSH2 0x229A PUSH1 0x0 DUP4 ADD DUP6 PUSH2 0x1D50 JUMP JUMPDEST PUSH2 0x22A7 PUSH1 0x20 DUP4 ADD DUP5 PUSH2 0x20EB JUMP JUMPDEST SWAP4 SWAP3 POP POP POP JUMP JUMPDEST PUSH1 0x0 PUSH1 0x20 DUP3 ADD SWAP1 POP PUSH2 0x22C3 PUSH1 0x0 DUP4 ADD DUP5 PUSH2 0x1D5F JUMP JUMPDEST SWAP3 SWAP2 POP POP JUMP JUMPDEST PUSH1 0x0 PUSH1 0x20 DUP3 ADD SWAP1 POP DUP2 DUP2 SUB PUSH1 0x0 DUP4 ADD MSTORE PUSH2 0x22E2 DUP2 PUSH2 0x1D9F JUMP JUMPDEST SWAP1 POP SWAP2 SWAP1 POP JUMP JUMPDEST PUSH1 0x0 PUSH1 0x20 DUP3 ADD SWAP1 POP DUP2 DUP2 SUB PUSH1 0x0 DUP4 ADD MSTORE PUSH2 0x2302 DUP2 PUSH2 0x1DDF JUMP JUMPDEST SWAP1 POP SWAP2 SWAP1 POP JUMP JUMPDEST PUSH1 0x0 PUSH1 0x20 DUP3 ADD SWAP1 POP DUP2 DUP2 SUB PUSH1 0x0 DUP4 ADD MSTORE PUSH2 0x2322 DUP2 PUSH2 0x1E1F JUMP JUMPDEST SWAP1 POP SWAP2 SWAP1 POP JUMP JUMPDEST PUSH1 0x0 PUSH1 0x20 DUP3 ADD SWAP1 POP DUP2 DUP2 SUB PUSH1 0x0 DUP4 ADD MSTORE PUSH2 0x2342 DUP2 PUSH2 0x1E85 JUMP JUMPDEST SWAP1 POP SWAP2 SWAP1 POP JUMP JUMPDEST PUSH1 0x0 PUSH1 0x20 DUP3 ADD SWAP1 POP DUP2 DUP2 SUB PUSH1 0x0 DUP4 ADD MSTORE PUSH2 0x2362 DUP2 PUSH2 0x1EC5 JUMP JUMPDEST SWAP1 POP SWAP2 SWAP1 POP JUMP JUMPDEST PUSH1 0x0 PUSH1 0x20 DUP3 ADD SWAP1 POP DUP2 DUP2 SUB PUSH1 0x0 DUP4 ADD MSTORE PUSH2 0x2382 DUP2 PUSH2 0x1F05 JUMP JUMPDEST SWAP1 POP SWAP2 SWAP1 POP JUMP JUMPDEST PUSH1 0x0 PUSH1 0x20 DUP3 ADD SWAP1 POP DUP2 DUP2 SUB PUSH1 0x0 DUP4 ADD MSTORE PUSH2 0x23A2 DUP2 PUSH2 0x1F45 JUMP JUMPDEST SWAP1 POP SWAP2 SWAP1 POP JUMP JUMPDEST PUSH1 0x0 PUSH1 0x20 DUP3 ADD SWAP1 POP DUP2 DUP2 SUB PUSH1 0x0 DUP4 ADD MSTORE PUSH2 0x23C2 DUP2 PUSH2 0x1F85 JUMP JUMPDEST SWAP1 POP SWAP2 SWAP1 POP JUMP JUMPDEST PUSH1 0x0 PUSH1 0x20 DUP3 ADD SWAP1 POP DUP2 DUP2 SUB PUSH1 0x0 DUP4 ADD MSTORE PUSH2 0x23E2 DUP2 PUSH2 0x1FC5 JUMP JUMPDEST SWAP1 POP SWAP2 SWAP1 POP JUMP JUMPDEST PUSH1 0x0 PUSH1 0x20 DUP3 ADD SWAP1 POP DUP2 DUP2 SUB PUSH1 0x0 DUP4 ADD MSTORE PUSH2 0x2402 DUP2 PUSH2 0x2005 JUMP JUMPDEST SWAP1 POP SWAP2 SWAP1 POP JUMP JUMPDEST PUSH1 0x0 PUSH1 0x20 DUP3 ADD SWAP1 POP DUP2 DUP2 SUB PUSH1 0x0 DUP4 ADD MSTORE PUSH2 0x2422 DUP2 PUSH2 0x2045 JUMP JUMPDEST SWAP1 POP SWAP2 SWAP1 POP JUMP JUMPDEST PUSH1 0x0 PUSH1 0x20 DUP3 ADD SWAP1 POP DUP2 DUP2 SUB PUSH1 0x0 DUP4 ADD MSTORE PUSH2 0x2442 DUP2 PUSH2 0x20AB JUMP JUMPDEST SWAP1 POP SWAP2 SWAP1 POP JUMP JUMPDEST PUSH1 0x0 PUSH1 0x20 DUP3 ADD SWAP1 POP PUSH2 0x245E PUSH1 0x0 DUP4 ADD DUP5 PUSH2 0x20EB JUMP JUMPDEST SWAP3 SWAP2 POP POP JUMP JUMPDEST PUSH1 0x0 DUP2 MLOAD SWAP1 POP SWAP2 SWAP1 POP JUMP JUMPDEST PUSH1 0x0 DUP2 SWAP1 POP SWAP3 SWAP2 POP POP JUMP JUMPDEST PUSH1 0x0 DUP3 DUP3 MSTORE PUSH1 0x20 DUP3 ADD SWAP1 POP SWAP3 SWAP2 POP POP JUMP JUMPDEST PUSH1 0x0 PUSH2 0x2496 DUP3 PUSH2 0x25DE JUMP JUMPDEST SWAP2 POP PUSH2 0x24A1 DUP4 PUSH2 0x25DE JUMP JUMPDEST SWAP3 POP DUP3 PUSH32 0xFFFFFFFFFFFFFFFFFFFFFFFFFFFFFFFFFFFFFFFFFFFFFFFFFFFFFFFFFFFFFFFF SUB DUP3 GT ISZERO PUSH2 0x24D6 JUMPI PUSH2 0x24D5 PUSH2 0x261B JUMP JUMPDEST JUMPDEST DUP3 DUP3 ADD SWAP1 POP SWAP3 SWAP2 POP POP JUMP JUMPDEST PUSH1 0x0 PUSH2 0x24EC DUP3 PUSH2 0x25DE JUMP JUMPDEST SWAP2 POP PUSH2 0x24F7 DUP4 PUSH2 0x25DE JUMP JUMPDEST SWAP3 POP DUP3 PUSH2 0x2507 JUMPI PUSH2 0x2506 PUSH2 0x264A JUMP JUMPDEST JUMPDEST DUP3 DUP3 DIV SWAP1 POP SWAP3 SWAP2 POP POP JUMP JUMPDEST PUSH1 0x0 PUSH2 0x251D DUP3 PUSH2 0x25DE JUMP JUMPDEST SWAP2 POP PUSH2 0x2528 DUP4 PUSH2 0x25DE JUMP JUMPDEST SWAP3 POP DUP2 PUSH32 0xFFFFFFFFFFFFFFFFFFFFFFFFFFFFFFFFFFFFFFFFFFFFFFFFFFFFFFFFFFFFFFFF DIV DUP4 GT DUP3 ISZERO ISZERO AND ISZERO PUSH2 0x2561 JUMPI PUSH2 0x2560 PUSH2 0x261B JUMP JUMPDEST JUMPDEST DUP3 DUP3 MUL SWAP1 POP SWAP3 SWAP2 POP POP JUMP JUMPDEST PUSH1 0x0 PUSH2 0x2577 DUP3 PUSH2 0x25DE JUMP JUMPDEST SWAP2 POP PUSH2 0x2582 DUP4 PUSH2 0x25DE JUMP JUMPDEST SWAP3 POP DUP3 DUP3 LT ISZERO PUSH2 0x2595 JUMPI PUSH2 0x2594 PUSH2 0x261B JUMP JUMPDEST JUMPDEST DUP3 DUP3 SUB SWAP1 POP SWAP3 SWAP2 POP POP JUMP JUMPDEST PUSH1 0x0 PUSH2 0x25AB DUP3 PUSH2 0x25BE JUMP JUMPDEST SWAP1 POP SWAP2 SWAP1 POP JUMP JUMPDEST PUSH1 0x0 DUP2 ISZERO ISZERO SWAP1 POP SWAP2 SWAP1 POP JUMP JUMPDEST PUSH1 0x0 PUSH20 0xFFFFFFFFFFFFFFFFFFFFFFFFFFFFFFFFFFFFFFFF DUP3 AND SWAP1 POP SWAP2 SWAP1 POP JUMP JUMPDEST PUSH1 0x0 DUP2 SWAP1 POP SWAP2 SWAP1 POP JUMP JUMPDEST PUSH1 0x0 JUMPDEST DUP4 DUP2 LT ISZERO PUSH2 0x2606 JUMPI DUP1 DUP3 ADD MLOAD DUP2 DUP5 ADD MSTORE PUSH1 0x20 DUP2 ADD SWAP1 POP PUSH2 0x25EB JUMP JUMPDEST DUP4 DUP2 GT ISZERO PUSH2 0x2615 JUMPI PUSH1 0x0 DUP5 DUP5 ADD MSTORE JUMPDEST POP POP POP POP JUMP JUMPDEST PUSH32 0x4E487B7100000000000000000000000000000000000000000000000000000000 PUSH1 0x0 MSTORE PUSH1 0x11 PUSH1 0x4 MSTORE PUSH1 0x24 PUSH1 0x0 REVERT JUMPDEST PUSH32 0x4E487B7100000000000000000000000000000000000000000000000000000000 PUSH1 0x0 MSTORE PUSH1 0x12 PUSH1 0x4 MSTORE PUSH1 0x24 PUSH1 0x0 REVERT JUMPDEST PUSH2 0x2682 DUP2 PUSH2 0x25A0 JUMP JUMPDEST DUP2 EQ PUSH2 0x268D JUMPI PUSH1 0x0 DUP1 REVERT JUMPDEST POP JUMP JUMPDEST PUSH2 0x2699 DUP2 PUSH2 0x25B2 JUMP JUMPDEST DUP2 EQ PUSH2 0x26A4 JUMPI PUSH1 0x0 DUP1 REVERT JUMPDEST POP JUMP JUMPDEST PUSH2 0x26B0 DUP2 PUSH2 0x25DE JUMP JUMPDEST DUP2 EQ PUSH2 0x26BB JUMPI PUSH1 0x0 DUP1 REVERT JUMPDEST POP JUMP INVALID PUSH21 0x72616E7366657246726F6D28616464726573732C61 PUSH5 0x6472657373 0x2C PUSH22 0x696E7432353629A2646970667358221220E9ACFDE7EC SELFDESTRUCT 0xE 0x22 0xC6 PUSH1 0xB0 PUSH15 0xEADBA942F5901D2A4158F1BB202FD7 XOR PC DUP11 PUSH4 0xCA64736F PUSH13 0x63430008000033000000000000 "
				},
				"gasEstimates": {
					"creation": {
						"codeDepositCost": "2001800",
						"executionCost": "infinite",
						"totalCost": "infinite"
					},
					"external": {
						"_addLiquidity(address,address,uint256,uint256)": "infinite",
						"_deleteLiquidity(address,address,address,uint256,uint256,uint256)": "infinite",
						"_swap(address,address,address,uint256,uint256)": "infinite",
						"createPair(address,address,address)": "infinite",
						"k()": "1173",
						"lp()": "1282",
						"min_liq()": "396",
						"price0()": "1151",
						"price1()": "1196",
						"reserve0()": "1152",
						"reserve1()": "1174",
						"token0()": "1238",
						"token1()": "1280",
						"totalSupply()": "1175",
						"updateK(address,address)": "infinite"
					},
					"internal": {
						"_updateStorage(address,address,uint256,uint256)": "infinite",
						"burn(address,address,uint256)": "infinite",
						"getBalancePair()": "1637",
						"mint(address,address,uint256)": "infinite",
						"transfer(address,address,uint256)": "infinite",
						"transferFrom(address,address,uint256)": "infinite"
					}
				},
				"methodIdentifiers": {
					"_addLiquidity(address,address,uint256,uint256)": "77619ac5",
					"_deleteLiquidity(address,address,address,uint256,uint256,uint256)": "db5159a2",
					"_swap(address,address,address,uint256,uint256)": "9ba613a8",
					"createPair(address,address,address)": "76f79738",
					"k()": "b4f40c61",
					"lp()": "313c06a0",
					"min_liq()": "8f402b56",
					"price0()": "a0a986f1",
					"price1()": "6caf25ce",
					"reserve0()": "443cb4bc",
					"reserve1()": "5a76f25e",
					"token0()": "0dfe1681",
					"token1()": "d21220a7",
					"totalSupply()": "18160ddd",
					"updateK(address,address)": "7a836a5a"
				}
			},
			"storageLayout": {
				"storage": [
					{
						"astId": 6,
						"contract": "contracts/OndaV1Pool.sol:Pair",
						"label": "owner",
						"offset": 0,
						"slot": "0",
						"type": "t_address"
					},
					{
						"astId": 8,
						"contract": "contracts/OndaV1Pool.sol:Pair",
						"label": "token0",
						"offset": 0,
						"slot": "1",
						"type": "t_address"
					},
					{
						"astId": 10,
						"contract": "contracts/OndaV1Pool.sol:Pair",
						"label": "token1",
						"offset": 0,
						"slot": "2",
						"type": "t_address"
					},
					{
						"astId": 12,
						"contract": "contracts/OndaV1Pool.sol:Pair",
						"label": "lp",
						"offset": 0,
						"slot": "3",
						"type": "t_address"
					},
					{
						"astId": 14,
						"contract": "contracts/OndaV1Pool.sol:Pair",
						"label": "k",
						"offset": 0,
						"slot": "4",
						"type": "t_uint256"
					},
					{
						"astId": 17,
						"contract": "contracts/OndaV1Pool.sol:Pair",
						"label": "key",
						"offset": 0,
						"slot": "5",
						"type": "t_uint256"
					},
					{
						"astId": 19,
						"contract": "contracts/OndaV1Pool.sol:Pair",
						"label": "reserve0",
						"offset": 0,
						"slot": "6",
						"type": "t_uint256"
					},
					{
						"astId": 21,
						"contract": "contracts/OndaV1Pool.sol:Pair",
						"label": "reserve1",
						"offset": 0,
						"slot": "7",
						"type": "t_uint256"
					},
					{
						"astId": 23,
						"contract": "contracts/OndaV1Pool.sol:Pair",
						"label": "price0",
						"offset": 0,
						"slot": "8",
						"type": "t_uint256"
					},
					{
						"astId": 25,
						"contract": "contracts/OndaV1Pool.sol:Pair",
						"label": "price1",
						"offset": 0,
						"slot": "9",
						"type": "t_uint256"
					},
					{
						"astId": 27,
						"contract": "contracts/OndaV1Pool.sol:Pair",
						"label": "totalSupply",
						"offset": 0,
						"slot": "10",
						"type": "t_uint256"
					}
				],
				"types": {
					"t_address": {
						"encoding": "inplace",
						"label": "address",
						"numberOfBytes": "20"
					},
					"t_uint256": {
						"encoding": "inplace",
						"label": "uint256",
						"numberOfBytes": "32"
					}
				}
			},
			"userdoc": {
				"kind": "user",
				"methods": {},
				"version": 1
			}
		}
	}
}