{
	"contracts/OndaV1Pool.sol": {
		"SwapPool": {
			"abi": [
				{
					"inputs": [
						{
							"internalType": "address",
							"name": "_token0",
							"type": "address"
						},
						{
							"internalType": "address",
							"name": "_token1",
							"type": "address"
						},
						{
							"internalType": "address",
							"name": "_lp",
							"type": "address"
						}
					],
					"stateMutability": "nonpayable",
					"type": "constructor"
				},
				{
					"anonymous": false,
					"inputs": [
						{
							"indexed": false,
							"internalType": "address",
							"name": "token0",
							"type": "address"
						},
						{
							"indexed": false,
							"internalType": "address",
							"name": "token1",
							"type": "address"
						},
						{
							"indexed": false,
							"internalType": "uint256",
							"name": "amount0",
							"type": "uint256"
						},
						{
							"indexed": false,
							"internalType": "uint256",
							"name": "amount1",
							"type": "uint256"
						}
					],
					"name": "AddLiquidity",
					"type": "event"
				},
				{
					"anonymous": false,
					"inputs": [
						{
							"indexed": false,
							"internalType": "address",
							"name": "token0",
							"type": "address"
						},
						{
							"indexed": false,
							"internalType": "address",
							"name": "token1",
							"type": "address"
						},
						{
							"indexed": false,
							"internalType": "uint256",
							"name": "amount0",
							"type": "uint256"
						},
						{
							"indexed": false,
							"internalType": "uint256",
							"name": "amount1",
							"type": "uint256"
						},
						{
							"indexed": false,
							"internalType": "uint256",
							"name": "liquidity",
							"type": "uint256"
						}
					],
					"name": "DeleteLiquidity",
					"type": "event"
				},
				{
					"anonymous": false,
					"inputs": [
						{
							"indexed": false,
							"internalType": "address",
							"name": "token0",
							"type": "address"
						},
						{
							"indexed": false,
							"internalType": "address",
							"name": "token1",
							"type": "address"
						},
						{
							"indexed": false,
							"internalType": "address",
							"name": "_to",
							"type": "address"
						},
						{
							"indexed": false,
							"internalType": "uint256",
							"name": "amount0",
							"type": "uint256"
						},
						{
							"indexed": false,
							"internalType": "uint256",
							"name": "amount1",
							"type": "uint256"
						},
						{
							"indexed": false,
							"internalType": "uint256",
							"name": "fee",
							"type": "uint256"
						}
					],
					"name": "SwapToken",
					"type": "event"
				},
				{
					"anonymous": false,
					"inputs": [
						{
							"indexed": false,
							"internalType": "address",
							"name": "token0",
							"type": "address"
						},
						{
							"indexed": false,
							"internalType": "address",
							"name": "token1",
							"type": "address"
						},
						{
							"indexed": false,
							"internalType": "uint256",
							"name": "newBalance0",
							"type": "uint256"
						},
						{
							"indexed": false,
							"internalType": "uint256",
							"name": "newBalance1",
							"type": "uint256"
						}
					],
					"name": "SyncStorage",
					"type": "event"
				},
				{
					"inputs": [
						{
							"internalType": "address",
							"name": "_token0",
							"type": "address"
						},
						{
							"internalType": "address",
							"name": "_token1",
							"type": "address"
						},
						{
							"internalType": "uint256",
							"name": "amount0",
							"type": "uint256"
						},
						{
							"internalType": "uint256",
							"name": "amount1",
							"type": "uint256"
						}
					],
					"name": "_addLiquidity",
					"outputs": [
						{
							"internalType": "bool",
							"name": "",
							"type": "bool"
						}
					],
					"stateMutability": "nonpayable",
					"type": "function"
				},
				{
					"inputs": [
						{
							"internalType": "address",
							"name": "_token0",
							"type": "address"
						},
						{
							"internalType": "address",
							"name": "_token1",
							"type": "address"
						},
						{
							"internalType": "address",
							"name": "_to",
							"type": "address"
						},
						{
							"internalType": "uint256",
							"name": "liquidity",
							"type": "uint256"
						},
						{
							"internalType": "uint256",
							"name": "amount0",
							"type": "uint256"
						},
						{
							"internalType": "uint256",
							"name": "amount1",
							"type": "uint256"
						}
					],
					"name": "_deleteLiquidity",
					"outputs": [
						{
							"internalType": "bool",
							"name": "",
							"type": "bool"
						}
					],
					"stateMutability": "nonpayable",
					"type": "function"
				},
				{
					"inputs": [
						{
							"internalType": "address",
							"name": "_token0",
							"type": "address"
						},
						{
							"internalType": "address",
							"name": "_token1",
							"type": "address"
						},
						{
							"internalType": "address",
							"name": "_to",
							"type": "address"
						},
						{
							"internalType": "uint256",
							"name": "amount0",
							"type": "uint256"
						},
						{
							"internalType": "uint256",
							"name": "amount1",
							"type": "uint256"
						}
					],
					"name": "_swap",
					"outputs": [
						{
							"internalType": "bool",
							"name": "",
							"type": "bool"
						}
					],
					"stateMutability": "nonpayable",
					"type": "function"
				},
				{
					"inputs": [],
					"name": "k",
					"outputs": [
						{
							"internalType": "uint256",
							"name": "",
							"type": "uint256"
						}
					],
					"stateMutability": "view",
					"type": "function"
				},
				{
					"inputs": [],
					"name": "lp",
					"outputs": [
						{
							"internalType": "address",
							"name": "",
							"type": "address"
						}
					],
					"stateMutability": "view",
					"type": "function"
				},
				{
					"inputs": [],
					"name": "min_liq",
					"outputs": [
						{
							"internalType": "uint256",
							"name": "",
							"type": "uint256"
						}
					],
					"stateMutability": "view",
					"type": "function"
				},
				{
					"inputs": [],
					"name": "price0",
					"outputs": [
						{
							"internalType": "uint256",
							"name": "",
							"type": "uint256"
						}
					],
					"stateMutability": "view",
					"type": "function"
				},
				{
					"inputs": [],
					"name": "price1",
					"outputs": [
						{
							"internalType": "uint256",
							"name": "",
							"type": "uint256"
						}
					],
					"stateMutability": "view",
					"type": "function"
				},
				{
					"inputs": [],
					"name": "reserve0",
					"outputs": [
						{
							"internalType": "uint256",
							"name": "",
							"type": "uint256"
						}
					],
					"stateMutability": "view",
					"type": "function"
				},
				{
					"inputs": [],
					"name": "reserve1",
					"outputs": [
						{
							"internalType": "uint256",
							"name": "",
							"type": "uint256"
						}
					],
					"stateMutability": "view",
					"type": "function"
				},
				{
					"inputs": [],
					"name": "token0",
					"outputs": [
						{
							"internalType": "address",
							"name": "",
							"type": "address"
						}
					],
					"stateMutability": "view",
					"type": "function"
				},
				{
					"inputs": [],
					"name": "token1",
					"outputs": [
						{
							"internalType": "address",
							"name": "",
							"type": "address"
						}
					],
					"stateMutability": "view",
					"type": "function"
				},
				{
					"inputs": [],
					"name": "totalSupply",
					"outputs": [
						{
							"internalType": "uint256",
							"name": "",
							"type": "uint256"
						}
					],
					"stateMutability": "view",
					"type": "function"
				}
			],
			"devdoc": {
				"kind": "dev",
				"methods": {},
				"version": 1
			},
			"evm": {
				"assembly": "    /* \"contracts/OndaV1Pool.sol\":194:7461  contract SwapPool {... */\n  mstore(0x40, 0x80)\n    /* \"contracts/OndaV1Pool.sol\":354:355  0 */\n  0x00\n    /* \"contracts/OndaV1Pool.sol\":335:355  uint private key = 0 */\n  0x05\n  sstore\n    /* \"contracts/OndaV1Pool.sol\":1296:1438  constructor(address _token0, address _token1, address _lp) {... */\n  callvalue\n  dup1\n  iszero\n  tag_1\n  jumpi\n  0x00\n  dup1\n  revert\ntag_1:\n  pop\n  mload(0x40)\n  sub(codesize, bytecodeSize)\n  dup1\n  bytecodeSize\n  dup4\n  codecopy\n  dup2\n  dup2\n  add\n  0x40\n  mstore\n  dup2\n  add\n  swap1\n  tag_2\n  swap2\n  swap1\n  tag_3\n  jump\t// in\ntag_2:\n    /* \"contracts/OndaV1Pool.sol\":1368:1378  msg.sender */\n  caller\n    /* \"contracts/OndaV1Pool.sol\":1360:1365  owner */\n  0x00\n  dup1\n    /* \"contracts/OndaV1Pool.sol\":1360:1378  owner = msg.sender */\n  0x0100\n  exp\n  dup2\n  sload\n  dup2\n  0xffffffffffffffffffffffffffffffffffffffff\n  mul\n  not\n  and\n  swap1\n  dup4\n  0xffffffffffffffffffffffffffffffffffffffff\n  and\n  mul\n  or\n  swap1\n  sstore\n  pop\n    /* \"contracts/OndaV1Pool.sol\":1392:1399  _token0 */\n  dup3\n    /* \"contracts/OndaV1Pool.sol\":1383:1389  token0 */\n  0x01\n  0x00\n    /* \"contracts/OndaV1Pool.sol\":1383:1399  token0 = _token0 */\n  0x0100\n  exp\n  dup2\n  sload\n  dup2\n  0xffffffffffffffffffffffffffffffffffffffff\n  mul\n  not\n  and\n  swap1\n  dup4\n  0xffffffffffffffffffffffffffffffffffffffff\n  and\n  mul\n  or\n  swap1\n  sstore\n  pop\n    /* \"contracts/OndaV1Pool.sol\":1413:1420  _token1 */\n  dup2\n    /* \"contracts/OndaV1Pool.sol\":1404:1410  token1 */\n  0x02\n  0x00\n    /* \"contracts/OndaV1Pool.sol\":1404:1420  token1 = _token1 */\n  0x0100\n  exp\n  dup2\n  sload\n  dup2\n  0xffffffffffffffffffffffffffffffffffffffff\n  mul\n  not\n  and\n  swap1\n  dup4\n  0xffffffffffffffffffffffffffffffffffffffff\n  and\n  mul\n  or\n  swap1\n  sstore\n  pop\n    /* \"contracts/OndaV1Pool.sol\":1430:1433  _lp */\n  dup1\n    /* \"contracts/OndaV1Pool.sol\":1425:1427  lp */\n  0x03\n  0x00\n    /* \"contracts/OndaV1Pool.sol\":1425:1433  lp = _lp */\n  0x0100\n  exp\n  dup2\n  sload\n  dup2\n  0xffffffffffffffffffffffffffffffffffffffff\n  mul\n  not\n  and\n  swap1\n  dup4\n  0xffffffffffffffffffffffffffffffffffffffff\n  and\n  mul\n  or\n  swap1\n  sstore\n  pop\n    /* \"contracts/OndaV1Pool.sol\":1296:1438  constructor(address _token0, address _token1, address _lp) {... */\n  pop\n  pop\n  pop\n    /* \"contracts/OndaV1Pool.sol\":194:7461  contract SwapPool {... */\n  jump(tag_6)\n    /* \"#utility.yul\":88:205   */\ntag_8:\n    /* \"#utility.yul\":197:198   */\n  0x00\n    /* \"#utility.yul\":194:195   */\n  dup1\n    /* \"#utility.yul\":187:199   */\n  revert\n    /* \"#utility.yul\":334:460   */\ntag_10:\n    /* \"#utility.yul\":371:378   */\n  0x00\n    /* \"#utility.yul\":411:453   */\n  0xffffffffffffffffffffffffffffffffffffffff\n    /* \"#utility.yul\":404:409   */\n  dup3\n    /* \"#utility.yul\":400:454   */\n  and\n    /* \"#utility.yul\":389:454   */\n  swap1\n  pop\n    /* \"#utility.yul\":334:460   */\n  swap2\n  swap1\n  pop\n  jump\t// out\n    /* \"#utility.yul\":466:562   */\ntag_11:\n    /* \"#utility.yul\":503:510   */\n  0x00\n    /* \"#utility.yul\":532:556   */\n  tag_20\n    /* \"#utility.yul\":550:555   */\n  dup3\n    /* \"#utility.yul\":532:556   */\n  tag_10\n  jump\t// in\ntag_20:\n    /* \"#utility.yul\":521:556   */\n  swap1\n  pop\n    /* \"#utility.yul\":466:562   */\n  swap2\n  swap1\n  pop\n  jump\t// out\n    /* \"#utility.yul\":568:690   */\ntag_12:\n    /* \"#utility.yul\":641:665   */\n  tag_22\n    /* \"#utility.yul\":659:664   */\n  dup2\n    /* \"#utility.yul\":641:665   */\n  tag_11\n  jump\t// in\ntag_22:\n    /* \"#utility.yul\":634:639   */\n  dup2\n    /* \"#utility.yul\":631:666   */\n  eq\n    /* \"#utility.yul\":621:684   */\n  tag_23\n  jumpi\n    /* \"#utility.yul\":680:681   */\n  0x00\n    /* \"#utility.yul\":677:678   */\n  dup1\n    /* \"#utility.yul\":670:682   */\n  revert\n    /* \"#utility.yul\":621:684   */\ntag_23:\n    /* \"#utility.yul\":568:690   */\n  pop\n  jump\t// out\n    /* \"#utility.yul\":696:839   */\ntag_13:\n    /* \"#utility.yul\":753:758   */\n  0x00\n    /* \"#utility.yul\":784:790   */\n  dup2\n    /* \"#utility.yul\":778:791   */\n  mload\n    /* \"#utility.yul\":769:791   */\n  swap1\n  pop\n    /* \"#utility.yul\":800:833   */\n  tag_25\n    /* \"#utility.yul\":827:832   */\n  dup2\n    /* \"#utility.yul\":800:833   */\n  tag_12\n  jump\t// in\ntag_25:\n    /* \"#utility.yul\":696:839   */\n  swap3\n  swap2\n  pop\n  pop\n  jump\t// out\n    /* \"#utility.yul\":845:1508   */\ntag_3:\n    /* \"#utility.yul\":933:939   */\n  0x00\n    /* \"#utility.yul\":941:947   */\n  dup1\n    /* \"#utility.yul\":949:955   */\n  0x00\n    /* \"#utility.yul\":998:1000   */\n  0x60\n    /* \"#utility.yul\":986:995   */\n  dup5\n    /* \"#utility.yul\":977:984   */\n  dup7\n    /* \"#utility.yul\":973:996   */\n  sub\n    /* \"#utility.yul\":969:1001   */\n  slt\n    /* \"#utility.yul\":966:1085   */\n  iszero\n  tag_27\n  jumpi\n    /* \"#utility.yul\":1004:1083   */\n  tag_28\n  tag_8\n  jump\t// in\ntag_28:\n    /* \"#utility.yul\":966:1085   */\ntag_27:\n    /* \"#utility.yul\":1124:1125   */\n  0x00\n    /* \"#utility.yul\":1149:1213   */\n  tag_29\n    /* \"#utility.yul\":1205:1212   */\n  dup7\n    /* \"#utility.yul\":1196:1202   */\n  dup3\n    /* \"#utility.yul\":1185:1194   */\n  dup8\n    /* \"#utility.yul\":1181:1203   */\n  add\n    /* \"#utility.yul\":1149:1213   */\n  tag_13\n  jump\t// in\ntag_29:\n    /* \"#utility.yul\":1139:1213   */\n  swap4\n  pop\n    /* \"#utility.yul\":1095:1223   */\n  pop\n    /* \"#utility.yul\":1262:1264   */\n  0x20\n    /* \"#utility.yul\":1288:1352   */\n  tag_30\n    /* \"#utility.yul\":1344:1351   */\n  dup7\n    /* \"#utility.yul\":1335:1341   */\n  dup3\n    /* \"#utility.yul\":1324:1333   */\n  dup8\n    /* \"#utility.yul\":1320:1342   */\n  add\n    /* \"#utility.yul\":1288:1352   */\n  tag_13\n  jump\t// in\ntag_30:\n    /* \"#utility.yul\":1278:1352   */\n  swap3\n  pop\n    /* \"#utility.yul\":1233:1362   */\n  pop\n    /* \"#utility.yul\":1401:1403   */\n  0x40\n    /* \"#utility.yul\":1427:1491   */\n  tag_31\n    /* \"#utility.yul\":1483:1490   */\n  dup7\n    /* \"#utility.yul\":1474:1480   */\n  dup3\n    /* \"#utility.yul\":1463:1472   */\n  dup8\n    /* \"#utility.yul\":1459:1481   */\n  add\n    /* \"#utility.yul\":1427:1491   */\n  tag_13\n  jump\t// in\ntag_31:\n    /* \"#utility.yul\":1417:1491   */\n  swap2\n  pop\n    /* \"#utility.yul\":1372:1501   */\n  pop\n    /* \"#utility.yul\":845:1508   */\n  swap3\n  pop\n  swap3\n  pop\n  swap3\n  jump\t// out\n    /* \"contracts/OndaV1Pool.sol\":194:7461  contract SwapPool {... */\ntag_6:\n  dataSize(sub_0)\n  dup1\n  dataOffset(sub_0)\n  0x00\n  codecopy\n  0x00\n  return\nstop\n\nsub_0: assembly {\n        /* \"contracts/OndaV1Pool.sol\":194:7461  contract SwapPool {... */\n      mstore(0x40, 0x80)\n      callvalue\n      dup1\n      iszero\n      tag_1\n      jumpi\n      0x00\n      dup1\n      revert\n    tag_1:\n      pop\n      jumpi(tag_2, lt(calldatasize, 0x04))\n      shr(0xe0, calldataload(0x00))\n      dup1\n      0x77619ac5\n      gt\n      tag_16\n      jumpi\n      dup1\n      0xa0a986f1\n      gt\n      tag_17\n      jumpi\n      dup1\n      0xa0a986f1\n      eq\n      tag_12\n      jumpi\n      dup1\n      0xb4f40c61\n      eq\n      tag_13\n      jumpi\n      dup1\n      0xd21220a7\n      eq\n      tag_14\n      jumpi\n      dup1\n      0xdb5159a2\n      eq\n      tag_15\n      jumpi\n      jump(tag_2)\n    tag_17:\n      dup1\n      0x77619ac5\n      eq\n      tag_9\n      jumpi\n      dup1\n      0x8f402b56\n      eq\n      tag_10\n      jumpi\n      dup1\n      0x9ba613a8\n      eq\n      tag_11\n      jumpi\n      jump(tag_2)\n    tag_16:\n      dup1\n      0x0dfe1681\n      eq\n      tag_3\n      jumpi\n      dup1\n      0x18160ddd\n      eq\n      tag_4\n      jumpi\n      dup1\n      0x313c06a0\n      eq\n      tag_5\n      jumpi\n      dup1\n      0x443cb4bc\n      eq\n      tag_6\n      jumpi\n      dup1\n      0x5a76f25e\n      eq\n      tag_7\n      jumpi\n      dup1\n      0x6caf25ce\n      eq\n      tag_8\n      jumpi\n    tag_2:\n      0x00\n      dup1\n      revert\n        /* \"contracts/OndaV1Pool.sol\":245:266  address public token0 */\n    tag_3:\n      tag_18\n      tag_19\n      jump\t// in\n    tag_18:\n      mload(0x40)\n      tag_20\n      swap2\n      swap1\n      tag_21\n      jump\t// in\n    tag_20:\n      mload(0x40)\n      dup1\n      swap2\n      sub\n      swap1\n      return\n        /* \"contracts/OndaV1Pool.sol\":451:474  uint public totalSupply */\n    tag_4:\n      tag_22\n      tag_23\n      jump\t// in\n    tag_22:\n      mload(0x40)\n      tag_24\n      swap2\n      swap1\n      tag_25\n      jump\t// in\n    tag_24:\n      mload(0x40)\n      dup1\n      swap2\n      sub\n      swap1\n      return\n        /* \"contracts/OndaV1Pool.sol\":295:312  address public lp */\n    tag_5:\n      tag_26\n      tag_27\n      jump\t// in\n    tag_26:\n      mload(0x40)\n      tag_28\n      swap2\n      swap1\n      tag_21\n      jump\t// in\n    tag_28:\n      mload(0x40)\n      dup1\n      swap2\n      sub\n      swap1\n      return\n        /* \"contracts/OndaV1Pool.sol\":359:379  uint public reserve0 */\n    tag_6:\n      tag_29\n      tag_30\n      jump\t// in\n    tag_29:\n      mload(0x40)\n      tag_31\n      swap2\n      swap1\n      tag_25\n      jump\t// in\n    tag_31:\n      mload(0x40)\n      dup1\n      swap2\n      sub\n      swap1\n      return\n        /* \"contracts/OndaV1Pool.sol\":383:403  uint public reserve1 */\n    tag_7:\n      tag_32\n      tag_33\n      jump\t// in\n    tag_32:\n      mload(0x40)\n      tag_34\n      swap2\n      swap1\n      tag_25\n      jump\t// in\n    tag_34:\n      mload(0x40)\n      dup1\n      swap2\n      sub\n      swap1\n      return\n        /* \"contracts/OndaV1Pool.sol\":429:447  uint public price1 */\n    tag_8:\n      tag_35\n      tag_36\n      jump\t// in\n    tag_35:\n      mload(0x40)\n      tag_37\n      swap2\n      swap1\n      tag_25\n      jump\t// in\n    tag_37:\n      mload(0x40)\n      dup1\n      swap2\n      sub\n      swap1\n      return\n        /* \"contracts/OndaV1Pool.sol\":3598:5107  function _addLiquidity(address _token0, address _token1, uint amount0, uint amount1) public returns (bool) {... */\n    tag_9:\n      tag_38\n      0x04\n      dup1\n      calldatasize\n      sub\n      dup2\n      add\n      swap1\n      tag_39\n      swap2\n      swap1\n      tag_40\n      jump\t// in\n    tag_39:\n      tag_41\n      jump\t// in\n    tag_38:\n      mload(0x40)\n      tag_42\n      swap2\n      swap1\n      tag_43\n      jump\t// in\n    tag_42:\n      mload(0x40)\n      dup1\n      swap2\n      sub\n      swap1\n      return\n        /* \"contracts/OndaV1Pool.sol\":478:514  uint public constant min_liq = 10**2 */\n    tag_10:\n      tag_44\n      tag_45\n      jump\t// in\n    tag_44:\n      mload(0x40)\n      tag_46\n      swap2\n      swap1\n      tag_25\n      jump\t// in\n    tag_46:\n      mload(0x40)\n      dup1\n      swap2\n      sub\n      swap1\n      return\n        /* \"contracts/OndaV1Pool.sol\":6210:7456  function _swap(address _token0, address _token1, address _to, uint amount0, uint amount1) public returns (bool) {... */\n    tag_11:\n      tag_47\n      0x04\n      dup1\n      calldatasize\n      sub\n      dup2\n      add\n      swap1\n      tag_48\n      swap2\n      swap1\n      tag_49\n      jump\t// in\n    tag_48:\n      tag_50\n      jump\t// in\n    tag_47:\n      mload(0x40)\n      tag_51\n      swap2\n      swap1\n      tag_43\n      jump\t// in\n    tag_51:\n      mload(0x40)\n      dup1\n      swap2\n      sub\n      swap1\n      return\n        /* \"contracts/OndaV1Pool.sol\":407:425  uint public price0 */\n    tag_12:\n      tag_52\n      tag_53\n      jump\t// in\n    tag_52:\n      mload(0x40)\n      tag_54\n      swap2\n      swap1\n      tag_25\n      jump\t// in\n    tag_54:\n      mload(0x40)\n      dup1\n      swap2\n      sub\n      swap1\n      return\n        /* \"contracts/OndaV1Pool.sol\":318:331  uint public k */\n    tag_13:\n      tag_55\n      tag_56\n      jump\t// in\n    tag_55:\n      mload(0x40)\n      tag_57\n      swap2\n      swap1\n      tag_25\n      jump\t// in\n    tag_57:\n      mload(0x40)\n      dup1\n      swap2\n      sub\n      swap1\n      return\n        /* \"contracts/OndaV1Pool.sol\":270:291  address public token1 */\n    tag_14:\n      tag_58\n      tag_59\n      jump\t// in\n    tag_58:\n      mload(0x40)\n      tag_60\n      swap2\n      swap1\n      tag_21\n      jump\t// in\n    tag_60:\n      mload(0x40)\n      dup1\n      swap2\n      sub\n      swap1\n      return\n        /* \"contracts/OndaV1Pool.sol\":5112:6205  function _deleteLiquidity(address _token0, address _token1, address _to, uint liquidity, uint amount0, uint amount1) public returns (bool) {... */\n    tag_15:\n      tag_61\n      0x04\n      dup1\n      calldatasize\n      sub\n      dup2\n      add\n      swap1\n      tag_62\n      swap2\n      swap1\n      tag_63\n      jump\t// in\n    tag_62:\n      tag_64\n      jump\t// in\n    tag_61:\n      mload(0x40)\n      tag_65\n      swap2\n      swap1\n      tag_43\n      jump\t// in\n    tag_65:\n      mload(0x40)\n      dup1\n      swap2\n      sub\n      swap1\n      return\n        /* \"contracts/OndaV1Pool.sol\":245:266  address public token0 */\n    tag_19:\n      0x01\n      0x00\n      swap1\n      sload\n      swap1\n      0x0100\n      exp\n      swap1\n      div\n      0xffffffffffffffffffffffffffffffffffffffff\n      and\n      dup2\n      jump\t// out\n        /* \"contracts/OndaV1Pool.sol\":451:474  uint public totalSupply */\n    tag_23:\n      sload(0x0a)\n      dup2\n      jump\t// out\n        /* \"contracts/OndaV1Pool.sol\":295:312  address public lp */\n    tag_27:\n      0x03\n      0x00\n      swap1\n      sload\n      swap1\n      0x0100\n      exp\n      swap1\n      div\n      0xffffffffffffffffffffffffffffffffffffffff\n      and\n      dup2\n      jump\t// out\n        /* \"contracts/OndaV1Pool.sol\":359:379  uint public reserve0 */\n    tag_30:\n      sload(0x06)\n      dup2\n      jump\t// out\n        /* \"contracts/OndaV1Pool.sol\":383:403  uint public reserve1 */\n    tag_33:\n      sload(0x07)\n      dup2\n      jump\t// out\n        /* \"contracts/OndaV1Pool.sol\":429:447  uint public price1 */\n    tag_36:\n      sload(0x09)\n      dup2\n      jump\t// out\n        /* \"contracts/OndaV1Pool.sol\":3598:5107  function _addLiquidity(address _token0, address _token1, uint amount0, uint amount1) public returns (bool) {... */\n    tag_41:\n        /* \"contracts/OndaV1Pool.sol\":3699:3703  bool */\n      0x00\n        /* \"contracts/OndaV1Pool.sol\":3711:3732  uint balanceContract0 */\n      dup1\n        /* \"contracts/OndaV1Pool.sol\":3734:3755  uint balanceContract1 */\n      0x00\n        /* \"contracts/OndaV1Pool.sol\":3759:3775  getBalancePair() */\n      tag_67\n        /* \"contracts/OndaV1Pool.sol\":3759:3773  getBalancePair */\n      tag_68\n        /* \"contracts/OndaV1Pool.sol\":3759:3775  getBalancePair() */\n      jump\t// in\n    tag_67:\n        /* \"contracts/OndaV1Pool.sol\":3710:3775  (uint balanceContract0, uint balanceContract1) = getBalancePair() */\n      swap2\n      pop\n      swap2\n      pop\n        /* \"contracts/OndaV1Pool.sol\":3799:3805  token0 */\n      0x01\n      0x00\n      swap1\n      sload\n      swap1\n      0x0100\n      exp\n      swap1\n      div\n      0xffffffffffffffffffffffffffffffffffffffff\n      and\n        /* \"contracts/OndaV1Pool.sol\":3788:3805  _token0 == token0 */\n      0xffffffffffffffffffffffffffffffffffffffff\n      and\n        /* \"contracts/OndaV1Pool.sol\":3788:3795  _token0 */\n      dup8\n        /* \"contracts/OndaV1Pool.sol\":3788:3805  _token0 == token0 */\n      0xffffffffffffffffffffffffffffffffffffffff\n      and\n      eq\n        /* \"contracts/OndaV1Pool.sol\":3788:3826  _token0 == token0 && _token1 == token1 */\n      dup1\n      iszero\n      tag_69\n      jumpi\n      pop\n        /* \"contracts/OndaV1Pool.sol\":3820:3826  token1 */\n      0x02\n      0x00\n      swap1\n      sload\n      swap1\n      0x0100\n      exp\n      swap1\n      div\n      0xffffffffffffffffffffffffffffffffffffffff\n      and\n        /* \"contracts/OndaV1Pool.sol\":3809:3826  _token1 == token1 */\n      0xffffffffffffffffffffffffffffffffffffffff\n      and\n        /* \"contracts/OndaV1Pool.sol\":3809:3816  _token1 */\n      dup7\n        /* \"contracts/OndaV1Pool.sol\":3809:3826  _token1 == token1 */\n      0xffffffffffffffffffffffffffffffffffffffff\n      and\n      eq\n        /* \"contracts/OndaV1Pool.sol\":3788:3826  _token0 == token0 && _token1 == token1 */\n    tag_69:\n        /* \"contracts/OndaV1Pool.sol\":3780:3847  require(_token0 == token0 && _token1 == token1, 'Not used address') */\n      tag_70\n      jumpi\n      mload(0x40)\n      0x08c379a000000000000000000000000000000000000000000000000000000000\n      dup2\n      mstore\n      0x04\n      add\n      tag_71\n      swap1\n      tag_72\n      jump\t// in\n    tag_71:\n      mload(0x40)\n      dup1\n      swap2\n      sub\n      swap1\n      revert\n    tag_70:\n        /* \"contracts/OndaV1Pool.sol\":3871:3878  amount1 */\n      dup4\n        /* \"contracts/OndaV1Pool.sol\":3860:3867  amount0 */\n      dup6\n        /* \"contracts/OndaV1Pool.sol\":3860:3878  amount0 == amount1 */\n      eq\n        /* \"contracts/OndaV1Pool.sol\":3852:3892  require(amount0 == amount1, 'Not equal') */\n      tag_73\n      jumpi\n      mload(0x40)\n      0x08c379a000000000000000000000000000000000000000000000000000000000\n      dup2\n      mstore\n      0x04\n      add\n      tag_74\n      swap1\n      tag_75\n      jump\t// in\n    tag_74:\n      mload(0x40)\n      dup1\n      swap2\n      sub\n      swap1\n      revert\n    tag_73:\n        /* \"contracts/OndaV1Pool.sol\":3897:3973  TransferHelper.safeTransferFrom(_token0, msg.sender, address(this), amount0) */\n      tag_76\n        /* \"contracts/OndaV1Pool.sol\":3929:3936  _token0 */\n      dup8\n        /* \"contracts/OndaV1Pool.sol\":3938:3948  msg.sender */\n      caller\n        /* \"contracts/OndaV1Pool.sol\":3958:3962  this */\n      address\n        /* \"contracts/OndaV1Pool.sol\":3965:3972  amount0 */\n      dup9\n        /* \"contracts/OndaV1Pool.sol\":3897:3928  TransferHelper.safeTransferFrom */\n      tag_77\n        /* \"contracts/OndaV1Pool.sol\":3897:3973  TransferHelper.safeTransferFrom(_token0, msg.sender, address(this), amount0) */\n      jump\t// in\n    tag_76:\n        /* \"contracts/OndaV1Pool.sol\":3984:4060  TransferHelper.safeTransferFrom(_token1, msg.sender, address(this), amount1) */\n      tag_78\n        /* \"contracts/OndaV1Pool.sol\":4016:4023  _token1 */\n      dup7\n        /* \"contracts/OndaV1Pool.sol\":4025:4035  msg.sender */\n      caller\n        /* \"contracts/OndaV1Pool.sol\":4045:4049  this */\n      address\n        /* \"contracts/OndaV1Pool.sol\":4052:4059  amount1 */\n      dup8\n        /* \"contracts/OndaV1Pool.sol\":3984:4015  TransferHelper.safeTransferFrom */\n      tag_77\n        /* \"contracts/OndaV1Pool.sol\":3984:4060  TransferHelper.safeTransferFrom(_token1, msg.sender, address(this), amount1) */\n      jump\t// in\n    tag_78:\n        /* \"contracts/OndaV1Pool.sol\":4073:4087  uint _balance0 */\n      0x00\n        /* \"contracts/OndaV1Pool.sol\":4097:4104  _token0 */\n      dup8\n        /* \"contracts/OndaV1Pool.sol\":4090:4115  IERC20(_token0).balanceOf */\n      0xffffffffffffffffffffffffffffffffffffffff\n      and\n      0x70a08231\n        /* \"contracts/OndaV1Pool.sol\":4124:4128  this */\n      address\n        /* \"contracts/OndaV1Pool.sol\":4090:4130  IERC20(_token0).balanceOf(address(this)) */\n      mload(0x40)\n      dup3\n      0xffffffff\n      and\n      0xe0\n      shl\n      dup2\n      mstore\n      0x04\n      add\n      tag_79\n      swap2\n      swap1\n      tag_21\n      jump\t// in\n    tag_79:\n      0x20\n      mload(0x40)\n      dup1\n      dup4\n      sub\n      dup2\n      dup7\n      gas\n      staticcall\n      iszero\n      dup1\n      iszero\n      tag_81\n      jumpi\n      returndatasize\n      0x00\n      dup1\n      returndatacopy\n      revert(0x00, returndatasize)\n    tag_81:\n      pop\n      pop\n      pop\n      pop\n      mload(0x40)\n      returndatasize\n      not(0x1f)\n      0x1f\n      dup3\n      add\n      and\n      dup3\n      add\n      dup1\n      0x40\n      mstore\n      pop\n      dup2\n      add\n      swap1\n      tag_82\n      swap2\n      swap1\n      tag_83\n      jump\t// in\n    tag_82:\n        /* \"contracts/OndaV1Pool.sol\":4073:4130  uint _balance0 = IERC20(_token0).balanceOf(address(this)) */\n      swap1\n      pop\n        /* \"contracts/OndaV1Pool.sol\":4138:4152  uint _balance1 */\n      0x00\n        /* \"contracts/OndaV1Pool.sol\":4162:4169  _token1 */\n      dup8\n        /* \"contracts/OndaV1Pool.sol\":4155:4180  IERC20(_token1).balanceOf */\n      0xffffffffffffffffffffffffffffffffffffffff\n      and\n      0x70a08231\n        /* \"contracts/OndaV1Pool.sol\":4189:4193  this */\n      address\n        /* \"contracts/OndaV1Pool.sol\":4155:4195  IERC20(_token1).balanceOf(address(this)) */\n      mload(0x40)\n      dup3\n      0xffffffff\n      and\n      0xe0\n      shl\n      dup2\n      mstore\n      0x04\n      add\n      tag_84\n      swap2\n      swap1\n      tag_21\n      jump\t// in\n    tag_84:\n      0x20\n      mload(0x40)\n      dup1\n      dup4\n      sub\n      dup2\n      dup7\n      gas\n      staticcall\n      iszero\n      dup1\n      iszero\n      tag_86\n      jumpi\n      returndatasize\n      0x00\n      dup1\n      returndatacopy\n      revert(0x00, returndatasize)\n    tag_86:\n      pop\n      pop\n      pop\n      pop\n      mload(0x40)\n      returndatasize\n      not(0x1f)\n      0x1f\n      dup3\n      add\n      and\n      dup3\n      add\n      dup1\n      0x40\n      mstore\n      pop\n      dup2\n      add\n      swap1\n      tag_87\n      swap2\n      swap1\n      tag_83\n      jump\t// in\n    tag_87:\n        /* \"contracts/OndaV1Pool.sol\":4138:4195  uint _balance1 = IERC20(_token1).balanceOf(address(this)) */\n      swap1\n      pop\n        /* \"contracts/OndaV1Pool.sol\":4208:4222  uint liquidity */\n      0x00\n        /* \"contracts/OndaV1Pool.sol\":4252:4253  0 */\n      dup1\n        /* \"contracts/OndaV1Pool.sol\":4237:4248  totalSupply */\n      sload(0x0a)\n        /* \"contracts/OndaV1Pool.sol\":4237:4253  totalSupply == 0 */\n      sub\n        /* \"contracts/OndaV1Pool.sol\":4233:4784  if (totalSupply == 0) {... */\n      tag_88\n      jumpi\n        /* \"contracts/OndaV1Pool.sol\":4279:4365  Math.sqrt(((_balance0 - balanceContract0) * (_balance1 - balanceContract1)) - min_liq) */\n      tag_89\n        /* \"contracts/OndaV1Pool.sol\":509:514  10**2 */\n      0x64\n        /* \"contracts/OndaV1Pool.sol\":4336:4352  balanceContract1 */\n      dup6\n        /* \"contracts/OndaV1Pool.sol\":4324:4333  _balance1 */\n      dup5\n        /* \"contracts/OndaV1Pool.sol\":4324:4352  _balance1 - balanceContract1 */\n      tag_90\n      swap2\n      swap1\n      tag_91\n      jump\t// in\n    tag_90:\n        /* \"contracts/OndaV1Pool.sol\":4303:4319  balanceContract0 */\n      dup8\n        /* \"contracts/OndaV1Pool.sol\":4291:4300  _balance0 */\n      dup7\n        /* \"contracts/OndaV1Pool.sol\":4291:4319  _balance0 - balanceContract0 */\n      tag_92\n      swap2\n      swap1\n      tag_91\n      jump\t// in\n    tag_92:\n        /* \"contracts/OndaV1Pool.sol\":4290:4353  (_balance0 - balanceContract0) * (_balance1 - balanceContract1) */\n      tag_93\n      swap2\n      swap1\n      tag_94\n      jump\t// in\n    tag_93:\n        /* \"contracts/OndaV1Pool.sol\":4289:4364  ((_balance0 - balanceContract0) * (_balance1 - balanceContract1)) - min_liq */\n      tag_95\n      swap2\n      swap1\n      tag_91\n      jump\t// in\n    tag_95:\n        /* \"contracts/OndaV1Pool.sol\":4279:4288  Math.sqrt */\n      tag_96\n        /* \"contracts/OndaV1Pool.sol\":4279:4365  Math.sqrt(((_balance0 - balanceContract0) * (_balance1 - balanceContract1)) - min_liq) */\n      jump\t// in\n    tag_89:\n        /* \"contracts/OndaV1Pool.sol\":4267:4365  liquidity = Math.sqrt(((_balance0 - balanceContract0) * (_balance1 - balanceContract1)) - min_liq) */\n      swap1\n      pop\n        /* \"contracts/OndaV1Pool.sol\":4397:4398  0 */\n      0x00\n        /* \"contracts/OndaV1Pool.sol\":4385:4394  liquidity */\n      dup2\n        /* \"contracts/OndaV1Pool.sol\":4385:4398  liquidity > 0 */\n      gt\n        /* \"contracts/OndaV1Pool.sol\":4377:4418  require(liquidity > 0, 'Minus liquidity') */\n      tag_97\n      jumpi\n      mload(0x40)\n      0x08c379a000000000000000000000000000000000000000000000000000000000\n      dup2\n      mstore\n      0x04\n      add\n      tag_98\n      swap1\n      tag_99\n      jump\t// in\n    tag_98:\n      mload(0x40)\n      dup1\n      swap2\n      sub\n      swap1\n      revert\n    tag_97:\n        /* \"contracts/OndaV1Pool.sol\":4430:4461  mint(lp, msg.sender, liquidity) */\n      tag_100\n        /* \"contracts/OndaV1Pool.sol\":4435:4437  lp */\n      0x03\n      0x00\n      swap1\n      sload\n      swap1\n      0x0100\n      exp\n      swap1\n      div\n      0xffffffffffffffffffffffffffffffffffffffff\n      and\n        /* \"contracts/OndaV1Pool.sol\":4439:4449  msg.sender */\n      caller\n        /* \"contracts/OndaV1Pool.sol\":4451:4460  liquidity */\n      dup4\n        /* \"contracts/OndaV1Pool.sol\":4430:4434  mint */\n      tag_101\n        /* \"contracts/OndaV1Pool.sol\":4430:4461  mint(lp, msg.sender, liquidity) */\n      jump\t// in\n    tag_100:\n        /* \"contracts/OndaV1Pool.sol\":4473:4498  updateK(_token0, _token1) */\n      tag_102\n        /* \"contracts/OndaV1Pool.sol\":4481:4488  _token0 */\n      dup11\n        /* \"contracts/OndaV1Pool.sol\":4490:4497  _token1 */\n      dup11\n        /* \"contracts/OndaV1Pool.sol\":4473:4480  updateK */\n      tag_103\n        /* \"contracts/OndaV1Pool.sol\":4473:4498  updateK(_token0, _token1) */\n      jump\t// in\n    tag_102:\n      pop\n        /* \"contracts/OndaV1Pool.sol\":4233:4784  if (totalSupply == 0) {... */\n      jump(tag_104)\n    tag_88:\n        /* \"contracts/OndaV1Pool.sol\":4537:4679  Math.min(((_balance0 - balanceContract0) * totalSupply) / balanceContract0, ((_balance1 - balanceContract1) * totalSupply) / balanceContract1) */\n      tag_105\n        /* \"contracts/OndaV1Pool.sol\":4595:4611  balanceContract0 */\n      dup6\n        /* \"contracts/OndaV1Pool.sol\":4580:4591  totalSupply */\n      sload(0x0a)\n        /* \"contracts/OndaV1Pool.sol\":4560:4576  balanceContract0 */\n      dup8\n        /* \"contracts/OndaV1Pool.sol\":4548:4557  _balance0 */\n      dup7\n        /* \"contracts/OndaV1Pool.sol\":4548:4576  _balance0 - balanceContract0 */\n      tag_106\n      swap2\n      swap1\n      tag_91\n      jump\t// in\n    tag_106:\n        /* \"contracts/OndaV1Pool.sol\":4547:4591  (_balance0 - balanceContract0) * totalSupply */\n      tag_107\n      swap2\n      swap1\n      tag_94\n      jump\t// in\n    tag_107:\n        /* \"contracts/OndaV1Pool.sol\":4546:4611  ((_balance0 - balanceContract0) * totalSupply) / balanceContract0 */\n      tag_108\n      swap2\n      swap1\n      tag_109\n      jump\t// in\n    tag_108:\n        /* \"contracts/OndaV1Pool.sol\":4662:4678  balanceContract1 */\n      dup6\n        /* \"contracts/OndaV1Pool.sol\":4647:4658  totalSupply */\n      sload(0x0a)\n        /* \"contracts/OndaV1Pool.sol\":4627:4643  balanceContract1 */\n      dup8\n        /* \"contracts/OndaV1Pool.sol\":4615:4624  _balance1 */\n      dup7\n        /* \"contracts/OndaV1Pool.sol\":4615:4643  _balance1 - balanceContract1 */\n      tag_110\n      swap2\n      swap1\n      tag_91\n      jump\t// in\n    tag_110:\n        /* \"contracts/OndaV1Pool.sol\":4614:4658  (_balance1 - balanceContract1) * totalSupply */\n      tag_111\n      swap2\n      swap1\n      tag_94\n      jump\t// in\n    tag_111:\n        /* \"contracts/OndaV1Pool.sol\":4613:4678  ((_balance1 - balanceContract1) * totalSupply) / balanceContract1 */\n      tag_112\n      swap2\n      swap1\n      tag_109\n      jump\t// in\n    tag_112:\n        /* \"contracts/OndaV1Pool.sol\":4537:4545  Math.min */\n      tag_113\n        /* \"contracts/OndaV1Pool.sol\":4537:4679  Math.min(((_balance0 - balanceContract0) * totalSupply) / balanceContract0, ((_balance1 - balanceContract1) * totalSupply) / balanceContract1) */\n      jump\t// in\n    tag_105:\n        /* \"contracts/OndaV1Pool.sol\":4525:4679  liquidity = Math.min(((_balance0 - balanceContract0) * totalSupply) / balanceContract0, ((_balance1 - balanceContract1) * totalSupply) / balanceContract1) */\n      swap1\n      pop\n        /* \"contracts/OndaV1Pool.sol\":4711:4712  0 */\n      0x00\n        /* \"contracts/OndaV1Pool.sol\":4699:4708  liquidity */\n      dup2\n        /* \"contracts/OndaV1Pool.sol\":4699:4712  liquidity > 0 */\n      gt\n        /* \"contracts/OndaV1Pool.sol\":4691:4732  require(liquidity > 0, 'Minus liquidity') */\n      tag_114\n      jumpi\n      mload(0x40)\n      0x08c379a000000000000000000000000000000000000000000000000000000000\n      dup2\n      mstore\n      0x04\n      add\n      tag_115\n      swap1\n      tag_99\n      jump\t// in\n    tag_115:\n      mload(0x40)\n      dup1\n      swap2\n      sub\n      swap1\n      revert\n    tag_114:\n        /* \"contracts/OndaV1Pool.sol\":4744:4775  mint(lp, msg.sender, liquidity) */\n      tag_116\n        /* \"contracts/OndaV1Pool.sol\":4749:4751  lp */\n      0x03\n      0x00\n      swap1\n      sload\n      swap1\n      0x0100\n      exp\n      swap1\n      div\n      0xffffffffffffffffffffffffffffffffffffffff\n      and\n        /* \"contracts/OndaV1Pool.sol\":4753:4763  msg.sender */\n      caller\n        /* \"contracts/OndaV1Pool.sol\":4765:4774  liquidity */\n      dup4\n        /* \"contracts/OndaV1Pool.sol\":4744:4748  mint */\n      tag_101\n        /* \"contracts/OndaV1Pool.sol\":4744:4775  mint(lp, msg.sender, liquidity) */\n      jump\t// in\n    tag_116:\n        /* \"contracts/OndaV1Pool.sol\":4233:4784  if (totalSupply == 0) {... */\n    tag_104:\n        /* \"contracts/OndaV1Pool.sol\":4804:4813  liquidity */\n      dup1\n        /* \"contracts/OndaV1Pool.sol\":4791:4802  totalSupply */\n      0x0a\n      0x00\n        /* \"contracts/OndaV1Pool.sol\":4791:4813  totalSupply+=liquidity */\n      dup3\n      dup3\n      sload\n      tag_117\n      swap2\n      swap1\n      tag_118\n      jump\t// in\n    tag_117:\n      swap3\n      pop\n      pop\n      dup2\n      swap1\n      sstore\n      pop\n        /* \"contracts/OndaV1Pool.sol\":4824:4840  uint256 balance0 */\n      0x00\n        /* \"contracts/OndaV1Pool.sol\":4850:4857  _token0 */\n      dup11\n        /* \"contracts/OndaV1Pool.sol\":4843:4868  IERC20(_token0).balanceOf */\n      0xffffffffffffffffffffffffffffffffffffffff\n      and\n      0x70a08231\n        /* \"contracts/OndaV1Pool.sol\":4877:4881  this */\n      address\n        /* \"contracts/OndaV1Pool.sol\":4843:4883  IERC20(_token0).balanceOf(address(this)) */\n      mload(0x40)\n      dup3\n      0xffffffff\n      and\n      0xe0\n      shl\n      dup2\n      mstore\n      0x04\n      add\n      tag_119\n      swap2\n      swap1\n      tag_21\n      jump\t// in\n    tag_119:\n      0x20\n      mload(0x40)\n      dup1\n      dup4\n      sub\n      dup2\n      dup7\n      gas\n      staticcall\n      iszero\n      dup1\n      iszero\n      tag_121\n      jumpi\n      returndatasize\n      0x00\n      dup1\n      returndatacopy\n      revert(0x00, returndatasize)\n    tag_121:\n      pop\n      pop\n      pop\n      pop\n      mload(0x40)\n      returndatasize\n      not(0x1f)\n      0x1f\n      dup3\n      add\n      and\n      dup3\n      add\n      dup1\n      0x40\n      mstore\n      pop\n      dup2\n      add\n      swap1\n      tag_122\n      swap2\n      swap1\n      tag_83\n      jump\t// in\n    tag_122:\n        /* \"contracts/OndaV1Pool.sol\":4824:4883  uint256 balance0 = IERC20(_token0).balanceOf(address(this)) */\n      swap1\n      pop\n        /* \"contracts/OndaV1Pool.sol\":4894:4910  uint256 balance1 */\n      0x00\n        /* \"contracts/OndaV1Pool.sol\":4920:4927  _token1 */\n      dup11\n        /* \"contracts/OndaV1Pool.sol\":4913:4938  IERC20(_token1).balanceOf */\n      0xffffffffffffffffffffffffffffffffffffffff\n      and\n      0x70a08231\n        /* \"contracts/OndaV1Pool.sol\":4947:4951  this */\n      address\n        /* \"contracts/OndaV1Pool.sol\":4913:4953  IERC20(_token1).balanceOf(address(this)) */\n      mload(0x40)\n      dup3\n      0xffffffff\n      and\n      0xe0\n      shl\n      dup2\n      mstore\n      0x04\n      add\n      tag_123\n      swap2\n      swap1\n      tag_21\n      jump\t// in\n    tag_123:\n      0x20\n      mload(0x40)\n      dup1\n      dup4\n      sub\n      dup2\n      dup7\n      gas\n      staticcall\n      iszero\n      dup1\n      iszero\n      tag_125\n      jumpi\n      returndatasize\n      0x00\n      dup1\n      returndatacopy\n      revert(0x00, returndatasize)\n    tag_125:\n      pop\n      pop\n      pop\n      pop\n      mload(0x40)\n      returndatasize\n      not(0x1f)\n      0x1f\n      dup3\n      add\n      and\n      dup3\n      add\n      dup1\n      0x40\n      mstore\n      pop\n      dup2\n      add\n      swap1\n      tag_126\n      swap2\n      swap1\n      tag_83\n      jump\t// in\n    tag_126:\n        /* \"contracts/OndaV1Pool.sol\":4894:4953  uint256 balance1 = IERC20(_token1).balanceOf(address(this)) */\n      swap1\n      pop\n        /* \"contracts/OndaV1Pool.sol\":4964:5016  _updateStorage(_token0, _token1, balance0, balance1) */\n      tag_127\n        /* \"contracts/OndaV1Pool.sol\":4979:4986  _token0 */\n      dup13\n        /* \"contracts/OndaV1Pool.sol\":4988:4995  _token1 */\n      dup13\n        /* \"contracts/OndaV1Pool.sol\":4997:5005  balance0 */\n      dup5\n        /* \"contracts/OndaV1Pool.sol\":5007:5015  balance1 */\n      dup5\n        /* \"contracts/OndaV1Pool.sol\":4964:4978  _updateStorage */\n      tag_128\n        /* \"contracts/OndaV1Pool.sol\":4964:5016  _updateStorage(_token0, _token1, balance0, balance1) */\n      jump\t// in\n    tag_127:\n        /* \"contracts/OndaV1Pool.sol\":5032:5080  AddLiquidity(_token0, _token1, amount0, amount1) */\n      0xd2491a9b4fe81a7cd4511e8b7b7743951b061dad5bed7da8a7795b080ee08c7e\n        /* \"contracts/OndaV1Pool.sol\":5045:5052  _token0 */\n      dup13\n        /* \"contracts/OndaV1Pool.sol\":5054:5061  _token1 */\n      dup13\n        /* \"contracts/OndaV1Pool.sol\":5063:5070  amount0 */\n      dup13\n        /* \"contracts/OndaV1Pool.sol\":5072:5079  amount1 */\n      dup13\n        /* \"contracts/OndaV1Pool.sol\":5032:5080  AddLiquidity(_token0, _token1, amount0, amount1) */\n      mload(0x40)\n      tag_129\n      swap5\n      swap4\n      swap3\n      swap2\n      swap1\n      tag_130\n      jump\t// in\n    tag_129:\n      mload(0x40)\n      dup1\n      swap2\n      sub\n      swap1\n      log1\n        /* \"contracts/OndaV1Pool.sol\":5098:5102  true */\n      0x01\n        /* \"contracts/OndaV1Pool.sol\":5091:5102  return true */\n      swap8\n      pop\n      pop\n      pop\n      pop\n      pop\n      pop\n      pop\n      pop\n        /* \"contracts/OndaV1Pool.sol\":3598:5107  function _addLiquidity(address _token0, address _token1, uint amount0, uint amount1) public returns (bool) {... */\n      swap5\n      swap4\n      pop\n      pop\n      pop\n      pop\n      jump\t// out\n        /* \"contracts/OndaV1Pool.sol\":478:514  uint public constant min_liq = 10**2 */\n    tag_45:\n        /* \"contracts/OndaV1Pool.sol\":509:514  10**2 */\n      0x64\n        /* \"contracts/OndaV1Pool.sol\":478:514  uint public constant min_liq = 10**2 */\n      dup2\n      jump\t// out\n        /* \"contracts/OndaV1Pool.sol\":6210:7456  function _swap(address _token0, address _token1, address _to, uint amount0, uint amount1) public returns (bool) {... */\n    tag_50:\n        /* \"contracts/OndaV1Pool.sol\":6316:6320  bool */\n      0x00\n        /* \"contracts/OndaV1Pool.sol\":6328:6349  uint balanceContract0 */\n      dup1\n        /* \"contracts/OndaV1Pool.sol\":6351:6372  uint balanceContract1 */\n      0x00\n        /* \"contracts/OndaV1Pool.sol\":6376:6392  getBalancePair() */\n      tag_132\n        /* \"contracts/OndaV1Pool.sol\":6376:6390  getBalancePair */\n      tag_68\n        /* \"contracts/OndaV1Pool.sol\":6376:6392  getBalancePair() */\n      jump\t// in\n    tag_132:\n        /* \"contracts/OndaV1Pool.sol\":6327:6392  (uint balanceContract0, uint balanceContract1) = getBalancePair() */\n      swap2\n      pop\n      swap2\n      pop\n        /* \"contracts/OndaV1Pool.sol\":6416:6422  token0 */\n      0x01\n      0x00\n      swap1\n      sload\n      swap1\n      0x0100\n      exp\n      swap1\n      div\n      0xffffffffffffffffffffffffffffffffffffffff\n      and\n        /* \"contracts/OndaV1Pool.sol\":6405:6422  _token0 == token0 */\n      0xffffffffffffffffffffffffffffffffffffffff\n      and\n        /* \"contracts/OndaV1Pool.sol\":6405:6412  _token0 */\n      dup9\n        /* \"contracts/OndaV1Pool.sol\":6405:6422  _token0 == token0 */\n      0xffffffffffffffffffffffffffffffffffffffff\n      and\n      eq\n        /* \"contracts/OndaV1Pool.sol\":6405:6443  _token0 == token0 && _token1 == token1 */\n      dup1\n      iszero\n      tag_133\n      jumpi\n      pop\n        /* \"contracts/OndaV1Pool.sol\":6437:6443  token1 */\n      0x02\n      0x00\n      swap1\n      sload\n      swap1\n      0x0100\n      exp\n      swap1\n      div\n      0xffffffffffffffffffffffffffffffffffffffff\n      and\n        /* \"contracts/OndaV1Pool.sol\":6426:6443  _token1 == token1 */\n      0xffffffffffffffffffffffffffffffffffffffff\n      and\n        /* \"contracts/OndaV1Pool.sol\":6426:6433  _token1 */\n      dup8\n        /* \"contracts/OndaV1Pool.sol\":6426:6443  _token1 == token1 */\n      0xffffffffffffffffffffffffffffffffffffffff\n      and\n      eq\n        /* \"contracts/OndaV1Pool.sol\":6405:6443  _token0 == token0 && _token1 == token1 */\n    tag_133:\n        /* \"contracts/OndaV1Pool.sol\":6397:6464  require(_token0 == token0 && _token1 == token1, 'Not used address') */\n      tag_134\n      jumpi\n      mload(0x40)\n      0x08c379a000000000000000000000000000000000000000000000000000000000\n      dup2\n      mstore\n      0x04\n      add\n      tag_135\n      swap1\n      tag_72\n      jump\t// in\n    tag_135:\n      mload(0x40)\n      dup1\n      swap2\n      sub\n      swap1\n      revert\n    tag_134:\n        /* \"contracts/OndaV1Pool.sol\":6487:6488  0 */\n      0x00\n        /* \"contracts/OndaV1Pool.sol\":6477:6484  amount0 */\n      dup6\n        /* \"contracts/OndaV1Pool.sol\":6477:6488  amount0 > 0 */\n      gt\n        /* \"contracts/OndaV1Pool.sol\":6477:6503  amount0 > 0 || amount1 > 0 */\n      dup1\n      tag_136\n      jumpi\n      pop\n        /* \"contracts/OndaV1Pool.sol\":6502:6503  0 */\n      0x00\n        /* \"contracts/OndaV1Pool.sol\":6492:6499  amount1 */\n      dup5\n        /* \"contracts/OndaV1Pool.sol\":6492:6503  amount1 > 0 */\n      gt\n        /* \"contracts/OndaV1Pool.sol\":6477:6503  amount0 > 0 || amount1 > 0 */\n    tag_136:\n        /* \"contracts/OndaV1Pool.sol\":6469:6519  require(amount0 > 0 || amount1 > 0, 'Zero amount') */\n      tag_137\n      jumpi\n      mload(0x40)\n      0x08c379a000000000000000000000000000000000000000000000000000000000\n      dup2\n      mstore\n      0x04\n      add\n      tag_138\n      swap1\n      tag_139\n      jump\t// in\n    tag_138:\n      mload(0x40)\n      dup1\n      swap2\n      sub\n      swap1\n      revert\n    tag_137:\n        /* \"contracts/OndaV1Pool.sol\":6543:6544  0 */\n      0x00\n        /* \"contracts/OndaV1Pool.sol\":6532:6539  amount0 */\n      dup6\n        /* \"contracts/OndaV1Pool.sol\":6532:6544  amount0 == 0 */\n      eq\n        /* \"contracts/OndaV1Pool.sol\":6532:6560  amount0 == 0 || amount1 == 0 */\n      dup1\n      tag_140\n      jumpi\n      pop\n        /* \"contracts/OndaV1Pool.sol\":6559:6560  0 */\n      0x00\n        /* \"contracts/OndaV1Pool.sol\":6548:6555  amount1 */\n      dup5\n        /* \"contracts/OndaV1Pool.sol\":6548:6560  amount1 == 0 */\n      eq\n        /* \"contracts/OndaV1Pool.sol\":6532:6560  amount0 == 0 || amount1 == 0 */\n    tag_140:\n        /* \"contracts/OndaV1Pool.sol\":6524:6576  require(amount0 == 0 || amount1 == 0, 'Zero amount') */\n      tag_141\n      jumpi\n      mload(0x40)\n      0x08c379a000000000000000000000000000000000000000000000000000000000\n      dup2\n      mstore\n      0x04\n      add\n      tag_142\n      swap1\n      tag_139\n      jump\t// in\n    tag_142:\n      mload(0x40)\n      dup1\n      swap2\n      sub\n      swap1\n      revert\n    tag_141:\n        /* \"contracts/OndaV1Pool.sol\":6596:6603  _token0 */\n      dup8\n        /* \"contracts/OndaV1Pool.sol\":6589:6603  _to != _token0 */\n      0xffffffffffffffffffffffffffffffffffffffff\n      and\n        /* \"contracts/OndaV1Pool.sol\":6589:6592  _to */\n      dup7\n        /* \"contracts/OndaV1Pool.sol\":6589:6603  _to != _token0 */\n      0xffffffffffffffffffffffffffffffffffffffff\n      and\n      eq\n      iszero\n        /* \"contracts/OndaV1Pool.sol\":6589:6621  _to != _token0 && _to != _token1 */\n      dup1\n      iszero\n      tag_143\n      jumpi\n      pop\n        /* \"contracts/OndaV1Pool.sol\":6614:6621  _token1 */\n      dup7\n        /* \"contracts/OndaV1Pool.sol\":6607:6621  _to != _token1 */\n      0xffffffffffffffffffffffffffffffffffffffff\n      and\n        /* \"contracts/OndaV1Pool.sol\":6607:6610  _to */\n      dup7\n        /* \"contracts/OndaV1Pool.sol\":6607:6621  _to != _token1 */\n      0xffffffffffffffffffffffffffffffffffffffff\n      and\n      eq\n      iszero\n        /* \"contracts/OndaV1Pool.sol\":6589:6621  _to != _token0 && _to != _token1 */\n    tag_143:\n        /* \"contracts/OndaV1Pool.sol\":6581:6642  require(_to != _token0 && _to != _token1, 'Not used address') */\n      tag_144\n      jumpi\n      mload(0x40)\n      0x08c379a000000000000000000000000000000000000000000000000000000000\n      dup2\n      mstore\n      0x04\n      add\n      tag_145\n      swap1\n      tag_72\n      jump\t// in\n    tag_145:\n      mload(0x40)\n      dup1\n      swap2\n      sub\n      swap1\n      revert\n    tag_144:\n        /* \"contracts/OndaV1Pool.sol\":6647:6662  uint fee_token0 */\n      0x00\n        /* \"contracts/OndaV1Pool.sol\":6682:6686  1000 */\n      0x03e8\n        /* \"contracts/OndaV1Pool.sol\":6676:6678  20 */\n      0x14\n        /* \"contracts/OndaV1Pool.sol\":6666:6673  amount0 */\n      dup8\n        /* \"contracts/OndaV1Pool.sol\":6666:6678  amount0 * 20 */\n      tag_146\n      swap2\n      swap1\n      tag_94\n      jump\t// in\n    tag_146:\n        /* \"contracts/OndaV1Pool.sol\":6665:6686  (amount0 * 20) / 1000 */\n      tag_147\n      swap2\n      swap1\n      tag_109\n      jump\t// in\n    tag_147:\n        /* \"contracts/OndaV1Pool.sol\":6647:6686  uint fee_token0 = (amount0 * 20) / 1000 */\n      swap1\n      pop\n        /* \"contracts/OndaV1Pool.sol\":6691:6706  uint fee_token1 */\n      0x00\n        /* \"contracts/OndaV1Pool.sol\":6726:6730  1000 */\n      0x03e8\n        /* \"contracts/OndaV1Pool.sol\":6720:6722  20 */\n      0x14\n        /* \"contracts/OndaV1Pool.sol\":6710:6717  amount1 */\n      dup8\n        /* \"contracts/OndaV1Pool.sol\":6710:6722  amount1 * 20 */\n      tag_148\n      swap2\n      swap1\n      tag_94\n      jump\t// in\n    tag_148:\n        /* \"contracts/OndaV1Pool.sol\":6709:6730  (amount1 * 20) / 1000 */\n      tag_149\n      swap2\n      swap1\n      tag_109\n      jump\t// in\n    tag_149:\n        /* \"contracts/OndaV1Pool.sol\":6691:6730  uint fee_token1 = (amount1 * 20) / 1000 */\n      swap1\n      pop\n        /* \"contracts/OndaV1Pool.sol\":6749:6750  0 */\n      0x00\n        /* \"contracts/OndaV1Pool.sol\":6739:6746  amount0 */\n      dup8\n        /* \"contracts/OndaV1Pool.sol\":6739:6750  amount0 > 0 */\n      gt\n        /* \"contracts/OndaV1Pool.sol\":6739:6766  amount0 > 0 && amount1 == 0 */\n      dup1\n      iszero\n      tag_150\n      jumpi\n      pop\n        /* \"contracts/OndaV1Pool.sol\":6765:6766  0 */\n      0x00\n        /* \"contracts/OndaV1Pool.sol\":6754:6761  amount1 */\n      dup7\n        /* \"contracts/OndaV1Pool.sol\":6754:6766  amount1 == 0 */\n      eq\n        /* \"contracts/OndaV1Pool.sol\":6739:6766  amount0 > 0 && amount1 == 0 */\n    tag_150:\n        /* \"contracts/OndaV1Pool.sol\":6735:6934  if (amount0 > 0 && amount1 == 0) {... */\n      iszero\n      tag_151\n      jumpi\n        /* \"contracts/OndaV1Pool.sol\":6774:6872  TransferHelper.safeTransferFrom(_token1, msg.sender, address(this), (amount0 + fee_token0)*price0) */\n      tag_152\n        /* \"contracts/OndaV1Pool.sol\":6806:6813  _token1 */\n      dup10\n        /* \"contracts/OndaV1Pool.sol\":6815:6825  msg.sender */\n      caller\n        /* \"contracts/OndaV1Pool.sol\":6835:6839  this */\n      address\n        /* \"contracts/OndaV1Pool.sol\":6865:6871  price0 */\n      sload(0x08)\n        /* \"contracts/OndaV1Pool.sol\":6853:6863  fee_token0 */\n      dup7\n        /* \"contracts/OndaV1Pool.sol\":6843:6850  amount0 */\n      dup13\n        /* \"contracts/OndaV1Pool.sol\":6843:6863  amount0 + fee_token0 */\n      tag_153\n      swap2\n      swap1\n      tag_118\n      jump\t// in\n    tag_153:\n        /* \"contracts/OndaV1Pool.sol\":6842:6871  (amount0 + fee_token0)*price0 */\n      tag_154\n      swap2\n      swap1\n      tag_94\n      jump\t// in\n    tag_154:\n        /* \"contracts/OndaV1Pool.sol\":6774:6805  TransferHelper.safeTransferFrom */\n      tag_77\n        /* \"contracts/OndaV1Pool.sol\":6774:6872  TransferHelper.safeTransferFrom(_token1, msg.sender, address(this), (amount0 + fee_token0)*price0) */\n      jump\t// in\n    tag_152:\n        /* \"contracts/OndaV1Pool.sol\":6878:6928  TransferHelper.safeTransfer(_token0, _to, amount0) */\n      tag_155\n        /* \"contracts/OndaV1Pool.sol\":6906:6913  _token0 */\n      dup11\n        /* \"contracts/OndaV1Pool.sol\":6915:6918  _to */\n      dup10\n        /* \"contracts/OndaV1Pool.sol\":6920:6927  amount0 */\n      dup10\n        /* \"contracts/OndaV1Pool.sol\":6878:6905  TransferHelper.safeTransfer */\n      tag_156\n        /* \"contracts/OndaV1Pool.sol\":6878:6928  TransferHelper.safeTransfer(_token0, _to, amount0) */\n      jump\t// in\n    tag_155:\n        /* \"contracts/OndaV1Pool.sol\":6735:6934  if (amount0 > 0 && amount1 == 0) {... */\n    tag_151:\n        /* \"contracts/OndaV1Pool.sol\":6958:6959  0 */\n      0x00\n        /* \"contracts/OndaV1Pool.sol\":6948:6955  amount1 */\n      dup7\n        /* \"contracts/OndaV1Pool.sol\":6948:6959  amount1 > 0 */\n      gt\n        /* \"contracts/OndaV1Pool.sol\":6948:6975  amount1 > 0 && amount0 == 0 */\n      dup1\n      iszero\n      tag_157\n      jumpi\n      pop\n        /* \"contracts/OndaV1Pool.sol\":6974:6975  0 */\n      0x00\n        /* \"contracts/OndaV1Pool.sol\":6963:6970  amount0 */\n      dup8\n        /* \"contracts/OndaV1Pool.sol\":6963:6975  amount0 == 0 */\n      eq\n        /* \"contracts/OndaV1Pool.sol\":6948:6975  amount1 > 0 && amount0 == 0 */\n    tag_157:\n        /* \"contracts/OndaV1Pool.sol\":6944:7161  if (amount1 > 0 && amount0 == 0) {... */\n      iszero\n      tag_158\n      jumpi\n        /* \"contracts/OndaV1Pool.sol\":6989:7087  TransferHelper.safeTransferFrom(_token0, msg.sender, address(this), (amount1 + fee_token1)*price1) */\n      tag_159\n        /* \"contracts/OndaV1Pool.sol\":7021:7028  _token0 */\n      dup11\n        /* \"contracts/OndaV1Pool.sol\":7030:7040  msg.sender */\n      caller\n        /* \"contracts/OndaV1Pool.sol\":7050:7054  this */\n      address\n        /* \"contracts/OndaV1Pool.sol\":7080:7086  price1 */\n      sload(0x09)\n        /* \"contracts/OndaV1Pool.sol\":7068:7078  fee_token1 */\n      dup6\n        /* \"contracts/OndaV1Pool.sol\":7058:7065  amount1 */\n      dup12\n        /* \"contracts/OndaV1Pool.sol\":7058:7078  amount1 + fee_token1 */\n      tag_160\n      swap2\n      swap1\n      tag_118\n      jump\t// in\n    tag_160:\n        /* \"contracts/OndaV1Pool.sol\":7057:7086  (amount1 + fee_token1)*price1 */\n      tag_161\n      swap2\n      swap1\n      tag_94\n      jump\t// in\n    tag_161:\n        /* \"contracts/OndaV1Pool.sol\":6989:7020  TransferHelper.safeTransferFrom */\n      tag_77\n        /* \"contracts/OndaV1Pool.sol\":6989:7087  TransferHelper.safeTransferFrom(_token0, msg.sender, address(this), (amount1 + fee_token1)*price1) */\n      jump\t// in\n    tag_159:\n        /* \"contracts/OndaV1Pool.sol\":7099:7149  TransferHelper.safeTransfer(_token1, _to, amount1) */\n      tag_162\n        /* \"contracts/OndaV1Pool.sol\":7127:7134  _token1 */\n      dup10\n        /* \"contracts/OndaV1Pool.sol\":7136:7139  _to */\n      dup10\n        /* \"contracts/OndaV1Pool.sol\":7141:7148  amount1 */\n      dup9\n        /* \"contracts/OndaV1Pool.sol\":7099:7126  TransferHelper.safeTransfer */\n      tag_156\n        /* \"contracts/OndaV1Pool.sol\":7099:7149  TransferHelper.safeTransfer(_token1, _to, amount1) */\n      jump\t// in\n    tag_162:\n        /* \"contracts/OndaV1Pool.sol\":6944:7161  if (amount1 > 0 && amount0 == 0) {... */\n    tag_158:\n        /* \"contracts/OndaV1Pool.sol\":7171:7187  uint newBalance0 */\n      0x00\n        /* \"contracts/OndaV1Pool.sol\":7197:7204  _token0 */\n      dup11\n        /* \"contracts/OndaV1Pool.sol\":7190:7215  IERC20(_token0).balanceOf */\n      0xffffffffffffffffffffffffffffffffffffffff\n      and\n      0x70a08231\n        /* \"contracts/OndaV1Pool.sol\":7224:7228  this */\n      address\n        /* \"contracts/OndaV1Pool.sol\":7190:7230  IERC20(_token0).balanceOf(address(this)) */\n      mload(0x40)\n      dup3\n      0xffffffff\n      and\n      0xe0\n      shl\n      dup2\n      mstore\n      0x04\n      add\n      tag_163\n      swap2\n      swap1\n      tag_21\n      jump\t// in\n    tag_163:\n      0x20\n      mload(0x40)\n      dup1\n      dup4\n      sub\n      dup2\n      dup7\n      gas\n      staticcall\n      iszero\n      dup1\n      iszero\n      tag_165\n      jumpi\n      returndatasize\n      0x00\n      dup1\n      returndatacopy\n      revert(0x00, returndatasize)\n    tag_165:\n      pop\n      pop\n      pop\n      pop\n      mload(0x40)\n      returndatasize\n      not(0x1f)\n      0x1f\n      dup3\n      add\n      and\n      dup3\n      add\n      dup1\n      0x40\n      mstore\n      pop\n      dup2\n      add\n      swap1\n      tag_166\n      swap2\n      swap1\n      tag_83\n      jump\t// in\n    tag_166:\n        /* \"contracts/OndaV1Pool.sol\":7171:7230  uint newBalance0 = IERC20(_token0).balanceOf(address(this)) */\n      swap1\n      pop\n        /* \"contracts/OndaV1Pool.sol\":7235:7251  uint newBalance1 */\n      0x00\n        /* \"contracts/OndaV1Pool.sol\":7261:7268  _token1 */\n      dup11\n        /* \"contracts/OndaV1Pool.sol\":7254:7279  IERC20(_token1).balanceOf */\n      0xffffffffffffffffffffffffffffffffffffffff\n      and\n      0x70a08231\n        /* \"contracts/OndaV1Pool.sol\":7288:7292  this */\n      address\n        /* \"contracts/OndaV1Pool.sol\":7254:7294  IERC20(_token1).balanceOf(address(this)) */\n      mload(0x40)\n      dup3\n      0xffffffff\n      and\n      0xe0\n      shl\n      dup2\n      mstore\n      0x04\n      add\n      tag_167\n      swap2\n      swap1\n      tag_21\n      jump\t// in\n    tag_167:\n      0x20\n      mload(0x40)\n      dup1\n      dup4\n      sub\n      dup2\n      dup7\n      gas\n      staticcall\n      iszero\n      dup1\n      iszero\n      tag_169\n      jumpi\n      returndatasize\n      0x00\n      dup1\n      returndatacopy\n      revert(0x00, returndatasize)\n    tag_169:\n      pop\n      pop\n      pop\n      pop\n      mload(0x40)\n      returndatasize\n      not(0x1f)\n      0x1f\n      dup3\n      add\n      and\n      dup3\n      add\n      dup1\n      0x40\n      mstore\n      pop\n      dup2\n      add\n      swap1\n      tag_170\n      swap2\n      swap1\n      tag_83\n      jump\t// in\n    tag_170:\n        /* \"contracts/OndaV1Pool.sol\":7235:7294  uint newBalance1 = IERC20(_token1).balanceOf(address(this)) */\n      swap1\n      pop\n        /* \"contracts/OndaV1Pool.sol\":7302:7360  _updateStorage(_token0, _token1, newBalance0, newBalance1) */\n      tag_171\n        /* \"contracts/OndaV1Pool.sol\":7317:7324  _token0 */\n      dup13\n        /* \"contracts/OndaV1Pool.sol\":7326:7333  _token1 */\n      dup13\n        /* \"contracts/OndaV1Pool.sol\":7335:7346  newBalance0 */\n      dup5\n        /* \"contracts/OndaV1Pool.sol\":7348:7359  newBalance1 */\n      dup5\n        /* \"contracts/OndaV1Pool.sol\":7302:7316  _updateStorage */\n      tag_128\n        /* \"contracts/OndaV1Pool.sol\":7302:7360  _updateStorage(_token0, _token1, newBalance0, newBalance1) */\n      jump\t// in\n    tag_171:\n        /* \"contracts/OndaV1Pool.sol\":7376:7429  SwapToken(_token0, _token1, _to, amount0, amount1, 4) */\n      0xe14f465c1f5191875f1473bbf0f8cc3ff0158a220fa5711eff06ff04a83a1b48\n        /* \"contracts/OndaV1Pool.sol\":7386:7393  _token0 */\n      dup13\n        /* \"contracts/OndaV1Pool.sol\":7395:7402  _token1 */\n      dup13\n        /* \"contracts/OndaV1Pool.sol\":7404:7407  _to */\n      dup13\n        /* \"contracts/OndaV1Pool.sol\":7409:7416  amount0 */\n      dup13\n        /* \"contracts/OndaV1Pool.sol\":7418:7425  amount1 */\n      dup13\n        /* \"contracts/OndaV1Pool.sol\":7427:7428  4 */\n      0x04\n        /* \"contracts/OndaV1Pool.sol\":7376:7429  SwapToken(_token0, _token1, _to, amount0, amount1, 4) */\n      mload(0x40)\n      tag_172\n      swap7\n      swap6\n      swap5\n      swap4\n      swap3\n      swap2\n      swap1\n      tag_173\n      jump\t// in\n    tag_172:\n      mload(0x40)\n      dup1\n      swap2\n      sub\n      swap1\n      log1\n        /* \"contracts/OndaV1Pool.sol\":7447:7451  true */\n      0x01\n        /* \"contracts/OndaV1Pool.sol\":7440:7451  return true */\n      swap7\n      pop\n      pop\n      pop\n      pop\n      pop\n      pop\n      pop\n        /* \"contracts/OndaV1Pool.sol\":6210:7456  function _swap(address _token0, address _token1, address _to, uint amount0, uint amount1) public returns (bool) {... */\n      swap6\n      swap5\n      pop\n      pop\n      pop\n      pop\n      pop\n      jump\t// out\n        /* \"contracts/OndaV1Pool.sol\":407:425  uint public price0 */\n    tag_53:\n      sload(0x08)\n      dup2\n      jump\t// out\n        /* \"contracts/OndaV1Pool.sol\":318:331  uint public k */\n    tag_56:\n      sload(0x04)\n      dup2\n      jump\t// out\n        /* \"contracts/OndaV1Pool.sol\":270:291  address public token1 */\n    tag_59:\n      0x02\n      0x00\n      swap1\n      sload\n      swap1\n      0x0100\n      exp\n      swap1\n      div\n      0xffffffffffffffffffffffffffffffffffffffff\n      and\n      dup2\n      jump\t// out\n        /* \"contracts/OndaV1Pool.sol\":5112:6205  function _deleteLiquidity(address _token0, address _token1, address _to, uint liquidity, uint amount0, uint amount1) public returns (bool) {... */\n    tag_64:\n        /* \"contracts/OndaV1Pool.sol\":5245:5249  bool */\n      0x00\n        /* \"contracts/OndaV1Pool.sol\":5257:5278  uint balanceContract0 */\n      dup1\n        /* \"contracts/OndaV1Pool.sol\":5280:5301  uint balanceContract1 */\n      0x00\n        /* \"contracts/OndaV1Pool.sol\":5305:5321  getBalancePair() */\n      tag_175\n        /* \"contracts/OndaV1Pool.sol\":5305:5319  getBalancePair */\n      tag_68\n        /* \"contracts/OndaV1Pool.sol\":5305:5321  getBalancePair() */\n      jump\t// in\n    tag_175:\n        /* \"contracts/OndaV1Pool.sol\":5256:5321  (uint balanceContract0, uint balanceContract1) = getBalancePair() */\n      swap2\n      pop\n      swap2\n      pop\n        /* \"contracts/OndaV1Pool.sol\":5345:5351  token0 */\n      0x01\n      0x00\n      swap1\n      sload\n      swap1\n      0x0100\n      exp\n      swap1\n      div\n      0xffffffffffffffffffffffffffffffffffffffff\n      and\n        /* \"contracts/OndaV1Pool.sol\":5334:5351  _token0 == token0 */\n      0xffffffffffffffffffffffffffffffffffffffff\n      and\n        /* \"contracts/OndaV1Pool.sol\":5334:5341  _token0 */\n      dup10\n        /* \"contracts/OndaV1Pool.sol\":5334:5351  _token0 == token0 */\n      0xffffffffffffffffffffffffffffffffffffffff\n      and\n      eq\n        /* \"contracts/OndaV1Pool.sol\":5334:5372  _token0 == token0 && _token1 == token1 */\n      dup1\n      iszero\n      tag_176\n      jumpi\n      pop\n        /* \"contracts/OndaV1Pool.sol\":5366:5372  token1 */\n      0x02\n      0x00\n      swap1\n      sload\n      swap1\n      0x0100\n      exp\n      swap1\n      div\n      0xffffffffffffffffffffffffffffffffffffffff\n      and\n        /* \"contracts/OndaV1Pool.sol\":5355:5372  _token1 == token1 */\n      0xffffffffffffffffffffffffffffffffffffffff\n      and\n        /* \"contracts/OndaV1Pool.sol\":5355:5362  _token1 */\n      dup9\n        /* \"contracts/OndaV1Pool.sol\":5355:5372  _token1 == token1 */\n      0xffffffffffffffffffffffffffffffffffffffff\n      and\n      eq\n        /* \"contracts/OndaV1Pool.sol\":5334:5372  _token0 == token0 && _token1 == token1 */\n    tag_176:\n        /* \"contracts/OndaV1Pool.sol\":5326:5393  require(_token0 == token0 && _token1 == token1, 'Not used address') */\n      tag_177\n      jumpi\n      mload(0x40)\n      0x08c379a000000000000000000000000000000000000000000000000000000000\n      dup2\n      mstore\n      0x04\n      add\n      tag_178\n      swap1\n      tag_72\n      jump\t// in\n    tag_178:\n      mload(0x40)\n      dup1\n      swap2\n      sub\n      swap1\n      revert\n    tag_177:\n        /* \"contracts/OndaV1Pool.sol\":5417:5424  amount1 */\n      dup4\n        /* \"contracts/OndaV1Pool.sol\":5406:5413  amount0 */\n      dup6\n        /* \"contracts/OndaV1Pool.sol\":5406:5424  amount0 == amount1 */\n      eq\n        /* \"contracts/OndaV1Pool.sol\":5398:5438  require(amount0 == amount1, 'Not equal') */\n      tag_179\n      jumpi\n      mload(0x40)\n      0x08c379a000000000000000000000000000000000000000000000000000000000\n      dup2\n      mstore\n      0x04\n      add\n      tag_180\n      swap1\n      tag_75\n      jump\t// in\n    tag_180:\n      mload(0x40)\n      dup1\n      swap2\n      sub\n      swap1\n      revert\n    tag_179:\n        /* \"contracts/OndaV1Pool.sol\":5448:5466  uint amountDelLiq0 */\n      0x00\n        /* \"contracts/OndaV1Pool.sol\":5502:5513  totalSupply */\n      sload(0x0a)\n        /* \"contracts/OndaV1Pool.sol\":5482:5498  balanceContract0 */\n      dup4\n        /* \"contracts/OndaV1Pool.sol\":5470:5479  liquidity */\n      dup9\n        /* \"contracts/OndaV1Pool.sol\":5470:5498  liquidity * balanceContract0 */\n      tag_181\n      swap2\n      swap1\n      tag_94\n      jump\t// in\n    tag_181:\n        /* \"contracts/OndaV1Pool.sol\":5469:5513  (liquidity * balanceContract0) / totalSupply */\n      tag_182\n      swap2\n      swap1\n      tag_109\n      jump\t// in\n    tag_182:\n        /* \"contracts/OndaV1Pool.sol\":5448:5513  uint amountDelLiq0 = (liquidity * balanceContract0) / totalSupply */\n      swap1\n      pop\n        /* \"contracts/OndaV1Pool.sol\":5521:5539  uint amountDelLiq1 */\n      0x00\n        /* \"contracts/OndaV1Pool.sol\":5575:5586  totalSupply */\n      sload(0x0a)\n        /* \"contracts/OndaV1Pool.sol\":5555:5571  balanceContract1 */\n      dup4\n        /* \"contracts/OndaV1Pool.sol\":5543:5552  liquidity */\n      dup10\n        /* \"contracts/OndaV1Pool.sol\":5543:5571  liquidity * balanceContract1 */\n      tag_183\n      swap2\n      swap1\n      tag_94\n      jump\t// in\n    tag_183:\n        /* \"contracts/OndaV1Pool.sol\":5542:5586  (liquidity * balanceContract1) / totalSupply */\n      tag_184\n      swap2\n      swap1\n      tag_109\n      jump\t// in\n    tag_184:\n        /* \"contracts/OndaV1Pool.sol\":5521:5586  uint amountDelLiq1 = (liquidity * balanceContract1) / totalSupply */\n      swap1\n      pop\n        /* \"contracts/OndaV1Pool.sol\":5620:5621  0 */\n      0x00\n        /* \"contracts/OndaV1Pool.sol\":5604:5617  amountDelLiq0 */\n      dup3\n        /* \"contracts/OndaV1Pool.sol\":5604:5621  amountDelLiq0 > 0 */\n      gt\n        /* \"contracts/OndaV1Pool.sol\":5604:5642  amountDelLiq0 > 0 && amountDelLiq1 > 0 */\n      dup1\n      iszero\n      tag_185\n      jumpi\n      pop\n        /* \"contracts/OndaV1Pool.sol\":5641:5642  0 */\n      0x00\n        /* \"contracts/OndaV1Pool.sol\":5625:5638  amountDelLiq1 */\n      dup2\n        /* \"contracts/OndaV1Pool.sol\":5625:5642  amountDelLiq1 > 0 */\n      gt\n        /* \"contracts/OndaV1Pool.sol\":5604:5642  amountDelLiq0 > 0 && amountDelLiq1 > 0 */\n    tag_185:\n        /* \"contracts/OndaV1Pool.sol\":5596:5659  require(amountDelLiq0 > 0 && amountDelLiq1 > 0, 'Minus amount') */\n      tag_186\n      jumpi\n      mload(0x40)\n      0x08c379a000000000000000000000000000000000000000000000000000000000\n      dup2\n      mstore\n      0x04\n      add\n      tag_187\n      swap1\n      tag_188\n      jump\t// in\n    tag_187:\n      mload(0x40)\n      dup1\n      swap2\n      sub\n      swap1\n      revert\n    tag_186:\n        /* \"contracts/OndaV1Pool.sol\":5667:5691  burn(lp, _to, liquidity) */\n      tag_189\n        /* \"contracts/OndaV1Pool.sol\":5672:5674  lp */\n      0x03\n      0x00\n      swap1\n      sload\n      swap1\n      0x0100\n      exp\n      swap1\n      div\n      0xffffffffffffffffffffffffffffffffffffffff\n      and\n        /* \"contracts/OndaV1Pool.sol\":5676:5679  _to */\n      dup11\n        /* \"contracts/OndaV1Pool.sol\":5681:5690  liquidity */\n      dup11\n        /* \"contracts/OndaV1Pool.sol\":5667:5671  burn */\n      tag_190\n        /* \"contracts/OndaV1Pool.sol\":5667:5691  burn(lp, _to, liquidity) */\n      jump\t// in\n    tag_189:\n        /* \"contracts/OndaV1Pool.sol\":5699:5774  TransferHelper.safeTransferFrom(_token0, address(this), _to, amountDelLiq0) */\n      tag_191\n        /* \"contracts/OndaV1Pool.sol\":5731:5738  _token0 */\n      dup12\n        /* \"contracts/OndaV1Pool.sol\":5748:5752  this */\n      address\n        /* \"contracts/OndaV1Pool.sol\":5755:5758  _to */\n      dup12\n        /* \"contracts/OndaV1Pool.sol\":5760:5773  amountDelLiq0 */\n      dup6\n        /* \"contracts/OndaV1Pool.sol\":5699:5730  TransferHelper.safeTransferFrom */\n      tag_77\n        /* \"contracts/OndaV1Pool.sol\":5699:5774  TransferHelper.safeTransferFrom(_token0, address(this), _to, amountDelLiq0) */\n      jump\t// in\n    tag_191:\n        /* \"contracts/OndaV1Pool.sol\":5782:5857  TransferHelper.safeTransferFrom(_token1, address(this), _to, amountDelLiq1) */\n      tag_192\n        /* \"contracts/OndaV1Pool.sol\":5814:5821  _token1 */\n      dup11\n        /* \"contracts/OndaV1Pool.sol\":5831:5835  this */\n      address\n        /* \"contracts/OndaV1Pool.sol\":5838:5841  _to */\n      dup12\n        /* \"contracts/OndaV1Pool.sol\":5843:5856  amountDelLiq1 */\n      dup5\n        /* \"contracts/OndaV1Pool.sol\":5782:5813  TransferHelper.safeTransferFrom */\n      tag_77\n        /* \"contracts/OndaV1Pool.sol\":5782:5857  TransferHelper.safeTransferFrom(_token1, address(this), _to, amountDelLiq1) */\n      jump\t// in\n    tag_192:\n        /* \"contracts/OndaV1Pool.sol\":5882:5891  liquidity */\n      dup8\n        /* \"contracts/OndaV1Pool.sol\":5867:5878  totalSupply */\n      0x0a\n      0x00\n        /* \"contracts/OndaV1Pool.sol\":5867:5891  totalSupply -= liquidity */\n      dup3\n      dup3\n      sload\n      tag_193\n      swap2\n      swap1\n      tag_91\n      jump\t// in\n    tag_193:\n      swap3\n      pop\n      pop\n      dup2\n      swap1\n      sstore\n      pop\n        /* \"contracts/OndaV1Pool.sol\":5899:5915  uint newBalance0 */\n      0x00\n        /* \"contracts/OndaV1Pool.sol\":5925:5932  _token0 */\n      dup12\n        /* \"contracts/OndaV1Pool.sol\":5918:5943  IERC20(_token0).balanceOf */\n      0xffffffffffffffffffffffffffffffffffffffff\n      and\n      0x70a08231\n        /* \"contracts/OndaV1Pool.sol\":5952:5956  this */\n      address\n        /* \"contracts/OndaV1Pool.sol\":5918:5958  IERC20(_token0).balanceOf(address(this)) */\n      mload(0x40)\n      dup3\n      0xffffffff\n      and\n      0xe0\n      shl\n      dup2\n      mstore\n      0x04\n      add\n      tag_194\n      swap2\n      swap1\n      tag_21\n      jump\t// in\n    tag_194:\n      0x20\n      mload(0x40)\n      dup1\n      dup4\n      sub\n      dup2\n      dup7\n      gas\n      staticcall\n      iszero\n      dup1\n      iszero\n      tag_196\n      jumpi\n      returndatasize\n      0x00\n      dup1\n      returndatacopy\n      revert(0x00, returndatasize)\n    tag_196:\n      pop\n      pop\n      pop\n      pop\n      mload(0x40)\n      returndatasize\n      not(0x1f)\n      0x1f\n      dup3\n      add\n      and\n      dup3\n      add\n      dup1\n      0x40\n      mstore\n      pop\n      dup2\n      add\n      swap1\n      tag_197\n      swap2\n      swap1\n      tag_83\n      jump\t// in\n    tag_197:\n        /* \"contracts/OndaV1Pool.sol\":5899:5958  uint newBalance0 = IERC20(_token0).balanceOf(address(this)) */\n      swap1\n      pop\n        /* \"contracts/OndaV1Pool.sol\":5963:5979  uint newBalance1 */\n      0x00\n        /* \"contracts/OndaV1Pool.sol\":5989:5996  _token1 */\n      dup12\n        /* \"contracts/OndaV1Pool.sol\":5982:6007  IERC20(_token1).balanceOf */\n      0xffffffffffffffffffffffffffffffffffffffff\n      and\n      0x70a08231\n        /* \"contracts/OndaV1Pool.sol\":6016:6020  this */\n      address\n        /* \"contracts/OndaV1Pool.sol\":5982:6022  IERC20(_token1).balanceOf(address(this)) */\n      mload(0x40)\n      dup3\n      0xffffffff\n      and\n      0xe0\n      shl\n      dup2\n      mstore\n      0x04\n      add\n      tag_198\n      swap2\n      swap1\n      tag_21\n      jump\t// in\n    tag_198:\n      0x20\n      mload(0x40)\n      dup1\n      dup4\n      sub\n      dup2\n      dup7\n      gas\n      staticcall\n      iszero\n      dup1\n      iszero\n      tag_200\n      jumpi\n      returndatasize\n      0x00\n      dup1\n      returndatacopy\n      revert(0x00, returndatasize)\n    tag_200:\n      pop\n      pop\n      pop\n      pop\n      mload(0x40)\n      returndatasize\n      not(0x1f)\n      0x1f\n      dup3\n      add\n      and\n      dup3\n      add\n      dup1\n      0x40\n      mstore\n      pop\n      dup2\n      add\n      swap1\n      tag_201\n      swap2\n      swap1\n      tag_83\n      jump\t// in\n    tag_201:\n        /* \"contracts/OndaV1Pool.sol\":5963:6022  uint newBalance1 = IERC20(_token1).balanceOf(address(this)) */\n      swap1\n      pop\n        /* \"contracts/OndaV1Pool.sol\":6030:6088  _updateStorage(_token0, _token1, newBalance0, newBalance1) */\n      tag_202\n        /* \"contracts/OndaV1Pool.sol\":6045:6052  _token0 */\n      dup14\n        /* \"contracts/OndaV1Pool.sol\":6054:6061  _token1 */\n      dup14\n        /* \"contracts/OndaV1Pool.sol\":6063:6074  newBalance0 */\n      dup5\n        /* \"contracts/OndaV1Pool.sol\":6076:6087  newBalance1 */\n      dup5\n        /* \"contracts/OndaV1Pool.sol\":6030:6044  _updateStorage */\n      tag_128\n        /* \"contracts/OndaV1Pool.sol\":6030:6088  _updateStorage(_token0, _token1, newBalance0, newBalance1) */\n      jump\t// in\n    tag_202:\n        /* \"contracts/OndaV1Pool.sol\":6101:6181  DeleteLiquidity(_token0, _token1, balanceContract0, balanceContract1, liquidity) */\n      0x95b8fe9ba38a505097b9341887de8716d6f3f3ba79ef0ecc02f35ad6e30585d6\n        /* \"contracts/OndaV1Pool.sol\":6117:6124  _token0 */\n      dup14\n        /* \"contracts/OndaV1Pool.sol\":6126:6133  _token1 */\n      dup14\n        /* \"contracts/OndaV1Pool.sol\":6135:6151  balanceContract0 */\n      dup9\n        /* \"contracts/OndaV1Pool.sol\":6153:6169  balanceContract1 */\n      dup9\n        /* \"contracts/OndaV1Pool.sol\":6171:6180  liquidity */\n      dup15\n        /* \"contracts/OndaV1Pool.sol\":6101:6181  DeleteLiquidity(_token0, _token1, balanceContract0, balanceContract1, liquidity) */\n      mload(0x40)\n      tag_203\n      swap6\n      swap5\n      swap4\n      swap3\n      swap2\n      swap1\n      tag_204\n      jump\t// in\n    tag_203:\n      mload(0x40)\n      dup1\n      swap2\n      sub\n      swap1\n      log1\n        /* \"contracts/OndaV1Pool.sol\":6196:6200  true */\n      0x01\n        /* \"contracts/OndaV1Pool.sol\":6189:6200  return true */\n      swap7\n      pop\n      pop\n      pop\n      pop\n      pop\n      pop\n      pop\n        /* \"contracts/OndaV1Pool.sol\":5112:6205  function _deleteLiquidity(address _token0, address _token1, address _to, uint liquidity, uint amount0, uint amount1) public returns (bool) {... */\n      swap7\n      swap6\n      pop\n      pop\n      pop\n      pop\n      pop\n      pop\n      jump\t// out\n        /* \"contracts/OndaV1Pool.sol\":1443:1569  function getBalancePair() private returns (uint balance0, uint balance1) {... */\n    tag_68:\n        /* \"contracts/OndaV1Pool.sol\":1486:1499  uint balance0 */\n      0x00\n        /* \"contracts/OndaV1Pool.sol\":1501:1514  uint balance1 */\n      dup1\n        /* \"contracts/OndaV1Pool.sol\":1532:1540  reserve0 */\n      sload(0x06)\n        /* \"contracts/OndaV1Pool.sol\":1521:1540  balance0 = reserve0 */\n      swap2\n      pop\n        /* \"contracts/OndaV1Pool.sol\":1556:1564  reserve1 */\n      sload(0x07)\n        /* \"contracts/OndaV1Pool.sol\":1545:1564  balance1 = reserve1 */\n      swap1\n      pop\n        /* \"contracts/OndaV1Pool.sol\":1443:1569  function getBalancePair() private returns (uint balance0, uint balance1) {... */\n      swap1\n      swap2\n      jump\t// out\n        /* \"contracts/interface/TransferHelper.sol\":1096:1619  function safeTransferFrom(... */\n    tag_77:\n        /* \"contracts/interface/TransferHelper.sol\":1235:1262  bytes4 TRANSFER_from_ACTION */\n      0x00\n        /* \"contracts/interface/TransferHelper.sol\":1282:1328  bytes('transferFrom(address,address,uint256)') */\n      mload(0x40)\n      dup1\n      0x60\n      add\n      0x40\n      mstore\n      dup1\n      0x25\n      dup2\n      mstore\n      0x20\n      add\n      data_23b872dd7302113369cda2901243429419bec145408fa8b352b3dd92b66c680b\n      0x25\n      swap2\n      codecopy\n        /* \"contracts/interface/TransferHelper.sol\":1272:1329  keccak256(bytes('transferFrom(address,address,uint256)')) */\n      dup1\n      mload\n      swap1\n      0x20\n      add\n      keccak256\n        /* \"contracts/interface/TransferHelper.sol\":1235:1330  bytes4 TRANSFER_from_ACTION = bytes4(keccak256(bytes('transferFrom(address,address,uint256)'))) */\n      swap1\n      pop\n        /* \"contracts/interface/TransferHelper.sol\":1341:1353  bool success */\n      0x00\n        /* \"contracts/interface/TransferHelper.sol\":1355:1372  bytes memory data */\n      dup1\n        /* \"contracts/interface/TransferHelper.sol\":1376:1381  token */\n      dup7\n        /* \"contracts/interface/TransferHelper.sol\":1376:1386  token.call */\n      0xffffffffffffffffffffffffffffffffffffffff\n      and\n        /* \"contracts/interface/TransferHelper.sol\":1410:1430  TRANSFER_from_ACTION */\n      dup4\n        /* \"contracts/interface/TransferHelper.sol\":1432:1436  from */\n      dup8\n        /* \"contracts/interface/TransferHelper.sol\":1438:1440  to */\n      dup8\n        /* \"contracts/interface/TransferHelper.sol\":1442:1447  value */\n      dup8\n        /* \"contracts/interface/TransferHelper.sol\":1387:1448  abi.encodeWithSelector(TRANSFER_from_ACTION, from, to, value) */\n      add(0x24, mload(0x40))\n      tag_207\n      swap4\n      swap3\n      swap2\n      swap1\n      tag_208\n      jump\t// in\n    tag_207:\n      mload(0x40)\n      0x20\n      dup2\n      dup4\n      sub\n      sub\n      dup2\n      mstore\n      swap1\n      0x40\n      mstore\n      swap1\n      not(0xffffffffffffffffffffffffffffffffffffffffffffffffffffffff)\n      and\n      0x20\n      dup3\n      add\n      dup1\n      mload\n      0xffffffffffffffffffffffffffffffffffffffffffffffffffffffff\n      dup4\n      dup2\n      dup4\n      and\n      or\n      dup4\n      mstore\n      pop\n      pop\n      pop\n      pop\n        /* \"contracts/interface/TransferHelper.sol\":1376:1449  token.call(abi.encodeWithSelector(TRANSFER_from_ACTION, from, to, value)) */\n      mload(0x40)\n      tag_209\n      swap2\n      swap1\n      tag_210\n      jump\t// in\n    tag_209:\n      0x00\n      mload(0x40)\n      dup1\n      dup4\n      sub\n      dup2\n      0x00\n      dup7\n      gas\n      call\n      swap2\n      pop\n      pop\n      returndatasize\n      dup1\n      0x00\n      dup2\n      eq\n      tag_213\n      jumpi\n      mload(0x40)\n      swap2\n      pop\n      and(add(returndatasize, 0x3f), not(0x1f))\n      dup3\n      add\n      0x40\n      mstore\n      returndatasize\n      dup3\n      mstore\n      returndatasize\n      0x00\n      0x20\n      dup5\n      add\n      returndatacopy\n      jump(tag_212)\n    tag_213:\n      0x60\n      swap2\n      pop\n    tag_212:\n      pop\n        /* \"contracts/interface/TransferHelper.sol\":1340:1449  (bool success, bytes memory data) = token.call(abi.encodeWithSelector(TRANSFER_from_ACTION, from, to, value)) */\n      swap2\n      pop\n      swap2\n      pop\n        /* \"contracts/interface/TransferHelper.sol\":1480:1487  success */\n      dup2\n        /* \"contracts/interface/TransferHelper.sol\":1480:1537  success && (data.length == 0 || abi.decode(data, (bool))) */\n      dup1\n      iszero\n      tag_214\n      jumpi\n      pop\n        /* \"contracts/interface/TransferHelper.sol\":1507:1508  0 */\n      0x00\n        /* \"contracts/interface/TransferHelper.sol\":1492:1496  data */\n      dup2\n        /* \"contracts/interface/TransferHelper.sol\":1492:1503  data.length */\n      mload\n        /* \"contracts/interface/TransferHelper.sol\":1492:1508  data.length == 0 */\n      eq\n        /* \"contracts/interface/TransferHelper.sol\":1492:1536  data.length == 0 || abi.decode(data, (bool)) */\n      dup1\n      tag_215\n      jumpi\n      pop\n        /* \"contracts/interface/TransferHelper.sol\":1523:1527  data */\n      dup1\n        /* \"contracts/interface/TransferHelper.sol\":1512:1536  abi.decode(data, (bool)) */\n      dup1\n      0x20\n      add\n      swap1\n      mload\n      dup2\n      add\n      swap1\n      tag_216\n      swap2\n      swap1\n      tag_217\n      jump\t// in\n    tag_216:\n        /* \"contracts/interface/TransferHelper.sol\":1492:1536  data.length == 0 || abi.decode(data, (bool)) */\n    tag_215:\n        /* \"contracts/interface/TransferHelper.sol\":1480:1537  success && (data.length == 0 || abi.decode(data, (bool))) */\n    tag_214:\n        /* \"contracts/interface/TransferHelper.sol\":1459:1612  require(... */\n      tag_218\n      jumpi\n      mload(0x40)\n      0x08c379a000000000000000000000000000000000000000000000000000000000\n      dup2\n      mstore\n      0x04\n      add\n      tag_219\n      swap1\n      tag_220\n      jump\t// in\n    tag_219:\n      mload(0x40)\n      dup1\n      swap2\n      sub\n      swap1\n      revert\n    tag_218:\n        /* \"contracts/interface/TransferHelper.sol\":1225:1619  {... */\n      pop\n      pop\n      pop\n        /* \"contracts/interface/TransferHelper.sol\":1096:1619  function safeTransferFrom(... */\n      pop\n      pop\n      pop\n      pop\n      jump\t// out\n        /* \"contracts/interface/Math.sol\":307:599  function sqrt(uint y) internal pure returns (uint z) {... */\n    tag_96:\n        /* \"contracts/interface/Math.sol\":352:358  uint z */\n      0x00\n        /* \"contracts/interface/Math.sol\":378:379  3 */\n      0x03\n        /* \"contracts/interface/Math.sol\":374:375  y */\n      dup3\n        /* \"contracts/interface/Math.sol\":374:379  y > 3 */\n      gt\n        /* \"contracts/interface/Math.sol\":370:593  if (y > 3) {... */\n      iszero\n      tag_222\n      jumpi\n        /* \"contracts/interface/Math.sol\":399:400  y */\n      dup2\n        /* \"contracts/interface/Math.sol\":395:400  z = y */\n      swap1\n      pop\n        /* \"contracts/interface/Math.sol\":414:420  uint x */\n      0x00\n        /* \"contracts/interface/Math.sol\":431:432  1 */\n      0x01\n        /* \"contracts/interface/Math.sol\":427:428  2 */\n      0x02\n        /* \"contracts/interface/Math.sol\":423:424  y */\n      dup5\n        /* \"contracts/interface/Math.sol\":423:428  y / 2 */\n      tag_223\n      swap2\n      swap1\n      tag_109\n      jump\t// in\n    tag_223:\n        /* \"contracts/interface/Math.sol\":423:432  y / 2 + 1 */\n      tag_224\n      swap2\n      swap1\n      tag_118\n      jump\t// in\n    tag_224:\n        /* \"contracts/interface/Math.sol\":414:432  uint x = y / 2 + 1 */\n      swap1\n      pop\n        /* \"contracts/interface/Math.sol\":446:535  while (x < z) {... */\n    tag_225:\n        /* \"contracts/interface/Math.sol\":457:458  z */\n      dup2\n        /* \"contracts/interface/Math.sol\":453:454  x */\n      dup2\n        /* \"contracts/interface/Math.sol\":453:458  x < z */\n      lt\n        /* \"contracts/interface/Math.sol\":446:535  while (x < z) {... */\n      iszero\n      tag_226\n      jumpi\n        /* \"contracts/interface/Math.sol\":482:483  x */\n      dup1\n        /* \"contracts/interface/Math.sol\":478:483  z = x */\n      swap2\n      pop\n        /* \"contracts/interface/Math.sol\":519:520  2 */\n      0x02\n        /* \"contracts/interface/Math.sol\":514:515  x */\n      dup2\n        /* \"contracts/interface/Math.sol\":510:511  x */\n      dup3\n        /* \"contracts/interface/Math.sol\":506:507  y */\n      dup6\n        /* \"contracts/interface/Math.sol\":506:511  y / x */\n      tag_227\n      swap2\n      swap1\n      tag_109\n      jump\t// in\n    tag_227:\n        /* \"contracts/interface/Math.sol\":506:515  y / x + x */\n      tag_228\n      swap2\n      swap1\n      tag_118\n      jump\t// in\n    tag_228:\n        /* \"contracts/interface/Math.sol\":505:520  (y / x + x) / 2 */\n      tag_229\n      swap2\n      swap1\n      tag_109\n      jump\t// in\n    tag_229:\n        /* \"contracts/interface/Math.sol\":501:520  x = (y / x + x) / 2 */\n      swap1\n      pop\n        /* \"contracts/interface/Math.sol\":446:535  while (x < z) {... */\n      jump(tag_225)\n    tag_226:\n        /* \"contracts/interface/Math.sol\":381:545  {... */\n      pop\n        /* \"contracts/interface/Math.sol\":370:593  if (y > 3) {... */\n      jump(tag_230)\n    tag_222:\n        /* \"contracts/interface/Math.sol\":560:561  0 */\n      0x00\n        /* \"contracts/interface/Math.sol\":555:556  y */\n      dup3\n        /* \"contracts/interface/Math.sol\":555:561  y != 0 */\n      eq\n        /* \"contracts/interface/Math.sol\":551:593  if (y != 0) {... */\n      tag_231\n      jumpi\n        /* \"contracts/interface/Math.sol\":581:582  1 */\n      0x01\n        /* \"contracts/interface/Math.sol\":577:582  z = 1 */\n      swap1\n      pop\n        /* \"contracts/interface/Math.sol\":551:593  if (y != 0) {... */\n    tag_231:\n        /* \"contracts/interface/Math.sol\":370:593  if (y > 3) {... */\n    tag_230:\n        /* \"contracts/interface/Math.sol\":307:599  function sqrt(uint y) internal pure returns (uint z) {... */\n      swap2\n      swap1\n      pop\n      jump\t// out\n        /* \"contracts/OndaV1Pool.sol\":2133:2384  function mint(address lp, address to, uint amount) private {... */\n    tag_101:\n        /* \"contracts/OndaV1Pool.sol\":2198:2209  bool status */\n      0x00\n        /* \"contracts/OndaV1Pool.sol\":2211:2228  bytes memory data */\n      dup1\n        /* \"contracts/OndaV1Pool.sol\":2232:2234  lp */\n      dup5\n        /* \"contracts/OndaV1Pool.sol\":2232:2239  lp.call */\n      0xffffffffffffffffffffffffffffffffffffffff\n      and\n        /* \"contracts/OndaV1Pool.sol\":791:821  bytes('mint(address,uint256)') */\n      mload(0x40)\n      dup1\n      0x40\n      add\n      0x40\n      mstore\n      dup1\n      0x15\n      dup2\n      mstore\n      0x20\n      add\n      0x6d696e7428616464726573732c75696e74323536290000000000000000000000\n      dup2\n      mstore\n      pop\n        /* \"contracts/OndaV1Pool.sol\":781:822  keccak256(bytes('mint(address,uint256)')) */\n      dup1\n      mload\n      swap1\n      0x20\n      add\n      keccak256\n        /* \"contracts/OndaV1Pool.sol\":2276:2278  to */\n      dup6\n        /* \"contracts/OndaV1Pool.sol\":2280:2286  amount */\n      dup6\n        /* \"contracts/OndaV1Pool.sol\":2240:2287  abi.encodeWithSelector(MINT_ACTION, to, amount) */\n      add(0x24, mload(0x40))\n      tag_233\n      swap3\n      swap2\n      swap1\n      tag_234\n      jump\t// in\n    tag_233:\n      mload(0x40)\n      0x20\n      dup2\n      dup4\n      sub\n      sub\n      dup2\n      mstore\n      swap1\n      0x40\n      mstore\n      swap1\n      not(0xffffffffffffffffffffffffffffffffffffffffffffffffffffffff)\n      and\n      0x20\n      dup3\n      add\n      dup1\n      mload\n      0xffffffffffffffffffffffffffffffffffffffffffffffffffffffff\n      dup4\n      dup2\n      dup4\n      and\n      or\n      dup4\n      mstore\n      pop\n      pop\n      pop\n      pop\n        /* \"contracts/OndaV1Pool.sol\":2232:2288  lp.call(abi.encodeWithSelector(MINT_ACTION, to, amount)) */\n      mload(0x40)\n      tag_235\n      swap2\n      swap1\n      tag_210\n      jump\t// in\n    tag_235:\n      0x00\n      mload(0x40)\n      dup1\n      dup4\n      sub\n      dup2\n      0x00\n      dup7\n      gas\n      call\n      swap2\n      pop\n      pop\n      returndatasize\n      dup1\n      0x00\n      dup2\n      eq\n      tag_238\n      jumpi\n      mload(0x40)\n      swap2\n      pop\n      and(add(returndatasize, 0x3f), not(0x1f))\n      dup3\n      add\n      0x40\n      mstore\n      returndatasize\n      dup3\n      mstore\n      returndatasize\n      0x00\n      0x20\n      dup5\n      add\n      returndatacopy\n      jump(tag_237)\n    tag_238:\n      0x60\n      swap2\n      pop\n    tag_237:\n      pop\n        /* \"contracts/OndaV1Pool.sol\":2197:2288  (bool status, bytes memory data) = lp.call(abi.encodeWithSelector(MINT_ACTION, to, amount)) */\n      swap2\n      pop\n      swap2\n      pop\n        /* \"contracts/OndaV1Pool.sol\":2307:2313  status */\n      dup2\n        /* \"contracts/OndaV1Pool.sol\":2307:2363  status && (data.length == 0 || abi.decode(data, (bool))) */\n      dup1\n      iszero\n      tag_239\n      jumpi\n      pop\n        /* \"contracts/OndaV1Pool.sol\":2333:2334  0 */\n      0x00\n        /* \"contracts/OndaV1Pool.sol\":2318:2322  data */\n      dup2\n        /* \"contracts/OndaV1Pool.sol\":2318:2329  data.length */\n      mload\n        /* \"contracts/OndaV1Pool.sol\":2318:2334  data.length == 0 */\n      eq\n        /* \"contracts/OndaV1Pool.sol\":2318:2362  data.length == 0 || abi.decode(data, (bool)) */\n      dup1\n      tag_240\n      jumpi\n      pop\n        /* \"contracts/OndaV1Pool.sol\":2349:2353  data */\n      dup1\n        /* \"contracts/OndaV1Pool.sol\":2338:2362  abi.decode(data, (bool)) */\n      dup1\n      0x20\n      add\n      swap1\n      mload\n      dup2\n      add\n      swap1\n      tag_241\n      swap2\n      swap1\n      tag_217\n      jump\t// in\n    tag_241:\n        /* \"contracts/OndaV1Pool.sol\":2318:2362  data.length == 0 || abi.decode(data, (bool)) */\n    tag_240:\n        /* \"contracts/OndaV1Pool.sol\":2307:2363  status && (data.length == 0 || abi.decode(data, (bool))) */\n    tag_239:\n        /* \"contracts/OndaV1Pool.sol\":2299:2379  require(status && (data.length == 0 || abi.decode(data, (bool))), 'FAILED Mint') */\n      tag_242\n      jumpi\n      mload(0x40)\n      0x08c379a000000000000000000000000000000000000000000000000000000000\n      dup2\n      mstore\n      0x04\n      add\n      tag_243\n      swap1\n      tag_244\n      jump\t// in\n    tag_243:\n      mload(0x40)\n      dup1\n      swap2\n      sub\n      swap1\n      revert\n    tag_242:\n        /* \"contracts/OndaV1Pool.sol\":2192:2384  {... */\n      pop\n      pop\n        /* \"contracts/OndaV1Pool.sol\":2133:2384  function mint(address lp, address to, uint amount) private {... */\n      pop\n      pop\n      pop\n      jump\t// out\n        /* \"contracts/OndaV1Pool.sol\":3276:3593  function updateK(address _token0, address _token1) private returns (uint) {... */\n    tag_103:\n        /* \"contracts/OndaV1Pool.sol\":3344:3348  uint */\n      0x00\n        /* \"contracts/OndaV1Pool.sol\":3370:3371  0 */\n      dup1\n        /* \"contracts/OndaV1Pool.sol\":3363:3366  key */\n      sload(0x05)\n        /* \"contracts/OndaV1Pool.sol\":3363:3371  key == 0 */\n      eq\n        /* \"contracts/OndaV1Pool.sol\":3355:3382  require(key == 0, 'Locked') */\n      tag_246\n      jumpi\n      mload(0x40)\n      0x08c379a000000000000000000000000000000000000000000000000000000000\n      dup2\n      mstore\n      0x04\n      add\n      tag_247\n      swap1\n      tag_248\n      jump\t// in\n    tag_247:\n      mload(0x40)\n      dup1\n      swap2\n      sub\n      swap1\n      revert\n    tag_246:\n        /* \"contracts/OndaV1Pool.sol\":3387:3400  uint balance0 */\n      0x00\n        /* \"contracts/OndaV1Pool.sol\":3410:3417  _token0 */\n      dup4\n        /* \"contracts/OndaV1Pool.sol\":3403:3428  IERC20(_token0).balanceOf */\n      0xffffffffffffffffffffffffffffffffffffffff\n      and\n      0x70a08231\n        /* \"contracts/OndaV1Pool.sol\":3437:3441  this */\n      address\n        /* \"contracts/OndaV1Pool.sol\":3403:3443  IERC20(_token0).balanceOf(address(this)) */\n      mload(0x40)\n      dup3\n      0xffffffff\n      and\n      0xe0\n      shl\n      dup2\n      mstore\n      0x04\n      add\n      tag_249\n      swap2\n      swap1\n      tag_21\n      jump\t// in\n    tag_249:\n      0x20\n      mload(0x40)\n      dup1\n      dup4\n      sub\n      dup2\n      dup7\n      gas\n      staticcall\n      iszero\n      dup1\n      iszero\n      tag_251\n      jumpi\n      returndatasize\n      0x00\n      dup1\n      returndatacopy\n      revert(0x00, returndatasize)\n    tag_251:\n      pop\n      pop\n      pop\n      pop\n      mload(0x40)\n      returndatasize\n      not(0x1f)\n      0x1f\n      dup3\n      add\n      and\n      dup3\n      add\n      dup1\n      0x40\n      mstore\n      pop\n      dup2\n      add\n      swap1\n      tag_252\n      swap2\n      swap1\n      tag_83\n      jump\t// in\n    tag_252:\n        /* \"contracts/OndaV1Pool.sol\":3387:3443  uint balance0 = IERC20(_token0).balanceOf(address(this)) */\n      swap1\n      pop\n        /* \"contracts/OndaV1Pool.sol\":3454:3467  uint balance1 */\n      0x00\n        /* \"contracts/OndaV1Pool.sol\":3477:3484  _token1 */\n      dup4\n        /* \"contracts/OndaV1Pool.sol\":3470:3495  IERC20(_token1).balanceOf */\n      0xffffffffffffffffffffffffffffffffffffffff\n      and\n      0x70a08231\n        /* \"contracts/OndaV1Pool.sol\":3504:3508  this */\n      address\n        /* \"contracts/OndaV1Pool.sol\":3470:3510  IERC20(_token1).balanceOf(address(this)) */\n      mload(0x40)\n      dup3\n      0xffffffff\n      and\n      0xe0\n      shl\n      dup2\n      mstore\n      0x04\n      add\n      tag_253\n      swap2\n      swap1\n      tag_21\n      jump\t// in\n    tag_253:\n      0x20\n      mload(0x40)\n      dup1\n      dup4\n      sub\n      dup2\n      dup7\n      gas\n      staticcall\n      iszero\n      dup1\n      iszero\n      tag_255\n      jumpi\n      returndatasize\n      0x00\n      dup1\n      returndatacopy\n      revert(0x00, returndatasize)\n    tag_255:\n      pop\n      pop\n      pop\n      pop\n      mload(0x40)\n      returndatasize\n      not(0x1f)\n      0x1f\n      dup3\n      add\n      and\n      dup3\n      add\n      dup1\n      0x40\n      mstore\n      pop\n      dup2\n      add\n      swap1\n      tag_256\n      swap2\n      swap1\n      tag_83\n      jump\t// in\n    tag_256:\n        /* \"contracts/OndaV1Pool.sol\":3454:3510  uint balance1 = IERC20(_token1).balanceOf(address(this)) */\n      swap1\n      pop\n        /* \"contracts/OndaV1Pool.sol\":3525:3526  0 */\n      0x00\n        /* \"contracts/OndaV1Pool.sol\":3518:3521  key */\n      sload(0x05)\n        /* \"contracts/OndaV1Pool.sol\":3518:3526  key == 0 */\n      sub\n        /* \"contracts/OndaV1Pool.sol\":3515:3576  if(key == 0) {... */\n      tag_257\n      jumpi\n        /* \"contracts/OndaV1Pool.sol\":3549:3557  balance1 */\n      dup1\n        /* \"contracts/OndaV1Pool.sol\":3538:3546  balance0 */\n      dup3\n        /* \"contracts/OndaV1Pool.sol\":3538:3557  balance0 * balance1 */\n      tag_258\n      swap2\n      swap1\n      tag_94\n      jump\t// in\n    tag_258:\n        /* \"contracts/OndaV1Pool.sol\":3534:3535  k */\n      0x04\n        /* \"contracts/OndaV1Pool.sol\":3534:3557  k = balance0 * balance1 */\n      dup2\n      swap1\n      sstore\n      pop\n        /* \"contracts/OndaV1Pool.sol\":3569:3570  1 */\n      0x01\n        /* \"contracts/OndaV1Pool.sol\":3563:3566  key */\n      0x05\n        /* \"contracts/OndaV1Pool.sol\":3563:3570  key = 1 */\n      dup2\n      swap1\n      sstore\n      pop\n        /* \"contracts/OndaV1Pool.sol\":3515:3576  if(key == 0) {... */\n    tag_257:\n        /* \"contracts/OndaV1Pool.sol\":3587:3588  k */\n      sload(0x04)\n        /* \"contracts/OndaV1Pool.sol\":3580:3588  return k */\n      swap3\n      pop\n      pop\n      pop\n        /* \"contracts/OndaV1Pool.sol\":3276:3593  function updateK(address _token0, address _token1) private returns (uint) {... */\n      swap3\n      swap2\n      pop\n      pop\n      jump\t// out\n        /* \"contracts/interface/Math.sol\":98:192  function min(uint x, uint y) internal pure returns (uint z) {... */\n    tag_113:\n        /* \"contracts/interface/Math.sol\":150:156  uint z */\n      0x00\n        /* \"contracts/interface/Math.sol\":176:177  y */\n      dup2\n        /* \"contracts/interface/Math.sol\":172:173  x */\n      dup4\n        /* \"contracts/interface/Math.sol\":172:177  x < y */\n      lt\n        /* \"contracts/interface/Math.sol\":172:185  x < y ? x : y */\n      tag_260\n      jumpi\n        /* \"contracts/interface/Math.sol\":184:185  y */\n      dup2\n        /* \"contracts/interface/Math.sol\":172:185  x < y ? x : y */\n      jump(tag_261)\n    tag_260:\n        /* \"contracts/interface/Math.sol\":180:181  x */\n      dup3\n        /* \"contracts/interface/Math.sol\":172:185  x < y ? x : y */\n    tag_261:\n        /* \"contracts/interface/Math.sol\":168:185  z = x < y ? x : y */\n      swap1\n      pop\n        /* \"contracts/interface/Math.sol\":98:192  function min(uint x, uint y) internal pure returns (uint z) {... */\n      swap3\n      swap2\n      pop\n      pop\n      jump\t// out\n        /* \"contracts/OndaV1Pool.sol\":2645:3271  function _updateStorage(address _token0, address _token1, uint256 balanceContract0, uint256 balanceContract1) private {... */\n    tag_128:\n        /* \"contracts/OndaV1Pool.sol\":2797:2798  0 */\n      0x00\n        /* \"contracts/OndaV1Pool.sol\":2777:2793  balanceContract0 */\n      dup3\n        /* \"contracts/OndaV1Pool.sol\":2777:2798  balanceContract0 >= 0 */\n      lt\n      iszero\n        /* \"contracts/OndaV1Pool.sol\":2776:2826  (balanceContract0 >= 0) && (balanceContract1 >= 0) */\n      dup1\n      iszero\n      tag_263\n      jumpi\n      pop\n        /* \"contracts/OndaV1Pool.sol\":2824:2825  0 */\n      0x00\n        /* \"contracts/OndaV1Pool.sol\":2804:2820  balanceContract1 */\n      dup2\n        /* \"contracts/OndaV1Pool.sol\":2804:2825  balanceContract1 >= 0 */\n      lt\n      iszero\n        /* \"contracts/OndaV1Pool.sol\":2776:2826  (balanceContract0 >= 0) && (balanceContract1 >= 0) */\n    tag_263:\n        /* \"contracts/OndaV1Pool.sol\":2768:2839  require((balanceContract0 >= 0) && (balanceContract1 >= 0), '0 number') */\n      tag_264\n      jumpi\n      mload(0x40)\n      0x08c379a000000000000000000000000000000000000000000000000000000000\n      dup2\n      mstore\n      0x04\n      add\n      tag_265\n      swap1\n      tag_266\n      jump\t// in\n    tag_265:\n      mload(0x40)\n      dup1\n      swap2\n      sub\n      swap1\n      revert\n    tag_264:\n        /* \"contracts/OndaV1Pool.sol\":2867:2868  0 */\n      0x00\n        /* \"contracts/OndaV1Pool.sol\":2847:2863  balanceContract0 */\n      dup3\n        /* \"contracts/OndaV1Pool.sol\":2847:2868  balanceContract0 != 0 */\n      eq\n      iszero\n        /* \"contracts/OndaV1Pool.sol\":2847:2893  balanceContract0 != 0 && balanceContract1 != 0 */\n      dup1\n      iszero\n      tag_267\n      jumpi\n      pop\n        /* \"contracts/OndaV1Pool.sol\":2892:2893  0 */\n      0x00\n        /* \"contracts/OndaV1Pool.sol\":2872:2888  balanceContract1 */\n      dup2\n        /* \"contracts/OndaV1Pool.sol\":2872:2893  balanceContract1 != 0 */\n      eq\n      iszero\n        /* \"contracts/OndaV1Pool.sol\":2847:2893  balanceContract0 != 0 && balanceContract1 != 0 */\n    tag_267:\n        /* \"contracts/OndaV1Pool.sol\":2844:3124  if(balanceContract0 != 0 && balanceContract1 != 0) {... */\n      iszero\n      tag_268\n      jumpi\n        /* \"contracts/OndaV1Pool.sol\":2929:2945  balanceContract0 */\n      dup2\n        /* \"contracts/OndaV1Pool.sol\":2910:2926  balanceContract1 */\n      dup2\n        /* \"contracts/OndaV1Pool.sol\":2910:2945  balanceContract1 / balanceContract0 */\n      tag_269\n      swap2\n      swap1\n      tag_109\n      jump\t// in\n    tag_269:\n        /* \"contracts/OndaV1Pool.sol\":2901:2907  price0 */\n      0x08\n        /* \"contracts/OndaV1Pool.sol\":2901:2945  price0 = balanceContract1 / balanceContract0 */\n      dup2\n      swap1\n      sstore\n      pop\n        /* \"contracts/OndaV1Pool.sol\":2979:2995  balanceContract1 */\n      dup1\n        /* \"contracts/OndaV1Pool.sol\":2960:2976  balanceContract0 */\n      dup3\n        /* \"contracts/OndaV1Pool.sol\":2960:2995  balanceContract0 / balanceContract1 */\n      tag_270\n      swap2\n      swap1\n      tag_109\n      jump\t// in\n    tag_270:\n        /* \"contracts/OndaV1Pool.sol\":2951:2957  price1 */\n      0x09\n        /* \"contracts/OndaV1Pool.sol\":2951:2995  price1 = balanceContract0 / balanceContract1 */\n      dup2\n      swap1\n      sstore\n      pop\n        /* \"contracts/OndaV1Pool.sol\":2844:3124  if(balanceContract0 != 0 && balanceContract1 != 0) {... */\n      jump(tag_271)\n    tag_268:\n        /* \"contracts/OndaV1Pool.sol\":3037:3038  0 */\n      0x00\n        /* \"contracts/OndaV1Pool.sol\":3017:3033  balanceContract0 */\n      dup3\n        /* \"contracts/OndaV1Pool.sol\":3017:3038  balanceContract0 == 0 */\n      eq\n        /* \"contracts/OndaV1Pool.sol\":3016:3066  (balanceContract0 == 0) && (balanceContract1 == 0) */\n      dup1\n      iszero\n      tag_272\n      jumpi\n      pop\n        /* \"contracts/OndaV1Pool.sol\":3064:3065  0 */\n      0x00\n        /* \"contracts/OndaV1Pool.sol\":3044:3060  balanceContract1 */\n      dup2\n        /* \"contracts/OndaV1Pool.sol\":3044:3065  balanceContract1 == 0 */\n      eq\n        /* \"contracts/OndaV1Pool.sol\":3016:3066  (balanceContract0 == 0) && (balanceContract1 == 0) */\n    tag_272:\n        /* \"contracts/OndaV1Pool.sol\":3013:3124  if((balanceContract0 == 0) && (balanceContract1 == 0)) {... */\n      iszero\n      tag_273\n      jumpi\n        /* \"contracts/OndaV1Pool.sol\":3089:3090  0 */\n      0x00\n        /* \"contracts/OndaV1Pool.sol\":3080:3086  price0 */\n      0x08\n        /* \"contracts/OndaV1Pool.sol\":3080:3090  price0 = 0 */\n      dup2\n      swap1\n      sstore\n      pop\n        /* \"contracts/OndaV1Pool.sol\":3111:3112  0 */\n      0x00\n        /* \"contracts/OndaV1Pool.sol\":3102:3108  price1 */\n      0x09\n        /* \"contracts/OndaV1Pool.sol\":3102:3112  price1 = 0 */\n      dup2\n      swap1\n      sstore\n      pop\n        /* \"contracts/OndaV1Pool.sol\":3013:3124  if((balanceContract0 == 0) && (balanceContract1 == 0)) {... */\n    tag_273:\n        /* \"contracts/OndaV1Pool.sol\":2844:3124  if(balanceContract0 != 0 && balanceContract1 != 0) {... */\n    tag_271:\n        /* \"contracts/OndaV1Pool.sol\":3147:3163  balanceContract0 */\n      dup2\n        /* \"contracts/OndaV1Pool.sol\":3136:3144  reserve0 */\n      0x06\n        /* \"contracts/OndaV1Pool.sol\":3136:3163  reserve0 = balanceContract0 */\n      dup2\n      swap1\n      sstore\n      pop\n        /* \"contracts/OndaV1Pool.sol\":3185:3201  balanceContract1 */\n      dup1\n        /* \"contracts/OndaV1Pool.sol\":3174:3182  reserve1 */\n      0x07\n        /* \"contracts/OndaV1Pool.sol\":3174:3201  reserve1 = balanceContract1 */\n      dup2\n      swap1\n      sstore\n      pop\n        /* \"contracts/OndaV1Pool.sol\":3217:3266  SyncStorage(_token0, _token1, reserve0, reserve1) */\n      0xd4bde8444971b7416b5f51c90f544d2fe2d0c1edddd83bd5fe8646179341dc99\n        /* \"contracts/OndaV1Pool.sol\":3229:3236  _token0 */\n      dup5\n        /* \"contracts/OndaV1Pool.sol\":3238:3245  _token1 */\n      dup5\n        /* \"contracts/OndaV1Pool.sol\":3247:3255  reserve0 */\n      sload(0x06)\n        /* \"contracts/OndaV1Pool.sol\":3257:3265  reserve1 */\n      sload(0x07)\n        /* \"contracts/OndaV1Pool.sol\":3217:3266  SyncStorage(_token0, _token1, reserve0, reserve1) */\n      mload(0x40)\n      tag_274\n      swap5\n      swap4\n      swap3\n      swap2\n      swap1\n      tag_130\n      jump\t// in\n    tag_274:\n      mload(0x40)\n      dup1\n      swap2\n      sub\n      swap1\n      log1\n        /* \"contracts/OndaV1Pool.sol\":2645:3271  function _updateStorage(address _token0, address _token1, uint256 balanceContract0, uint256 balanceContract1) private {... */\n      pop\n      pop\n      pop\n      pop\n      jump\t// out\n        /* \"contracts/interface/TransferHelper.sol\":652:1090  function safeTransfer(... */\n    tag_156:\n        /* \"contracts/interface/TransferHelper.sol\":832:844  bool success */\n      0x00\n        /* \"contracts/interface/TransferHelper.sol\":846:863  bytes memory data */\n      dup1\n        /* \"contracts/interface/TransferHelper.sol\":867:872  token */\n      dup5\n        /* \"contracts/interface/TransferHelper.sol\":867:877  token.call */\n      0xffffffffffffffffffffffffffffffffffffffff\n      and\n        /* \"contracts/interface/TransferHelper.sol\":901:911  0xa9059cbb */\n      0xa9059cbb\n        /* \"contracts/interface/TransferHelper.sol\":913:915  to */\n      dup6\n        /* \"contracts/interface/TransferHelper.sol\":917:922  value */\n      dup6\n        /* \"contracts/interface/TransferHelper.sol\":878:923  abi.encodeWithSelector(0xa9059cbb, to, value) */\n      add(0x24, mload(0x40))\n      tag_276\n      swap3\n      swap2\n      swap1\n      tag_234\n      jump\t// in\n    tag_276:\n      mload(0x40)\n      0x20\n      dup2\n      dup4\n      sub\n      sub\n      dup2\n      mstore\n      swap1\n      0x40\n      mstore\n      swap1\n      0xe0\n      shl\n      0x20\n      dup3\n      add\n      dup1\n      mload\n      0xffffffffffffffffffffffffffffffffffffffffffffffffffffffff\n      dup4\n      dup2\n      dup4\n      and\n      or\n      dup4\n      mstore\n      pop\n      pop\n      pop\n      pop\n        /* \"contracts/interface/TransferHelper.sol\":867:924  token.call(abi.encodeWithSelector(0xa9059cbb, to, value)) */\n      mload(0x40)\n      tag_277\n      swap2\n      swap1\n      tag_210\n      jump\t// in\n    tag_277:\n      0x00\n      mload(0x40)\n      dup1\n      dup4\n      sub\n      dup2\n      0x00\n      dup7\n      gas\n      call\n      swap2\n      pop\n      pop\n      returndatasize\n      dup1\n      0x00\n      dup2\n      eq\n      tag_280\n      jumpi\n      mload(0x40)\n      swap2\n      pop\n      and(add(returndatasize, 0x3f), not(0x1f))\n      dup3\n      add\n      0x40\n      mstore\n      returndatasize\n      dup3\n      mstore\n      returndatasize\n      0x00\n      0x20\n      dup5\n      add\n      returndatacopy\n      jump(tag_279)\n    tag_280:\n      0x60\n      swap2\n      pop\n    tag_279:\n      pop\n        /* \"contracts/interface/TransferHelper.sol\":831:924  (bool success, bytes memory data) = token.call(abi.encodeWithSelector(0xa9059cbb, to, value)) */\n      swap2\n      pop\n      swap2\n      pop\n        /* \"contracts/interface/TransferHelper.sol\":955:962  success */\n      dup2\n        /* \"contracts/interface/TransferHelper.sol\":955:1012  success && (data.length == 0 || abi.decode(data, (bool))) */\n      dup1\n      iszero\n      tag_281\n      jumpi\n      pop\n        /* \"contracts/interface/TransferHelper.sol\":982:983  0 */\n      0x00\n        /* \"contracts/interface/TransferHelper.sol\":967:971  data */\n      dup2\n        /* \"contracts/interface/TransferHelper.sol\":967:978  data.length */\n      mload\n        /* \"contracts/interface/TransferHelper.sol\":967:983  data.length == 0 */\n      eq\n        /* \"contracts/interface/TransferHelper.sol\":967:1011  data.length == 0 || abi.decode(data, (bool)) */\n      dup1\n      tag_282\n      jumpi\n      pop\n        /* \"contracts/interface/TransferHelper.sol\":998:1002  data */\n      dup1\n        /* \"contracts/interface/TransferHelper.sol\":987:1011  abi.decode(data, (bool)) */\n      dup1\n      0x20\n      add\n      swap1\n      mload\n      dup2\n      add\n      swap1\n      tag_283\n      swap2\n      swap1\n      tag_217\n      jump\t// in\n    tag_283:\n        /* \"contracts/interface/TransferHelper.sol\":967:1011  data.length == 0 || abi.decode(data, (bool)) */\n    tag_282:\n        /* \"contracts/interface/TransferHelper.sol\":955:1012  success && (data.length == 0 || abi.decode(data, (bool))) */\n    tag_281:\n        /* \"contracts/interface/TransferHelper.sol\":934:1083  require(... */\n      tag_284\n      jumpi\n      mload(0x40)\n      0x08c379a000000000000000000000000000000000000000000000000000000000\n      dup2\n      mstore\n      0x04\n      add\n      tag_285\n      swap1\n      tag_286\n      jump\t// in\n    tag_285:\n      mload(0x40)\n      dup1\n      swap2\n      sub\n      swap1\n      revert\n    tag_284:\n        /* \"contracts/interface/TransferHelper.sol\":755:1090  {... */\n      pop\n      pop\n        /* \"contracts/interface/TransferHelper.sol\":652:1090  function safeTransfer(... */\n      pop\n      pop\n      pop\n      jump\t// out\n        /* \"contracts/OndaV1Pool.sol\":2389:2640  function burn(address lp, address to, uint amount) private {... */\n    tag_190:\n        /* \"contracts/OndaV1Pool.sol\":2454:2465  bool status */\n      0x00\n        /* \"contracts/OndaV1Pool.sol\":2467:2484  bytes memory data */\n      dup1\n        /* \"contracts/OndaV1Pool.sol\":2488:2490  lp */\n      dup5\n        /* \"contracts/OndaV1Pool.sol\":2488:2495  lp.call */\n      0xffffffffffffffffffffffffffffffffffffffff\n      and\n        /* \"contracts/OndaV1Pool.sol\":882:912  bytes('burn(address,uint256)') */\n      mload(0x40)\n      dup1\n      0x40\n      add\n      0x40\n      mstore\n      dup1\n      0x15\n      dup2\n      mstore\n      0x20\n      add\n      0x6275726e28616464726573732c75696e74323536290000000000000000000000\n      dup2\n      mstore\n      pop\n        /* \"contracts/OndaV1Pool.sol\":872:913  keccak256(bytes('burn(address,uint256)')) */\n      dup1\n      mload\n      swap1\n      0x20\n      add\n      keccak256\n        /* \"contracts/OndaV1Pool.sol\":2532:2534  to */\n      dup6\n        /* \"contracts/OndaV1Pool.sol\":2536:2542  amount */\n      dup6\n        /* \"contracts/OndaV1Pool.sol\":2496:2543  abi.encodeWithSelector(BURN_ACTION, to, amount) */\n      add(0x24, mload(0x40))\n      tag_288\n      swap3\n      swap2\n      swap1\n      tag_234\n      jump\t// in\n    tag_288:\n      mload(0x40)\n      0x20\n      dup2\n      dup4\n      sub\n      sub\n      dup2\n      mstore\n      swap1\n      0x40\n      mstore\n      swap1\n      not(0xffffffffffffffffffffffffffffffffffffffffffffffffffffffff)\n      and\n      0x20\n      dup3\n      add\n      dup1\n      mload\n      0xffffffffffffffffffffffffffffffffffffffffffffffffffffffff\n      dup4\n      dup2\n      dup4\n      and\n      or\n      dup4\n      mstore\n      pop\n      pop\n      pop\n      pop\n        /* \"contracts/OndaV1Pool.sol\":2488:2544  lp.call(abi.encodeWithSelector(BURN_ACTION, to, amount)) */\n      mload(0x40)\n      tag_289\n      swap2\n      swap1\n      tag_210\n      jump\t// in\n    tag_289:\n      0x00\n      mload(0x40)\n      dup1\n      dup4\n      sub\n      dup2\n      0x00\n      dup7\n      gas\n      call\n      swap2\n      pop\n      pop\n      returndatasize\n      dup1\n      0x00\n      dup2\n      eq\n      tag_292\n      jumpi\n      mload(0x40)\n      swap2\n      pop\n      and(add(returndatasize, 0x3f), not(0x1f))\n      dup3\n      add\n      0x40\n      mstore\n      returndatasize\n      dup3\n      mstore\n      returndatasize\n      0x00\n      0x20\n      dup5\n      add\n      returndatacopy\n      jump(tag_291)\n    tag_292:\n      0x60\n      swap2\n      pop\n    tag_291:\n      pop\n        /* \"contracts/OndaV1Pool.sol\":2453:2544  (bool status, bytes memory data) = lp.call(abi.encodeWithSelector(BURN_ACTION, to, amount)) */\n      swap2\n      pop\n      swap2\n      pop\n        /* \"contracts/OndaV1Pool.sol\":2563:2569  status */\n      dup2\n        /* \"contracts/OndaV1Pool.sol\":2563:2619  status && (data.length == 0 || abi.decode(data, (bool))) */\n      dup1\n      iszero\n      tag_293\n      jumpi\n      pop\n        /* \"contracts/OndaV1Pool.sol\":2589:2590  0 */\n      0x00\n        /* \"contracts/OndaV1Pool.sol\":2574:2578  data */\n      dup2\n        /* \"contracts/OndaV1Pool.sol\":2574:2585  data.length */\n      mload\n        /* \"contracts/OndaV1Pool.sol\":2574:2590  data.length == 0 */\n      eq\n        /* \"contracts/OndaV1Pool.sol\":2574:2618  data.length == 0 || abi.decode(data, (bool)) */\n      dup1\n      tag_294\n      jumpi\n      pop\n        /* \"contracts/OndaV1Pool.sol\":2605:2609  data */\n      dup1\n        /* \"contracts/OndaV1Pool.sol\":2594:2618  abi.decode(data, (bool)) */\n      dup1\n      0x20\n      add\n      swap1\n      mload\n      dup2\n      add\n      swap1\n      tag_295\n      swap2\n      swap1\n      tag_217\n      jump\t// in\n    tag_295:\n        /* \"contracts/OndaV1Pool.sol\":2574:2618  data.length == 0 || abi.decode(data, (bool)) */\n    tag_294:\n        /* \"contracts/OndaV1Pool.sol\":2563:2619  status && (data.length == 0 || abi.decode(data, (bool))) */\n    tag_293:\n        /* \"contracts/OndaV1Pool.sol\":2555:2635  require(status && (data.length == 0 || abi.decode(data, (bool))), 'FAILED Burn') */\n      tag_296\n      jumpi\n      mload(0x40)\n      0x08c379a000000000000000000000000000000000000000000000000000000000\n      dup2\n      mstore\n      0x04\n      add\n      tag_297\n      swap1\n      tag_298\n      jump\t// in\n    tag_297:\n      mload(0x40)\n      dup1\n      swap2\n      sub\n      swap1\n      revert\n    tag_296:\n        /* \"contracts/OndaV1Pool.sol\":2448:2640  {... */\n      pop\n      pop\n        /* \"contracts/OndaV1Pool.sol\":2389:2640  function burn(address lp, address to, uint amount) private {... */\n      pop\n      pop\n      pop\n      jump\t// out\n        /* \"#utility.yul\":7:133   */\n    tag_299:\n        /* \"#utility.yul\":44:51   */\n      0x00\n        /* \"#utility.yul\":84:126   */\n      0xffffffffffffffffffffffffffffffffffffffff\n        /* \"#utility.yul\":77:82   */\n      dup3\n        /* \"#utility.yul\":73:127   */\n      and\n        /* \"#utility.yul\":62:127   */\n      swap1\n      pop\n        /* \"#utility.yul\":7:133   */\n      swap2\n      swap1\n      pop\n      jump\t// out\n        /* \"#utility.yul\":139:235   */\n    tag_300:\n        /* \"#utility.yul\":176:183   */\n      0x00\n        /* \"#utility.yul\":205:229   */\n      tag_352\n        /* \"#utility.yul\":223:228   */\n      dup3\n        /* \"#utility.yul\":205:229   */\n      tag_299\n      jump\t// in\n    tag_352:\n        /* \"#utility.yul\":194:229   */\n      swap1\n      pop\n        /* \"#utility.yul\":139:235   */\n      swap2\n      swap1\n      pop\n      jump\t// out\n        /* \"#utility.yul\":241:359   */\n    tag_301:\n        /* \"#utility.yul\":328:352   */\n      tag_354\n        /* \"#utility.yul\":346:351   */\n      dup2\n        /* \"#utility.yul\":328:352   */\n      tag_300\n      jump\t// in\n    tag_354:\n        /* \"#utility.yul\":323:326   */\n      dup3\n        /* \"#utility.yul\":316:353   */\n      mstore\n        /* \"#utility.yul\":241:359   */\n      pop\n      pop\n      jump\t// out\n        /* \"#utility.yul\":365:587   */\n    tag_21:\n        /* \"#utility.yul\":458:462   */\n      0x00\n        /* \"#utility.yul\":496:498   */\n      0x20\n        /* \"#utility.yul\":485:494   */\n      dup3\n        /* \"#utility.yul\":481:499   */\n      add\n        /* \"#utility.yul\":473:499   */\n      swap1\n      pop\n        /* \"#utility.yul\":509:580   */\n      tag_356\n        /* \"#utility.yul\":577:578   */\n      0x00\n        /* \"#utility.yul\":566:575   */\n      dup4\n        /* \"#utility.yul\":562:579   */\n      add\n        /* \"#utility.yul\":553:559   */\n      dup5\n        /* \"#utility.yul\":509:580   */\n      tag_301\n      jump\t// in\n    tag_356:\n        /* \"#utility.yul\":365:587   */\n      swap3\n      swap2\n      pop\n      pop\n      jump\t// out\n        /* \"#utility.yul\":593:670   */\n    tag_302:\n        /* \"#utility.yul\":630:637   */\n      0x00\n        /* \"#utility.yul\":659:664   */\n      dup2\n        /* \"#utility.yul\":648:664   */\n      swap1\n      pop\n        /* \"#utility.yul\":593:670   */\n      swap2\n      swap1\n      pop\n      jump\t// out\n        /* \"#utility.yul\":676:794   */\n    tag_303:\n        /* \"#utility.yul\":763:787   */\n      tag_359\n        /* \"#utility.yul\":781:786   */\n      dup2\n        /* \"#utility.yul\":763:787   */\n      tag_302\n      jump\t// in\n    tag_359:\n        /* \"#utility.yul\":758:761   */\n      dup3\n        /* \"#utility.yul\":751:788   */\n      mstore\n        /* \"#utility.yul\":676:794   */\n      pop\n      pop\n      jump\t// out\n        /* \"#utility.yul\":800:1022   */\n    tag_25:\n        /* \"#utility.yul\":893:897   */\n      0x00\n        /* \"#utility.yul\":931:933   */\n      0x20\n        /* \"#utility.yul\":920:929   */\n      dup3\n        /* \"#utility.yul\":916:934   */\n      add\n        /* \"#utility.yul\":908:934   */\n      swap1\n      pop\n        /* \"#utility.yul\":944:1015   */\n      tag_361\n        /* \"#utility.yul\":1012:1013   */\n      0x00\n        /* \"#utility.yul\":1001:1010   */\n      dup4\n        /* \"#utility.yul\":997:1014   */\n      add\n        /* \"#utility.yul\":988:994   */\n      dup5\n        /* \"#utility.yul\":944:1015   */\n      tag_303\n      jump\t// in\n    tag_361:\n        /* \"#utility.yul\":800:1022   */\n      swap3\n      swap2\n      pop\n      pop\n      jump\t// out\n        /* \"#utility.yul\":1109:1226   */\n    tag_305:\n        /* \"#utility.yul\":1218:1219   */\n      0x00\n        /* \"#utility.yul\":1215:1216   */\n      dup1\n        /* \"#utility.yul\":1208:1220   */\n      revert\n        /* \"#utility.yul\":1355:1477   */\n    tag_307:\n        /* \"#utility.yul\":1428:1452   */\n      tag_366\n        /* \"#utility.yul\":1446:1451   */\n      dup2\n        /* \"#utility.yul\":1428:1452   */\n      tag_300\n      jump\t// in\n    tag_366:\n        /* \"#utility.yul\":1421:1426   */\n      dup2\n        /* \"#utility.yul\":1418:1453   */\n      eq\n        /* \"#utility.yul\":1408:1471   */\n      tag_367\n      jumpi\n        /* \"#utility.yul\":1467:1468   */\n      0x00\n        /* \"#utility.yul\":1464:1465   */\n      dup1\n        /* \"#utility.yul\":1457:1469   */\n      revert\n        /* \"#utility.yul\":1408:1471   */\n    tag_367:\n        /* \"#utility.yul\":1355:1477   */\n      pop\n      jump\t// out\n        /* \"#utility.yul\":1483:1622   */\n    tag_308:\n        /* \"#utility.yul\":1529:1534   */\n      0x00\n        /* \"#utility.yul\":1567:1573   */\n      dup2\n        /* \"#utility.yul\":1554:1574   */\n      calldataload\n        /* \"#utility.yul\":1545:1574   */\n      swap1\n      pop\n        /* \"#utility.yul\":1583:1616   */\n      tag_369\n        /* \"#utility.yul\":1610:1615   */\n      dup2\n        /* \"#utility.yul\":1583:1616   */\n      tag_307\n      jump\t// in\n    tag_369:\n        /* \"#utility.yul\":1483:1622   */\n      swap3\n      swap2\n      pop\n      pop\n      jump\t// out\n        /* \"#utility.yul\":1628:1750   */\n    tag_309:\n        /* \"#utility.yul\":1701:1725   */\n      tag_371\n        /* \"#utility.yul\":1719:1724   */\n      dup2\n        /* \"#utility.yul\":1701:1725   */\n      tag_302\n      jump\t// in\n    tag_371:\n        /* \"#utility.yul\":1694:1699   */\n      dup2\n        /* \"#utility.yul\":1691:1726   */\n      eq\n        /* \"#utility.yul\":1681:1744   */\n      tag_372\n      jumpi\n        /* \"#utility.yul\":1740:1741   */\n      0x00\n        /* \"#utility.yul\":1737:1738   */\n      dup1\n        /* \"#utility.yul\":1730:1742   */\n      revert\n        /* \"#utility.yul\":1681:1744   */\n    tag_372:\n        /* \"#utility.yul\":1628:1750   */\n      pop\n      jump\t// out\n        /* \"#utility.yul\":1756:1895   */\n    tag_310:\n        /* \"#utility.yul\":1802:1807   */\n      0x00\n        /* \"#utility.yul\":1840:1846   */\n      dup2\n        /* \"#utility.yul\":1827:1847   */\n      calldataload\n        /* \"#utility.yul\":1818:1847   */\n      swap1\n      pop\n        /* \"#utility.yul\":1856:1889   */\n      tag_374\n        /* \"#utility.yul\":1883:1888   */\n      dup2\n        /* \"#utility.yul\":1856:1889   */\n      tag_309\n      jump\t// in\n    tag_374:\n        /* \"#utility.yul\":1756:1895   */\n      swap3\n      swap2\n      pop\n      pop\n      jump\t// out\n        /* \"#utility.yul\":1901:2666   */\n    tag_40:\n        /* \"#utility.yul\":1987:1993   */\n      0x00\n        /* \"#utility.yul\":1995:2001   */\n      dup1\n        /* \"#utility.yul\":2003:2009   */\n      0x00\n        /* \"#utility.yul\":2011:2017   */\n      dup1\n        /* \"#utility.yul\":2060:2063   */\n      0x80\n        /* \"#utility.yul\":2048:2057   */\n      dup6\n        /* \"#utility.yul\":2039:2046   */\n      dup8\n        /* \"#utility.yul\":2035:2058   */\n      sub\n        /* \"#utility.yul\":2031:2064   */\n      slt\n        /* \"#utility.yul\":2028:2148   */\n      iszero\n      tag_376\n      jumpi\n        /* \"#utility.yul\":2067:2146   */\n      tag_377\n      tag_305\n      jump\t// in\n    tag_377:\n        /* \"#utility.yul\":2028:2148   */\n    tag_376:\n        /* \"#utility.yul\":2187:2188   */\n      0x00\n        /* \"#utility.yul\":2212:2265   */\n      tag_378\n        /* \"#utility.yul\":2257:2264   */\n      dup8\n        /* \"#utility.yul\":2248:2254   */\n      dup3\n        /* \"#utility.yul\":2237:2246   */\n      dup9\n        /* \"#utility.yul\":2233:2255   */\n      add\n        /* \"#utility.yul\":2212:2265   */\n      tag_308\n      jump\t// in\n    tag_378:\n        /* \"#utility.yul\":2202:2265   */\n      swap5\n      pop\n        /* \"#utility.yul\":2158:2275   */\n      pop\n        /* \"#utility.yul\":2314:2316   */\n      0x20\n        /* \"#utility.yul\":2340:2393   */\n      tag_379\n        /* \"#utility.yul\":2385:2392   */\n      dup8\n        /* \"#utility.yul\":2376:2382   */\n      dup3\n        /* \"#utility.yul\":2365:2374   */\n      dup9\n        /* \"#utility.yul\":2361:2383   */\n      add\n        /* \"#utility.yul\":2340:2393   */\n      tag_308\n      jump\t// in\n    tag_379:\n        /* \"#utility.yul\":2330:2393   */\n      swap4\n      pop\n        /* \"#utility.yul\":2285:2403   */\n      pop\n        /* \"#utility.yul\":2442:2444   */\n      0x40\n        /* \"#utility.yul\":2468:2521   */\n      tag_380\n        /* \"#utility.yul\":2513:2520   */\n      dup8\n        /* \"#utility.yul\":2504:2510   */\n      dup3\n        /* \"#utility.yul\":2493:2502   */\n      dup9\n        /* \"#utility.yul\":2489:2511   */\n      add\n        /* \"#utility.yul\":2468:2521   */\n      tag_310\n      jump\t// in\n    tag_380:\n        /* \"#utility.yul\":2458:2521   */\n      swap3\n      pop\n        /* \"#utility.yul\":2413:2531   */\n      pop\n        /* \"#utility.yul\":2570:2572   */\n      0x60\n        /* \"#utility.yul\":2596:2649   */\n      tag_381\n        /* \"#utility.yul\":2641:2648   */\n      dup8\n        /* \"#utility.yul\":2632:2638   */\n      dup3\n        /* \"#utility.yul\":2621:2630   */\n      dup9\n        /* \"#utility.yul\":2617:2639   */\n      add\n        /* \"#utility.yul\":2596:2649   */\n      tag_310\n      jump\t// in\n    tag_381:\n        /* \"#utility.yul\":2586:2649   */\n      swap2\n      pop\n        /* \"#utility.yul\":2541:2659   */\n      pop\n        /* \"#utility.yul\":1901:2666   */\n      swap3\n      swap6\n      swap2\n      swap5\n      pop\n      swap3\n      pop\n      jump\t// out\n        /* \"#utility.yul\":2672:2762   */\n    tag_311:\n        /* \"#utility.yul\":2706:2713   */\n      0x00\n        /* \"#utility.yul\":2749:2754   */\n      dup2\n        /* \"#utility.yul\":2742:2755   */\n      iszero\n        /* \"#utility.yul\":2735:2756   */\n      iszero\n        /* \"#utility.yul\":2724:2756   */\n      swap1\n      pop\n        /* \"#utility.yul\":2672:2762   */\n      swap2\n      swap1\n      pop\n      jump\t// out\n        /* \"#utility.yul\":2768:2877   */\n    tag_312:\n        /* \"#utility.yul\":2849:2870   */\n      tag_384\n        /* \"#utility.yul\":2864:2869   */\n      dup2\n        /* \"#utility.yul\":2849:2870   */\n      tag_311\n      jump\t// in\n    tag_384:\n        /* \"#utility.yul\":2844:2847   */\n      dup3\n        /* \"#utility.yul\":2837:2871   */\n      mstore\n        /* \"#utility.yul\":2768:2877   */\n      pop\n      pop\n      jump\t// out\n        /* \"#utility.yul\":2883:3093   */\n    tag_43:\n        /* \"#utility.yul\":2970:2974   */\n      0x00\n        /* \"#utility.yul\":3008:3010   */\n      0x20\n        /* \"#utility.yul\":2997:3006   */\n      dup3\n        /* \"#utility.yul\":2993:3011   */\n      add\n        /* \"#utility.yul\":2985:3011   */\n      swap1\n      pop\n        /* \"#utility.yul\":3021:3086   */\n      tag_386\n        /* \"#utility.yul\":3083:3084   */\n      0x00\n        /* \"#utility.yul\":3072:3081   */\n      dup4\n        /* \"#utility.yul\":3068:3085   */\n      add\n        /* \"#utility.yul\":3059:3065   */\n      dup5\n        /* \"#utility.yul\":3021:3086   */\n      tag_312\n      jump\t// in\n    tag_386:\n        /* \"#utility.yul\":2883:3093   */\n      swap3\n      swap2\n      pop\n      pop\n      jump\t// out\n        /* \"#utility.yul\":3099:4010   */\n    tag_49:\n        /* \"#utility.yul\":3194:3200   */\n      0x00\n        /* \"#utility.yul\":3202:3208   */\n      dup1\n        /* \"#utility.yul\":3210:3216   */\n      0x00\n        /* \"#utility.yul\":3218:3224   */\n      dup1\n        /* \"#utility.yul\":3226:3232   */\n      0x00\n        /* \"#utility.yul\":3275:3278   */\n      0xa0\n        /* \"#utility.yul\":3263:3272   */\n      dup7\n        /* \"#utility.yul\":3254:3261   */\n      dup9\n        /* \"#utility.yul\":3250:3273   */\n      sub\n        /* \"#utility.yul\":3246:3279   */\n      slt\n        /* \"#utility.yul\":3243:3363   */\n      iszero\n      tag_388\n      jumpi\n        /* \"#utility.yul\":3282:3361   */\n      tag_389\n      tag_305\n      jump\t// in\n    tag_389:\n        /* \"#utility.yul\":3243:3363   */\n    tag_388:\n        /* \"#utility.yul\":3402:3403   */\n      0x00\n        /* \"#utility.yul\":3427:3480   */\n      tag_390\n        /* \"#utility.yul\":3472:3479   */\n      dup9\n        /* \"#utility.yul\":3463:3469   */\n      dup3\n        /* \"#utility.yul\":3452:3461   */\n      dup10\n        /* \"#utility.yul\":3448:3470   */\n      add\n        /* \"#utility.yul\":3427:3480   */\n      tag_308\n      jump\t// in\n    tag_390:\n        /* \"#utility.yul\":3417:3480   */\n      swap6\n      pop\n        /* \"#utility.yul\":3373:3490   */\n      pop\n        /* \"#utility.yul\":3529:3531   */\n      0x20\n        /* \"#utility.yul\":3555:3608   */\n      tag_391\n        /* \"#utility.yul\":3600:3607   */\n      dup9\n        /* \"#utility.yul\":3591:3597   */\n      dup3\n        /* \"#utility.yul\":3580:3589   */\n      dup10\n        /* \"#utility.yul\":3576:3598   */\n      add\n        /* \"#utility.yul\":3555:3608   */\n      tag_308\n      jump\t// in\n    tag_391:\n        /* \"#utility.yul\":3545:3608   */\n      swap5\n      pop\n        /* \"#utility.yul\":3500:3618   */\n      pop\n        /* \"#utility.yul\":3657:3659   */\n      0x40\n        /* \"#utility.yul\":3683:3736   */\n      tag_392\n        /* \"#utility.yul\":3728:3735   */\n      dup9\n        /* \"#utility.yul\":3719:3725   */\n      dup3\n        /* \"#utility.yul\":3708:3717   */\n      dup10\n        /* \"#utility.yul\":3704:3726   */\n      add\n        /* \"#utility.yul\":3683:3736   */\n      tag_308\n      jump\t// in\n    tag_392:\n        /* \"#utility.yul\":3673:3736   */\n      swap4\n      pop\n        /* \"#utility.yul\":3628:3746   */\n      pop\n        /* \"#utility.yul\":3785:3787   */\n      0x60\n        /* \"#utility.yul\":3811:3864   */\n      tag_393\n        /* \"#utility.yul\":3856:3863   */\n      dup9\n        /* \"#utility.yul\":3847:3853   */\n      dup3\n        /* \"#utility.yul\":3836:3845   */\n      dup10\n        /* \"#utility.yul\":3832:3854   */\n      add\n        /* \"#utility.yul\":3811:3864   */\n      tag_310\n      jump\t// in\n    tag_393:\n        /* \"#utility.yul\":3801:3864   */\n      swap3\n      pop\n        /* \"#utility.yul\":3756:3874   */\n      pop\n        /* \"#utility.yul\":3913:3916   */\n      0x80\n        /* \"#utility.yul\":3940:3993   */\n      tag_394\n        /* \"#utility.yul\":3985:3992   */\n      dup9\n        /* \"#utility.yul\":3976:3982   */\n      dup3\n        /* \"#utility.yul\":3965:3974   */\n      dup10\n        /* \"#utility.yul\":3961:3983   */\n      add\n        /* \"#utility.yul\":3940:3993   */\n      tag_310\n      jump\t// in\n    tag_394:\n        /* \"#utility.yul\":3930:3993   */\n      swap2\n      pop\n        /* \"#utility.yul\":3884:4003   */\n      pop\n        /* \"#utility.yul\":3099:4010   */\n      swap3\n      swap6\n      pop\n      swap3\n      swap6\n      swap1\n      swap4\n      pop\n      jump\t// out\n        /* \"#utility.yul\":4016:5073   */\n    tag_63:\n        /* \"#utility.yul\":4120:4126   */\n      0x00\n        /* \"#utility.yul\":4128:4134   */\n      dup1\n        /* \"#utility.yul\":4136:4142   */\n      0x00\n        /* \"#utility.yul\":4144:4150   */\n      dup1\n        /* \"#utility.yul\":4152:4158   */\n      0x00\n        /* \"#utility.yul\":4160:4166   */\n      dup1\n        /* \"#utility.yul\":4209:4212   */\n      0xc0\n        /* \"#utility.yul\":4197:4206   */\n      dup8\n        /* \"#utility.yul\":4188:4195   */\n      dup10\n        /* \"#utility.yul\":4184:4207   */\n      sub\n        /* \"#utility.yul\":4180:4213   */\n      slt\n        /* \"#utility.yul\":4177:4297   */\n      iszero\n      tag_396\n      jumpi\n        /* \"#utility.yul\":4216:4295   */\n      tag_397\n      tag_305\n      jump\t// in\n    tag_397:\n        /* \"#utility.yul\":4177:4297   */\n    tag_396:\n        /* \"#utility.yul\":4336:4337   */\n      0x00\n        /* \"#utility.yul\":4361:4414   */\n      tag_398\n        /* \"#utility.yul\":4406:4413   */\n      dup10\n        /* \"#utility.yul\":4397:4403   */\n      dup3\n        /* \"#utility.yul\":4386:4395   */\n      dup11\n        /* \"#utility.yul\":4382:4404   */\n      add\n        /* \"#utility.yul\":4361:4414   */\n      tag_308\n      jump\t// in\n    tag_398:\n        /* \"#utility.yul\":4351:4414   */\n      swap7\n      pop\n        /* \"#utility.yul\":4307:4424   */\n      pop\n        /* \"#utility.yul\":4463:4465   */\n      0x20\n        /* \"#utility.yul\":4489:4542   */\n      tag_399\n        /* \"#utility.yul\":4534:4541   */\n      dup10\n        /* \"#utility.yul\":4525:4531   */\n      dup3\n        /* \"#utility.yul\":4514:4523   */\n      dup11\n        /* \"#utility.yul\":4510:4532   */\n      add\n        /* \"#utility.yul\":4489:4542   */\n      tag_308\n      jump\t// in\n    tag_399:\n        /* \"#utility.yul\":4479:4542   */\n      swap6\n      pop\n        /* \"#utility.yul\":4434:4552   */\n      pop\n        /* \"#utility.yul\":4591:4593   */\n      0x40\n        /* \"#utility.yul\":4617:4670   */\n      tag_400\n        /* \"#utility.yul\":4662:4669   */\n      dup10\n        /* \"#utility.yul\":4653:4659   */\n      dup3\n        /* \"#utility.yul\":4642:4651   */\n      dup11\n        /* \"#utility.yul\":4638:4660   */\n      add\n        /* \"#utility.yul\":4617:4670   */\n      tag_308\n      jump\t// in\n    tag_400:\n        /* \"#utility.yul\":4607:4670   */\n      swap5\n      pop\n        /* \"#utility.yul\":4562:4680   */\n      pop\n        /* \"#utility.yul\":4719:4721   */\n      0x60\n        /* \"#utility.yul\":4745:4798   */\n      tag_401\n        /* \"#utility.yul\":4790:4797   */\n      dup10\n        /* \"#utility.yul\":4781:4787   */\n      dup3\n        /* \"#utility.yul\":4770:4779   */\n      dup11\n        /* \"#utility.yul\":4766:4788   */\n      add\n        /* \"#utility.yul\":4745:4798   */\n      tag_310\n      jump\t// in\n    tag_401:\n        /* \"#utility.yul\":4735:4798   */\n      swap4\n      pop\n        /* \"#utility.yul\":4690:4808   */\n      pop\n        /* \"#utility.yul\":4847:4850   */\n      0x80\n        /* \"#utility.yul\":4874:4927   */\n      tag_402\n        /* \"#utility.yul\":4919:4926   */\n      dup10\n        /* \"#utility.yul\":4910:4916   */\n      dup3\n        /* \"#utility.yul\":4899:4908   */\n      dup11\n        /* \"#utility.yul\":4895:4917   */\n      add\n        /* \"#utility.yul\":4874:4927   */\n      tag_310\n      jump\t// in\n    tag_402:\n        /* \"#utility.yul\":4864:4927   */\n      swap3\n      pop\n        /* \"#utility.yul\":4818:4937   */\n      pop\n        /* \"#utility.yul\":4976:4979   */\n      0xa0\n        /* \"#utility.yul\":5003:5056   */\n      tag_403\n        /* \"#utility.yul\":5048:5055   */\n      dup10\n        /* \"#utility.yul\":5039:5045   */\n      dup3\n        /* \"#utility.yul\":5028:5037   */\n      dup11\n        /* \"#utility.yul\":5024:5046   */\n      add\n        /* \"#utility.yul\":5003:5056   */\n      tag_310\n      jump\t// in\n    tag_403:\n        /* \"#utility.yul\":4993:5056   */\n      swap2\n      pop\n        /* \"#utility.yul\":4947:5066   */\n      pop\n        /* \"#utility.yul\":4016:5073   */\n      swap3\n      swap6\n      pop\n      swap3\n      swap6\n      pop\n      swap3\n      swap6\n      jump\t// out\n        /* \"#utility.yul\":5079:5248   */\n    tag_313:\n        /* \"#utility.yul\":5163:5174   */\n      0x00\n        /* \"#utility.yul\":5197:5203   */\n      dup3\n        /* \"#utility.yul\":5192:5195   */\n      dup3\n        /* \"#utility.yul\":5185:5204   */\n      mstore\n        /* \"#utility.yul\":5237:5241   */\n      0x20\n        /* \"#utility.yul\":5232:5235   */\n      dup3\n        /* \"#utility.yul\":5228:5242   */\n      add\n        /* \"#utility.yul\":5213:5242   */\n      swap1\n      pop\n        /* \"#utility.yul\":5079:5248   */\n      swap3\n      swap2\n      pop\n      pop\n      jump\t// out\n        /* \"#utility.yul\":5254:5420   */\n    tag_314:\n        /* \"#utility.yul\":5394:5412   */\n      0x4e6f742075736564206164647265737300000000000000000000000000000000\n        /* \"#utility.yul\":5390:5391   */\n      0x00\n        /* \"#utility.yul\":5382:5388   */\n      dup3\n        /* \"#utility.yul\":5378:5392   */\n      add\n        /* \"#utility.yul\":5371:5413   */\n      mstore\n        /* \"#utility.yul\":5254:5420   */\n      pop\n      jump\t// out\n        /* \"#utility.yul\":5426:5792   */\n    tag_315:\n        /* \"#utility.yul\":5568:5571   */\n      0x00\n        /* \"#utility.yul\":5589:5656   */\n      tag_407\n        /* \"#utility.yul\":5653:5655   */\n      0x10\n        /* \"#utility.yul\":5648:5651   */\n      dup4\n        /* \"#utility.yul\":5589:5656   */\n      tag_313\n      jump\t// in\n    tag_407:\n        /* \"#utility.yul\":5582:5656   */\n      swap2\n      pop\n        /* \"#utility.yul\":5665:5758   */\n      tag_408\n        /* \"#utility.yul\":5754:5757   */\n      dup3\n        /* \"#utility.yul\":5665:5758   */\n      tag_314\n      jump\t// in\n    tag_408:\n        /* \"#utility.yul\":5783:5785   */\n      0x20\n        /* \"#utility.yul\":5778:5781   */\n      dup3\n        /* \"#utility.yul\":5774:5786   */\n      add\n        /* \"#utility.yul\":5767:5786   */\n      swap1\n      pop\n        /* \"#utility.yul\":5426:5792   */\n      swap2\n      swap1\n      pop\n      jump\t// out\n        /* \"#utility.yul\":5798:6217   */\n    tag_72:\n        /* \"#utility.yul\":5964:5968   */\n      0x00\n        /* \"#utility.yul\":6002:6004   */\n      0x20\n        /* \"#utility.yul\":5991:6000   */\n      dup3\n        /* \"#utility.yul\":5987:6005   */\n      add\n        /* \"#utility.yul\":5979:6005   */\n      swap1\n      pop\n        /* \"#utility.yul\":6051:6060   */\n      dup2\n        /* \"#utility.yul\":6045:6049   */\n      dup2\n        /* \"#utility.yul\":6041:6061   */\n      sub\n        /* \"#utility.yul\":6037:6038   */\n      0x00\n        /* \"#utility.yul\":6026:6035   */\n      dup4\n        /* \"#utility.yul\":6022:6039   */\n      add\n        /* \"#utility.yul\":6015:6062   */\n      mstore\n        /* \"#utility.yul\":6079:6210   */\n      tag_410\n        /* \"#utility.yul\":6205:6209   */\n      dup2\n        /* \"#utility.yul\":6079:6210   */\n      tag_315\n      jump\t// in\n    tag_410:\n        /* \"#utility.yul\":6071:6210   */\n      swap1\n      pop\n        /* \"#utility.yul\":5798:6217   */\n      swap2\n      swap1\n      pop\n      jump\t// out\n        /* \"#utility.yul\":6223:6382   */\n    tag_316:\n        /* \"#utility.yul\":6363:6374   */\n      0x4e6f7420657175616c0000000000000000000000000000000000000000000000\n        /* \"#utility.yul\":6359:6360   */\n      0x00\n        /* \"#utility.yul\":6351:6357   */\n      dup3\n        /* \"#utility.yul\":6347:6361   */\n      add\n        /* \"#utility.yul\":6340:6375   */\n      mstore\n        /* \"#utility.yul\":6223:6382   */\n      pop\n      jump\t// out\n        /* \"#utility.yul\":6388:6753   */\n    tag_317:\n        /* \"#utility.yul\":6530:6533   */\n      0x00\n        /* \"#utility.yul\":6551:6617   */\n      tag_413\n        /* \"#utility.yul\":6615:6616   */\n      0x09\n        /* \"#utility.yul\":6610:6613   */\n      dup4\n        /* \"#utility.yul\":6551:6617   */\n      tag_313\n      jump\t// in\n    tag_413:\n        /* \"#utility.yul\":6544:6617   */\n      swap2\n      pop\n        /* \"#utility.yul\":6626:6719   */\n      tag_414\n        /* \"#utility.yul\":6715:6718   */\n      dup3\n        /* \"#utility.yul\":6626:6719   */\n      tag_316\n      jump\t// in\n    tag_414:\n        /* \"#utility.yul\":6744:6746   */\n      0x20\n        /* \"#utility.yul\":6739:6742   */\n      dup3\n        /* \"#utility.yul\":6735:6747   */\n      add\n        /* \"#utility.yul\":6728:6747   */\n      swap1\n      pop\n        /* \"#utility.yul\":6388:6753   */\n      swap2\n      swap1\n      pop\n      jump\t// out\n        /* \"#utility.yul\":6759:7178   */\n    tag_75:\n        /* \"#utility.yul\":6925:6929   */\n      0x00\n        /* \"#utility.yul\":6963:6965   */\n      0x20\n        /* \"#utility.yul\":6952:6961   */\n      dup3\n        /* \"#utility.yul\":6948:6966   */\n      add\n        /* \"#utility.yul\":6940:6966   */\n      swap1\n      pop\n        /* \"#utility.yul\":7012:7021   */\n      dup2\n        /* \"#utility.yul\":7006:7010   */\n      dup2\n        /* \"#utility.yul\":7002:7022   */\n      sub\n        /* \"#utility.yul\":6998:6999   */\n      0x00\n        /* \"#utility.yul\":6987:6996   */\n      dup4\n        /* \"#utility.yul\":6983:7000   */\n      add\n        /* \"#utility.yul\":6976:7023   */\n      mstore\n        /* \"#utility.yul\":7040:7171   */\n      tag_416\n        /* \"#utility.yul\":7166:7170   */\n      dup2\n        /* \"#utility.yul\":7040:7171   */\n      tag_317\n      jump\t// in\n    tag_416:\n        /* \"#utility.yul\":7032:7171   */\n      swap1\n      pop\n        /* \"#utility.yul\":6759:7178   */\n      swap2\n      swap1\n      pop\n      jump\t// out\n        /* \"#utility.yul\":7184:7327   */\n    tag_318:\n        /* \"#utility.yul\":7241:7246   */\n      0x00\n        /* \"#utility.yul\":7272:7278   */\n      dup2\n        /* \"#utility.yul\":7266:7279   */\n      mload\n        /* \"#utility.yul\":7257:7279   */\n      swap1\n      pop\n        /* \"#utility.yul\":7288:7321   */\n      tag_418\n        /* \"#utility.yul\":7315:7320   */\n      dup2\n        /* \"#utility.yul\":7288:7321   */\n      tag_309\n      jump\t// in\n    tag_418:\n        /* \"#utility.yul\":7184:7327   */\n      swap3\n      swap2\n      pop\n      pop\n      jump\t// out\n        /* \"#utility.yul\":7333:7684   */\n    tag_83:\n        /* \"#utility.yul\":7403:7409   */\n      0x00\n        /* \"#utility.yul\":7452:7454   */\n      0x20\n        /* \"#utility.yul\":7440:7449   */\n      dup3\n        /* \"#utility.yul\":7431:7438   */\n      dup5\n        /* \"#utility.yul\":7427:7450   */\n      sub\n        /* \"#utility.yul\":7423:7455   */\n      slt\n        /* \"#utility.yul\":7420:7539   */\n      iszero\n      tag_420\n      jumpi\n        /* \"#utility.yul\":7458:7537   */\n      tag_421\n      tag_305\n      jump\t// in\n    tag_421:\n        /* \"#utility.yul\":7420:7539   */\n    tag_420:\n        /* \"#utility.yul\":7578:7579   */\n      0x00\n        /* \"#utility.yul\":7603:7667   */\n      tag_422\n        /* \"#utility.yul\":7659:7666   */\n      dup5\n        /* \"#utility.yul\":7650:7656   */\n      dup3\n        /* \"#utility.yul\":7639:7648   */\n      dup6\n        /* \"#utility.yul\":7635:7657   */\n      add\n        /* \"#utility.yul\":7603:7667   */\n      tag_318\n      jump\t// in\n    tag_422:\n        /* \"#utility.yul\":7593:7667   */\n      swap2\n      pop\n        /* \"#utility.yul\":7549:7677   */\n      pop\n        /* \"#utility.yul\":7333:7684   */\n      swap3\n      swap2\n      pop\n      pop\n      jump\t// out\n        /* \"#utility.yul\":7690:7870   */\n    tag_319:\n        /* \"#utility.yul\":7738:7815   */\n      0x4e487b7100000000000000000000000000000000000000000000000000000000\n        /* \"#utility.yul\":7735:7736   */\n      0x00\n        /* \"#utility.yul\":7728:7816   */\n      mstore\n        /* \"#utility.yul\":7835:7839   */\n      0x11\n        /* \"#utility.yul\":7832:7833   */\n      0x04\n        /* \"#utility.yul\":7825:7840   */\n      mstore\n        /* \"#utility.yul\":7859:7863   */\n      0x24\n        /* \"#utility.yul\":7856:7857   */\n      0x00\n        /* \"#utility.yul\":7849:7864   */\n      revert\n        /* \"#utility.yul\":7876:8067   */\n    tag_91:\n        /* \"#utility.yul\":7916:7920   */\n      0x00\n        /* \"#utility.yul\":7936:7956   */\n      tag_425\n        /* \"#utility.yul\":7954:7955   */\n      dup3\n        /* \"#utility.yul\":7936:7956   */\n      tag_302\n      jump\t// in\n    tag_425:\n        /* \"#utility.yul\":7931:7956   */\n      swap2\n      pop\n        /* \"#utility.yul\":7970:7990   */\n      tag_426\n        /* \"#utility.yul\":7988:7989   */\n      dup4\n        /* \"#utility.yul\":7970:7990   */\n      tag_302\n      jump\t// in\n    tag_426:\n        /* \"#utility.yul\":7965:7990   */\n      swap3\n      pop\n        /* \"#utility.yul\":8009:8010   */\n      dup3\n        /* \"#utility.yul\":8006:8007   */\n      dup3\n        /* \"#utility.yul\":8003:8011   */\n      lt\n        /* \"#utility.yul\":8000:8034   */\n      iszero\n      tag_427\n      jumpi\n        /* \"#utility.yul\":8014:8032   */\n      tag_428\n      tag_319\n      jump\t// in\n    tag_428:\n        /* \"#utility.yul\":8000:8034   */\n    tag_427:\n        /* \"#utility.yul\":8059:8060   */\n      dup3\n        /* \"#utility.yul\":8056:8057   */\n      dup3\n        /* \"#utility.yul\":8052:8061   */\n      sub\n        /* \"#utility.yul\":8044:8061   */\n      swap1\n      pop\n        /* \"#utility.yul\":7876:8067   */\n      swap3\n      swap2\n      pop\n      pop\n      jump\t// out\n        /* \"#utility.yul\":8073:8421   */\n    tag_94:\n        /* \"#utility.yul\":8113:8120   */\n      0x00\n        /* \"#utility.yul\":8136:8156   */\n      tag_430\n        /* \"#utility.yul\":8154:8155   */\n      dup3\n        /* \"#utility.yul\":8136:8156   */\n      tag_302\n      jump\t// in\n    tag_430:\n        /* \"#utility.yul\":8131:8156   */\n      swap2\n      pop\n        /* \"#utility.yul\":8170:8190   */\n      tag_431\n        /* \"#utility.yul\":8188:8189   */\n      dup4\n        /* \"#utility.yul\":8170:8190   */\n      tag_302\n      jump\t// in\n    tag_431:\n        /* \"#utility.yul\":8165:8190   */\n      swap3\n      pop\n        /* \"#utility.yul\":8358:8359   */\n      dup2\n        /* \"#utility.yul\":8290:8356   */\n      0xffffffffffffffffffffffffffffffffffffffffffffffffffffffffffffffff\n        /* \"#utility.yul\":8286:8360   */\n      div\n        /* \"#utility.yul\":8283:8284   */\n      dup4\n        /* \"#utility.yul\":8280:8361   */\n      gt\n        /* \"#utility.yul\":8275:8276   */\n      dup3\n        /* \"#utility.yul\":8268:8277   */\n      iszero\n        /* \"#utility.yul\":8261:8278   */\n      iszero\n        /* \"#utility.yul\":8257:8362   */\n      and\n        /* \"#utility.yul\":8254:8385   */\n      iszero\n      tag_432\n      jumpi\n        /* \"#utility.yul\":8365:8383   */\n      tag_433\n      tag_319\n      jump\t// in\n    tag_433:\n        /* \"#utility.yul\":8254:8385   */\n    tag_432:\n        /* \"#utility.yul\":8413:8414   */\n      dup3\n        /* \"#utility.yul\":8410:8411   */\n      dup3\n        /* \"#utility.yul\":8406:8415   */\n      mul\n        /* \"#utility.yul\":8395:8415   */\n      swap1\n      pop\n        /* \"#utility.yul\":8073:8421   */\n      swap3\n      swap2\n      pop\n      pop\n      jump\t// out\n        /* \"#utility.yul\":8427:8592   */\n    tag_320:\n        /* \"#utility.yul\":8567:8584   */\n      0x4d696e7573206c69717569646974790000000000000000000000000000000000\n        /* \"#utility.yul\":8563:8564   */\n      0x00\n        /* \"#utility.yul\":8555:8561   */\n      dup3\n        /* \"#utility.yul\":8551:8565   */\n      add\n        /* \"#utility.yul\":8544:8585   */\n      mstore\n        /* \"#utility.yul\":8427:8592   */\n      pop\n      jump\t// out\n        /* \"#utility.yul\":8598:8964   */\n    tag_321:\n        /* \"#utility.yul\":8740:8743   */\n      0x00\n        /* \"#utility.yul\":8761:8828   */\n      tag_436\n        /* \"#utility.yul\":8825:8827   */\n      0x0f\n        /* \"#utility.yul\":8820:8823   */\n      dup4\n        /* \"#utility.yul\":8761:8828   */\n      tag_313\n      jump\t// in\n    tag_436:\n        /* \"#utility.yul\":8754:8828   */\n      swap2\n      pop\n        /* \"#utility.yul\":8837:8930   */\n      tag_437\n        /* \"#utility.yul\":8926:8929   */\n      dup3\n        /* \"#utility.yul\":8837:8930   */\n      tag_320\n      jump\t// in\n    tag_437:\n        /* \"#utility.yul\":8955:8957   */\n      0x20\n        /* \"#utility.yul\":8950:8953   */\n      dup3\n        /* \"#utility.yul\":8946:8958   */\n      add\n        /* \"#utility.yul\":8939:8958   */\n      swap1\n      pop\n        /* \"#utility.yul\":8598:8964   */\n      swap2\n      swap1\n      pop\n      jump\t// out\n        /* \"#utility.yul\":8970:9389   */\n    tag_99:\n        /* \"#utility.yul\":9136:9140   */\n      0x00\n        /* \"#utility.yul\":9174:9176   */\n      0x20\n        /* \"#utility.yul\":9163:9172   */\n      dup3\n        /* \"#utility.yul\":9159:9177   */\n      add\n        /* \"#utility.yul\":9151:9177   */\n      swap1\n      pop\n        /* \"#utility.yul\":9223:9232   */\n      dup2\n        /* \"#utility.yul\":9217:9221   */\n      dup2\n        /* \"#utility.yul\":9213:9233   */\n      sub\n        /* \"#utility.yul\":9209:9210   */\n      0x00\n        /* \"#utility.yul\":9198:9207   */\n      dup4\n        /* \"#utility.yul\":9194:9211   */\n      add\n        /* \"#utility.yul\":9187:9234   */\n      mstore\n        /* \"#utility.yul\":9251:9382   */\n      tag_439\n        /* \"#utility.yul\":9377:9381   */\n      dup2\n        /* \"#utility.yul\":9251:9382   */\n      tag_321\n      jump\t// in\n    tag_439:\n        /* \"#utility.yul\":9243:9382   */\n      swap1\n      pop\n        /* \"#utility.yul\":8970:9389   */\n      swap2\n      swap1\n      pop\n      jump\t// out\n        /* \"#utility.yul\":9395:9575   */\n    tag_322:\n        /* \"#utility.yul\":9443:9520   */\n      0x4e487b7100000000000000000000000000000000000000000000000000000000\n        /* \"#utility.yul\":9440:9441   */\n      0x00\n        /* \"#utility.yul\":9433:9521   */\n      mstore\n        /* \"#utility.yul\":9540:9544   */\n      0x12\n        /* \"#utility.yul\":9537:9538   */\n      0x04\n        /* \"#utility.yul\":9530:9545   */\n      mstore\n        /* \"#utility.yul\":9564:9568   */\n      0x24\n        /* \"#utility.yul\":9561:9562   */\n      0x00\n        /* \"#utility.yul\":9554:9569   */\n      revert\n        /* \"#utility.yul\":9581:9766   */\n    tag_109:\n        /* \"#utility.yul\":9621:9622   */\n      0x00\n        /* \"#utility.yul\":9638:9658   */\n      tag_442\n        /* \"#utility.yul\":9656:9657   */\n      dup3\n        /* \"#utility.yul\":9638:9658   */\n      tag_302\n      jump\t// in\n    tag_442:\n        /* \"#utility.yul\":9633:9658   */\n      swap2\n      pop\n        /* \"#utility.yul\":9672:9692   */\n      tag_443\n        /* \"#utility.yul\":9690:9691   */\n      dup4\n        /* \"#utility.yul\":9672:9692   */\n      tag_302\n      jump\t// in\n    tag_443:\n        /* \"#utility.yul\":9667:9692   */\n      swap3\n      pop\n        /* \"#utility.yul\":9711:9712   */\n      dup3\n        /* \"#utility.yul\":9701:9736   */\n      tag_444\n      jumpi\n        /* \"#utility.yul\":9716:9734   */\n      tag_445\n      tag_322\n      jump\t// in\n    tag_445:\n        /* \"#utility.yul\":9701:9736   */\n    tag_444:\n        /* \"#utility.yul\":9758:9759   */\n      dup3\n        /* \"#utility.yul\":9755:9756   */\n      dup3\n        /* \"#utility.yul\":9751:9760   */\n      div\n        /* \"#utility.yul\":9746:9760   */\n      swap1\n      pop\n        /* \"#utility.yul\":9581:9766   */\n      swap3\n      swap2\n      pop\n      pop\n      jump\t// out\n        /* \"#utility.yul\":9772:10077   */\n    tag_118:\n        /* \"#utility.yul\":9812:9815   */\n      0x00\n        /* \"#utility.yul\":9831:9851   */\n      tag_447\n        /* \"#utility.yul\":9849:9850   */\n      dup3\n        /* \"#utility.yul\":9831:9851   */\n      tag_302\n      jump\t// in\n    tag_447:\n        /* \"#utility.yul\":9826:9851   */\n      swap2\n      pop\n        /* \"#utility.yul\":9865:9885   */\n      tag_448\n        /* \"#utility.yul\":9883:9884   */\n      dup4\n        /* \"#utility.yul\":9865:9885   */\n      tag_302\n      jump\t// in\n    tag_448:\n        /* \"#utility.yul\":9860:9885   */\n      swap3\n      pop\n        /* \"#utility.yul\":10019:10020   */\n      dup3\n        /* \"#utility.yul\":9951:10017   */\n      0xffffffffffffffffffffffffffffffffffffffffffffffffffffffffffffffff\n        /* \"#utility.yul\":9947:10021   */\n      sub\n        /* \"#utility.yul\":9944:9945   */\n      dup3\n        /* \"#utility.yul\":9941:10022   */\n      gt\n        /* \"#utility.yul\":9938:10045   */\n      iszero\n      tag_449\n      jumpi\n        /* \"#utility.yul\":10025:10043   */\n      tag_450\n      tag_319\n      jump\t// in\n    tag_450:\n        /* \"#utility.yul\":9938:10045   */\n    tag_449:\n        /* \"#utility.yul\":10069:10070   */\n      dup3\n        /* \"#utility.yul\":10066:10067   */\n      dup3\n        /* \"#utility.yul\":10062:10071   */\n      add\n        /* \"#utility.yul\":10055:10071   */\n      swap1\n      pop\n        /* \"#utility.yul\":9772:10077   */\n      swap3\n      swap2\n      pop\n      pop\n      jump\t// out\n        /* \"#utility.yul\":10083:10636   */\n    tag_130:\n        /* \"#utility.yul\":10260:10264   */\n      0x00\n        /* \"#utility.yul\":10298:10301   */\n      0x80\n        /* \"#utility.yul\":10287:10296   */\n      dup3\n        /* \"#utility.yul\":10283:10302   */\n      add\n        /* \"#utility.yul\":10275:10302   */\n      swap1\n      pop\n        /* \"#utility.yul\":10312:10383   */\n      tag_452\n        /* \"#utility.yul\":10380:10381   */\n      0x00\n        /* \"#utility.yul\":10369:10378   */\n      dup4\n        /* \"#utility.yul\":10365:10382   */\n      add\n        /* \"#utility.yul\":10356:10362   */\n      dup8\n        /* \"#utility.yul\":10312:10383   */\n      tag_301\n      jump\t// in\n    tag_452:\n        /* \"#utility.yul\":10393:10465   */\n      tag_453\n        /* \"#utility.yul\":10461:10463   */\n      0x20\n        /* \"#utility.yul\":10450:10459   */\n      dup4\n        /* \"#utility.yul\":10446:10464   */\n      add\n        /* \"#utility.yul\":10437:10443   */\n      dup7\n        /* \"#utility.yul\":10393:10465   */\n      tag_301\n      jump\t// in\n    tag_453:\n        /* \"#utility.yul\":10475:10547   */\n      tag_454\n        /* \"#utility.yul\":10543:10545   */\n      0x40\n        /* \"#utility.yul\":10532:10541   */\n      dup4\n        /* \"#utility.yul\":10528:10546   */\n      add\n        /* \"#utility.yul\":10519:10525   */\n      dup6\n        /* \"#utility.yul\":10475:10547   */\n      tag_303\n      jump\t// in\n    tag_454:\n        /* \"#utility.yul\":10557:10629   */\n      tag_455\n        /* \"#utility.yul\":10625:10627   */\n      0x60\n        /* \"#utility.yul\":10614:10623   */\n      dup4\n        /* \"#utility.yul\":10610:10628   */\n      add\n        /* \"#utility.yul\":10601:10607   */\n      dup5\n        /* \"#utility.yul\":10557:10629   */\n      tag_303\n      jump\t// in\n    tag_455:\n        /* \"#utility.yul\":10083:10636   */\n      swap6\n      swap5\n      pop\n      pop\n      pop\n      pop\n      pop\n      jump\t// out\n        /* \"#utility.yul\":10642:10803   */\n    tag_323:\n        /* \"#utility.yul\":10782:10795   */\n      0x5a65726f20616d6f756e74000000000000000000000000000000000000000000\n        /* \"#utility.yul\":10778:10779   */\n      0x00\n        /* \"#utility.yul\":10770:10776   */\n      dup3\n        /* \"#utility.yul\":10766:10780   */\n      add\n        /* \"#utility.yul\":10759:10796   */\n      mstore\n        /* \"#utility.yul\":10642:10803   */\n      pop\n      jump\t// out\n        /* \"#utility.yul\":10809:11175   */\n    tag_324:\n        /* \"#utility.yul\":10951:10954   */\n      0x00\n        /* \"#utility.yul\":10972:11039   */\n      tag_458\n        /* \"#utility.yul\":11036:11038   */\n      0x0b\n        /* \"#utility.yul\":11031:11034   */\n      dup4\n        /* \"#utility.yul\":10972:11039   */\n      tag_313\n      jump\t// in\n    tag_458:\n        /* \"#utility.yul\":10965:11039   */\n      swap2\n      pop\n        /* \"#utility.yul\":11048:11141   */\n      tag_459\n        /* \"#utility.yul\":11137:11140   */\n      dup3\n        /* \"#utility.yul\":11048:11141   */\n      tag_323\n      jump\t// in\n    tag_459:\n        /* \"#utility.yul\":11166:11168   */\n      0x20\n        /* \"#utility.yul\":11161:11164   */\n      dup3\n        /* \"#utility.yul\":11157:11169   */\n      add\n        /* \"#utility.yul\":11150:11169   */\n      swap1\n      pop\n        /* \"#utility.yul\":10809:11175   */\n      swap2\n      swap1\n      pop\n      jump\t// out\n        /* \"#utility.yul\":11181:11600   */\n    tag_139:\n        /* \"#utility.yul\":11347:11351   */\n      0x00\n        /* \"#utility.yul\":11385:11387   */\n      0x20\n        /* \"#utility.yul\":11374:11383   */\n      dup3\n        /* \"#utility.yul\":11370:11388   */\n      add\n        /* \"#utility.yul\":11362:11388   */\n      swap1\n      pop\n        /* \"#utility.yul\":11434:11443   */\n      dup2\n        /* \"#utility.yul\":11428:11432   */\n      dup2\n        /* \"#utility.yul\":11424:11444   */\n      sub\n        /* \"#utility.yul\":11420:11421   */\n      0x00\n        /* \"#utility.yul\":11409:11418   */\n      dup4\n        /* \"#utility.yul\":11405:11422   */\n      add\n        /* \"#utility.yul\":11398:11445   */\n      mstore\n        /* \"#utility.yul\":11462:11593   */\n      tag_461\n        /* \"#utility.yul\":11588:11592   */\n      dup2\n        /* \"#utility.yul\":11462:11593   */\n      tag_324\n      jump\t// in\n    tag_461:\n        /* \"#utility.yul\":11454:11593   */\n      swap1\n      pop\n        /* \"#utility.yul\":11181:11600   */\n      swap2\n      swap1\n      pop\n      jump\t// out\n        /* \"#utility.yul\":11606:11691   */\n    tag_325:\n        /* \"#utility.yul\":11651:11658   */\n      0x00\n        /* \"#utility.yul\":11680:11685   */\n      dup2\n        /* \"#utility.yul\":11669:11685   */\n      swap1\n      pop\n        /* \"#utility.yul\":11606:11691   */\n      swap2\n      swap1\n      pop\n      jump\t// out\n        /* \"#utility.yul\":11697:11757   */\n    tag_326:\n        /* \"#utility.yul\":11725:11728   */\n      0x00\n        /* \"#utility.yul\":11746:11751   */\n      dup2\n        /* \"#utility.yul\":11739:11751   */\n      swap1\n      pop\n        /* \"#utility.yul\":11697:11757   */\n      swap2\n      swap1\n      pop\n      jump\t// out\n        /* \"#utility.yul\":11763:11921   */\n    tag_327:\n        /* \"#utility.yul\":11821:11830   */\n      0x00\n        /* \"#utility.yul\":11854:11915   */\n      tag_465\n        /* \"#utility.yul\":11872:11914   */\n      tag_466\n        /* \"#utility.yul\":11881:11913   */\n      tag_467\n        /* \"#utility.yul\":11907:11912   */\n      dup5\n        /* \"#utility.yul\":11881:11913   */\n      tag_325\n      jump\t// in\n    tag_467:\n        /* \"#utility.yul\":11872:11914   */\n      tag_326\n      jump\t// in\n    tag_466:\n        /* \"#utility.yul\":11854:11915   */\n      tag_302\n      jump\t// in\n    tag_465:\n        /* \"#utility.yul\":11841:11915   */\n      swap1\n      pop\n        /* \"#utility.yul\":11763:11921   */\n      swap2\n      swap1\n      pop\n      jump\t// out\n        /* \"#utility.yul\":11927:12074   */\n    tag_328:\n        /* \"#utility.yul\":12022:12067   */\n      tag_469\n        /* \"#utility.yul\":12061:12066   */\n      dup2\n        /* \"#utility.yul\":12022:12067   */\n      tag_327\n      jump\t// in\n    tag_469:\n        /* \"#utility.yul\":12017:12020   */\n      dup3\n        /* \"#utility.yul\":12010:12068   */\n      mstore\n        /* \"#utility.yul\":11927:12074   */\n      pop\n      pop\n      jump\t// out\n        /* \"#utility.yul\":12080:12871   */\n    tag_173:\n        /* \"#utility.yul\":12321:12325   */\n      0x00\n        /* \"#utility.yul\":12359:12362   */\n      0xc0\n        /* \"#utility.yul\":12348:12357   */\n      dup3\n        /* \"#utility.yul\":12344:12363   */\n      add\n        /* \"#utility.yul\":12336:12363   */\n      swap1\n      pop\n        /* \"#utility.yul\":12373:12444   */\n      tag_471\n        /* \"#utility.yul\":12441:12442   */\n      0x00\n        /* \"#utility.yul\":12430:12439   */\n      dup4\n        /* \"#utility.yul\":12426:12443   */\n      add\n        /* \"#utility.yul\":12417:12423   */\n      dup10\n        /* \"#utility.yul\":12373:12444   */\n      tag_301\n      jump\t// in\n    tag_471:\n        /* \"#utility.yul\":12454:12526   */\n      tag_472\n        /* \"#utility.yul\":12522:12524   */\n      0x20\n        /* \"#utility.yul\":12511:12520   */\n      dup4\n        /* \"#utility.yul\":12507:12525   */\n      add\n        /* \"#utility.yul\":12498:12504   */\n      dup9\n        /* \"#utility.yul\":12454:12526   */\n      tag_301\n      jump\t// in\n    tag_472:\n        /* \"#utility.yul\":12536:12608   */\n      tag_473\n        /* \"#utility.yul\":12604:12606   */\n      0x40\n        /* \"#utility.yul\":12593:12602   */\n      dup4\n        /* \"#utility.yul\":12589:12607   */\n      add\n        /* \"#utility.yul\":12580:12586   */\n      dup8\n        /* \"#utility.yul\":12536:12608   */\n      tag_301\n      jump\t// in\n    tag_473:\n        /* \"#utility.yul\":12618:12690   */\n      tag_474\n        /* \"#utility.yul\":12686:12688   */\n      0x60\n        /* \"#utility.yul\":12675:12684   */\n      dup4\n        /* \"#utility.yul\":12671:12689   */\n      add\n        /* \"#utility.yul\":12662:12668   */\n      dup7\n        /* \"#utility.yul\":12618:12690   */\n      tag_303\n      jump\t// in\n    tag_474:\n        /* \"#utility.yul\":12700:12773   */\n      tag_475\n        /* \"#utility.yul\":12768:12771   */\n      0x80\n        /* \"#utility.yul\":12757:12766   */\n      dup4\n        /* \"#utility.yul\":12753:12772   */\n      add\n        /* \"#utility.yul\":12744:12750   */\n      dup6\n        /* \"#utility.yul\":12700:12773   */\n      tag_303\n      jump\t// in\n    tag_475:\n        /* \"#utility.yul\":12783:12864   */\n      tag_476\n        /* \"#utility.yul\":12859:12862   */\n      0xa0\n        /* \"#utility.yul\":12848:12857   */\n      dup4\n        /* \"#utility.yul\":12844:12863   */\n      add\n        /* \"#utility.yul\":12835:12841   */\n      dup5\n        /* \"#utility.yul\":12783:12864   */\n      tag_328\n      jump\t// in\n    tag_476:\n        /* \"#utility.yul\":12080:12871   */\n      swap8\n      swap7\n      pop\n      pop\n      pop\n      pop\n      pop\n      pop\n      pop\n      jump\t// out\n        /* \"#utility.yul\":12877:13039   */\n    tag_329:\n        /* \"#utility.yul\":13017:13031   */\n      0x4d696e757320616d6f756e740000000000000000000000000000000000000000\n        /* \"#utility.yul\":13013:13014   */\n      0x00\n        /* \"#utility.yul\":13005:13011   */\n      dup3\n        /* \"#utility.yul\":13001:13015   */\n      add\n        /* \"#utility.yul\":12994:13032   */\n      mstore\n        /* \"#utility.yul\":12877:13039   */\n      pop\n      jump\t// out\n        /* \"#utility.yul\":13045:13411   */\n    tag_330:\n        /* \"#utility.yul\":13187:13190   */\n      0x00\n        /* \"#utility.yul\":13208:13275   */\n      tag_479\n        /* \"#utility.yul\":13272:13274   */\n      0x0c\n        /* \"#utility.yul\":13267:13270   */\n      dup4\n        /* \"#utility.yul\":13208:13275   */\n      tag_313\n      jump\t// in\n    tag_479:\n        /* \"#utility.yul\":13201:13275   */\n      swap2\n      pop\n        /* \"#utility.yul\":13284:13377   */\n      tag_480\n        /* \"#utility.yul\":13373:13376   */\n      dup3\n        /* \"#utility.yul\":13284:13377   */\n      tag_329\n      jump\t// in\n    tag_480:\n        /* \"#utility.yul\":13402:13404   */\n      0x20\n        /* \"#utility.yul\":13397:13400   */\n      dup3\n        /* \"#utility.yul\":13393:13405   */\n      add\n        /* \"#utility.yul\":13386:13405   */\n      swap1\n      pop\n        /* \"#utility.yul\":13045:13411   */\n      swap2\n      swap1\n      pop\n      jump\t// out\n        /* \"#utility.yul\":13417:13836   */\n    tag_188:\n        /* \"#utility.yul\":13583:13587   */\n      0x00\n        /* \"#utility.yul\":13621:13623   */\n      0x20\n        /* \"#utility.yul\":13610:13619   */\n      dup3\n        /* \"#utility.yul\":13606:13624   */\n      add\n        /* \"#utility.yul\":13598:13624   */\n      swap1\n      pop\n        /* \"#utility.yul\":13670:13679   */\n      dup2\n        /* \"#utility.yul\":13664:13668   */\n      dup2\n        /* \"#utility.yul\":13660:13680   */\n      sub\n        /* \"#utility.yul\":13656:13657   */\n      0x00\n        /* \"#utility.yul\":13645:13654   */\n      dup4\n        /* \"#utility.yul\":13641:13658   */\n      add\n        /* \"#utility.yul\":13634:13681   */\n      mstore\n        /* \"#utility.yul\":13698:13829   */\n      tag_482\n        /* \"#utility.yul\":13824:13828   */\n      dup2\n        /* \"#utility.yul\":13698:13829   */\n      tag_330\n      jump\t// in\n    tag_482:\n        /* \"#utility.yul\":13690:13829   */\n      swap1\n      pop\n        /* \"#utility.yul\":13417:13836   */\n      swap2\n      swap1\n      pop\n      jump\t// out\n        /* \"#utility.yul\":13842:14506   */\n    tag_204:\n        /* \"#utility.yul\":14047:14051   */\n      0x00\n        /* \"#utility.yul\":14085:14088   */\n      0xa0\n        /* \"#utility.yul\":14074:14083   */\n      dup3\n        /* \"#utility.yul\":14070:14089   */\n      add\n        /* \"#utility.yul\":14062:14089   */\n      swap1\n      pop\n        /* \"#utility.yul\":14099:14170   */\n      tag_484\n        /* \"#utility.yul\":14167:14168   */\n      0x00\n        /* \"#utility.yul\":14156:14165   */\n      dup4\n        /* \"#utility.yul\":14152:14169   */\n      add\n        /* \"#utility.yul\":14143:14149   */\n      dup9\n        /* \"#utility.yul\":14099:14170   */\n      tag_301\n      jump\t// in\n    tag_484:\n        /* \"#utility.yul\":14180:14252   */\n      tag_485\n        /* \"#utility.yul\":14248:14250   */\n      0x20\n        /* \"#utility.yul\":14237:14246   */\n      dup4\n        /* \"#utility.yul\":14233:14251   */\n      add\n        /* \"#utility.yul\":14224:14230   */\n      dup8\n        /* \"#utility.yul\":14180:14252   */\n      tag_301\n      jump\t// in\n    tag_485:\n        /* \"#utility.yul\":14262:14334   */\n      tag_486\n        /* \"#utility.yul\":14330:14332   */\n      0x40\n        /* \"#utility.yul\":14319:14328   */\n      dup4\n        /* \"#utility.yul\":14315:14333   */\n      add\n        /* \"#utility.yul\":14306:14312   */\n      dup7\n        /* \"#utility.yul\":14262:14334   */\n      tag_303\n      jump\t// in\n    tag_486:\n        /* \"#utility.yul\":14344:14416   */\n      tag_487\n        /* \"#utility.yul\":14412:14414   */\n      0x60\n        /* \"#utility.yul\":14401:14410   */\n      dup4\n        /* \"#utility.yul\":14397:14415   */\n      add\n        /* \"#utility.yul\":14388:14394   */\n      dup6\n        /* \"#utility.yul\":14344:14416   */\n      tag_303\n      jump\t// in\n    tag_487:\n        /* \"#utility.yul\":14426:14499   */\n      tag_488\n        /* \"#utility.yul\":14494:14497   */\n      0x80\n        /* \"#utility.yul\":14483:14492   */\n      dup4\n        /* \"#utility.yul\":14479:14498   */\n      add\n        /* \"#utility.yul\":14470:14476   */\n      dup5\n        /* \"#utility.yul\":14426:14499   */\n      tag_303\n      jump\t// in\n    tag_488:\n        /* \"#utility.yul\":13842:14506   */\n      swap7\n      swap6\n      pop\n      pop\n      pop\n      pop\n      pop\n      pop\n      jump\t// out\n        /* \"#utility.yul\":14512:14954   */\n    tag_208:\n        /* \"#utility.yul\":14661:14665   */\n      0x00\n        /* \"#utility.yul\":14699:14701   */\n      0x60\n        /* \"#utility.yul\":14688:14697   */\n      dup3\n        /* \"#utility.yul\":14684:14702   */\n      add\n        /* \"#utility.yul\":14676:14702   */\n      swap1\n      pop\n        /* \"#utility.yul\":14712:14783   */\n      tag_490\n        /* \"#utility.yul\":14780:14781   */\n      0x00\n        /* \"#utility.yul\":14769:14778   */\n      dup4\n        /* \"#utility.yul\":14765:14782   */\n      add\n        /* \"#utility.yul\":14756:14762   */\n      dup7\n        /* \"#utility.yul\":14712:14783   */\n      tag_301\n      jump\t// in\n    tag_490:\n        /* \"#utility.yul\":14793:14865   */\n      tag_491\n        /* \"#utility.yul\":14861:14863   */\n      0x20\n        /* \"#utility.yul\":14850:14859   */\n      dup4\n        /* \"#utility.yul\":14846:14864   */\n      add\n        /* \"#utility.yul\":14837:14843   */\n      dup6\n        /* \"#utility.yul\":14793:14865   */\n      tag_301\n      jump\t// in\n    tag_491:\n        /* \"#utility.yul\":14875:14947   */\n      tag_492\n        /* \"#utility.yul\":14943:14945   */\n      0x40\n        /* \"#utility.yul\":14932:14941   */\n      dup4\n        /* \"#utility.yul\":14928:14946   */\n      add\n        /* \"#utility.yul\":14919:14925   */\n      dup5\n        /* \"#utility.yul\":14875:14947   */\n      tag_303\n      jump\t// in\n    tag_492:\n        /* \"#utility.yul\":14512:14954   */\n      swap5\n      swap4\n      pop\n      pop\n      pop\n      pop\n      jump\t// out\n        /* \"#utility.yul\":14960:15058   */\n    tag_331:\n        /* \"#utility.yul\":15011:15017   */\n      0x00\n        /* \"#utility.yul\":15045:15050   */\n      dup2\n        /* \"#utility.yul\":15039:15051   */\n      mload\n        /* \"#utility.yul\":15029:15051   */\n      swap1\n      pop\n        /* \"#utility.yul\":14960:15058   */\n      swap2\n      swap1\n      pop\n      jump\t// out\n        /* \"#utility.yul\":15064:15211   */\n    tag_332:\n        /* \"#utility.yul\":15165:15176   */\n      0x00\n        /* \"#utility.yul\":15202:15205   */\n      dup2\n        /* \"#utility.yul\":15187:15205   */\n      swap1\n      pop\n        /* \"#utility.yul\":15064:15211   */\n      swap3\n      swap2\n      pop\n      pop\n      jump\t// out\n        /* \"#utility.yul\":15217:15524   */\n    tag_333:\n        /* \"#utility.yul\":15285:15286   */\n      0x00\n        /* \"#utility.yul\":15295:15408   */\n    tag_496:\n        /* \"#utility.yul\":15309:15315   */\n      dup4\n        /* \"#utility.yul\":15306:15307   */\n      dup2\n        /* \"#utility.yul\":15303:15316   */\n      lt\n        /* \"#utility.yul\":15295:15408   */\n      iszero\n      tag_498\n      jumpi\n        /* \"#utility.yul\":15394:15395   */\n      dup1\n        /* \"#utility.yul\":15389:15392   */\n      dup3\n        /* \"#utility.yul\":15385:15396   */\n      add\n        /* \"#utility.yul\":15379:15397   */\n      mload\n        /* \"#utility.yul\":15375:15376   */\n      dup2\n        /* \"#utility.yul\":15370:15373   */\n      dup5\n        /* \"#utility.yul\":15366:15377   */\n      add\n        /* \"#utility.yul\":15359:15398   */\n      mstore\n        /* \"#utility.yul\":15331:15333   */\n      0x20\n        /* \"#utility.yul\":15328:15329   */\n      dup2\n        /* \"#utility.yul\":15324:15334   */\n      add\n        /* \"#utility.yul\":15319:15334   */\n      swap1\n      pop\n        /* \"#utility.yul\":15295:15408   */\n      jump(tag_496)\n    tag_498:\n        /* \"#utility.yul\":15426:15432   */\n      dup4\n        /* \"#utility.yul\":15423:15424   */\n      dup2\n        /* \"#utility.yul\":15420:15433   */\n      gt\n        /* \"#utility.yul\":15417:15518   */\n      iszero\n      tag_499\n      jumpi\n        /* \"#utility.yul\":15506:15507   */\n      0x00\n        /* \"#utility.yul\":15497:15503   */\n      dup5\n        /* \"#utility.yul\":15492:15495   */\n      dup5\n        /* \"#utility.yul\":15488:15504   */\n      add\n        /* \"#utility.yul\":15481:15508   */\n      mstore\n        /* \"#utility.yul\":15417:15518   */\n    tag_499:\n        /* \"#utility.yul\":15266:15524   */\n      pop\n        /* \"#utility.yul\":15217:15524   */\n      pop\n      pop\n      pop\n      jump\t// out\n        /* \"#utility.yul\":15530:15903   */\n    tag_334:\n        /* \"#utility.yul\":15634:15637   */\n      0x00\n        /* \"#utility.yul\":15662:15700   */\n      tag_501\n        /* \"#utility.yul\":15694:15699   */\n      dup3\n        /* \"#utility.yul\":15662:15700   */\n      tag_331\n      jump\t// in\n    tag_501:\n        /* \"#utility.yul\":15716:15804   */\n      tag_502\n        /* \"#utility.yul\":15797:15803   */\n      dup2\n        /* \"#utility.yul\":15792:15795   */\n      dup6\n        /* \"#utility.yul\":15716:15804   */\n      tag_332\n      jump\t// in\n    tag_502:\n        /* \"#utility.yul\":15709:15804   */\n      swap4\n      pop\n        /* \"#utility.yul\":15813:15865   */\n      tag_503\n        /* \"#utility.yul\":15858:15864   */\n      dup2\n        /* \"#utility.yul\":15853:15856   */\n      dup6\n        /* \"#utility.yul\":15846:15850   */\n      0x20\n        /* \"#utility.yul\":15839:15844   */\n      dup7\n        /* \"#utility.yul\":15835:15851   */\n      add\n        /* \"#utility.yul\":15813:15865   */\n      tag_333\n      jump\t// in\n    tag_503:\n        /* \"#utility.yul\":15890:15896   */\n      dup1\n        /* \"#utility.yul\":15885:15888   */\n      dup5\n        /* \"#utility.yul\":15881:15897   */\n      add\n        /* \"#utility.yul\":15874:15897   */\n      swap2\n      pop\n        /* \"#utility.yul\":15638:15903   */\n      pop\n        /* \"#utility.yul\":15530:15903   */\n      swap3\n      swap2\n      pop\n      pop\n      jump\t// out\n        /* \"#utility.yul\":15909:16180   */\n    tag_210:\n        /* \"#utility.yul\":16039:16042   */\n      0x00\n        /* \"#utility.yul\":16061:16154   */\n      tag_505\n        /* \"#utility.yul\":16150:16153   */\n      dup3\n        /* \"#utility.yul\":16141:16147   */\n      dup5\n        /* \"#utility.yul\":16061:16154   */\n      tag_334\n      jump\t// in\n    tag_505:\n        /* \"#utility.yul\":16054:16154   */\n      swap2\n      pop\n        /* \"#utility.yul\":16171:16174   */\n      dup2\n        /* \"#utility.yul\":16164:16174   */\n      swap1\n      pop\n        /* \"#utility.yul\":15909:16180   */\n      swap3\n      swap2\n      pop\n      pop\n      jump\t// out\n        /* \"#utility.yul\":16186:16302   */\n    tag_335:\n        /* \"#utility.yul\":16256:16277   */\n      tag_507\n        /* \"#utility.yul\":16271:16276   */\n      dup2\n        /* \"#utility.yul\":16256:16277   */\n      tag_311\n      jump\t// in\n    tag_507:\n        /* \"#utility.yul\":16249:16254   */\n      dup2\n        /* \"#utility.yul\":16246:16278   */\n      eq\n        /* \"#utility.yul\":16236:16296   */\n      tag_508\n      jumpi\n        /* \"#utility.yul\":16292:16293   */\n      0x00\n        /* \"#utility.yul\":16289:16290   */\n      dup1\n        /* \"#utility.yul\":16282:16294   */\n      revert\n        /* \"#utility.yul\":16236:16296   */\n    tag_508:\n        /* \"#utility.yul\":16186:16302   */\n      pop\n      jump\t// out\n        /* \"#utility.yul\":16308:16445   */\n    tag_336:\n        /* \"#utility.yul\":16362:16367   */\n      0x00\n        /* \"#utility.yul\":16393:16399   */\n      dup2\n        /* \"#utility.yul\":16387:16400   */\n      mload\n        /* \"#utility.yul\":16378:16400   */\n      swap1\n      pop\n        /* \"#utility.yul\":16409:16439   */\n      tag_510\n        /* \"#utility.yul\":16433:16438   */\n      dup2\n        /* \"#utility.yul\":16409:16439   */\n      tag_335\n      jump\t// in\n    tag_510:\n        /* \"#utility.yul\":16308:16445   */\n      swap3\n      swap2\n      pop\n      pop\n      jump\t// out\n        /* \"#utility.yul\":16451:16796   */\n    tag_217:\n        /* \"#utility.yul\":16518:16524   */\n      0x00\n        /* \"#utility.yul\":16567:16569   */\n      0x20\n        /* \"#utility.yul\":16555:16564   */\n      dup3\n        /* \"#utility.yul\":16546:16553   */\n      dup5\n        /* \"#utility.yul\":16542:16565   */\n      sub\n        /* \"#utility.yul\":16538:16570   */\n      slt\n        /* \"#utility.yul\":16535:16654   */\n      iszero\n      tag_512\n      jumpi\n        /* \"#utility.yul\":16573:16652   */\n      tag_513\n      tag_305\n      jump\t// in\n    tag_513:\n        /* \"#utility.yul\":16535:16654   */\n    tag_512:\n        /* \"#utility.yul\":16693:16694   */\n      0x00\n        /* \"#utility.yul\":16718:16779   */\n      tag_514\n        /* \"#utility.yul\":16771:16778   */\n      dup5\n        /* \"#utility.yul\":16762:16768   */\n      dup3\n        /* \"#utility.yul\":16751:16760   */\n      dup6\n        /* \"#utility.yul\":16747:16769   */\n      add\n        /* \"#utility.yul\":16718:16779   */\n      tag_336\n      jump\t// in\n    tag_514:\n        /* \"#utility.yul\":16708:16779   */\n      swap2\n      pop\n        /* \"#utility.yul\":16664:16789   */\n      pop\n        /* \"#utility.yul\":16451:16796   */\n      swap3\n      swap2\n      pop\n      pop\n      jump\t// out\n        /* \"#utility.yul\":16802:17038   */\n    tag_337:\n        /* \"#utility.yul\":16942:16976   */\n      0x5472616e7366657248656c7065723a3a7472616e7366657246726f6d3a207472\n        /* \"#utility.yul\":16938:16939   */\n      0x00\n        /* \"#utility.yul\":16930:16936   */\n      dup3\n        /* \"#utility.yul\":16926:16940   */\n      add\n        /* \"#utility.yul\":16919:16977   */\n      mstore\n        /* \"#utility.yul\":17011:17030   */\n      0x616e7366657246726f6d206661696c6564000000000000000000000000000000\n        /* \"#utility.yul\":17006:17008   */\n      0x20\n        /* \"#utility.yul\":16998:17004   */\n      dup3\n        /* \"#utility.yul\":16994:17009   */\n      add\n        /* \"#utility.yul\":16987:17031   */\n      mstore\n        /* \"#utility.yul\":16802:17038   */\n      pop\n      jump\t// out\n        /* \"#utility.yul\":17044:17410   */\n    tag_338:\n        /* \"#utility.yul\":17186:17189   */\n      0x00\n        /* \"#utility.yul\":17207:17274   */\n      tag_517\n        /* \"#utility.yul\":17271:17273   */\n      0x31\n        /* \"#utility.yul\":17266:17269   */\n      dup4\n        /* \"#utility.yul\":17207:17274   */\n      tag_313\n      jump\t// in\n    tag_517:\n        /* \"#utility.yul\":17200:17274   */\n      swap2\n      pop\n        /* \"#utility.yul\":17283:17376   */\n      tag_518\n        /* \"#utility.yul\":17372:17375   */\n      dup3\n        /* \"#utility.yul\":17283:17376   */\n      tag_337\n      jump\t// in\n    tag_518:\n        /* \"#utility.yul\":17401:17403   */\n      0x40\n        /* \"#utility.yul\":17396:17399   */\n      dup3\n        /* \"#utility.yul\":17392:17404   */\n      add\n        /* \"#utility.yul\":17385:17404   */\n      swap1\n      pop\n        /* \"#utility.yul\":17044:17410   */\n      swap2\n      swap1\n      pop\n      jump\t// out\n        /* \"#utility.yul\":17416:17835   */\n    tag_220:\n        /* \"#utility.yul\":17582:17586   */\n      0x00\n        /* \"#utility.yul\":17620:17622   */\n      0x20\n        /* \"#utility.yul\":17609:17618   */\n      dup3\n        /* \"#utility.yul\":17605:17623   */\n      add\n        /* \"#utility.yul\":17597:17623   */\n      swap1\n      pop\n        /* \"#utility.yul\":17669:17678   */\n      dup2\n        /* \"#utility.yul\":17663:17667   */\n      dup2\n        /* \"#utility.yul\":17659:17679   */\n      sub\n        /* \"#utility.yul\":17655:17656   */\n      0x00\n        /* \"#utility.yul\":17644:17653   */\n      dup4\n        /* \"#utility.yul\":17640:17657   */\n      add\n        /* \"#utility.yul\":17633:17680   */\n      mstore\n        /* \"#utility.yul\":17697:17828   */\n      tag_520\n        /* \"#utility.yul\":17823:17827   */\n      dup2\n        /* \"#utility.yul\":17697:17828   */\n      tag_338\n      jump\t// in\n    tag_520:\n        /* \"#utility.yul\":17689:17828   */\n      swap1\n      pop\n        /* \"#utility.yul\":17416:17835   */\n      swap2\n      swap1\n      pop\n      jump\t// out\n        /* \"#utility.yul\":17841:18173   */\n    tag_234:\n        /* \"#utility.yul\":17962:17966   */\n      0x00\n        /* \"#utility.yul\":18000:18002   */\n      0x40\n        /* \"#utility.yul\":17989:17998   */\n      dup3\n        /* \"#utility.yul\":17985:18003   */\n      add\n        /* \"#utility.yul\":17977:18003   */\n      swap1\n      pop\n        /* \"#utility.yul\":18013:18084   */\n      tag_522\n        /* \"#utility.yul\":18081:18082   */\n      0x00\n        /* \"#utility.yul\":18070:18079   */\n      dup4\n        /* \"#utility.yul\":18066:18083   */\n      add\n        /* \"#utility.yul\":18057:18063   */\n      dup6\n        /* \"#utility.yul\":18013:18084   */\n      tag_301\n      jump\t// in\n    tag_522:\n        /* \"#utility.yul\":18094:18166   */\n      tag_523\n        /* \"#utility.yul\":18162:18164   */\n      0x20\n        /* \"#utility.yul\":18151:18160   */\n      dup4\n        /* \"#utility.yul\":18147:18165   */\n      add\n        /* \"#utility.yul\":18138:18144   */\n      dup5\n        /* \"#utility.yul\":18094:18166   */\n      tag_303\n      jump\t// in\n    tag_523:\n        /* \"#utility.yul\":17841:18173   */\n      swap4\n      swap3\n      pop\n      pop\n      pop\n      jump\t// out\n        /* \"#utility.yul\":18179:18340   */\n    tag_339:\n        /* \"#utility.yul\":18319:18332   */\n      0x4641494c4544204d696e74000000000000000000000000000000000000000000\n        /* \"#utility.yul\":18315:18316   */\n      0x00\n        /* \"#utility.yul\":18307:18313   */\n      dup3\n        /* \"#utility.yul\":18303:18317   */\n      add\n        /* \"#utility.yul\":18296:18333   */\n      mstore\n        /* \"#utility.yul\":18179:18340   */\n      pop\n      jump\t// out\n        /* \"#utility.yul\":18346:18712   */\n    tag_340:\n        /* \"#utility.yul\":18488:18491   */\n      0x00\n        /* \"#utility.yul\":18509:18576   */\n      tag_526\n        /* \"#utility.yul\":18573:18575   */\n      0x0b\n        /* \"#utility.yul\":18568:18571   */\n      dup4\n        /* \"#utility.yul\":18509:18576   */\n      tag_313\n      jump\t// in\n    tag_526:\n        /* \"#utility.yul\":18502:18576   */\n      swap2\n      pop\n        /* \"#utility.yul\":18585:18678   */\n      tag_527\n        /* \"#utility.yul\":18674:18677   */\n      dup3\n        /* \"#utility.yul\":18585:18678   */\n      tag_339\n      jump\t// in\n    tag_527:\n        /* \"#utility.yul\":18703:18705   */\n      0x20\n        /* \"#utility.yul\":18698:18701   */\n      dup3\n        /* \"#utility.yul\":18694:18706   */\n      add\n        /* \"#utility.yul\":18687:18706   */\n      swap1\n      pop\n        /* \"#utility.yul\":18346:18712   */\n      swap2\n      swap1\n      pop\n      jump\t// out\n        /* \"#utility.yul\":18718:19137   */\n    tag_244:\n        /* \"#utility.yul\":18884:18888   */\n      0x00\n        /* \"#utility.yul\":18922:18924   */\n      0x20\n        /* \"#utility.yul\":18911:18920   */\n      dup3\n        /* \"#utility.yul\":18907:18925   */\n      add\n        /* \"#utility.yul\":18899:18925   */\n      swap1\n      pop\n        /* \"#utility.yul\":18971:18980   */\n      dup2\n        /* \"#utility.yul\":18965:18969   */\n      dup2\n        /* \"#utility.yul\":18961:18981   */\n      sub\n        /* \"#utility.yul\":18957:18958   */\n      0x00\n        /* \"#utility.yul\":18946:18955   */\n      dup4\n        /* \"#utility.yul\":18942:18959   */\n      add\n        /* \"#utility.yul\":18935:18982   */\n      mstore\n        /* \"#utility.yul\":18999:19130   */\n      tag_529\n        /* \"#utility.yul\":19125:19129   */\n      dup2\n        /* \"#utility.yul\":18999:19130   */\n      tag_340\n      jump\t// in\n    tag_529:\n        /* \"#utility.yul\":18991:19130   */\n      swap1\n      pop\n        /* \"#utility.yul\":18718:19137   */\n      swap2\n      swap1\n      pop\n      jump\t// out\n        /* \"#utility.yul\":19143:19299   */\n    tag_341:\n        /* \"#utility.yul\":19283:19291   */\n      0x4c6f636b65640000000000000000000000000000000000000000000000000000\n        /* \"#utility.yul\":19279:19280   */\n      0x00\n        /* \"#utility.yul\":19271:19277   */\n      dup3\n        /* \"#utility.yul\":19267:19281   */\n      add\n        /* \"#utility.yul\":19260:19292   */\n      mstore\n        /* \"#utility.yul\":19143:19299   */\n      pop\n      jump\t// out\n        /* \"#utility.yul\":19305:19670   */\n    tag_342:\n        /* \"#utility.yul\":19447:19450   */\n      0x00\n        /* \"#utility.yul\":19468:19534   */\n      tag_532\n        /* \"#utility.yul\":19532:19533   */\n      0x06\n        /* \"#utility.yul\":19527:19530   */\n      dup4\n        /* \"#utility.yul\":19468:19534   */\n      tag_313\n      jump\t// in\n    tag_532:\n        /* \"#utility.yul\":19461:19534   */\n      swap2\n      pop\n        /* \"#utility.yul\":19543:19636   */\n      tag_533\n        /* \"#utility.yul\":19632:19635   */\n      dup3\n        /* \"#utility.yul\":19543:19636   */\n      tag_341\n      jump\t// in\n    tag_533:\n        /* \"#utility.yul\":19661:19663   */\n      0x20\n        /* \"#utility.yul\":19656:19659   */\n      dup3\n        /* \"#utility.yul\":19652:19664   */\n      add\n        /* \"#utility.yul\":19645:19664   */\n      swap1\n      pop\n        /* \"#utility.yul\":19305:19670   */\n      swap2\n      swap1\n      pop\n      jump\t// out\n        /* \"#utility.yul\":19676:20095   */\n    tag_248:\n        /* \"#utility.yul\":19842:19846   */\n      0x00\n        /* \"#utility.yul\":19880:19882   */\n      0x20\n        /* \"#utility.yul\":19869:19878   */\n      dup3\n        /* \"#utility.yul\":19865:19883   */\n      add\n        /* \"#utility.yul\":19857:19883   */\n      swap1\n      pop\n        /* \"#utility.yul\":19929:19938   */\n      dup2\n        /* \"#utility.yul\":19923:19927   */\n      dup2\n        /* \"#utility.yul\":19919:19939   */\n      sub\n        /* \"#utility.yul\":19915:19916   */\n      0x00\n        /* \"#utility.yul\":19904:19913   */\n      dup4\n        /* \"#utility.yul\":19900:19917   */\n      add\n        /* \"#utility.yul\":19893:19940   */\n      mstore\n        /* \"#utility.yul\":19957:20088   */\n      tag_535\n        /* \"#utility.yul\":20083:20087   */\n      dup2\n        /* \"#utility.yul\":19957:20088   */\n      tag_342\n      jump\t// in\n    tag_535:\n        /* \"#utility.yul\":19949:20088   */\n      swap1\n      pop\n        /* \"#utility.yul\":19676:20095   */\n      swap2\n      swap1\n      pop\n      jump\t// out\n        /* \"#utility.yul\":20101:20259   */\n    tag_343:\n        /* \"#utility.yul\":20241:20251   */\n      0x30206e756d626572000000000000000000000000000000000000000000000000\n        /* \"#utility.yul\":20237:20238   */\n      0x00\n        /* \"#utility.yul\":20229:20235   */\n      dup3\n        /* \"#utility.yul\":20225:20239   */\n      add\n        /* \"#utility.yul\":20218:20252   */\n      mstore\n        /* \"#utility.yul\":20101:20259   */\n      pop\n      jump\t// out\n        /* \"#utility.yul\":20265:20630   */\n    tag_344:\n        /* \"#utility.yul\":20407:20410   */\n      0x00\n        /* \"#utility.yul\":20428:20494   */\n      tag_538\n        /* \"#utility.yul\":20492:20493   */\n      0x08\n        /* \"#utility.yul\":20487:20490   */\n      dup4\n        /* \"#utility.yul\":20428:20494   */\n      tag_313\n      jump\t// in\n    tag_538:\n        /* \"#utility.yul\":20421:20494   */\n      swap2\n      pop\n        /* \"#utility.yul\":20503:20596   */\n      tag_539\n        /* \"#utility.yul\":20592:20595   */\n      dup3\n        /* \"#utility.yul\":20503:20596   */\n      tag_343\n      jump\t// in\n    tag_539:\n        /* \"#utility.yul\":20621:20623   */\n      0x20\n        /* \"#utility.yul\":20616:20619   */\n      dup3\n        /* \"#utility.yul\":20612:20624   */\n      add\n        /* \"#utility.yul\":20605:20624   */\n      swap1\n      pop\n        /* \"#utility.yul\":20265:20630   */\n      swap2\n      swap1\n      pop\n      jump\t// out\n        /* \"#utility.yul\":20636:21055   */\n    tag_266:\n        /* \"#utility.yul\":20802:20806   */\n      0x00\n        /* \"#utility.yul\":20840:20842   */\n      0x20\n        /* \"#utility.yul\":20829:20838   */\n      dup3\n        /* \"#utility.yul\":20825:20843   */\n      add\n        /* \"#utility.yul\":20817:20843   */\n      swap1\n      pop\n        /* \"#utility.yul\":20889:20898   */\n      dup2\n        /* \"#utility.yul\":20883:20887   */\n      dup2\n        /* \"#utility.yul\":20879:20899   */\n      sub\n        /* \"#utility.yul\":20875:20876   */\n      0x00\n        /* \"#utility.yul\":20864:20873   */\n      dup4\n        /* \"#utility.yul\":20860:20877   */\n      add\n        /* \"#utility.yul\":20853:20900   */\n      mstore\n        /* \"#utility.yul\":20917:21048   */\n      tag_541\n        /* \"#utility.yul\":21043:21047   */\n      dup2\n        /* \"#utility.yul\":20917:21048   */\n      tag_344\n      jump\t// in\n    tag_541:\n        /* \"#utility.yul\":20909:21048   */\n      swap1\n      pop\n        /* \"#utility.yul\":20636:21055   */\n      swap2\n      swap1\n      pop\n      jump\t// out\n        /* \"#utility.yul\":21061:21293   */\n    tag_345:\n        /* \"#utility.yul\":21201:21235   */\n      0x5472616e7366657248656c7065723a3a736166655472616e736665723a207472\n        /* \"#utility.yul\":21197:21198   */\n      0x00\n        /* \"#utility.yul\":21189:21195   */\n      dup3\n        /* \"#utility.yul\":21185:21199   */\n      add\n        /* \"#utility.yul\":21178:21236   */\n      mstore\n        /* \"#utility.yul\":21270:21285   */\n      0x616e73666572206661696c656400000000000000000000000000000000000000\n        /* \"#utility.yul\":21265:21267   */\n      0x20\n        /* \"#utility.yul\":21257:21263   */\n      dup3\n        /* \"#utility.yul\":21253:21268   */\n      add\n        /* \"#utility.yul\":21246:21286   */\n      mstore\n        /* \"#utility.yul\":21061:21293   */\n      pop\n      jump\t// out\n        /* \"#utility.yul\":21299:21665   */\n    tag_346:\n        /* \"#utility.yul\":21441:21444   */\n      0x00\n        /* \"#utility.yul\":21462:21529   */\n      tag_544\n        /* \"#utility.yul\":21526:21528   */\n      0x2d\n        /* \"#utility.yul\":21521:21524   */\n      dup4\n        /* \"#utility.yul\":21462:21529   */\n      tag_313\n      jump\t// in\n    tag_544:\n        /* \"#utility.yul\":21455:21529   */\n      swap2\n      pop\n        /* \"#utility.yul\":21538:21631   */\n      tag_545\n        /* \"#utility.yul\":21627:21630   */\n      dup3\n        /* \"#utility.yul\":21538:21631   */\n      tag_345\n      jump\t// in\n    tag_545:\n        /* \"#utility.yul\":21656:21658   */\n      0x40\n        /* \"#utility.yul\":21651:21654   */\n      dup3\n        /* \"#utility.yul\":21647:21659   */\n      add\n        /* \"#utility.yul\":21640:21659   */\n      swap1\n      pop\n        /* \"#utility.yul\":21299:21665   */\n      swap2\n      swap1\n      pop\n      jump\t// out\n        /* \"#utility.yul\":21671:22090   */\n    tag_286:\n        /* \"#utility.yul\":21837:21841   */\n      0x00\n        /* \"#utility.yul\":21875:21877   */\n      0x20\n        /* \"#utility.yul\":21864:21873   */\n      dup3\n        /* \"#utility.yul\":21860:21878   */\n      add\n        /* \"#utility.yul\":21852:21878   */\n      swap1\n      pop\n        /* \"#utility.yul\":21924:21933   */\n      dup2\n        /* \"#utility.yul\":21918:21922   */\n      dup2\n        /* \"#utility.yul\":21914:21934   */\n      sub\n        /* \"#utility.yul\":21910:21911   */\n      0x00\n        /* \"#utility.yul\":21899:21908   */\n      dup4\n        /* \"#utility.yul\":21895:21912   */\n      add\n        /* \"#utility.yul\":21888:21935   */\n      mstore\n        /* \"#utility.yul\":21952:22083   */\n      tag_547\n        /* \"#utility.yul\":22078:22082   */\n      dup2\n        /* \"#utility.yul\":21952:22083   */\n      tag_346\n      jump\t// in\n    tag_547:\n        /* \"#utility.yul\":21944:22083   */\n      swap1\n      pop\n        /* \"#utility.yul\":21671:22090   */\n      swap2\n      swap1\n      pop\n      jump\t// out\n        /* \"#utility.yul\":22096:22257   */\n    tag_347:\n        /* \"#utility.yul\":22236:22249   */\n      0x4641494c4544204275726e000000000000000000000000000000000000000000\n        /* \"#utility.yul\":22232:22233   */\n      0x00\n        /* \"#utility.yul\":22224:22230   */\n      dup3\n        /* \"#utility.yul\":22220:22234   */\n      add\n        /* \"#utility.yul\":22213:22250   */\n      mstore\n        /* \"#utility.yul\":22096:22257   */\n      pop\n      jump\t// out\n        /* \"#utility.yul\":22263:22629   */\n    tag_348:\n        /* \"#utility.yul\":22405:22408   */\n      0x00\n        /* \"#utility.yul\":22426:22493   */\n      tag_550\n        /* \"#utility.yul\":22490:22492   */\n      0x0b\n        /* \"#utility.yul\":22485:22488   */\n      dup4\n        /* \"#utility.yul\":22426:22493   */\n      tag_313\n      jump\t// in\n    tag_550:\n        /* \"#utility.yul\":22419:22493   */\n      swap2\n      pop\n        /* \"#utility.yul\":22502:22595   */\n      tag_551\n        /* \"#utility.yul\":22591:22594   */\n      dup3\n        /* \"#utility.yul\":22502:22595   */\n      tag_347\n      jump\t// in\n    tag_551:\n        /* \"#utility.yul\":22620:22622   */\n      0x20\n        /* \"#utility.yul\":22615:22618   */\n      dup3\n        /* \"#utility.yul\":22611:22623   */\n      add\n        /* \"#utility.yul\":22604:22623   */\n      swap1\n      pop\n        /* \"#utility.yul\":22263:22629   */\n      swap2\n      swap1\n      pop\n      jump\t// out\n        /* \"#utility.yul\":22635:23054   */\n    tag_298:\n        /* \"#utility.yul\":22801:22805   */\n      0x00\n        /* \"#utility.yul\":22839:22841   */\n      0x20\n        /* \"#utility.yul\":22828:22837   */\n      dup3\n        /* \"#utility.yul\":22824:22842   */\n      add\n        /* \"#utility.yul\":22816:22842   */\n      swap1\n      pop\n        /* \"#utility.yul\":22888:22897   */\n      dup2\n        /* \"#utility.yul\":22882:22886   */\n      dup2\n        /* \"#utility.yul\":22878:22898   */\n      sub\n        /* \"#utility.yul\":22874:22875   */\n      0x00\n        /* \"#utility.yul\":22863:22872   */\n      dup4\n        /* \"#utility.yul\":22859:22876   */\n      add\n        /* \"#utility.yul\":22852:22899   */\n      mstore\n        /* \"#utility.yul\":22916:23047   */\n      tag_553\n        /* \"#utility.yul\":23042:23046   */\n      dup2\n        /* \"#utility.yul\":22916:23047   */\n      tag_348\n      jump\t// in\n    tag_553:\n        /* \"#utility.yul\":22908:23047   */\n      swap1\n      pop\n        /* \"#utility.yul\":22635:23054   */\n      swap2\n      swap1\n      pop\n      jump\t// out\n    stop\n    data_23b872dd7302113369cda2901243429419bec145408fa8b352b3dd92b66c680b 7472616e7366657246726f6d28616464726573732c616464726573732c75696e7432353629\n\n    auxdata: 0xa2646970667358221220c9447d28f8ba735125cda39a847f655f9837eb9036a4069f81d8d6e079ee185c64736f6c634300080f0033\n}\n",
				"bytecode": {
					"linkReferences": {},
					"object": "608060405260006005553480156200001657600080fd5b506040516200277e3803806200277e83398181016040528101906200003c9190620001b2565b336000806101000a81548173ffffffffffffffffffffffffffffffffffffffff021916908373ffffffffffffffffffffffffffffffffffffffff16021790555082600160006101000a81548173ffffffffffffffffffffffffffffffffffffffff021916908373ffffffffffffffffffffffffffffffffffffffff16021790555081600260006101000a81548173ffffffffffffffffffffffffffffffffffffffff021916908373ffffffffffffffffffffffffffffffffffffffff16021790555080600360006101000a81548173ffffffffffffffffffffffffffffffffffffffff021916908373ffffffffffffffffffffffffffffffffffffffff1602179055505050506200020e565b600080fd5b600073ffffffffffffffffffffffffffffffffffffffff82169050919050565b60006200017a826200014d565b9050919050565b6200018c816200016d565b81146200019857600080fd5b50565b600081519050620001ac8162000181565b92915050565b600080600060608486031215620001ce57620001cd62000148565b5b6000620001de868287016200019b565b9350506020620001f1868287016200019b565b925050604062000204868287016200019b565b9150509250925092565b612560806200021e6000396000f3fe608060405234801561001057600080fd5b50600436106100cf5760003560e01c806377619ac51161008c578063a0a986f111610066578063a0a986f114610206578063b4f40c6114610224578063d21220a714610242578063db5159a214610260576100cf565b806377619ac5146101885780638f402b56146101b85780639ba613a8146101d6576100cf565b80630dfe1681146100d457806318160ddd146100f2578063313c06a014610110578063443cb4bc1461012e5780635a76f25e1461014c5780636caf25ce1461016a575b600080fd5b6100dc610290565b6040516100e99190611976565b60405180910390f35b6100fa6102b6565b60405161010791906119aa565b60405180910390f35b6101186102bc565b6040516101259190611976565b60405180910390f35b6101366102e2565b60405161014391906119aa565b60405180910390f35b6101546102e8565b60405161016191906119aa565b60405180910390f35b6101726102ee565b60405161017f91906119aa565b60405180910390f35b6101a2600480360381019061019d9190611a22565b6102f4565b6040516101af9190611aa4565b60405180910390f35b6101c061083b565b6040516101cd91906119aa565b60405180910390f35b6101f060048036038101906101eb9190611abf565b610840565b6040516101fd9190611aa4565b60405180910390f35b61020e610ca0565b60405161021b91906119aa565b60405180910390f35b61022c610ca6565b60405161023991906119aa565b60405180910390f35b61024a610cac565b6040516102579190611976565b60405180910390f35b61027a60048036038101906102759190611b3a565b610cd2565b6040516102879190611aa4565b60405180910390f35b600160009054906101000a900473ffffffffffffffffffffffffffffffffffffffff1681565b600a5481565b600360009054906101000a900473ffffffffffffffffffffffffffffffffffffffff1681565b60065481565b60075481565b60095481565b6000806000610301611050565b91509150600160009054906101000a900473ffffffffffffffffffffffffffffffffffffffff1673ffffffffffffffffffffffffffffffffffffffff168773ffffffffffffffffffffffffffffffffffffffff161480156103af5750600260009054906101000a900473ffffffffffffffffffffffffffffffffffffffff1673ffffffffffffffffffffffffffffffffffffffff168673ffffffffffffffffffffffffffffffffffffffff16145b6103ee576040517f08c379a00000000000000000000000000000000000000000000000000000000081526004016103e590611c24565b60405180910390fd5b838514610430576040517f08c379a000000000000000000000000000000000000000000000000000000000815260040161042790611c90565b60405180910390fd5b61043c87333088611061565b61044886333087611061565b60008773ffffffffffffffffffffffffffffffffffffffff166370a08231306040518263ffffffff1660e01b81526004016104839190611976565b602060405180830381865afa1580156104a0573d6000803e3d6000fd5b505050506040513d601f19601f820116820180604052508101906104c49190611cc5565b905060008773ffffffffffffffffffffffffffffffffffffffff166370a08231306040518263ffffffff1660e01b81526004016105019190611976565b602060405180830381865afa15801561051e573d6000803e3d6000fd5b505050506040513d601f19601f820116820180604052508101906105429190611cc5565b9050600080600a540361060757610585606485846105609190611d21565b878661056c9190611d21565b6105769190611d55565b6105809190611d21565b6111d7565b9050600081116105ca576040517f08c379a00000000000000000000000000000000000000000000000000000000081526004016105c190611dfb565b60405180910390fd5b6105f7600360009054906101000a900473ffffffffffffffffffffffffffffffffffffffff163383611251565b6106018a8a6113db565b506106ca565b61065785600a54878661061a9190611d21565b6106249190611d55565b61062e9190611e4a565b85600a54878661063e9190611d21565b6106489190611d55565b6106529190611e4a565b61154f565b90506000811161069c576040517f08c379a000000000000000000000000000000000000000000000000000000000815260040161069390611dfb565b60405180910390fd5b6106c9600360009054906101000a900473ffffffffffffffffffffffffffffffffffffffff163383611251565b5b80600a60008282546106dc9190611e7b565b9250508190555060008a73ffffffffffffffffffffffffffffffffffffffff166370a08231306040518263ffffffff1660e01b815260040161071e9190611976565b602060405180830381865afa15801561073b573d6000803e3d6000fd5b505050506040513d601f19601f8201168201806040525081019061075f9190611cc5565b905060008a73ffffffffffffffffffffffffffffffffffffffff166370a08231306040518263ffffffff1660e01b815260040161079c9190611976565b602060405180830381865afa1580156107b9573d6000803e3d6000fd5b505050506040513d601f19601f820116820180604052508101906107dd9190611cc5565b90506107eb8c8c8484611568565b7fd2491a9b4fe81a7cd4511e8b7b7743951b061dad5bed7da8a7795b080ee08c7e8c8c8c8c6040516108209493929190611ed1565b60405180910390a16001975050505050505050949350505050565b606481565b600080600061084d611050565b91509150600160009054906101000a900473ffffffffffffffffffffffffffffffffffffffff1673ffffffffffffffffffffffffffffffffffffffff168873ffffffffffffffffffffffffffffffffffffffff161480156108fb5750600260009054906101000a900473ffffffffffffffffffffffffffffffffffffffff1673ffffffffffffffffffffffffffffffffffffffff168773ffffffffffffffffffffffffffffffffffffffff16145b61093a576040517f08c379a000000000000000000000000000000000000000000000000000000000815260040161093190611c24565b60405180910390fd5b60008511806109495750600084115b610988576040517f08c379a000000000000000000000000000000000000000000000000000000000815260040161097f90611f62565b60405180910390fd5b60008514806109975750600084145b6109d6576040517f08c379a00000000000000000000000000000000000000000000000000000000081526004016109cd90611f62565b60405180910390fd5b8773ffffffffffffffffffffffffffffffffffffffff168673ffffffffffffffffffffffffffffffffffffffff1614158015610a3e57508673ffffffffffffffffffffffffffffffffffffffff168673ffffffffffffffffffffffffffffffffffffffff1614155b610a7d576040517f08c379a0000000000000000000000000000000000000000000000000000000008152600401610a7490611c24565b60405180910390fd5b60006103e8601487610a8f9190611d55565b610a999190611e4a565b905060006103e8601487610aad9190611d55565b610ab79190611e4a565b9050600087118015610ac95750600086145b15610afe57610af2893330600854868c610ae39190611e7b565b610aed9190611d55565b611061565b610afd8a8989611675565b5b600086118015610b0e5750600087145b15610b4357610b378a3330600954858b610b289190611e7b565b610b329190611d55565b611061565b610b42898988611675565b5b60008a73ffffffffffffffffffffffffffffffffffffffff166370a08231306040518263ffffffff1660e01b8152600401610b7e9190611976565b602060405180830381865afa158015610b9b573d6000803e3d6000fd5b505050506040513d601f19601f82011682018060405250810190610bbf9190611cc5565b905060008a73ffffffffffffffffffffffffffffffffffffffff166370a08231306040518263ffffffff1660e01b8152600401610bfc9190611976565b602060405180830381865afa158015610c19573d6000803e3d6000fd5b505050506040513d601f19601f82011682018060405250810190610c3d9190611cc5565b9050610c4b8c8c8484611568565b7fe14f465c1f5191875f1473bbf0f8cc3ff0158a220fa5711eff06ff04a83a1b488c8c8c8c8c6004604051610c8596959493929190611fc7565b60405180910390a16001965050505050505095945050505050565b60085481565b60045481565b600260009054906101000a900473ffffffffffffffffffffffffffffffffffffffff1681565b6000806000610cdf611050565b91509150600160009054906101000a900473ffffffffffffffffffffffffffffffffffffffff1673ffffffffffffffffffffffffffffffffffffffff168973ffffffffffffffffffffffffffffffffffffffff16148015610d8d5750600260009054906101000a900473ffffffffffffffffffffffffffffffffffffffff1673ffffffffffffffffffffffffffffffffffffffff168873ffffffffffffffffffffffffffffffffffffffff16145b610dcc576040517f08c379a0000000000000000000000000000000000000000000000000000000008152600401610dc390611c24565b60405180910390fd5b838514610e0e576040517f08c379a0000000000000000000000000000000000000000000000000000000008152600401610e0590611c90565b60405180910390fd5b6000600a548388610e1f9190611d55565b610e299190611e4a565b90506000600a548389610e3c9190611d55565b610e469190611e4a565b9050600082118015610e585750600081115b610e97576040517f08c379a0000000000000000000000000000000000000000000000000000000008152600401610e8e90612074565b60405180910390fd5b610ec4600360009054906101000a900473ffffffffffffffffffffffffffffffffffffffff168a8a6117ab565b610ed08b308b85611061565b610edc8a308b84611061565b87600a6000828254610eee9190611d21565b9250508190555060008b73ffffffffffffffffffffffffffffffffffffffff166370a08231306040518263ffffffff1660e01b8152600401610f309190611976565b602060405180830381865afa158015610f4d573d6000803e3d6000fd5b505050506040513d601f19601f82011682018060405250810190610f719190611cc5565b905060008b73ffffffffffffffffffffffffffffffffffffffff166370a08231306040518263ffffffff1660e01b8152600401610fae9190611976565b602060405180830381865afa158015610fcb573d6000803e3d6000fd5b505050506040513d601f19601f82011682018060405250810190610fef9190611cc5565b9050610ffd8d8d8484611568565b7f95b8fe9ba38a505097b9341887de8716d6f3f3ba79ef0ecc02f35ad6e30585d68d8d88888e604051611034959493929190612094565b60405180910390a1600196505050505050509695505050505050565b600080600654915060075490509091565b6000604051806060016040528060258152602001612506602591398051906020012090506000808673ffffffffffffffffffffffffffffffffffffffff16838787876040516024016110b5939291906120e7565b604051602081830303815290604052907bffffffffffffffffffffffffffffffffffffffffffffffffffffffff19166020820180517bffffffffffffffffffffffffffffffffffffffffffffffffffffffff838183161783525050505060405161111f9190612198565b6000604051808303816000865af19150503d806000811461115c576040519150601f19603f3d011682016040523d82523d6000602084013e611161565b606091505b509150915081801561118f575060008151148061118e57508080602001905181019061118d91906121db565b5b5b6111ce576040517f08c379a00000000000000000000000000000000000000000000000000000000081526004016111c59061227a565b60405180910390fd5b50505050505050565b6000600382111561123e57819050600060016002846111f69190611e4a565b6112009190611e7b565b90505b8181101561123857809150600281828561121d9190611e4a565b6112279190611e7b565b6112319190611e4a565b9050611203565b5061124c565b6000821461124b57600190505b5b919050565b6000808473ffffffffffffffffffffffffffffffffffffffff166040518060400160405280601581526020017f6d696e7428616464726573732c75696e743235362900000000000000000000008152508051906020012085856040516024016112bb92919061229a565b604051602081830303815290604052907bffffffffffffffffffffffffffffffffffffffffffffffffffffffff19166020820180517bffffffffffffffffffffffffffffffffffffffffffffffffffffffff83818316178352505050506040516113259190612198565b6000604051808303816000865af19150503d8060008114611362576040519150601f19603f3d011682016040523d82523d6000602084013e611367565b606091505b5091509150818015611395575060008151148061139457508080602001905181019061139391906121db565b5b5b6113d4576040517f08c379a00000000000000000000000000000000000000000000000000000000081526004016113cb9061230f565b60405180910390fd5b5050505050565b60008060055414611421576040517f08c379a00000000000000000000000000000000000000000000000000000000081526004016114189061237b565b60405180910390fd5b60008373ffffffffffffffffffffffffffffffffffffffff166370a08231306040518263ffffffff1660e01b815260040161145c9190611976565b602060405180830381865afa158015611479573d6000803e3d6000fd5b505050506040513d601f19601f8201168201806040525081019061149d9190611cc5565b905060008373ffffffffffffffffffffffffffffffffffffffff166370a08231306040518263ffffffff1660e01b81526004016114da9190611976565b602060405180830381865afa1580156114f7573d6000803e3d6000fd5b505050506040513d601f19601f8201168201806040525081019061151b9190611cc5565b90506000600554036115425780826115339190611d55565b60048190555060016005819055505b6004549250505092915050565b600081831061155e5781611560565b825b905092915050565b6000821015801561157a575060008110155b6115b9576040517f08c379a00000000000000000000000000000000000000000000000000000000081526004016115b0906123e7565b60405180910390fd5b600082141580156115cb575060008114155b156115f95781816115dc9190611e4a565b60088190555080826115ee9190611e4a565b600981905550611620565b6000821480156116095750600081145b1561161f57600060088190555060006009819055505b5b81600681905550806007819055507fd4bde8444971b7416b5f51c90f544d2fe2d0c1edddd83bd5fe8646179341dc9984846006546007546040516116679493929190611ed1565b60405180910390a150505050565b6000808473ffffffffffffffffffffffffffffffffffffffff1663a9059cbb85856040516024016116a792919061229a565b6040516020818303038152906040529060e01b6020820180517bffffffffffffffffffffffffffffffffffffffffffffffffffffffff83818316178352505050506040516116f59190612198565b6000604051808303816000865af19150503d8060008114611732576040519150601f19603f3d011682016040523d82523d6000602084013e611737565b606091505b5091509150818015611765575060008151148061176457508080602001905181019061176391906121db565b5b5b6117a4576040517f08c379a000000000000000000000000000000000000000000000000000000000815260040161179b90612479565b60405180910390fd5b5050505050565b6000808473ffffffffffffffffffffffffffffffffffffffff166040518060400160405280601581526020017f6275726e28616464726573732c75696e7432353629000000000000000000000081525080519060200120858560405160240161181592919061229a565b604051602081830303815290604052907bffffffffffffffffffffffffffffffffffffffffffffffffffffffff19166020820180517bffffffffffffffffffffffffffffffffffffffffffffffffffffffff838183161783525050505060405161187f9190612198565b6000604051808303816000865af19150503d80600081146118bc576040519150601f19603f3d011682016040523d82523d6000602084013e6118c1565b606091505b50915091508180156118ef57506000815114806118ee5750808060200190518101906118ed91906121db565b5b5b61192e576040517f08c379a0000000000000000000000000000000000000000000000000000000008152600401611925906124e5565b60405180910390fd5b5050505050565b600073ffffffffffffffffffffffffffffffffffffffff82169050919050565b600061196082611935565b9050919050565b61197081611955565b82525050565b600060208201905061198b6000830184611967565b92915050565b6000819050919050565b6119a481611991565b82525050565b60006020820190506119bf600083018461199b565b92915050565b600080fd5b6119d381611955565b81146119de57600080fd5b50565b6000813590506119f0816119ca565b92915050565b6119ff81611991565b8114611a0a57600080fd5b50565b600081359050611a1c816119f6565b92915050565b60008060008060808587031215611a3c57611a3b6119c5565b5b6000611a4a878288016119e1565b9450506020611a5b878288016119e1565b9350506040611a6c87828801611a0d565b9250506060611a7d87828801611a0d565b91505092959194509250565b60008115159050919050565b611a9e81611a89565b82525050565b6000602082019050611ab96000830184611a95565b92915050565b600080600080600060a08688031215611adb57611ada6119c5565b5b6000611ae9888289016119e1565b9550506020611afa888289016119e1565b9450506040611b0b888289016119e1565b9350506060611b1c88828901611a0d565b9250506080611b2d88828901611a0d565b9150509295509295909350565b60008060008060008060c08789031215611b5757611b566119c5565b5b6000611b6589828a016119e1565b9650506020611b7689828a016119e1565b9550506040611b8789828a016119e1565b9450506060611b9889828a01611a0d565b9350506080611ba989828a01611a0d565b92505060a0611bba89828a01611a0d565b9150509295509295509295565b600082825260208201905092915050565b7f4e6f742075736564206164647265737300000000000000000000000000000000600082015250565b6000611c0e601083611bc7565b9150611c1982611bd8565b602082019050919050565b60006020820190508181036000830152611c3d81611c01565b9050919050565b7f4e6f7420657175616c0000000000000000000000000000000000000000000000600082015250565b6000611c7a600983611bc7565b9150611c8582611c44565b602082019050919050565b60006020820190508181036000830152611ca981611c6d565b9050919050565b600081519050611cbf816119f6565b92915050565b600060208284031215611cdb57611cda6119c5565b5b6000611ce984828501611cb0565b91505092915050565b7f4e487b7100000000000000000000000000000000000000000000000000000000600052601160045260246000fd5b6000611d2c82611991565b9150611d3783611991565b925082821015611d4a57611d49611cf2565b5b828203905092915050565b6000611d6082611991565b9150611d6b83611991565b9250817fffffffffffffffffffffffffffffffffffffffffffffffffffffffffffffffff0483118215151615611da457611da3611cf2565b5b828202905092915050565b7f4d696e7573206c69717569646974790000000000000000000000000000000000600082015250565b6000611de5600f83611bc7565b9150611df082611daf565b602082019050919050565b60006020820190508181036000830152611e1481611dd8565b9050919050565b7f4e487b7100000000000000000000000000000000000000000000000000000000600052601260045260246000fd5b6000611e5582611991565b9150611e6083611991565b925082611e7057611e6f611e1b565b5b828204905092915050565b6000611e8682611991565b9150611e9183611991565b9250827fffffffffffffffffffffffffffffffffffffffffffffffffffffffffffffffff03821115611ec657611ec5611cf2565b5b828201905092915050565b6000608082019050611ee66000830187611967565b611ef36020830186611967565b611f00604083018561199b565b611f0d606083018461199b565b95945050505050565b7f5a65726f20616d6f756e74000000000000000000000000000000000000000000600082015250565b6000611f4c600b83611bc7565b9150611f5782611f16565b602082019050919050565b60006020820190508181036000830152611f7b81611f3f565b9050919050565b6000819050919050565b6000819050919050565b6000611fb1611fac611fa784611f82565b611f8c565b611991565b9050919050565b611fc181611f96565b82525050565b600060c082019050611fdc6000830189611967565b611fe96020830188611967565b611ff66040830187611967565b612003606083018661199b565b612010608083018561199b565b61201d60a0830184611fb8565b979650505050505050565b7f4d696e757320616d6f756e740000000000000000000000000000000000000000600082015250565b600061205e600c83611bc7565b915061206982612028565b602082019050919050565b6000602082019050818103600083015261208d81612051565b9050919050565b600060a0820190506120a96000830188611967565b6120b66020830187611967565b6120c3604083018661199b565b6120d0606083018561199b565b6120dd608083018461199b565b9695505050505050565b60006060820190506120fc6000830186611967565b6121096020830185611967565b612116604083018461199b565b949350505050565b600081519050919050565b600081905092915050565b60005b83811015612152578082015181840152602081019050612137565b83811115612161576000848401525b50505050565b60006121728261211e565b61217c8185612129565b935061218c818560208601612134565b80840191505092915050565b60006121a48284612167565b915081905092915050565b6121b881611a89565b81146121c357600080fd5b50565b6000815190506121d5816121af565b92915050565b6000602082840312156121f1576121f06119c5565b5b60006121ff848285016121c6565b91505092915050565b7f5472616e7366657248656c7065723a3a7472616e7366657246726f6d3a20747260008201527f616e7366657246726f6d206661696c6564000000000000000000000000000000602082015250565b6000612264603183611bc7565b915061226f82612208565b604082019050919050565b6000602082019050818103600083015261229381612257565b9050919050565b60006040820190506122af6000830185611967565b6122bc602083018461199b565b9392505050565b7f4641494c4544204d696e74000000000000000000000000000000000000000000600082015250565b60006122f9600b83611bc7565b9150612304826122c3565b602082019050919050565b60006020820190508181036000830152612328816122ec565b9050919050565b7f4c6f636b65640000000000000000000000000000000000000000000000000000600082015250565b6000612365600683611bc7565b91506123708261232f565b602082019050919050565b6000602082019050818103600083015261239481612358565b9050919050565b7f30206e756d626572000000000000000000000000000000000000000000000000600082015250565b60006123d1600883611bc7565b91506123dc8261239b565b602082019050919050565b60006020820190508181036000830152612400816123c4565b9050919050565b7f5472616e7366657248656c7065723a3a736166655472616e736665723a20747260008201527f616e73666572206661696c656400000000000000000000000000000000000000602082015250565b6000612463602d83611bc7565b915061246e82612407565b604082019050919050565b6000602082019050818103600083015261249281612456565b9050919050565b7f4641494c4544204275726e000000000000000000000000000000000000000000600082015250565b60006124cf600b83611bc7565b91506124da82612499565b602082019050919050565b600060208201905081810360008301526124fe816124c2565b905091905056fe7472616e7366657246726f6d28616464726573732c616464726573732c75696e7432353629a2646970667358221220c9447d28f8ba735125cda39a847f655f9837eb9036a4069f81d8d6e079ee185c64736f6c634300080f0033",
					"opcodes": "PUSH1 0x80 PUSH1 0x40 MSTORE PUSH1 0x0 PUSH1 0x5 SSTORE CALLVALUE DUP1 ISZERO PUSH3 0x16 JUMPI PUSH1 0x0 DUP1 REVERT JUMPDEST POP PUSH1 0x40 MLOAD PUSH3 0x277E CODESIZE SUB DUP1 PUSH3 0x277E DUP4 CODECOPY DUP2 DUP2 ADD PUSH1 0x40 MSTORE DUP2 ADD SWAP1 PUSH3 0x3C SWAP2 SWAP1 PUSH3 0x1B2 JUMP JUMPDEST CALLER PUSH1 0x0 DUP1 PUSH2 0x100 EXP DUP2 SLOAD DUP2 PUSH20 0xFFFFFFFFFFFFFFFFFFFFFFFFFFFFFFFFFFFFFFFF MUL NOT AND SWAP1 DUP4 PUSH20 0xFFFFFFFFFFFFFFFFFFFFFFFFFFFFFFFFFFFFFFFF AND MUL OR SWAP1 SSTORE POP DUP3 PUSH1 0x1 PUSH1 0x0 PUSH2 0x100 EXP DUP2 SLOAD DUP2 PUSH20 0xFFFFFFFFFFFFFFFFFFFFFFFFFFFFFFFFFFFFFFFF MUL NOT AND SWAP1 DUP4 PUSH20 0xFFFFFFFFFFFFFFFFFFFFFFFFFFFFFFFFFFFFFFFF AND MUL OR SWAP1 SSTORE POP DUP2 PUSH1 0x2 PUSH1 0x0 PUSH2 0x100 EXP DUP2 SLOAD DUP2 PUSH20 0xFFFFFFFFFFFFFFFFFFFFFFFFFFFFFFFFFFFFFFFF MUL NOT AND SWAP1 DUP4 PUSH20 0xFFFFFFFFFFFFFFFFFFFFFFFFFFFFFFFFFFFFFFFF AND MUL OR SWAP1 SSTORE POP DUP1 PUSH1 0x3 PUSH1 0x0 PUSH2 0x100 EXP DUP2 SLOAD DUP2 PUSH20 0xFFFFFFFFFFFFFFFFFFFFFFFFFFFFFFFFFFFFFFFF MUL NOT AND SWAP1 DUP4 PUSH20 0xFFFFFFFFFFFFFFFFFFFFFFFFFFFFFFFFFFFFFFFF AND MUL OR SWAP1 SSTORE POP POP POP POP PUSH3 0x20E JUMP JUMPDEST PUSH1 0x0 DUP1 REVERT JUMPDEST PUSH1 0x0 PUSH20 0xFFFFFFFFFFFFFFFFFFFFFFFFFFFFFFFFFFFFFFFF DUP3 AND SWAP1 POP SWAP2 SWAP1 POP JUMP JUMPDEST PUSH1 0x0 PUSH3 0x17A DUP3 PUSH3 0x14D JUMP JUMPDEST SWAP1 POP SWAP2 SWAP1 POP JUMP JUMPDEST PUSH3 0x18C DUP2 PUSH3 0x16D JUMP JUMPDEST DUP2 EQ PUSH3 0x198 JUMPI PUSH1 0x0 DUP1 REVERT JUMPDEST POP JUMP JUMPDEST PUSH1 0x0 DUP2 MLOAD SWAP1 POP PUSH3 0x1AC DUP2 PUSH3 0x181 JUMP JUMPDEST SWAP3 SWAP2 POP POP JUMP JUMPDEST PUSH1 0x0 DUP1 PUSH1 0x0 PUSH1 0x60 DUP5 DUP7 SUB SLT ISZERO PUSH3 0x1CE JUMPI PUSH3 0x1CD PUSH3 0x148 JUMP JUMPDEST JUMPDEST PUSH1 0x0 PUSH3 0x1DE DUP7 DUP3 DUP8 ADD PUSH3 0x19B JUMP JUMPDEST SWAP4 POP POP PUSH1 0x20 PUSH3 0x1F1 DUP7 DUP3 DUP8 ADD PUSH3 0x19B JUMP JUMPDEST SWAP3 POP POP PUSH1 0x40 PUSH3 0x204 DUP7 DUP3 DUP8 ADD PUSH3 0x19B JUMP JUMPDEST SWAP2 POP POP SWAP3 POP SWAP3 POP SWAP3 JUMP JUMPDEST PUSH2 0x2560 DUP1 PUSH3 0x21E PUSH1 0x0 CODECOPY PUSH1 0x0 RETURN INVALID PUSH1 0x80 PUSH1 0x40 MSTORE CALLVALUE DUP1 ISZERO PUSH2 0x10 JUMPI PUSH1 0x0 DUP1 REVERT JUMPDEST POP PUSH1 0x4 CALLDATASIZE LT PUSH2 0xCF JUMPI PUSH1 0x0 CALLDATALOAD PUSH1 0xE0 SHR DUP1 PUSH4 0x77619AC5 GT PUSH2 0x8C JUMPI DUP1 PUSH4 0xA0A986F1 GT PUSH2 0x66 JUMPI DUP1 PUSH4 0xA0A986F1 EQ PUSH2 0x206 JUMPI DUP1 PUSH4 0xB4F40C61 EQ PUSH2 0x224 JUMPI DUP1 PUSH4 0xD21220A7 EQ PUSH2 0x242 JUMPI DUP1 PUSH4 0xDB5159A2 EQ PUSH2 0x260 JUMPI PUSH2 0xCF JUMP JUMPDEST DUP1 PUSH4 0x77619AC5 EQ PUSH2 0x188 JUMPI DUP1 PUSH4 0x8F402B56 EQ PUSH2 0x1B8 JUMPI DUP1 PUSH4 0x9BA613A8 EQ PUSH2 0x1D6 JUMPI PUSH2 0xCF JUMP JUMPDEST DUP1 PUSH4 0xDFE1681 EQ PUSH2 0xD4 JUMPI DUP1 PUSH4 0x18160DDD EQ PUSH2 0xF2 JUMPI DUP1 PUSH4 0x313C06A0 EQ PUSH2 0x110 JUMPI DUP1 PUSH4 0x443CB4BC EQ PUSH2 0x12E JUMPI DUP1 PUSH4 0x5A76F25E EQ PUSH2 0x14C JUMPI DUP1 PUSH4 0x6CAF25CE EQ PUSH2 0x16A JUMPI JUMPDEST PUSH1 0x0 DUP1 REVERT JUMPDEST PUSH2 0xDC PUSH2 0x290 JUMP JUMPDEST PUSH1 0x40 MLOAD PUSH2 0xE9 SWAP2 SWAP1 PUSH2 0x1976 JUMP JUMPDEST PUSH1 0x40 MLOAD DUP1 SWAP2 SUB SWAP1 RETURN JUMPDEST PUSH2 0xFA PUSH2 0x2B6 JUMP JUMPDEST PUSH1 0x40 MLOAD PUSH2 0x107 SWAP2 SWAP1 PUSH2 0x19AA JUMP JUMPDEST PUSH1 0x40 MLOAD DUP1 SWAP2 SUB SWAP1 RETURN JUMPDEST PUSH2 0x118 PUSH2 0x2BC JUMP JUMPDEST PUSH1 0x40 MLOAD PUSH2 0x125 SWAP2 SWAP1 PUSH2 0x1976 JUMP JUMPDEST PUSH1 0x40 MLOAD DUP1 SWAP2 SUB SWAP1 RETURN JUMPDEST PUSH2 0x136 PUSH2 0x2E2 JUMP JUMPDEST PUSH1 0x40 MLOAD PUSH2 0x143 SWAP2 SWAP1 PUSH2 0x19AA JUMP JUMPDEST PUSH1 0x40 MLOAD DUP1 SWAP2 SUB SWAP1 RETURN JUMPDEST PUSH2 0x154 PUSH2 0x2E8 JUMP JUMPDEST PUSH1 0x40 MLOAD PUSH2 0x161 SWAP2 SWAP1 PUSH2 0x19AA JUMP JUMPDEST PUSH1 0x40 MLOAD DUP1 SWAP2 SUB SWAP1 RETURN JUMPDEST PUSH2 0x172 PUSH2 0x2EE JUMP JUMPDEST PUSH1 0x40 MLOAD PUSH2 0x17F SWAP2 SWAP1 PUSH2 0x19AA JUMP JUMPDEST PUSH1 0x40 MLOAD DUP1 SWAP2 SUB SWAP1 RETURN JUMPDEST PUSH2 0x1A2 PUSH1 0x4 DUP1 CALLDATASIZE SUB DUP2 ADD SWAP1 PUSH2 0x19D SWAP2 SWAP1 PUSH2 0x1A22 JUMP JUMPDEST PUSH2 0x2F4 JUMP JUMPDEST PUSH1 0x40 MLOAD PUSH2 0x1AF SWAP2 SWAP1 PUSH2 0x1AA4 JUMP JUMPDEST PUSH1 0x40 MLOAD DUP1 SWAP2 SUB SWAP1 RETURN JUMPDEST PUSH2 0x1C0 PUSH2 0x83B JUMP JUMPDEST PUSH1 0x40 MLOAD PUSH2 0x1CD SWAP2 SWAP1 PUSH2 0x19AA JUMP JUMPDEST PUSH1 0x40 MLOAD DUP1 SWAP2 SUB SWAP1 RETURN JUMPDEST PUSH2 0x1F0 PUSH1 0x4 DUP1 CALLDATASIZE SUB DUP2 ADD SWAP1 PUSH2 0x1EB SWAP2 SWAP1 PUSH2 0x1ABF JUMP JUMPDEST PUSH2 0x840 JUMP JUMPDEST PUSH1 0x40 MLOAD PUSH2 0x1FD SWAP2 SWAP1 PUSH2 0x1AA4 JUMP JUMPDEST PUSH1 0x40 MLOAD DUP1 SWAP2 SUB SWAP1 RETURN JUMPDEST PUSH2 0x20E PUSH2 0xCA0 JUMP JUMPDEST PUSH1 0x40 MLOAD PUSH2 0x21B SWAP2 SWAP1 PUSH2 0x19AA JUMP JUMPDEST PUSH1 0x40 MLOAD DUP1 SWAP2 SUB SWAP1 RETURN JUMPDEST PUSH2 0x22C PUSH2 0xCA6 JUMP JUMPDEST PUSH1 0x40 MLOAD PUSH2 0x239 SWAP2 SWAP1 PUSH2 0x19AA JUMP JUMPDEST PUSH1 0x40 MLOAD DUP1 SWAP2 SUB SWAP1 RETURN JUMPDEST PUSH2 0x24A PUSH2 0xCAC JUMP JUMPDEST PUSH1 0x40 MLOAD PUSH2 0x257 SWAP2 SWAP1 PUSH2 0x1976 JUMP JUMPDEST PUSH1 0x40 MLOAD DUP1 SWAP2 SUB SWAP1 RETURN JUMPDEST PUSH2 0x27A PUSH1 0x4 DUP1 CALLDATASIZE SUB DUP2 ADD SWAP1 PUSH2 0x275 SWAP2 SWAP1 PUSH2 0x1B3A JUMP JUMPDEST PUSH2 0xCD2 JUMP JUMPDEST PUSH1 0x40 MLOAD PUSH2 0x287 SWAP2 SWAP1 PUSH2 0x1AA4 JUMP JUMPDEST PUSH1 0x40 MLOAD DUP1 SWAP2 SUB SWAP1 RETURN JUMPDEST PUSH1 0x1 PUSH1 0x0 SWAP1 SLOAD SWAP1 PUSH2 0x100 EXP SWAP1 DIV PUSH20 0xFFFFFFFFFFFFFFFFFFFFFFFFFFFFFFFFFFFFFFFF AND DUP2 JUMP JUMPDEST PUSH1 0xA SLOAD DUP2 JUMP JUMPDEST PUSH1 0x3 PUSH1 0x0 SWAP1 SLOAD SWAP1 PUSH2 0x100 EXP SWAP1 DIV PUSH20 0xFFFFFFFFFFFFFFFFFFFFFFFFFFFFFFFFFFFFFFFF AND DUP2 JUMP JUMPDEST PUSH1 0x6 SLOAD DUP2 JUMP JUMPDEST PUSH1 0x7 SLOAD DUP2 JUMP JUMPDEST PUSH1 0x9 SLOAD DUP2 JUMP JUMPDEST PUSH1 0x0 DUP1 PUSH1 0x0 PUSH2 0x301 PUSH2 0x1050 JUMP JUMPDEST SWAP2 POP SWAP2 POP PUSH1 0x1 PUSH1 0x0 SWAP1 SLOAD SWAP1 PUSH2 0x100 EXP SWAP1 DIV PUSH20 0xFFFFFFFFFFFFFFFFFFFFFFFFFFFFFFFFFFFFFFFF AND PUSH20 0xFFFFFFFFFFFFFFFFFFFFFFFFFFFFFFFFFFFFFFFF AND DUP8 PUSH20 0xFFFFFFFFFFFFFFFFFFFFFFFFFFFFFFFFFFFFFFFF AND EQ DUP1 ISZERO PUSH2 0x3AF JUMPI POP PUSH1 0x2 PUSH1 0x0 SWAP1 SLOAD SWAP1 PUSH2 0x100 EXP SWAP1 DIV PUSH20 0xFFFFFFFFFFFFFFFFFFFFFFFFFFFFFFFFFFFFFFFF AND PUSH20 0xFFFFFFFFFFFFFFFFFFFFFFFFFFFFFFFFFFFFFFFF AND DUP7 PUSH20 0xFFFFFFFFFFFFFFFFFFFFFFFFFFFFFFFFFFFFFFFF AND EQ JUMPDEST PUSH2 0x3EE JUMPI PUSH1 0x40 MLOAD PUSH32 0x8C379A000000000000000000000000000000000000000000000000000000000 DUP2 MSTORE PUSH1 0x4 ADD PUSH2 0x3E5 SWAP1 PUSH2 0x1C24 JUMP JUMPDEST PUSH1 0x40 MLOAD DUP1 SWAP2 SUB SWAP1 REVERT JUMPDEST DUP4 DUP6 EQ PUSH2 0x430 JUMPI PUSH1 0x40 MLOAD PUSH32 0x8C379A000000000000000000000000000000000000000000000000000000000 DUP2 MSTORE PUSH1 0x4 ADD PUSH2 0x427 SWAP1 PUSH2 0x1C90 JUMP JUMPDEST PUSH1 0x40 MLOAD DUP1 SWAP2 SUB SWAP1 REVERT JUMPDEST PUSH2 0x43C DUP8 CALLER ADDRESS DUP9 PUSH2 0x1061 JUMP JUMPDEST PUSH2 0x448 DUP7 CALLER ADDRESS DUP8 PUSH2 0x1061 JUMP JUMPDEST PUSH1 0x0 DUP8 PUSH20 0xFFFFFFFFFFFFFFFFFFFFFFFFFFFFFFFFFFFFFFFF AND PUSH4 0x70A08231 ADDRESS PUSH1 0x40 MLOAD DUP3 PUSH4 0xFFFFFFFF AND PUSH1 0xE0 SHL DUP2 MSTORE PUSH1 0x4 ADD PUSH2 0x483 SWAP2 SWAP1 PUSH2 0x1976 JUMP JUMPDEST PUSH1 0x20 PUSH1 0x40 MLOAD DUP1 DUP4 SUB DUP2 DUP7 GAS STATICCALL ISZERO DUP1 ISZERO PUSH2 0x4A0 JUMPI RETURNDATASIZE PUSH1 0x0 DUP1 RETURNDATACOPY RETURNDATASIZE PUSH1 0x0 REVERT JUMPDEST POP POP POP POP PUSH1 0x40 MLOAD RETURNDATASIZE PUSH1 0x1F NOT PUSH1 0x1F DUP3 ADD AND DUP3 ADD DUP1 PUSH1 0x40 MSTORE POP DUP2 ADD SWAP1 PUSH2 0x4C4 SWAP2 SWAP1 PUSH2 0x1CC5 JUMP JUMPDEST SWAP1 POP PUSH1 0x0 DUP8 PUSH20 0xFFFFFFFFFFFFFFFFFFFFFFFFFFFFFFFFFFFFFFFF AND PUSH4 0x70A08231 ADDRESS PUSH1 0x40 MLOAD DUP3 PUSH4 0xFFFFFFFF AND PUSH1 0xE0 SHL DUP2 MSTORE PUSH1 0x4 ADD PUSH2 0x501 SWAP2 SWAP1 PUSH2 0x1976 JUMP JUMPDEST PUSH1 0x20 PUSH1 0x40 MLOAD DUP1 DUP4 SUB DUP2 DUP7 GAS STATICCALL ISZERO DUP1 ISZERO PUSH2 0x51E JUMPI RETURNDATASIZE PUSH1 0x0 DUP1 RETURNDATACOPY RETURNDATASIZE PUSH1 0x0 REVERT JUMPDEST POP POP POP POP PUSH1 0x40 MLOAD RETURNDATASIZE PUSH1 0x1F NOT PUSH1 0x1F DUP3 ADD AND DUP3 ADD DUP1 PUSH1 0x40 MSTORE POP DUP2 ADD SWAP1 PUSH2 0x542 SWAP2 SWAP1 PUSH2 0x1CC5 JUMP JUMPDEST SWAP1 POP PUSH1 0x0 DUP1 PUSH1 0xA SLOAD SUB PUSH2 0x607 JUMPI PUSH2 0x585 PUSH1 0x64 DUP6 DUP5 PUSH2 0x560 SWAP2 SWAP1 PUSH2 0x1D21 JUMP JUMPDEST DUP8 DUP7 PUSH2 0x56C SWAP2 SWAP1 PUSH2 0x1D21 JUMP JUMPDEST PUSH2 0x576 SWAP2 SWAP1 PUSH2 0x1D55 JUMP JUMPDEST PUSH2 0x580 SWAP2 SWAP1 PUSH2 0x1D21 JUMP JUMPDEST PUSH2 0x11D7 JUMP JUMPDEST SWAP1 POP PUSH1 0x0 DUP2 GT PUSH2 0x5CA JUMPI PUSH1 0x40 MLOAD PUSH32 0x8C379A000000000000000000000000000000000000000000000000000000000 DUP2 MSTORE PUSH1 0x4 ADD PUSH2 0x5C1 SWAP1 PUSH2 0x1DFB JUMP JUMPDEST PUSH1 0x40 MLOAD DUP1 SWAP2 SUB SWAP1 REVERT JUMPDEST PUSH2 0x5F7 PUSH1 0x3 PUSH1 0x0 SWAP1 SLOAD SWAP1 PUSH2 0x100 EXP SWAP1 DIV PUSH20 0xFFFFFFFFFFFFFFFFFFFFFFFFFFFFFFFFFFFFFFFF AND CALLER DUP4 PUSH2 0x1251 JUMP JUMPDEST PUSH2 0x601 DUP11 DUP11 PUSH2 0x13DB JUMP JUMPDEST POP PUSH2 0x6CA JUMP JUMPDEST PUSH2 0x657 DUP6 PUSH1 0xA SLOAD DUP8 DUP7 PUSH2 0x61A SWAP2 SWAP1 PUSH2 0x1D21 JUMP JUMPDEST PUSH2 0x624 SWAP2 SWAP1 PUSH2 0x1D55 JUMP JUMPDEST PUSH2 0x62E SWAP2 SWAP1 PUSH2 0x1E4A JUMP JUMPDEST DUP6 PUSH1 0xA SLOAD DUP8 DUP7 PUSH2 0x63E SWAP2 SWAP1 PUSH2 0x1D21 JUMP JUMPDEST PUSH2 0x648 SWAP2 SWAP1 PUSH2 0x1D55 JUMP JUMPDEST PUSH2 0x652 SWAP2 SWAP1 PUSH2 0x1E4A JUMP JUMPDEST PUSH2 0x154F JUMP JUMPDEST SWAP1 POP PUSH1 0x0 DUP2 GT PUSH2 0x69C JUMPI PUSH1 0x40 MLOAD PUSH32 0x8C379A000000000000000000000000000000000000000000000000000000000 DUP2 MSTORE PUSH1 0x4 ADD PUSH2 0x693 SWAP1 PUSH2 0x1DFB JUMP JUMPDEST PUSH1 0x40 MLOAD DUP1 SWAP2 SUB SWAP1 REVERT JUMPDEST PUSH2 0x6C9 PUSH1 0x3 PUSH1 0x0 SWAP1 SLOAD SWAP1 PUSH2 0x100 EXP SWAP1 DIV PUSH20 0xFFFFFFFFFFFFFFFFFFFFFFFFFFFFFFFFFFFFFFFF AND CALLER DUP4 PUSH2 0x1251 JUMP JUMPDEST JUMPDEST DUP1 PUSH1 0xA PUSH1 0x0 DUP3 DUP3 SLOAD PUSH2 0x6DC SWAP2 SWAP1 PUSH2 0x1E7B JUMP JUMPDEST SWAP3 POP POP DUP2 SWAP1 SSTORE POP PUSH1 0x0 DUP11 PUSH20 0xFFFFFFFFFFFFFFFFFFFFFFFFFFFFFFFFFFFFFFFF AND PUSH4 0x70A08231 ADDRESS PUSH1 0x40 MLOAD DUP3 PUSH4 0xFFFFFFFF AND PUSH1 0xE0 SHL DUP2 MSTORE PUSH1 0x4 ADD PUSH2 0x71E SWAP2 SWAP1 PUSH2 0x1976 JUMP JUMPDEST PUSH1 0x20 PUSH1 0x40 MLOAD DUP1 DUP4 SUB DUP2 DUP7 GAS STATICCALL ISZERO DUP1 ISZERO PUSH2 0x73B JUMPI RETURNDATASIZE PUSH1 0x0 DUP1 RETURNDATACOPY RETURNDATASIZE PUSH1 0x0 REVERT JUMPDEST POP POP POP POP PUSH1 0x40 MLOAD RETURNDATASIZE PUSH1 0x1F NOT PUSH1 0x1F DUP3 ADD AND DUP3 ADD DUP1 PUSH1 0x40 MSTORE POP DUP2 ADD SWAP1 PUSH2 0x75F SWAP2 SWAP1 PUSH2 0x1CC5 JUMP JUMPDEST SWAP1 POP PUSH1 0x0 DUP11 PUSH20 0xFFFFFFFFFFFFFFFFFFFFFFFFFFFFFFFFFFFFFFFF AND PUSH4 0x70A08231 ADDRESS PUSH1 0x40 MLOAD DUP3 PUSH4 0xFFFFFFFF AND PUSH1 0xE0 SHL DUP2 MSTORE PUSH1 0x4 ADD PUSH2 0x79C SWAP2 SWAP1 PUSH2 0x1976 JUMP JUMPDEST PUSH1 0x20 PUSH1 0x40 MLOAD DUP1 DUP4 SUB DUP2 DUP7 GAS STATICCALL ISZERO DUP1 ISZERO PUSH2 0x7B9 JUMPI RETURNDATASIZE PUSH1 0x0 DUP1 RETURNDATACOPY RETURNDATASIZE PUSH1 0x0 REVERT JUMPDEST POP POP POP POP PUSH1 0x40 MLOAD RETURNDATASIZE PUSH1 0x1F NOT PUSH1 0x1F DUP3 ADD AND DUP3 ADD DUP1 PUSH1 0x40 MSTORE POP DUP2 ADD SWAP1 PUSH2 0x7DD SWAP2 SWAP1 PUSH2 0x1CC5 JUMP JUMPDEST SWAP1 POP PUSH2 0x7EB DUP13 DUP13 DUP5 DUP5 PUSH2 0x1568 JUMP JUMPDEST PUSH32 0xD2491A9B4FE81A7CD4511E8B7B7743951B061DAD5BED7DA8A7795B080EE08C7E DUP13 DUP13 DUP13 DUP13 PUSH1 0x40 MLOAD PUSH2 0x820 SWAP5 SWAP4 SWAP3 SWAP2 SWAP1 PUSH2 0x1ED1 JUMP JUMPDEST PUSH1 0x40 MLOAD DUP1 SWAP2 SUB SWAP1 LOG1 PUSH1 0x1 SWAP8 POP POP POP POP POP POP POP POP SWAP5 SWAP4 POP POP POP POP JUMP JUMPDEST PUSH1 0x64 DUP2 JUMP JUMPDEST PUSH1 0x0 DUP1 PUSH1 0x0 PUSH2 0x84D PUSH2 0x1050 JUMP JUMPDEST SWAP2 POP SWAP2 POP PUSH1 0x1 PUSH1 0x0 SWAP1 SLOAD SWAP1 PUSH2 0x100 EXP SWAP1 DIV PUSH20 0xFFFFFFFFFFFFFFFFFFFFFFFFFFFFFFFFFFFFFFFF AND PUSH20 0xFFFFFFFFFFFFFFFFFFFFFFFFFFFFFFFFFFFFFFFF AND DUP9 PUSH20 0xFFFFFFFFFFFFFFFFFFFFFFFFFFFFFFFFFFFFFFFF AND EQ DUP1 ISZERO PUSH2 0x8FB JUMPI POP PUSH1 0x2 PUSH1 0x0 SWAP1 SLOAD SWAP1 PUSH2 0x100 EXP SWAP1 DIV PUSH20 0xFFFFFFFFFFFFFFFFFFFFFFFFFFFFFFFFFFFFFFFF AND PUSH20 0xFFFFFFFFFFFFFFFFFFFFFFFFFFFFFFFFFFFFFFFF AND DUP8 PUSH20 0xFFFFFFFFFFFFFFFFFFFFFFFFFFFFFFFFFFFFFFFF AND EQ JUMPDEST PUSH2 0x93A JUMPI PUSH1 0x40 MLOAD PUSH32 0x8C379A000000000000000000000000000000000000000000000000000000000 DUP2 MSTORE PUSH1 0x4 ADD PUSH2 0x931 SWAP1 PUSH2 0x1C24 JUMP JUMPDEST PUSH1 0x40 MLOAD DUP1 SWAP2 SUB SWAP1 REVERT JUMPDEST PUSH1 0x0 DUP6 GT DUP1 PUSH2 0x949 JUMPI POP PUSH1 0x0 DUP5 GT JUMPDEST PUSH2 0x988 JUMPI PUSH1 0x40 MLOAD PUSH32 0x8C379A000000000000000000000000000000000000000000000000000000000 DUP2 MSTORE PUSH1 0x4 ADD PUSH2 0x97F SWAP1 PUSH2 0x1F62 JUMP JUMPDEST PUSH1 0x40 MLOAD DUP1 SWAP2 SUB SWAP1 REVERT JUMPDEST PUSH1 0x0 DUP6 EQ DUP1 PUSH2 0x997 JUMPI POP PUSH1 0x0 DUP5 EQ JUMPDEST PUSH2 0x9D6 JUMPI PUSH1 0x40 MLOAD PUSH32 0x8C379A000000000000000000000000000000000000000000000000000000000 DUP2 MSTORE PUSH1 0x4 ADD PUSH2 0x9CD SWAP1 PUSH2 0x1F62 JUMP JUMPDEST PUSH1 0x40 MLOAD DUP1 SWAP2 SUB SWAP1 REVERT JUMPDEST DUP8 PUSH20 0xFFFFFFFFFFFFFFFFFFFFFFFFFFFFFFFFFFFFFFFF AND DUP7 PUSH20 0xFFFFFFFFFFFFFFFFFFFFFFFFFFFFFFFFFFFFFFFF AND EQ ISZERO DUP1 ISZERO PUSH2 0xA3E JUMPI POP DUP7 PUSH20 0xFFFFFFFFFFFFFFFFFFFFFFFFFFFFFFFFFFFFFFFF AND DUP7 PUSH20 0xFFFFFFFFFFFFFFFFFFFFFFFFFFFFFFFFFFFFFFFF AND EQ ISZERO JUMPDEST PUSH2 0xA7D JUMPI PUSH1 0x40 MLOAD PUSH32 0x8C379A000000000000000000000000000000000000000000000000000000000 DUP2 MSTORE PUSH1 0x4 ADD PUSH2 0xA74 SWAP1 PUSH2 0x1C24 JUMP JUMPDEST PUSH1 0x40 MLOAD DUP1 SWAP2 SUB SWAP1 REVERT JUMPDEST PUSH1 0x0 PUSH2 0x3E8 PUSH1 0x14 DUP8 PUSH2 0xA8F SWAP2 SWAP1 PUSH2 0x1D55 JUMP JUMPDEST PUSH2 0xA99 SWAP2 SWAP1 PUSH2 0x1E4A JUMP JUMPDEST SWAP1 POP PUSH1 0x0 PUSH2 0x3E8 PUSH1 0x14 DUP8 PUSH2 0xAAD SWAP2 SWAP1 PUSH2 0x1D55 JUMP JUMPDEST PUSH2 0xAB7 SWAP2 SWAP1 PUSH2 0x1E4A JUMP JUMPDEST SWAP1 POP PUSH1 0x0 DUP8 GT DUP1 ISZERO PUSH2 0xAC9 JUMPI POP PUSH1 0x0 DUP7 EQ JUMPDEST ISZERO PUSH2 0xAFE JUMPI PUSH2 0xAF2 DUP10 CALLER ADDRESS PUSH1 0x8 SLOAD DUP7 DUP13 PUSH2 0xAE3 SWAP2 SWAP1 PUSH2 0x1E7B JUMP JUMPDEST PUSH2 0xAED SWAP2 SWAP1 PUSH2 0x1D55 JUMP JUMPDEST PUSH2 0x1061 JUMP JUMPDEST PUSH2 0xAFD DUP11 DUP10 DUP10 PUSH2 0x1675 JUMP JUMPDEST JUMPDEST PUSH1 0x0 DUP7 GT DUP1 ISZERO PUSH2 0xB0E JUMPI POP PUSH1 0x0 DUP8 EQ JUMPDEST ISZERO PUSH2 0xB43 JUMPI PUSH2 0xB37 DUP11 CALLER ADDRESS PUSH1 0x9 SLOAD DUP6 DUP12 PUSH2 0xB28 SWAP2 SWAP1 PUSH2 0x1E7B JUMP JUMPDEST PUSH2 0xB32 SWAP2 SWAP1 PUSH2 0x1D55 JUMP JUMPDEST PUSH2 0x1061 JUMP JUMPDEST PUSH2 0xB42 DUP10 DUP10 DUP9 PUSH2 0x1675 JUMP JUMPDEST JUMPDEST PUSH1 0x0 DUP11 PUSH20 0xFFFFFFFFFFFFFFFFFFFFFFFFFFFFFFFFFFFFFFFF AND PUSH4 0x70A08231 ADDRESS PUSH1 0x40 MLOAD DUP3 PUSH4 0xFFFFFFFF AND PUSH1 0xE0 SHL DUP2 MSTORE PUSH1 0x4 ADD PUSH2 0xB7E SWAP2 SWAP1 PUSH2 0x1976 JUMP JUMPDEST PUSH1 0x20 PUSH1 0x40 MLOAD DUP1 DUP4 SUB DUP2 DUP7 GAS STATICCALL ISZERO DUP1 ISZERO PUSH2 0xB9B JUMPI RETURNDATASIZE PUSH1 0x0 DUP1 RETURNDATACOPY RETURNDATASIZE PUSH1 0x0 REVERT JUMPDEST POP POP POP POP PUSH1 0x40 MLOAD RETURNDATASIZE PUSH1 0x1F NOT PUSH1 0x1F DUP3 ADD AND DUP3 ADD DUP1 PUSH1 0x40 MSTORE POP DUP2 ADD SWAP1 PUSH2 0xBBF SWAP2 SWAP1 PUSH2 0x1CC5 JUMP JUMPDEST SWAP1 POP PUSH1 0x0 DUP11 PUSH20 0xFFFFFFFFFFFFFFFFFFFFFFFFFFFFFFFFFFFFFFFF AND PUSH4 0x70A08231 ADDRESS PUSH1 0x40 MLOAD DUP3 PUSH4 0xFFFFFFFF AND PUSH1 0xE0 SHL DUP2 MSTORE PUSH1 0x4 ADD PUSH2 0xBFC SWAP2 SWAP1 PUSH2 0x1976 JUMP JUMPDEST PUSH1 0x20 PUSH1 0x40 MLOAD DUP1 DUP4 SUB DUP2 DUP7 GAS STATICCALL ISZERO DUP1 ISZERO PUSH2 0xC19 JUMPI RETURNDATASIZE PUSH1 0x0 DUP1 RETURNDATACOPY RETURNDATASIZE PUSH1 0x0 REVERT JUMPDEST POP POP POP POP PUSH1 0x40 MLOAD RETURNDATASIZE PUSH1 0x1F NOT PUSH1 0x1F DUP3 ADD AND DUP3 ADD DUP1 PUSH1 0x40 MSTORE POP DUP2 ADD SWAP1 PUSH2 0xC3D SWAP2 SWAP1 PUSH2 0x1CC5 JUMP JUMPDEST SWAP1 POP PUSH2 0xC4B DUP13 DUP13 DUP5 DUP5 PUSH2 0x1568 JUMP JUMPDEST PUSH32 0xE14F465C1F5191875F1473BBF0F8CC3FF0158A220FA5711EFF06FF04A83A1B48 DUP13 DUP13 DUP13 DUP13 DUP13 PUSH1 0x4 PUSH1 0x40 MLOAD PUSH2 0xC85 SWAP7 SWAP6 SWAP5 SWAP4 SWAP3 SWAP2 SWAP1 PUSH2 0x1FC7 JUMP JUMPDEST PUSH1 0x40 MLOAD DUP1 SWAP2 SUB SWAP1 LOG1 PUSH1 0x1 SWAP7 POP POP POP POP POP POP POP SWAP6 SWAP5 POP POP POP POP POP JUMP JUMPDEST PUSH1 0x8 SLOAD DUP2 JUMP JUMPDEST PUSH1 0x4 SLOAD DUP2 JUMP JUMPDEST PUSH1 0x2 PUSH1 0x0 SWAP1 SLOAD SWAP1 PUSH2 0x100 EXP SWAP1 DIV PUSH20 0xFFFFFFFFFFFFFFFFFFFFFFFFFFFFFFFFFFFFFFFF AND DUP2 JUMP JUMPDEST PUSH1 0x0 DUP1 PUSH1 0x0 PUSH2 0xCDF PUSH2 0x1050 JUMP JUMPDEST SWAP2 POP SWAP2 POP PUSH1 0x1 PUSH1 0x0 SWAP1 SLOAD SWAP1 PUSH2 0x100 EXP SWAP1 DIV PUSH20 0xFFFFFFFFFFFFFFFFFFFFFFFFFFFFFFFFFFFFFFFF AND PUSH20 0xFFFFFFFFFFFFFFFFFFFFFFFFFFFFFFFFFFFFFFFF AND DUP10 PUSH20 0xFFFFFFFFFFFFFFFFFFFFFFFFFFFFFFFFFFFFFFFF AND EQ DUP1 ISZERO PUSH2 0xD8D JUMPI POP PUSH1 0x2 PUSH1 0x0 SWAP1 SLOAD SWAP1 PUSH2 0x100 EXP SWAP1 DIV PUSH20 0xFFFFFFFFFFFFFFFFFFFFFFFFFFFFFFFFFFFFFFFF AND PUSH20 0xFFFFFFFFFFFFFFFFFFFFFFFFFFFFFFFFFFFFFFFF AND DUP9 PUSH20 0xFFFFFFFFFFFFFFFFFFFFFFFFFFFFFFFFFFFFFFFF AND EQ JUMPDEST PUSH2 0xDCC JUMPI PUSH1 0x40 MLOAD PUSH32 0x8C379A000000000000000000000000000000000000000000000000000000000 DUP2 MSTORE PUSH1 0x4 ADD PUSH2 0xDC3 SWAP1 PUSH2 0x1C24 JUMP JUMPDEST PUSH1 0x40 MLOAD DUP1 SWAP2 SUB SWAP1 REVERT JUMPDEST DUP4 DUP6 EQ PUSH2 0xE0E JUMPI PUSH1 0x40 MLOAD PUSH32 0x8C379A000000000000000000000000000000000000000000000000000000000 DUP2 MSTORE PUSH1 0x4 ADD PUSH2 0xE05 SWAP1 PUSH2 0x1C90 JUMP JUMPDEST PUSH1 0x40 MLOAD DUP1 SWAP2 SUB SWAP1 REVERT JUMPDEST PUSH1 0x0 PUSH1 0xA SLOAD DUP4 DUP9 PUSH2 0xE1F SWAP2 SWAP1 PUSH2 0x1D55 JUMP JUMPDEST PUSH2 0xE29 SWAP2 SWAP1 PUSH2 0x1E4A JUMP JUMPDEST SWAP1 POP PUSH1 0x0 PUSH1 0xA SLOAD DUP4 DUP10 PUSH2 0xE3C SWAP2 SWAP1 PUSH2 0x1D55 JUMP JUMPDEST PUSH2 0xE46 SWAP2 SWAP1 PUSH2 0x1E4A JUMP JUMPDEST SWAP1 POP PUSH1 0x0 DUP3 GT DUP1 ISZERO PUSH2 0xE58 JUMPI POP PUSH1 0x0 DUP2 GT JUMPDEST PUSH2 0xE97 JUMPI PUSH1 0x40 MLOAD PUSH32 0x8C379A000000000000000000000000000000000000000000000000000000000 DUP2 MSTORE PUSH1 0x4 ADD PUSH2 0xE8E SWAP1 PUSH2 0x2074 JUMP JUMPDEST PUSH1 0x40 MLOAD DUP1 SWAP2 SUB SWAP1 REVERT JUMPDEST PUSH2 0xEC4 PUSH1 0x3 PUSH1 0x0 SWAP1 SLOAD SWAP1 PUSH2 0x100 EXP SWAP1 DIV PUSH20 0xFFFFFFFFFFFFFFFFFFFFFFFFFFFFFFFFFFFFFFFF AND DUP11 DUP11 PUSH2 0x17AB JUMP JUMPDEST PUSH2 0xED0 DUP12 ADDRESS DUP12 DUP6 PUSH2 0x1061 JUMP JUMPDEST PUSH2 0xEDC DUP11 ADDRESS DUP12 DUP5 PUSH2 0x1061 JUMP JUMPDEST DUP8 PUSH1 0xA PUSH1 0x0 DUP3 DUP3 SLOAD PUSH2 0xEEE SWAP2 SWAP1 PUSH2 0x1D21 JUMP JUMPDEST SWAP3 POP POP DUP2 SWAP1 SSTORE POP PUSH1 0x0 DUP12 PUSH20 0xFFFFFFFFFFFFFFFFFFFFFFFFFFFFFFFFFFFFFFFF AND PUSH4 0x70A08231 ADDRESS PUSH1 0x40 MLOAD DUP3 PUSH4 0xFFFFFFFF AND PUSH1 0xE0 SHL DUP2 MSTORE PUSH1 0x4 ADD PUSH2 0xF30 SWAP2 SWAP1 PUSH2 0x1976 JUMP JUMPDEST PUSH1 0x20 PUSH1 0x40 MLOAD DUP1 DUP4 SUB DUP2 DUP7 GAS STATICCALL ISZERO DUP1 ISZERO PUSH2 0xF4D JUMPI RETURNDATASIZE PUSH1 0x0 DUP1 RETURNDATACOPY RETURNDATASIZE PUSH1 0x0 REVERT JUMPDEST POP POP POP POP PUSH1 0x40 MLOAD RETURNDATASIZE PUSH1 0x1F NOT PUSH1 0x1F DUP3 ADD AND DUP3 ADD DUP1 PUSH1 0x40 MSTORE POP DUP2 ADD SWAP1 PUSH2 0xF71 SWAP2 SWAP1 PUSH2 0x1CC5 JUMP JUMPDEST SWAP1 POP PUSH1 0x0 DUP12 PUSH20 0xFFFFFFFFFFFFFFFFFFFFFFFFFFFFFFFFFFFFFFFF AND PUSH4 0x70A08231 ADDRESS PUSH1 0x40 MLOAD DUP3 PUSH4 0xFFFFFFFF AND PUSH1 0xE0 SHL DUP2 MSTORE PUSH1 0x4 ADD PUSH2 0xFAE SWAP2 SWAP1 PUSH2 0x1976 JUMP JUMPDEST PUSH1 0x20 PUSH1 0x40 MLOAD DUP1 DUP4 SUB DUP2 DUP7 GAS STATICCALL ISZERO DUP1 ISZERO PUSH2 0xFCB JUMPI RETURNDATASIZE PUSH1 0x0 DUP1 RETURNDATACOPY RETURNDATASIZE PUSH1 0x0 REVERT JUMPDEST POP POP POP POP PUSH1 0x40 MLOAD RETURNDATASIZE PUSH1 0x1F NOT PUSH1 0x1F DUP3 ADD AND DUP3 ADD DUP1 PUSH1 0x40 MSTORE POP DUP2 ADD SWAP1 PUSH2 0xFEF SWAP2 SWAP1 PUSH2 0x1CC5 JUMP JUMPDEST SWAP1 POP PUSH2 0xFFD DUP14 DUP14 DUP5 DUP5 PUSH2 0x1568 JUMP JUMPDEST PUSH32 0x95B8FE9BA38A505097B9341887DE8716D6F3F3BA79EF0ECC02F35AD6E30585D6 DUP14 DUP14 DUP9 DUP9 DUP15 PUSH1 0x40 MLOAD PUSH2 0x1034 SWAP6 SWAP5 SWAP4 SWAP3 SWAP2 SWAP1 PUSH2 0x2094 JUMP JUMPDEST PUSH1 0x40 MLOAD DUP1 SWAP2 SUB SWAP1 LOG1 PUSH1 0x1 SWAP7 POP POP POP POP POP POP POP SWAP7 SWAP6 POP POP POP POP POP POP JUMP JUMPDEST PUSH1 0x0 DUP1 PUSH1 0x6 SLOAD SWAP2 POP PUSH1 0x7 SLOAD SWAP1 POP SWAP1 SWAP2 JUMP JUMPDEST PUSH1 0x0 PUSH1 0x40 MLOAD DUP1 PUSH1 0x60 ADD PUSH1 0x40 MSTORE DUP1 PUSH1 0x25 DUP2 MSTORE PUSH1 0x20 ADD PUSH2 0x2506 PUSH1 0x25 SWAP2 CODECOPY DUP1 MLOAD SWAP1 PUSH1 0x20 ADD KECCAK256 SWAP1 POP PUSH1 0x0 DUP1 DUP7 PUSH20 0xFFFFFFFFFFFFFFFFFFFFFFFFFFFFFFFFFFFFFFFF AND DUP4 DUP8 DUP8 DUP8 PUSH1 0x40 MLOAD PUSH1 0x24 ADD PUSH2 0x10B5 SWAP4 SWAP3 SWAP2 SWAP1 PUSH2 0x20E7 JUMP JUMPDEST PUSH1 0x40 MLOAD PUSH1 0x20 DUP2 DUP4 SUB SUB DUP2 MSTORE SWAP1 PUSH1 0x40 MSTORE SWAP1 PUSH28 0xFFFFFFFFFFFFFFFFFFFFFFFFFFFFFFFFFFFFFFFFFFFFFFFFFFFFFFFF NOT AND PUSH1 0x20 DUP3 ADD DUP1 MLOAD PUSH28 0xFFFFFFFFFFFFFFFFFFFFFFFFFFFFFFFFFFFFFFFFFFFFFFFFFFFFFFFF DUP4 DUP2 DUP4 AND OR DUP4 MSTORE POP POP POP POP PUSH1 0x40 MLOAD PUSH2 0x111F SWAP2 SWAP1 PUSH2 0x2198 JUMP JUMPDEST PUSH1 0x0 PUSH1 0x40 MLOAD DUP1 DUP4 SUB DUP2 PUSH1 0x0 DUP7 GAS CALL SWAP2 POP POP RETURNDATASIZE DUP1 PUSH1 0x0 DUP2 EQ PUSH2 0x115C JUMPI PUSH1 0x40 MLOAD SWAP2 POP PUSH1 0x1F NOT PUSH1 0x3F RETURNDATASIZE ADD AND DUP3 ADD PUSH1 0x40 MSTORE RETURNDATASIZE DUP3 MSTORE RETURNDATASIZE PUSH1 0x0 PUSH1 0x20 DUP5 ADD RETURNDATACOPY PUSH2 0x1161 JUMP JUMPDEST PUSH1 0x60 SWAP2 POP JUMPDEST POP SWAP2 POP SWAP2 POP DUP2 DUP1 ISZERO PUSH2 0x118F JUMPI POP PUSH1 0x0 DUP2 MLOAD EQ DUP1 PUSH2 0x118E JUMPI POP DUP1 DUP1 PUSH1 0x20 ADD SWAP1 MLOAD DUP2 ADD SWAP1 PUSH2 0x118D SWAP2 SWAP1 PUSH2 0x21DB JUMP JUMPDEST JUMPDEST JUMPDEST PUSH2 0x11CE JUMPI PUSH1 0x40 MLOAD PUSH32 0x8C379A000000000000000000000000000000000000000000000000000000000 DUP2 MSTORE PUSH1 0x4 ADD PUSH2 0x11C5 SWAP1 PUSH2 0x227A JUMP JUMPDEST PUSH1 0x40 MLOAD DUP1 SWAP2 SUB SWAP1 REVERT JUMPDEST POP POP POP POP POP POP POP JUMP JUMPDEST PUSH1 0x0 PUSH1 0x3 DUP3 GT ISZERO PUSH2 0x123E JUMPI DUP2 SWAP1 POP PUSH1 0x0 PUSH1 0x1 PUSH1 0x2 DUP5 PUSH2 0x11F6 SWAP2 SWAP1 PUSH2 0x1E4A JUMP JUMPDEST PUSH2 0x1200 SWAP2 SWAP1 PUSH2 0x1E7B JUMP JUMPDEST SWAP1 POP JUMPDEST DUP2 DUP2 LT ISZERO PUSH2 0x1238 JUMPI DUP1 SWAP2 POP PUSH1 0x2 DUP2 DUP3 DUP6 PUSH2 0x121D SWAP2 SWAP1 PUSH2 0x1E4A JUMP JUMPDEST PUSH2 0x1227 SWAP2 SWAP1 PUSH2 0x1E7B JUMP JUMPDEST PUSH2 0x1231 SWAP2 SWAP1 PUSH2 0x1E4A JUMP JUMPDEST SWAP1 POP PUSH2 0x1203 JUMP JUMPDEST POP PUSH2 0x124C JUMP JUMPDEST PUSH1 0x0 DUP3 EQ PUSH2 0x124B JUMPI PUSH1 0x1 SWAP1 POP JUMPDEST JUMPDEST SWAP2 SWAP1 POP JUMP JUMPDEST PUSH1 0x0 DUP1 DUP5 PUSH20 0xFFFFFFFFFFFFFFFFFFFFFFFFFFFFFFFFFFFFFFFF AND PUSH1 0x40 MLOAD DUP1 PUSH1 0x40 ADD PUSH1 0x40 MSTORE DUP1 PUSH1 0x15 DUP2 MSTORE PUSH1 0x20 ADD PUSH32 0x6D696E7428616464726573732C75696E74323536290000000000000000000000 DUP2 MSTORE POP DUP1 MLOAD SWAP1 PUSH1 0x20 ADD KECCAK256 DUP6 DUP6 PUSH1 0x40 MLOAD PUSH1 0x24 ADD PUSH2 0x12BB SWAP3 SWAP2 SWAP1 PUSH2 0x229A JUMP JUMPDEST PUSH1 0x40 MLOAD PUSH1 0x20 DUP2 DUP4 SUB SUB DUP2 MSTORE SWAP1 PUSH1 0x40 MSTORE SWAP1 PUSH28 0xFFFFFFFFFFFFFFFFFFFFFFFFFFFFFFFFFFFFFFFFFFFFFFFFFFFFFFFF NOT AND PUSH1 0x20 DUP3 ADD DUP1 MLOAD PUSH28 0xFFFFFFFFFFFFFFFFFFFFFFFFFFFFFFFFFFFFFFFFFFFFFFFFFFFFFFFF DUP4 DUP2 DUP4 AND OR DUP4 MSTORE POP POP POP POP PUSH1 0x40 MLOAD PUSH2 0x1325 SWAP2 SWAP1 PUSH2 0x2198 JUMP JUMPDEST PUSH1 0x0 PUSH1 0x40 MLOAD DUP1 DUP4 SUB DUP2 PUSH1 0x0 DUP7 GAS CALL SWAP2 POP POP RETURNDATASIZE DUP1 PUSH1 0x0 DUP2 EQ PUSH2 0x1362 JUMPI PUSH1 0x40 MLOAD SWAP2 POP PUSH1 0x1F NOT PUSH1 0x3F RETURNDATASIZE ADD AND DUP3 ADD PUSH1 0x40 MSTORE RETURNDATASIZE DUP3 MSTORE RETURNDATASIZE PUSH1 0x0 PUSH1 0x20 DUP5 ADD RETURNDATACOPY PUSH2 0x1367 JUMP JUMPDEST PUSH1 0x60 SWAP2 POP JUMPDEST POP SWAP2 POP SWAP2 POP DUP2 DUP1 ISZERO PUSH2 0x1395 JUMPI POP PUSH1 0x0 DUP2 MLOAD EQ DUP1 PUSH2 0x1394 JUMPI POP DUP1 DUP1 PUSH1 0x20 ADD SWAP1 MLOAD DUP2 ADD SWAP1 PUSH2 0x1393 SWAP2 SWAP1 PUSH2 0x21DB JUMP JUMPDEST JUMPDEST JUMPDEST PUSH2 0x13D4 JUMPI PUSH1 0x40 MLOAD PUSH32 0x8C379A000000000000000000000000000000000000000000000000000000000 DUP2 MSTORE PUSH1 0x4 ADD PUSH2 0x13CB SWAP1 PUSH2 0x230F JUMP JUMPDEST PUSH1 0x40 MLOAD DUP1 SWAP2 SUB SWAP1 REVERT JUMPDEST POP POP POP POP POP JUMP JUMPDEST PUSH1 0x0 DUP1 PUSH1 0x5 SLOAD EQ PUSH2 0x1421 JUMPI PUSH1 0x40 MLOAD PUSH32 0x8C379A000000000000000000000000000000000000000000000000000000000 DUP2 MSTORE PUSH1 0x4 ADD PUSH2 0x1418 SWAP1 PUSH2 0x237B JUMP JUMPDEST PUSH1 0x40 MLOAD DUP1 SWAP2 SUB SWAP1 REVERT JUMPDEST PUSH1 0x0 DUP4 PUSH20 0xFFFFFFFFFFFFFFFFFFFFFFFFFFFFFFFFFFFFFFFF AND PUSH4 0x70A08231 ADDRESS PUSH1 0x40 MLOAD DUP3 PUSH4 0xFFFFFFFF AND PUSH1 0xE0 SHL DUP2 MSTORE PUSH1 0x4 ADD PUSH2 0x145C SWAP2 SWAP1 PUSH2 0x1976 JUMP JUMPDEST PUSH1 0x20 PUSH1 0x40 MLOAD DUP1 DUP4 SUB DUP2 DUP7 GAS STATICCALL ISZERO DUP1 ISZERO PUSH2 0x1479 JUMPI RETURNDATASIZE PUSH1 0x0 DUP1 RETURNDATACOPY RETURNDATASIZE PUSH1 0x0 REVERT JUMPDEST POP POP POP POP PUSH1 0x40 MLOAD RETURNDATASIZE PUSH1 0x1F NOT PUSH1 0x1F DUP3 ADD AND DUP3 ADD DUP1 PUSH1 0x40 MSTORE POP DUP2 ADD SWAP1 PUSH2 0x149D SWAP2 SWAP1 PUSH2 0x1CC5 JUMP JUMPDEST SWAP1 POP PUSH1 0x0 DUP4 PUSH20 0xFFFFFFFFFFFFFFFFFFFFFFFFFFFFFFFFFFFFFFFF AND PUSH4 0x70A08231 ADDRESS PUSH1 0x40 MLOAD DUP3 PUSH4 0xFFFFFFFF AND PUSH1 0xE0 SHL DUP2 MSTORE PUSH1 0x4 ADD PUSH2 0x14DA SWAP2 SWAP1 PUSH2 0x1976 JUMP JUMPDEST PUSH1 0x20 PUSH1 0x40 MLOAD DUP1 DUP4 SUB DUP2 DUP7 GAS STATICCALL ISZERO DUP1 ISZERO PUSH2 0x14F7 JUMPI RETURNDATASIZE PUSH1 0x0 DUP1 RETURNDATACOPY RETURNDATASIZE PUSH1 0x0 REVERT JUMPDEST POP POP POP POP PUSH1 0x40 MLOAD RETURNDATASIZE PUSH1 0x1F NOT PUSH1 0x1F DUP3 ADD AND DUP3 ADD DUP1 PUSH1 0x40 MSTORE POP DUP2 ADD SWAP1 PUSH2 0x151B SWAP2 SWAP1 PUSH2 0x1CC5 JUMP JUMPDEST SWAP1 POP PUSH1 0x0 PUSH1 0x5 SLOAD SUB PUSH2 0x1542 JUMPI DUP1 DUP3 PUSH2 0x1533 SWAP2 SWAP1 PUSH2 0x1D55 JUMP JUMPDEST PUSH1 0x4 DUP2 SWAP1 SSTORE POP PUSH1 0x1 PUSH1 0x5 DUP2 SWAP1 SSTORE POP JUMPDEST PUSH1 0x4 SLOAD SWAP3 POP POP POP SWAP3 SWAP2 POP POP JUMP JUMPDEST PUSH1 0x0 DUP2 DUP4 LT PUSH2 0x155E JUMPI DUP2 PUSH2 0x1560 JUMP JUMPDEST DUP3 JUMPDEST SWAP1 POP SWAP3 SWAP2 POP POP JUMP JUMPDEST PUSH1 0x0 DUP3 LT ISZERO DUP1 ISZERO PUSH2 0x157A JUMPI POP PUSH1 0x0 DUP2 LT ISZERO JUMPDEST PUSH2 0x15B9 JUMPI PUSH1 0x40 MLOAD PUSH32 0x8C379A000000000000000000000000000000000000000000000000000000000 DUP2 MSTORE PUSH1 0x4 ADD PUSH2 0x15B0 SWAP1 PUSH2 0x23E7 JUMP JUMPDEST PUSH1 0x40 MLOAD DUP1 SWAP2 SUB SWAP1 REVERT JUMPDEST PUSH1 0x0 DUP3 EQ ISZERO DUP1 ISZERO PUSH2 0x15CB JUMPI POP PUSH1 0x0 DUP2 EQ ISZERO JUMPDEST ISZERO PUSH2 0x15F9 JUMPI DUP2 DUP2 PUSH2 0x15DC SWAP2 SWAP1 PUSH2 0x1E4A JUMP JUMPDEST PUSH1 0x8 DUP2 SWAP1 SSTORE POP DUP1 DUP3 PUSH2 0x15EE SWAP2 SWAP1 PUSH2 0x1E4A JUMP JUMPDEST PUSH1 0x9 DUP2 SWAP1 SSTORE POP PUSH2 0x1620 JUMP JUMPDEST PUSH1 0x0 DUP3 EQ DUP1 ISZERO PUSH2 0x1609 JUMPI POP PUSH1 0x0 DUP2 EQ JUMPDEST ISZERO PUSH2 0x161F JUMPI PUSH1 0x0 PUSH1 0x8 DUP2 SWAP1 SSTORE POP PUSH1 0x0 PUSH1 0x9 DUP2 SWAP1 SSTORE POP JUMPDEST JUMPDEST DUP2 PUSH1 0x6 DUP2 SWAP1 SSTORE POP DUP1 PUSH1 0x7 DUP2 SWAP1 SSTORE POP PUSH32 0xD4BDE8444971B7416B5F51C90F544D2FE2D0C1EDDDD83BD5FE8646179341DC99 DUP5 DUP5 PUSH1 0x6 SLOAD PUSH1 0x7 SLOAD PUSH1 0x40 MLOAD PUSH2 0x1667 SWAP5 SWAP4 SWAP3 SWAP2 SWAP1 PUSH2 0x1ED1 JUMP JUMPDEST PUSH1 0x40 MLOAD DUP1 SWAP2 SUB SWAP1 LOG1 POP POP POP POP JUMP JUMPDEST PUSH1 0x0 DUP1 DUP5 PUSH20 0xFFFFFFFFFFFFFFFFFFFFFFFFFFFFFFFFFFFFFFFF AND PUSH4 0xA9059CBB DUP6 DUP6 PUSH1 0x40 MLOAD PUSH1 0x24 ADD PUSH2 0x16A7 SWAP3 SWAP2 SWAP1 PUSH2 0x229A JUMP JUMPDEST PUSH1 0x40 MLOAD PUSH1 0x20 DUP2 DUP4 SUB SUB DUP2 MSTORE SWAP1 PUSH1 0x40 MSTORE SWAP1 PUSH1 0xE0 SHL PUSH1 0x20 DUP3 ADD DUP1 MLOAD PUSH28 0xFFFFFFFFFFFFFFFFFFFFFFFFFFFFFFFFFFFFFFFFFFFFFFFFFFFFFFFF DUP4 DUP2 DUP4 AND OR DUP4 MSTORE POP POP POP POP PUSH1 0x40 MLOAD PUSH2 0x16F5 SWAP2 SWAP1 PUSH2 0x2198 JUMP JUMPDEST PUSH1 0x0 PUSH1 0x40 MLOAD DUP1 DUP4 SUB DUP2 PUSH1 0x0 DUP7 GAS CALL SWAP2 POP POP RETURNDATASIZE DUP1 PUSH1 0x0 DUP2 EQ PUSH2 0x1732 JUMPI PUSH1 0x40 MLOAD SWAP2 POP PUSH1 0x1F NOT PUSH1 0x3F RETURNDATASIZE ADD AND DUP3 ADD PUSH1 0x40 MSTORE RETURNDATASIZE DUP3 MSTORE RETURNDATASIZE PUSH1 0x0 PUSH1 0x20 DUP5 ADD RETURNDATACOPY PUSH2 0x1737 JUMP JUMPDEST PUSH1 0x60 SWAP2 POP JUMPDEST POP SWAP2 POP SWAP2 POP DUP2 DUP1 ISZERO PUSH2 0x1765 JUMPI POP PUSH1 0x0 DUP2 MLOAD EQ DUP1 PUSH2 0x1764 JUMPI POP DUP1 DUP1 PUSH1 0x20 ADD SWAP1 MLOAD DUP2 ADD SWAP1 PUSH2 0x1763 SWAP2 SWAP1 PUSH2 0x21DB JUMP JUMPDEST JUMPDEST JUMPDEST PUSH2 0x17A4 JUMPI PUSH1 0x40 MLOAD PUSH32 0x8C379A000000000000000000000000000000000000000000000000000000000 DUP2 MSTORE PUSH1 0x4 ADD PUSH2 0x179B SWAP1 PUSH2 0x2479 JUMP JUMPDEST PUSH1 0x40 MLOAD DUP1 SWAP2 SUB SWAP1 REVERT JUMPDEST POP POP POP POP POP JUMP JUMPDEST PUSH1 0x0 DUP1 DUP5 PUSH20 0xFFFFFFFFFFFFFFFFFFFFFFFFFFFFFFFFFFFFFFFF AND PUSH1 0x40 MLOAD DUP1 PUSH1 0x40 ADD PUSH1 0x40 MSTORE DUP1 PUSH1 0x15 DUP2 MSTORE PUSH1 0x20 ADD PUSH32 0x6275726E28616464726573732C75696E74323536290000000000000000000000 DUP2 MSTORE POP DUP1 MLOAD SWAP1 PUSH1 0x20 ADD KECCAK256 DUP6 DUP6 PUSH1 0x40 MLOAD PUSH1 0x24 ADD PUSH2 0x1815 SWAP3 SWAP2 SWAP1 PUSH2 0x229A JUMP JUMPDEST PUSH1 0x40 MLOAD PUSH1 0x20 DUP2 DUP4 SUB SUB DUP2 MSTORE SWAP1 PUSH1 0x40 MSTORE SWAP1 PUSH28 0xFFFFFFFFFFFFFFFFFFFFFFFFFFFFFFFFFFFFFFFFFFFFFFFFFFFFFFFF NOT AND PUSH1 0x20 DUP3 ADD DUP1 MLOAD PUSH28 0xFFFFFFFFFFFFFFFFFFFFFFFFFFFFFFFFFFFFFFFFFFFFFFFFFFFFFFFF DUP4 DUP2 DUP4 AND OR DUP4 MSTORE POP POP POP POP PUSH1 0x40 MLOAD PUSH2 0x187F SWAP2 SWAP1 PUSH2 0x2198 JUMP JUMPDEST PUSH1 0x0 PUSH1 0x40 MLOAD DUP1 DUP4 SUB DUP2 PUSH1 0x0 DUP7 GAS CALL SWAP2 POP POP RETURNDATASIZE DUP1 PUSH1 0x0 DUP2 EQ PUSH2 0x18BC JUMPI PUSH1 0x40 MLOAD SWAP2 POP PUSH1 0x1F NOT PUSH1 0x3F RETURNDATASIZE ADD AND DUP3 ADD PUSH1 0x40 MSTORE RETURNDATASIZE DUP3 MSTORE RETURNDATASIZE PUSH1 0x0 PUSH1 0x20 DUP5 ADD RETURNDATACOPY PUSH2 0x18C1 JUMP JUMPDEST PUSH1 0x60 SWAP2 POP JUMPDEST POP SWAP2 POP SWAP2 POP DUP2 DUP1 ISZERO PUSH2 0x18EF JUMPI POP PUSH1 0x0 DUP2 MLOAD EQ DUP1 PUSH2 0x18EE JUMPI POP DUP1 DUP1 PUSH1 0x20 ADD SWAP1 MLOAD DUP2 ADD SWAP1 PUSH2 0x18ED SWAP2 SWAP1 PUSH2 0x21DB JUMP JUMPDEST JUMPDEST JUMPDEST PUSH2 0x192E JUMPI PUSH1 0x40 MLOAD PUSH32 0x8C379A000000000000000000000000000000000000000000000000000000000 DUP2 MSTORE PUSH1 0x4 ADD PUSH2 0x1925 SWAP1 PUSH2 0x24E5 JUMP JUMPDEST PUSH1 0x40 MLOAD DUP1 SWAP2 SUB SWAP1 REVERT JUMPDEST POP POP POP POP POP JUMP JUMPDEST PUSH1 0x0 PUSH20 0xFFFFFFFFFFFFFFFFFFFFFFFFFFFFFFFFFFFFFFFF DUP3 AND SWAP1 POP SWAP2 SWAP1 POP JUMP JUMPDEST PUSH1 0x0 PUSH2 0x1960 DUP3 PUSH2 0x1935 JUMP JUMPDEST SWAP1 POP SWAP2 SWAP1 POP JUMP JUMPDEST PUSH2 0x1970 DUP2 PUSH2 0x1955 JUMP JUMPDEST DUP3 MSTORE POP POP JUMP JUMPDEST PUSH1 0x0 PUSH1 0x20 DUP3 ADD SWAP1 POP PUSH2 0x198B PUSH1 0x0 DUP4 ADD DUP5 PUSH2 0x1967 JUMP JUMPDEST SWAP3 SWAP2 POP POP JUMP JUMPDEST PUSH1 0x0 DUP2 SWAP1 POP SWAP2 SWAP1 POP JUMP JUMPDEST PUSH2 0x19A4 DUP2 PUSH2 0x1991 JUMP JUMPDEST DUP3 MSTORE POP POP JUMP JUMPDEST PUSH1 0x0 PUSH1 0x20 DUP3 ADD SWAP1 POP PUSH2 0x19BF PUSH1 0x0 DUP4 ADD DUP5 PUSH2 0x199B JUMP JUMPDEST SWAP3 SWAP2 POP POP JUMP JUMPDEST PUSH1 0x0 DUP1 REVERT JUMPDEST PUSH2 0x19D3 DUP2 PUSH2 0x1955 JUMP JUMPDEST DUP2 EQ PUSH2 0x19DE JUMPI PUSH1 0x0 DUP1 REVERT JUMPDEST POP JUMP JUMPDEST PUSH1 0x0 DUP2 CALLDATALOAD SWAP1 POP PUSH2 0x19F0 DUP2 PUSH2 0x19CA JUMP JUMPDEST SWAP3 SWAP2 POP POP JUMP JUMPDEST PUSH2 0x19FF DUP2 PUSH2 0x1991 JUMP JUMPDEST DUP2 EQ PUSH2 0x1A0A JUMPI PUSH1 0x0 DUP1 REVERT JUMPDEST POP JUMP JUMPDEST PUSH1 0x0 DUP2 CALLDATALOAD SWAP1 POP PUSH2 0x1A1C DUP2 PUSH2 0x19F6 JUMP JUMPDEST SWAP3 SWAP2 POP POP JUMP JUMPDEST PUSH1 0x0 DUP1 PUSH1 0x0 DUP1 PUSH1 0x80 DUP6 DUP8 SUB SLT ISZERO PUSH2 0x1A3C JUMPI PUSH2 0x1A3B PUSH2 0x19C5 JUMP JUMPDEST JUMPDEST PUSH1 0x0 PUSH2 0x1A4A DUP8 DUP3 DUP9 ADD PUSH2 0x19E1 JUMP JUMPDEST SWAP5 POP POP PUSH1 0x20 PUSH2 0x1A5B DUP8 DUP3 DUP9 ADD PUSH2 0x19E1 JUMP JUMPDEST SWAP4 POP POP PUSH1 0x40 PUSH2 0x1A6C DUP8 DUP3 DUP9 ADD PUSH2 0x1A0D JUMP JUMPDEST SWAP3 POP POP PUSH1 0x60 PUSH2 0x1A7D DUP8 DUP3 DUP9 ADD PUSH2 0x1A0D JUMP JUMPDEST SWAP2 POP POP SWAP3 SWAP6 SWAP2 SWAP5 POP SWAP3 POP JUMP JUMPDEST PUSH1 0x0 DUP2 ISZERO ISZERO SWAP1 POP SWAP2 SWAP1 POP JUMP JUMPDEST PUSH2 0x1A9E DUP2 PUSH2 0x1A89 JUMP JUMPDEST DUP3 MSTORE POP POP JUMP JUMPDEST PUSH1 0x0 PUSH1 0x20 DUP3 ADD SWAP1 POP PUSH2 0x1AB9 PUSH1 0x0 DUP4 ADD DUP5 PUSH2 0x1A95 JUMP JUMPDEST SWAP3 SWAP2 POP POP JUMP JUMPDEST PUSH1 0x0 DUP1 PUSH1 0x0 DUP1 PUSH1 0x0 PUSH1 0xA0 DUP7 DUP9 SUB SLT ISZERO PUSH2 0x1ADB JUMPI PUSH2 0x1ADA PUSH2 0x19C5 JUMP JUMPDEST JUMPDEST PUSH1 0x0 PUSH2 0x1AE9 DUP9 DUP3 DUP10 ADD PUSH2 0x19E1 JUMP JUMPDEST SWAP6 POP POP PUSH1 0x20 PUSH2 0x1AFA DUP9 DUP3 DUP10 ADD PUSH2 0x19E1 JUMP JUMPDEST SWAP5 POP POP PUSH1 0x40 PUSH2 0x1B0B DUP9 DUP3 DUP10 ADD PUSH2 0x19E1 JUMP JUMPDEST SWAP4 POP POP PUSH1 0x60 PUSH2 0x1B1C DUP9 DUP3 DUP10 ADD PUSH2 0x1A0D JUMP JUMPDEST SWAP3 POP POP PUSH1 0x80 PUSH2 0x1B2D DUP9 DUP3 DUP10 ADD PUSH2 0x1A0D JUMP JUMPDEST SWAP2 POP POP SWAP3 SWAP6 POP SWAP3 SWAP6 SWAP1 SWAP4 POP JUMP JUMPDEST PUSH1 0x0 DUP1 PUSH1 0x0 DUP1 PUSH1 0x0 DUP1 PUSH1 0xC0 DUP8 DUP10 SUB SLT ISZERO PUSH2 0x1B57 JUMPI PUSH2 0x1B56 PUSH2 0x19C5 JUMP JUMPDEST JUMPDEST PUSH1 0x0 PUSH2 0x1B65 DUP10 DUP3 DUP11 ADD PUSH2 0x19E1 JUMP JUMPDEST SWAP7 POP POP PUSH1 0x20 PUSH2 0x1B76 DUP10 DUP3 DUP11 ADD PUSH2 0x19E1 JUMP JUMPDEST SWAP6 POP POP PUSH1 0x40 PUSH2 0x1B87 DUP10 DUP3 DUP11 ADD PUSH2 0x19E1 JUMP JUMPDEST SWAP5 POP POP PUSH1 0x60 PUSH2 0x1B98 DUP10 DUP3 DUP11 ADD PUSH2 0x1A0D JUMP JUMPDEST SWAP4 POP POP PUSH1 0x80 PUSH2 0x1BA9 DUP10 DUP3 DUP11 ADD PUSH2 0x1A0D JUMP JUMPDEST SWAP3 POP POP PUSH1 0xA0 PUSH2 0x1BBA DUP10 DUP3 DUP11 ADD PUSH2 0x1A0D JUMP JUMPDEST SWAP2 POP POP SWAP3 SWAP6 POP SWAP3 SWAP6 POP SWAP3 SWAP6 JUMP JUMPDEST PUSH1 0x0 DUP3 DUP3 MSTORE PUSH1 0x20 DUP3 ADD SWAP1 POP SWAP3 SWAP2 POP POP JUMP JUMPDEST PUSH32 0x4E6F742075736564206164647265737300000000000000000000000000000000 PUSH1 0x0 DUP3 ADD MSTORE POP JUMP JUMPDEST PUSH1 0x0 PUSH2 0x1C0E PUSH1 0x10 DUP4 PUSH2 0x1BC7 JUMP JUMPDEST SWAP2 POP PUSH2 0x1C19 DUP3 PUSH2 0x1BD8 JUMP JUMPDEST PUSH1 0x20 DUP3 ADD SWAP1 POP SWAP2 SWAP1 POP JUMP JUMPDEST PUSH1 0x0 PUSH1 0x20 DUP3 ADD SWAP1 POP DUP2 DUP2 SUB PUSH1 0x0 DUP4 ADD MSTORE PUSH2 0x1C3D DUP2 PUSH2 0x1C01 JUMP JUMPDEST SWAP1 POP SWAP2 SWAP1 POP JUMP JUMPDEST PUSH32 0x4E6F7420657175616C0000000000000000000000000000000000000000000000 PUSH1 0x0 DUP3 ADD MSTORE POP JUMP JUMPDEST PUSH1 0x0 PUSH2 0x1C7A PUSH1 0x9 DUP4 PUSH2 0x1BC7 JUMP JUMPDEST SWAP2 POP PUSH2 0x1C85 DUP3 PUSH2 0x1C44 JUMP JUMPDEST PUSH1 0x20 DUP3 ADD SWAP1 POP SWAP2 SWAP1 POP JUMP JUMPDEST PUSH1 0x0 PUSH1 0x20 DUP3 ADD SWAP1 POP DUP2 DUP2 SUB PUSH1 0x0 DUP4 ADD MSTORE PUSH2 0x1CA9 DUP2 PUSH2 0x1C6D JUMP JUMPDEST SWAP1 POP SWAP2 SWAP1 POP JUMP JUMPDEST PUSH1 0x0 DUP2 MLOAD SWAP1 POP PUSH2 0x1CBF DUP2 PUSH2 0x19F6 JUMP JUMPDEST SWAP3 SWAP2 POP POP JUMP JUMPDEST PUSH1 0x0 PUSH1 0x20 DUP3 DUP5 SUB SLT ISZERO PUSH2 0x1CDB JUMPI PUSH2 0x1CDA PUSH2 0x19C5 JUMP JUMPDEST JUMPDEST PUSH1 0x0 PUSH2 0x1CE9 DUP5 DUP3 DUP6 ADD PUSH2 0x1CB0 JUMP JUMPDEST SWAP2 POP POP SWAP3 SWAP2 POP POP JUMP JUMPDEST PUSH32 0x4E487B7100000000000000000000000000000000000000000000000000000000 PUSH1 0x0 MSTORE PUSH1 0x11 PUSH1 0x4 MSTORE PUSH1 0x24 PUSH1 0x0 REVERT JUMPDEST PUSH1 0x0 PUSH2 0x1D2C DUP3 PUSH2 0x1991 JUMP JUMPDEST SWAP2 POP PUSH2 0x1D37 DUP4 PUSH2 0x1991 JUMP JUMPDEST SWAP3 POP DUP3 DUP3 LT ISZERO PUSH2 0x1D4A JUMPI PUSH2 0x1D49 PUSH2 0x1CF2 JUMP JUMPDEST JUMPDEST DUP3 DUP3 SUB SWAP1 POP SWAP3 SWAP2 POP POP JUMP JUMPDEST PUSH1 0x0 PUSH2 0x1D60 DUP3 PUSH2 0x1991 JUMP JUMPDEST SWAP2 POP PUSH2 0x1D6B DUP4 PUSH2 0x1991 JUMP JUMPDEST SWAP3 POP DUP2 PUSH32 0xFFFFFFFFFFFFFFFFFFFFFFFFFFFFFFFFFFFFFFFFFFFFFFFFFFFFFFFFFFFFFFFF DIV DUP4 GT DUP3 ISZERO ISZERO AND ISZERO PUSH2 0x1DA4 JUMPI PUSH2 0x1DA3 PUSH2 0x1CF2 JUMP JUMPDEST JUMPDEST DUP3 DUP3 MUL SWAP1 POP SWAP3 SWAP2 POP POP JUMP JUMPDEST PUSH32 0x4D696E7573206C69717569646974790000000000000000000000000000000000 PUSH1 0x0 DUP3 ADD MSTORE POP JUMP JUMPDEST PUSH1 0x0 PUSH2 0x1DE5 PUSH1 0xF DUP4 PUSH2 0x1BC7 JUMP JUMPDEST SWAP2 POP PUSH2 0x1DF0 DUP3 PUSH2 0x1DAF JUMP JUMPDEST PUSH1 0x20 DUP3 ADD SWAP1 POP SWAP2 SWAP1 POP JUMP JUMPDEST PUSH1 0x0 PUSH1 0x20 DUP3 ADD SWAP1 POP DUP2 DUP2 SUB PUSH1 0x0 DUP4 ADD MSTORE PUSH2 0x1E14 DUP2 PUSH2 0x1DD8 JUMP JUMPDEST SWAP1 POP SWAP2 SWAP1 POP JUMP JUMPDEST PUSH32 0x4E487B7100000000000000000000000000000000000000000000000000000000 PUSH1 0x0 MSTORE PUSH1 0x12 PUSH1 0x4 MSTORE PUSH1 0x24 PUSH1 0x0 REVERT JUMPDEST PUSH1 0x0 PUSH2 0x1E55 DUP3 PUSH2 0x1991 JUMP JUMPDEST SWAP2 POP PUSH2 0x1E60 DUP4 PUSH2 0x1991 JUMP JUMPDEST SWAP3 POP DUP3 PUSH2 0x1E70 JUMPI PUSH2 0x1E6F PUSH2 0x1E1B JUMP JUMPDEST JUMPDEST DUP3 DUP3 DIV SWAP1 POP SWAP3 SWAP2 POP POP JUMP JUMPDEST PUSH1 0x0 PUSH2 0x1E86 DUP3 PUSH2 0x1991 JUMP JUMPDEST SWAP2 POP PUSH2 0x1E91 DUP4 PUSH2 0x1991 JUMP JUMPDEST SWAP3 POP DUP3 PUSH32 0xFFFFFFFFFFFFFFFFFFFFFFFFFFFFFFFFFFFFFFFFFFFFFFFFFFFFFFFFFFFFFFFF SUB DUP3 GT ISZERO PUSH2 0x1EC6 JUMPI PUSH2 0x1EC5 PUSH2 0x1CF2 JUMP JUMPDEST JUMPDEST DUP3 DUP3 ADD SWAP1 POP SWAP3 SWAP2 POP POP JUMP JUMPDEST PUSH1 0x0 PUSH1 0x80 DUP3 ADD SWAP1 POP PUSH2 0x1EE6 PUSH1 0x0 DUP4 ADD DUP8 PUSH2 0x1967 JUMP JUMPDEST PUSH2 0x1EF3 PUSH1 0x20 DUP4 ADD DUP7 PUSH2 0x1967 JUMP JUMPDEST PUSH2 0x1F00 PUSH1 0x40 DUP4 ADD DUP6 PUSH2 0x199B JUMP JUMPDEST PUSH2 0x1F0D PUSH1 0x60 DUP4 ADD DUP5 PUSH2 0x199B JUMP JUMPDEST SWAP6 SWAP5 POP POP POP POP POP JUMP JUMPDEST PUSH32 0x5A65726F20616D6F756E74000000000000000000000000000000000000000000 PUSH1 0x0 DUP3 ADD MSTORE POP JUMP JUMPDEST PUSH1 0x0 PUSH2 0x1F4C PUSH1 0xB DUP4 PUSH2 0x1BC7 JUMP JUMPDEST SWAP2 POP PUSH2 0x1F57 DUP3 PUSH2 0x1F16 JUMP JUMPDEST PUSH1 0x20 DUP3 ADD SWAP1 POP SWAP2 SWAP1 POP JUMP JUMPDEST PUSH1 0x0 PUSH1 0x20 DUP3 ADD SWAP1 POP DUP2 DUP2 SUB PUSH1 0x0 DUP4 ADD MSTORE PUSH2 0x1F7B DUP2 PUSH2 0x1F3F JUMP JUMPDEST SWAP1 POP SWAP2 SWAP1 POP JUMP JUMPDEST PUSH1 0x0 DUP2 SWAP1 POP SWAP2 SWAP1 POP JUMP JUMPDEST PUSH1 0x0 DUP2 SWAP1 POP SWAP2 SWAP1 POP JUMP JUMPDEST PUSH1 0x0 PUSH2 0x1FB1 PUSH2 0x1FAC PUSH2 0x1FA7 DUP5 PUSH2 0x1F82 JUMP JUMPDEST PUSH2 0x1F8C JUMP JUMPDEST PUSH2 0x1991 JUMP JUMPDEST SWAP1 POP SWAP2 SWAP1 POP JUMP JUMPDEST PUSH2 0x1FC1 DUP2 PUSH2 0x1F96 JUMP JUMPDEST DUP3 MSTORE POP POP JUMP JUMPDEST PUSH1 0x0 PUSH1 0xC0 DUP3 ADD SWAP1 POP PUSH2 0x1FDC PUSH1 0x0 DUP4 ADD DUP10 PUSH2 0x1967 JUMP JUMPDEST PUSH2 0x1FE9 PUSH1 0x20 DUP4 ADD DUP9 PUSH2 0x1967 JUMP JUMPDEST PUSH2 0x1FF6 PUSH1 0x40 DUP4 ADD DUP8 PUSH2 0x1967 JUMP JUMPDEST PUSH2 0x2003 PUSH1 0x60 DUP4 ADD DUP7 PUSH2 0x199B JUMP JUMPDEST PUSH2 0x2010 PUSH1 0x80 DUP4 ADD DUP6 PUSH2 0x199B JUMP JUMPDEST PUSH2 0x201D PUSH1 0xA0 DUP4 ADD DUP5 PUSH2 0x1FB8 JUMP JUMPDEST SWAP8 SWAP7 POP POP POP POP POP POP POP JUMP JUMPDEST PUSH32 0x4D696E757320616D6F756E740000000000000000000000000000000000000000 PUSH1 0x0 DUP3 ADD MSTORE POP JUMP JUMPDEST PUSH1 0x0 PUSH2 0x205E PUSH1 0xC DUP4 PUSH2 0x1BC7 JUMP JUMPDEST SWAP2 POP PUSH2 0x2069 DUP3 PUSH2 0x2028 JUMP JUMPDEST PUSH1 0x20 DUP3 ADD SWAP1 POP SWAP2 SWAP1 POP JUMP JUMPDEST PUSH1 0x0 PUSH1 0x20 DUP3 ADD SWAP1 POP DUP2 DUP2 SUB PUSH1 0x0 DUP4 ADD MSTORE PUSH2 0x208D DUP2 PUSH2 0x2051 JUMP JUMPDEST SWAP1 POP SWAP2 SWAP1 POP JUMP JUMPDEST PUSH1 0x0 PUSH1 0xA0 DUP3 ADD SWAP1 POP PUSH2 0x20A9 PUSH1 0x0 DUP4 ADD DUP9 PUSH2 0x1967 JUMP JUMPDEST PUSH2 0x20B6 PUSH1 0x20 DUP4 ADD DUP8 PUSH2 0x1967 JUMP JUMPDEST PUSH2 0x20C3 PUSH1 0x40 DUP4 ADD DUP7 PUSH2 0x199B JUMP JUMPDEST PUSH2 0x20D0 PUSH1 0x60 DUP4 ADD DUP6 PUSH2 0x199B JUMP JUMPDEST PUSH2 0x20DD PUSH1 0x80 DUP4 ADD DUP5 PUSH2 0x199B JUMP JUMPDEST SWAP7 SWAP6 POP POP POP POP POP POP JUMP JUMPDEST PUSH1 0x0 PUSH1 0x60 DUP3 ADD SWAP1 POP PUSH2 0x20FC PUSH1 0x0 DUP4 ADD DUP7 PUSH2 0x1967 JUMP JUMPDEST PUSH2 0x2109 PUSH1 0x20 DUP4 ADD DUP6 PUSH2 0x1967 JUMP JUMPDEST PUSH2 0x2116 PUSH1 0x40 DUP4 ADD DUP5 PUSH2 0x199B JUMP JUMPDEST SWAP5 SWAP4 POP POP POP POP JUMP JUMPDEST PUSH1 0x0 DUP2 MLOAD SWAP1 POP SWAP2 SWAP1 POP JUMP JUMPDEST PUSH1 0x0 DUP2 SWAP1 POP SWAP3 SWAP2 POP POP JUMP JUMPDEST PUSH1 0x0 JUMPDEST DUP4 DUP2 LT ISZERO PUSH2 0x2152 JUMPI DUP1 DUP3 ADD MLOAD DUP2 DUP5 ADD MSTORE PUSH1 0x20 DUP2 ADD SWAP1 POP PUSH2 0x2137 JUMP JUMPDEST DUP4 DUP2 GT ISZERO PUSH2 0x2161 JUMPI PUSH1 0x0 DUP5 DUP5 ADD MSTORE JUMPDEST POP POP POP POP JUMP JUMPDEST PUSH1 0x0 PUSH2 0x2172 DUP3 PUSH2 0x211E JUMP JUMPDEST PUSH2 0x217C DUP2 DUP6 PUSH2 0x2129 JUMP JUMPDEST SWAP4 POP PUSH2 0x218C DUP2 DUP6 PUSH1 0x20 DUP7 ADD PUSH2 0x2134 JUMP JUMPDEST DUP1 DUP5 ADD SWAP2 POP POP SWAP3 SWAP2 POP POP JUMP JUMPDEST PUSH1 0x0 PUSH2 0x21A4 DUP3 DUP5 PUSH2 0x2167 JUMP JUMPDEST SWAP2 POP DUP2 SWAP1 POP SWAP3 SWAP2 POP POP JUMP JUMPDEST PUSH2 0x21B8 DUP2 PUSH2 0x1A89 JUMP JUMPDEST DUP2 EQ PUSH2 0x21C3 JUMPI PUSH1 0x0 DUP1 REVERT JUMPDEST POP JUMP JUMPDEST PUSH1 0x0 DUP2 MLOAD SWAP1 POP PUSH2 0x21D5 DUP2 PUSH2 0x21AF JUMP JUMPDEST SWAP3 SWAP2 POP POP JUMP JUMPDEST PUSH1 0x0 PUSH1 0x20 DUP3 DUP5 SUB SLT ISZERO PUSH2 0x21F1 JUMPI PUSH2 0x21F0 PUSH2 0x19C5 JUMP JUMPDEST JUMPDEST PUSH1 0x0 PUSH2 0x21FF DUP5 DUP3 DUP6 ADD PUSH2 0x21C6 JUMP JUMPDEST SWAP2 POP POP SWAP3 SWAP2 POP POP JUMP JUMPDEST PUSH32 0x5472616E7366657248656C7065723A3A7472616E7366657246726F6D3A207472 PUSH1 0x0 DUP3 ADD MSTORE PUSH32 0x616E7366657246726F6D206661696C6564000000000000000000000000000000 PUSH1 0x20 DUP3 ADD MSTORE POP JUMP JUMPDEST PUSH1 0x0 PUSH2 0x2264 PUSH1 0x31 DUP4 PUSH2 0x1BC7 JUMP JUMPDEST SWAP2 POP PUSH2 0x226F DUP3 PUSH2 0x2208 JUMP JUMPDEST PUSH1 0x40 DUP3 ADD SWAP1 POP SWAP2 SWAP1 POP JUMP JUMPDEST PUSH1 0x0 PUSH1 0x20 DUP3 ADD SWAP1 POP DUP2 DUP2 SUB PUSH1 0x0 DUP4 ADD MSTORE PUSH2 0x2293 DUP2 PUSH2 0x2257 JUMP JUMPDEST SWAP1 POP SWAP2 SWAP1 POP JUMP JUMPDEST PUSH1 0x0 PUSH1 0x40 DUP3 ADD SWAP1 POP PUSH2 0x22AF PUSH1 0x0 DUP4 ADD DUP6 PUSH2 0x1967 JUMP JUMPDEST PUSH2 0x22BC PUSH1 0x20 DUP4 ADD DUP5 PUSH2 0x199B JUMP JUMPDEST SWAP4 SWAP3 POP POP POP JUMP JUMPDEST PUSH32 0x4641494C4544204D696E74000000000000000000000000000000000000000000 PUSH1 0x0 DUP3 ADD MSTORE POP JUMP JUMPDEST PUSH1 0x0 PUSH2 0x22F9 PUSH1 0xB DUP4 PUSH2 0x1BC7 JUMP JUMPDEST SWAP2 POP PUSH2 0x2304 DUP3 PUSH2 0x22C3 JUMP JUMPDEST PUSH1 0x20 DUP3 ADD SWAP1 POP SWAP2 SWAP1 POP JUMP JUMPDEST PUSH1 0x0 PUSH1 0x20 DUP3 ADD SWAP1 POP DUP2 DUP2 SUB PUSH1 0x0 DUP4 ADD MSTORE PUSH2 0x2328 DUP2 PUSH2 0x22EC JUMP JUMPDEST SWAP1 POP SWAP2 SWAP1 POP JUMP JUMPDEST PUSH32 0x4C6F636B65640000000000000000000000000000000000000000000000000000 PUSH1 0x0 DUP3 ADD MSTORE POP JUMP JUMPDEST PUSH1 0x0 PUSH2 0x2365 PUSH1 0x6 DUP4 PUSH2 0x1BC7 JUMP JUMPDEST SWAP2 POP PUSH2 0x2370 DUP3 PUSH2 0x232F JUMP JUMPDEST PUSH1 0x20 DUP3 ADD SWAP1 POP SWAP2 SWAP1 POP JUMP JUMPDEST PUSH1 0x0 PUSH1 0x20 DUP3 ADD SWAP1 POP DUP2 DUP2 SUB PUSH1 0x0 DUP4 ADD MSTORE PUSH2 0x2394 DUP2 PUSH2 0x2358 JUMP JUMPDEST SWAP1 POP SWAP2 SWAP1 POP JUMP JUMPDEST PUSH32 0x30206E756D626572000000000000000000000000000000000000000000000000 PUSH1 0x0 DUP3 ADD MSTORE POP JUMP JUMPDEST PUSH1 0x0 PUSH2 0x23D1 PUSH1 0x8 DUP4 PUSH2 0x1BC7 JUMP JUMPDEST SWAP2 POP PUSH2 0x23DC DUP3 PUSH2 0x239B JUMP JUMPDEST PUSH1 0x20 DUP3 ADD SWAP1 POP SWAP2 SWAP1 POP JUMP JUMPDEST PUSH1 0x0 PUSH1 0x20 DUP3 ADD SWAP1 POP DUP2 DUP2 SUB PUSH1 0x0 DUP4 ADD MSTORE PUSH2 0x2400 DUP2 PUSH2 0x23C4 JUMP JUMPDEST SWAP1 POP SWAP2 SWAP1 POP JUMP JUMPDEST PUSH32 0x5472616E7366657248656C7065723A3A736166655472616E736665723A207472 PUSH1 0x0 DUP3 ADD MSTORE PUSH32 0x616E73666572206661696C656400000000000000000000000000000000000000 PUSH1 0x20 DUP3 ADD MSTORE POP JUMP JUMPDEST PUSH1 0x0 PUSH2 0x2463 PUSH1 0x2D DUP4 PUSH2 0x1BC7 JUMP JUMPDEST SWAP2 POP PUSH2 0x246E DUP3 PUSH2 0x2407 JUMP JUMPDEST PUSH1 0x40 DUP3 ADD SWAP1 POP SWAP2 SWAP1 POP JUMP JUMPDEST PUSH1 0x0 PUSH1 0x20 DUP3 ADD SWAP1 POP DUP2 DUP2 SUB PUSH1 0x0 DUP4 ADD MSTORE PUSH2 0x2492 DUP2 PUSH2 0x2456 JUMP JUMPDEST SWAP1 POP SWAP2 SWAP1 POP JUMP JUMPDEST PUSH32 0x4641494C4544204275726E000000000000000000000000000000000000000000 PUSH1 0x0 DUP3 ADD MSTORE POP JUMP JUMPDEST PUSH1 0x0 PUSH2 0x24CF PUSH1 0xB DUP4 PUSH2 0x1BC7 JUMP JUMPDEST SWAP2 POP PUSH2 0x24DA DUP3 PUSH2 0x2499 JUMP JUMPDEST PUSH1 0x20 DUP3 ADD SWAP1 POP SWAP2 SWAP1 POP JUMP JUMPDEST PUSH1 0x0 PUSH1 0x20 DUP3 ADD SWAP1 POP DUP2 DUP2 SUB PUSH1 0x0 DUP4 ADD MSTORE PUSH2 0x24FE DUP2 PUSH2 0x24C2 JUMP JUMPDEST SWAP1 POP SWAP2 SWAP1 POP JUMP INVALID PUSH21 0x72616E7366657246726F6D28616464726573732C61 PUSH5 0x6472657373 0x2C PUSH22 0x696E7432353629A2646970667358221220C9447D28F8 0xBA PUSH20 0x5125CDA39A847F655F9837EB9036A4069F81D8D6 0xE0 PUSH26 0xEE185C64736F6C634300080F0033000000000000000000000000 "
				},
				"gasEstimates": {
					"creation": {
						"codeDepositCost": "1913600",
						"executionCost": "infinite",
						"totalCost": "infinite"
					},
					"external": {
						"_addLiquidity(address,address,uint256,uint256)": "infinite",
						"_deleteLiquidity(address,address,address,uint256,uint256,uint256)": "infinite",
						"_swap(address,address,address,uint256,uint256)": "infinite",
						"k()": "2473",
						"lp()": "2559",
						"min_liq()": "374",
						"price0()": "2451",
						"price1()": "2540",
						"reserve0()": "2496",
						"reserve1()": "2518",
						"token0()": "2515",
						"token1()": "2580",
						"totalSupply()": "2452"
					},
					"internal": {
						"_updateStorage(address,address,uint256,uint256)": "infinite",
						"burn(address,address,uint256)": "infinite",
						"getBalancePair()": "4237",
						"mint(address,address,uint256)": "infinite",
						"transfer(address,address,uint256)": "infinite",
						"transferFrom(address,address,uint256)": "infinite",
						"updateK(address,address)": "infinite"
					}
				},
				"methodIdentifiers": {
					"_addLiquidity(address,address,uint256,uint256)": "77619ac5",
					"_deleteLiquidity(address,address,address,uint256,uint256,uint256)": "db5159a2",
					"_swap(address,address,address,uint256,uint256)": "9ba613a8",
					"k()": "b4f40c61",
					"lp()": "313c06a0",
					"min_liq()": "8f402b56",
					"price0()": "a0a986f1",
					"price1()": "6caf25ce",
					"reserve0()": "443cb4bc",
					"reserve1()": "5a76f25e",
					"token0()": "0dfe1681",
					"token1()": "d21220a7",
					"totalSupply()": "18160ddd"
				}
			},
			"storageLayout": {
				"storage": [
					{
						"astId": 6,
						"contract": "contracts/OndaV1Pool.sol:SwapPool",
						"label": "owner",
						"offset": 0,
						"slot": "0",
						"type": "t_address"
					},
					{
						"astId": 8,
						"contract": "contracts/OndaV1Pool.sol:SwapPool",
						"label": "token0",
						"offset": 0,
						"slot": "1",
						"type": "t_address"
					},
					{
						"astId": 10,
						"contract": "contracts/OndaV1Pool.sol:SwapPool",
						"label": "token1",
						"offset": 0,
						"slot": "2",
						"type": "t_address"
					},
					{
						"astId": 12,
						"contract": "contracts/OndaV1Pool.sol:SwapPool",
						"label": "lp",
						"offset": 0,
						"slot": "3",
						"type": "t_address"
					},
					{
						"astId": 14,
						"contract": "contracts/OndaV1Pool.sol:SwapPool",
						"label": "k",
						"offset": 0,
						"slot": "4",
						"type": "t_uint256"
					},
					{
						"astId": 17,
						"contract": "contracts/OndaV1Pool.sol:SwapPool",
						"label": "key",
						"offset": 0,
						"slot": "5",
						"type": "t_uint256"
					},
					{
						"astId": 19,
						"contract": "contracts/OndaV1Pool.sol:SwapPool",
						"label": "reserve0",
						"offset": 0,
						"slot": "6",
						"type": "t_uint256"
					},
					{
						"astId": 21,
						"contract": "contracts/OndaV1Pool.sol:SwapPool",
						"label": "reserve1",
						"offset": 0,
						"slot": "7",
						"type": "t_uint256"
					},
					{
						"astId": 23,
						"contract": "contracts/OndaV1Pool.sol:SwapPool",
						"label": "price0",
						"offset": 0,
						"slot": "8",
						"type": "t_uint256"
					},
					{
						"astId": 25,
						"contract": "contracts/OndaV1Pool.sol:SwapPool",
						"label": "price1",
						"offset": 0,
						"slot": "9",
						"type": "t_uint256"
					},
					{
						"astId": 27,
						"contract": "contracts/OndaV1Pool.sol:SwapPool",
						"label": "totalSupply",
						"offset": 0,
						"slot": "10",
						"type": "t_uint256"
					}
				],
				"types": {
					"t_address": {
						"encoding": "inplace",
						"label": "address",
						"numberOfBytes": "20"
					},
					"t_uint256": {
						"encoding": "inplace",
						"label": "uint256",
						"numberOfBytes": "32"
					}
				}
			},
			"userdoc": {
				"kind": "user",
				"methods": {},
				"version": 1
			}
		}
	}
}