{
  "_format": "hh-sol-artifact-1",
  "contractName": "OndaV1Factory",
  "sourceName": "contracts/OndaV1Factory.sol",
  "abi": [
    {
      "anonymous": false,
      "inputs": [
        {
          "indexed": false,
          "internalType": "address",
          "name": "_token0",
          "type": "address"
        },
        {
          "indexed": false,
          "internalType": "address",
          "name": "_token1",
          "type": "address"
        },
        {
          "indexed": false,
          "internalType": "address",
          "name": "_pair",
          "type": "address"
        },
        {
          "indexed": false,
          "internalType": "uint256",
          "name": "_fee",
          "type": "uint256"
        }
      ],
      "name": "CreatePool",
      "type": "event"
    },
    {
      "inputs": [
        {
          "internalType": "address",
          "name": "_token0",
          "type": "address"
        },
        {
          "internalType": "address",
          "name": "_token1",
          "type": "address"
        },
        {
          "internalType": "uint256",
          "name": "_fee",
          "type": "uint256"
        }
      ],
      "name": "createPool",
      "outputs": [
        {
          "internalType": "address",
          "name": "pair",
          "type": "address"
        }
      ],
      "stateMutability": "nonpayable",
      "type": "function"
    },
    {
      "inputs": [
        {
          "internalType": "address",
          "name": "_token0",
          "type": "address"
        },
        {
          "internalType": "address",
          "name": "_token1",
          "type": "address"
        }
      ],
      "name": "getPoolAddress",
      "outputs": [
        {
          "internalType": "address",
          "name": "pool",
          "type": "address"
        }
      ],
      "stateMutability": "nonpayable",
      "type": "function"
    },
    {
      "inputs": [
        {
          "internalType": "address",
          "name": "",
          "type": "address"
        },
        {
          "internalType": "address",
          "name": "",
          "type": "address"
        }
      ],
      "name": "poolAddress",
      "outputs": [
        {
          "internalType": "address",
          "name": "",
          "type": "address"
        }
      ],
      "stateMutability": "view",
      "type": "function"
    }
  ],
  "bytecode": "0x608060405234801561001057600080fd5b50614fba806100206000396000f3fe608060405234801561001057600080fd5b50600436106100415760003560e01c80633fa1e0c81461004657806351810fb5146100765780636114b346146100a6575b600080fd5b610060600480360381019061005b919061059d565b6100d6565b60405161006d91906106ef565b60405180910390f35b610090600480360381019061008b91906105d9565b61017c565b60405161009d91906106ef565b60405180910390f35b6100c060048036038101906100bb919061059d565b61050f565b6040516100cd91906106ef565b60405180910390f35b60008060008473ffffffffffffffffffffffffffffffffffffffff1673ffffffffffffffffffffffffffffffffffffffff16815260200190815260200160002060008373ffffffffffffffffffffffffffffffffffffffff1673ffffffffffffffffffffffffffffffffffffffff16815260200190815260200160002060009054906101000a900473ffffffffffffffffffffffffffffffffffffffff16905092915050565b60008273ffffffffffffffffffffffffffffffffffffffff168473ffffffffffffffffffffffffffffffffffffffff1614156101ed576040517f08c379a00000000000000000000000000000000000000000000000000000000081526004016101e490610786565b60405180910390fd5b600073ffffffffffffffffffffffffffffffffffffffff168473ffffffffffffffffffffffffffffffffffffffff16141580156102575750600073ffffffffffffffffffffffffffffffffffffffff168373ffffffffffffffffffffffffffffffffffffffff1614155b610296576040517f08c379a000000000000000000000000000000000000000000000000000000000815260040161028d906107a6565b60405180910390fd5b60006040516102a490610551565b604051809103906000f0801580156102c0573d6000803e3d6000fd5b5090508073ffffffffffffffffffffffffffffffffffffffff166351810fb58686866040518463ffffffff1660e01b81526004016103009392919061074f565b602060405180830381600087803b15801561031a57600080fd5b505af115801561032e573d6000803e3d6000fd5b505050506040513d601f19601f820116820180604052508101906103529190610628565b507f0382d5f18baa6e39797831d1c9c439ca4fa384f379e88484d6462366e39e53fb85858386604051610388949392919061070a565b60405180910390a1806000808773ffffffffffffffffffffffffffffffffffffffff1673ffffffffffffffffffffffffffffffffffffffff16815260200190815260200160002060008673ffffffffffffffffffffffffffffffffffffffff1673ffffffffffffffffffffffffffffffffffffffff16815260200190815260200160002060006101000a81548173ffffffffffffffffffffffffffffffffffffffff021916908373ffffffffffffffffffffffffffffffffffffffff160217905550806000808673ffffffffffffffffffffffffffffffffffffffff1673ffffffffffffffffffffffffffffffffffffffff16815260200190815260200160002060008773ffffffffffffffffffffffffffffffffffffffff1673ffffffffffffffffffffffffffffffffffffffff16815260200190815260200160002060006101000a81548173ffffffffffffffffffffffffffffffffffffffff021916908373ffffffffffffffffffffffffffffffffffffffff160217905550809150509392505050565b60006020528160005260406000206020528060005260406000206000915091509054906101000a900473ffffffffffffffffffffffffffffffffffffffff1681565b6147208061086583390190565b60008135905061056d8161081f565b92915050565b60008151905061058281610836565b92915050565b6000813590506105978161084d565b92915050565b600080604083850312156105b057600080fd5b60006105be8582860161055e565b92505060206105cf8582860161055e565b9150509250929050565b6000806000606084860312156105ee57600080fd5b60006105fc8682870161055e565b935050602061060d8682870161055e565b925050604061061e86828701610588565b9150509250925092565b60006020828403121561063a57600080fd5b600061064884828501610573565b91505092915050565b61065a816107d7565b82525050565b600061066d600d836107c6565b91507f457175616c2061646472657373000000000000000000000000000000000000006000830152602082019050919050565b60006106ad600c836107c6565b91507f5a65726f206164647265737300000000000000000000000000000000000000006000830152602082019050919050565b6106e981610815565b82525050565b60006020820190506107046000830184610651565b92915050565b600060808201905061071f6000830187610651565b61072c6020830186610651565b6107396040830185610651565b61074660608301846106e0565b95945050505050565b60006060820190506107646000830186610651565b6107716020830185610651565b61077e60408301846106e0565b949350505050565b6000602082019050818103600083015261079f81610660565b9050919050565b600060208201905081810360008301526107bf816106a0565b9050919050565b600082825260208201905092915050565b60006107e2826107f5565b9050919050565b60008115159050919050565b600073ffffffffffffffffffffffffffffffffffffffff82169050919050565b6000819050919050565b610828816107d7565b811461083357600080fd5b50565b61083f816107e9565b811461084a57600080fd5b50565b61085681610815565b811461086157600080fd5b5056fe6080604052600060055534801561001557600080fd5b50336000806101000a81548173ffffffffffffffffffffffffffffffffffffffff021916908373ffffffffffffffffffffffffffffffffffffffff1602179055506146bb806100656000396000f3fe60806040523480156200001157600080fd5b50600436106200010c5760003560e01c80635a76f25e11620000a5578063a0a986f1116200006f578063a0a986f114620002d7578063b4f40c6114620002f9578063d21220a7146200031b578063ddca3f43146200033d576200010c565b80635a76f25e146200023b5780636caf25ce146200025d5780638f402b56146200027f5780639ba613a814620002a1576200010c565b8063292140b511620000e7578063292140b5146200018b578063313c06a014620001c1578063443cb4bc14620001e357806351810fb51462000205576200010c565b80630ad54a9714620001115780630dfe1681146200014757806318160ddd1462000169575b600080fd5b6200012f600480360381019062000129919062001d81565b6200035f565b6040516200013e919062002482565b60405180910390f35b62000151620006df565b60405162000160919062002304565b60405180910390f35b6200017362000705565b60405162000182919062002637565b60405180910390f35b620001a96004803603810190620001a3919062001ded565b6200070b565b604051620001b8919062002482565b60405180910390f35b620001cb62000ce3565b604051620001da919062002304565b60405180910390f35b620001ed62000d09565b604051620001fc919062002637565b60405180910390f35b6200022360048036038101906200021d919062001e6f565b62000d0f565b60405162000232919062002482565b60405180910390f35b6200024562000eb0565b60405162000254919062002637565b60405180910390f35b6200026762000eb6565b60405162000276919062002637565b60405180910390f35b6200028962000ebc565b60405162000298919062002637565b60405180910390f35b620002bf6004803603810190620002b9919062001ded565b62000ec1565b604051620002ce919062002482565b60405180910390f35b620002e16200139c565b604051620002f0919062002637565b60405180910390f35b62000303620013a2565b60405162000312919062002637565b60405180910390f35b62000325620013a8565b60405162000334919062002304565b60405180910390f35b62000347620013ce565b60405162000356919062002637565b60405180910390f35b60008060006200036e620013d4565b91509150600160009054906101000a900473ffffffffffffffffffffffffffffffffffffffff1673ffffffffffffffffffffffffffffffffffffffff168773ffffffffffffffffffffffffffffffffffffffff161480156200041d5750600260009054906101000a900473ffffffffffffffffffffffffffffffffffffffff1673ffffffffffffffffffffffffffffffffffffffff168673ffffffffffffffffffffffffffffffffffffffff16145b6200045f576040517f08c379a00000000000000000000000000000000000000000000000000000000081526004016200045690620025af565b60405180910390fd5b6000600a54838662000472919062002710565b6200047e9190620026d8565b90506000600a54838762000493919062002710565b6200049f9190620026d8565b9050600082118015620004b25750600081115b620004f4576040517f08c379a0000000000000000000000000000000000000000000000000000000008152600401620004eb906200256b565b60405180910390fd5b62000523600360009054906101000a900473ffffffffffffffffffffffffffffffffffffffff168888620013e5565b62000531893089856200157c565b6200053f883089846200157c565b85600a600082825462000553919062002771565b9250508190555060008973ffffffffffffffffffffffffffffffffffffffff166370a08231306040518263ffffffff1660e01b815260040162000597919062002304565b60206040518083038186803b158015620005b057600080fd5b505afa158015620005c5573d6000803e3d6000fd5b505050506040513d601f19601f82011682018060405250810190620005eb919062001ef1565b905060008973ffffffffffffffffffffffffffffffffffffffff166370a08231306040518263ffffffff1660e01b81526004016200062a919062002304565b60206040518083038186803b1580156200064357600080fd5b505afa15801562000658573d6000803e3d6000fd5b505050506040513d601f19601f820116820180604052508101906200067e919062001ef1565b90506200068e8b8b848462001700565b7f34b2ad1a5fd154a5bf592a278c7545d44d24b3830b687608b0e6d2537d3271478b8b8b8b604051620006c5949392919062002321565b60405180910390a160019650505050505050949350505050565b600160009054906101000a900473ffffffffffffffffffffffffffffffffffffffff1681565b600a5481565b60008060006200071a620013d4565b91509150600160009054906101000a900473ffffffffffffffffffffffffffffffffffffffff1673ffffffffffffffffffffffffffffffffffffffff168873ffffffffffffffffffffffffffffffffffffffff16148015620007c95750600260009054906101000a900473ffffffffffffffffffffffffffffffffffffffff1673ffffffffffffffffffffffffffffffffffffffff168773ffffffffffffffffffffffffffffffffffffffff16145b6200080b576040517f08c379a00000000000000000000000000000000000000000000000000000000081526004016200080290620025af565b60405180910390fd5b83851462000850576040517f08c379a0000000000000000000000000000000000000000000000000000000008152600401620008479062002505565b60405180910390fd5b6200085e888730886200157c565b6200086c878730876200157c565b60008873ffffffffffffffffffffffffffffffffffffffff166370a08231306040518263ffffffff1660e01b8152600401620008a9919062002304565b60206040518083038186803b158015620008c257600080fd5b505afa158015620008d7573d6000803e3d6000fd5b505050506040513d601f19601f82011682018060405250810190620008fd919062001ef1565b905060008873ffffffffffffffffffffffffffffffffffffffff166370a08231306040518263ffffffff1660e01b81526004016200093c919062002304565b60206040518083038186803b1580156200095557600080fd5b505afa1580156200096a573d6000803e3d6000fd5b505050506040513d601f19601f8201168201806040525081019062000990919062001ef1565b9050600080600a54141562000a6957620009df60648584620009b3919062002771565b8786620009c1919062002771565b620009cd919062002710565b620009d9919062002771565b6200183c565b90506000811162000a27576040517f08c379a000000000000000000000000000000000000000000000000000000000815260040162000a1e906200258d565b60405180910390fd5b62000a56600360009054906101000a900473ffffffffffffffffffffffffffffffffffffffff168a83620018c5565b62000a628b8b62001a5c565b5062000b3f565b62000ac785600a54878662000a7f919062002771565b62000a8b919062002710565b62000a979190620026d8565b85600a54878662000aa9919062002771565b62000ab5919062002710565b62000ac19190620026d8565b62001bb9565b90506000811162000b0f576040517f08c379a000000000000000000000000000000000000000000000000000000000815260040162000b06906200258d565b60405180910390fd5b62000b3e600360009054906101000a900473ffffffffffffffffffffffffffffffffffffffff168a83620018c5565b5b80600a600082825462000b5391906200267b565b9250508190555060008b73ffffffffffffffffffffffffffffffffffffffff166370a08231306040518263ffffffff1660e01b815260040162000b97919062002304565b60206040518083038186803b15801562000bb057600080fd5b505afa15801562000bc5573d6000803e3d6000fd5b505050506040513d601f19601f8201168201806040525081019062000beb919062001ef1565b905060008b73ffffffffffffffffffffffffffffffffffffffff166370a08231306040518263ffffffff1660e01b815260040162000c2a919062002304565b60206040518083038186803b15801562000c4357600080fd5b505afa15801562000c58573d6000803e3d6000fd5b505050506040513d601f19601f8201168201806040525081019062000c7e919062001ef1565b905062000c8e8d8d848462001700565b7fc33fbc9654f9c0dcfcbd829113bdb10afe95619bc0824bc5959ad82fd6952bd98d8d8d8d8d60405162000cc79594939291906200236e565b60405180910390a1600197505050505050505095945050505050565b600360009054906101000a900473ffffffffffffffffffffffffffffffffffffffff1681565b60065481565b60008060009054906101000a900473ffffffffffffffffffffffffffffffffffffffff1673ffffffffffffffffffffffffffffffffffffffff163373ffffffffffffffffffffffffffffffffffffffff161462000da3576040517f08c379a000000000000000000000000000000000000000000000000000000000815260040162000d9a90620024c1565b60405180910390fd5b83600160006101000a81548173ffffffffffffffffffffffffffffffffffffffff021916908373ffffffffffffffffffffffffffffffffffffffff16021790555082600260006101000a81548173ffffffffffffffffffffffffffffffffffffffff021916908373ffffffffffffffffffffffffffffffffffffffff16021790555081600b819055503060405162000e3b9062001d17565b62000e47919062002304565b604051809103906000f08015801562000e64573d6000803e3d6000fd5b50600360006101000a81548173ffffffffffffffffffffffffffffffffffffffff021916908373ffffffffffffffffffffffffffffffffffffffff160217905550600190509392505050565b60075481565b60095481565b606481565b600080600062000ed0620013d4565b91509150600160009054906101000a900473ffffffffffffffffffffffffffffffffffffffff1673ffffffffffffffffffffffffffffffffffffffff168873ffffffffffffffffffffffffffffffffffffffff1614801562000f7f5750600260009054906101000a900473ffffffffffffffffffffffffffffffffffffffff1673ffffffffffffffffffffffffffffffffffffffff168773ffffffffffffffffffffffffffffffffffffffff16145b62000fc1576040517f08c379a000000000000000000000000000000000000000000000000000000000815260040162000fb890620025af565b60405180910390fd5b600085118062000fd15750600084115b62001013576040517f08c379a00000000000000000000000000000000000000000000000000000000081526004016200100a9062002527565b60405180910390fd5b6000851480620010235750600084145b62001065576040517f08c379a00000000000000000000000000000000000000000000000000000000081526004016200105c9062002549565b60405180910390fd5b8773ffffffffffffffffffffffffffffffffffffffff168673ffffffffffffffffffffffffffffffffffffffff1614158015620010ce57508673ffffffffffffffffffffffffffffffffffffffff168673ffffffffffffffffffffffffffffffffffffffff1614155b62001110576040517f08c379a00000000000000000000000000000000000000000000000000000000081526004016200110790620025af565b60405180910390fd5b60006103e8600b548762001125919062002710565b620011319190620026d8565b905060006103e8600b548762001148919062002710565b620011549190620026d8565b9050600087118015620011675750600086145b15620011b557620011a7898930620f4240600854878d6200118991906200267b565b62001195919062002710565b620011a19190620026d8565b6200157c565b620011b48a898962001bd4565b5b600086118015620011c65750600087145b156200121457620012068a8930620f4240600954868c620011e891906200267b565b620011f4919062002710565b620012009190620026d8565b6200157c565b6200121389898862001bd4565b5b60008a73ffffffffffffffffffffffffffffffffffffffff166370a08231306040518263ffffffff1660e01b815260040162001251919062002304565b60206040518083038186803b1580156200126a57600080fd5b505afa1580156200127f573d6000803e3d6000fd5b505050506040513d601f19601f82011682018060405250810190620012a5919062001ef1565b905060008a73ffffffffffffffffffffffffffffffffffffffff166370a08231306040518263ffffffff1660e01b8152600401620012e4919062002304565b60206040518083038186803b158015620012fd57600080fd5b505afa15801562001312573d6000803e3d6000fd5b505050506040513d601f19601f8201168201806040525081019062001338919062001ef1565b9050620013488c8c848462001700565b7f3070708cdb5d7d3931be8443f49f7ec529e2bbe770b676e3c0cc40e158c5d0398c8c8c8c8c604051620013819594939291906200236e565b60405180910390a16001965050505050505095945050505050565b60085481565b60045481565b600260009054906101000a900473ffffffffffffffffffffffffffffffffffffffff1681565b600b5481565b600080600654915060075490509091565b6000808473ffffffffffffffffffffffffffffffffffffffff166040518060400160405280601581526020017f6275726e28616464726573732c75696e743235362900000000000000000000008152508051906020012085856040516024016200145192919062002455565b604051602081830303815290604052907bffffffffffffffffffffffffffffffffffffffffffffffffffffffff19166020820180517bffffffffffffffffffffffffffffffffffffffffffffffffffffffff8381831617835250505050604051620014bd9190620022eb565b6000604051808303816000865af19150503d8060008114620014fc576040519150601f19603f3d011682016040523d82523d6000602084013e62001501565b606091505b50915091508180156200153357506000815114806200153257508080602001905181019062001531919062001ec5565b5b5b62001575576040517f08c379a00000000000000000000000000000000000000000000000000000000081526004016200156c9062002615565b60405180910390fd5b5050505050565b600060405180606001604052806025815260200162004661602591398051906020012090506000808673ffffffffffffffffffffffffffffffffffffffff1683878787604051602401620015d393929190620023cb565b604051602081830303815290604052907bffffffffffffffffffffffffffffffffffffffffffffffffffffffff19166020820180517bffffffffffffffffffffffffffffffffffffffffffffffffffffffff83818316178352505050506040516200163f9190620022eb565b6000604051808303816000865af19150503d80600081146200167e576040519150601f19603f3d011682016040523d82523d6000602084013e62001683565b606091505b5091509150818015620016b55750600081511480620016b4575080806020019051810190620016b3919062001ec5565b5b5b620016f7576040517f08c379a0000000000000000000000000000000000000000000000000000000008152600401620016ee90620024e3565b60405180910390fd5b50505050505050565b6000821015801562001713575060008110155b62001755576040517f08c379a00000000000000000000000000000000000000000000000000000000081526004016200174c906200249f565b60405180910390fd5b6000821415801562001768575060008114155b15620017bc5781620f42408262001780919062002710565b6200178c9190620026d8565b60088190555080620f424083620017a4919062002710565b620017b09190620026d8565b600981905550620017e5565b600082148015620017cd5750600081145b15620017e457600060088190555060006009819055505b5b81600681905550806007819055507fd4bde8444971b7416b5f51c90f544d2fe2d0c1edddd83bd5fe8646179341dc9984846006546007546040516200182e949392919062002408565b60405180910390a150505050565b60006003821115620018b157819050600060016002846200185e9190620026d8565b6200186a91906200267b565b90505b81811015620018aa5780915060028182856200188a9190620026d8565b6200189691906200267b565b620018a29190620026d8565b90506200186d565b50620018c0565b60008214620018bf57600190505b5b919050565b6000808473ffffffffffffffffffffffffffffffffffffffff166040518060400160405280601581526020017f6d696e7428616464726573732c75696e743235362900000000000000000000008152508051906020012085856040516024016200193192919062002455565b604051602081830303815290604052907bffffffffffffffffffffffffffffffffffffffffffffffffffffffff19166020820180517bffffffffffffffffffffffffffffffffffffffffffffffffffffffff83818316178352505050506040516200199d9190620022eb565b6000604051808303816000865af19150503d8060008114620019dc576040519150601f19603f3d011682016040523d82523d6000602084013e620019e1565b606091505b509150915081801562001a13575060008151148062001a1257508080602001905181019062001a11919062001ec5565b5b5b62001a55576040517f08c379a000000000000000000000000000000000000000000000000000000000815260040162001a4c90620025d1565b60405180910390fd5b5050505050565b6000808373ffffffffffffffffffffffffffffffffffffffff166370a08231306040518263ffffffff1660e01b815260040162001a9a919062002304565b60206040518083038186803b15801562001ab357600080fd5b505afa15801562001ac8573d6000803e3d6000fd5b505050506040513d601f19601f8201168201806040525081019062001aee919062001ef1565b905060008373ffffffffffffffffffffffffffffffffffffffff166370a08231306040518263ffffffff1660e01b815260040162001b2d919062002304565b60206040518083038186803b15801562001b4657600080fd5b505afa15801562001b5b573d6000803e3d6000fd5b505050506040513d601f19601f8201168201806040525081019062001b81919062001ef1565b90506000600554141562001bac57808262001b9d919062002710565b60048190555060016005819055505b6004549250505092915050565b600081831062001bca578162001bcc565b825b905092915050565b6000808473ffffffffffffffffffffffffffffffffffffffff1663a9059cbb858560405160240162001c0892919062002455565b6040516020818303038152906040529060e01b6020820180517bffffffffffffffffffffffffffffffffffffffffffffffffffffffff838183161783525050505060405162001c589190620022eb565b6000604051808303816000865af19150503d806000811462001c97576040519150601f19603f3d011682016040523d82523d6000602084013e62001c9c565b606091505b509150915081801562001cce575060008151148062001ccd57508080602001905181019062001ccc919062001ec5565b5b5b62001d10576040517f08c379a000000000000000000000000000000000000000000000000000000000815260040162001d0790620025f3565b60405180910390fd5b5050505050565b611d8880620028d983390190565b60008135905062001d36816200288a565b92915050565b60008151905062001d4d81620028a4565b92915050565b60008135905062001d6481620028be565b92915050565b60008151905062001d7b81620028be565b92915050565b6000806000806080858703121562001d9857600080fd5b600062001da88782880162001d25565b945050602062001dbb8782880162001d25565b935050604062001dce8782880162001d25565b925050606062001de18782880162001d53565b91505092959194509250565b600080600080600060a0868803121562001e0657600080fd5b600062001e168882890162001d25565b955050602062001e298882890162001d25565b945050604062001e3c8882890162001d25565b935050606062001e4f8882890162001d53565b925050608062001e628882890162001d53565b9150509295509295909350565b60008060006060848603121562001e8557600080fd5b600062001e958682870162001d25565b935050602062001ea88682870162001d25565b925050604062001ebb8682870162001d53565b9150509250925092565b60006020828403121562001ed857600080fd5b600062001ee88482850162001d3c565b91505092915050565b60006020828403121562001f0457600080fd5b600062001f148482850162001d6a565b91505092915050565b62001f2881620027ac565b82525050565b62001f3981620027c0565b82525050565b600062001f4c8262002654565b62001f5881856200265f565b935062001f6a818560208601620027f6565b80840191505092915050565b600062001f856008836200266a565b91507f30206e756d6265720000000000000000000000000000000000000000000000006000830152602082019050919050565b600062001fc7600d836200266a565b91507f4e4f54204120464143544f5259000000000000000000000000000000000000006000830152602082019050919050565b6000620020096031836200266a565b91507f5472616e7366657248656c7065723a3a7472616e7366657246726f6d3a20747260008301527f616e7366657246726f6d206661696c65640000000000000000000000000000006020830152604082019050919050565b6000620020716009836200266a565b91507f4e6f7420657175616c00000000000000000000000000000000000000000000006000830152602082019050919050565b6000620020b3600b836200266a565b91507f5a65726f20616d6f756e740000000000000000000000000000000000000000006000830152602082019050919050565b6000620020f56003836200266a565b91507f4e535400000000000000000000000000000000000000000000000000000000006000830152602082019050919050565b600062002137600c836200266a565b91507f4d696e757320616d6f756e7400000000000000000000000000000000000000006000830152602082019050919050565b600062002179600f836200266a565b91507f4d696e7573206c697175696469747900000000000000000000000000000000006000830152602082019050919050565b6000620021bb6010836200266a565b91507f4e6f7420757365642061646472657373000000000000000000000000000000006000830152602082019050919050565b6000620021fd600b836200266a565b91507f4641494c4544204d696e740000000000000000000000000000000000000000006000830152602082019050919050565b60006200223f602d836200266a565b91507f5472616e7366657248656c7065723a3a736166655472616e736665723a20747260008301527f616e73666572206661696c6564000000000000000000000000000000000000006020830152604082019050919050565b6000620022a7600b836200266a565b91507f4641494c4544204275726e0000000000000000000000000000000000000000006000830152602082019050919050565b620022e581620027ec565b82525050565b6000620022f9828462001f3f565b915081905092915050565b60006020820190506200231b600083018462001f1d565b92915050565b600060808201905062002338600083018762001f1d565b62002347602083018662001f1d565b62002356604083018562001f1d565b620023656060830184620022da565b95945050505050565b600060a08201905062002385600083018862001f1d565b62002394602083018762001f1d565b620023a3604083018662001f1d565b620023b26060830185620022da565b620023c16080830184620022da565b9695505050505050565b6000606082019050620023e2600083018662001f1d565b620023f1602083018562001f1d565b620024006040830184620022da565b949350505050565b60006080820190506200241f600083018762001f1d565b6200242e602083018662001f1d565b6200243d6040830185620022da565b6200244c6060830184620022da565b95945050505050565b60006040820190506200246c600083018562001f1d565b6200247b6020830184620022da565b9392505050565b600060208201905062002499600083018462001f2e565b92915050565b60006020820190508181036000830152620024ba8162001f76565b9050919050565b60006020820190508181036000830152620024dc8162001fb8565b9050919050565b60006020820190508181036000830152620024fe8162001ffa565b9050919050565b60006020820190508181036000830152620025208162002062565b9050919050565b600060208201905081810360008301526200254281620020a4565b9050919050565b600060208201905081810360008301526200256481620020e6565b9050919050565b60006020820190508181036000830152620025868162002128565b9050919050565b60006020820190508181036000830152620025a8816200216a565b9050919050565b60006020820190508181036000830152620025ca81620021ac565b9050919050565b60006020820190508181036000830152620025ec81620021ee565b9050919050565b600060208201905081810360008301526200260e8162002230565b9050919050565b60006020820190508181036000830152620026308162002298565b9050919050565b60006020820190506200264e6000830184620022da565b92915050565b600081519050919050565b600081905092915050565b600082825260208201905092915050565b60006200268882620027ec565b91506200269583620027ec565b9250827fffffffffffffffffffffffffffffffffffffffffffffffffffffffffffffffff03821115620026cd57620026cc6200282c565b5b828201905092915050565b6000620026e582620027ec565b9150620026f283620027ec565b9250826200270557620027046200285b565b5b828204905092915050565b60006200271d82620027ec565b91506200272a83620027ec565b9250817fffffffffffffffffffffffffffffffffffffffffffffffffffffffffffffffff04831182151516156200276657620027656200282c565b5b828202905092915050565b60006200277e82620027ec565b91506200278b83620027ec565b925082821015620027a157620027a06200282c565b5b828203905092915050565b6000620027b982620027cc565b9050919050565b60008115159050919050565b600073ffffffffffffffffffffffffffffffffffffffff82169050919050565b6000819050919050565b60005b8381101562002816578082015181840152602081019050620027f9565b8381111562002826576000848401525b50505050565b7f4e487b7100000000000000000000000000000000000000000000000000000000600052601160045260246000fd5b7f4e487b7100000000000000000000000000000000000000000000000000000000600052601260045260246000fd5b6200289581620027ac565b8114620028a157600080fd5b50565b620028af81620027c0565b8114620028bb57600080fd5b50565b620028c981620027ec565b8114620028d557600080fd5b5056fe60806040523480156200001157600080fd5b5060405162001d8838038062001d888339818101604052810190620000379190620001e2565b6040518060400160405280601181526020017f4f6e64612e6669206f4441492f5553445400000000000000000000000000000081525060039080519060200190620000849291906200011b565b506040518060400160405280601181526020017f4f6e64612e6669206f4441492f5553445400000000000000000000000000000081525060049080519060200190620000d29291906200011b565b5080600560006101000a81548173ffffffffffffffffffffffffffffffffffffffff021916908373ffffffffffffffffffffffffffffffffffffffff16021790555050620002c1565b828054620001299062000242565b90600052602060002090601f0160209004810192826200014d576000855562000199565b82601f106200016857805160ff191683800117855562000199565b8280016001018555821562000199579182015b82811115620001985782518255916020019190600101906200017b565b5b509050620001a89190620001ac565b5090565b5b80821115620001c7576000816000905550600101620001ad565b5090565b600081519050620001dc81620002a7565b92915050565b600060208284031215620001f557600080fd5b60006200020584828501620001cb565b91505092915050565b60006200021b8262000222565b9050919050565b600073ffffffffffffffffffffffffffffffffffffffff82169050919050565b600060028204905060018216806200025b57607f821691505b6020821081141562000272576200027162000278565b5b50919050565b7f4e487b7100000000000000000000000000000000000000000000000000000000600052602260045260246000fd5b620002b2816200020e565b8114620002be57600080fd5b50565b611ab780620002d16000396000f3fe608060405234801561001057600080fd5b50600436106100f55760003560e01c806340c10f19116100975780639dc29fac116100665780639dc29fac14610288578063a457c2d7146102a4578063a9059cbb146102d4578063dd62ed3e14610304576100f5565b806340c10f1914610200578063636fc28b1461021c57806370a082311461023a57806395d89b411461026a576100f5565b806323b872dd116100d357806323b872dd14610166578063253c8bd414610196578063313ce567146101b257806339509351146101d0576100f5565b806306fdde03146100fa578063095ea7b31461011857806318160ddd14610148575b600080fd5b610102610334565b60405161010f91906116cc565b60405180910390f35b610132600480360381019061012d91906111f5565b6103c6565b60405161013f91906116b1565b60405180910390f35b6101506103e9565b60405161015d919061184e565b60405180910390f35b610180600480360381019061017b91906111a6565b6103f3565b60405161018d91906116b1565b60405180910390f35b6101b060048036038101906101ab9190611141565b610417565b005b6101ba6104eb565b6040516101c79190611869565b60405180910390f35b6101ea60048036038101906101e591906111f5565b6104f4565b6040516101f791906116b1565b60405180910390f35b61021a600480360381019061021591906111f5565b61052b565b005b610224610646565b6040516102319190611696565b60405180910390f35b610254600480360381019061024f9190611141565b61066c565b604051610261919061184e565b60405180910390f35b6102726106b4565b60405161027f91906116cc565b60405180910390f35b6102a2600480360381019061029d91906111f5565b610746565b005b6102be60048036038101906102b991906111f5565b610861565b6040516102cb91906116b1565b60405180910390f35b6102ee60048036038101906102e991906111f5565b6108d8565b6040516102fb91906116b1565b60405180910390f35b61031e6004803603810190610319919061116a565b6108fb565b60405161032b919061184e565b60405180910390f35b606060038054610343906119b2565b80601f016020809104026020016040519081016040528092919081815260200182805461036f906119b2565b80156103bc5780601f10610391576101008083540402835291602001916103bc565b820191906000526020600020905b81548152906001019060200180831161039f57829003601f168201915b5050505050905090565b6000806103d1610982565b90506103de81858561098a565b600191505092915050565b6000600254905090565b6000806103fe610982565b905061040b858585610b55565b60019150509392505050565b600560009054906101000a900473ffffffffffffffffffffffffffffffffffffffff1673ffffffffffffffffffffffffffffffffffffffff163373ffffffffffffffffffffffffffffffffffffffff16146104a7576040517f08c379a000000000000000000000000000000000000000000000000000000000815260040161049e906117ce565b60405180910390fd5b80600560006101000a81548173ffffffffffffffffffffffffffffffffffffffff021916908373ffffffffffffffffffffffffffffffffffffffff16021790555050565b60006012905090565b6000806104ff610982565b905061052081858561051185896108fb565b61051b91906118a0565b61098a565b600191505092915050565b600560009054906101000a900473ffffffffffffffffffffffffffffffffffffffff1673ffffffffffffffffffffffffffffffffffffffff163373ffffffffffffffffffffffffffffffffffffffff16146105bb576040517f08c379a00000000000000000000000000000000000000000000000000000000081526004016105b2906117ce565b60405180910390fd5b60006105c5610982565b9050600073ffffffffffffffffffffffffffffffffffffffff168373ffffffffffffffffffffffffffffffffffffffff161415610637576040517f08c379a000000000000000000000000000000000000000000000000000000000815260040161062e9061182e565b60405180910390fd5b6106418383610dd6565b505050565b600560009054906101000a900473ffffffffffffffffffffffffffffffffffffffff1681565b60008060008373ffffffffffffffffffffffffffffffffffffffff1673ffffffffffffffffffffffffffffffffffffffff168152602001908152602001600020549050919050565b6060600480546106c3906119b2565b80601f01602080910402602001604051908101604052809291908181526020018280546106ef906119b2565b801561073c5780601f106107115761010080835404028352916020019161073c565b820191906000526020600020905b81548152906001019060200180831161071f57829003601f168201915b5050505050905090565b600560009054906101000a900473ffffffffffffffffffffffffffffffffffffffff1673ffffffffffffffffffffffffffffffffffffffff163373ffffffffffffffffffffffffffffffffffffffff16146107d6576040517f08c379a00000000000000000000000000000000000000000000000000000000081526004016107cd906117ce565b60405180910390fd5b60006107e0610982565b9050600073ffffffffffffffffffffffffffffffffffffffff168373ffffffffffffffffffffffffffffffffffffffff161415610852576040517f08c379a00000000000000000000000000000000000000000000000000000000081526004016108499061174e565b60405180910390fd5b61085c8383610f36565b505050565b60008061086c610982565b9050600061087a82866108fb565b9050838110156108bf576040517f08c379a00000000000000000000000000000000000000000000000000000000081526004016108b69061180e565b60405180910390fd5b6108cc828686840361098a565b60019250505092915050565b6000806108e3610982565b90506108f0818585610b55565b600191505092915050565b6000600160008473ffffffffffffffffffffffffffffffffffffffff1673ffffffffffffffffffffffffffffffffffffffff16815260200190815260200160002060008373ffffffffffffffffffffffffffffffffffffffff1673ffffffffffffffffffffffffffffffffffffffff16815260200190815260200160002054905092915050565b600033905090565b600073ffffffffffffffffffffffffffffffffffffffff168373ffffffffffffffffffffffffffffffffffffffff1614156109fa576040517f08c379a00000000000000000000000000000000000000000000000000000000081526004016109f1906117ee565b60405180910390fd5b600073ffffffffffffffffffffffffffffffffffffffff168273ffffffffffffffffffffffffffffffffffffffff161415610a6a576040517f08c379a0000000000000000000000000000000000000000000000000000000008152600401610a619061172e565b60405180910390fd5b80600160008573ffffffffffffffffffffffffffffffffffffffff1673ffffffffffffffffffffffffffffffffffffffff16815260200190815260200160002060008473ffffffffffffffffffffffffffffffffffffffff1673ffffffffffffffffffffffffffffffffffffffff168152602001908152602001600020819055508173ffffffffffffffffffffffffffffffffffffffff168373ffffffffffffffffffffffffffffffffffffffff167f8c5be1e5ebec7d5bd14f71427d1e84f3dd0314c0f7b2291e5b200ac8c7c3b92583604051610b48919061184e565b60405180910390a3505050565b600073ffffffffffffffffffffffffffffffffffffffff168373ffffffffffffffffffffffffffffffffffffffff161415610bc5576040517f08c379a0000000000000000000000000000000000000000000000000000000008152600401610bbc906117ae565b60405180910390fd5b600073ffffffffffffffffffffffffffffffffffffffff168273ffffffffffffffffffffffffffffffffffffffff161415610c35576040517f08c379a0000000000000000000000000000000000000000000000000000000008152600401610c2c906116ee565b60405180910390fd5b610c4083838361110d565b60008060008573ffffffffffffffffffffffffffffffffffffffff1673ffffffffffffffffffffffffffffffffffffffff16815260200190815260200160002054905081811015610cc6576040517f08c379a0000000000000000000000000000000000000000000000000000000008152600401610cbd9061176e565b60405180910390fd5b8181036000808673ffffffffffffffffffffffffffffffffffffffff1673ffffffffffffffffffffffffffffffffffffffff16815260200190815260200160002081905550816000808573ffffffffffffffffffffffffffffffffffffffff1673ffffffffffffffffffffffffffffffffffffffff1681526020019081526020016000206000828254610d5991906118a0565b925050819055508273ffffffffffffffffffffffffffffffffffffffff168473ffffffffffffffffffffffffffffffffffffffff167fddf252ad1be2c89b69c2b068fc378daa952ba7f163c4a11628f55a4df523b3ef84604051610dbd919061184e565b60405180910390a3610dd0848484611112565b50505050565b600073ffffffffffffffffffffffffffffffffffffffff168273ffffffffffffffffffffffffffffffffffffffff161415610e46576040517f08c379a0000000000000000000000000000000000000000000000000000000008152600401610e3d9061182e565b60405180910390fd5b610e526000838361110d565b8060026000828254610e6491906118a0565b92505081905550806000808473ffffffffffffffffffffffffffffffffffffffff1673ffffffffffffffffffffffffffffffffffffffff1681526020019081526020016000206000828254610eb991906118a0565b925050819055508173ffffffffffffffffffffffffffffffffffffffff16600073ffffffffffffffffffffffffffffffffffffffff167fddf252ad1be2c89b69c2b068fc378daa952ba7f163c4a11628f55a4df523b3ef83604051610f1e919061184e565b60405180910390a3610f3260008383611112565b5050565b600073ffffffffffffffffffffffffffffffffffffffff168273ffffffffffffffffffffffffffffffffffffffff161415610fa6576040517f08c379a0000000000000000000000000000000000000000000000000000000008152600401610f9d9061178e565b60405180910390fd5b610fb28260008361110d565b60008060008473ffffffffffffffffffffffffffffffffffffffff1673ffffffffffffffffffffffffffffffffffffffff16815260200190815260200160002054905081811015611038576040517f08c379a000000000000000000000000000000000000000000000000000000000815260040161102f9061170e565b60405180910390fd5b8181036000808573ffffffffffffffffffffffffffffffffffffffff1673ffffffffffffffffffffffffffffffffffffffff16815260200190815260200160002081905550816002600082825461108f91906118f6565b92505081905550600073ffffffffffffffffffffffffffffffffffffffff168373ffffffffffffffffffffffffffffffffffffffff167fddf252ad1be2c89b69c2b068fc378daa952ba7f163c4a11628f55a4df523b3ef846040516110f4919061184e565b60405180910390a361110883600084611112565b505050565b505050565b505050565b60008135905061112681611a53565b92915050565b60008135905061113b81611a6a565b92915050565b60006020828403121561115357600080fd5b600061116184828501611117565b91505092915050565b6000806040838503121561117d57600080fd5b600061118b85828601611117565b925050602061119c85828601611117565b9150509250929050565b6000806000606084860312156111bb57600080fd5b60006111c986828701611117565b93505060206111da86828701611117565b92505060406111eb8682870161112c565b9150509250925092565b6000806040838503121561120857600080fd5b600061121685828601611117565b92505060206112278582860161112c565b9150509250929050565b61123a8161192a565b82525050565b6112498161193c565b82525050565b600061125a82611884565b611264818561188f565b935061127481856020860161197f565b61127d81611a42565b840191505092915050565b600061129560238361188f565b91507f45524332303a207472616e7366657220746f20746865207a65726f206164647260008301527f65737300000000000000000000000000000000000000000000000000000000006020830152604082019050919050565b60006112fb60228361188f565b91507f45524332303a206275726e20616d6f756e7420657863656564732062616c616e60008301527f63650000000000000000000000000000000000000000000000000000000000006020830152604082019050919050565b600061136160228361188f565b91507f45524332303a20617070726f766520746f20746865207a65726f20616464726560008301527f73730000000000000000000000000000000000000000000000000000000000006020830152604082019050919050565b60006113c7601e8361188f565b91507f45524332303a2062756e20746f20746865207a65726f206164647265737300006000830152602082019050919050565b600061140760268361188f565b91507f45524332303a207472616e7366657220616d6f756e742065786365656473206260008301527f616c616e636500000000000000000000000000000000000000000000000000006020830152604082019050919050565b600061146d60218361188f565b91507f45524332303a206275726e2066726f6d20746865207a65726f2061646472657360008301527f73000000000000000000000000000000000000000000000000000000000000006020830152604082019050919050565b60006114d360258361188f565b91507f45524332303a207472616e736665722066726f6d20746865207a65726f20616460008301527f64726573730000000000000000000000000000000000000000000000000000006020830152604082019050919050565b600061153960098361188f565b91507f4e6f74206f776e657200000000000000000000000000000000000000000000006000830152602082019050919050565b600061157960248361188f565b91507f45524332303a20617070726f76652066726f6d20746865207a65726f2061646460008301527f72657373000000000000000000000000000000000000000000000000000000006020830152604082019050919050565b60006115df60258361188f565b91507f45524332303a2064656372656173656420616c6c6f77616e63652062656c6f7760008301527f207a65726f0000000000000000000000000000000000000000000000000000006020830152604082019050919050565b6000611645601f8361188f565b91507f45524332303a206d696e7420746f20746865207a65726f2061646472657373006000830152602082019050919050565b61168181611968565b82525050565b61169081611972565b82525050565b60006020820190506116ab6000830184611231565b92915050565b60006020820190506116c66000830184611240565b92915050565b600060208201905081810360008301526116e6818461124f565b905092915050565b6000602082019050818103600083015261170781611288565b9050919050565b60006020820190508181036000830152611727816112ee565b9050919050565b6000602082019050818103600083015261174781611354565b9050919050565b60006020820190508181036000830152611767816113ba565b9050919050565b60006020820190508181036000830152611787816113fa565b9050919050565b600060208201905081810360008301526117a781611460565b9050919050565b600060208201905081810360008301526117c7816114c6565b9050919050565b600060208201905081810360008301526117e78161152c565b9050919050565b600060208201905081810360008301526118078161156c565b9050919050565b60006020820190508181036000830152611827816115d2565b9050919050565b6000602082019050818103600083015261184781611638565b9050919050565b60006020820190506118636000830184611678565b92915050565b600060208201905061187e6000830184611687565b92915050565b600081519050919050565b600082825260208201905092915050565b60006118ab82611968565b91506118b683611968565b9250827fffffffffffffffffffffffffffffffffffffffffffffffffffffffffffffffff038211156118eb576118ea6119e4565b5b828201905092915050565b600061190182611968565b915061190c83611968565b92508282101561191f5761191e6119e4565b5b828203905092915050565b600061193582611948565b9050919050565b60008115159050919050565b600073ffffffffffffffffffffffffffffffffffffffff82169050919050565b6000819050919050565b600060ff82169050919050565b60005b8381101561199d578082015181840152602081019050611982565b838111156119ac576000848401525b50505050565b600060028204905060018216806119ca57607f821691505b602082108114156119de576119dd611a13565b5b50919050565b7f4e487b7100000000000000000000000000000000000000000000000000000000600052601160045260246000fd5b7f4e487b7100000000000000000000000000000000000000000000000000000000600052602260045260246000fd5b6000601f19601f8301169050919050565b611a5c8161192a565b8114611a6757600080fd5b50565b611a7381611968565b8114611a7e57600080fd5b5056fea2646970667358221220e661375beb5c5725739f396e6eb32e57e443b379af59938d4b1c3f05620f71c264736f6c634300080000337472616e7366657246726f6d28616464726573732c616464726573732c75696e7432353629a26469706673582212200e44278bf1b0e027d5760d5755e3f8456178acafad62716af1f43465598bd96064736f6c63430008000033a2646970667358221220c2068a4e52082a46f4ae9ecf950b8e8055f07407b18679f08505873c504ac1bb64736f6c63430008000033",
  "linkReferences": {},
  "deployedLinkReferences": {}
}