{
	"data": {
		"bytecode": {
			"linkReferences": {},
			"object": "608060405260006005553480156200001657600080fd5b506040516200270a3803806200270a83398181016040528101906200003c9190620001f5565b336000806101000a81548173ffffffffffffffffffffffffffffffffffffffff021916908373ffffffffffffffffffffffffffffffffffffffff16021790555083600160006101000a81548173ffffffffffffffffffffffffffffffffffffffff021916908373ffffffffffffffffffffffffffffffffffffffff16021790555082600260006101000a81548173ffffffffffffffffffffffffffffffffffffffff021916908373ffffffffffffffffffffffffffffffffffffffff16021790555081600360006101000a81548173ffffffffffffffffffffffffffffffffffffffff021916908373ffffffffffffffffffffffffffffffffffffffff16021790555080600b819055505050505062000267565b600080fd5b600073ffffffffffffffffffffffffffffffffffffffff82169050919050565b6000620001828262000155565b9050919050565b620001948162000175565b8114620001a057600080fd5b50565b600081519050620001b48162000189565b92915050565b6000819050919050565b620001cf81620001ba565b8114620001db57600080fd5b50565b600081519050620001ef81620001c4565b92915050565b6000806000806080858703121562000212576200021162000150565b5b60006200022287828801620001a3565b94505060206200023587828801620001a3565b93505060406200024887828801620001a3565b92505060606200025b87828801620001de565b91505092959194509250565b61249380620002776000396000f3fe608060405234801561001057600080fd5b50600436106100cf5760003560e01c806377619ac51161008c578063a0a986f111610066578063a0a986f114610206578063b4f40c6114610224578063d21220a714610242578063db5159a214610260576100cf565b806377619ac5146101885780638f402b56146101b85780639ba613a8146101d6576100cf565b80630dfe1681146100d457806318160ddd146100f2578063313c06a014610110578063443cb4bc1461012e5780635a76f25e1461014c5780636caf25ce1461016a575b600080fd5b6100dc610290565b6040516100e99190611968565b60405180910390f35b6100fa6102b6565b604051610107919061199c565b60405180910390f35b6101186102bc565b6040516101259190611968565b60405180910390f35b6101366102e2565b604051610143919061199c565b60405180910390f35b6101546102e8565b604051610161919061199c565b60405180910390f35b6101726102ee565b60405161017f919061199c565b60405180910390f35b6101a2600480360381019061019d9190611a14565b6102f4565b6040516101af9190611a96565b60405180910390f35b6101c061083b565b6040516101cd919061199c565b60405180910390f35b6101f060048036038101906101eb9190611ab1565b610840565b6040516101fd9190611a96565b60405180910390f35b61020e610cbb565b60405161021b919061199c565b60405180910390f35b61022c610cc1565b604051610239919061199c565b60405180910390f35b61024a610cc7565b6040516102579190611968565b60405180910390f35b61027a60048036038101906102759190611b2c565b610ced565b6040516102879190611a96565b60405180910390f35b600160009054906101000a900473ffffffffffffffffffffffffffffffffffffffff1681565b600a5481565b600360009054906101000a900473ffffffffffffffffffffffffffffffffffffffff1681565b60065481565b60075481565b60095481565b600080600061030161106b565b91509150600160009054906101000a900473ffffffffffffffffffffffffffffffffffffffff1673ffffffffffffffffffffffffffffffffffffffff168773ffffffffffffffffffffffffffffffffffffffff161480156103af5750600260009054906101000a900473ffffffffffffffffffffffffffffffffffffffff1673ffffffffffffffffffffffffffffffffffffffff168673ffffffffffffffffffffffffffffffffffffffff16145b6103ee576040517f08c379a00000000000000000000000000000000000000000000000000000000081526004016103e590611c16565b60405180910390fd5b838514610430576040517f08c379a000000000000000000000000000000000000000000000000000000000815260040161042790611c82565b60405180910390fd5b61043c8733308861107c565b6104488633308761107c565b60008773ffffffffffffffffffffffffffffffffffffffff166370a08231306040518263ffffffff1660e01b81526004016104839190611968565b602060405180830381865afa1580156104a0573d6000803e3d6000fd5b505050506040513d601f19601f820116820180604052508101906104c49190611cb7565b905060008773ffffffffffffffffffffffffffffffffffffffff166370a08231306040518263ffffffff1660e01b81526004016105019190611968565b602060405180830381865afa15801561051e573d6000803e3d6000fd5b505050506040513d601f19601f820116820180604052508101906105429190611cb7565b9050600080600a540361060757610585606485846105609190611d13565b878661056c9190611d13565b6105769190611d47565b6105809190611d13565b6111f2565b9050600081116105ca576040517f08c379a00000000000000000000000000000000000000000000000000000000081526004016105c190611ded565b60405180910390fd5b6105f7600360009054906101000a900473ffffffffffffffffffffffffffffffffffffffff16338361126c565b6106018a8a6113f6565b506106ca565b61065785600a54878661061a9190611d13565b6106249190611d47565b61062e9190611e3c565b85600a54878661063e9190611d13565b6106489190611d47565b6106529190611e3c565b611525565b90506000811161069c576040517f08c379a000000000000000000000000000000000000000000000000000000000815260040161069390611ded565b60405180910390fd5b6106c9600360009054906101000a900473ffffffffffffffffffffffffffffffffffffffff16338361126c565b5b80600a60008282546106dc9190611e6d565b9250508190555060008a73ffffffffffffffffffffffffffffffffffffffff166370a08231306040518263ffffffff1660e01b815260040161071e9190611968565b602060405180830381865afa15801561073b573d6000803e3d6000fd5b505050506040513d601f19601f8201168201806040525081019061075f9190611cb7565b905060008a73ffffffffffffffffffffffffffffffffffffffff166370a08231306040518263ffffffff1660e01b815260040161079c9190611968565b602060405180830381865afa1580156107b9573d6000803e3d6000fd5b505050506040513d601f19601f820116820180604052508101906107dd9190611cb7565b90506107eb8c8c848461153e565b7fd2491a9b4fe81a7cd4511e8b7b7743951b061dad5bed7da8a7795b080ee08c7e8c8c8c8c6040516108209493929190611ec3565b60405180910390a16001975050505050505050949350505050565b606481565b600080600061084d61106b565b91509150600160009054906101000a900473ffffffffffffffffffffffffffffffffffffffff1673ffffffffffffffffffffffffffffffffffffffff168873ffffffffffffffffffffffffffffffffffffffff161480156108fb5750600260009054906101000a900473ffffffffffffffffffffffffffffffffffffffff1673ffffffffffffffffffffffffffffffffffffffff168773ffffffffffffffffffffffffffffffffffffffff16145b61093a576040517f08c379a000000000000000000000000000000000000000000000000000000000815260040161093190611c16565b60405180910390fd5b60008511806109495750600084115b610988576040517f08c379a000000000000000000000000000000000000000000000000000000000815260040161097f90611f54565b60405180910390fd5b60008514806109975750600084145b6109d6576040517f08c379a00000000000000000000000000000000000000000000000000000000081526004016109cd90611f54565b60405180910390fd5b8773ffffffffffffffffffffffffffffffffffffffff168673ffffffffffffffffffffffffffffffffffffffff1614158015610a3e57508673ffffffffffffffffffffffffffffffffffffffff168673ffffffffffffffffffffffffffffffffffffffff1614155b610a7d576040517f08c379a0000000000000000000000000000000000000000000000000000000008152600401610a7490611c16565b60405180910390fd5b60006103e8600b5487610a909190611d47565b610a9a9190611e3c565b905060006103e8600b5487610aaf9190611d47565b610ab99190611e3c565b9050600087118015610acb5750600086145b15610b0e57610b02893330620f4240600854878d610ae99190611e6d565b610af39190611d47565b610afd9190611e3c565b61107c565b610b0d8a8989611667565b5b600086118015610b1e5750600087145b15610b6157610b558a3330620f4240600954868c610b3c9190611e6d565b610b469190611d47565b610b509190611e3c565b61107c565b610b60898988611667565b5b60008a73ffffffffffffffffffffffffffffffffffffffff166370a08231306040518263ffffffff1660e01b8152600401610b9c9190611968565b602060405180830381865afa158015610bb9573d6000803e3d6000fd5b505050506040513d601f19601f82011682018060405250810190610bdd9190611cb7565b905060008a73ffffffffffffffffffffffffffffffffffffffff166370a08231306040518263ffffffff1660e01b8152600401610c1a9190611968565b602060405180830381865afa158015610c37573d6000803e3d6000fd5b505050506040513d601f19601f82011682018060405250810190610c5b9190611cb7565b9050610c698c8c848461153e565b7f3070708cdb5d7d3931be8443f49f7ec529e2bbe770b676e3c0cc40e158c5d0398c8c8c8c8c604051610ca0959493929190611f74565b60405180910390a16001965050505050505095945050505050565b60085481565b60045481565b600260009054906101000a900473ffffffffffffffffffffffffffffffffffffffff1681565b6000806000610cfa61106b565b91509150600160009054906101000a900473ffffffffffffffffffffffffffffffffffffffff1673ffffffffffffffffffffffffffffffffffffffff168973ffffffffffffffffffffffffffffffffffffffff16148015610da85750600260009054906101000a900473ffffffffffffffffffffffffffffffffffffffff1673ffffffffffffffffffffffffffffffffffffffff168873ffffffffffffffffffffffffffffffffffffffff16145b610de7576040517f08c379a0000000000000000000000000000000000000000000000000000000008152600401610dde90611c16565b60405180910390fd5b838514610e29576040517f08c379a0000000000000000000000000000000000000000000000000000000008152600401610e2090611c82565b60405180910390fd5b6000600a548388610e3a9190611d47565b610e449190611e3c565b90506000600a548389610e579190611d47565b610e619190611e3c565b9050600082118015610e735750600081115b610eb2576040517f08c379a0000000000000000000000000000000000000000000000000000000008152600401610ea990612013565b60405180910390fd5b610edf600360009054906101000a900473ffffffffffffffffffffffffffffffffffffffff168a8a61179d565b610eeb8b308b8561107c565b610ef78a308b8461107c565b87600a6000828254610f099190611d13565b9250508190555060008b73ffffffffffffffffffffffffffffffffffffffff166370a08231306040518263ffffffff1660e01b8152600401610f4b9190611968565b602060405180830381865afa158015610f68573d6000803e3d6000fd5b505050506040513d601f19601f82011682018060405250810190610f8c9190611cb7565b905060008b73ffffffffffffffffffffffffffffffffffffffff166370a08231306040518263ffffffff1660e01b8152600401610fc99190611968565b602060405180830381865afa158015610fe6573d6000803e3d6000fd5b505050506040513d601f19601f8201168201806040525081019061100a9190611cb7565b90506110188d8d848461153e565b7f95b8fe9ba38a505097b9341887de8716d6f3f3ba79ef0ecc02f35ad6e30585d68d8d88888e60405161104f959493929190612033565b60405180910390a1600196505050505050509695505050505050565b600080600654915060075490509091565b6000604051806060016040528060258152602001612439602591398051906020012090506000808673ffffffffffffffffffffffffffffffffffffffff16838787876040516024016110d093929190612086565b604051602081830303815290604052907bffffffffffffffffffffffffffffffffffffffffffffffffffffffff19166020820180517bffffffffffffffffffffffffffffffffffffffffffffffffffffffff838183161783525050505060405161113a9190612137565b6000604051808303816000865af19150503d8060008114611177576040519150601f19603f3d011682016040523d82523d6000602084013e61117c565b606091505b50915091508180156111aa57506000815114806111a95750808060200190518101906111a8919061217a565b5b5b6111e9576040517f08c379a00000000000000000000000000000000000000000000000000000000081526004016111e090612219565b60405180910390fd5b50505050505050565b6000600382111561125957819050600060016002846112119190611e3c565b61121b9190611e6d565b90505b818110156112535780915060028182856112389190611e3c565b6112429190611e6d565b61124c9190611e3c565b905061121e565b50611267565b6000821461126657600190505b5b919050565b6000808473ffffffffffffffffffffffffffffffffffffffff166040518060400160405280601581526020017f6d696e7428616464726573732c75696e743235362900000000000000000000008152508051906020012085856040516024016112d6929190612239565b604051602081830303815290604052907bffffffffffffffffffffffffffffffffffffffffffffffffffffffff19166020820180517bffffffffffffffffffffffffffffffffffffffffffffffffffffffff83818316178352505050506040516113409190612137565b6000604051808303816000865af19150503d806000811461137d576040519150601f19603f3d011682016040523d82523d6000602084013e611382565b606091505b50915091508180156113b057506000815114806113af5750808060200190518101906113ae919061217a565b5b5b6113ef576040517f08c379a00000000000000000000000000000000000000000000000000000000081526004016113e6906122ae565b60405180910390fd5b5050505050565b6000808373ffffffffffffffffffffffffffffffffffffffff166370a08231306040518263ffffffff1660e01b81526004016114329190611968565b602060405180830381865afa15801561144f573d6000803e3d6000fd5b505050506040513d601f19601f820116820180604052508101906114739190611cb7565b905060008373ffffffffffffffffffffffffffffffffffffffff166370a08231306040518263ffffffff1660e01b81526004016114b09190611968565b602060405180830381865afa1580156114cd573d6000803e3d6000fd5b505050506040513d601f19601f820116820180604052508101906114f19190611cb7565b90506000600554036115185780826115099190611d47565b60048190555060016005819055505b6004549250505092915050565b60008183106115345781611536565b825b905092915050565b60008210158015611550575060008110155b61158f576040517f08c379a00000000000000000000000000000000000000000000000000000000081526004016115869061231a565b60405180910390fd5b600082141580156115a1575060008114155b156115eb5781620f4240826115b69190611d47565b6115c09190611e3c565b60088190555080620f4240836115d69190611d47565b6115e09190611e3c565b600981905550611612565b6000821480156115fb5750600081145b1561161157600060088190555060006009819055505b5b81600681905550806007819055507fd4bde8444971b7416b5f51c90f544d2fe2d0c1edddd83bd5fe8646179341dc9984846006546007546040516116599493929190611ec3565b60405180910390a150505050565b6000808473ffffffffffffffffffffffffffffffffffffffff1663a9059cbb8585604051602401611699929190612239565b6040516020818303038152906040529060e01b6020820180517bffffffffffffffffffffffffffffffffffffffffffffffffffffffff83818316178352505050506040516116e79190612137565b6000604051808303816000865af19150503d8060008114611724576040519150601f19603f3d011682016040523d82523d6000602084013e611729565b606091505b50915091508180156117575750600081511480611756575080806020019051810190611755919061217a565b5b5b611796576040517f08c379a000000000000000000000000000000000000000000000000000000000815260040161178d906123ac565b60405180910390fd5b5050505050565b6000808473ffffffffffffffffffffffffffffffffffffffff166040518060400160405280601581526020017f6275726e28616464726573732c75696e74323536290000000000000000000000815250805190602001208585604051602401611807929190612239565b604051602081830303815290604052907bffffffffffffffffffffffffffffffffffffffffffffffffffffffff19166020820180517bffffffffffffffffffffffffffffffffffffffffffffffffffffffff83818316178352505050506040516118719190612137565b6000604051808303816000865af19150503d80600081146118ae576040519150601f19603f3d011682016040523d82523d6000602084013e6118b3565b606091505b50915091508180156118e157506000815114806118e05750808060200190518101906118df919061217a565b5b5b611920576040517f08c379a000000000000000000000000000000000000000000000000000000000815260040161191790612418565b60405180910390fd5b5050505050565b600073ffffffffffffffffffffffffffffffffffffffff82169050919050565b600061195282611927565b9050919050565b61196281611947565b82525050565b600060208201905061197d6000830184611959565b92915050565b6000819050919050565b61199681611983565b82525050565b60006020820190506119b1600083018461198d565b92915050565b600080fd5b6119c581611947565b81146119d057600080fd5b50565b6000813590506119e2816119bc565b92915050565b6119f181611983565b81146119fc57600080fd5b50565b600081359050611a0e816119e8565b92915050565b60008060008060808587031215611a2e57611a2d6119b7565b5b6000611a3c878288016119d3565b9450506020611a4d878288016119d3565b9350506040611a5e878288016119ff565b9250506060611a6f878288016119ff565b91505092959194509250565b60008115159050919050565b611a9081611a7b565b82525050565b6000602082019050611aab6000830184611a87565b92915050565b600080600080600060a08688031215611acd57611acc6119b7565b5b6000611adb888289016119d3565b9550506020611aec888289016119d3565b9450506040611afd888289016119d3565b9350506060611b0e888289016119ff565b9250506080611b1f888289016119ff565b9150509295509295909350565b60008060008060008060c08789031215611b4957611b486119b7565b5b6000611b5789828a016119d3565b9650506020611b6889828a016119d3565b9550506040611b7989828a016119d3565b9450506060611b8a89828a016119ff565b9350506080611b9b89828a016119ff565b92505060a0611bac89828a016119ff565b9150509295509295509295565b600082825260208201905092915050565b7f4e6f742075736564206164647265737300000000000000000000000000000000600082015250565b6000611c00601083611bb9565b9150611c0b82611bca565b602082019050919050565b60006020820190508181036000830152611c2f81611bf3565b9050919050565b7f4e6f7420657175616c0000000000000000000000000000000000000000000000600082015250565b6000611c6c600983611bb9565b9150611c7782611c36565b602082019050919050565b60006020820190508181036000830152611c9b81611c5f565b9050919050565b600081519050611cb1816119e8565b92915050565b600060208284031215611ccd57611ccc6119b7565b5b6000611cdb84828501611ca2565b91505092915050565b7f4e487b7100000000000000000000000000000000000000000000000000000000600052601160045260246000fd5b6000611d1e82611983565b9150611d2983611983565b925082821015611d3c57611d3b611ce4565b5b828203905092915050565b6000611d5282611983565b9150611d5d83611983565b9250817fffffffffffffffffffffffffffffffffffffffffffffffffffffffffffffffff0483118215151615611d9657611d95611ce4565b5b828202905092915050565b7f4d696e7573206c69717569646974790000000000000000000000000000000000600082015250565b6000611dd7600f83611bb9565b9150611de282611da1565b602082019050919050565b60006020820190508181036000830152611e0681611dca565b9050919050565b7f4e487b7100000000000000000000000000000000000000000000000000000000600052601260045260246000fd5b6000611e4782611983565b9150611e5283611983565b925082611e6257611e61611e0d565b5b828204905092915050565b6000611e7882611983565b9150611e8383611983565b9250827fffffffffffffffffffffffffffffffffffffffffffffffffffffffffffffffff03821115611eb857611eb7611ce4565b5b828201905092915050565b6000608082019050611ed86000830187611959565b611ee56020830186611959565b611ef2604083018561198d565b611eff606083018461198d565b95945050505050565b7f5a65726f20616d6f756e74000000000000000000000000000000000000000000600082015250565b6000611f3e600b83611bb9565b9150611f4982611f08565b602082019050919050565b60006020820190508181036000830152611f6d81611f31565b9050919050565b600060a082019050611f896000830188611959565b611f966020830187611959565b611fa36040830186611959565b611fb0606083018561198d565b611fbd608083018461198d565b9695505050505050565b7f4d696e757320616d6f756e740000000000000000000000000000000000000000600082015250565b6000611ffd600c83611bb9565b915061200882611fc7565b602082019050919050565b6000602082019050818103600083015261202c81611ff0565b9050919050565b600060a0820190506120486000830188611959565b6120556020830187611959565b612062604083018661198d565b61206f606083018561198d565b61207c608083018461198d565b9695505050505050565b600060608201905061209b6000830186611959565b6120a86020830185611959565b6120b5604083018461198d565b949350505050565b600081519050919050565b600081905092915050565b60005b838110156120f15780820151818401526020810190506120d6565b83811115612100576000848401525b50505050565b6000612111826120bd565b61211b81856120c8565b935061212b8185602086016120d3565b80840191505092915050565b60006121438284612106565b915081905092915050565b61215781611a7b565b811461216257600080fd5b50565b6000815190506121748161214e565b92915050565b6000602082840312156121905761218f6119b7565b5b600061219e84828501612165565b91505092915050565b7f5472616e7366657248656c7065723a3a7472616e7366657246726f6d3a20747260008201527f616e7366657246726f6d206661696c6564000000000000000000000000000000602082015250565b6000612203603183611bb9565b915061220e826121a7565b604082019050919050565b60006020820190508181036000830152612232816121f6565b9050919050565b600060408201905061224e6000830185611959565b61225b602083018461198d565b9392505050565b7f4641494c4544204d696e74000000000000000000000000000000000000000000600082015250565b6000612298600b83611bb9565b91506122a382612262565b602082019050919050565b600060208201905081810360008301526122c78161228b565b9050919050565b7f30206e756d626572000000000000000000000000000000000000000000000000600082015250565b6000612304600883611bb9565b915061230f826122ce565b602082019050919050565b60006020820190508181036000830152612333816122f7565b9050919050565b7f5472616e7366657248656c7065723a3a736166655472616e736665723a20747260008201527f616e73666572206661696c656400000000000000000000000000000000000000602082015250565b6000612396602d83611bb9565b91506123a18261233a565b604082019050919050565b600060208201905081810360008301526123c581612389565b9050919050565b7f4641494c4544204275726e000000000000000000000000000000000000000000600082015250565b6000612402600b83611bb9565b915061240d826123cc565b602082019050919050565b60006020820190508181036000830152612431816123f5565b905091905056fe7472616e7366657246726f6d28616464726573732c616464726573732c75696e7432353629a2646970667358221220c0ccb7f074b9c03a4e23b4798ed10466a6d542d7919fcd22bf7cd31ce3daa20c64736f6c634300080f0033",
			"opcodes": "PUSH1 0x80 PUSH1 0x40 MSTORE PUSH1 0x0 PUSH1 0x5 SSTORE CALLVALUE DUP1 ISZERO PUSH3 0x16 JUMPI PUSH1 0x0 DUP1 REVERT JUMPDEST POP PUSH1 0x40 MLOAD PUSH3 0x270A CODESIZE SUB DUP1 PUSH3 0x270A DUP4 CODECOPY DUP2 DUP2 ADD PUSH1 0x40 MSTORE DUP2 ADD SWAP1 PUSH3 0x3C SWAP2 SWAP1 PUSH3 0x1F5 JUMP JUMPDEST CALLER PUSH1 0x0 DUP1 PUSH2 0x100 EXP DUP2 SLOAD DUP2 PUSH20 0xFFFFFFFFFFFFFFFFFFFFFFFFFFFFFFFFFFFFFFFF MUL NOT AND SWAP1 DUP4 PUSH20 0xFFFFFFFFFFFFFFFFFFFFFFFFFFFFFFFFFFFFFFFF AND MUL OR SWAP1 SSTORE POP DUP4 PUSH1 0x1 PUSH1 0x0 PUSH2 0x100 EXP DUP2 SLOAD DUP2 PUSH20 0xFFFFFFFFFFFFFFFFFFFFFFFFFFFFFFFFFFFFFFFF MUL NOT AND SWAP1 DUP4 PUSH20 0xFFFFFFFFFFFFFFFFFFFFFFFFFFFFFFFFFFFFFFFF AND MUL OR SWAP1 SSTORE POP DUP3 PUSH1 0x2 PUSH1 0x0 PUSH2 0x100 EXP DUP2 SLOAD DUP2 PUSH20 0xFFFFFFFFFFFFFFFFFFFFFFFFFFFFFFFFFFFFFFFF MUL NOT AND SWAP1 DUP4 PUSH20 0xFFFFFFFFFFFFFFFFFFFFFFFFFFFFFFFFFFFFFFFF AND MUL OR SWAP1 SSTORE POP DUP2 PUSH1 0x3 PUSH1 0x0 PUSH2 0x100 EXP DUP2 SLOAD DUP2 PUSH20 0xFFFFFFFFFFFFFFFFFFFFFFFFFFFFFFFFFFFFFFFF MUL NOT AND SWAP1 DUP4 PUSH20 0xFFFFFFFFFFFFFFFFFFFFFFFFFFFFFFFFFFFFFFFF AND MUL OR SWAP1 SSTORE POP DUP1 PUSH1 0xB DUP2 SWAP1 SSTORE POP POP POP POP POP PUSH3 0x267 JUMP JUMPDEST PUSH1 0x0 DUP1 REVERT JUMPDEST PUSH1 0x0 PUSH20 0xFFFFFFFFFFFFFFFFFFFFFFFFFFFFFFFFFFFFFFFF DUP3 AND SWAP1 POP SWAP2 SWAP1 POP JUMP JUMPDEST PUSH1 0x0 PUSH3 0x182 DUP3 PUSH3 0x155 JUMP JUMPDEST SWAP1 POP SWAP2 SWAP1 POP JUMP JUMPDEST PUSH3 0x194 DUP2 PUSH3 0x175 JUMP JUMPDEST DUP2 EQ PUSH3 0x1A0 JUMPI PUSH1 0x0 DUP1 REVERT JUMPDEST POP JUMP JUMPDEST PUSH1 0x0 DUP2 MLOAD SWAP1 POP PUSH3 0x1B4 DUP2 PUSH3 0x189 JUMP JUMPDEST SWAP3 SWAP2 POP POP JUMP JUMPDEST PUSH1 0x0 DUP2 SWAP1 POP SWAP2 SWAP1 POP JUMP JUMPDEST PUSH3 0x1CF DUP2 PUSH3 0x1BA JUMP JUMPDEST DUP2 EQ PUSH3 0x1DB JUMPI PUSH1 0x0 DUP1 REVERT JUMPDEST POP JUMP JUMPDEST PUSH1 0x0 DUP2 MLOAD SWAP1 POP PUSH3 0x1EF DUP2 PUSH3 0x1C4 JUMP JUMPDEST SWAP3 SWAP2 POP POP JUMP JUMPDEST PUSH1 0x0 DUP1 PUSH1 0x0 DUP1 PUSH1 0x80 DUP6 DUP8 SUB SLT ISZERO PUSH3 0x212 JUMPI PUSH3 0x211 PUSH3 0x150 JUMP JUMPDEST JUMPDEST PUSH1 0x0 PUSH3 0x222 DUP8 DUP3 DUP9 ADD PUSH3 0x1A3 JUMP JUMPDEST SWAP5 POP POP PUSH1 0x20 PUSH3 0x235 DUP8 DUP3 DUP9 ADD PUSH3 0x1A3 JUMP JUMPDEST SWAP4 POP POP PUSH1 0x40 PUSH3 0x248 DUP8 DUP3 DUP9 ADD PUSH3 0x1A3 JUMP JUMPDEST SWAP3 POP POP PUSH1 0x60 PUSH3 0x25B DUP8 DUP3 DUP9 ADD PUSH3 0x1DE JUMP JUMPDEST SWAP2 POP POP SWAP3 SWAP6 SWAP2 SWAP5 POP SWAP3 POP JUMP JUMPDEST PUSH2 0x2493 DUP1 PUSH3 0x277 PUSH1 0x0 CODECOPY PUSH1 0x0 RETURN INVALID PUSH1 0x80 PUSH1 0x40 MSTORE CALLVALUE DUP1 ISZERO PUSH2 0x10 JUMPI PUSH1 0x0 DUP1 REVERT JUMPDEST POP PUSH1 0x4 CALLDATASIZE LT PUSH2 0xCF JUMPI PUSH1 0x0 CALLDATALOAD PUSH1 0xE0 SHR DUP1 PUSH4 0x77619AC5 GT PUSH2 0x8C JUMPI DUP1 PUSH4 0xA0A986F1 GT PUSH2 0x66 JUMPI DUP1 PUSH4 0xA0A986F1 EQ PUSH2 0x206 JUMPI DUP1 PUSH4 0xB4F40C61 EQ PUSH2 0x224 JUMPI DUP1 PUSH4 0xD21220A7 EQ PUSH2 0x242 JUMPI DUP1 PUSH4 0xDB5159A2 EQ PUSH2 0x260 JUMPI PUSH2 0xCF JUMP JUMPDEST DUP1 PUSH4 0x77619AC5 EQ PUSH2 0x188 JUMPI DUP1 PUSH4 0x8F402B56 EQ PUSH2 0x1B8 JUMPI DUP1 PUSH4 0x9BA613A8 EQ PUSH2 0x1D6 JUMPI PUSH2 0xCF JUMP JUMPDEST DUP1 PUSH4 0xDFE1681 EQ PUSH2 0xD4 JUMPI DUP1 PUSH4 0x18160DDD EQ PUSH2 0xF2 JUMPI DUP1 PUSH4 0x313C06A0 EQ PUSH2 0x110 JUMPI DUP1 PUSH4 0x443CB4BC EQ PUSH2 0x12E JUMPI DUP1 PUSH4 0x5A76F25E EQ PUSH2 0x14C JUMPI DUP1 PUSH4 0x6CAF25CE EQ PUSH2 0x16A JUMPI JUMPDEST PUSH1 0x0 DUP1 REVERT JUMPDEST PUSH2 0xDC PUSH2 0x290 JUMP JUMPDEST PUSH1 0x40 MLOAD PUSH2 0xE9 SWAP2 SWAP1 PUSH2 0x1968 JUMP JUMPDEST PUSH1 0x40 MLOAD DUP1 SWAP2 SUB SWAP1 RETURN JUMPDEST PUSH2 0xFA PUSH2 0x2B6 JUMP JUMPDEST PUSH1 0x40 MLOAD PUSH2 0x107 SWAP2 SWAP1 PUSH2 0x199C JUMP JUMPDEST PUSH1 0x40 MLOAD DUP1 SWAP2 SUB SWAP1 RETURN JUMPDEST PUSH2 0x118 PUSH2 0x2BC JUMP JUMPDEST PUSH1 0x40 MLOAD PUSH2 0x125 SWAP2 SWAP1 PUSH2 0x1968 JUMP JUMPDEST PUSH1 0x40 MLOAD DUP1 SWAP2 SUB SWAP1 RETURN JUMPDEST PUSH2 0x136 PUSH2 0x2E2 JUMP JUMPDEST PUSH1 0x40 MLOAD PUSH2 0x143 SWAP2 SWAP1 PUSH2 0x199C JUMP JUMPDEST PUSH1 0x40 MLOAD DUP1 SWAP2 SUB SWAP1 RETURN JUMPDEST PUSH2 0x154 PUSH2 0x2E8 JUMP JUMPDEST PUSH1 0x40 MLOAD PUSH2 0x161 SWAP2 SWAP1 PUSH2 0x199C JUMP JUMPDEST PUSH1 0x40 MLOAD DUP1 SWAP2 SUB SWAP1 RETURN JUMPDEST PUSH2 0x172 PUSH2 0x2EE JUMP JUMPDEST PUSH1 0x40 MLOAD PUSH2 0x17F SWAP2 SWAP1 PUSH2 0x199C JUMP JUMPDEST PUSH1 0x40 MLOAD DUP1 SWAP2 SUB SWAP1 RETURN JUMPDEST PUSH2 0x1A2 PUSH1 0x4 DUP1 CALLDATASIZE SUB DUP2 ADD SWAP1 PUSH2 0x19D SWAP2 SWAP1 PUSH2 0x1A14 JUMP JUMPDEST PUSH2 0x2F4 JUMP JUMPDEST PUSH1 0x40 MLOAD PUSH2 0x1AF SWAP2 SWAP1 PUSH2 0x1A96 JUMP JUMPDEST PUSH1 0x40 MLOAD DUP1 SWAP2 SUB SWAP1 RETURN JUMPDEST PUSH2 0x1C0 PUSH2 0x83B JUMP JUMPDEST PUSH1 0x40 MLOAD PUSH2 0x1CD SWAP2 SWAP1 PUSH2 0x199C JUMP JUMPDEST PUSH1 0x40 MLOAD DUP1 SWAP2 SUB SWAP1 RETURN JUMPDEST PUSH2 0x1F0 PUSH1 0x4 DUP1 CALLDATASIZE SUB DUP2 ADD SWAP1 PUSH2 0x1EB SWAP2 SWAP1 PUSH2 0x1AB1 JUMP JUMPDEST PUSH2 0x840 JUMP JUMPDEST PUSH1 0x40 MLOAD PUSH2 0x1FD SWAP2 SWAP1 PUSH2 0x1A96 JUMP JUMPDEST PUSH1 0x40 MLOAD DUP1 SWAP2 SUB SWAP1 RETURN JUMPDEST PUSH2 0x20E PUSH2 0xCBB JUMP JUMPDEST PUSH1 0x40 MLOAD PUSH2 0x21B SWAP2 SWAP1 PUSH2 0x199C JUMP JUMPDEST PUSH1 0x40 MLOAD DUP1 SWAP2 SUB SWAP1 RETURN JUMPDEST PUSH2 0x22C PUSH2 0xCC1 JUMP JUMPDEST PUSH1 0x40 MLOAD PUSH2 0x239 SWAP2 SWAP1 PUSH2 0x199C JUMP JUMPDEST PUSH1 0x40 MLOAD DUP1 SWAP2 SUB SWAP1 RETURN JUMPDEST PUSH2 0x24A PUSH2 0xCC7 JUMP JUMPDEST PUSH1 0x40 MLOAD PUSH2 0x257 SWAP2 SWAP1 PUSH2 0x1968 JUMP JUMPDEST PUSH1 0x40 MLOAD DUP1 SWAP2 SUB SWAP1 RETURN JUMPDEST PUSH2 0x27A PUSH1 0x4 DUP1 CALLDATASIZE SUB DUP2 ADD SWAP1 PUSH2 0x275 SWAP2 SWAP1 PUSH2 0x1B2C JUMP JUMPDEST PUSH2 0xCED JUMP JUMPDEST PUSH1 0x40 MLOAD PUSH2 0x287 SWAP2 SWAP1 PUSH2 0x1A96 JUMP JUMPDEST PUSH1 0x40 MLOAD DUP1 SWAP2 SUB SWAP1 RETURN JUMPDEST PUSH1 0x1 PUSH1 0x0 SWAP1 SLOAD SWAP1 PUSH2 0x100 EXP SWAP1 DIV PUSH20 0xFFFFFFFFFFFFFFFFFFFFFFFFFFFFFFFFFFFFFFFF AND DUP2 JUMP JUMPDEST PUSH1 0xA SLOAD DUP2 JUMP JUMPDEST PUSH1 0x3 PUSH1 0x0 SWAP1 SLOAD SWAP1 PUSH2 0x100 EXP SWAP1 DIV PUSH20 0xFFFFFFFFFFFFFFFFFFFFFFFFFFFFFFFFFFFFFFFF AND DUP2 JUMP JUMPDEST PUSH1 0x6 SLOAD DUP2 JUMP JUMPDEST PUSH1 0x7 SLOAD DUP2 JUMP JUMPDEST PUSH1 0x9 SLOAD DUP2 JUMP JUMPDEST PUSH1 0x0 DUP1 PUSH1 0x0 PUSH2 0x301 PUSH2 0x106B JUMP JUMPDEST SWAP2 POP SWAP2 POP PUSH1 0x1 PUSH1 0x0 SWAP1 SLOAD SWAP1 PUSH2 0x100 EXP SWAP1 DIV PUSH20 0xFFFFFFFFFFFFFFFFFFFFFFFFFFFFFFFFFFFFFFFF AND PUSH20 0xFFFFFFFFFFFFFFFFFFFFFFFFFFFFFFFFFFFFFFFF AND DUP8 PUSH20 0xFFFFFFFFFFFFFFFFFFFFFFFFFFFFFFFFFFFFFFFF AND EQ DUP1 ISZERO PUSH2 0x3AF JUMPI POP PUSH1 0x2 PUSH1 0x0 SWAP1 SLOAD SWAP1 PUSH2 0x100 EXP SWAP1 DIV PUSH20 0xFFFFFFFFFFFFFFFFFFFFFFFFFFFFFFFFFFFFFFFF AND PUSH20 0xFFFFFFFFFFFFFFFFFFFFFFFFFFFFFFFFFFFFFFFF AND DUP7 PUSH20 0xFFFFFFFFFFFFFFFFFFFFFFFFFFFFFFFFFFFFFFFF AND EQ JUMPDEST PUSH2 0x3EE JUMPI PUSH1 0x40 MLOAD PUSH32 0x8C379A000000000000000000000000000000000000000000000000000000000 DUP2 MSTORE PUSH1 0x4 ADD PUSH2 0x3E5 SWAP1 PUSH2 0x1C16 JUMP JUMPDEST PUSH1 0x40 MLOAD DUP1 SWAP2 SUB SWAP1 REVERT JUMPDEST DUP4 DUP6 EQ PUSH2 0x430 JUMPI PUSH1 0x40 MLOAD PUSH32 0x8C379A000000000000000000000000000000000000000000000000000000000 DUP2 MSTORE PUSH1 0x4 ADD PUSH2 0x427 SWAP1 PUSH2 0x1C82 JUMP JUMPDEST PUSH1 0x40 MLOAD DUP1 SWAP2 SUB SWAP1 REVERT JUMPDEST PUSH2 0x43C DUP8 CALLER ADDRESS DUP9 PUSH2 0x107C JUMP JUMPDEST PUSH2 0x448 DUP7 CALLER ADDRESS DUP8 PUSH2 0x107C JUMP JUMPDEST PUSH1 0x0 DUP8 PUSH20 0xFFFFFFFFFFFFFFFFFFFFFFFFFFFFFFFFFFFFFFFF AND PUSH4 0x70A08231 ADDRESS PUSH1 0x40 MLOAD DUP3 PUSH4 0xFFFFFFFF AND PUSH1 0xE0 SHL DUP2 MSTORE PUSH1 0x4 ADD PUSH2 0x483 SWAP2 SWAP1 PUSH2 0x1968 JUMP JUMPDEST PUSH1 0x20 PUSH1 0x40 MLOAD DUP1 DUP4 SUB DUP2 DUP7 GAS STATICCALL ISZERO DUP1 ISZERO PUSH2 0x4A0 JUMPI RETURNDATASIZE PUSH1 0x0 DUP1 RETURNDATACOPY RETURNDATASIZE PUSH1 0x0 REVERT JUMPDEST POP POP POP POP PUSH1 0x40 MLOAD RETURNDATASIZE PUSH1 0x1F NOT PUSH1 0x1F DUP3 ADD AND DUP3 ADD DUP1 PUSH1 0x40 MSTORE POP DUP2 ADD SWAP1 PUSH2 0x4C4 SWAP2 SWAP1 PUSH2 0x1CB7 JUMP JUMPDEST SWAP1 POP PUSH1 0x0 DUP8 PUSH20 0xFFFFFFFFFFFFFFFFFFFFFFFFFFFFFFFFFFFFFFFF AND PUSH4 0x70A08231 ADDRESS PUSH1 0x40 MLOAD DUP3 PUSH4 0xFFFFFFFF AND PUSH1 0xE0 SHL DUP2 MSTORE PUSH1 0x4 ADD PUSH2 0x501 SWAP2 SWAP1 PUSH2 0x1968 JUMP JUMPDEST PUSH1 0x20 PUSH1 0x40 MLOAD DUP1 DUP4 SUB DUP2 DUP7 GAS STATICCALL ISZERO DUP1 ISZERO PUSH2 0x51E JUMPI RETURNDATASIZE PUSH1 0x0 DUP1 RETURNDATACOPY RETURNDATASIZE PUSH1 0x0 REVERT JUMPDEST POP POP POP POP PUSH1 0x40 MLOAD RETURNDATASIZE PUSH1 0x1F NOT PUSH1 0x1F DUP3 ADD AND DUP3 ADD DUP1 PUSH1 0x40 MSTORE POP DUP2 ADD SWAP1 PUSH2 0x542 SWAP2 SWAP1 PUSH2 0x1CB7 JUMP JUMPDEST SWAP1 POP PUSH1 0x0 DUP1 PUSH1 0xA SLOAD SUB PUSH2 0x607 JUMPI PUSH2 0x585 PUSH1 0x64 DUP6 DUP5 PUSH2 0x560 SWAP2 SWAP1 PUSH2 0x1D13 JUMP JUMPDEST DUP8 DUP7 PUSH2 0x56C SWAP2 SWAP1 PUSH2 0x1D13 JUMP JUMPDEST PUSH2 0x576 SWAP2 SWAP1 PUSH2 0x1D47 JUMP JUMPDEST PUSH2 0x580 SWAP2 SWAP1 PUSH2 0x1D13 JUMP JUMPDEST PUSH2 0x11F2 JUMP JUMPDEST SWAP1 POP PUSH1 0x0 DUP2 GT PUSH2 0x5CA JUMPI PUSH1 0x40 MLOAD PUSH32 0x8C379A000000000000000000000000000000000000000000000000000000000 DUP2 MSTORE PUSH1 0x4 ADD PUSH2 0x5C1 SWAP1 PUSH2 0x1DED JUMP JUMPDEST PUSH1 0x40 MLOAD DUP1 SWAP2 SUB SWAP1 REVERT JUMPDEST PUSH2 0x5F7 PUSH1 0x3 PUSH1 0x0 SWAP1 SLOAD SWAP1 PUSH2 0x100 EXP SWAP1 DIV PUSH20 0xFFFFFFFFFFFFFFFFFFFFFFFFFFFFFFFFFFFFFFFF AND CALLER DUP4 PUSH2 0x126C JUMP JUMPDEST PUSH2 0x601 DUP11 DUP11 PUSH2 0x13F6 JUMP JUMPDEST POP PUSH2 0x6CA JUMP JUMPDEST PUSH2 0x657 DUP6 PUSH1 0xA SLOAD DUP8 DUP7 PUSH2 0x61A SWAP2 SWAP1 PUSH2 0x1D13 JUMP JUMPDEST PUSH2 0x624 SWAP2 SWAP1 PUSH2 0x1D47 JUMP JUMPDEST PUSH2 0x62E SWAP2 SWAP1 PUSH2 0x1E3C JUMP JUMPDEST DUP6 PUSH1 0xA SLOAD DUP8 DUP7 PUSH2 0x63E SWAP2 SWAP1 PUSH2 0x1D13 JUMP JUMPDEST PUSH2 0x648 SWAP2 SWAP1 PUSH2 0x1D47 JUMP JUMPDEST PUSH2 0x652 SWAP2 SWAP1 PUSH2 0x1E3C JUMP JUMPDEST PUSH2 0x1525 JUMP JUMPDEST SWAP1 POP PUSH1 0x0 DUP2 GT PUSH2 0x69C JUMPI PUSH1 0x40 MLOAD PUSH32 0x8C379A000000000000000000000000000000000000000000000000000000000 DUP2 MSTORE PUSH1 0x4 ADD PUSH2 0x693 SWAP1 PUSH2 0x1DED JUMP JUMPDEST PUSH1 0x40 MLOAD DUP1 SWAP2 SUB SWAP1 REVERT JUMPDEST PUSH2 0x6C9 PUSH1 0x3 PUSH1 0x0 SWAP1 SLOAD SWAP1 PUSH2 0x100 EXP SWAP1 DIV PUSH20 0xFFFFFFFFFFFFFFFFFFFFFFFFFFFFFFFFFFFFFFFF AND CALLER DUP4 PUSH2 0x126C JUMP JUMPDEST JUMPDEST DUP1 PUSH1 0xA PUSH1 0x0 DUP3 DUP3 SLOAD PUSH2 0x6DC SWAP2 SWAP1 PUSH2 0x1E6D JUMP JUMPDEST SWAP3 POP POP DUP2 SWAP1 SSTORE POP PUSH1 0x0 DUP11 PUSH20 0xFFFFFFFFFFFFFFFFFFFFFFFFFFFFFFFFFFFFFFFF AND PUSH4 0x70A08231 ADDRESS PUSH1 0x40 MLOAD DUP3 PUSH4 0xFFFFFFFF AND PUSH1 0xE0 SHL DUP2 MSTORE PUSH1 0x4 ADD PUSH2 0x71E SWAP2 SWAP1 PUSH2 0x1968 JUMP JUMPDEST PUSH1 0x20 PUSH1 0x40 MLOAD DUP1 DUP4 SUB DUP2 DUP7 GAS STATICCALL ISZERO DUP1 ISZERO PUSH2 0x73B JUMPI RETURNDATASIZE PUSH1 0x0 DUP1 RETURNDATACOPY RETURNDATASIZE PUSH1 0x0 REVERT JUMPDEST POP POP POP POP PUSH1 0x40 MLOAD RETURNDATASIZE PUSH1 0x1F NOT PUSH1 0x1F DUP3 ADD AND DUP3 ADD DUP1 PUSH1 0x40 MSTORE POP DUP2 ADD SWAP1 PUSH2 0x75F SWAP2 SWAP1 PUSH2 0x1CB7 JUMP JUMPDEST SWAP1 POP PUSH1 0x0 DUP11 PUSH20 0xFFFFFFFFFFFFFFFFFFFFFFFFFFFFFFFFFFFFFFFF AND PUSH4 0x70A08231 ADDRESS PUSH1 0x40 MLOAD DUP3 PUSH4 0xFFFFFFFF AND PUSH1 0xE0 SHL DUP2 MSTORE PUSH1 0x4 ADD PUSH2 0x79C SWAP2 SWAP1 PUSH2 0x1968 JUMP JUMPDEST PUSH1 0x20 PUSH1 0x40 MLOAD DUP1 DUP4 SUB DUP2 DUP7 GAS STATICCALL ISZERO DUP1 ISZERO PUSH2 0x7B9 JUMPI RETURNDATASIZE PUSH1 0x0 DUP1 RETURNDATACOPY RETURNDATASIZE PUSH1 0x0 REVERT JUMPDEST POP POP POP POP PUSH1 0x40 MLOAD RETURNDATASIZE PUSH1 0x1F NOT PUSH1 0x1F DUP3 ADD AND DUP3 ADD DUP1 PUSH1 0x40 MSTORE POP DUP2 ADD SWAP1 PUSH2 0x7DD SWAP2 SWAP1 PUSH2 0x1CB7 JUMP JUMPDEST SWAP1 POP PUSH2 0x7EB DUP13 DUP13 DUP5 DUP5 PUSH2 0x153E JUMP JUMPDEST PUSH32 0xD2491A9B4FE81A7CD4511E8B7B7743951B061DAD5BED7DA8A7795B080EE08C7E DUP13 DUP13 DUP13 DUP13 PUSH1 0x40 MLOAD PUSH2 0x820 SWAP5 SWAP4 SWAP3 SWAP2 SWAP1 PUSH2 0x1EC3 JUMP JUMPDEST PUSH1 0x40 MLOAD DUP1 SWAP2 SUB SWAP1 LOG1 PUSH1 0x1 SWAP8 POP POP POP POP POP POP POP POP SWAP5 SWAP4 POP POP POP POP JUMP JUMPDEST PUSH1 0x64 DUP2 JUMP JUMPDEST PUSH1 0x0 DUP1 PUSH1 0x0 PUSH2 0x84D PUSH2 0x106B JUMP JUMPDEST SWAP2 POP SWAP2 POP PUSH1 0x1 PUSH1 0x0 SWAP1 SLOAD SWAP1 PUSH2 0x100 EXP SWAP1 DIV PUSH20 0xFFFFFFFFFFFFFFFFFFFFFFFFFFFFFFFFFFFFFFFF AND PUSH20 0xFFFFFFFFFFFFFFFFFFFFFFFFFFFFFFFFFFFFFFFF AND DUP9 PUSH20 0xFFFFFFFFFFFFFFFFFFFFFFFFFFFFFFFFFFFFFFFF AND EQ DUP1 ISZERO PUSH2 0x8FB JUMPI POP PUSH1 0x2 PUSH1 0x0 SWAP1 SLOAD SWAP1 PUSH2 0x100 EXP SWAP1 DIV PUSH20 0xFFFFFFFFFFFFFFFFFFFFFFFFFFFFFFFFFFFFFFFF AND PUSH20 0xFFFFFFFFFFFFFFFFFFFFFFFFFFFFFFFFFFFFFFFF AND DUP8 PUSH20 0xFFFFFFFFFFFFFFFFFFFFFFFFFFFFFFFFFFFFFFFF AND EQ JUMPDEST PUSH2 0x93A JUMPI PUSH1 0x40 MLOAD PUSH32 0x8C379A000000000000000000000000000000000000000000000000000000000 DUP2 MSTORE PUSH1 0x4 ADD PUSH2 0x931 SWAP1 PUSH2 0x1C16 JUMP JUMPDEST PUSH1 0x40 MLOAD DUP1 SWAP2 SUB SWAP1 REVERT JUMPDEST PUSH1 0x0 DUP6 GT DUP1 PUSH2 0x949 JUMPI POP PUSH1 0x0 DUP5 GT JUMPDEST PUSH2 0x988 JUMPI PUSH1 0x40 MLOAD PUSH32 0x8C379A000000000000000000000000000000000000000000000000000000000 DUP2 MSTORE PUSH1 0x4 ADD PUSH2 0x97F SWAP1 PUSH2 0x1F54 JUMP JUMPDEST PUSH1 0x40 MLOAD DUP1 SWAP2 SUB SWAP1 REVERT JUMPDEST PUSH1 0x0 DUP6 EQ DUP1 PUSH2 0x997 JUMPI POP PUSH1 0x0 DUP5 EQ JUMPDEST PUSH2 0x9D6 JUMPI PUSH1 0x40 MLOAD PUSH32 0x8C379A000000000000000000000000000000000000000000000000000000000 DUP2 MSTORE PUSH1 0x4 ADD PUSH2 0x9CD SWAP1 PUSH2 0x1F54 JUMP JUMPDEST PUSH1 0x40 MLOAD DUP1 SWAP2 SUB SWAP1 REVERT JUMPDEST DUP8 PUSH20 0xFFFFFFFFFFFFFFFFFFFFFFFFFFFFFFFFFFFFFFFF AND DUP7 PUSH20 0xFFFFFFFFFFFFFFFFFFFFFFFFFFFFFFFFFFFFFFFF AND EQ ISZERO DUP1 ISZERO PUSH2 0xA3E JUMPI POP DUP7 PUSH20 0xFFFFFFFFFFFFFFFFFFFFFFFFFFFFFFFFFFFFFFFF AND DUP7 PUSH20 0xFFFFFFFFFFFFFFFFFFFFFFFFFFFFFFFFFFFFFFFF AND EQ ISZERO JUMPDEST PUSH2 0xA7D JUMPI PUSH1 0x40 MLOAD PUSH32 0x8C379A000000000000000000000000000000000000000000000000000000000 DUP2 MSTORE PUSH1 0x4 ADD PUSH2 0xA74 SWAP1 PUSH2 0x1C16 JUMP JUMPDEST PUSH1 0x40 MLOAD DUP1 SWAP2 SUB SWAP1 REVERT JUMPDEST PUSH1 0x0 PUSH2 0x3E8 PUSH1 0xB SLOAD DUP8 PUSH2 0xA90 SWAP2 SWAP1 PUSH2 0x1D47 JUMP JUMPDEST PUSH2 0xA9A SWAP2 SWAP1 PUSH2 0x1E3C JUMP JUMPDEST SWAP1 POP PUSH1 0x0 PUSH2 0x3E8 PUSH1 0xB SLOAD DUP8 PUSH2 0xAAF SWAP2 SWAP1 PUSH2 0x1D47 JUMP JUMPDEST PUSH2 0xAB9 SWAP2 SWAP1 PUSH2 0x1E3C JUMP JUMPDEST SWAP1 POP PUSH1 0x0 DUP8 GT DUP1 ISZERO PUSH2 0xACB JUMPI POP PUSH1 0x0 DUP7 EQ JUMPDEST ISZERO PUSH2 0xB0E JUMPI PUSH2 0xB02 DUP10 CALLER ADDRESS PUSH3 0xF4240 PUSH1 0x8 SLOAD DUP8 DUP14 PUSH2 0xAE9 SWAP2 SWAP1 PUSH2 0x1E6D JUMP JUMPDEST PUSH2 0xAF3 SWAP2 SWAP1 PUSH2 0x1D47 JUMP JUMPDEST PUSH2 0xAFD SWAP2 SWAP1 PUSH2 0x1E3C JUMP JUMPDEST PUSH2 0x107C JUMP JUMPDEST PUSH2 0xB0D DUP11 DUP10 DUP10 PUSH2 0x1667 JUMP JUMPDEST JUMPDEST PUSH1 0x0 DUP7 GT DUP1 ISZERO PUSH2 0xB1E JUMPI POP PUSH1 0x0 DUP8 EQ JUMPDEST ISZERO PUSH2 0xB61 JUMPI PUSH2 0xB55 DUP11 CALLER ADDRESS PUSH3 0xF4240 PUSH1 0x9 SLOAD DUP7 DUP13 PUSH2 0xB3C SWAP2 SWAP1 PUSH2 0x1E6D JUMP JUMPDEST PUSH2 0xB46 SWAP2 SWAP1 PUSH2 0x1D47 JUMP JUMPDEST PUSH2 0xB50 SWAP2 SWAP1 PUSH2 0x1E3C JUMP JUMPDEST PUSH2 0x107C JUMP JUMPDEST PUSH2 0xB60 DUP10 DUP10 DUP9 PUSH2 0x1667 JUMP JUMPDEST JUMPDEST PUSH1 0x0 DUP11 PUSH20 0xFFFFFFFFFFFFFFFFFFFFFFFFFFFFFFFFFFFFFFFF AND PUSH4 0x70A08231 ADDRESS PUSH1 0x40 MLOAD DUP3 PUSH4 0xFFFFFFFF AND PUSH1 0xE0 SHL DUP2 MSTORE PUSH1 0x4 ADD PUSH2 0xB9C SWAP2 SWAP1 PUSH2 0x1968 JUMP JUMPDEST PUSH1 0x20 PUSH1 0x40 MLOAD DUP1 DUP4 SUB DUP2 DUP7 GAS STATICCALL ISZERO DUP1 ISZERO PUSH2 0xBB9 JUMPI RETURNDATASIZE PUSH1 0x0 DUP1 RETURNDATACOPY RETURNDATASIZE PUSH1 0x0 REVERT JUMPDEST POP POP POP POP PUSH1 0x40 MLOAD RETURNDATASIZE PUSH1 0x1F NOT PUSH1 0x1F DUP3 ADD AND DUP3 ADD DUP1 PUSH1 0x40 MSTORE POP DUP2 ADD SWAP1 PUSH2 0xBDD SWAP2 SWAP1 PUSH2 0x1CB7 JUMP JUMPDEST SWAP1 POP PUSH1 0x0 DUP11 PUSH20 0xFFFFFFFFFFFFFFFFFFFFFFFFFFFFFFFFFFFFFFFF AND PUSH4 0x70A08231 ADDRESS PUSH1 0x40 MLOAD DUP3 PUSH4 0xFFFFFFFF AND PUSH1 0xE0 SHL DUP2 MSTORE PUSH1 0x4 ADD PUSH2 0xC1A SWAP2 SWAP1 PUSH2 0x1968 JUMP JUMPDEST PUSH1 0x20 PUSH1 0x40 MLOAD DUP1 DUP4 SUB DUP2 DUP7 GAS STATICCALL ISZERO DUP1 ISZERO PUSH2 0xC37 JUMPI RETURNDATASIZE PUSH1 0x0 DUP1 RETURNDATACOPY RETURNDATASIZE PUSH1 0x0 REVERT JUMPDEST POP POP POP POP PUSH1 0x40 MLOAD RETURNDATASIZE PUSH1 0x1F NOT PUSH1 0x1F DUP3 ADD AND DUP3 ADD DUP1 PUSH1 0x40 MSTORE POP DUP2 ADD SWAP1 PUSH2 0xC5B SWAP2 SWAP1 PUSH2 0x1CB7 JUMP JUMPDEST SWAP1 POP PUSH2 0xC69 DUP13 DUP13 DUP5 DUP5 PUSH2 0x153E JUMP JUMPDEST PUSH32 0x3070708CDB5D7D3931BE8443F49F7EC529E2BBE770B676E3C0CC40E158C5D039 DUP13 DUP13 DUP13 DUP13 DUP13 PUSH1 0x40 MLOAD PUSH2 0xCA0 SWAP6 SWAP5 SWAP4 SWAP3 SWAP2 SWAP1 PUSH2 0x1F74 JUMP JUMPDEST PUSH1 0x40 MLOAD DUP1 SWAP2 SUB SWAP1 LOG1 PUSH1 0x1 SWAP7 POP POP POP POP POP POP POP SWAP6 SWAP5 POP POP POP POP POP JUMP JUMPDEST PUSH1 0x8 SLOAD DUP2 JUMP JUMPDEST PUSH1 0x4 SLOAD DUP2 JUMP JUMPDEST PUSH1 0x2 PUSH1 0x0 SWAP1 SLOAD SWAP1 PUSH2 0x100 EXP SWAP1 DIV PUSH20 0xFFFFFFFFFFFFFFFFFFFFFFFFFFFFFFFFFFFFFFFF AND DUP2 JUMP JUMPDEST PUSH1 0x0 DUP1 PUSH1 0x0 PUSH2 0xCFA PUSH2 0x106B JUMP JUMPDEST SWAP2 POP SWAP2 POP PUSH1 0x1 PUSH1 0x0 SWAP1 SLOAD SWAP1 PUSH2 0x100 EXP SWAP1 DIV PUSH20 0xFFFFFFFFFFFFFFFFFFFFFFFFFFFFFFFFFFFFFFFF AND PUSH20 0xFFFFFFFFFFFFFFFFFFFFFFFFFFFFFFFFFFFFFFFF AND DUP10 PUSH20 0xFFFFFFFFFFFFFFFFFFFFFFFFFFFFFFFFFFFFFFFF AND EQ DUP1 ISZERO PUSH2 0xDA8 JUMPI POP PUSH1 0x2 PUSH1 0x0 SWAP1 SLOAD SWAP1 PUSH2 0x100 EXP SWAP1 DIV PUSH20 0xFFFFFFFFFFFFFFFFFFFFFFFFFFFFFFFFFFFFFFFF AND PUSH20 0xFFFFFFFFFFFFFFFFFFFFFFFFFFFFFFFFFFFFFFFF AND DUP9 PUSH20 0xFFFFFFFFFFFFFFFFFFFFFFFFFFFFFFFFFFFFFFFF AND EQ JUMPDEST PUSH2 0xDE7 JUMPI PUSH1 0x40 MLOAD PUSH32 0x8C379A000000000000000000000000000000000000000000000000000000000 DUP2 MSTORE PUSH1 0x4 ADD PUSH2 0xDDE SWAP1 PUSH2 0x1C16 JUMP JUMPDEST PUSH1 0x40 MLOAD DUP1 SWAP2 SUB SWAP1 REVERT JUMPDEST DUP4 DUP6 EQ PUSH2 0xE29 JUMPI PUSH1 0x40 MLOAD PUSH32 0x8C379A000000000000000000000000000000000000000000000000000000000 DUP2 MSTORE PUSH1 0x4 ADD PUSH2 0xE20 SWAP1 PUSH2 0x1C82 JUMP JUMPDEST PUSH1 0x40 MLOAD DUP1 SWAP2 SUB SWAP1 REVERT JUMPDEST PUSH1 0x0 PUSH1 0xA SLOAD DUP4 DUP9 PUSH2 0xE3A SWAP2 SWAP1 PUSH2 0x1D47 JUMP JUMPDEST PUSH2 0xE44 SWAP2 SWAP1 PUSH2 0x1E3C JUMP JUMPDEST SWAP1 POP PUSH1 0x0 PUSH1 0xA SLOAD DUP4 DUP10 PUSH2 0xE57 SWAP2 SWAP1 PUSH2 0x1D47 JUMP JUMPDEST PUSH2 0xE61 SWAP2 SWAP1 PUSH2 0x1E3C JUMP JUMPDEST SWAP1 POP PUSH1 0x0 DUP3 GT DUP1 ISZERO PUSH2 0xE73 JUMPI POP PUSH1 0x0 DUP2 GT JUMPDEST PUSH2 0xEB2 JUMPI PUSH1 0x40 MLOAD PUSH32 0x8C379A000000000000000000000000000000000000000000000000000000000 DUP2 MSTORE PUSH1 0x4 ADD PUSH2 0xEA9 SWAP1 PUSH2 0x2013 JUMP JUMPDEST PUSH1 0x40 MLOAD DUP1 SWAP2 SUB SWAP1 REVERT JUMPDEST PUSH2 0xEDF PUSH1 0x3 PUSH1 0x0 SWAP1 SLOAD SWAP1 PUSH2 0x100 EXP SWAP1 DIV PUSH20 0xFFFFFFFFFFFFFFFFFFFFFFFFFFFFFFFFFFFFFFFF AND DUP11 DUP11 PUSH2 0x179D JUMP JUMPDEST PUSH2 0xEEB DUP12 ADDRESS DUP12 DUP6 PUSH2 0x107C JUMP JUMPDEST PUSH2 0xEF7 DUP11 ADDRESS DUP12 DUP5 PUSH2 0x107C JUMP JUMPDEST DUP8 PUSH1 0xA PUSH1 0x0 DUP3 DUP3 SLOAD PUSH2 0xF09 SWAP2 SWAP1 PUSH2 0x1D13 JUMP JUMPDEST SWAP3 POP POP DUP2 SWAP1 SSTORE POP PUSH1 0x0 DUP12 PUSH20 0xFFFFFFFFFFFFFFFFFFFFFFFFFFFFFFFFFFFFFFFF AND PUSH4 0x70A08231 ADDRESS PUSH1 0x40 MLOAD DUP3 PUSH4 0xFFFFFFFF AND PUSH1 0xE0 SHL DUP2 MSTORE PUSH1 0x4 ADD PUSH2 0xF4B SWAP2 SWAP1 PUSH2 0x1968 JUMP JUMPDEST PUSH1 0x20 PUSH1 0x40 MLOAD DUP1 DUP4 SUB DUP2 DUP7 GAS STATICCALL ISZERO DUP1 ISZERO PUSH2 0xF68 JUMPI RETURNDATASIZE PUSH1 0x0 DUP1 RETURNDATACOPY RETURNDATASIZE PUSH1 0x0 REVERT JUMPDEST POP POP POP POP PUSH1 0x40 MLOAD RETURNDATASIZE PUSH1 0x1F NOT PUSH1 0x1F DUP3 ADD AND DUP3 ADD DUP1 PUSH1 0x40 MSTORE POP DUP2 ADD SWAP1 PUSH2 0xF8C SWAP2 SWAP1 PUSH2 0x1CB7 JUMP JUMPDEST SWAP1 POP PUSH1 0x0 DUP12 PUSH20 0xFFFFFFFFFFFFFFFFFFFFFFFFFFFFFFFFFFFFFFFF AND PUSH4 0x70A08231 ADDRESS PUSH1 0x40 MLOAD DUP3 PUSH4 0xFFFFFFFF AND PUSH1 0xE0 SHL DUP2 MSTORE PUSH1 0x4 ADD PUSH2 0xFC9 SWAP2 SWAP1 PUSH2 0x1968 JUMP JUMPDEST PUSH1 0x20 PUSH1 0x40 MLOAD DUP1 DUP4 SUB DUP2 DUP7 GAS STATICCALL ISZERO DUP1 ISZERO PUSH2 0xFE6 JUMPI RETURNDATASIZE PUSH1 0x0 DUP1 RETURNDATACOPY RETURNDATASIZE PUSH1 0x0 REVERT JUMPDEST POP POP POP POP PUSH1 0x40 MLOAD RETURNDATASIZE PUSH1 0x1F NOT PUSH1 0x1F DUP3 ADD AND DUP3 ADD DUP1 PUSH1 0x40 MSTORE POP DUP2 ADD SWAP1 PUSH2 0x100A SWAP2 SWAP1 PUSH2 0x1CB7 JUMP JUMPDEST SWAP1 POP PUSH2 0x1018 DUP14 DUP14 DUP5 DUP5 PUSH2 0x153E JUMP JUMPDEST PUSH32 0x95B8FE9BA38A505097B9341887DE8716D6F3F3BA79EF0ECC02F35AD6E30585D6 DUP14 DUP14 DUP9 DUP9 DUP15 PUSH1 0x40 MLOAD PUSH2 0x104F SWAP6 SWAP5 SWAP4 SWAP3 SWAP2 SWAP1 PUSH2 0x2033 JUMP JUMPDEST PUSH1 0x40 MLOAD DUP1 SWAP2 SUB SWAP1 LOG1 PUSH1 0x1 SWAP7 POP POP POP POP POP POP POP SWAP7 SWAP6 POP POP POP POP POP POP JUMP JUMPDEST PUSH1 0x0 DUP1 PUSH1 0x6 SLOAD SWAP2 POP PUSH1 0x7 SLOAD SWAP1 POP SWAP1 SWAP2 JUMP JUMPDEST PUSH1 0x0 PUSH1 0x40 MLOAD DUP1 PUSH1 0x60 ADD PUSH1 0x40 MSTORE DUP1 PUSH1 0x25 DUP2 MSTORE PUSH1 0x20 ADD PUSH2 0x2439 PUSH1 0x25 SWAP2 CODECOPY DUP1 MLOAD SWAP1 PUSH1 0x20 ADD KECCAK256 SWAP1 POP PUSH1 0x0 DUP1 DUP7 PUSH20 0xFFFFFFFFFFFFFFFFFFFFFFFFFFFFFFFFFFFFFFFF AND DUP4 DUP8 DUP8 DUP8 PUSH1 0x40 MLOAD PUSH1 0x24 ADD PUSH2 0x10D0 SWAP4 SWAP3 SWAP2 SWAP1 PUSH2 0x2086 JUMP JUMPDEST PUSH1 0x40 MLOAD PUSH1 0x20 DUP2 DUP4 SUB SUB DUP2 MSTORE SWAP1 PUSH1 0x40 MSTORE SWAP1 PUSH28 0xFFFFFFFFFFFFFFFFFFFFFFFFFFFFFFFFFFFFFFFFFFFFFFFFFFFFFFFF NOT AND PUSH1 0x20 DUP3 ADD DUP1 MLOAD PUSH28 0xFFFFFFFFFFFFFFFFFFFFFFFFFFFFFFFFFFFFFFFFFFFFFFFFFFFFFFFF DUP4 DUP2 DUP4 AND OR DUP4 MSTORE POP POP POP POP PUSH1 0x40 MLOAD PUSH2 0x113A SWAP2 SWAP1 PUSH2 0x2137 JUMP JUMPDEST PUSH1 0x0 PUSH1 0x40 MLOAD DUP1 DUP4 SUB DUP2 PUSH1 0x0 DUP7 GAS CALL SWAP2 POP POP RETURNDATASIZE DUP1 PUSH1 0x0 DUP2 EQ PUSH2 0x1177 JUMPI PUSH1 0x40 MLOAD SWAP2 POP PUSH1 0x1F NOT PUSH1 0x3F RETURNDATASIZE ADD AND DUP3 ADD PUSH1 0x40 MSTORE RETURNDATASIZE DUP3 MSTORE RETURNDATASIZE PUSH1 0x0 PUSH1 0x20 DUP5 ADD RETURNDATACOPY PUSH2 0x117C JUMP JUMPDEST PUSH1 0x60 SWAP2 POP JUMPDEST POP SWAP2 POP SWAP2 POP DUP2 DUP1 ISZERO PUSH2 0x11AA JUMPI POP PUSH1 0x0 DUP2 MLOAD EQ DUP1 PUSH2 0x11A9 JUMPI POP DUP1 DUP1 PUSH1 0x20 ADD SWAP1 MLOAD DUP2 ADD SWAP1 PUSH2 0x11A8 SWAP2 SWAP1 PUSH2 0x217A JUMP JUMPDEST JUMPDEST JUMPDEST PUSH2 0x11E9 JUMPI PUSH1 0x40 MLOAD PUSH32 0x8C379A000000000000000000000000000000000000000000000000000000000 DUP2 MSTORE PUSH1 0x4 ADD PUSH2 0x11E0 SWAP1 PUSH2 0x2219 JUMP JUMPDEST PUSH1 0x40 MLOAD DUP1 SWAP2 SUB SWAP1 REVERT JUMPDEST POP POP POP POP POP POP POP JUMP JUMPDEST PUSH1 0x0 PUSH1 0x3 DUP3 GT ISZERO PUSH2 0x1259 JUMPI DUP2 SWAP1 POP PUSH1 0x0 PUSH1 0x1 PUSH1 0x2 DUP5 PUSH2 0x1211 SWAP2 SWAP1 PUSH2 0x1E3C JUMP JUMPDEST PUSH2 0x121B SWAP2 SWAP1 PUSH2 0x1E6D JUMP JUMPDEST SWAP1 POP JUMPDEST DUP2 DUP2 LT ISZERO PUSH2 0x1253 JUMPI DUP1 SWAP2 POP PUSH1 0x2 DUP2 DUP3 DUP6 PUSH2 0x1238 SWAP2 SWAP1 PUSH2 0x1E3C JUMP JUMPDEST PUSH2 0x1242 SWAP2 SWAP1 PUSH2 0x1E6D JUMP JUMPDEST PUSH2 0x124C SWAP2 SWAP1 PUSH2 0x1E3C JUMP JUMPDEST SWAP1 POP PUSH2 0x121E JUMP JUMPDEST POP PUSH2 0x1267 JUMP JUMPDEST PUSH1 0x0 DUP3 EQ PUSH2 0x1266 JUMPI PUSH1 0x1 SWAP1 POP JUMPDEST JUMPDEST SWAP2 SWAP1 POP JUMP JUMPDEST PUSH1 0x0 DUP1 DUP5 PUSH20 0xFFFFFFFFFFFFFFFFFFFFFFFFFFFFFFFFFFFFFFFF AND PUSH1 0x40 MLOAD DUP1 PUSH1 0x40 ADD PUSH1 0x40 MSTORE DUP1 PUSH1 0x15 DUP2 MSTORE PUSH1 0x20 ADD PUSH32 0x6D696E7428616464726573732C75696E74323536290000000000000000000000 DUP2 MSTORE POP DUP1 MLOAD SWAP1 PUSH1 0x20 ADD KECCAK256 DUP6 DUP6 PUSH1 0x40 MLOAD PUSH1 0x24 ADD PUSH2 0x12D6 SWAP3 SWAP2 SWAP1 PUSH2 0x2239 JUMP JUMPDEST PUSH1 0x40 MLOAD PUSH1 0x20 DUP2 DUP4 SUB SUB DUP2 MSTORE SWAP1 PUSH1 0x40 MSTORE SWAP1 PUSH28 0xFFFFFFFFFFFFFFFFFFFFFFFFFFFFFFFFFFFFFFFFFFFFFFFFFFFFFFFF NOT AND PUSH1 0x20 DUP3 ADD DUP1 MLOAD PUSH28 0xFFFFFFFFFFFFFFFFFFFFFFFFFFFFFFFFFFFFFFFFFFFFFFFFFFFFFFFF DUP4 DUP2 DUP4 AND OR DUP4 MSTORE POP POP POP POP PUSH1 0x40 MLOAD PUSH2 0x1340 SWAP2 SWAP1 PUSH2 0x2137 JUMP JUMPDEST PUSH1 0x0 PUSH1 0x40 MLOAD DUP1 DUP4 SUB DUP2 PUSH1 0x0 DUP7 GAS CALL SWAP2 POP POP RETURNDATASIZE DUP1 PUSH1 0x0 DUP2 EQ PUSH2 0x137D JUMPI PUSH1 0x40 MLOAD SWAP2 POP PUSH1 0x1F NOT PUSH1 0x3F RETURNDATASIZE ADD AND DUP3 ADD PUSH1 0x40 MSTORE RETURNDATASIZE DUP3 MSTORE RETURNDATASIZE PUSH1 0x0 PUSH1 0x20 DUP5 ADD RETURNDATACOPY PUSH2 0x1382 JUMP JUMPDEST PUSH1 0x60 SWAP2 POP JUMPDEST POP SWAP2 POP SWAP2 POP DUP2 DUP1 ISZERO PUSH2 0x13B0 JUMPI POP PUSH1 0x0 DUP2 MLOAD EQ DUP1 PUSH2 0x13AF JUMPI POP DUP1 DUP1 PUSH1 0x20 ADD SWAP1 MLOAD DUP2 ADD SWAP1 PUSH2 0x13AE SWAP2 SWAP1 PUSH2 0x217A JUMP JUMPDEST JUMPDEST JUMPDEST PUSH2 0x13EF JUMPI PUSH1 0x40 MLOAD PUSH32 0x8C379A000000000000000000000000000000000000000000000000000000000 DUP2 MSTORE PUSH1 0x4 ADD PUSH2 0x13E6 SWAP1 PUSH2 0x22AE JUMP JUMPDEST PUSH1 0x40 MLOAD DUP1 SWAP2 SUB SWAP1 REVERT JUMPDEST POP POP POP POP POP JUMP JUMPDEST PUSH1 0x0 DUP1 DUP4 PUSH20 0xFFFFFFFFFFFFFFFFFFFFFFFFFFFFFFFFFFFFFFFF AND PUSH4 0x70A08231 ADDRESS PUSH1 0x40 MLOAD DUP3 PUSH4 0xFFFFFFFF AND PUSH1 0xE0 SHL DUP2 MSTORE PUSH1 0x4 ADD PUSH2 0x1432 SWAP2 SWAP1 PUSH2 0x1968 JUMP JUMPDEST PUSH1 0x20 PUSH1 0x40 MLOAD DUP1 DUP4 SUB DUP2 DUP7 GAS STATICCALL ISZERO DUP1 ISZERO PUSH2 0x144F JUMPI RETURNDATASIZE PUSH1 0x0 DUP1 RETURNDATACOPY RETURNDATASIZE PUSH1 0x0 REVERT JUMPDEST POP POP POP POP PUSH1 0x40 MLOAD RETURNDATASIZE PUSH1 0x1F NOT PUSH1 0x1F DUP3 ADD AND DUP3 ADD DUP1 PUSH1 0x40 MSTORE POP DUP2 ADD SWAP1 PUSH2 0x1473 SWAP2 SWAP1 PUSH2 0x1CB7 JUMP JUMPDEST SWAP1 POP PUSH1 0x0 DUP4 PUSH20 0xFFFFFFFFFFFFFFFFFFFFFFFFFFFFFFFFFFFFFFFF AND PUSH4 0x70A08231 ADDRESS PUSH1 0x40 MLOAD DUP3 PUSH4 0xFFFFFFFF AND PUSH1 0xE0 SHL DUP2 MSTORE PUSH1 0x4 ADD PUSH2 0x14B0 SWAP2 SWAP1 PUSH2 0x1968 JUMP JUMPDEST PUSH1 0x20 PUSH1 0x40 MLOAD DUP1 DUP4 SUB DUP2 DUP7 GAS STATICCALL ISZERO DUP1 ISZERO PUSH2 0x14CD JUMPI RETURNDATASIZE PUSH1 0x0 DUP1 RETURNDATACOPY RETURNDATASIZE PUSH1 0x0 REVERT JUMPDEST POP POP POP POP PUSH1 0x40 MLOAD RETURNDATASIZE PUSH1 0x1F NOT PUSH1 0x1F DUP3 ADD AND DUP3 ADD DUP1 PUSH1 0x40 MSTORE POP DUP2 ADD SWAP1 PUSH2 0x14F1 SWAP2 SWAP1 PUSH2 0x1CB7 JUMP JUMPDEST SWAP1 POP PUSH1 0x0 PUSH1 0x5 SLOAD SUB PUSH2 0x1518 JUMPI DUP1 DUP3 PUSH2 0x1509 SWAP2 SWAP1 PUSH2 0x1D47 JUMP JUMPDEST PUSH1 0x4 DUP2 SWAP1 SSTORE POP PUSH1 0x1 PUSH1 0x5 DUP2 SWAP1 SSTORE POP JUMPDEST PUSH1 0x4 SLOAD SWAP3 POP POP POP SWAP3 SWAP2 POP POP JUMP JUMPDEST PUSH1 0x0 DUP2 DUP4 LT PUSH2 0x1534 JUMPI DUP2 PUSH2 0x1536 JUMP JUMPDEST DUP3 JUMPDEST SWAP1 POP SWAP3 SWAP2 POP POP JUMP JUMPDEST PUSH1 0x0 DUP3 LT ISZERO DUP1 ISZERO PUSH2 0x1550 JUMPI POP PUSH1 0x0 DUP2 LT ISZERO JUMPDEST PUSH2 0x158F JUMPI PUSH1 0x40 MLOAD PUSH32 0x8C379A000000000000000000000000000000000000000000000000000000000 DUP2 MSTORE PUSH1 0x4 ADD PUSH2 0x1586 SWAP1 PUSH2 0x231A JUMP JUMPDEST PUSH1 0x40 MLOAD DUP1 SWAP2 SUB SWAP1 REVERT JUMPDEST PUSH1 0x0 DUP3 EQ ISZERO DUP1 ISZERO PUSH2 0x15A1 JUMPI POP PUSH1 0x0 DUP2 EQ ISZERO JUMPDEST ISZERO PUSH2 0x15EB JUMPI DUP2 PUSH3 0xF4240 DUP3 PUSH2 0x15B6 SWAP2 SWAP1 PUSH2 0x1D47 JUMP JUMPDEST PUSH2 0x15C0 SWAP2 SWAP1 PUSH2 0x1E3C JUMP JUMPDEST PUSH1 0x8 DUP2 SWAP1 SSTORE POP DUP1 PUSH3 0xF4240 DUP4 PUSH2 0x15D6 SWAP2 SWAP1 PUSH2 0x1D47 JUMP JUMPDEST PUSH2 0x15E0 SWAP2 SWAP1 PUSH2 0x1E3C JUMP JUMPDEST PUSH1 0x9 DUP2 SWAP1 SSTORE POP PUSH2 0x1612 JUMP JUMPDEST PUSH1 0x0 DUP3 EQ DUP1 ISZERO PUSH2 0x15FB JUMPI POP PUSH1 0x0 DUP2 EQ JUMPDEST ISZERO PUSH2 0x1611 JUMPI PUSH1 0x0 PUSH1 0x8 DUP2 SWAP1 SSTORE POP PUSH1 0x0 PUSH1 0x9 DUP2 SWAP1 SSTORE POP JUMPDEST JUMPDEST DUP2 PUSH1 0x6 DUP2 SWAP1 SSTORE POP DUP1 PUSH1 0x7 DUP2 SWAP1 SSTORE POP PUSH32 0xD4BDE8444971B7416B5F51C90F544D2FE2D0C1EDDDD83BD5FE8646179341DC99 DUP5 DUP5 PUSH1 0x6 SLOAD PUSH1 0x7 SLOAD PUSH1 0x40 MLOAD PUSH2 0x1659 SWAP5 SWAP4 SWAP3 SWAP2 SWAP1 PUSH2 0x1EC3 JUMP JUMPDEST PUSH1 0x40 MLOAD DUP1 SWAP2 SUB SWAP1 LOG1 POP POP POP POP JUMP JUMPDEST PUSH1 0x0 DUP1 DUP5 PUSH20 0xFFFFFFFFFFFFFFFFFFFFFFFFFFFFFFFFFFFFFFFF AND PUSH4 0xA9059CBB DUP6 DUP6 PUSH1 0x40 MLOAD PUSH1 0x24 ADD PUSH2 0x1699 SWAP3 SWAP2 SWAP1 PUSH2 0x2239 JUMP JUMPDEST PUSH1 0x40 MLOAD PUSH1 0x20 DUP2 DUP4 SUB SUB DUP2 MSTORE SWAP1 PUSH1 0x40 MSTORE SWAP1 PUSH1 0xE0 SHL PUSH1 0x20 DUP3 ADD DUP1 MLOAD PUSH28 0xFFFFFFFFFFFFFFFFFFFFFFFFFFFFFFFFFFFFFFFFFFFFFFFFFFFFFFFF DUP4 DUP2 DUP4 AND OR DUP4 MSTORE POP POP POP POP PUSH1 0x40 MLOAD PUSH2 0x16E7 SWAP2 SWAP1 PUSH2 0x2137 JUMP JUMPDEST PUSH1 0x0 PUSH1 0x40 MLOAD DUP1 DUP4 SUB DUP2 PUSH1 0x0 DUP7 GAS CALL SWAP2 POP POP RETURNDATASIZE DUP1 PUSH1 0x0 DUP2 EQ PUSH2 0x1724 JUMPI PUSH1 0x40 MLOAD SWAP2 POP PUSH1 0x1F NOT PUSH1 0x3F RETURNDATASIZE ADD AND DUP3 ADD PUSH1 0x40 MSTORE RETURNDATASIZE DUP3 MSTORE RETURNDATASIZE PUSH1 0x0 PUSH1 0x20 DUP5 ADD RETURNDATACOPY PUSH2 0x1729 JUMP JUMPDEST PUSH1 0x60 SWAP2 POP JUMPDEST POP SWAP2 POP SWAP2 POP DUP2 DUP1 ISZERO PUSH2 0x1757 JUMPI POP PUSH1 0x0 DUP2 MLOAD EQ DUP1 PUSH2 0x1756 JUMPI POP DUP1 DUP1 PUSH1 0x20 ADD SWAP1 MLOAD DUP2 ADD SWAP1 PUSH2 0x1755 SWAP2 SWAP1 PUSH2 0x217A JUMP JUMPDEST JUMPDEST JUMPDEST PUSH2 0x1796 JUMPI PUSH1 0x40 MLOAD PUSH32 0x8C379A000000000000000000000000000000000000000000000000000000000 DUP2 MSTORE PUSH1 0x4 ADD PUSH2 0x178D SWAP1 PUSH2 0x23AC JUMP JUMPDEST PUSH1 0x40 MLOAD DUP1 SWAP2 SUB SWAP1 REVERT JUMPDEST POP POP POP POP POP JUMP JUMPDEST PUSH1 0x0 DUP1 DUP5 PUSH20 0xFFFFFFFFFFFFFFFFFFFFFFFFFFFFFFFFFFFFFFFF AND PUSH1 0x40 MLOAD DUP1 PUSH1 0x40 ADD PUSH1 0x40 MSTORE DUP1 PUSH1 0x15 DUP2 MSTORE PUSH1 0x20 ADD PUSH32 0x6275726E28616464726573732C75696E74323536290000000000000000000000 DUP2 MSTORE POP DUP1 MLOAD SWAP1 PUSH1 0x20 ADD KECCAK256 DUP6 DUP6 PUSH1 0x40 MLOAD PUSH1 0x24 ADD PUSH2 0x1807 SWAP3 SWAP2 SWAP1 PUSH2 0x2239 JUMP JUMPDEST PUSH1 0x40 MLOAD PUSH1 0x20 DUP2 DUP4 SUB SUB DUP2 MSTORE SWAP1 PUSH1 0x40 MSTORE SWAP1 PUSH28 0xFFFFFFFFFFFFFFFFFFFFFFFFFFFFFFFFFFFFFFFFFFFFFFFFFFFFFFFF NOT AND PUSH1 0x20 DUP3 ADD DUP1 MLOAD PUSH28 0xFFFFFFFFFFFFFFFFFFFFFFFFFFFFFFFFFFFFFFFFFFFFFFFFFFFFFFFF DUP4 DUP2 DUP4 AND OR DUP4 MSTORE POP POP POP POP PUSH1 0x40 MLOAD PUSH2 0x1871 SWAP2 SWAP1 PUSH2 0x2137 JUMP JUMPDEST PUSH1 0x0 PUSH1 0x40 MLOAD DUP1 DUP4 SUB DUP2 PUSH1 0x0 DUP7 GAS CALL SWAP2 POP POP RETURNDATASIZE DUP1 PUSH1 0x0 DUP2 EQ PUSH2 0x18AE JUMPI PUSH1 0x40 MLOAD SWAP2 POP PUSH1 0x1F NOT PUSH1 0x3F RETURNDATASIZE ADD AND DUP3 ADD PUSH1 0x40 MSTORE RETURNDATASIZE DUP3 MSTORE RETURNDATASIZE PUSH1 0x0 PUSH1 0x20 DUP5 ADD RETURNDATACOPY PUSH2 0x18B3 JUMP JUMPDEST PUSH1 0x60 SWAP2 POP JUMPDEST POP SWAP2 POP SWAP2 POP DUP2 DUP1 ISZERO PUSH2 0x18E1 JUMPI POP PUSH1 0x0 DUP2 MLOAD EQ DUP1 PUSH2 0x18E0 JUMPI POP DUP1 DUP1 PUSH1 0x20 ADD SWAP1 MLOAD DUP2 ADD SWAP1 PUSH2 0x18DF SWAP2 SWAP1 PUSH2 0x217A JUMP JUMPDEST JUMPDEST JUMPDEST PUSH2 0x1920 JUMPI PUSH1 0x40 MLOAD PUSH32 0x8C379A000000000000000000000000000000000000000000000000000000000 DUP2 MSTORE PUSH1 0x4 ADD PUSH2 0x1917 SWAP1 PUSH2 0x2418 JUMP JUMPDEST PUSH1 0x40 MLOAD DUP1 SWAP2 SUB SWAP1 REVERT JUMPDEST POP POP POP POP POP JUMP JUMPDEST PUSH1 0x0 PUSH20 0xFFFFFFFFFFFFFFFFFFFFFFFFFFFFFFFFFFFFFFFF DUP3 AND SWAP1 POP SWAP2 SWAP1 POP JUMP JUMPDEST PUSH1 0x0 PUSH2 0x1952 DUP3 PUSH2 0x1927 JUMP JUMPDEST SWAP1 POP SWAP2 SWAP1 POP JUMP JUMPDEST PUSH2 0x1962 DUP2 PUSH2 0x1947 JUMP JUMPDEST DUP3 MSTORE POP POP JUMP JUMPDEST PUSH1 0x0 PUSH1 0x20 DUP3 ADD SWAP1 POP PUSH2 0x197D PUSH1 0x0 DUP4 ADD DUP5 PUSH2 0x1959 JUMP JUMPDEST SWAP3 SWAP2 POP POP JUMP JUMPDEST PUSH1 0x0 DUP2 SWAP1 POP SWAP2 SWAP1 POP JUMP JUMPDEST PUSH2 0x1996 DUP2 PUSH2 0x1983 JUMP JUMPDEST DUP3 MSTORE POP POP JUMP JUMPDEST PUSH1 0x0 PUSH1 0x20 DUP3 ADD SWAP1 POP PUSH2 0x19B1 PUSH1 0x0 DUP4 ADD DUP5 PUSH2 0x198D JUMP JUMPDEST SWAP3 SWAP2 POP POP JUMP JUMPDEST PUSH1 0x0 DUP1 REVERT JUMPDEST PUSH2 0x19C5 DUP2 PUSH2 0x1947 JUMP JUMPDEST DUP2 EQ PUSH2 0x19D0 JUMPI PUSH1 0x0 DUP1 REVERT JUMPDEST POP JUMP JUMPDEST PUSH1 0x0 DUP2 CALLDATALOAD SWAP1 POP PUSH2 0x19E2 DUP2 PUSH2 0x19BC JUMP JUMPDEST SWAP3 SWAP2 POP POP JUMP JUMPDEST PUSH2 0x19F1 DUP2 PUSH2 0x1983 JUMP JUMPDEST DUP2 EQ PUSH2 0x19FC JUMPI PUSH1 0x0 DUP1 REVERT JUMPDEST POP JUMP JUMPDEST PUSH1 0x0 DUP2 CALLDATALOAD SWAP1 POP PUSH2 0x1A0E DUP2 PUSH2 0x19E8 JUMP JUMPDEST SWAP3 SWAP2 POP POP JUMP JUMPDEST PUSH1 0x0 DUP1 PUSH1 0x0 DUP1 PUSH1 0x80 DUP6 DUP8 SUB SLT ISZERO PUSH2 0x1A2E JUMPI PUSH2 0x1A2D PUSH2 0x19B7 JUMP JUMPDEST JUMPDEST PUSH1 0x0 PUSH2 0x1A3C DUP8 DUP3 DUP9 ADD PUSH2 0x19D3 JUMP JUMPDEST SWAP5 POP POP PUSH1 0x20 PUSH2 0x1A4D DUP8 DUP3 DUP9 ADD PUSH2 0x19D3 JUMP JUMPDEST SWAP4 POP POP PUSH1 0x40 PUSH2 0x1A5E DUP8 DUP3 DUP9 ADD PUSH2 0x19FF JUMP JUMPDEST SWAP3 POP POP PUSH1 0x60 PUSH2 0x1A6F DUP8 DUP3 DUP9 ADD PUSH2 0x19FF JUMP JUMPDEST SWAP2 POP POP SWAP3 SWAP6 SWAP2 SWAP5 POP SWAP3 POP JUMP JUMPDEST PUSH1 0x0 DUP2 ISZERO ISZERO SWAP1 POP SWAP2 SWAP1 POP JUMP JUMPDEST PUSH2 0x1A90 DUP2 PUSH2 0x1A7B JUMP JUMPDEST DUP3 MSTORE POP POP JUMP JUMPDEST PUSH1 0x0 PUSH1 0x20 DUP3 ADD SWAP1 POP PUSH2 0x1AAB PUSH1 0x0 DUP4 ADD DUP5 PUSH2 0x1A87 JUMP JUMPDEST SWAP3 SWAP2 POP POP JUMP JUMPDEST PUSH1 0x0 DUP1 PUSH1 0x0 DUP1 PUSH1 0x0 PUSH1 0xA0 DUP7 DUP9 SUB SLT ISZERO PUSH2 0x1ACD JUMPI PUSH2 0x1ACC PUSH2 0x19B7 JUMP JUMPDEST JUMPDEST PUSH1 0x0 PUSH2 0x1ADB DUP9 DUP3 DUP10 ADD PUSH2 0x19D3 JUMP JUMPDEST SWAP6 POP POP PUSH1 0x20 PUSH2 0x1AEC DUP9 DUP3 DUP10 ADD PUSH2 0x19D3 JUMP JUMPDEST SWAP5 POP POP PUSH1 0x40 PUSH2 0x1AFD DUP9 DUP3 DUP10 ADD PUSH2 0x19D3 JUMP JUMPDEST SWAP4 POP POP PUSH1 0x60 PUSH2 0x1B0E DUP9 DUP3 DUP10 ADD PUSH2 0x19FF JUMP JUMPDEST SWAP3 POP POP PUSH1 0x80 PUSH2 0x1B1F DUP9 DUP3 DUP10 ADD PUSH2 0x19FF JUMP JUMPDEST SWAP2 POP POP SWAP3 SWAP6 POP SWAP3 SWAP6 SWAP1 SWAP4 POP JUMP JUMPDEST PUSH1 0x0 DUP1 PUSH1 0x0 DUP1 PUSH1 0x0 DUP1 PUSH1 0xC0 DUP8 DUP10 SUB SLT ISZERO PUSH2 0x1B49 JUMPI PUSH2 0x1B48 PUSH2 0x19B7 JUMP JUMPDEST JUMPDEST PUSH1 0x0 PUSH2 0x1B57 DUP10 DUP3 DUP11 ADD PUSH2 0x19D3 JUMP JUMPDEST SWAP7 POP POP PUSH1 0x20 PUSH2 0x1B68 DUP10 DUP3 DUP11 ADD PUSH2 0x19D3 JUMP JUMPDEST SWAP6 POP POP PUSH1 0x40 PUSH2 0x1B79 DUP10 DUP3 DUP11 ADD PUSH2 0x19D3 JUMP JUMPDEST SWAP5 POP POP PUSH1 0x60 PUSH2 0x1B8A DUP10 DUP3 DUP11 ADD PUSH2 0x19FF JUMP JUMPDEST SWAP4 POP POP PUSH1 0x80 PUSH2 0x1B9B DUP10 DUP3 DUP11 ADD PUSH2 0x19FF JUMP JUMPDEST SWAP3 POP POP PUSH1 0xA0 PUSH2 0x1BAC DUP10 DUP3 DUP11 ADD PUSH2 0x19FF JUMP JUMPDEST SWAP2 POP POP SWAP3 SWAP6 POP SWAP3 SWAP6 POP SWAP3 SWAP6 JUMP JUMPDEST PUSH1 0x0 DUP3 DUP3 MSTORE PUSH1 0x20 DUP3 ADD SWAP1 POP SWAP3 SWAP2 POP POP JUMP JUMPDEST PUSH32 0x4E6F742075736564206164647265737300000000000000000000000000000000 PUSH1 0x0 DUP3 ADD MSTORE POP JUMP JUMPDEST PUSH1 0x0 PUSH2 0x1C00 PUSH1 0x10 DUP4 PUSH2 0x1BB9 JUMP JUMPDEST SWAP2 POP PUSH2 0x1C0B DUP3 PUSH2 0x1BCA JUMP JUMPDEST PUSH1 0x20 DUP3 ADD SWAP1 POP SWAP2 SWAP1 POP JUMP JUMPDEST PUSH1 0x0 PUSH1 0x20 DUP3 ADD SWAP1 POP DUP2 DUP2 SUB PUSH1 0x0 DUP4 ADD MSTORE PUSH2 0x1C2F DUP2 PUSH2 0x1BF3 JUMP JUMPDEST SWAP1 POP SWAP2 SWAP1 POP JUMP JUMPDEST PUSH32 0x4E6F7420657175616C0000000000000000000000000000000000000000000000 PUSH1 0x0 DUP3 ADD MSTORE POP JUMP JUMPDEST PUSH1 0x0 PUSH2 0x1C6C PUSH1 0x9 DUP4 PUSH2 0x1BB9 JUMP JUMPDEST SWAP2 POP PUSH2 0x1C77 DUP3 PUSH2 0x1C36 JUMP JUMPDEST PUSH1 0x20 DUP3 ADD SWAP1 POP SWAP2 SWAP1 POP JUMP JUMPDEST PUSH1 0x0 PUSH1 0x20 DUP3 ADD SWAP1 POP DUP2 DUP2 SUB PUSH1 0x0 DUP4 ADD MSTORE PUSH2 0x1C9B DUP2 PUSH2 0x1C5F JUMP JUMPDEST SWAP1 POP SWAP2 SWAP1 POP JUMP JUMPDEST PUSH1 0x0 DUP2 MLOAD SWAP1 POP PUSH2 0x1CB1 DUP2 PUSH2 0x19E8 JUMP JUMPDEST SWAP3 SWAP2 POP POP JUMP JUMPDEST PUSH1 0x0 PUSH1 0x20 DUP3 DUP5 SUB SLT ISZERO PUSH2 0x1CCD JUMPI PUSH2 0x1CCC PUSH2 0x19B7 JUMP JUMPDEST JUMPDEST PUSH1 0x0 PUSH2 0x1CDB DUP5 DUP3 DUP6 ADD PUSH2 0x1CA2 JUMP JUMPDEST SWAP2 POP POP SWAP3 SWAP2 POP POP JUMP JUMPDEST PUSH32 0x4E487B7100000000000000000000000000000000000000000000000000000000 PUSH1 0x0 MSTORE PUSH1 0x11 PUSH1 0x4 MSTORE PUSH1 0x24 PUSH1 0x0 REVERT JUMPDEST PUSH1 0x0 PUSH2 0x1D1E DUP3 PUSH2 0x1983 JUMP JUMPDEST SWAP2 POP PUSH2 0x1D29 DUP4 PUSH2 0x1983 JUMP JUMPDEST SWAP3 POP DUP3 DUP3 LT ISZERO PUSH2 0x1D3C JUMPI PUSH2 0x1D3B PUSH2 0x1CE4 JUMP JUMPDEST JUMPDEST DUP3 DUP3 SUB SWAP1 POP SWAP3 SWAP2 POP POP JUMP JUMPDEST PUSH1 0x0 PUSH2 0x1D52 DUP3 PUSH2 0x1983 JUMP JUMPDEST SWAP2 POP PUSH2 0x1D5D DUP4 PUSH2 0x1983 JUMP JUMPDEST SWAP3 POP DUP2 PUSH32 0xFFFFFFFFFFFFFFFFFFFFFFFFFFFFFFFFFFFFFFFFFFFFFFFFFFFFFFFFFFFFFFFF DIV DUP4 GT DUP3 ISZERO ISZERO AND ISZERO PUSH2 0x1D96 JUMPI PUSH2 0x1D95 PUSH2 0x1CE4 JUMP JUMPDEST JUMPDEST DUP3 DUP3 MUL SWAP1 POP SWAP3 SWAP2 POP POP JUMP JUMPDEST PUSH32 0x4D696E7573206C69717569646974790000000000000000000000000000000000 PUSH1 0x0 DUP3 ADD MSTORE POP JUMP JUMPDEST PUSH1 0x0 PUSH2 0x1DD7 PUSH1 0xF DUP4 PUSH2 0x1BB9 JUMP JUMPDEST SWAP2 POP PUSH2 0x1DE2 DUP3 PUSH2 0x1DA1 JUMP JUMPDEST PUSH1 0x20 DUP3 ADD SWAP1 POP SWAP2 SWAP1 POP JUMP JUMPDEST PUSH1 0x0 PUSH1 0x20 DUP3 ADD SWAP1 POP DUP2 DUP2 SUB PUSH1 0x0 DUP4 ADD MSTORE PUSH2 0x1E06 DUP2 PUSH2 0x1DCA JUMP JUMPDEST SWAP1 POP SWAP2 SWAP1 POP JUMP JUMPDEST PUSH32 0x4E487B7100000000000000000000000000000000000000000000000000000000 PUSH1 0x0 MSTORE PUSH1 0x12 PUSH1 0x4 MSTORE PUSH1 0x24 PUSH1 0x0 REVERT JUMPDEST PUSH1 0x0 PUSH2 0x1E47 DUP3 PUSH2 0x1983 JUMP JUMPDEST SWAP2 POP PUSH2 0x1E52 DUP4 PUSH2 0x1983 JUMP JUMPDEST SWAP3 POP DUP3 PUSH2 0x1E62 JUMPI PUSH2 0x1E61 PUSH2 0x1E0D JUMP JUMPDEST JUMPDEST DUP3 DUP3 DIV SWAP1 POP SWAP3 SWAP2 POP POP JUMP JUMPDEST PUSH1 0x0 PUSH2 0x1E78 DUP3 PUSH2 0x1983 JUMP JUMPDEST SWAP2 POP PUSH2 0x1E83 DUP4 PUSH2 0x1983 JUMP JUMPDEST SWAP3 POP DUP3 PUSH32 0xFFFFFFFFFFFFFFFFFFFFFFFFFFFFFFFFFFFFFFFFFFFFFFFFFFFFFFFFFFFFFFFF SUB DUP3 GT ISZERO PUSH2 0x1EB8 JUMPI PUSH2 0x1EB7 PUSH2 0x1CE4 JUMP JUMPDEST JUMPDEST DUP3 DUP3 ADD SWAP1 POP SWAP3 SWAP2 POP POP JUMP JUMPDEST PUSH1 0x0 PUSH1 0x80 DUP3 ADD SWAP1 POP PUSH2 0x1ED8 PUSH1 0x0 DUP4 ADD DUP8 PUSH2 0x1959 JUMP JUMPDEST PUSH2 0x1EE5 PUSH1 0x20 DUP4 ADD DUP7 PUSH2 0x1959 JUMP JUMPDEST PUSH2 0x1EF2 PUSH1 0x40 DUP4 ADD DUP6 PUSH2 0x198D JUMP JUMPDEST PUSH2 0x1EFF PUSH1 0x60 DUP4 ADD DUP5 PUSH2 0x198D JUMP JUMPDEST SWAP6 SWAP5 POP POP POP POP POP JUMP JUMPDEST PUSH32 0x5A65726F20616D6F756E74000000000000000000000000000000000000000000 PUSH1 0x0 DUP3 ADD MSTORE POP JUMP JUMPDEST PUSH1 0x0 PUSH2 0x1F3E PUSH1 0xB DUP4 PUSH2 0x1BB9 JUMP JUMPDEST SWAP2 POP PUSH2 0x1F49 DUP3 PUSH2 0x1F08 JUMP JUMPDEST PUSH1 0x20 DUP3 ADD SWAP1 POP SWAP2 SWAP1 POP JUMP JUMPDEST PUSH1 0x0 PUSH1 0x20 DUP3 ADD SWAP1 POP DUP2 DUP2 SUB PUSH1 0x0 DUP4 ADD MSTORE PUSH2 0x1F6D DUP2 PUSH2 0x1F31 JUMP JUMPDEST SWAP1 POP SWAP2 SWAP1 POP JUMP JUMPDEST PUSH1 0x0 PUSH1 0xA0 DUP3 ADD SWAP1 POP PUSH2 0x1F89 PUSH1 0x0 DUP4 ADD DUP9 PUSH2 0x1959 JUMP JUMPDEST PUSH2 0x1F96 PUSH1 0x20 DUP4 ADD DUP8 PUSH2 0x1959 JUMP JUMPDEST PUSH2 0x1FA3 PUSH1 0x40 DUP4 ADD DUP7 PUSH2 0x1959 JUMP JUMPDEST PUSH2 0x1FB0 PUSH1 0x60 DUP4 ADD DUP6 PUSH2 0x198D JUMP JUMPDEST PUSH2 0x1FBD PUSH1 0x80 DUP4 ADD DUP5 PUSH2 0x198D JUMP JUMPDEST SWAP7 SWAP6 POP POP POP POP POP POP JUMP JUMPDEST PUSH32 0x4D696E757320616D6F756E740000000000000000000000000000000000000000 PUSH1 0x0 DUP3 ADD MSTORE POP JUMP JUMPDEST PUSH1 0x0 PUSH2 0x1FFD PUSH1 0xC DUP4 PUSH2 0x1BB9 JUMP JUMPDEST SWAP2 POP PUSH2 0x2008 DUP3 PUSH2 0x1FC7 JUMP JUMPDEST PUSH1 0x20 DUP3 ADD SWAP1 POP SWAP2 SWAP1 POP JUMP JUMPDEST PUSH1 0x0 PUSH1 0x20 DUP3 ADD SWAP1 POP DUP2 DUP2 SUB PUSH1 0x0 DUP4 ADD MSTORE PUSH2 0x202C DUP2 PUSH2 0x1FF0 JUMP JUMPDEST SWAP1 POP SWAP2 SWAP1 POP JUMP JUMPDEST PUSH1 0x0 PUSH1 0xA0 DUP3 ADD SWAP1 POP PUSH2 0x2048 PUSH1 0x0 DUP4 ADD DUP9 PUSH2 0x1959 JUMP JUMPDEST PUSH2 0x2055 PUSH1 0x20 DUP4 ADD DUP8 PUSH2 0x1959 JUMP JUMPDEST PUSH2 0x2062 PUSH1 0x40 DUP4 ADD DUP7 PUSH2 0x198D JUMP JUMPDEST PUSH2 0x206F PUSH1 0x60 DUP4 ADD DUP6 PUSH2 0x198D JUMP JUMPDEST PUSH2 0x207C PUSH1 0x80 DUP4 ADD DUP5 PUSH2 0x198D JUMP JUMPDEST SWAP7 SWAP6 POP POP POP POP POP POP JUMP JUMPDEST PUSH1 0x0 PUSH1 0x60 DUP3 ADD SWAP1 POP PUSH2 0x209B PUSH1 0x0 DUP4 ADD DUP7 PUSH2 0x1959 JUMP JUMPDEST PUSH2 0x20A8 PUSH1 0x20 DUP4 ADD DUP6 PUSH2 0x1959 JUMP JUMPDEST PUSH2 0x20B5 PUSH1 0x40 DUP4 ADD DUP5 PUSH2 0x198D JUMP JUMPDEST SWAP5 SWAP4 POP POP POP POP JUMP JUMPDEST PUSH1 0x0 DUP2 MLOAD SWAP1 POP SWAP2 SWAP1 POP JUMP JUMPDEST PUSH1 0x0 DUP2 SWAP1 POP SWAP3 SWAP2 POP POP JUMP JUMPDEST PUSH1 0x0 JUMPDEST DUP4 DUP2 LT ISZERO PUSH2 0x20F1 JUMPI DUP1 DUP3 ADD MLOAD DUP2 DUP5 ADD MSTORE PUSH1 0x20 DUP2 ADD SWAP1 POP PUSH2 0x20D6 JUMP JUMPDEST DUP4 DUP2 GT ISZERO PUSH2 0x2100 JUMPI PUSH1 0x0 DUP5 DUP5 ADD MSTORE JUMPDEST POP POP POP POP JUMP JUMPDEST PUSH1 0x0 PUSH2 0x2111 DUP3 PUSH2 0x20BD JUMP JUMPDEST PUSH2 0x211B DUP2 DUP6 PUSH2 0x20C8 JUMP JUMPDEST SWAP4 POP PUSH2 0x212B DUP2 DUP6 PUSH1 0x20 DUP7 ADD PUSH2 0x20D3 JUMP JUMPDEST DUP1 DUP5 ADD SWAP2 POP POP SWAP3 SWAP2 POP POP JUMP JUMPDEST PUSH1 0x0 PUSH2 0x2143 DUP3 DUP5 PUSH2 0x2106 JUMP JUMPDEST SWAP2 POP DUP2 SWAP1 POP SWAP3 SWAP2 POP POP JUMP JUMPDEST PUSH2 0x2157 DUP2 PUSH2 0x1A7B JUMP JUMPDEST DUP2 EQ PUSH2 0x2162 JUMPI PUSH1 0x0 DUP1 REVERT JUMPDEST POP JUMP JUMPDEST PUSH1 0x0 DUP2 MLOAD SWAP1 POP PUSH2 0x2174 DUP2 PUSH2 0x214E JUMP JUMPDEST SWAP3 SWAP2 POP POP JUMP JUMPDEST PUSH1 0x0 PUSH1 0x20 DUP3 DUP5 SUB SLT ISZERO PUSH2 0x2190 JUMPI PUSH2 0x218F PUSH2 0x19B7 JUMP JUMPDEST JUMPDEST PUSH1 0x0 PUSH2 0x219E DUP5 DUP3 DUP6 ADD PUSH2 0x2165 JUMP JUMPDEST SWAP2 POP POP SWAP3 SWAP2 POP POP JUMP JUMPDEST PUSH32 0x5472616E7366657248656C7065723A3A7472616E7366657246726F6D3A207472 PUSH1 0x0 DUP3 ADD MSTORE PUSH32 0x616E7366657246726F6D206661696C6564000000000000000000000000000000 PUSH1 0x20 DUP3 ADD MSTORE POP JUMP JUMPDEST PUSH1 0x0 PUSH2 0x2203 PUSH1 0x31 DUP4 PUSH2 0x1BB9 JUMP JUMPDEST SWAP2 POP PUSH2 0x220E DUP3 PUSH2 0x21A7 JUMP JUMPDEST PUSH1 0x40 DUP3 ADD SWAP1 POP SWAP2 SWAP1 POP JUMP JUMPDEST PUSH1 0x0 PUSH1 0x20 DUP3 ADD SWAP1 POP DUP2 DUP2 SUB PUSH1 0x0 DUP4 ADD MSTORE PUSH2 0x2232 DUP2 PUSH2 0x21F6 JUMP JUMPDEST SWAP1 POP SWAP2 SWAP1 POP JUMP JUMPDEST PUSH1 0x0 PUSH1 0x40 DUP3 ADD SWAP1 POP PUSH2 0x224E PUSH1 0x0 DUP4 ADD DUP6 PUSH2 0x1959 JUMP JUMPDEST PUSH2 0x225B PUSH1 0x20 DUP4 ADD DUP5 PUSH2 0x198D JUMP JUMPDEST SWAP4 SWAP3 POP POP POP JUMP JUMPDEST PUSH32 0x4641494C4544204D696E74000000000000000000000000000000000000000000 PUSH1 0x0 DUP3 ADD MSTORE POP JUMP JUMPDEST PUSH1 0x0 PUSH2 0x2298 PUSH1 0xB DUP4 PUSH2 0x1BB9 JUMP JUMPDEST SWAP2 POP PUSH2 0x22A3 DUP3 PUSH2 0x2262 JUMP JUMPDEST PUSH1 0x20 DUP3 ADD SWAP1 POP SWAP2 SWAP1 POP JUMP JUMPDEST PUSH1 0x0 PUSH1 0x20 DUP3 ADD SWAP1 POP DUP2 DUP2 SUB PUSH1 0x0 DUP4 ADD MSTORE PUSH2 0x22C7 DUP2 PUSH2 0x228B JUMP JUMPDEST SWAP1 POP SWAP2 SWAP1 POP JUMP JUMPDEST PUSH32 0x30206E756D626572000000000000000000000000000000000000000000000000 PUSH1 0x0 DUP3 ADD MSTORE POP JUMP JUMPDEST PUSH1 0x0 PUSH2 0x2304 PUSH1 0x8 DUP4 PUSH2 0x1BB9 JUMP JUMPDEST SWAP2 POP PUSH2 0x230F DUP3 PUSH2 0x22CE JUMP JUMPDEST PUSH1 0x20 DUP3 ADD SWAP1 POP SWAP2 SWAP1 POP JUMP JUMPDEST PUSH1 0x0 PUSH1 0x20 DUP3 ADD SWAP1 POP DUP2 DUP2 SUB PUSH1 0x0 DUP4 ADD MSTORE PUSH2 0x2333 DUP2 PUSH2 0x22F7 JUMP JUMPDEST SWAP1 POP SWAP2 SWAP1 POP JUMP JUMPDEST PUSH32 0x5472616E7366657248656C7065723A3A736166655472616E736665723A207472 PUSH1 0x0 DUP3 ADD MSTORE PUSH32 0x616E73666572206661696C656400000000000000000000000000000000000000 PUSH1 0x20 DUP3 ADD MSTORE POP JUMP JUMPDEST PUSH1 0x0 PUSH2 0x2396 PUSH1 0x2D DUP4 PUSH2 0x1BB9 JUMP JUMPDEST SWAP2 POP PUSH2 0x23A1 DUP3 PUSH2 0x233A JUMP JUMPDEST PUSH1 0x40 DUP3 ADD SWAP1 POP SWAP2 SWAP1 POP JUMP JUMPDEST PUSH1 0x0 PUSH1 0x20 DUP3 ADD SWAP1 POP DUP2 DUP2 SUB PUSH1 0x0 DUP4 ADD MSTORE PUSH2 0x23C5 DUP2 PUSH2 0x2389 JUMP JUMPDEST SWAP1 POP SWAP2 SWAP1 POP JUMP JUMPDEST PUSH32 0x4641494C4544204275726E000000000000000000000000000000000000000000 PUSH1 0x0 DUP3 ADD MSTORE POP JUMP JUMPDEST PUSH1 0x0 PUSH2 0x2402 PUSH1 0xB DUP4 PUSH2 0x1BB9 JUMP JUMPDEST SWAP2 POP PUSH2 0x240D DUP3 PUSH2 0x23CC JUMP JUMPDEST PUSH1 0x20 DUP3 ADD SWAP1 POP SWAP2 SWAP1 POP JUMP JUMPDEST PUSH1 0x0 PUSH1 0x20 DUP3 ADD SWAP1 POP DUP2 DUP2 SUB PUSH1 0x0 DUP4 ADD MSTORE PUSH2 0x2431 DUP2 PUSH2 0x23F5 JUMP JUMPDEST SWAP1 POP SWAP2 SWAP1 POP JUMP INVALID PUSH21 0x72616E7366657246726F6D28616464726573732C61 PUSH5 0x6472657373 0x2C PUSH22 0x696E7432353629A2646970667358221220C0CCB7F074 0xB9 0xC0 GASPRICE 0x4E 0x23 0xB4 PUSH26 0x8ED10466A6D542D7919FCD22BF7CD31CE3DAA20C64736F6C6343 STOP ADDMOD 0xF STOP CALLER "
		},
		"gasEstimates": {
			"creation": {
				"codeDepositCost": "1872600",
				"executionCost": "infinite",
				"totalCost": "infinite"
			},
			"external": {
				"_addLiquidity(address,address,uint256,uint256)": "infinite",
				"_deleteLiquidity(address,address,address,uint256,uint256,uint256)": "infinite",
				"_swap(address,address,address,uint256,uint256)": "infinite",
				"k()": "2473",
				"lp()": "2559",
				"min_liq()": "374",
				"price0()": "2451",
				"price1()": "2540",
				"reserve0()": "2496",
				"reserve1()": "2518",
				"token0()": "2515",
				"token1()": "2580",
				"totalSupply()": "2452"
			},
			"internal": {
				"_updateStorage(address,address,uint256,uint256)": "infinite",
				"burn(address,address,uint256)": "infinite",
				"getBalancePair()": "4237",
				"mint(address,address,uint256)": "infinite",
				"transfer(address,address,uint256)": "infinite",
				"transferFrom(address,address,uint256)": "infinite",
				"updateK(address,address)": "infinite"
			}
		},
		"methodIdentifiers": {
			"_addLiquidity(address,address,uint256,uint256)": "77619ac5",
			"_deleteLiquidity(address,address,address,uint256,uint256,uint256)": "db5159a2",
			"_swap(address,address,address,uint256,uint256)": "9ba613a8",
			"k()": "b4f40c61",
			"lp()": "313c06a0",
			"min_liq()": "8f402b56",
			"price0()": "a0a986f1",
			"price1()": "6caf25ce",
			"reserve0()": "443cb4bc",
			"reserve1()": "5a76f25e",
			"token0()": "0dfe1681",
			"token1()": "d21220a7",
			"totalSupply()": "18160ddd"
		}
	},
	"abi": [
		{
			"inputs": [
				{
					"internalType": "address",
					"name": "_token0",
					"type": "address"
				},
				{
					"internalType": "address",
					"name": "_token1",
					"type": "address"
				},
				{
					"internalType": "address",
					"name": "_lp",
					"type": "address"
				},
				{
					"internalType": "uint256",
					"name": "_fee",
					"type": "uint256"
				}
			],
			"stateMutability": "nonpayable",
			"type": "constructor"
		},
		{
			"anonymous": false,
			"inputs": [
				{
					"indexed": false,
					"internalType": "address",
					"name": "token0",
					"type": "address"
				},
				{
					"indexed": false,
					"internalType": "address",
					"name": "token1",
					"type": "address"
				},
				{
					"indexed": false,
					"internalType": "uint256",
					"name": "amount0",
					"type": "uint256"
				},
				{
					"indexed": false,
					"internalType": "uint256",
					"name": "amount1",
					"type": "uint256"
				}
			],
			"name": "AddLiquidity",
			"type": "event"
		},
		{
			"anonymous": false,
			"inputs": [
				{
					"indexed": false,
					"internalType": "address",
					"name": "token0",
					"type": "address"
				},
				{
					"indexed": false,
					"internalType": "address",
					"name": "token1",
					"type": "address"
				},
				{
					"indexed": false,
					"internalType": "uint256",
					"name": "amount0",
					"type": "uint256"
				},
				{
					"indexed": false,
					"internalType": "uint256",
					"name": "amount1",
					"type": "uint256"
				},
				{
					"indexed": false,
					"internalType": "uint256",
					"name": "liquidity",
					"type": "uint256"
				}
			],
			"name": "DeleteLiquidity",
			"type": "event"
		},
		{
			"anonymous": false,
			"inputs": [
				{
					"indexed": false,
					"internalType": "address",
					"name": "token0",
					"type": "address"
				},
				{
					"indexed": false,
					"internalType": "address",
					"name": "token1",
					"type": "address"
				},
				{
					"indexed": false,
					"internalType": "address",
					"name": "_to",
					"type": "address"
				},
				{
					"indexed": false,
					"internalType": "uint256",
					"name": "amount0",
					"type": "uint256"
				},
				{
					"indexed": false,
					"internalType": "uint256",
					"name": "amount1",
					"type": "uint256"
				}
			],
			"name": "SwapToken",
			"type": "event"
		},
		{
			"anonymous": false,
			"inputs": [
				{
					"indexed": false,
					"internalType": "address",
					"name": "token0",
					"type": "address"
				},
				{
					"indexed": false,
					"internalType": "address",
					"name": "token1",
					"type": "address"
				},
				{
					"indexed": false,
					"internalType": "uint256",
					"name": "newBalance0",
					"type": "uint256"
				},
				{
					"indexed": false,
					"internalType": "uint256",
					"name": "newBalance1",
					"type": "uint256"
				}
			],
			"name": "SyncStorage",
			"type": "event"
		},
		{
			"inputs": [
				{
					"internalType": "address",
					"name": "_token0",
					"type": "address"
				},
				{
					"internalType": "address",
					"name": "_token1",
					"type": "address"
				},
				{
					"internalType": "uint256",
					"name": "amount0",
					"type": "uint256"
				},
				{
					"internalType": "uint256",
					"name": "amount1",
					"type": "uint256"
				}
			],
			"name": "_addLiquidity",
			"outputs": [
				{
					"internalType": "bool",
					"name": "",
					"type": "bool"
				}
			],
			"stateMutability": "nonpayable",
			"type": "function"
		},
		{
			"inputs": [
				{
					"internalType": "address",
					"name": "_token0",
					"type": "address"
				},
				{
					"internalType": "address",
					"name": "_token1",
					"type": "address"
				},
				{
					"internalType": "address",
					"name": "_to",
					"type": "address"
				},
				{
					"internalType": "uint256",
					"name": "liquidity",
					"type": "uint256"
				},
				{
					"internalType": "uint256",
					"name": "amount0",
					"type": "uint256"
				},
				{
					"internalType": "uint256",
					"name": "amount1",
					"type": "uint256"
				}
			],
			"name": "_deleteLiquidity",
			"outputs": [
				{
					"internalType": "bool",
					"name": "",
					"type": "bool"
				}
			],
			"stateMutability": "nonpayable",
			"type": "function"
		},
		{
			"inputs": [
				{
					"internalType": "address",
					"name": "_token0",
					"type": "address"
				},
				{
					"internalType": "address",
					"name": "_token1",
					"type": "address"
				},
				{
					"internalType": "address",
					"name": "_to",
					"type": "address"
				},
				{
					"internalType": "uint256",
					"name": "amount0",
					"type": "uint256"
				},
				{
					"internalType": "uint256",
					"name": "amount1",
					"type": "uint256"
				}
			],
			"name": "_swap",
			"outputs": [
				{
					"internalType": "bool",
					"name": "",
					"type": "bool"
				}
			],
			"stateMutability": "nonpayable",
			"type": "function"
		},
		{
			"inputs": [],
			"name": "k",
			"outputs": [
				{
					"internalType": "uint256",
					"name": "",
					"type": "uint256"
				}
			],
			"stateMutability": "view",
			"type": "function"
		},
		{
			"inputs": [],
			"name": "lp",
			"outputs": [
				{
					"internalType": "address",
					"name": "",
					"type": "address"
				}
			],
			"stateMutability": "view",
			"type": "function"
		},
		{
			"inputs": [],
			"name": "min_liq",
			"outputs": [
				{
					"internalType": "uint256",
					"name": "",
					"type": "uint256"
				}
			],
			"stateMutability": "view",
			"type": "function"
		},
		{
			"inputs": [],
			"name": "price0",
			"outputs": [
				{
					"internalType": "uint256",
					"name": "",
					"type": "uint256"
				}
			],
			"stateMutability": "view",
			"type": "function"
		},
		{
			"inputs": [],
			"name": "price1",
			"outputs": [
				{
					"internalType": "uint256",
					"name": "",
					"type": "uint256"
				}
			],
			"stateMutability": "view",
			"type": "function"
		},
		{
			"inputs": [],
			"name": "reserve0",
			"outputs": [
				{
					"internalType": "uint256",
					"name": "",
					"type": "uint256"
				}
			],
			"stateMutability": "view",
			"type": "function"
		},
		{
			"inputs": [],
			"name": "reserve1",
			"outputs": [
				{
					"internalType": "uint256",
					"name": "",
					"type": "uint256"
				}
			],
			"stateMutability": "view",
			"type": "function"
		},
		{
			"inputs": [],
			"name": "token0",
			"outputs": [
				{
					"internalType": "address",
					"name": "",
					"type": "address"
				}
			],
			"stateMutability": "view",
			"type": "function"
		},
		{
			"inputs": [],
			"name": "token1",
			"outputs": [
				{
					"internalType": "address",
					"name": "",
					"type": "address"
				}
			],
			"stateMutability": "view",
			"type": "function"
		},
		{
			"inputs": [],
			"name": "totalSupply",
			"outputs": [
				{
					"internalType": "uint256",
					"name": "",
					"type": "uint256"
				}
			],
			"stateMutability": "view",
			"type": "function"
		}
	]
}